:020000040800F2
:1000000000000220E555000831560008315600086E
:100010003156000831560008315600080000000033
:100020000000000000000000000000003156000841
:100030003156000800000000315600083156000813
:100040003156000831560008315600083156000874
:100050003156000831560008315600083156000864
:100060003156000831560008315600083156000854
:100070003156000831560008315600083156000844
:10008000315600083156000831560008453E000838
:10009000493E000831560008393E00083156000834
:1000A0003156000831560008315600083156000814
:1000B0003156000831560008315600083156000804
:1000C00031560008315600083156000831560008F4
:1000D00031560008315600083156000831560008E4
:1000E00031560008315600083156000831560008D4
:1000F00031560008315600083156000831560008C4
:1001000031560008315600083156000831560008B3
:1001100031560008315600083156000831560008A3
:100120003156000831560008315600083156000893
:10013000315600080000000000000000593E000891
:100140005D3E0008315600084D3E0008315600085B
:100150003156000831560008315600083156000863
:100160003156000831560008315600083156000853
:1001700031560008315600083156000800000000D2
:1001800000000000315600080000000000000000E0
:100190003156000800000000000000003156000841
:1001A00000000000000000000000000031560008C0
:1001B0003156000831560008315600083156000803
:1001C0003156000810B5054C237833B9044B13B1F0
:1001D0000448AFF300800123237010BD9810002065
:1001E0000000000074B9010808B5034B1BB10349B6
:1001F0000348AFF3008008BD000000009C10002001
:1002000074B90108A3F5803A704700BF174B002B63
:1002100008BF134B9D46FFF7F5FF00218B460F46A5
:100220001348144A121A09F0F1FD0E4B002B00D0AE
:1002300098470D4B002B00D0984700200021040068
:100240000D000D48002802D00C4804F014FA09F003
:1002500097FB2000290004F09DFC04F009FA00BF80
:100260000000080000000000854B0008000002208C
:10027000981000208036002077460008000000001B
:1002800010B5094B036003F1200280330446C0F827
:10029000BC20C0F8C030BC3008F056FC204607F047
:1002A00031FF204610BD00BFB4AC0108A0F1BC0076
:1002B000E6E7A0F1C000E3E708B5164C1649174879
:1002C000174D08F065FC1749144808F061FC2246F8
:1002D0001549124808F079FC1449104808F058FCF8
:1002E00011490E482A4608F070FC0C4808F03EFC04
:1002F0000F492B782278094808F04AFC207800F052
:10030000E1F82978207800F0BBFC00F02DF900F02E
:10031000C1FCFAE7CC0100204C84010874110020D4
:10032000B410002092840108008F0108A9840108FC
:10033000C684010810B50446FFF7A2FF204604F06A
:1003400002FB204610BDA0F1BC00F3E7A0F1C00005
:10035000F0E7000013B5094C4FF416530093032245
:1003600000230221204607F051FA054A054920469C
:1003700002B0BDE8104004F079B900BFB810002009
:10038000C8010020810200080FB407B5064B04AA7B
:100390001B6852F8041BD86801920FF04FFC03B0A1
:1003A0005DF804EB04B07047C006002008B5074BA9
:1003B0001A78074B1B789A4205D106481146FFF779
:1003C000E3FF012008BD0020FCE700BFCD010020B5
:1003D0002E130020DF840108024B1870062000F065
:1003E0007FBA00BF9211002038B50546FFF7DEFF47
:1003F0000128044605D105482946FFF7C5FF2046D8
:1004000038BD034B00241D70F9E700BF1E850108AD
:100410002E13002070B50D4E0D4D3378834228BF4A
:1004200003461A460B4829461C4609F0D9FB327888
:10043000094B121BD2B21C7032702AB129192846FE
:1004400009F0CEFB012070BD1046FCE7941100209E
:100450002F170020951100202A13002038B50546DB
:1004600010460C46FFF7C0FF012808D1072000F016
:1004700053FA20B1BDE83840072000F04DBA192CDE
:100480002246294609D80B4809F0AAFB0A4B1C70E2
:10049000BDE83840042000F023BA084809F0A0FB6A
:1004A000074B1A201C70FFF7B5FF072000F018FA61
:1004B000EEE700BF951100202A1300202F1700201F
:1004C0009411002010B50A4B0A4C00221A702070BB
:1004D00000F01CFAFFF76AFF207800F089FA06485E
:1004E00001F08EFFBDE81040044801F08FBF00BF4F
:1004F0002E130020CD0100205D040008D903000860
:100500002DE9FF41164D1F4695F80080154B144606
:1005100098440E4600F0E2F922460146404609F0B2
:100520005FFB2A78023A1444E4B2012F2C7003D006
:100530009DF82830012B10D100F09AFA039000F0BA
:1005400091FA039B009022460648314601F02CFFA9
:100550000020287004B0BDE8F0810120FAE700BF58
:10056000931100202F1300202DE9FF47B44BB54C09
:100570001A782578AA4218BF1D70012D00F0A580B9
:10058000022D00F0C580002D40F05681062000F0BD
:10059000C3F978B1AC4B187800F046FAB0FA80F0A5
:1005A000400901F01AFF2570062004B0BDE8F047AD
:1005B00000F0A0B9032000F0AFF998B300F042FAC0
:1005C000064600F045FA054600F046FA029000F0B3
:1005D00055FA0746284600F05EF9C0B20090029A2C
:1005E0003B4631462846FFF78BFF1FB1002323709F
:1005F0000320DAE7284600F06FF9944A137898420E
:1006000008BF431C284608BF137000F065F9014677
:100610008F4800F04AF932468D48032100F0FAF97C
:100620000123E4E7042000F077F938B3874D894BC4
:100630002A781B7803920720029300F06DF9B0FA34
:1006400080F04009DDE90232834900908348844EFE
:1006500000F032F9834B3278187001467F4800F081
:10066000D9F93378FF2B1EBF2B7801332B707E4BCB
:1006700000221A7001232370042096E7072000F05F
:100680004BF950B1042000F02BF91A20FFF7C2FEFD
:10069000002840F0D180072087E700F03DF908B13D
:1006A000002082E7012000F037F908B101207CE743
:1006B00000F032F908B1022077E7052000F02CF9AC
:1006C000002800F0B98005206FE7284600F024F9E3
:1006D000064650B100F0F2F9012803D0052000F0E1
:1006E0001BF900B102202070E0E700F015F90028A6
:1006F00000F0A2805A4B1B78FF2B04D128462670AD
:1007000001F068FECCE70223237000F017FAC7E778
:10071000284600F001F90546D0B100F099F90546E8
:100720004E4800F0D9F80646284600F0D5F8864233
:1007300007D100F0B7F900230120237001F04AFE31
:10074000B9E7464800F0C8F8284600F0C5F8B2E717
:10075000052000F0E1F8E0B1434E3378092B0BD9C6
:100760003E4800F0B9F801464048FFF70DFE284624
:10077000257001F02FFEA6E7394B38481A78394B1F
:10078000197800F047F9337801333370012323706F
:1007900099E7032000F0C0F8002842D000F052F999
:1007A000074600F055F9054600F056F9814600F07D
:1007B00065F90646284600F06EF85FFA80F8EEB15B
:1007C000CDF8008033464A4639462846FFF798FE62
:1007D000002E7FF40BAF284600F07EF81B4A1378FA
:1007E000984208BF431C284608BF137000F074F8F5
:1007F0000146174800F059F83A460DE7DFF84CA0DB
:10080000284600F069F89AF800308342D8D028468C
:1008100000F062F89AF8002001461548FFF7B4FD91
:10082000D9E700F079F800287FF43AAF012000F012
:1008300073F800287FF43AAF04B0BDE8F08700BF3A
:100840009111002090110020921100202B13002004
:100850005D1200202A130020951100206212002052
:100860002E1300202C1300202D1300204385010897
:1008700081850108024B1A78024B1A70704700BF3D
:1008800090110020911100200078013801288CBFC0
:100890000020012070470078431E5842584170479D
:1008A0000078B0FA80F040097047002303700123FC
:1008B000417083700320704710B51C469DF80830C6
:1008C0004270012B18BF022303702246023009F048
:1008D00087F9A01CC0B210BD407870470230704745
:1008E000034A012303FA00F01368184310607047AD
:1008F000301B0020044901220B6802FA00F023EAB1
:1009000000030B60704700BF301B0020014B00222A
:100910001A607047301B0020012303FA00F0024BDD
:100920001B681840704700BF301B0020054B1B7828
:100930005A1E012A02D80020FFF7D2BF0BB90120AE
:10094000FAE77047351B0020F8B507460C461546F8
:100950001E4609F0CBFA07EE900AFAEEE07AF5EEC1
:10096000C07AF1EE10FA21DD2A462146104809F03E
:1009700037F9104B1F70104B1D7003F07DF90F4BB2
:10098000187003F073F90E4B18800E4B20461E7042
:10099000FFF77AFF20B10320BDE8F840FFF7A0BFC2
:1009A0002046FFF77DFF08B10220F5E7F8BD00BF44
:1009B000381B0020371B00206C1B0020361B00203A
:1009C0006A1B0020341B00200FB407B5064B0749F3
:1009D0001B6805AAD86801920FF030F903B05DF8E2
:1009E00004EB04B0704700BFC0060020CD850108AD
:1009F00010B50446002007F08FFF09F06FFA20467B
:100A0000024A0349BDE8104003F0D2B84909000882
:100A10002D09000810B5044603F0ECF8014B2278CC
:100A20001A7010BD351B002010B503F02BF90446D9
:100A300018B101460248FFF7C7FF204610BD00BFAE
:100A4000CD850108014B1878704700BF371B002087
:100A500000487047381B0020014B1878704700BFD2
:100A60006C1B0020014BB3F9000070476A1B00208B
:100A7000014B93F900007047361B0020014B18789A
:100A8000704700BF341B0020036818470B680360E1
:100A900070477047024B002205201A70FFF720BFF5
:100AA0006D1B002008B5034806F0FDFD024B002237
:100AB0001A7008BD701B00206D1B0020014B1878B8
:100AC000704700BF6D1B0020C36810B504460BB112
:100AD0009B689847204610BD38B50546064B45F83B
:100AE000283B044606F0DFFD2846FFF7EDFF2046D1
:100AF00006F0A4FD204638BD08AC010810B5044638
:100B0000FFF7EAFF204603F01EFF204610BD00005D
:100B100010B5034B03600446FFF7DEFF204610BD0F
:100B20007CAC010838B5CB6804460D460BB15B6858
:100B30009847EB68E360204638BD000030B589B0C7
:100B400009F0D4F9102204460021684609F05EF944
:100B5000204B00936946204B039304A8FFF7E2FF64
:100B6000032094FBF0F000EB4000241A0234E4B2BE
:100B700007EE904A9FED197AF8EE677A67EE877A6A
:100B800017EE900A16F056FC05460C4607F008FBD7
:100B9000134B5A6B22B993F838300BB107F098F821
:100BA0001048FFF791FF04A90E48FFF7BBFF2A4644
:100BB00023460B4806F05FFD07F008FB04A8FFF78B
:100BC00083FF6846FFF780FF074B01221A7009B0C8
:100BD00030BD00BF950A0008008601080024744952
:100BE000701B0020981B00206D1B002010B50446D0
:100BF000FFF78EFF204603F0A6FE204610BD000042
:100C000010B50C4C204606F0F1FC20460A4B40F88B
:100C1000283B1022002109F0F9F8012384F838302C
:100C2000064B23602046064A0649BDE8104003F003
:100C30001DBD00BF701B002008AC01087CAC010882
:100C4000C8010020110B00080FB407B5064B074977
:100C50001B6805AAD86801920EF0F0FF03B05DF89A
:100C600004EB04B0704700BFC00600200C860108EA
:100C700008B507F077F9003818BF012008BD00005B
:100C8000024B1870024B1970704700BFA624002059
:100C9000A92400202DE9F04FA24AA34C1178237813
:100CA0009942A1B018BF13700C2B00F2CD80DFE881
:100CB00013F00D0042004500300175012E04570865
:100CC000270714067504CB00CB00A908974B1B68B7
:100CD000B3B901232370022001F05CFB0446A8B1E4
:100CE00001F07EFB039001F07FFB039902469048E0
:100CF000FFF7AAFF022021B0BDE8F04F01F03EBB94
:100D0000012BE8D1FFF730FC0223E3E7042001F0D8
:100D100041FB002800F0988086498748874D09F0FC
:100D2000BDFC874B874A84481B681278297898470E
:100D30002C700420DFE70223237085E0824F7B4D77
:100D40003B78012B40F0AB802E68002E7FD0012E27
:100D500077D1DFF82C827D4E98F8003053BB337882
:100D600043BB7B4B1B68032B24DC7A4ADFF8F891EA
:100D700003EB8303D118D35C4878C9F8003001F045
:100D8000B7FB0146744809F089FCD9F80020734983
:100D9000714B734807F0FCFE694B6F48D3F800A015
:100DA00009F0EEFC99F80020C1B26B48D04701234E
:100DB00088F80030022001F0EDFA08B301F010FBD2
:100DC000814601F011FB0328024616D148466549C9
:100DD00009F044FD814680B998F800306BB1624B50
:100DE00062491A685E4807F0D3FE012360495C48F7
:100DF00088F80090337007F0CBFE022001F0BEFAB5
:100E00003378DBB15B48FFF733FFB8B1544807F0E4
:100E1000ADFEC0B2312877D15749514807F0B8FE2E
:100E20004B490B6801330022032B32700B6067DDE6
:100E300052494B4807F0ACFE02232B603B78012B54
:100E40002DD12B68022B59D021B0BDE8F08F01F0D5
:100E50001DFBDFF80081DFF840A1DFF8049198F86E
:100E6000003098F80100039301F042FB32460090F5
:100E7000039B51464846013607F08AFE042E08F1CE
:100E80000508ECD1324A002313603D4A13702F4A03
:100E9000137001232B603B78012B3FF45AAF0220E3
:100EA00001F078FA0028CCD001F09AFA039001F012
:100EB0009BFA344B03990F280746A8BF0F27064615
:100EC0003A46184608F08CFE2E4B2F492448002243
:100ED000DA553246009607F05BFE2C4B0793184B11
:100EE00001221B68032107A89847022001F046FA57
:100EF00022491B4807F04CFE02232B6003231BE70B
:100F000001232B60227099E72149154807F040FE24
:100F100094E72049124807F03BFE044B00221A6078
:100F2000042309E7C11B0020B01B00204829002032
:100F30000C860108C21B0020A0200020A82400204D
:100F400050290020A9240020A6240020FC240020F1
:100F5000EC240020A02D0020002500206A86010836
:100F60008420002086860108442900208A86010802
:100F7000AC860108C81F0020E5860108218701080A
:100F8000B4240020B11B00207E87010841434B00A0
:100F900046870108A387010849860108B64BB74D6B
:100FA0001B78012B40F04C812E68002E35D0012E8D
:100FB00041F01780DFF8E092B14F99F80030002B34
:100FC00040F0CA803E78002E40F0C680AD4B1A68D3
:100FD000AD4B19688A4280F2BF80DFF8E4B2DFF8D7
:100FE0000883AA498BF80060584658F822A009F0F7
:100FF00029F9A54B1A68B24240F39B8058F8042B9C
:10100000524508D0A24907A809F01CF907A958467B
:1010100009F0ACF99C4B0136ECE79E4B9A4F1E60F1
:10102000984BDFF8C8821E609B4B9C4A1E70944B05
:10103000DFF894C2DFF8B0921E703E60334631464E
:101040003046B64618F801ABBAF1000F04D110785B
:1010500049F82300013301200131042982F803E01B
:101060004CF804EB02F10502ECD100B13B608C4975
:101070008C48DFF87482DFF878A2DFF8289207F056
:1010800087FD8949874807F083FD3B68B34207DD48
:1010900058F8042B5146484607F07AFD0136F4E72C
:1010A0008249804807F074FD01232B60724B1B7846
:1010B000012B3FF47FAF022001F06CF9002800F013
:1010C0008B8701F08DF9064601F08EF9334607460D
:1010D00002467749734807F05BFD674B3744187841
:1010E0004FF0000833469F4240F0B4806D4FDFF868
:1010F00004A2A7F1BC095146384607F049FD48460D
:10110000FFF7B6FD0028FAD0384607F02FFD064657
:101110005FFA80FB303E67495A463846F6B207F020
:1011200037FD092E40F2E8806349384607F030FD6C
:10113000E1E7624B62481E6809F022FB5FFA8AF21F
:10114000C1B25F48B0475E4B5E495648524607F011
:101150001FFD012389F80030022001F01BF938B38C
:1011600001F03EF9064601F045F90390304607F0DC
:101170008FFD0928034698BF5348039A9EBF50F835
:101180002310013140F82310424801680131016009
:101190004E49444807F0FCFC002389F800304C49D4
:1011A000404801233B7007F0F3FC022001F0E6F811
:1011B0003B78002B3FD04748FFF75AFD00283AD034
:1011C000384807F0D3FCC0B231283ED1DFF8B480F4
:1011D0004149D8F80030334801330026C8F80030C0
:1011E0003E7007F0D5FC284BD8F800201B689A42C7
:1011F00021DB3A492B48DFF8A4A0DFF8A8B007F0BC
:10120000C7FC37499AF8023043B19AF800202E4BB8
:10121000584653F8223007F0BBFC31490136042E02
:101220000AF1050AEED102232B600023C8F8003032
:1012300089F800303B70104B1B78012B00F0D186F1
:101240002B68012B00F3C58735E72649154807F0C1
:101250009FFCF0E713F8012B303AD1B209293FF691
:1012600042AF90423FF43FAF20A901EB880108F163
:10127000010841F8642C36E7A62400204829002004
:10128000FD240020F0240020AC2400204B8801081D
:1012900019880108E8240020B5240020A02D002092
:1012A000BF87010884200020E38701081D8801080A
:1012B000CD890108288A01082B8A010850290020BD
:1012C0002025002080880108B8240020B488010867
:1012D000F4880108C81F00203C8901086A890108B8
:1012E00090890108A2890108202900205896010848
:1012F0000E880108F2890108874B1B78ABF1300298
:1013000093420BD007A90023984500F09B8751F822
:10131000040B904200F04E860133F5E77F4904E765
:1013200000268846604600F09DBE0136042E40F03F
:10133000B28600F0BBBE7A497A4809F017F800F08F
:10134000B5BE8A4202DB784900F0C3BE77497548D2
:1013500009F00CF800F0C3BE7549764807F018FC98
:1013600000F032BF7449734807F012FC73493046ED
:1013700009F026FC002863D071496E4807F008FC8C
:10138000704B01221A70704B0793704B01221B683F
:10139000032107A89847604B6D491A78654807F004
:1013A000F7FB022000F0EAFF03232B60694F0023C4
:1013B0003A463E46517801294FD1917800294CD0C8
:1013C00003EB8303334493F90420531C4BD1524B5A
:1013D000DFF8C4811A7898F800000023194697F8BE
:1013E00000C0944506D197F802C0BCF1000F01D1AE
:1013F000012318460131042907F10507EFD10BB18C
:1014000088F80000FF2333717372B373F374524B87
:101410004FF0FF311960514900230B605049F370C0
:101420000B604B6033728B607373CB60B3742B6053
:10143000444B1B78002B3BD1012A3BD107237BE493
:101440004849304609F0BCFB00289CD0464994E747
:101450002B68032B7FF4F8ACA8E70133042B02F1CF
:101460000502A7D1B3E7DFF8EC80DFF8ECA03F4935
:10147000DFF8C0B04FF0000998F8003093420FD168
:1014800098F8023063B1DAF800309A4208D00023AD
:1014900088F802305846039207F07AFB039A3349E2
:1014A00009F10109B9F1040F08F10508E4D18EE74B
:1014B0000C2341E42E491F4807F06AFB2D4A2E49B0
:1014C0001C4807F065FB98F800102C4B2C4A194873
:1014D000002908BF1A462B4907F05AFB98F800303C
:1014E0009BB92949234808F06FFF0028A6D0274957
:1014F000204808F069FF08B909231DE424491D4864
:1015000008F062FF08B9082316E4052314E4214912
:10151000084807F03DFBF1E4A6240020618A010899
:10152000B78A010820270020128B0108398B010897
:10153000558C010884200020048D01085D8D010870
:101540006B8D01084029002041434B0050290020A9
:10155000E18D0108A02D002018020020E8240020C1
:10156000B82400209C8D0108AD8D0108038E010870
:10157000378E0108B11B0020538E01083486010804
:101580002D8601086F8E0108868E01088C8E010859
:10159000938E01089A8E0108A7240020B24E33785A
:1015A000012B40F0BA80B14FD7F80080B8F1000F9E
:1015B00049D03B68012B7FF447AC022000F0EAFEE3
:1015C00000283BD000F00CFF07F062FBA849024660
:1015D0008146A84807F0DCFAA74A002303EB830101
:1015E0008818895C494540F03981407800F080FFD7
:1015F0000546A24BDFF89082D3F800A0284609F0F8
:10160000BFF898F80020C1B22846D047D8F800307B
:101610009B4900934A462B46964807F0B9FA0220A8
:1016200000F0ACFE9749934807F0B2FA0323237009
:1016300000233B604FF0FF33C8F800303378012BB4
:101640003FF402AC69E08C4D43462A462946507867
:1016500002284DD1907800284AD003EB8303CA5C5E
:10166000894B1A60894B07AA03F1280E9146186826
:1016700059689446ACE80300083373456246F6D1D6
:1016800019889B78ACF800108CF8023039220021C0
:101690000DF1470008F0BAFBDFF8ECA1DFF828B243
:1016A000AB7863B12A78DAF800309A4207D059460D
:1016B00005A808F0C7FD05A9484608F057FE08F13F
:1016C0000108B8F1040F05F10505E9D16B4B6E4D2A
:1016D000D3F80080484609F053F82A78C1B248464A
:1016E000C0472A686A49634807F052FA01230FE0AD
:1016F0000133042B02F10502A9D1634B1B680133AE
:10170000B0D164495B4807F043FA032323700023F8
:101710003B603378012B3FF44CAF5F495F4808F0E2
:1017200053FE002850D15E4B1B78002B4CD1022079
:1017300000F030FE002847D0DFF83081D8F80030C4
:10174000002B41D100F04CFE039000F04DFE039BB6
:101750005449484FDFF874A10246464807F018FA8A
:10176000A7F1BC095146384607F012FA4846FFF780
:101770007FFA0028FAD0384607F0F8F905465FFAF4
:1017800080FB303D48495A463846EDB207F000FA32
:10179000092D00F29D804549ABF1300207A808F001
:1017A00051FD364B07A81D6808F0EAFF0122C1B2BF
:1017B00007A8A8473E492F4807F0EAF9022000F0A1
:1017C000DDFD0123C8F800303378012B3FF43CAB3A
:1017D0003149324808F0F8FDF8B9314B1F78E7B9C4
:1017E000022000F0D7FDC0B1204D2B68012B14D191
:1017F00000F0F6FD039000F0F7FD039B2D49024633
:101800001C4807F0C5F9022000F0B8FD2A49194824
:1018100007F0BEF9032323702F603378012B3FF4C8
:1018200013AB1D491D4808F0CFFD00283FF40CAB59
:10183000224D2B6840F6B832013393422B607FF77C
:1018400003AB164A1E490B4807F0A2F90323074AC7
:101850002370002313602B60FFF7F6BA0133042BCB
:101860007FF4BCAE174DC4E6A62400204829002012
:101870003A8F010884200020A02D0020502900204C
:10188000698F0108AA8F01081402002050950108F1
:10189000038F0108B88E01088C8E0108B11B00204F
:1018A000A7240020DA8F0108288A0108008F010888
:1018B0001A9001086F90010890900108E024002020
:1018C000C990010841860108FF8E0108FB8F0108BD
:1018D0007649384607F05CF944E7DFF81882744D22
:1018E00098F80030012B40F085802F68FFB12B68FD
:1018F000012B17D1022000F04DFD78B100F070FDF2
:1019000007F0C6F96B4B6C49186002466B4807F04C
:101910003FF9022000F032FD02232B6098F80030DE
:10192000012B67D12B68022B7FF48EAAB4E0614BA8
:10193000634E4FF0FF321A60314632463B465078D4
:10194000032843D19078002840D003EB8303CA5C7E
:101950005C4B1A605C4B07AA03F1280E914618688D
:1019600059689446ACE80300083373456246F6D1E3
:101970003C22002111A808F049FADFF848A1DFF85D
:1019800078B1B37863B13278DAF800309A4207D090
:10199000594605A808F056FC05A9484608F0E6FC9B
:1019A0000137042F06F10506EBD1484B454E1F6861
:1019B000484608F0E5FE3278C1B24846B84732687A
:1019C00043493E4807F0E4F801230DE00133042BBE
:1019D00002F10502B3D13B4B1B680133BAD13D493B
:1019E000364807F0D5F802232B6098F80030012B19
:1019F0003FF47DAF3849394808F0E6FC002891D122
:101A0000374B1B78002B8DD1022000F0C3FC00283F
:101A100088D02B68002B85D100F0E2FC039000F009
:101A2000E3FC039B2F49254FDFF8D0900246234863
:101A300007F0AEF8A7F1BC084946384607F0A8F809
:101A40004046FFF715F90028FAD0384607F08EF81F
:101A500006465FFA80FA303E234952463846F6B2CF
:101A600007F096F8092E1BD8AAF1300A1F495246F2
:101A700007A808F0E7FB154B07A81F6808F080FED1
:101A80000122C1B207A8B84719490C48524607F0CD
:101A90007FF8022000F072FC092323700023DAE6AD
:101AA0000249384607F074F8C6E700BF4F900108B6
:101AB00048290020180200207E910108842000207F
:101AC000A02D002010020020B4950108502900200C
:101AD0004B910108FE900108938E0108B11B002074
:101AE000A7240020B8910108288A0108008F010866
:101AF000F5910108A6240020FF8E0108D991010864
:101B0000DFF8F082A74E98F80030012B29D1356814
:101B1000002D73D0012D40F01781022000F03AFC17
:101B2000D0B100F05DFC07F0B3F89F4902460546CE
:101B30009E4807F02DF89E4B9E4A1868002303EB41
:101B400083018F18895C814240F0DA803D71022068
:101B500000F014FC0223336098F80030012B00F0F1
:101B6000F3803368002B40F0EF80022000F012FC7D
:101B7000002800F0E9809049904808F025FC0028F2
:101B800040F0E2808E4B1F78002F40F0DD8000F0A7
:101B900027FC054600F028FC2B4681460246894971
:101BA000824806F0F5FF98F800002B46A9444B4503
:101BB00040F0AB80DFF8F481DFF83CA2A8F1BC096B
:101BC0005146404606F0E4FF4846FFF751F800282A
:101BD000FAD0404606F0CAFF05465FFA80FB303D6A
:101BE00079495A464046EDB206F0D2FF092D40F23F
:101BF0009D807649404606F0CBFFE1E76C4FDFF869
:101C0000FC916C49C9F800504FF0FF3CC7F800C088
:101C10002A4628462B46AE46CDF80CC091F802C0A5
:101C2000BCF1000F0ED06A4B91F800B043F822B01F
:101C30004B7802F1010A012B5246634604BFE64687
:101C4000CDF80CB00130042801F10501E6D1BEF158
:101C5000000F00F05A83039939600BB1C9F80020D6
:101C60003B68013304D15B49504806F091FF4AE4D8
:101C7000594A0DF11C0C02F1180EE2461068516829
:101C8000634603C3083272459C46F7D1106818605A
:101C900091889379ACF804108CF806302122002149
:101CA0000DF13B0008F0B2F8DFF824B14B4BD9F846
:101CB0000020AA420FDD5BF8042B39688A4208D065
:101CC000194605A808F0BEFA05A9504608F04EFBD3
:101CD000424B0135EBE7424B50461D6808F050FD82
:101CE0003A78C1B25046A84753463A683D492F4812
:101CF00006F04EFF0123336098F80030012B0AE70D
:101D00000133042B7FF41BAF21E713F8012B303A8A
:101D1000D1B209293FF64BAF90423FF448AF20A91A
:101D200001EB8701013741F8642C40E7ABF1300B40
:101D300007AA00239F4200F0888252F8041B5945ED
:101D400000F0CA820133F5E73368022B7FF47CA8E8
:101D50002549164806F01CFF00233360FFF7D3BB6C
:101D600022491248134E224FDFF89490DFF83C804E
:101D700006F00EFF002533787078039300F0B8FB6F
:101D800017F8012B039BCDE9000249462A4640463D
:101D9000013506F0FDFE042D06F10506EBD1FFF737
:101DA000ADB800BF48290020AE9201088420002071
:101DB0000C020020A02D0020868E0108B11B0020FF
:101DC000A7240020E0920108288A01083593010821
:101DD0003029002038920108189601081988010856
:101DE000502900207B920108529301088893010832
:101DF00058960108A62400200E930108B024002064
:101E0000A8930108574E96F80090B9F1010F28D019
:101E1000022000F0BFFA00283FF416A800F0E0FA14
:101E2000054600F0E1FA0095034632784E494F48E6
:101E300006F0AEFE4E4B07934E4B01221B6803216A
:101E400007A8984732784C49484806F0A1FE02207E
:101E500000F094FA494B4FF0FF321A600023FEF76E
:101E60006BBF474D2B68032B3EF7EEAFDFF8408189
:101E7000444F98F80020DAB93A78CAB9424903EBDE
:101E8000830288188078002864D03A4B8A5C3F48E7
:101E9000D3F800A0039208F073FC039AC1B23B4848
:101EA000D047039A3A49314806F072FE88F800900C
:101EB000022000F06FFA20B300F092FA814600F0A1
:101EC00093FA0328024619D14846324908F0C6FC65
:101ED000814698B998F8003083B12B682A4A2E4978
:101EE000224803EB8303D25C06F052FE01232B4908
:101EF0001E4888F800903B7006F04AFE022000F071
:101F00003DFA3B780BB32648FEF7B2FEE8B117481E
:101F100006F02CFEC0B231281FD12B68214913488E
:101F200001334FF000082B6087F8008006F030FE88
:101F30002B68032B09DD1C490C4806F029FE0F4BCA
:101F400084F800804FF0FF321A603378012B3EF4A2
:101F50007BAF5DE701332B60AAE71449034806F025
:101F600017FEF2E7A62400205A94010884200020DE
:101F700041434B0050290020E18D010848290020F1
:101F8000F8240020FF240020A02D0020CE010020F6
:101F9000D493010886860108978B0108BC8B010841
:101FA000C81F0020FF8B010814940108558C0108FC
:101FB000B7240020A64905A808F044F9A54B05A8B8
:101FC0001E6808F0DDFB0122C1B205A8B04702205F
:101FD00000F0D4F902232B609F4B1B78012B40F0BB
:101FE000F8802B68022B7FF433AADFF8E8B29BF865
:101FF0000060002E76D1DFF87892984989F8006069
:102000004846974F08F0B2F9B846BA4698F80230F9
:1020100063B198F80020934B934953F8223007A8F6
:1020200008F010F907A9484608F0A0F90136042E77
:1020300008F10508EAD10026894BDFF828923246DC
:102040004FF0FF38304693F802E0BEF1000F09D0A0
:10205000197859F821C084453FF762A902D141455A
:1020600018BF76460132042A03F10503EBD1002E96
:102070007FF461A9B8F1FF3F3FF45DA97B497C483B
:1020800008F074F97B49424607A808F0DBF8784865
:1020900007A908F06BF906EB860303EB0A0213F8B5
:1020A0000A3043457FF441A9002393700023194669
:1020B0001A46B87820B1787801280CBF0132013176
:1020C0000133042B07F10507F3D1002A7FF439A966
:1020D0006949674808F04AF9684B01221A700123E0
:1020E0008BF80030664E674F3378EBB93B78DBB93D
:1020F000654B664A1B681268934215DA644A5C486D
:1021000052F82380534BD3F8009008F039FB5FFA64
:1021100088F2C1B25648C847554B5E495E484246B0
:1021200006F036FD01233370022000F033F918B3B6
:1021300000F056F9804600F057F90328024618D1FE
:102140004046564908F08AFB804690B9337883B1FF
:102150004D4B53491A684E4B4F4853F8222006F016
:1021600017FD01234F494C4886F800803B7006F06C
:102170000FFD022000F002F93B782BB34A48FEF72E
:1021800077FD08B3444806F0F1FCC0B231287FF473
:10219000E3A83D4E454933683F4801334FF00008FE
:1021A000336087F8008006F0F3FC384B32681B6818
:1021B0009A4209DB3E49384806F0EAFC03238BF8D3
:1021C0000080C6F800802B60234B1B78012B3FF466
:1021D0003FA9286802287FF43BA900F0DBF800281B
:1021E0003FF436A900F0FCF8064600F0FDF81A4A64
:1021F0000096304912780346274806F0C9FC2E495C
:10220000304608F0DDFC00283FF4ACA84FF0FF3367
:10221000079307AB1A46294908F034F8079F284965
:102220001D483A4606F0B4FC0B4A1378BB427FF4D3
:102230009DA82449184806F0ABFC234B01221A70D4
:10224000FFF794B82149FEF770BF2149D2E400BFDF
:10225000008F010850290020A6240020938A01083D
:10226000A02D0020B8240020A38A0108B08A01080C
:1022700020270020B18C0108EE8A010840290020A7
:10228000B6240020FE240020F4240020AC240020EA
:10229000202900205C8B010884200020868601080C
:1022A000978B0108BC8B0108C81F0020FF8B010819
:1022B0002C8C01087F8C0108B18A0108AC8C0108C4
:1022C000DE8C0108378D0108A724002094940108B2
:1022D000E8940108E42400200E495A4605A807F0B6
:1022E000B1FF0D4B05A81F6808F04AFA0122C1B2E0
:1022F00005A8B84709490A485A4606F049FC022091
:1023000000F03CF80223336022E5002B7FF4A6ACFA
:10231000A9E400BF008F0108502900200E95010894
:102320008420002013B50B4B0B4C1A780B4B1A7002
:102330004FF416530093032200230221204605F098
:1023400065FA074A0749204602B0BDE8104002F08E
:102350008DB900BFB01B0020C81F0020C11B00208A
:10236000C801002081020008034A012303FA00F09B
:1023700013681843106070474C290020044901225B
:102380000B6802FA00F023EA00030B60704700BFFD
:102390004C290020012303FA00F0024B1B6818406F
:1023A000704700BF4C29002038B50C46014606484E
:1023B000154607F015FC054B1D70054B1C70BDE85C
:1023C00038400220FFF7D0BF58290020582D0020A8
:1023D000592D00200520FFF7C7BF0620FFF7C4BF17
:1023E0000048704758290020014B1878704700BFFB
:1023F000582D0020014B1878704700BF592D002040
:10240000014B1860704700BF50290020014B186035
:10241000704700BF5429002010B50C4C204605F031
:10242000E5F820460A4B40F8283B1022002107F02F
:10243000EDFC012384F83830064B23602046064A21
:102440000649BDE8104002F011B900BF602D002020
:1024500008AC01087CAC0108C8010020110B000881
:1024600070B505464E1E4418002E0DDD07F03EFDEA
:10247000731C90FBF3F101FB130314F8012DE95CCD
:102480002170013EEA54EFE770BD0000F7B500206F
:1024900006F042FA07F022FD0421022300240DEB8E
:1024A00001008DF80630012503238DF804408DF8D6
:1024B00007308DF80550FFF7D3FF0B480B4A234632
:1024C000264601A9FF24013310F801CB11F8017B46
:1024D00082F800C0042B57709570D670147102F109
:1024E0000502F0D103B0F0BD74960108A02D0020C4
:1024F00003289ABF024B53F820000248704700BFE0
:1025000064960108418601080FB407B5064B04AA7A
:102510001B6852F8041BD86801920DF08FFB03B0C2
:102520005DF804EB04B07047C0060020002000F006
:102530005BBF00002DE9F041BDF81C50B5F5806F80
:1025400006460C4690461F4606D322482946FFF70A
:10255000DBFF0620BDE8F081022000F0A1FC08B1FD
:102560000720F7E73146022000F0F6FC4FFA88F129
:10257000022000F02DFD3946022000F047FD0699AB
:10258000022000F061FD2146022000F0C7FC8EB958
:102590000B3C012C12D80121022000F0A1FC7DB9D6
:1025A0000121022000F06EFD00F0D6FD0130D7D0F1
:1025B0000020CFE7012E01D10C2CECD00021EBE75D
:1025C0000021022000F05EFD2946022000F078FD87
:1025D000EAE700BF789601087047000084B038B57C
:1025E00004AC84E80F000220DDE9085400F058FC38
:1025F00020B10720BDE8384004B070470C2C15D935
:1026000021461148FFF780FF0C21022000F086FCD4
:10261000A5B90B3C012C15D80121022000F060FC6B
:1026200000F09AFD0130E4D00020E3E7052CEFD85C
:1026300021460548FFF768FF0621E6E7012D01D195
:102640000C2CE9D00021E8E7089701080FB407B582
:10265000064B07491B6805AAD86801920DF0EEFAEF
:1026600003B05DF804EB04B0704700BFC006002063
:102670003197010884B010B502AC84E80F009DF8D2
:102680000D10012905D0BDE81040254804B0FFF722
:10269000DDBF9DF8293033205BB301F009F840F02D
:1026A0004101C9B2332000F0F8FF19213B2000F0AE
:1026B000F4FF9DF827309DF82A402BB31D211120EF
:1026C00000F0EBFF402000F0F3FF00F0330140206A
:1026D00000F0E3FF00210F2000F0DFFF00210D20BC
:1026E00000F0DBFFD4B10520BDE8104004B001F0DC
:1026F00017B800F0DDFF00F0BE0141F0010133200A
:1027000000F0CBFF1D21D1E71F21112000F0C5FFF4
:10271000402000F0CDFF00F03F01D8E70620E3E7BE
:102720003197010884B02DE9F04106AC84E80F0030
:102730000898BDF832609DF83450BDF842700B9C8B
:10274000DDF8288000F0CCFF1D2000F0B1FF9DF8DF
:1027500031309DF8301041EAC3019DF8363041EA2E
:10276000881141EA430141EA8501C9B21D2000F008
:1027700094FF1E2000F09CFFC7F3012100F00C0025
:1027800041EA04110143C9B21E2000F086FFF9B2EC
:102790001F2000F082FF310A202000F07EFFF1B2FE
:1027A000212000F07AFF25B19DF83510222000F09D
:1027B00074FF9DF837306BB14B2000F079FF60F06B
:1027C0007F01C9B24B2000F068FF9DF8381024202B
:1027D00000F063FF062C4FF031000FD100F068FFCE
:1027E00000F0F80141F00501312000F056FF0C2106
:1027F000BDE8F041372004B000F04FBF00F058FFB3
:1028000000F0F80141F00301312000F046FF0A21F9
:10281000EEE78021122000F040BF4021122000F09E
:102820003CBF07B5122000F043FF8DF807009DF86C
:102830000700C0F3401003B05DF804FB2021122014
:1028400000F02BBF08B5192000F032FF030643BF8C
:102850004042C0F38500404240F3870008BD84B089
:1028600010B502AC84E80F009DF938401A2000F042
:102870001FFF002CB8BF8B3C4FEA2013B8BF0019D4
:10288000BDE81040A8BF8B38184400B204B07047B0
:1028900038B50546132000F00BFF044601462846D4
:1028A00000F016FF204638BD0FB407B5064B04AA4A
:1028B0001B6852F8041BD86801920DF0BFF903B0F1
:1028C0005DF804EB04B07047C006002008B528B9D5
:1028D0000848FFF7E9FF4FF0FF3008BD402905D950
:1028E0000548FFF7E1FF6FF00100F6E7BDE808409B
:1028F00000F0CEBD709701089C970108F8B5074617
:1029000001200D4614461E4600F0CAFA08B1072001
:10291000F8BD3946012000F03DFB2946012000F0BA
:102920001BFB71B2012000F053FBBDF81810012011
:1029300000F06CFB0799012000F086FB2146012086
:1029400000F0ECFA65B90B3C012C0DD801210120F7
:1029500000F0C6FA00F0D2FB0130D8D00020D7E753
:10296000012D01D10C2CF1D00021F0E784B038B555
:1029700004AC84E80F000120DDE9085400F090FA6F
:1029800020B10720BDE8384004B070479DF91C0015
:1029900000F010FC50BB012000F082FA0028F0D1BA
:1029A0000C2C15D921461248FFF77EFF0C2101207F
:1029B00000F0B4FAA5B90B3C012C15D80121012077
:1029C00000F08EFA00F09AFB0130DAD00020D9E74F
:1029D000052CEFD821460648FFF766FF0621E6E7FB
:1029E000012D01D10C2CE9D00021E8E70120C9E735
:1029F000089701080FB407B5064B07491B6805AADD
:102A0000D86801920DF01AF903B05DF804EB04B038
:102A1000704700BFC0060020D697010884B070B58B
:102A200004AC84E80F0009209DF9404000F040FE0E
:102A300006465A2000F03CFE9DF8103003F0FD03DE
:102A4000012B14BF00238023054606F07F001843A6
:102A5000030600F0F00127D5112CCBBF45F0070588
:102A600005F0F805EDB245F0040505F00703072B66
:102A700012D1142CA8BF1424052CB8BF0524631F41
:102A80001943C9B2092000F008FE2946BDE870408C
:102A90005A2004B000F001BE112CA8BF1124022C52
:102AA000B8BF0224A31EEBE70E2CA8BF0E2444EAF5
:102AB000E47401342143E4E784B008B50DF1080C57
:102AC0008CE80F009DF80D10012905D0BDE80840E5
:102AD000124804B0FFF78EBF9DF827309BB1F52157
:102AE000112000F0DAFD402000F0E2FD00F033019B
:102AF000402041F0400100F0D0FDBDE80840032037
:102B000004B000F00DBEF721112000F0C6FD4020FA
:102B100000F0CEFD00F03F01EAE700BFD6970108C4
:102B200084B02DE9F0418AB010AC84E80F009DF923
:102B30004C30089314AD0FCD6C46159EBDF85A70FD
:102B4000DDF850800FC495E80F0084E80F0010AB4B
:102B50000FCBFFF763FF129800F0C2FD9DF85F30C6
:102B60006BB14B2000F0A4FD60F07F01C9B24B2097
:102B700000F093FD9DF86010242000F08EFD1D20D4
:102B800000F096FD9DF859309DF8581041EAC301B8
:102B90009DF85C3041EA881141EA83019DF85E307E
:102BA00041EA4301C9B21D2000F077FD1E2000F06C
:102BB0007FFD00F00F0141EA0611C9B21E2000F0AE
:102BC0006CFD390A202000F068FD2120F9B200F0E8
:102BD00064FD062E4FF0310010D100F069FD00F0C9
:102BE000F80141F00501312000F057FD0C2137209C
:102BF0000AB0BDE8F04104B000F04FBD00F058FD50
:102C000000F0F80141F00301312000F046FD0A21F7
:102C1000EDE70821122000F040BD08B568B133206F
:102C200000F046FD00F0BE01332000F036FD192112
:102C30003B20BDE8084000F030BD332000F038FDF7
:102C400000F0BE0141F00101332000F026FD1D21FE
:102C5000EEE738B5044622200D4600F01EFD0021A7
:102C60000E2000F01AFD00210D2000F016FD0120BD
:102C700000F01EFD30F0F80304D100F07FFD0120CC
:102C800005F03EFD29462046BDE8384000F01BBD5A
:102C90000FB407B5064B04AA1B6852F8041BD8688A
:102CA00001920CF0CBFF03B05DF804EB04B0704769
:102CB000C006002010B50A4C21788142024605D09A
:102CC0000848FFF7E5FF4FF0FF3004E0022001F075
:102CD00003F808B9207010BD0348FFF7D9FFF2E7E9
:102CE000282E00200AA0010860A0010808B50448A9
:102CF00004F0D9FC00F045FD024B01221A7108BD19
:102D0000B82D0020F82D002013B5174C2379022B85
:102D100003D0032B19D002B010BDFFF75DFCFFF705
:102D2000E5FF032000F0D8FF012808D000230F4A58
:102D30000093146819461A460120A047EBE70C4897
:102D400002B0BDE81040FFF7A3BF204600F05CFDD5
:102D500094F8280000F049FD0123237102B0BDE87A
:102D6000104000F0E9BF00BFF82D00202C2E0020FD
:102D7000E09F01082DE9F041354C267988B046B135
:102D800034483146FFF784FF4FF0FF3008B0BDE80C
:102D9000F081314B1860314B31481960FFF778FFF3
:102DA0004FF4807006F0B8FE2E4B186028B92E48FC
:102DB000FFF76EFF6FF00100E8E74FF4FA6262621E
:102DC0000E2222730B22294B626108224FF0010868
:102DD000A360628304230522204684F820306285A4
:102DE000237084F805802677E67784F81E8084F8BF
:102DF0002160266184F81980667784F8228084F83F
:102E0000288000F001FD2546014605F8100B184802
:102E1000FFF73EFF0FCD6F460FC795E80F0087E81D
:102E20000F0094E80F00FFF7A1FDA5F1100CBCE81E
:102E30000F006F460FC795E80F0087E80F0094E872
:102E40000F00FFF7CBFB84F8048030469EE700BFFD
:102E5000F82D0020D7980108302E00202C2E0020BD
:102E600028990108B42D0020559901082021F63633
:102E70008F99010808B5042000F02EFF012805D124
:102E80000648FFF705FF4FF0FF3008BDFFF72EFFA4
:102E9000022000F021FF0020F7E700BFA5990108FC
:102EA00038B5054618B90A48FFF7F2FE05E0094CA7
:102EB000217829B10848FFF7EBFE4FF0FF3004E01E
:102EC000084600F009FF08B9257038BD0348EBE754
:102ED000B59D0108282E0020F29D0108359E0108AD
:102EE00038B504460D4600F021FF0128084B06D1F5
:102EF0001A78A24203D1074B00201D7638BD064840
:102F00001A782146FFF7C4FE4FF0FF30F6E700BF06
:102F1000282E0020F82D0020569D010838B50446C3
:102F20000D4600F003FF0128084B06D11A78A24293
:102F300003D1074B00205D6138BD06481A78214651
:102F4000FFF7A6FE4FF0FF30F6E700BF282E002067
:102F5000F82D0020F79C010838B504460D4600F016
:102F6000E5FE0128084B06D11A78A24203D1074B8F
:102F700000201D6138BD06481A782146FFF788FEFB
:102F80004FF0FF30F6E700BF282E0020F82D00207C
:102F9000699E010838B504460D4600F0C7FE0128B9
:102FA000084B06D11A78A24203D1074B00201D73AB
:102FB00038BD06481A782146FFF76AFE4FF0FF3009
:102FC000F6E700BF282E0020F82D00207B9B01088B
:102FD00038B504460D4600F0A9FE0128084B06D17D
:102FE0001A78A24203D1074B00205D7638BD06480F
:102FF0001A782146FFF74CFE4FF0FF30F6E700BF8E
:10300000282E0020F82D0020989C010838B5044691
:103010000D4600F08BFE0128084B06D11A78A2421B
:1030200003D1074B00205D8338BD06481A7821463E
:10303000FFF72EFE4FF0FF30F6E700BF282E0020EE
:10304000F82D0020C29E010838B504460D4600F058
:103050006DFE0128084B06D11A78A24203D1074B16
:1030600000209D6038BD06481A782146FFF710FE03
:103070004FF0FF30F6E700BF282E0020F82D00208B
:10308000829F010838B504460D4600F04FFE012826
:10309000084B07D11A78A24204D1074B002083F8CD
:1030A000225038BD05481A782146FFF7F1FD4FF050
:1030B000FF30F6E7282E0020F82D0020249F01087D
:1030C00038B504460D4600F031FE0128084B06D104
:1030D0001A78A24203D1074B00205D8538BD06480F
:1030E0001A782146FFF7D4FD4FF0FF30F6E700BF16
:1030F000282E0020F82D00203B9C0108F0B589B057
:1031000000F014FE0128114B18D11F78012F15D1A2
:103110000F4E06F1100500F037FB0FCD6C460FC4C3
:1031200095E80F0084E80F0096E80F00FFF7F8FC21
:103130003846FFF7BFFD002009B0F0BD05481978FB
:10314000FFF7A6FD4FF0FF30F6E700BF282E002066
:10315000F82D0020179B0108F0B589B000F0E6FDBE
:103160000128114B18D11F78022F15D10F4E06F1EF
:10317000100500F009FB0FCD6C460FC495E80F0059
:1031800084E80F0096E80F00FFF7CCFA3846FFF707
:1031900091FD002009B0F0BD05481978FFF778FDD2
:1031A0004FF0FF30F6E700BF282E0020F82D00205A
:1031B000B39A0108F0B58BB0044600F0B7FD0128C2
:1031C000104B17D11F78012F14D10F4E089406F120
:1031D00010050FCD6C460FC495E80F0084E80F0072
:1031E00096E80F00FFF71AFC3846FFF763FD002052
:1031F0000BB0F0BD05481978FFF74AFD4FF0FF30DE
:10320000F6E700BF282E0020F82D0020D79B0108EC
:103210000E4B1B79022B13B510D1FFF7FAFAFFF70B
:1032200065FD032000F058FD012809D00023084A5D
:103230000093146819461A460120A04702B010BD39
:10324000044802B0BDE81040FFF722BDF82D002071
:103250002C2E0020CD9901082DE9F041454E3479FE
:10326000022C8AB067D1FFF7D8FAFFF7DAFA012803
:1032700029D1FFF7E3FA96F82250ADB9FFF736FDF2
:10328000032000F029FD012808D03B4B00951E6863
:103290002A462B4629462046B04711E037480AB057
:1032A000BDE8F041FFF7F4BC00F040FD0328F5D184
:1032B0000023314A0093156819461A462046A8474C
:1032C0000AB0BDE8F081FFF7BDFA06F110050890DD
:1032D00007460FCD6C460FC495E80F0084E80F0039
:1032E00096E80F00FFF7BBFA254C80462068FFF7F1
:1032F000CFFA96F8226005468EB9FFF7F7FC032057
:1033000000F0EAFC012808D01B4B00971F682168D9
:1033100043462A463046B847D2E71A48BFE700F08E
:1033200005FD0328F9D1144B00971E682168434618
:103330002A460020B0E7032C14D1134804F0B3F957
:10334000FFF767FCFFF7D2FC204600F0C5FC012820
:1033500006D00E4B1B6800200AB0BDE8F0411847AC
:103360000B489CE70B4821460AB0BDE8F041FFF747
:103370008FBC00BFF82D00202C2E002010980108D3
:10338000B42D00204C980108B82D0020302E0020CC
:1033900087980108BB9801082DE9704304469946B7
:1033A0000D46904604F0FCFE636B23B994F8383068
:1033B0000BB104F08DFC04F12806AE420BD0304670
:1033C000FDF782FB3EB1EB681BB15B6829463046D6
:1033D0009847EB68636342464B46204604F04BF93E
:1033E000BDE8704304F0F2BEF0B506468DB0012092
:1033F00000F072FC012806D11E48FFF749FC4FF08F
:10340000FF300DB0F0BD1C4B1C4F18684FF480729C
:10341000002107F1100506F0F9FC0FCD6C460FC432
:1034200095E80F0084E80F0097E80F00FFF722F9F6
:1034300002233B71E6B11022002108A806F0E6FC49
:103440000F4B089330460F4B0B9313F001FC0022F7
:103450000D4B13F077FC14F00DF802460B460B48A9
:1034600008A9FFF799FF08A8FDF72EFB0020C8E781
:103470003046C6E7FC990108B42D0020F82D002045
:10348000092D00080086010800408F40B82D00205B
:10349000F0B5304C2379032B8FB006460D4606D18C
:1034A0002D48FFF7F5FB4FF0FF300FB0F0BD0420C3
:1034B00000F012FC0128F3D0FFF718FC0A2005F0F9
:1034C0001FF9022000F008FC012000F005FC012893
:1034D00001D12248E5E763791BB1012B03D0002716
:1034E0000CE01F48DDE794F82100FFF796FB294622
:1034F000304684F82E50FFF7ACFB676A194E0897E8
:103500000FCE6D460FC596E80F0085E80F0094E8D2
:103510000F00FFF7D1FA0323102200210AA823711C
:1035200006F074FC104B0A933846104B0D9313F0C1
:103530008FFB00220E4B13F005FC13F09BFF02469D
:103540000B460C480AA9FFF727FF0AA8FDF7BCFAAB
:103550000020AAE7F82D0020239A0108539A0108B9
:103560007A9A0108082E0020092D0008008601081B
:1035700000408F40B82D002010B50C4C204604F0C0
:1035800035F820460A4B40F8283B1022002106F06F
:103590003DFC012384F83830064B23602046064A60
:1035A0000649BDE8104001F061B800BFB82D002009
:1035B00008AC01087CAC0108C8010020110B000810
:1035C00010B50446044B40F8B83BD4F8C4300BB1F6
:1035D0009B689847204610BD98AD01080FB407B509
:1035E000064B07491B6805AAD86801920CF026FB18
:1035F00003B05DF804EB04B0704700BFC0060020C4
:10360000C3A00108F8B50D4C0D4F23681646E268BB
:103610001B040D46136040F08001094804F086FA4F
:10362000013D2E44B54205D015F8011F384604F07F
:103630007DFAF7E7A36822681A60F8BDF02E002033
:10364000282F0020F8B50E4C0E4F23681646E2686E
:103650001B040D46136000F07F010A4804F066FA6F
:10366000013D2E44B54206D00021384604F05EFAF2
:1036700005F8010FF6E7A36822681A60F8BD00BFDD
:10368000F02E0020282F002010B50446FFF798FFE9
:10369000204601F058F9204610BD07B502AB0122C3
:1036A00003F8011D1946FFF7ADFF03B05DF804FBF9
:1036B00007B501220DF10701FFF7C4FF9DF80700D0
:1036C00003B05DF804FB0A4601460020FFF79ABFED
:1036D0000A4601460020FFF7B5BF000000000000C9
:1036E00010B513F0B5FA0CA3D3E9002313F054FC82
:1036F00013F000FE0446C0F307410620FFF7CDFF9C
:10370000C4F307210720FFF7C8FFE1B20820BDE896
:103710001040FFF7C2BF00BF0000000080844E4091
:10372000144910B50A78044690B932B901230B70D8
:10373000114BDA681B681B0413600120FFF7B8FF08
:1037400000F0F80121430120BDE81040FFF7A5BFBC
:10375000094B2AB11A6800200870D96812040A605F
:10376000032C1A6803D0DB6812041A60E5E79B6833
:10377000FBE700BF04300020D42E00200120FFF71B
:10378000CFBF0020FFF7CCBF10B504460120FFF7E4
:103790008FFFC0F3C010844226D0012C13D0FFF756
:1037A000F0FF0120FFF784FF00F07F010120FFF709
:1037B00074FF00214020FFF770FF30214120BDE859
:1037C0001040FFF76ABFFFF7DCFF2046FFF770FFEE
:1037D00060F07F01C9B22046FFF75FFF0021402063
:1037E000FFF75BFF0021E9E710BD10B5044601209B
:1037F000FFF7CAFF2CB134213920BDE81040FFF794
:103800004CBF1221F8E700002DE9FF47594C05464F
:1038100004F0C6FC0121204600F000FC04F0D6FCB8
:103820002368E2681B041360012004F069FF04F0C0
:10383000B7FC2046002100F0F1FB04F0C7FC062095
:1038400004F05EFF2E784C4C042E1CD104F0A8FC32
:103850000021204600F0E2FB04F0B8FC012004F057
:103860004FFF63681A6823681A4214BF01260026B6
:1038700004F096FC2046012100F0D0FB04F0A6FCE9
:10388000012004F03DFF2368E2683C483C4C1B04E7
:1038900013603C4B9A681B6813600821002204F0F7
:1038A00023F9394804F01EFF0020FFF739FF1022EA
:1038B000ACBB2146684606F0A9FA69463348344C49
:1038C00004F021F86846FDF7FFF810227CBB214682
:1038D000684606F09BFA69462E48DFF8C8802E4CF1
:1038E00004F011F86846FDF7EFF84FF003090023E4
:1038F0005F1CDBB2D8F80020B2FBF9F29A421ED965
:1039000003EB430304EB030AE05CFFF73DFF9AF887
:1039100002109AF80100FFF7C0FE3B46E8E70021DD
:10392000684606F073FA1D4B00940393C5E7002127
:10393000684606F06BFA194B00940393CBE768795D
:10394000174CFFF721FF95F82800FFF74EFF4220A4
:10395000FFF7AEFE38B92046FFF740FE4FF07E502D
:1039600004F0C0FEF3E7A868FFF7BAFE304604B0E3
:10397000BDE8F0870C2F0020D42E0020282F002037
:1039800059320008F02E0020CDCCCC3D342E002042
:1039900011320008842E002090A001080086010842
:1039A000C3A001081C02002073B5224D224C234EF7
:1039B0000A21284603F04CFF2846214D2246314675
:1039C00000F054FE1321284603F042FF2246314600
:1039D00028461C4D00F04AFE4FF0FF3300930622AC
:1039E00005230721284604F0D3F822461649284625
:1039F00000F03CFE154B1C2422461846002106F020
:103A000005FA162103F0DAFE114B22461846002172
:103A100006F0FCF9002103F0BEFE0E4B2246002109
:103A2000184606F0F3F9212102B0BDE8704003F01A
:103A3000B2BE00BF342E0020C8010020A9780008C3
:103A4000842E0020282F0020C1350008F02E0020F1
:103A50000C2F0020D42E00200FB407B5064B04AA6B
:103A60001B6852F8041BD86801920CF0E7F803B009
:103A70005DF804EB04B07047C006002013B5084B96
:103A80000024CDE900340122082307212046FEF757
:103A900051FDFEF74BFD034B1C7002B010BD00BF83
:103AA0002021F6360530002010B5044648B9FFF74E
:103AB000E1F9FFF7E3FF084B1B682046BDE8104023
:103AC0001847012807D1FFF7D5F9FFF7D7FF024BB9
:103AD00002201B68F2E710BD483000202DE9F041BC
:103AE000884615461F469DF9186000283BD1202ABC
:103AF00003D92648FFF7B0FF2025254C2A4641462A
:103B0000204606F06DF8234B1F80234B1E7026784D
:103B10002746FEB9214BA4781B78A34201D0FF2C85
:103B20001BD1A4F1FF035C425C4101261C4B1B78B6
:103B3000ABB9FFF79FF9FFF7A1FF012E24D1194B75
:103B4000787819492A1F1D68D2B22346AC46BDE8D1
:103B5000F041604700242646E8E73446E6E713488C
:103B6000FFF77AFFE9E7013801280DD80C4B1B78E5
:103B70002BB9FFF77FF9BDE8F041FFF77FBF0B4896
:103B8000BDE8F041FFF768BFBDE8F081D0A10108B2
:103B900006300020523000205030002054300020E9
:103BA000053000204C3000200A30002015A201080A
:103BB0000A4B10B518700A4B19600A4B0A491A6073
:103BC00004460A48FFF7D6F8094B00225C701A70C9
:103BD000FFF750F9BDE81040FFF750BF5430002008
:103BE000483000204C300020DD3A0008A93A000897
:103BF00026300020F7B5184F3C7834B117482146DD
:103C0000FFF72AFF012003B0F0BD1C2905D9144895
:103C10002022FFF721FF0320F5E7124D0E1DAA70A9
:103C2000F6B20A460146281D2C70EE7005F0D8FF4A
:103C3000FFF720F90C4A0823CDE900322146012381
:103C400007220E20FEF75AFE31462846FEF73EFEBA
:103C500001233B702046D6E705300020E5A001088F
:103C600026A10108263000202021F636014BB3F9A9
:103C70000000704752300020014B93F9000070475C
:103C80005030002010B5074B1C78012C05D1064898
:103C90002146FFF7E1FE204610BD044B18700020BE
:103CA000FAE700BF0530002070A101085430002061
:103CB0000FB407B5064B07491B6805AAD8680192DF
:103CC0000BF0BCFF03B05DF804EB04B0704700BF1D
:103CD000C00600208AA2010837B501460D480E4AE9
:103CE000037803EB83052A44545C012C06D00B4B6C
:103CF0002B445B5C0370204603B030BD084864224F
:103D000002FB03000090074802FB01020648FFF790
:103D1000CFFFF0E75530002076A2010862A201082B
:103D200014040020200200208AA20108014B187808
:103D3000704700BF55300020014B00221A707047B9
:103D40005530002043692DE9F0410D46D90704465E
:103D500028D58168334F8268334E836833483940B1
:103D6000B94202EA060204BF0127A760B24203EA91
:103D7000000304BF4FF48076A660834204BF4FF473
:103D80008030A0602748814205D027498A4202D06E
:103D9000264A934206D1264B264A1B6852F8250034
:103DA00001219847E2686369920708D09F0706D50A
:103DB0001F4B204A1B6852F8250000219847A16933
:103DC000626963698E070AD5900508D5190406D57E
:103DD000174B184A1B6852F8250005219847A76918
:103DE0006669626917F0040706F4806609D046B177
:103DF000120406D50E4B0F4A1B6852F82500072106
:103E0000984763695FB156B11B0408D5084B094A4E
:103E10001B6852F825000221BDE8F0411847BDE8B3
:103E2000F08100BF0300000400030008000003103D
:103E3000603000205830002000210148FFF782BF89
:103E400000640040FFF7F8BFFFF7F6BF012101480B
:103E5000FFF778BF00680040FFF7F8BFFFF7F6BF35
:103E600030B5036891FAA1F4B4FA84F491FAA1F19F
:103E70000325B1FA81F1640005FA04F4490023EA4C
:103E8000040302FA01F11943016030BD00B50023BB
:103E900089B007286FD8DFE800F00413202D3A47D7
:103EA00054610093364B37481A6B42F001021A6393
:103EB0001B6B03F001030093009B09B05DF804FB4A
:103EC00001932F4B30481A6B42F002021A631B6BAE
:103ED00003F002030193019BEFE70293284B2B4869
:103EE0001A6B42F004021A631B6B03F00403029383
:103EF000029BE2E70393224B25481A6B42F008022B
:103F00001A631B6B03F008030393039BD5E7049329
:103F10001B4B20481A6B42F010021A631B6B03F014
:103F200010030493049BC8E70593154B1A481A6BBA
:103F300042F020021A631B6B03F020030593059BDC
:103F4000BBE706930E4B15481A6B42F040021A630A
:103F50001B6B03F040030693069BAEE70793084BE9
:103F60000F481A6B42F080021A631B6B03F0800348
:103F70000793079BA1E70B4804F07AFC00209CE71D
:103F800000380240000002400004024000080240E5
:103F9000000C0240001002400014024000180240D1
:103FA000001C024060A50108431C10B5044604D162
:103FB00076220649064803F0CBFE2046002100F099
:103FC0000DFE04F00F040120A04010BD81A50108E2
:103FD000DBA5010870B504464B1C0E46218216D0A5
:103FE000C1F30310FFF752FF05463046FFF7DCFF31
:103FF000238A074A656103F00F03206052F82330DB
:10400000A36105F1100318356360A560E56070BD1C
:1040100098A80108B0F9100000F078BE0A4619B956
:1040200081694069FFF71CBF0122F9E74C23F0B515
:104030004343224E224F1A1D324400244FF0010EFA
:104040001E448C4205D10146BDE8F0401D4804F0F5
:104050000FBC33680EFA04F51D422BD0136B7D693B
:104060000EFA03F32B4225D0D2F818C07B611568F5
:1040700005B3FA6833EA020203D1BA6833EA0202EE
:1040800014D10F4A916833EA010103D1D26833EAAF
:1040900002020DD1DCF81020134214BF01210221CD
:1040A000094B28461B68BDE8F04018470221F7E796
:1040B0000121F5E701340432C3E700BF643000207A
:1040C000003C014015A60108783200200621084670
:1040D000FFF7ACBF05210846FFF7A8BF0121042068
:1040E000FFF7A4BF01210320FFF7A0BF0121022099
:1040F000FFF79CBF01210846FFF798BF0121002070
:10410000FFF794BF012910B518D11B4C838952B118
:10411000A26803F00F0399401143A160836843F044
:104120000103836010BDA26803F00F03994022EAE7
:104130000101A160836823F00103F2E70229F1D1B4
:104140000D4983895AB1CC6803F00F03012202FAAA
:1041500003F32343CB60836843F00203E1E7CA68BB
:1041600003F00F03012404FA03F322EA0303CB60F4
:10417000836823F00203D4E7003C0140B0F90C301F
:1041800099B270B501F00F0606F00C0404F18044FA
:1041900004F59C3401F00301A56889000F228A40D0
:1041A000C3F3031325EA02058B402B43A3600F4B97
:1041B00001221968B240114319608468E50742BFC3
:1041C000996811439960A10742BFD9680A43DA6030
:1041D00090F90030002B08DB5909012203F01F037E
:1041E00002FA03F3024A42F8213070BD003C01405C
:1041F00000E100E02DE9F04F92464A1C85B0804670
:104200000C4666D000220392334A344F516C41F47D
:1042100080415164526C02F480420392039A04F08C
:104220000F090C2202FB0972C4F303105568062D16
:1042300047D8DFE805F0043A3C3E40424400284EAF
:104240000193FFF723FE0C2101FB09F17A1857F8BF
:1042500001E0244FA8F80C404C21694301247B580D
:1042600092F90820C8F8045004FA0EF44FF0000B3D
:104270001C4388F80020C8F808B07C50132101FBCB
:1042800005E507EB8501019B4B60174BC861C3F83F
:1042900000A0164BC1F834909B681032404643F89A
:1042A0002260FFF76BFF584610E0114EC8E7114E31
:1042B000C6E7114EC4E7114EC2E7114EC0E7114EDA
:1042C000BEE7114804F0D4FA4FF0FF3005B0BDE866
:1042D000F08F0846FAE700BF0038024040A6010808
:1042E000FD400008643000207832002000ED00E03E
:1042F000F5400008ED400008E5400008DD400008FA
:10430000D5400008CD400008EEA501088389184A71
:1043100003F00F03012110B501FA03F39468DB43A6
:104320001C409460D4681C40D4601468234013601F
:1043300090F90030002B0CDB5A0903F01F0301FA3F
:1043400003F320320B4941F82230BFF34F8FBFF304
:104350006F8F90F90030002B09DB5A09012103F01F
:104360001F0301FA03F36032024941F8223010BD05
:10437000003C014000E100E0838903F00F020C23C0
:104380005343104A70B54468D658FFF7BFFF4C211D
:104390000D4A6143012000FA06F55058132303FB30
:1043A000046320EA0500505002EB830000214160C5
:1043B000981D0C3302EB800002EB830341605960CF
:1043C00070BD00BF40A601086430002008B503F0AE
:1043D0007DF8002008BD000008B50A4B1B684BB1F2
:1043E00003F0F0F904F001F94FF47A72002312F0AF
:1043F000F1FF08BD03F0BEF84FF47A73B0FBF3F0A1
:1044000008BD00BF7C32002010B588B003F0C8FEA4
:10441000052101A803F0D2F90424039B019A1A6034
:10442000962004F06DF9019B049A1B0413609620FA
:1044300004F066F9013CF0D10424039B019A1A6050
:104440004FF4C87004F05CF9019B049A1B041360DC
:104450004FF4C87004F054F9013CEED1DCE70000E1
:1044600070B50D46A0B0044603F09AFE2B462246D6
:10447000802168460DF030F8051E03DC03F0A6FE2F
:1044800020B070BD094B1B6823B9032202210848E4
:1044900000F090FE064E00241DF804103046013452
:1044A00001F06AF8A542F7D1E8E700BFC432002066
:1044B0006C3400200FB407B504A951F8040B019126
:1044C000FFF7CEFF03B05DF804EB04B070470000C7
:1044D00008B502F0A9FF01F0ADF802F095FF02F077
:1044E000A3FF024B01221A6008BD00BF7C320020EE
:1044F00000207047036801221B69002118470368E8
:1045000000221B691146184703681B691847036896
:104510009B69184703689B6A184700290CBF6FF016
:104520001800002070470120704711207047704725
:104530006FF01C0070476FF0150070470120704746
:104540000020704770470000F8B5074E15460C462E
:104550008F18BC4205D014F8011B304601F00CF84E
:10456000F7E72846F8BD00BF6C34002038B58DB29F
:1045700015F0010405D0084800F098FD041C18BF90
:104580000124EB0605D5044800F0A6FD08B144F06F
:104590001004204638BD00BF6C34002010B504461E
:1045A00005F0C2FA204610BD10B50C462AB10448E9
:1045B00000F0D0FF2070012010BD104610BD00BFDC
:1045C0006C34002038B51D46074B0360074B1B6851
:1045D000044633B9064800F0EDFD2946044800F0D2
:1045E000B1FD204638BD00BF7CA70108C4320020C1
:1045F0006C340020002070470020704708B501206F
:1046000000F036F80C4A136810B51844EFF308812F
:10461000884205D3094B0C221A604FF0FF3010BDC1
:1046200007490C6824B10749096821448842F1D23E
:104630001060184610BD00BFA406002034340020CE
:104640009032002094320020074C08B523680546BC
:10465000986804F05BFC2368D86804F057FC0DB13F
:10466000FFF7D2FEFEE700BFC00600200120704722
:1046700008B5FFF7E9FF01207047002105F002BDF2
:1046800004F07EBC7047704708B5FFF7FBFF08BD1C
:1046900008B5FFF7F8FF08BD10B5037803F0030372
:1046A000012B04460CD02BB140F2A9520549064813
:1046B00003F04EFB237843F002032370012010BD6A
:1046C000002010BDC4A701081BA8010810B503787D
:1046D00003F00303022B044605D040F2B152054912
:1046E000054803F035FB237823F0030343F001036F
:1046F000237010BDC4A7010841A801083F2870B568
:1047000004462FDC184D55F820305A1C13D10228CE
:1047100011DCFFF771FF034658B92046FFF76AFF27
:10472000034630B9114E3378BFF35B8FDB0704D5F6
:104730000F4B45F82430184670BD3046FFF7ACFFEC
:104740000028F5D04FF41653032202210848FFF742
:1047500039FF3046FFF7BAFF064A07490448FFF71A
:1047600085FFE5E70023E6E7A4050020803200206E
:104770008C320020C80100204545000838B50546A8
:10478000FFF7BCFF0B4B002443F8254030B904F081
:1047900083FA092303604FF0FF3038BD03685B697B
:1047A0009847051E04DA04F077FA6D420560F2E7D7
:1047B000204638BDA4050020FFF7E0BF38B50C4601
:1047C0001546FFF79BFF38B904F066FA092303602A
:1047D0004FF0FF34204638BD03682146DB682A4687
:1047E0009847041EF6DA04F057FA64420460EFE7D3
:1047F00008B5131E06DA04F04FFA162303604FF0D3
:10480000FF3008BD04D0FFF7D9FF40EAE07008BDD3
:10481000184608BD38B50C461546FFF76FFF38B986
:1048200004F03AFA092303604FF0FF34204638BD04
:10483000036821469B682A469847041EF6DA04F06E
:104840002BFA64420460EFE7002A08B503DBBDE8F9
:104850000840FFF7DFBF04F01FFA162303604FF094
:10486000FF3008BD10B5FFF749FF044628B904F032
:1048700013FA09230360204610BD0368DB699847DB
:10488000041EF8DA04F008FA644204600024F2E737
:104890001FB504220C4640230DEB020101900DF1DF
:1048A00009008DF8083005F09BF9214602A804F0B4
:1048B000F5FC044630B10198FFF7D4FF10B1204653
:1048C000FFF7DBFE204604B010BDFFF7CBBF38B5C5
:1048D0000C461546FFF712FF38B904F0DDF909233D
:1048E00003604FF0FF34204638BD036821461B6942
:1048F0002A469847041EF6DA04F0CEF964420460B2
:10490000EFE7FFF7E4BF38B50D46FFF7F7FE0446C3
:1049100030B904F0C1F9092303604FF0FF3038BD0E
:104920000368DB699847002814BF4FF400534FF425
:1049300000436B60236820469B6A984728610020EB
:1049400038BDFFF7E0BF05F0EFB80000034610B533
:1049500053F8042B044602B9036022689A4204D03B
:104960005E220349034803F0F3F9206810BD00BF3D
:1049700000A701085FA7010810B504460948FFF722
:10498000E5FF0023084A194652F82300A04208BF59
:1049900042F823100133402BF6D10248FFF7D6FF2F
:1049A00010BD00BF84320020A405002010B50F48C0
:1049B000FFF7CCFF0E4B032453F824206AB10134D7
:1049C000402CF9D104F068F9182303600748FFF779
:1049D000BDFF4FF0FF34204610BD4FF0FF320348BB
:1049E00043F82420FFF7B2FFF5E700BF8432002030
:1049F000A405002010B50446FFF7D8FF0028A4BF87
:104A0000014B43F8204010BDA405002070B50646B8
:104A10000C46FFF7EFFF054690B12146FFF738FF40
:104A2000044630B9074B53F82520964203D143F88A
:104A30002500204670BD04F02FF909230360F8E734
:104A40000446F6E7A40500200EB42DE9F04185B038
:104A50000546FFF7ABFF041E13DB0023294602A81F
:104A6000019303F0D9FD02A803F028FE1B4D064672
:104A700068B904F011F91323036045F824604FF07E
:104A8000FF34204605B0BDE8F04103B0704702A8EE
:104A900003F002FE074602A837B103F006FE0190BC
:104AA000019B45F82430ECE703F0EDFD06460028B5
:104AB000DFD0036802A8D3F8088003F0D9FD0B9B70
:104AC000024601A93046C04706460028E8D004F057
:104AD000E3F87642066045F82470D0E7A40500208C
:104AE00073B50E461849054605F06EFC044620B91C
:104AF000FFF704FE204602B070BD1449284605F0B9
:104B000063FC20B90120FFF7F9FD0124F2E7104909
:104B1000284605F059FC20B90220FFF7EFFD0224DA
:104B2000E8E72B78402B07D10422691C0DEB02002B
:104B300005F056F8019CDDE726F400412846FFF712
:104B400083FF0446D6E700BF88A801088FA80108A4
:104B500080A8010870477047074B08499A680848C1
:104B600010B5043A52F8044F41F8044F8142F9D18C
:104B70004FF000529A6010BD00ED00E0FCFFFF1FF7
:104B8000C001002008B5FFF7E7FFFFF7A1FCFFF722
:104B9000E2FF08BD08B5FFF7DDFFBDE80840FBF701
:104BA0008BBB30B5C36891FAA1F4B4FA84F491FADE
:104BB000A1F10325B1FA81F1640005FA04F449007A
:104BC00023EA040302FA01F11943C16030BD012A4E
:104BD00002D0022A18BF0022FFF7E3BF2DE9F041FF
:104BE0000E46411C044604D13E224449444803F089
:104BF000AFF804F00F08434BC4F3031053F82850E8
:104C0000FFF744F906F007070446836895FAA5F113
:104C1000B1FA81F195FAA5F20320490000FA01F1F9
:104C2000B2FA82F223EA01035200022101FA02F2EF
:104C30001343A36087425AD8DFE807F05E1D021DC8
:104C4000B8F1070FC6F303203BD9626A2B0A93FA27
:104C5000A3F1B1FA81F193FAA3F34FF00F0EB3FA77
:104C600083F389000EFA01F19B0022EA010200FAA7
:104C700003F3134363623B46226895FAA5F0B0FA4A
:104C800080F095FAA5F14FF0030EB1FA81F14000E2
:104C90000EFA00F0490022EA00028B40013F134364
:104CA000012F236005D8636832074CBF2B43AB4309
:104CB0006360C6F3011229462046BDE8F041FFF7C4
:104CC00086BF226A95FAA5F3B3FA83F395FAA5F1A4
:104CD0004FF00F0EB1FA81F19B000EFA03F3890039
:104CE00022EA030200FA01F313432362C3E76722B7
:104CF0000249054803F02CF80023BDE7D8A80108B5
:104D0000DBA5010898A80108CFAF0108431C70B5C6
:104D100006460D4604D188221B491C4803F018F8AA
:104D200006F00F021A4BC6F3031053F82240FFF7A8
:104D3000ADF804FB04F2016802EB42030B40B3FB45
:104D4000F2F3013B012B05D8EB1E022B436809D877
:104D500023434360032D08D101222146BDE8704062
:104D6000FFF735BF23EA04034360012DF4D0052D7E
:104D700001D0022D01D10222EFE721460022BDE839
:104D80007040FFF70EBF00BFD8A80108DBA50108DF
:104D900098A8010870B5A6B03422002102A805F039
:104DA00035F85C2200210FA805F030F82A4B1D6869
:104DB000002D4FD1294C019501261E60236C43F034
:104DC00080532364236C03F080530193019B00F014
:104DD0005DFC042302A802930895049600F0C0FF2E
:104DE00010B11F4803F044FDA36823F4F813A36037
:104DF000A36823F4F813A360236F43F4807323673D
:104E000020230F930FA84FF480731F9300F058FDD9
:104E100010B1144803F02CFD134B144801221A6002
:104E2000134B036003220023826041F6FF72437735
:104E30004360C26003614361836101F05EF910B1B8
:104E40000C4803F015FD094801F089FA10B10A4831
:104E500003F00EFD26B070BDA032002000380240E5
:104E600030A9010850A901083C0E4742A432002095
:104E70000028004079A9010893A90108F0B51F4B4B
:104E80001F491C681F4A5D688BB00C4015401E46C8
:104E90000F461868084084422BD15868104085425C
:104EA00027D105F03F0001F051FA0490C5F304202A
:104EB00001F04CFA01380590280C01F047FA443013
:104EC0000690C4F3054001F041FA0390C4F30620B4
:104ED00001F03CFA029004F07F0001F037FA012261
:104EE0000190694601A802F051FF00B100980BB093
:104EF000F0BD346875683C401540CAE700280040A2
:104F00007F7F7F003FFFFF00024BD868C0F3001097
:104F1000704700BF00280040214B224A2DE9F04194
:104F20001D691C689E6AC5F30E0514401846174695
:104F3000196811408C422ED1996A8E422BD1C4F34C
:104F4000054001F003FA0746C4F3062001F0FEF91C
:104F5000804604F07F0001F0F9F9134A13493C231D
:104F600013FB08004FF4616303FB07001368146828
:104F700098420B683CBF03F5A83303F5C0731B1BB5
:104F800003440B6010600868013DC00305EB90000E
:104F9000801BBDE8F0810468866A3C40C8E700BF1A
:104FA000002800407F7F7F009C3200209832002044
:104FB00030B591B000211422044602A8019104F0FA
:104FC00025FF03F0EDF82A4B2A4A1A6007A90122AF
:104FD000204602F02BFF002848D00D9B03B9072381
:104FE0008DF804300B9B01338DF805300A9B8DF84A
:104FF00006300C9B443B8DF80730099B8DF8083038
:10500000089B8DF809300024079B8DF80A308DF835
:105010000B4005940694FFF77FFF9DF809109DF85B
:105020000A2013483C2313FB01229DF808304FF45B
:10503000616101FB0323104A13600E4B224601A954
:105040009D6A01F0B3F810B10C4803F011FC002286
:1050500002A9074801F00AF910B1094803F008FC59
:10506000044A936A9D42FCD103F0B0F811B030BD00
:10507000A4320020002800409C320020ACA9010886
:10508000C3A901080FB407B5064B07491B6805AA59
:10509000D86801920AF0D2FD03B05DF804EB04B0C9
:1050A000704700BFC0060020DAA901084368094A1A
:1050B0009B0182B0D3581A68120706D500220192CC
:1050C0001A6801925A680192019A1868C0F3401058
:1050D00002B07047B83400204368034A9B01D3589C
:1050E0001868C0F3C0107047B834002042681449F3
:1050F000920110B404685450531882685A60C26810
:105100009A600269DA6042691A61026A9A61002251
:10511000DA84DA619A84DA859A85B0F91A20013244
:1051200006D108225A6118465DF8044B01F0B1BE61
:10513000B0F9182001320CBF04220C22F2E700BFA4
:10514000B834002010B581600C46FFF7CFFF28B1BE
:1051500021460348BDE81040FFF794BF10BD00BFD3
:10516000DAA90108124B984217D0A3F54C43984294
:1051700015D003F58063984213D003F580639842FD
:1051800011D003F5806398420FD003F54443984251
:105190000CBF05204FF0FF30704700207047012002
:1051A000704702207047032070470420704700BFFB
:1051B00000100140F0B50E4687B004465B4930460A
:1051C000154602F037FC5A490746284602F032FCE1
:1051D0000146384602F008FC2060013004D13D222F
:1051E0005449554802F0B4FD022E0CD0032D0AD0CC
:1051F0004E49022002F01EFC874202D14F4803F0C4
:1052000037FB002700E001274D4B206898424FF004
:1052100000031AD100934B4B5A6C42F010025A64AF
:105220005B6C03F010030093009B474B984229D11D
:1052300000230593434B5A6C42F020025A645B6C86
:1052400003F020030593059B1CE0404A90420BD1DC
:1052500001933C4B1A6C42F400321A641B6C03F449
:1052600000330193019BE0E7394A904240D1029319
:10527000344B1A6C42F480221A641B6C03F48023B2
:105280000293029BFFF76EFF0028606004DAA422FD
:105290002849304802F05CFD2449304602F080FB8A
:1052A0002349284602F07CFB721C03D001213046C2
:1052B000FFF72CFD6B1C03D001212846FFF726FDCC
:1052C0004FF41653A3600023E360236163612362FC
:1052D000268365832046FFF709FF3FB11E4B1F4819
:1052E00001221A6021464C2204F07AFC07B0F0BD7E
:1052F0001B4A90420BD10393124B1A6C42F40022CA
:105300001A641B6C03F400230393039BBAE7154A4A
:1053100090428AD104930B4B1A6C42F480121A64A7
:105320001B6C03F480130493049BABE7E8A401080F
:1053300070A4010804AA010860AA01087CAA010857
:1053400000100140003802400014014000440040B9
:1053500000480040B1AA0108C43200206C3400208B
:10536000004C004000500040002808DB42090123A7
:1053700000F01F0003FA00F0014B43F822007047D1
:1053800000E100E000280DDB4309012200F01F00CE
:1053900002FA00F02033044A42F82300BFF34F8F93
:1053A000BFF36F8F704700BF00E100E0F7B5FFF774
:1053B000D9FE071E26DB144E56F8270010B3134CF7
:1053C000BD0163591A68120606D5DB68190603D5B4
:1053D0000F4B01211B68984763591A68920608D53C
:1053E000DB68980605D50A4B56F827001B68002194
:1053F000984763591A68110704D55A69D20744BF00
:105400005B68019303B0F0BDCC320020B8340020BB
:10541000C83200200148FFF7C9BF00BF0014014097
:105420000148FFF7C3BF00BF005000400148FFF72D
:10543000BDBF00BF004C00400148FFF7B7BF00BF31
:10544000004800400148FFF7B1BF00BF00440040E2
:105450000148FFF7ABBF00BF00100140034B1960CC
:105460004168034B43F82120704700BFC832002039
:10547000CC32002030B490E818002C48834233D05E
:105480000AD8A0F50060834228D000F580608342EE
:1054900027D0002318460FE0254883420AD000F5A4
:1054A0008060834223D0A0F544408342F1D1214B58
:1054B000352001E0204B2520204DA401FAB1C9B9C7
:1054C0002959CA6842F02002CA601D4A00F1100141
:1054D000926830BC42F82130FFF746BF194B2620B6
:1054E000EAE7194B2720E7E7184B3420E4E7184B8D
:1054F0004720E1E72959CA6842F08002E4E72B59C6
:10550000DA6849B922F02002DA60DB6813F0800F14
:1055100009D130BCFFF736BF22F08002DA60DB68C9
:1055200013F0200FF4E730BC704700BF004C004080
:10553000001001402154000851540008B8340020E4
:1055400000ED00E045540008395400082D540008CF
:105550001554000838B5446805462846FFF7A6FDEF
:105560000028FAD0A401034B1B595868C0F3080067
:1055700038BD00BFB834002070B5456806460C46FB
:105580003046FFF7A9FD0028FAD0AD01024B5B5968
:10559000C4F308045C6070BDB834002008B50E4A3E
:1055A000C36D934214D008D8A2F5806293420FD005
:1055B0000A4803F05DF9002008BD094A934203D070
:1055C00002F580629342F3D1BDE8084000F04AB989
:1055D000BDE8084000F036B9003C0040C3AA01080D
:1055E00000300140DFF830D0002103E00B4B5B5866
:1055F000435004310A480B4B42189A42F6D30A4AE8
:1056000002E0002342F8043B084B9A42F9D301F030
:105610001FFEFAF7FBFD70470000022080B9010869
:10562000C80100209810002098100020803600202B
:10563000FEE7704708B50B4B1A6842F400721A6017
:105640001A6842F480621A601A6842F480721A6022
:10565000032000F009F80F20FEF7B8FEFFF7E9FF7E
:10566000002008BD003C0240074AD36823F4E063F1
:105670001B041B0C43F0BF63000243F4003300F42F
:10568000E0600343D360704700ED00E0014B01226E
:105690001A60704720000E4237B500230193184B63
:1056A000184C1A6C42F080521A641B6C03F0805341
:1056B0000193019B144B01221A60FEF78DFE0546F3
:1056C0006368DA030BD5114B0E4C01221A60FEF70A
:1056D00083FE054663689B030AD5002006E0FEF7BB
:1056E0007BFE401BB0F57A7FEAD9032003B030BDC2
:1056F000FEF772FE401BB0F57A7FEBD9F5E700BFED
:10570000003802400070004040000E4244000E424B
:105710002DE9F0410D46044610B90120BDE8F081A5
:10572000444B1A6802F00F028A4228D321688F077F
:105730002DD4C80740D43F4B1A6802F00F0295429F
:1057400066D3226851076CD4130707D53A4A2169FA
:10575000936823F4604343EAC103936000F0B8FA0E
:10576000354B364A9B68C3F30313D35CD840344BA4
:1057700018600F20FEF72AFE0020BDE8F081CAB2B3
:105780001A701B6803F00F039942C6D1CEE72A4B6B
:1057900011F0040F1EBF9A6842F4E0529A600E079F
:1057A00042BF9A6842F460429A609A68A06822F008
:1057B000F00202439A60BCE762681F4B012A1DD1C8
:1057C0001B6813F4003FA8D01B4EB36823F00303FB
:1057D0001343B360FEF700FE41F288380746B36812
:1057E000626803F00C03B3EB820FA4D0FEF7F4FD64
:1057F000C01B4045F3D90320BDE8F081911E01296B
:105800001B6802D813F0007FDDE713F0020FDAE720
:10581000EAB21A701B6803F00F039D427FF47DAF5C
:105820008FE70549E0688B6823F4E05303438B60FE
:105830008AE700BF003C024000380240C9AB0108C3
:10584000A8060020044B054A9B68C3F38223D35C5F
:10585000034A1068D840704700380240D9AB0108AD
:10586000A8060020044B054A9B68C3F34233D35C6F
:10587000034A1068D840704700380240D9AB01088D
:10588000A80600200F2303600B4B9A6802F0030266
:1058900042609A6802F0F00282609A6802F4E05274
:1058A000C2609B68DB0803F4E0530361034B1B6891
:1058B00003F00F030B60704700380240003C0240C9
:1058C00003682DE9F74313F0010604460BD0AA49FB
:1058D000866BD1F88C2022F0C0623243B6FA86F68D
:1058E000C1F88C2076099D070BD5A348E16BD0F851
:1058F0008C2022F0C0520A430029C0F88C2008BF37
:10590000012613F0040512D09B49256BD1F88C2099
:10591000B5F5801F22F4401242EA050218BFB5FA1D
:1059200085F5C1F88C2012BF6D09002501261807E6
:105930000FD59148616BD0F88C2022F440020A43C5
:10594000B1F5800FC0F88C2000F00981002908BF54
:105950000125990633D500230193874B874F1A6C95
:1059600042F080521A641B6C03F080530193019B38
:105970003B6843F480733B60FEF72EFD80463B6836
:10598000DA0540F1EE807C4F3B6F13F4407340F03A
:10599000FB80236C03F44072B2F5407F764A40F0FE
:1059A0001681916823F0704021F4F81120F44070C2
:1059B00001439160116FC3F30B030B43136723681B
:1059C000D90642BF6E4B94F858201A6023681A0615
:1059D00008D56949E06CD1F8942022F440020243D2
:1059E000C1F894205F0608D56349A06CD1F89420D3
:1059F00022F080620243C1F89420D8050CD55E489D
:105A0000616DD0F8942022F000620A43B1F1006F7A
:105A1000C0F8942008BF0125990508D55649606C47
:105A2000D1F8942022F080520243C1F894205A0504
:105A300000F1D180012E40F0DC80524E4E4F002309
:105A40003360FEF7C9FC80463B681B0100F12581ED
:105A50002268D00701D5A36B1BB1910715D5E36B65
:105A60009BB94549D1F88430D1F8840003F4403320
:105A700000F07060034360680343A06843EA80134A
:105A8000606943EA0073C1F88430530703D5236B80
:105A9000B3F5801F05D0170720D5636BB3F5800FD2
:105AA0001CD13549D1F88430D1F8840003F4403357
:105AB00000F0E040034360680343A06843EA8013BA
:105AC000206943EA0063C1F88430D1F88C00A36AEE
:105AD00020F01F00013B0343C1F88C3050051BD55B
