:020000040800F2
:1000000000000220CD4A0008194B0008194B0008D7
:10001000194B0008194B0008194B0008000000009C
:10002000000000000000000000000000194B000864
:10003000194B000800000000194B0008194B00087C
:10004000194B0008194B0008194B0008194B000800
:10005000194B0008194B0008194B0008194B0008F0
:10006000194B0008194B0008194B0008194B0008E0
:10007000194B0008194B0008194B0008194B0008D0
:10008000194B0008194B0008194B00082D330008C4
:1000900031330008194B000821330008194B0008C0
:1000A000194B0008194B0008194B0008194B0008A0
:1000B000194B0008194B0008194B0008194B000890
:1000C000194B0008194B0008194B0008194B000880
:1000D000194B0008194B0008194B0008194B000870
:1000E000194B0008194B0008194B0008194B000860
:1000F000194B0008194B0008194B0008194B000850
:10010000194B0008194B0008194B0008194B00083F
:10011000194B0008194B0008194B0008194B00082F
:10012000194B0008194B0008194B0008194B00081F
:10013000194B0008000000000000000041330008D7
:1001400045330008194B000835330008194B0008E7
:10015000194B0008194B0008194B0008194B0008EF
:10016000194B0008194B0008194B0008194B0008DF
:10017000194B0008194B0008194B0008000000003B
:1001800000000000194B0008000000000000000003
:10019000194B00080000000000000000194B000887
:1001A000000000000000000000000000194B0008E3
:1001B000194B0008194B0008194B0008194B00088F
:1001C000194B00080348044B834202D0034B03B190
:1001D00018477047680D0020680D002000000000DF
:1001E0000548064B1B1AD90F01EBA301491002D099
:1001F000034B03B118477047680D0020680D0020BD
:100200000000000010B5064C237843B9FFF7DAFF71
:10021000044B13B10448AFF300800123237010BDD9
:10022000680D002000000000B82D020808B5054B3D
:100230001BB105490548AFF30080BDE80840FFF752
:10024000CFBF00BF000000006C0D0020B82D0208D9
:10025000A3F5803A704700BF174B002B08BF134B24
:100260009D46FFF7F5FF00218B460F461348144AC1
:10027000121A0DF039FB0E4B002B00D098470D4B96
:10028000002B00D098470020002104000D000D48ED
:10029000002802D00C4803F062FC0DF0F7FE2000AD
:1002A000290003F0EBFE03F057FC00BF000008003C
:1002B000000000006D40000800000220680D0020D2
:1002C000603200205F3B00080000000010B5094BC1
:1002D000036003F1200280330446C0F8BC20C0F85C
:1002E000C030BC3007F0A4FE204607F07FF920465E
:1002F00010BD00BF7CBA0108A0F1BC00E6E7A0F188
:10030000C000E3E708B5164C16491748174D07F02B
:10031000B3FE1749144807F0AFFE224615491248AC
:1003200007F0C7FE1449104807F0A6FE11490E4811
:100330002A4607F0BEFE0C4807F08CFE0F492B78CA
:100340002278094807F098FE207800F0DDF8297837
:10035000207800F0ADFC00F029F900F0B3FCFAE7DA
:10036000CC01002040950108440E0020840D00209F
:10037000869501089D950108A0950108BD95010885
:1003800010B50446FFF7A2FF204603F050FD2046BB
:1003900010BDA0F1BC00F3E7A0F1C000F0E7000041
:1003A00007B54FF41653009303220023022105489A
:1003B00006F0A0FC044A0549024803B05DF804EBCE
:1003C00003F0C8BB880D0020C8010020CD02000842
:1003D0000FB407B5064B04AA1B6852F8041BD86873
:1003E00001920AF041F903B05DF804EB04B07047E4
:1003F000EC07002008B5074B1A78074B1B789A4288
:1004000005D106481146FFF7E3FF012008BD002093
:10041000FCE700BFCD010020FC170020D6950108A5
:10042000024B1870062000F07FBA00BF600E00205B
:1004300038B50546FFF7DEFF0128044605D104481C
:100440002946FFF7C5FF204638BD024B1D70FAE76D
:1004500015960108FC17002070B50D4E0D4D34782F
:10046000844228BF044622460B4829460EF068F80D
:1004700032780A4B121BD2B21C7032702AB1291981
:1004800028460EF05DF8012070BD1046FCE700BF65
:10049000FB130020FC1300206B12002069120020C7
:1004A00038B5054610460C46FFF7C2FF012808D1B3
:1004B000072000F055FA20B1BDE83840072000F0D1
:1004C0004FBA192C2246294609D80B480EF038F8A5
:1004D0000A4B1C70BDE83840042000F025BA0848DB
:1004E0000EF02EF8074B1A201C70FFF7B5FF0720FF
:1004F00000F01AFAEEE700BF6B120020691200202C
:10050000FC130020FB13002010B50A4B0A4C0022FC
:100510001A70207000F01EFAFFF76CFF207800F0D0
:1005200089FA064801F0ECF9BDE81040044801F0F2
:10053000EDB900BFFC170020CD010020A104000888
:10054000210400082DE9F341164D1F4695F800805F
:10055000154B144698440E4600F0E4F92246014635
:1005600040460DF0EDFF2B78023B1C44E4B2012F16
:100570002C7003D09DF82030012B10D100F09AFA96
:10058000074600F091FA3B46009022460648314665
:1005900001F08AF90020287002B0BDE8F081012046
:1005A000FAE700BF680E0020690E00202DE9F3472E
:1005B000B54BB64C1A782578AA4218BF1D70012D8C
:1005C00000F0A380022D00F0C780002D40F058817C
:1005D000062000F0C5F978B1AD4B187800F046FA66
:1005E000B0FA80F0400901F078F92570062002B0D9
:1005F000BDE8F04700F0A2B9032000F0B1F998B3CC
:1006000000F042FA064600F045FA054600F046FAC8
:10061000804600F055FA0746284600F060F9C0B25F
:1006200000903B46424631462846FFF78BFF1FB1FC
:10063000002323700320DAE7284600F071F9954A79
:100640001378984208BF431C284608BF137000F077
:1006500067F90146904800F04CF932468E48032174
:1006600000F0FAF90123E4E7042000F079F928B357
:10067000884D8A4B2E781F78072000F071F9B0FA68
:1006800080F040093246864900903B468548864EB8
:1006900000F036F9854B327818700146814800F039
:1006A000DBF93378FF2B1EBF2B7801332B70804B87
:1006B00000221A7001232370042098E7072000F01D
:1006C0004FF950B1042000F02FF91A20FFF7C4FEB3
:1006D000002840F0D580072089E700F041F908B1F3
:1006E000002084E7012000F03BF908B101207EE7FB
:1006F00000F036F908B1022079E7052000F030F962
:10070000002800F0BD80052071E7284600F028F998
:10071000064670B100F0F4F9012808D0052000F079
:100720001FF9003818BF012040002070DEE70220CA
:10073000FBE700F015F9002800F0A2805A4B1B7867
:10074000FF2B04D12846267001F0C4F8C8E7022325
:10075000237000F009FAC3E7284600F001F90546C6
:10076000D0B100F097F905464E4800F0D9F806469A
:10077000284600F0D5F8864207D100F0B5F90023ED
:100780000120237001F0A6F8B5E7464800F0C8F84C
:10079000284600F0C5F8AEE7052000F0E1F8E0B12A
:1007A000434E3378092B0BD93E4800F0B9F8014687
:1007B0004048FFF70DFE2846257001F08BF8A2E7B0
:1007C000394B38481A78394B197800F045F93378A5
:1007D000013333700123237095E7032000F0C0F844
:1007E000002842D000F050F9074600F053F90546C2
:1007F00000F054F9814600F063F90646284600F0FF
:100800006EF85FFA80F8EEB1CDF8008033464A46C4
:1008100039462846FFF796FE002E7FF409AF28469A
:1008200000F07EF81B4A1378984208BF431C284604
:1008300008BF137000F074F80146174800F059F82B
:100840003A460BE7DFF84CA0284600F069F89AF822
:1008500000308342D8D0284600F062F89AF8002091
:1008600001461548FFF7B4FDD9E700F079F80028F4
:100870007FF436AF012000F073F800287FF436AF24
:1008800002B0BDE8F08700BFFD170020FE17002072
:10089000600E0020670E0020610E0020691200200B
:1008A0006B12002033130020FC1700206A12002076
:1008B000660E00203A96010878960108024B1A78D5
:1008C000024B1A70704700BFFE170020FD17002072
:1008D0000078013801288CBF002001207047007883
:1008E000431E5842584170470078B0FA80F04009E2
:1008F0007047002303700123417083700320704709
:1009000010B51C469DF808304270012B18BF022319
:100910000370224602300DF013FEA01CC0B210BDC1
:100920004078704702307047034A012311688340C2
:100930000B431360704700BF00180020044A0123D6
:1009400003FA00F0136823EA00031360704700BF46
:1009500000180020014B00221A6070470018002088
:10096000024A012383401068184070470018002095
:10097000054B1B785A1E012A02D80020FFF7D4BF6E
:100980000BB90120FAE770473C180020F8B507467C
:100990000C4615461E4607F00BFC07EE900AFAEED1
:1009A000E07AF5EEC07AF1EE10FA21DD2A46214612
:1009B00010480DF0C5FD104B1F70104B1D7002F05C
:1009C000CFFB0F4B187002F0C5FB0E4B18800E4B7F
:1009D00020461E70FFF77CFF20B10320BDE8F840E1
:1009E000FFF7A2BF2046FFF77FFF08B10220F5E71F
:1009F000F8BD00BF0A1800200918002008180020C0
:100A00000518002006180020041800200FB407B5B0
:100A1000064B07491B6805AAD868019209F024FE15
:100A200003B05DF804EB04B0704700BFEC07002092
:100A3000C496010810B50446002007F0E1F907F05C
:100A4000AFFB2046024A0349BDE8104002F024BB38
:100A50008D0900087109000810B5044602F03EFB3C
:100A6000014B22781A7010BD3C18002010B502F01E
:100A70007DFB044618B101460248FFF7C7FF204638
:100A800010BD00BFC4960108014B1878704700BF25
:100A900009180020004870470A180020014B1878F8
:100AA000704700BF08180020014BB3F900007047E1
:100AB00006180020014B93F900007047051800202C
:100AC000014B1878704700BF0418002003681847CE
:100AD0000B68036070477047024B002205201A70B4
:100AE000FFF722BF3D18002008B5034806F04FF875
:100AF000024B00221A7008BD401800203D1800204B
:100B0000014B1878704700BF3D180020C36810B52E
:100B100004460BB19B689847204610BD38B5054682
:100B2000064B45F8283B044606F031F82846FFF707
:100B3000EDFF204605F0F6FF204638BD30BA01082B
:100B400010B50446FFF7EAFF204603F070F920468F
:100B500010BD000010B5034B03600446FFF7DEFF35
:100B6000204610BD44BA010870B52DED028B88B047
:100B700007F01EFB10220446002168460CF0B4FE6C
:100B8000244B0093032394FBF3F303EB4303E41A96
:100B90000234E4B2204D039507EE904AB8EE678A1E
:100BA0001DB1694604A8FFF793FFDFED1C7A079596
:100BB00068EE277A1A4E17EE900A17F0C7FC054622
:100BC0000C4606F061FD736B23B996F838300BB113
:100BD00006F0F2FA1348FFF799FF079B1BB15B6819
:100BE000104804A99847079B0D4873632A4623467B
:100BF00005F0B5FF06F05EFD04A8FFF787FF684625
:100C0000FFF784FF084B01221A7008B0BDEC028B7D
:100C100070BD00BFD90A00086CB5010800247449F2
:100C200040180020681800203D18002010B5044628
:100C3000FFF790FF204603F0FAF8204610BD0000B1
:100C400008B50C4805F046FF0A480B4B40F8283B16
:100C5000102200210CF048FE064A084905480123ED
:100C600082F83830064B1360BDE80840054A02F0B0
:100C700071BF00BF4018002030BA0108550B0008B2
:100C800044BA0108C80100200FB407B5064B074954
:100C90001B6805AAD868019209F0E6FC03B05DF86C
:100CA00004EB04B0704700BFEC070020F696010883
:100CB000024B1870024B1970704700BFF71A0020E2
:100CC000F61A00202DE9F04FA24AA34C11782378A0
:100CD000994291B018BF13700C2B00F22581DFE808
:100CE00013F00D00420045002F0175013B05410541
:100CF000230123012301230123015E05974B1B6878
:100D0000B3B901232370022000F0C4FD0446A8B14A
:100D100000F0E6FD044600F0E7FD2146024690485B
:100D2000FFF7B2FF022011B0BDE8F04F00F0A6BD02
:100D3000012BE8D1FFF73AFC0223E3E7042000F09F
:100D4000A9FD002800F0F08086498748874D0DF006
:100D500047FB874B874A84481B6812782978984755
:100D60002C700420DFE702232370DDE0824F7B4DEF
:100D70003B78012B24D12E68002E55D100F006FEC1
:100D8000DFF81C8298F8010098F8009000F026FE29
:100D90003246009079497A484B46013607F06CF9A3
:100DA000042E08F10408EDD1764A00231360764A38
:100DB0001370764A137001232B603B78012B38D0D7
:100DC000022000F067FD002800F0AA8000F088FDF6
:100DD000074600F089FD0F288046A8BF4FF00F0896
:100DE0000646424639466A480DF0AAFB684A6949F8
:100DF0006348002302F8083013460096324607F095
:100E00003BF9654B08935A4B01221B68032108A844
:100E10009847022000F032FD6049594807F02CF94C
:100E200002232B6003239FE7012E79D1564B1B78B9
:100E30003BBB564B1B7823BB524B1A68032A20DC62
:100E4000574B584E13F82210316003EB8203587849
:100E500000F0C4FD014654480DF0C2FA326853490F
:100E6000514B474807F008F9414B4F48D3F80080F1
:100E70000DF006FC3278C1B24B48C047424B01220C
:100E80001A70022000F006FDDFF8008120B300F0A8
:100E900027FD064600F028FD0328024619D13046FA
:100EA00043490CF08FFD064698B9DFF8DC9099F8BD
:100EB000003073B13B4B3F491A68314807F0DCF80A
:100EC00001233D492E4889F8006088F8003007F07A
:100ED000D3F8022000F0D2FC98F80030E3B1374894
:100EE00006F0B4FAC0B1264807F0B4F8C0B2312811
:100EF00021D13349224807F0BFF822490B6801335A
:100F00000022032B88F800200B6010DD23491C48C9
:100F100007F0B2F802232B603B78012B7FF450AF2F
:100F20002B68022B3FF47EAF11B0BDE8F08F012398
:100F30002B602270F0E72349114807F09DF8EBE79A
:100F400021490F4807F098F8044B00221A60042347
:100F50000AE700BFEE230020EF230020F423002047
:100F6000F6960108D71F0020D01B0020D61F0020B6
:100F7000FC230020F61A0020F71A00202B97010806
:100F8000B41B0020F01A0020F51A0020F41A0020EB
:100F9000DE2300206098010841434B0003980108BC
:100FA00048280020EC1A0020CC1A00204C97010899
:100FB000689701086C9701088E970108F81A0020BD
:100FC000C79701082898010885980108DFF864B3DD
:100FD000B64D9BF80030012B40F02E812E68002E7C
:100FE00040F08380B24BB34F1E60B34BDFF84893A1
:100FF0001E60B24BB24A1E70B24BDFF80CE3B2482F
:101000001E703E6033463146B446B04619F801AB17
:10101000BAF1000F06D192F800C040F823C00133A6
:101020004FF0010C0131042982F803804EF8048B43
:1010300002F10402EAD1BCF1000F00D03B60A349E9
:10104000A348DFF8848207F017F8A249A04807F008
:1010500013F83B68B34240DC9F499D4807F00CF809
:1010600001232B609BF80030012B41D02868022817
:1010700040F0818200F00EFC002800F07C8200F03D
:101080002FFC074600F030FC009794499BF80020A5
:1010900003468F4806F0F0FF914938460CF082FE77
:1010A000002800F0FD824FF0FF338E49089308AA14
:1010B0000CF026F8089E8C498548324606F0DCFF85
:1010C0009BF80030B34240F0EF828849804806F038
:1010D000D3FF874B01221A70E6E258F8042B8549AA
:1010E0007B4806F0C9FF0136B3E7012E40F0758159
:1010F000DFF8C891734F99F8003063BB3E7856BB58
:101100006D4BDFF8B0A11A68DAF800108A4222DAD3
:10111000DFF8B481784958F822300393774B1846AA
:101120001E700BF0CBFFDAF80020B24200F306810C
:10113000734B72481E680DF0A3FA9DF80C20C1B2E3
:101140006E48B0476D4B039A6E49614806F094FFB4
:10115000012389F80030022000F09CFB30B300F03E
:10116000BFFB804600F0C6FB0646404607F004F889
:1011700009289FBF644951F82020013241F82020FE
:101180004B490A68013203460A6051485F493246BA
:1011900006F072FF002389F800305D494C480123B6
:1011A0003B7006F069FF022000F068FB3B78002BE3
:1011B0003DD0584806F04AF9002838D0444806F097
:1011C00049FFC0B2312840F0C880DFF8EC805249B6
:1011D000D8F800303E4801330026C8F800303E7091
:1011E00006F04AFF334BD8F800201B689A421EDBFA
:1011F0004A493748DFF8C8A006F03EFF9AF80230A7
:1012000043B19AF80020404B454953F8223030480A
:1012100006F032FF0136042E0AF1040AEED1022351
:101220002B600023C8F8003089F800303B709BF831
:101230000030012B00F0D1802F68002F7FF416AF13
:10124000022000F027FB002800F0C28000F048FBDD
:10125000064600F049FB33498046334602461C48A7
:1012600006F00AFF9BF800103346B044434579D19D
:101270002D49174806F000FF264806F0E7F8002839
:10128000FAD0134806F0E6FE06465FFA80F8303ED4
:1012900026490F484246F6B206F0EEFE092E71D9F5
:1012A00023490B4806F0E8FEE2E700BFF4230020E4
:1012B000C81A0020C41A0020901A0020951A002095
:1012C00048280020941A0020801A0020A1980108C4
:1012D000B41B0020C5980108FF980108CF9D0108A4
:1012E000E79B0108FC9D01082E9E0108879E0108CE
:1012F000DD230020F09801082D99010880180020B6
:10130000FC23002062990108981A00209699010890
:10131000D6990108F81A00201E9A01084C9A010873
:10132000729A0108AF9A0108939B0108D49A0108A8
:10133000D79A0108F71A0020F023002058F8042B50
:10134000039B9A4207D0AC4908A80BF0B7FEAB4804
:1013500008A90CF017FB0136E5E6A949A94806F0F3
:101360008BFE64E713F8012B303AD0B209283FF620
:101370007DAF91421FBF10A800EB8700013740F8F6
:10138000202C73E79BF80030A8F13002934205D07F
:1013900008A900239F4203D19B4982E79B4980E72C
:1013A00051F8040B904201D00133F3E7984907A8A4
:1013B0000BF084FE974B07A81E680DF061F901221F
:1013C000C1B207A8B047022000F058FA02232B60F0
:1013D0009BF80030012B7FF449AE2B68022B40F0C4
:1013E000CA808D4FDFF87CA23B78002B68D19AF839
:1013F0000060002E64D1894BDFF86C821B68D8F83E
:10140000002093425CDADFF83C927C4859F82330A4
:101410008349059306700BF051FECDF81090D8F873
:101420000000B04200F3AC800023DFF82C92DFF81C
:10143000FCC103934FF0FF369846039A904200F3A5
:10144000AE80002B40F01281731C00F00F817549B3
:101450006A480CF097FA7449324608A80BF02EFE41
:1014600008A966480CF08EFA0023704918461A46FF
:101470008E7826B14E78012E0CBF01320130013337
:10148000042B01F10401F3D1002A40F0F1806849F6
:101490005A480CF077FA674B01221A705D4B574897
:1014A0001E680DF0EDF89DF81420C1B25348B04706
:1014B000524B059A6049534806F0DEFD01233B700C
:1014C000022000F0E7F918B300F00AFA064600F02F
:1014D0000BFA0328024618D1304658490CF072FA2C
:1014E000064690B93B7883B14C4B55491A68554B29
:1014F000444853F8222006F0BFFD012352494148D9
:101500003E708AF8003006F0B7FD022000F0B6F910
:101510009AF8003053B34D4805F098FF30B339487E
:1015200006F098FDC0B2312840F0B5803B4FDFF89F
:1015300038813B6846493348013300263B608AF8CE
:10154000006006F099FD3A68D8F800309A420DDB49
:1015500040492C483B4FDFF8009106F08DFDD8F84C
:101560000030B34200F38D8003232B609BF80030E2
:10157000012B7FF47BAD2B68032B7FF4D5ACB0E05F
:1015800059F8042B344B354953F8223008A80BF096
:1015900095FD1A4808A90CF0F5F901363FE70499C2
:1015A00051F8042B049159F822E0C6451ADD0026B3
:1015B0001CF8268090450CEB86030FD14FF00008F5
:1015C00083F80280264B4FF0010803F806800023C1
:1015D0001646F046039A013203922EE70136042E96
:1015E000E6D1F4E7F6D1B8F1000FF3D0964218BF78
:1015F00043F00103EEE700BFFB98010880180020CC
:10160000849A0108B41B00203F9B01080D9B010830
:101610009D950108FC230020951A0020901A0020B7
:10162000C99B0108E69B0108019E0108482800208B
:10163000249C0108C01A0020929C010868970108A8
:10164000CE9C0108801A0020F59C0108F81A0020A1
:101650003A9D0108699D0108981A0020D99B01084C
:10166000F0230020941A0020C41A00204F49F8E605
:10167000824201DB4E490BE74E494F480CF082F99C
:101680000CE757F8042B4D4959F822304C4806F026
:10169000F3FC013663E74B49494806F0EDFC65E78A
:1016A0004949474806F0E8FC4849494E38460CF09D
:1016B00079FB50B34749424806F0DEFC0123337002
:1016C000454B0893454B01221B68032108A8984706
:1016D0009BF8002042493A4806F0CEFC022000F078
:1016E000CDF8404A404900231360404A0B60D37054
:1016F0004B60D3718B60D372CB60D3732B60344B50
:101700001B7853B10C23FFF72FBB394938460CF037
:1017100049FB0028D4D03749CDE79BF80020012AA7
:1017200002D10623FFF720BB3349254806F0A4FC6D
:10173000324A3349224806F09FFC324B32491A782C
:10174000324B1F48002A18BF19460A46304906F096
:1017500093FC0523FFF708BB2E49194806F08CFCC3
:10176000FFF760BB2C491648204E2C4F06F084FC36
:101770000025707896F8008000F030F917F8013BEA
:101780002749CDE900032A460D484346013506F0B6
:1017900073FC042D06F10406EBD1FFF743BB214B8C
:1017A0004FF0FF321A600023FFF7DEBAED9B01080D
:1017B000489C01086F9C010880180020729A01085B
:1017C000B41B0020A39D0108549E0108AD9E010892
:1017D000C01A0020BB9E010841434B00FC2300209F
:1017E000319F0108C81A0020981A002048280020BC
:1017F000EC9E0108FD9E0108539F0108DE23002096
:101800006F9F0108DD2300201E970108179701082C
:101810008B9F0108A29F0108C09F0108F0230020B0
:10182000E09F0108F423002007B50A4B0A481A7804
:101830000A4B1A704FF4165300930322002302211F
:1018400005F058FA064A0749034803B05DF804EB6F
:1018500002F080B9EF230020F81A0020EE230020C8
:10186000C8010020CD020008034A012303FA00F05A
:101870001368184310607047F8230020044A0123BE
:1018800003FA00F0136823EA00031360704700BFF7
:10189000F8230020012303FA00F0024B1B681840D4
:1018A000704700BFF823002038B50C4601460648B3
:1018B00015460CF045FE054B1D70054B1C700220B3
:1018C000BDE83840FFF7D0BF0424002004280020E2
:1018D000052800200520FFF7C7BF0620FFF7C4BF7B
:1018E0000048704704240020014B1878704700BF5F
:1018F00004280020014B1878704700BF05280020FD
:10190000014B1860704700BFFC230020014B18609A
:10191000704700BF0024002010B50C4C204605F095
:10192000D9F820460A4B40F8283B102200210BF042
:10193000DBFF012384F83830064B23602046064A3B
:101940000649BDE8104002F005B900BF0828002094
:1019500030BA010844BA0108C8010020550B00083C
:1019600070B505464E1E4418002E00DC70BD06F012
:101970001FFC731C90FBF3F101FB130014F8012D05
:101980002B5C2370013E2A54EEE70000F7B50020DF
:1019900006F036FA06F004FC04210D4B01930DEB22
:1019A0000100FFF7DDFF00210A480B4B01AA0125CA
:1019B0000C46013110F8017B12F8016B1F700429ED
:1019C0005E709D70DC7003F10403F2D103B0F0BDD2
:1019D0000001020388B501084828002003289ABFA7
:1019E000024B53F820000248704700BF78B5010849
:1019F0000CA001080FB407B5064B04AA1B6852F8E7
:101A0000041BD868019208F02FFE03B05DF804EBC8
:101A100004B07047EC070020002000F05BBF00001E
:101A20002DE9F041BDF81C50B5F5806F06460C4617
:101A300090461F4606D322482946FFF7DBFF0620C3
:101A4000BDE8F081022000F0A1FC08B10720F7E713
:101A50003146022000F0F6FC4FFA88F1022000F037
:101A60002DFD3946022000F047FD0699022000F0C6
:101A700061FD2146022000F0C7FC8EB90B3C012C11
:101A800012D80121022000F0A1FC7DB90121022021
:101A900000F06EFD00F0D6FD0130D7D00020CFE77A
:101AA000012E01D10C2CECD00021EBE7002102200B
:101AB00000F05EFD2946022000F078FDEAE700BF55
:101AC00030A001087047000084B038B504AC84E849
:101AD0000F000220DDE9085400F058FC20B1072077
:101AE000BDE8384004B070470C2C15D92146114888
:101AF000FFF780FF0C21022000F086FCA5B90B3C0B
:101B0000012C15D80121022000F060FC00F09AFDA4
:101B10000130E4D00020E3E7052CEFD8214605484A
:101B2000FFF768FF0621E6E7012D01D10C2CE9D073
:101B30000021E8E7C0A001080FB407B5064B07492C
:101B40001B6805AAD868019208F08EFD03B05DF805
:101B500004EB04B0704700BFEC070020E9A00108C7
:101B600084B010B502AC84E80F009DF80D10012977
:101B700005D0BDE81040254804B0FFF7DDBF9DF853
:101B8000293033205BB301F009F840F04101C9B2BC
:101B9000332000F0F8FF19213B2000F0F4FF9DF8FE
:101BA00027309DF82A402BB31D21112000F0EBFFB8
:101BB000402000F0F3FF00F03301402000F0E3FF8D
:101BC00000210F2000F0DFFF00210D2000F0DBFFDF
:101BD000D4B10520BDE8104004B001F015B800F004
:101BE000DDFF00F0BE0141F00101332000F0CBFF2A
:101BF0001D21D1E71F21112000F0C5FF402000F07A
:101C0000CDFF00F03F01D8E70620E3E7E9A0010897
:101C100084B02DE9F04106AC84E80F000898BDF8C7
:101C200032609DF83450BDF842700B9CDDF828807E
:101C300000F0CAFF1D2000F0B1FF9DF831309DF883
:101C4000301041EAC3019DF8363041EA881141EA7B
:101C5000430141EA8501C9B21D2000F094FF1E2016
:101C600000F09CFFC7F3012100F00C0041EA0411D1
:101C70000143C9B21E2000F086FFF9B21F2000F018
:101C800082FF310A202000F07EFFF1B2212000F017
:101C90007AFF25B19DF83510222000F074FF9DF8E1
:101CA00037306BB14B2000F079FF60F07F01C9B293
:101CB0004B2000F068FF9DF83810242000F063FFEF
:101CC000062C4FF031000FD100F068FF00F0F80152
:101CD00041F00501312000F056FF0C21BDE8F04134
:101CE000372004B000F04FBF00F058FF00F0F801BB
:101CF00041F00301312000F046FF0A21EEE7802188
:101D0000122000F040BF4021122000F03CBF07B578
:101D1000122000F043FF8DF807009DF80700C0F384
:101D2000401003B05DF804FB2021122000F02BBF0F
:101D300008B5192000F032FF030643BF4042C0F34C
:101D40008500404240F3870008BD84B010B502AC66
:101D500084E80F009DF938401A2000F01FFF002C86
:101D6000B8BF8B3C4FEA2013B8BF0019BDE8104044
:101D7000A8BF8B38184400B204B0704738B5054688
:101D8000132000F00BFF04460146284600F016FF22
:101D9000204638BD0FB407B5064B04AA1B6852F89D
:101DA000041BD868019208F05FFC03B05DF804EBF7
:101DB00004B07047EC07002008B528B90848FFF7C1
:101DC000E9FF4FF0FF3008BD402905D90548FFF76E
:101DD000E1FF6FF00100F6E7BDE8084000F0CEBD7E
:101DE00028A1010854A10108F8B5074601200D46B5
:101DF00014461E4600F0CAFA08B10720F8BD39465D
:101E0000012000F03DFB2946012000F01BFB71B2D0
:101E1000012000F053FBBDF81810012000F06CFB0E
:101E20000799012000F086FB2146012000F0ECFA22
:101E300065B90B3C012C0DD80121012000F0C6FA38
:101E400000F0D2FB0130D8D00020D7E7012D01D11E
:101E50000C2CF1D00021F0E784B038B504AC84E854
:101E60000F000120DDE9085400F090FA20B10720AE
:101E7000BDE8384004B070479DF91C0000F010FC2C
:101E800050BB012000F082FA0028F0D10C2C15D9AB
:101E900021461248FFF77EFF0C21012000F0B4FA22
:101EA000A5B90B3C012C15D80121012000F08EFAB8
:101EB00000F09AFB0130DAD00020D9E7052CEFD8EA
:101EC00021460648FFF766FF0621E6E7012D01D10E
:101ED0000C2CE9D00021E8E70120C9E7C0A00108E7
:101EE0000FB407B5064B07491B6805AAD8680192CD
:101EF00008F0BAFB03B05DF804EB04B0704700BF14
:101F0000EC0700208EA1010884B070B504AC84E811
:101F10000F0009209DF9404000F040FE06465A207F
:101F200000F03CFE9DF8103003F0FD03012B14BFC0
:101F300000238023054606F07F001843030600F0C7
:101F4000F00127D5112CCBBF45F0070505F0F805AA
:101F5000EDB245F0040505F00703072B12D1142C50
:101F6000A8BF1424052CB8BF0524631F1943C9B2A8
:101F7000092000F008FE2946BDE870405A2004B050
:101F800000F001BE112CA8BF1124022CB8BF0224FE
:101F9000A31EEBE70E2CA8BF0E2444EAE474013420
:101FA0002143E4E784B008B50DF1080C8CE80F007C
:101FB0009DF80D10012905D0BDE80840124804B075
:101FC000FFF78EBF9DF827309BB1F521112000F05F
:101FD000DAFD402000F0E2FD00F03301402041F046
:101FE000400100F0D0FDBDE80840032004B000F03F
:101FF0000BBEF721112000F0C6FD402000F0CEFD01
:1020000000F03F01EAE700BF8EA1010884B02DE98E
:10201000F0418AB010AC84E80F009DF94C30089371
:1020200014AD0FCD6C46159EBDF85A70DDF850808A
:102030000FC495E80F0084E80F0010AB0FCBFFF73B
:1020400063FF129800F0C0FD9DF85F306BB14B202C
:1020500000F0A4FD60F07F01C9B24B2000F093FDB9
:102060009DF86010242000F08EFD1D2000F096FDEC
:102070009DF859309DF8581041EAC3019DF85C3035
:1020800041EA881141EA83019DF85E3041EA43014B
:10209000C9B21D2000F077FD1E2000F07FFD00F08A
:1020A0000F0141EA0611C9B21E2000F06CFD390A89
:1020B000202000F068FD2120F9B200F064FD062E1A
:1020C0004FF0310010D100F069FD00F0F80141F04F
:1020D0000501312000F057FD0C2137200AB0BDE882
:1020E000F04104B000F04FBD00F058FD00F0F801E1
:1020F00041F00301312000F046FD0A21EDE70821FF
:10210000122000F040BD08B568B1332000F046FD54
:1021100000F0BE01332000F036FD19213B20BDE860
:10212000084000F030BD332000F038FD00F0BE0163
:1021300041F00101332000F026FD1D21EEE738B506
:10214000044622200D4600F01EFD00210E2000F066
:102150001AFD00210D2000F016FD012000F01EFDEB
:1021600030F0F80304D100F07DFD012005F03CFDC6
:1021700029462046BDE8384000F01BBD0FB407B526
:10218000064B04AA1B6852F8041BD868019208F099
:102190006BFA03B05DF804EB04B07047EC07002065
:1021A00010B50A4C21788142024605D00848FFF755
:1021B000E5FF4FF0FF3004E0022001F001F808B91C
:1021C000207010BD0348FFF7D9FFF2E7D0280020A8
:1021D000C2A9010818AA010808B5044804F0D7FCF0
:1021E00000F043FD024B01221A7108BD6028002057
:1021F000A028002013B5174C2379022B03D0032B02
:1022000019D002B010BDFFF75DFCFFF7E5FF03201A
:1022100000F0D6FF012808D000230F4A009314686D
:1022200019461A460120A047EBE70C4802B0BDE86A
:102230001040FFF7A3BF204600F05AFD94F8280095
:1022400000F047FD0123237102B0BDE8104000F00B
:10225000E7BF00BFA0280020D428002098A90108CB
:102260002DE9F041354C267988B046B134483146E5
:10227000FFF784FF4FF0FF3008B0BDE8F081314B2D
:102280001860314B31481960FFF778FF4FF48070C8
:1022900005F076FF2E4B186028B92E48FFF76EFF29
:1022A0006FF00100E8E74FF4FA6262620E222273D7
:1022B0000B22294B626108224FF00108A360628360
:1022C00004230522204684F820306285237084F898
:1022D00005802677E67784F81E8084F821602661E1
:1022E00084F81980667784F8228084F8288000F0CA
:1022F000FFFC2546014605F8100B1848FFF73EFF86
:102300000FCD6F460FC795E80F0087E80F0094E8E0
:102310000F00FFF7A1FDA5F1100CBCE80F006F4600
:102320000FC795E80F0087E80F0094E80F00FFF74C
:10233000CBFB84F8048030469EE700BFA028002035
:102340008FA20108D8280020D4280020E0A201088C
:10235000582800200DA301082021F63647A30108C4
:1023600008B5042000F02CFF012805D10648FFF72E
:1023700005FF4FF0FF3008BDFFF72EFF022000F0F1
:102380001FFF0020F7E700BF5DA3010838B5054631
:1023900018B90A48FFF7F2FE05E0094C217829B187
:1023A0000848FFF7EBFE4FF0FF3004E0084600F06E
:1023B00007FF08B9257038BD0348EBE76DA7010892
:1023C000D0280020AAA70108EDA7010838B50446C7
:1023D0000D4600F01FFF0128084B06D11A78A242D3
:1023E00003D1074B00201D7638BD06481A782146D8
:1023F000FFF7C4FE4FF0FF30F6E700BFD028002003
:10240000A02800200EA7010838B504460D4600F0AC
:1024100001FF0128084B06D11A78A24203D1074BCD
:1024200000205D6138BD06481A782146FFF7A6FEF8
:102430004FF0FF30F6E700BFD0280020A028002092
:10244000AFA6010838B504460D4600F0E3FE0128AA
:10245000084B06D11A78A24203D1074B00201D6118
:1024600038BD06481A782146FFF788FE4FF0FF3046
:10247000F6E700BFD0280020A028002021A80108EE
:1024800038B504460D4600F0C5FE0128084B06D1BC
:102490001A78A24203D1074B00201D7338BD0648AD
:1024A0001A782146FFF76AFE4FF0FF30F6E700BFCB
:1024B000D0280020A028002033A5010838B5044604
:1024C0000D4600F0A7FE0128084B06D11A78A2425B
:1024D00003D1074B00205D7638BD06481A782146A7
:1024E000FFF74CFE4FF0FF30F6E700BFD02800208A
:1024F000A028002050A6010838B504460D4600F07B
:1025000089FE0128084B06D11A78A24203D1074B55
:1025100000205D8338BD06481A782146FFF72EFE5D
:102520004FF0FF30F6E700BFD0280020A0280020A1
:102530007AA8010838B504460D4600F06BFE012864
:10254000084B06D11A78A24203D1074B00209D60A8
:1025500038BD06481A782146FFF710FE4FF0FF30CD
:10256000F6E700BFD0280020A02800203AA90108E3
:1025700038B504460D4600F04DFE0128084B07D142
:102580001A78A24204D1074B002083F8225038BDAC
:1025900005481A782146FFF7F1FD4FF0FF30F6E7C6
:1025A000D0280020A0280020DCA8010838B5044667
:1025B0000D4600F02FFE0128084B06D11A78A242E2
:1025C00003D1074B00205D8538BD06481A782146A7
:1025D000FFF7D4FD4FF0FF30F6E700BFD028002012
:1025E000A0280020F3A50108F0B589B000F012FE84
:1025F0000128114B18D11F78012F15D10F4E06F16C
:10260000100500F035FB0FCD6C460FC495E80F00A8
:1026100084E80F0096E80F00FFF7F8FC3846FFF754
:10262000BFFD002009B0F0BD05481978FFF7A6FDF1
:102630004FF0FF30F6E700BFD0280020A028002090
:10264000CFA40108F0B589B000F0E4FD0128114BDA
:1026500018D11F78022F15D10F4E06F1100500F08A
:1026600007FB0FCD6C460FC495E80F0084E80F0000
:1026700096E80F00FFF7CCFA3846FFF791FD0020EF
:1026800009B0F0BD05481978FFF778FD4FF0FF302D
:10269000F6E700BFD0280020A02800206BA4010886
:1026A000F0B58BB0044600F0B5FD0128104B17D1F2
:1026B0001F78012F14D10F4E089406F110050FCD8D
:1026C0006C460FC495E80F0084E80F0096E80F00F1
:1026D000FFF71AFC3846FFF763FD00200BB0F0BD92
:1026E00005481978FFF74AFD4FF0FF30F6E700BFC5
:1026F000D0280020A02800208FA501080E4B1B79B0
:10270000022B13B510D1FFF7FAFAFFF765FD03208E
:1027100000F056FD012809D00023084A00931468F0
:1027200019461A460120A04702B010BD044802B065
:10273000BDE81040FFF722BDA0280020D4280020CB
:1027400085A301082DE9F041454E3479022C8AB069
:1027500067D1FFF7D8FAFFF7DAFA012829D1FFF796
:10276000E3FA96F82250ADB9FFF736FD032000F0EA
:1027700027FD012808D03B4B00951E682A462B46B2
:1027800029462046B04711E037480AB0BDE8F0417D
:10279000FFF7F4BC00F03EFD0328F5D10023314AD9
:1027A0000093156819461A462046A8470AB0BDE8A6
:1027B000F081FFF7BDFA06F11005089007460FCD2E
:1027C0006C460FC495E80F0084E80F0096E80F00F0
:1027D000FFF7BBFA254C80462068FFF7CFFA96F842
:1027E000226005468EB9FFF7F7FC032000F0E8FCF5
:1027F000012808D01B4B00971F68216843462A46D2
:102800003046B847D2E71A48BFE700F003FD032877
:10281000F9D1144B00971E68216843462A460020D0
:10282000B0E7032C14D1134804F0B1F9FFF767FCAB
:10283000FFF7D2FC204600F0C3FC012806D00E4B67
:102840001B6800200AB0BDE8F04118470B489CE720
:102850000B4821460AB0BDE8F041FFF78FBC00BF2E
:10286000A0280020D4280020C8A101085828002052
:1028700004A2010860280020D82800203FA20108F7
:1028800073A201082DE97043044699460D4690460F
:1028900004F0FAFE636B23B994F838300BB104F0FE
:1028A0008BFC04F12806AE420BD03046FEF72EF921
:1028B0003EB1EB681BB15B68294630469847EB6830
:1028C000636342464B46204604F049F9BDE8704335
:1028D00004F0F0BEF0B506468DB0012000F070FCAB
:1028E000012806D11E48FFF749FC4FF0FF300DB01C
:1028F000F0BD1C4B1C4F18684FF48072002107F18B
:1029000010050AF0F1FF0FCD6C460FC495E80F00DB
:1029100084E80F0097E80F00FFF722F902233B71CC
:10292000E6B11022002108A80AF0DEFF0F4B089341
:1029300030460F4B0B9315F017FA00220D4B15F094
:102940008DFA15F023FE02460B460B4808A9FFF747
:1029500099FF08A8FEF7DAF80020C8E73046C6E776
:10296000B4A3010858280020A0280020F521000861
:102970006CB5010800408F4060280020F0B5304C55
:102980002379032B8FB006460D4606D12D48FFF75D
:10299000F5FB4FF0FF300FB0F0BD042000F010FC4D
:1029A0000128F3D0FFF718FC0A2005F01DF90220DA
:1029B00000F006FC012000F003FC012801D12248B0
:1029C000E5E763791BB1012B03D000270CE01F481A
:1029D000DDE794F82100FFF796FB2946304684F89E
:1029E0002E50FFF7ACFB676A194E08970FCE6D4665
:1029F0000FC596E80F0085E80F0094E80F00FFF779
:102A0000D1FA0323102200210AA823710AF06CFFD7
:102A1000104B0A933846104B0D9315F0A5F9002280
:102A20000E4B15F01BFA15F0B1FD02460B460C4893
:102A30000AA9FFF727FF0AA8FEF768F80020AAE70F
:102A4000A0280020DBA301080BA4010832A4010880
:102A5000B0280020F52100086CB5010800408F4027
:102A60006028002010B50C4C204604F033F82046B6
:102A70000A4B40F8283B102200210AF035FF0123C1
:102A800084F83830064B23602046064A0649BDE8E4
:102A9000104001F05FB800BF6028002030BA010884
:102AA00044BA0108C8010020550B000810B50446BF
:102AB000044B40F8B83BD4F8C4300BB19B6898473E
:102AC000204610BD1CBB01080FB407B5064B0749D3
:102AD0001B6805AAD868019207F0C6FD03B05DF82F
:102AE00004EB04B0704700BFEC07002048AA0108BF
:102AF000F8B50D4C0D4F23681646E2681B040D46D1
:102B0000136040F08001094804F084FA013D2E442E
:102B1000B54205D015F8011F384604F07BFAF7E7F7
:102B2000A36822681A60F8BD98290020D0290020E7
:102B3000F8B50E4C0E4F23681646E2681B040D468E
:102B4000136000F07F010A4804F064FA013D2E444E
:102B5000B54206D00021384604F05CFA05F8010FB2
:102B6000F6E7A36822681A60F8BD00BF9829002024
:102B7000D029002010B50446FFF798FF204601F049
:102B800056F9204610BD07B502AB012203F8011D1E
:102B90001946FFF7ADFF03B05DF804FB07B501224E
:102BA0000DF10701FFF7C4FF9DF8070003B05DF8C2
:102BB00004FB0A4601460020FFF79ABF0A46014679
:102BC0000020FFF7B5BF000010B515F0CDF80CA33D
:102BD000D3E9002315F06CFA15F018FC0446C0F395
:102BE00007410620FFF7CFFFC4F307210720FFF7B7
:102BF000CAFFE1B20820BDE81040FFF7C4BF00BF24
:102C00000000000080844E40144910B50A78044644
:102C100090B932B901230B70114BDA681B681B04A1
:102C200013600120FFF7BAFF00F0F80121430120F3
:102C3000BDE81040FFF7A7BF094B2AB11A68002072
:102C40000870D96812040A60032C1A6803D0DB6884
:102C500012041A60E5E79B68FBE700BFAC2A00207E
:102C60007C2900200120FFF7CFBF0020FFF7CCBF59
:102C700010B504460120FFF791FFC0F3C010844255
:102C800026D0012C13D0FFF7F0FF0120FFF786FFBD
:102C900000F07F010120FFF776FF00214020FFF7C1
:102CA00072FF30214120BDE81040FFF76CBFFFF7F5
:102CB000DCFF2046FFF772FF60F07F01C9B22046BB
:102CC000FFF761FF00214020FFF75DFF0021E9E7EA
:102CD00010BD10B504460120FFF7CAFF2CB1342106
:102CE0003920BDE81040FFF74EBF1221F8E7000081
:102CF0002DE9FF47594C054604F0C6FC012120464A
:102D000000F000FC04F0D6FC2368E2681B041360AA
:102D1000012004F069FF04F0B7FC2046002100F018
:102D2000F1FB04F0C7FC062004F05EFF2E784C4C4B
:102D3000042E1CD104F0A8FC0021204600F0E2FB88
:102D400004F0B8FC012004F04FFF63681A682368A0
:102D50001A4214BF0126002604F096FC20460121E9
:102D600000F0D0FB04F0A6FC012004F03DFF236836
:102D7000E2683C483C4C1B0413603C4B9A681B685F
:102D800013600821002204F023F9394804F01EFFE3
:102D90000020FFF739FF1022ACBB214668460AF03D
:102DA000A3FD69463348344C04F021F86846FDF72A
:102DB000ADFE10227CBB214668460AF095FD6946AF
:102DC0002E48DFF8C8802E4C04F011F86846FDF755
:102DD0009DFE4FF0030900235F1CDBB2D8F80020F2
:102DE000B2FBF9F29A421ED903EB430304EB030A48
:102DF000E05CFFF73DFF9AF802109AF80100FFF738
:102E0000C2FE3B46E8E7002168460AF06DFD1D4B17
:102E100000940393C5E7002168460AF065FD194B4D
:102E200000940393CBE76879174CFFF721FF95F8DF
:102E30002800FFF74EFF4220FFF7B0FE38B92046CA
:102E4000FFF742FE4FF07E5004F0C0FEF3E7A868A3
:102E5000FFF7BAFE304604B0BDE8F087B429002081
:102E60007C290020D029002045270008982900202F
:102E7000CDCCCC3DDC280020FD2600082C290020EC
:102E80008CB501086CB5010848AA0108D0010020E2
:102E900073B5224D224C234E0A21284603F04CFFE5
:102EA0002846214D2246314600F054FE1321284683
:102EB00003F042FF2246314628461C4D00F04AFEF0
:102EC0004FF0FF330093062205230721284604F024
:102ED000D3F822461649284600F03CFE154B1C2428
:102EE0002246184600210AF0FFFC162103F0DAFE04
:102EF000114B2246184600210AF0F6FC002103F08F
:102F0000BEFE0E4B2246002118460AF0EDFC2121A0
:102F100002B0BDE8704003F0B2BE00BFDC28002064
:102F2000C8010020916D00082C290020D029002024
:102F3000AD2A000898290020B42900207C2900200F
:102F40000FB407B5064B04AA1B6852F8041BD868D7
:102F5000019207F089FB03B05DF804EB04B0704701
:102F6000EC07002013B5084B0024CDE90034012202
:102F7000082307212046FEF753FDFEF74DFD034BC6
:102F80001C7002B010BD00BF2021F636AD2A002013
:102F900010B5044648B9FFF7E3F9FFF7E3FF084B24
:102FA0001B682046BDE810401847012807D1FFF7ED
:102FB000D7F9FFF7D7FF024B02201B68F2E710BDDD
:102FC000F02A00202DE9F041884615461F469DF95C
:102FD000186000283BD1202A03D92648FFF7B0FF0C
:102FE0002025254C2A46414620460BF0A9FA234BC2
:102FF0001F80234B1E7026782746FEB9214BA478EC
:103000001B78A34201D0FF2C1BD1A4F1FF035C422B
:103010005C4101261C4B1B78ABB9FFF7A1F9FFF708
:10302000A1FF012E24D1194B787819492A1F1D6858
:10303000D2B22346AC46BDE8F041604700242646A4
:10304000E8E73446E6E71348FFF77AFFE9E7013897
:1030500001280DD80C4B1B782BB9FFF781F9BDE87F
:10306000F041FFF77FBF0B48BDE8F041FFF768BFB5
:10307000BDE8F08155AB0108AE2A0020FA2A0020F5
:10308000F82A0020FC2A0020AD2A0020F42A002083
:10309000B22A00209AAB01080A4B10B518700A4BEF
:1030A00019600A4B0A491A6004460A48FFF7D8F823
:1030B000094B00225C701A70FFF752F9BDE810400E
:1030C000FFF750BFFC2A0020F02A0020F42A00203D
:1030D000C52F0008912F0008CE2A0020F7B5184F01
:1030E0003C7834B117482146FFF72AFF012003B08E
:1030F000F0BD1C2905D914482022FFF721FF032029
:10310000F5E7124D0E1DAA70F6B20A460146281DBB
:103110002C70EE700BF014FAFFF722F90C4A08231A
:10312000CDE900322146012307220E20FEF75CFE86
:1031300031462846FEF740FE01233B702046D6E785
:10314000AD2A00206AAA0108ABAA0108CE2A0020F5
:103150002021F636014BB3F900007047FA2A00200F
:10316000014B93F900007047F82A002010B5074B77
:103170001C78012C05D106482146FFF7E1FE2046C8
:1031800010BD044B18700020FAE700BFAD2A0020E4
:10319000F5AA0108FC2A00200FB407B5064B074921
:1031A0001B6805AAD868019207F05EFA03B05DF8C3
:1031B00004EB04B0704700BFEC070020E7AB010848
:1031C00037B501460D480E4A037803EB83052A44C0
:1031D000545C012C06D00B4B2B445B5C03702046E7
:1031E00003B030BD0848642202FB0300009007488A
:1031F00002FB01020648FFF7CFFFF0E7FD2A00209F
:10320000D3B50108BFB50108C8030020D4010020D0
:10321000E7AB0108014B1878704700BFFD2A00207A
:10322000014B00221A707047FD2A002043692DE9E6
:10323000F0410D46D907044628D58168334F82688E
:10324000334E836833483940B94202EA060204BF6C
:103250000127A760B24203EA000304BF4FF480765F
:10326000A660834204BF4FF48030A06027488142AB
:1032700005D027498A4202D0264A934206D1264BDE
:10328000264A1B6852F8250001219847E2686369C5
:10329000920708D09F0706D51F4B204A1B6852F89B
:1032A000250000219847A169626963698E070AD5E4
:1032B000900508D5190406D5174B184A1B6852F813
:1032C000250005219847A7696669626917F0040718
:1032D00006F4806609D046B1120406D50E4B0F4A9B
:1032E0001B6852F825000721984763695FB156B102
:1032F0001B0408D5084B094A1B6852F82500022117
:10330000BDE8F0411847BDE8F08100BF03000004AC
:103310000003000800000310082B0020002B0020F1
:1033200000210148FFF782BF00640040FFF7F8BFAB
:10333000FFF7F6BF01210148FFF778BF00680040A2
:10334000FFF7F8BFFFF7F6BF30B5036891FAA1F4B5
:10335000B4FA84F491FAA1F10325B1FA81F1640081
:1033600005FA04F4490023EA040302FA01F11943BF
:10337000016030BD00B5002389B007286FD8DFE8B1
:1033800000F00413202D3A4754610093364B374820
:103390001A6B42F001021A631B6B03F001030093E6
:1033A000009B09B05DF804FB01932F4B30481A6B6A
:1033B00042F002021A631B6B03F002030193019BAC
:1033C000EFE70293284B2B481A6B42F004021A6372
:1033D0001B6B03F004030293029BE2E70393224B6F
:1033E00025481A6B42F008021A631B6B03F00803AE
:1033F0000393039BD5E704931B4B20481A6B42F0C1
:1034000010021A631B6B03F010030493049BC8E7BC
:103410000593154B1A481A6B42F020021A631B6B76
:1034200003F020030593059BBBE706930E4B15485D
:103430001A6B42F040021A631B6B03F040030693C1
:10344000069BAEE70793084B0F481A6B42F08002C9
:103450001A631B6B03F080030793079BA1E70B48DC
:1034600004F07AFC00209CE7003802400000024093
:103470000004024000080240000C0240001002401C
:103480000014024000180240001C024026AC010853
:10349000431C10B5044604D176220649064803F0C1
:1034A000CBFE2046002100F00DFE04F00F040120A9
:1034B000A04010BD47AC0108A1AC010870B504469E
:1034C0004B1C0E46218216D0C1F30310FFF752FFAA
:1034D00005463046FFF7DCFF238A074A656103F0A3
:1034E0000F03206052F82330A36105F11003183553
:1034F0006360A560E56070BDA4B90108B0F9100073
:1035000000F078BE0A4619B981694069FFF71CBF0F
:103510000122F9E74C23F0B54343224E224F1A1DF6
:10352000324400244FF0010E1E448C4205D1014666
:10353000BDE8F0401D4804F00FBC33680EFA04F5F6
:103540001D422BD0136B7D690EFA03F32B4225D05D
:10355000D2F818C07B61156805B3FA6833EA020235
:1035600003D1BA6833EA020214D10F4A916833EAF0
:10357000010103D1D26833EA02020DD1DCF8102038
:10358000134214BF01210221094B28461B68BDE8E4
:10359000F04018470221F7E70121F5E70134043232
:1035A000C3E700BF0C2B0020003C0140DBAC01084E
:1035B000202D002006210846FFF7ACBF0521084654
:1035C000FFF7A8BF01210420FFF7A4BF01210320BA
:1035D000FFF7A0BF01210220FFF79CBF0121084691
:1035E000FFF798BF01210020FFF794BF012910B514
:1035F00018D11B4C838952B1A26803F00F03994084
:103600001143A160836843F00103836010BDA26889
:1036100003F00F03994022EA0101A160836823F0BF
:103620000103F2E70229F1D10D4983895AB1CC682F
:1036300003F00F03012202FA03F32343CB608368F4
:1036400043F00203E1E7CA6803F00F03012404FA20
:1036500003F322EA0303CB60836823F00203D4E779
:10366000003C0140B0F90C3099B270B501F00F0682
:1036700006F00C0404F1804404F59C3401F00301CD
:10368000A56889000F228A40C3F3031325EA0205C7
:103690008B402B43A3600F4B01221968B2401143AA
:1036A00019608468E50742BF996811439960A107D2
:1036B00042BFD9680A43DA6090F90030002B08DB7A
:1036C0005909012203F01F0302FA03F3024A42F8E8
:1036D000213070BD003C014000E100E02DE9F04FD9
:1036E00092464A1C85B080460C4666D00022039262
:1036F000334A344F516C41F480415164526C02F4AE
:1037000080420392039A04F00F090C2202FB097213
:10371000C4F303105568062D47D8DFE805F0043AD6
:103720003C3E40424400284E0193FFF723FE0C210B
:1037300001FB09F17A1857F801E0244FA8F80C4072
:103740004C21694301247B5892F90820C8F80450A1
:1037500004FA0EF44FF0000B1C4388F80020C8F860
:1037600008B07C50132101FB05E507EB8501019BA7
:103770004B60174BC861C3F800A0164BC1F83490DA
:103780009B681032404643F82260FFF76BFF5846B3
:1037900010E0114EC8E7114EC6E7114EC4E7114EB6
:1037A000C2E7114EC0E7114EBEE7114804F0D4FA4B
:1037B0004FF0FF3005B0BDE8F08F0846FAE700BFD4
:1037C000003802407CB80108E53500080C2B0020C9
:1037D000202D002000ED00E0DD350008D535000883
:1037E000CD350008C5350008BD350008B5350008E1
:1037F000B4AC01088389184A03F00F03012110B506
:1038000001FA03F39468DB431C409460D4681C40C5
:10381000D46014682340136090F90030002B0CDB57
:103820005A0903F01F0301FA03F320320B4941F850
:103830002230BFF34F8FBFF36F8F90F90030002B12
:1038400009DB5A09012103F01F0301FA03F3603277
:10385000024941F8223010BD003C014000E100E087
:10386000838903F00F020C235343104A70B5446858
:10387000D658FFF7BFFF4C210D4A6143012000FAE3
:1038800006F55058132303FB046320EA050050504B
:1038900002EB830000214160981D0C3302EB800095
:1038A00002EB83034160596070BD00BF7CB8010822
:1038B0000C2B002008B503F07DF8002008BD0000A7
:1038C00008B50A4B1B684BB103F0F0F904F001F99D
:1038D0004FF47A72002314F009FE08BD03F0BEF81D
:1038E0004FF47A73B0FBF3F008BD00BF242D002025
:1038F00010B588B003F0C8FE052101A803F0D2F985
:103900000424039B019A1A60962004F06DF9019B30
:10391000049A1B041360962004F066F9013CF0D170
:103920000424039B019A1A604FF4C87004F05CF9F8
:10393000019B049A1B0413604FF4C87004F054F9FF
:10394000013CEED1DCE7000070B50D46A0B00446A6
:1039500003F09AFE2B4622468021684609F012FDAC
:10396000051E03DC03F0A6FE20B070BD094B1B68EA
:1039700023B903220221084800F090FE064E0024DD
:103980001DF804103046013401F06AF8A542F7D161
:10399000E8E700BF6C2D00204C3000200FB407B5C5
:1039A00004A951F8040B0191FFF7CEFF03B05DF8B5
:1039B00004EB04B07047000008B502F0A9FF01F065
:1039C000ADF802F095FF02F0A3FF024B01221A604E
:1039D00008BD00BF242D002000207047036801228D
:1039E0001B6900211847036800221B69114618470C
:1039F00003681B69184703689B69184703689B6A3B
:103A0000184700290CBF6FF01800002070470120F4
:103A100070471120704770476FF01C0070476FF0BF
:103A20001500704701207047002070477047000064
:103A3000F8B5074E15460C468F18BC4205D014F851
:103A4000011B304601F00CF8F7E72846F8BD00BF2F
:103A50004C30002038B58DB215F0010405D008486F
:103A600000F098FD041C18BF0124EB0605D504489E
:103A700000F0A6FD08B144F01004204638BD00BF98
:103A80004C30002010B5044604F082FB204610BDE7
:103A900010B50C462AB1044800F0D0FF2070012078
:103AA00010BD104610BD00BF4C30002038B51D467B
:103AB000074B0360074B1B68044633B9064800F008
:103AC000EDFD2946044800F0B1FD204638BD00BF99
:103AD00044B901086C2D00204C30002000207047B4
:103AE0000020704708B5012000F036F80C4A136832
:103AF00010B51844EFF30881884205D3094B0C2216
:103B00001A604FF0FF3010BD07490C6824B1074917
:103B1000096821448842F1D21060184610BD00BFE8
:103B20005806002010300020382D00203C2D0020A9
:103B3000074C08B523680546986808F067FC2368B9
:103B4000D86808F063FC0DB1FFF7D2FEFEE700BFB6
:103B5000EC0700200120704708B5FFF7E9FF0120BE
:103B60007047002109F0D0B908F08ABC704770474F
:103B700008B5FFF7FBFF08BD08B5FFF7F8FF08BD64
:103B800010B5037803F00303012B04460CD02BB1CE
:103B900040F2A9520549064803F04EFB237843F052
:103BA00002032370012010BD002010BD78AD010874
:103BB000CFAD010810B5037803F00303022B0446D0
:103BC00005D040F2B1520549054803F035FB237892
:103BD00023F0030343F00103237010BD78AD010807
:103BE000F5AD01083F2870B504462FDC184D55F897
:103BF00020305A1C13D1022811DCFFF771FF034655
:103C000058B92046FFF76AFF034630B9114E3378A2
:103C1000BFF35B8FDB0704D50F4B45F82430184604
:103C200070BD3046FFF7ACFF0028F5D04FF41653B7
:103C3000032202210848FFF739FF3046FFF7BAFF99
:103C4000064A07490448FFF785FFE5E70023E6E752
:103C500058050020282D0020342D0020C801002008
:103C60002D3A000838B50546FFF7BCFF0B4B002482
:103C700043F8254030B90AF003FA092303604FF0F6
:103C8000FF3038BD03685B699847051E04DA0AF007
:103C9000F7F96D420560F2E7204638BD580500206F
:103CA000FFF7E0BF38B50C461546FFF79BFF38B964
:103CB0000AF0E6F9092303604FF0FF34204638BDCF
:103CC00003682146DB682A469847041EF6DA0AF0A4
:103CD000D7F964420460EFE708B5131E06DA0AF06C
:103CE000CFF9162303604FF0FF3008BD04D0FFF773
:103CF000D9FF40EAE07008BD184608BD38B50C464B
:103D00001546FFF76FFF38B90AF0BAF909230360C7
:103D10004FF0FF34204638BD036821469B682A4691
:103D20009847041EF6DA0AF0ABF964420460EFE744
:103D3000002A08B503DBBDE80840FFF7DFBF0AF043
:103D40009FF9162303604FF0FF3008BD10B5FFF751
:103D500049FF044628B90AF093F909230360204675
:103D600010BD0368DB699847041EF8DA0AF088F989
:103D7000644204600024F2E71FB504220C4640238D
:103D80000DEB020101900DF109008DF808300AF0E9
:103D9000D7FB214602A808F035FD044630B1019852
:103DA000FFF7D4FF10B12046FFF7DBFE204604B03A
:103DB00010BDFFF7CBBF38B50C461546FFF712FF15
:103DC00038B90AF05DF9092303604FF0FF3420464B
:103DD00038BD036821461B692A469847041EF6DA57
:103DE0000AF04EF964420460EFE7FFF7E4BF38B52C
:103DF0000D46FFF7F7FE044630B90AF041F90923F2
:103E000003604FF0FF3038BD0368DB699847002836
:103E100014BF4FF400534FF400436B6023682046F7
:103E20009B6A98472861002038BDFFF7E0BF04F087
:103E3000AFB90000034610B553F8042B044602B98D
:103E4000036022689A4204D05E220349034803F0CB
:103E5000F3F9206810BD00BF05AD010864AD01088D
:103E600010B504460948FFF7E5FF0023084A194644
:103E700052F82300A04208BF42F823100133402B20
:103E8000F6D10248FFF7D6FF10BD00BF2C2D002051
:103E90005805002010B50F48FFF7CCFF0E4B032448
:103EA00053F824206AB10134402CF9D10AF0E8F823
:103EB000182303600748FFF7BDFF4FF0FF3420468B
:103EC00010BD4FF0FF32034843F82420FFF7B2FF44
:103ED000F5E700BF2C2D00205805002010B5044642
:103EE000FFF7D8FF0028A4BF014B43F8204010BDC6
:103EF0005805002070B506460C46FFF7EFFF054653
:103F000090B12146FFF738FF044630B9074B53F80C
:103F10002520964203D143F82500204670BD0AF0C3
:103F2000AFF809230360F8E70446F6E758050020D8
:103F30000EB42DE9F04185B00546FFF7ABFF041E36
:103F400013DB0023294602A8019303F0D9FD02A840
:103F500003F028FE1B4D064668B90AF091F81323BA
:103F6000036045F824604FF0FF34204605B0BDE8FB
:103F7000F04103B0704702A803F002FE074602A812
:103F800037B103F006FE0190019B45F82430ECE7C1
:103F900003F0EDFD06460028DFD0036802A8D3F841
:103FA000088003F0D9FD0B9B024601A93046C047AB
:103FB00006460028E8D00AF063F87642066045F825
:103FC0002470D0E75805002073B50E461849054601
:103FD0000AF096F8044620B9FFF704FE204602B026
:103FE00070BD144928460AF08BF820B90120FFF76C
:103FF000F9FD0124F2E7104928460AF081F820B9BA
:104000000220FFF7EFFD0224E8E72B78402B07D1D1
:104010000422691C0DEB02000AF092FA019CDDE714
:1040200026F400412846FFF783FF0446D6E700BF89
:1040300094B901089BB901088CB901087047704711
:10404000074B08499A68084810B5043A52F8044FDB
:1040500041F8044F8142F9D14FF000529A6010BDEF
:1040600000ED00E0FCFFFF1FC001002008B5FFF7D6
:10407000E7FFFFF7A1FCFFF7E2FF08BD08B5FFF778
:10408000DDFFBDE80840FCF73DB930B5C36891FAE3
:10409000A1F4B4FA84F491FAA1F10325B1FA81F103
:1040A000640005FA04F4490023EA040302FA01F16A
:1040B0001943C16030BD012A02D0022A18BF002274
:1040C000FFF7E3BF2DE9F0410E46411C044604D141
:1040D0003E224449444803F0AFF804F00F08434B34
:1040E000C4F3031053F82850FFF744F906F007070C
:1040F0000446836895FAA5F1B1FA81F195FAA5F223
:104100000320490000FA01F1B2FA82F223EA010326
:104110005200022101FA02F21343A36087425AD8E7
:10412000DFE807F05E1D021DB8F1070FC6F303209C
:104130003BD9626A2B0A93FAA3F1B1FA81F193FA9F
:10414000A3F34FF00F0EB3FA83F389000EFA01F1D7
:104150009B0022EA010200FA03F3134363623B4629
:10416000226895FAA5F0B0FA80F095FAA5F14FF023
:10417000030EB1FA81F140000EFA00F0490022EA84
:1041800000028B40013F1343012F236005D8636871
:1041900032074CBF2B43AB436360C6F30112294681
:1041A0002046BDE8F041FFF786BF226A95FAA5F3E5
:1041B000B3FA83F395FAA5F14FF00F0EB1FA81F13E
:1041C0009B000EFA03F3890022EA030200FA01F3CE
:1041D00013432362C3E767220249054803F02CF822
:1041E0000023BDE734AE0108A1AC0108A4B9010861
:1041F0005DB30108431C70B506460D4604D1882204
:104200001B491C4803F018F806F00F021A4BC6F3BE
:10421000031053F82240FFF7ADF804FB04F20168E5
:1042200002EB42030B40B3FBF2F3013B012B05D839
:10423000EB1E022B436809D823434360032D08D1AA
:1042400001222146BDE87040FFF735BF23EA040391
:104250004360012DF4D0052D01D0022D01D10222A1
:10426000EFE721460022BDE87040FFF70EBF00BF18
:1042700034AE0108A1AC0108A4B9010870B5A6B01C
:104280003422002102A809F02FFB5C2200210FA894
:1042900009F02AFB2A4B1D68002D4FD1294C0195AE
:1042A00001261E60236C43F080532364236C03F0CB
:1042B00080530193019B00F05DFC042302A802934C
:1042C0000895049600F0C0FF10B11F4803F044FDAC
:1042D000A36823F4F813A360A36823F4F813A3607E
:1042E000236F43F48073236720230F930FA84FF4A9
:1042F00080731F9300F058FD10B1144803F02CFD9B
:10430000134B144801221A60134B0360032200234D
:10431000826041F6FF7243774360C260036143618C
:10432000836101F05EF910B10C4803F015FD0948F6
:1043300001F089FA10B10A4803F00EFD26B070BDF5
:10434000482D0020003802408CAE0108ACAE0108B8
:104350003C0E47424C2D002000280040D5AE0108FD
:10436000EFAE0108F0B51F4B1F491C681F4A5D687E
:104370008BB00C4015401E460F461868084084421A
:104380002BD158681040854227D105F03F0001F03D
:1043900051FA0490C5F3042001F04CFA013805905D
:1043A000280C01F047FA44300690C4F3054001F0B0
:1043B00041FA0390C4F3062001F03CFA029004F0A5
:1043C0007F0001F037FA01220190694601A802F04E
:1043D00051FF00B100980BB0F0BD346875683C40E7
:1043E0001540CAE7002800407F7F7F003FFFFF00A5
:1043F000024BD868C0F30010704700BF002800408F
:10440000214B224A2DE9F0411D691C689E6AC5F3C3
:104410000E05144018461746196811408C422ED1DB
:10442000996A8E422BD1C4F3054001F003FA074686
:10443000C4F3062001F0FEF9804604F07F0001F08D
:10444000F9F9134A13493C2313FB08004FF4616345
:1044500003FB07001368146898420B683CBF03F520
:10446000A83303F5C0731B1B03440B60106008687E
:10447000013DC00305EB9000801BBDE8F08104689E
:10448000866A3C40C8E700BF002800407F7F7F006D
:10449000442D0020402D002030B591B00021142281
:1044A000044602A8019109F01FFA03F0EDF82A4B27
:1044B0002A4A1A6007A90122204602F02BFF002891
:1044C00048D00D9B03B907238DF804300B9B0133B3
:1044D0008DF805300A9B8DF806300C9B443B8DF817
:1044E0000730099B8DF80830089B8DF809300024AF
:1044F000079B8DF80A308DF80B4005940694FFF762
:104500007FFF9DF809109DF80A2013483C2313FBF8
:1045100001229DF808304FF4616101FB0323104A2A
:1045200013600E4B224601A99D6A01F0B3F810B149
:104530000C4803F011FC002202A9074801F00AF917
:1045400010B1094803F008FC044A936A9D42FCD16B
:1045500003F0B0F811B030BD4C2D00200028004011
:10456000442D002008AF01081FAF01080FB407B5A4
:10457000064B07491B6805AAD868019206F074F833
:1045800003B05DF804EB04B0704700BFEC070020F7
:1045900036AF01084368094A9B0182B0D3581A68B4
:1045A000120706D5002201921A6801925A680192F8
:1045B000019A1868C0F3401002B07047983000208C
:1045C0004368034A9B01D3581868C0F3C010704772
:1045D0009830002042681449920110B40468545085
:1045E000531882685A60C2689A600269DA60426948
:1045F0001A61026A9A610022DA84DA619A84DA85A1
:104600009A85B0F91A20013206D108225A6118465B
:104610005DF8044B01F0B1BEB0F9182001320CBFB7
:1046200004220C22F2E700BF9830002010B5816010
:104630000C46FFF7CFFF28B121460348BDE81040E4
:10464000FFF794BF10BD00BF36AF0108124B984270
:1046500017D0A3F54C43984215D003F580639842D8
:1046600013D003F58063984211D003F5806398421C
:104670000FD003F5444398420CBF05204FF0FF30A4
:1046800070470020704701207047022070470320C8
:1046900070470420704700BF00100140F0B50E467F
:1046A00087B004465B493046154602F037FC5A494C
:1046B0000746284602F032FC0146384602F008FC64
:1046C0002060013004D13D225449554802F0B4FD28
:1046D000022E0CD0032D0AD04E49022002F01EFCFF
:1046E000874202D14F4803F037FB002700E0012743
:1046F0004D4B206898424FF000031AD100934B4B6A
:104700005A6C42F010025A645B6C03F01003009381
:10471000009B474B984229D100230593434B5A6C89
:1047200042F020025A645B6C03F020030593059B62
:104730001CE0404A90420BD101933C4B1A6C42F46E
:1047400000321A641B6C03F400330193019BE0E711
:10475000394A904240D10293344B1A6C42F4802281
:104760001A641B6C03F480230293029BFFF76EFF15
:104770000028606004DAA4222849304802F05CFD79
:104780002449304602F080FB2349284602F07CFB96
:10479000721C03D001213046FFF72CFD6B1C03D0A7
:1047A00001212846FFF726FD4FF41653A36000238E
:1047B000E360236163612362268365832046FFF7FC
:1047C00009FF3FB11E4B1F4801221A6021464C22AF
:1047D00009F0B6FE07B0F0BD1B4A90420BD103931F
:1047E000124B1A6C42F400221A641B6C03F400236F
:1047F0000393039BBAE7154A90428AD104930B4B6B
:104800001A6C42F480121A641B6C03F48013049334
:10481000049BABE704B801088CB7010860AF01083E
:10482000BCAF0108D8AF01080010014000380240B9
:104830000014014000440040004800400DB0010851
:104840006C2D00204C300020004C004000500040F7
:10485000002808DB4209012300F01F0003FA00F0E2
:10486000014B43F82200704700E100E000280DDB17
:104870004309012200F01F0002FA00F02033044A2D
:1048800042F82300BFF34F8FBFF36F8F704700BF15
:1048900000E100E0F7B5FFF7D9FE071E26DB144E56
:1048A00056F8270010B3134CBD0163591A6812065D
:1048B00006D5DB68190603D50F4B01211B68984705
:1048C00063591A68920608D5DB68980605D50A4B25
:1048D00056F827001B680021984763591A6811078A
:1048E00004D55A69D20744BF5B68019303B0F0BD99
:1048F000742D002098300020702D00200148FFF713
:10490000C9BF00BF001401400148FFF7C3BF00BF8B
:10491000005000400148FFF7BDBF00BF004C004001
:104920000148FFF7B7BF00BF004800400148FFF74C
:10493000B1BF00BF004400400148FFF7ABBF00BF5C
:1049400000100140034B19604168034B43F82120DC
:10495000704700BF702D0020742D002030B490E807
:1049600018002C48834233D00AD8A0F50060834257
:1049700028D000F58060834227D0002318460FE03E
:10498000254883420AD000F58060834223D0A0F5F9
:1049900044408342F1D1214B352001E0204B2520BA
:1049A000204DA401FAB1C9B92959CA6842F02002C0
:1049B000CA601D4A00F11001926830BC42F82130F3
:1049C000FFF746BF194B2620EAE7194B2720E7E7F8
:1049D000184B3420E4E7184B4720E1E72959CA680F
:1049E00042F08002E4E72B59DA6849B922F020024C
:1049F000DA60DB6813F0800F09D130BCFFF736BFF7
:104A000022F08002DA60DB6813F0200FF4E730BC9C
:104A1000704700BF004C00400010014009490008E9
:104A2000394900089830002000ED00E02D490008C9
:104A30002149000815490008FD48000838B54468B8
:104A400005462846FFF7A6FD0028FAD0A401034B2F
:104A50001B595868C0F3080038BD00BF98300020CB
:104A600070B5456806460C463046FFF7A9FD00289C
:104A7000FAD0AD01024B5B59C4F308045C6070BD11
:104A80009830002008B50E4AC36D934214D008D860
:104A9000A2F5806293420FD00A4803F05DF900202E
:104AA00008BD094A934203D002F580629342F3D1D4
:104AB000BDE8084000F04AB9BDE8084000F036B94A
:104AC000003C00401FB0010800300140DFF830D04A
:104AD000002103E00B4B5B58435004310A480B4B59
:104AE00042189A42F6D30A4A02E0002342F8043BF5
:104AF000084B9A42F9D301F01FFEFBF7ADFB70475C
:104B000000000220C42D0208C8010020680D00200A
:104B1000680D002060320020FEE7704708B50B4B9F
:104B20001A6842F400721A601A6842F480621A60CD
:104B30001A6842F480721A60032000F009F80F200E
:104B4000FEF7B8FEFFF7E9FF002008BD003C024079
:104B5000074AD36823F4E0631B041B0C43F0BF63D4
:104B6000000243F4003300F4E0600343D360704775
:104B700000ED00E0014B01221A60704720000E4258
:104B800037B500230193184B184C1A6C42F0805231
:104B90001A641B6C03F080530193019B144B012298
:104BA0001A60FEF78DFE05466368DA030BD5114BDC
:104BB0000E4C01221A60FEF783FE054663689B03D4
:104BC0000AD5002006E0FEF77BFE401BB0F57A7F99
:104BD000EAD9032003B030BDFEF772FE401BB0F5EA
:104BE0007A7FEBD9F5E700BF003802400070004043
:104BF00040000E4244000E422DE9F0410D460446AD
:104C000010B90120BDE8F081444B1A6802F00F0290
:104C10008A4228D321688F072DD4C80740D43F4B40
:104C20001A6802F00F02954266D3226851076CD4CD
:104C3000130707D53A4A2169936823F4604343EA8E
:104C4000C103936000F0B8FA354B364A9B68C3F352
:104C50000313D35CD840344B18600F20FEF72AFEB4
:104C60000020BDE8F081CAB21A701B6803F00F0380
:104C70009942C6D1CEE72A4B11F0040F1EBF9A68A5
:104C800042F4E0529A600E0742BF9A6842F46042D2
:104C90009A609A68A06822F0F00202439A60BCE72A
:104CA00062681F4B012A1DD11B6813F4003FA8D076
:104CB0001B4EB36823F003031343B360FEF700FEFB
:104CC00041F288380746B368626803F00C03B3EB1F
:104CD000820FA4D0FEF7F4FDC01B4045F3D903209A
:104CE000BDE8F081911E01291B6802D813F0007FF6
:104CF000DDE713F0020FDAE7EAB21A701B6803F07F
:104D00000F039D427FF47DAF8FE70549E0688B6814
:104D100023F4E05303438B608AE700BF003C02406A
:104D200000380240F4B901085C060020044B054A33
:104D30009B68C3F38223D35C034A1068D840704752
:104D40000038024004BA01085C060020044B054A02
:104D50009B68C3F34233D35C034A1068D840704762
:104D60000038024004BA01085C0600200F230360EB
:104D70000B4B9A6802F0030242609A6802F0F0025C
:104D800082609A6802F4E052C2609B68DB0803F418
:104D9000E0530361034B1B6803F00F030B60704784
:104DA00000380240003C024003682DE9F74313F04D
:104DB000010604460BD0AA49866BD1F88C2022F05C
:104DC000C0623243B6FA86F6C1F88C2076099D0798
:104DD0000BD5A348E16BD0F88C2022F0C0520A43D7
:104DE0000029C0F88C2008BF012613F0040512D05A
:104DF0009B49256BD1F88C20B5F5801F22F4401219
:104E000042EA050218BFB5FA85F5C1F88C2012BF39
:104E10006D090025012618070FD59148616BD0F860
:104E20008C2022F440020A43B1F5800FC0F88C2098
:104E300000F00981002908BF0125990633D5002318
:104E40000193874B874F1A6C42F080521A641B6C97
:104E500003F080530193019B3B6843F480733B60F4
:104E6000FEF72EFD80463B68DA0540F1EE807C4F70
:104E70003B6F13F4407340F0FB80236C03F44072EB
:104E8000B2F5407F764A40F01681916823F0704079
:104E900021F4F81120F4407001439160116FC3F3C5
:104EA0000B030B4313672368D90642BF6E4B94F87C
:104EB00058201A6023681A0608D56949E06CD1F8B1
:104EC000942022F440020243C1F894205F0608D5E2
:104ED0006349A06CD1F8942022F080620243C1F8AB
:104EE0009420D8050CD55E48616DD0F8942022F04E
:104EF00000620A43B1F1006FC0F8942008BF012599
:104F0000990508D55649606CD1F8942022F080525A
:104F10000243C1F894205A0500F1D180012E40F0DF
:104F2000DC80524E4E4F00233360FEF7C9FC8046B2
:104F30003B681B0100F125812268D00701D5A36BD6
:104F40001BB1910715D5E36B9BB94549D1F8843066
:104F5000D1F8840003F4403300F0706003436068CC
:104F60000343A06843EA8013606943EA0073C1F811
:104F70008430530703D5236BB3F5801F05D0170783
:104F800020D5636BB3F5800F1CD13549D1F884303F
:104F9000D1F8840003F4403300F0E040034360683C
:104FA0000343A06843EA8013206943EA0063C1F821
:104FB0008430D1F88C00A36A20F01F00013B03432A
:104FC000C1F88C3050051BD5236DB3F1005F17D1AC
:104FD00023486768D0F88410D0F8843003F0E043A9
:104FE0003B43A768C1F30141013143EA871343EA18
:104FF0004163E1684908013943EA0143C0F884305C
:10500000110511D52369A2681B0643EA8213626861
:105010001343626943EA0273E2685208013A43EAC1
:1050200002430F4AC2F8843001233360FEF748FC84
:105030000B4E074633681A0153D4FEF741FCC01BE0
:105040000228F7D908E00126F7E6FEF739FCA0EBC5
:10505000080002287FF607AF032003B0BDE8F08305
:105060000038024000700040E011474268004742AB
:10507000226C02F4407293423FF4FFAE3B6F4B4A06
:105080000121116023F44073002111603B673B6FE5
:10509000DB077FF5F2AEFEF713FC41F2883980465C
:1050A0003B6F98073FF5E9AEFEF70AFCA0EB08005E
:1050B0004845F5D9D0E7916821F4F811EDE63C4870
:1050C000216DD0F8942022F000520A43B1F1005F24
:1050D000C0F894207FF422AF23E7B3F5006F3FF4CC
:1050E00020AF012D4BD1334D314E00232B60FEF705
:1050F000E7FB074633689B004BD421684E0701D578
:10510000236B1BB108071AD5636BC3B9284AA06982
:10511000D2F8883003F440330343E06943EA801354
:10512000606A43EA0063C2F88830D2F88C30E06AE3
:1051300023F4F853013843EA0023C2F88C30CA053F
:1051400014D5636DB3F1006F10D11949A269D1F87C
:10515000883003F070631343E26943EA8213226AE2
:105160005208013A43EA0243C1F8883001232B6018
:10517000FEF7A6FB0E4C054623689B000FD50020CA
:105180006BE7FEF79DFBA0EB080002287FF6D0AE90
:1051900062E7FEF795FBC01B0228ABD95CE7FEF780
:1051A0008FFB401B0228E7D956E700BF400E47425D
:1051B0000038024070004742204908B58B6803F070
:1051C0000C03082B07D00C2B20D01D4A1D48042BA4
:1051D00018BF104608BD4A684B68496813F480033D
:1051E00014BF18481648C1F3881118BF002302F0F5
:1051F0003F02A1FB000113F079F9104B5B68C3F388
:10520000014301335B00B0FBF3F008BD4A684B6813
:10521000496813F4800314BF0A480948C1F3881190
:1052200018BF002302F03F02A1FB000113F05EF95A
:10523000024B5B68C3F30273E5E700BF003802402E
:105240000024F40000127A0003682DE9F341DF071F
:10525000044610D423689E0767D423681A0700F118
:10526000B28023685B0700F1D080A269002A40F079
:10527000398100201EE0974B9A6802F00C02042A44
:1052800010D09A6802F00C02082A02D15B685D0215
:1052900008D4904B9A6802F00C020C2A0DD15A687F
:1052A00050020AD58B4B1B689903D3D56368002B3A
:1052B000D0D1012002B0BDE8F0816268B2F5803F34
:1052C00011D11A6842F480321A60FEF7F9FA814D62
:1052D00006462B689A03BDD4FEF7F2FA801B6428B9
:1052E000F7D90320E6E77B4DB2F5A02F2B6807D155
:1052F00043F480232B602B6843F480332B60E4E776
:1053000023F480332B602B6823F480232B60002A46
:10531000DBD1FEF7D5FA06462B689B039AD5FEF73C
:10532000CFFA801B6428F7D9DBE76A4B9A6812F042
:105330000C0F10D09A6802F00C02082A02D15B68A8
:105340005F0208D5634A936803F00C030C2B11D15C
:1053500053685E020ED45F4B1A68950702D5E26867
:10536000012AA6D11A68216922F0F80242EAC10294
:105370001A6072E7E268584BB2B101221A60FEF778
:105380009FFA544D06462B68980707D52B6822696B
:1053900023F0F80343EAC2032B605EE7FEF790FABE
:1053A000801B0228EFD99CE71A60FEF789FA494D65
:1053B00006462B6899077FF550AFFEF781FA801BF0
:1053C0000228F6D98DE76269444B7AB101221A604E
:1053D000FEF776FA3F4D06466B6F9F073FF541AFEC
:1053E000FEF76EFA801B0228F6D97AE71A60FEF7FC
:1053F00067FA384D06466B6F98077FF532AFFEF7B8
:105400005FFA801B0228F6D96BE7324B1A6C12F058
:10541000805228D101921A6C42F080521A641B6C9F
:1054200003F080530193019B01262D4D2B68D90574
:105430001BD5A368274D012B27D12B6F43F0010308
:105440002B67FEF73DFA234D074641F288382B6F54
:105450009B0739D5002E3FF408AF1E4A136C23F08A
:105460008053136401E70026DFE72B6843F4807361
:105470002B60FEF725FA07462B68DA05D9D4FEF72C
:105480001FFAC01B0228F7D92BE7052B04D12B6F7D
:1054900043F004032B67D0E72A6F22F001022A674A
:1054A0002A6F22F004022A67002BCAD1FEF708FAFD
:1054B00041F2883807462B6F9807CBD5FEF700FAE4
:1054C000C01B4045F7D90CE7FEF7FAF9C01B404571
:1054D000BDD906E70038024000004742800E47422F
:1054E00000700040234DAB6803F00C03082B3FF421
:1054F000E0AE214E0023022A33602DD1FEF7E0F901
:1055000007462B68990121D4226AE3691343626A32
:1055100043EA8213E26A43EA0263226B43EA0273BC
:10552000A26A144C5208013A43EA02436B60012319
:105530003360FEF7C5F9054623689A013FF599AE39
:10554000FEF7BEF9401B0228F6D9CAE6FEF7B8F905
:10555000C01B0228D5D9C4E6FEF7B2F904462B6871
:105560009B017FF586AEFEF7ABF9001B0228F6D94A
:10557000B7E600BF0038024060004742704702684B
:1055800038B5D36823F0A003D3600446FEF798F93A
:1055900005462368DB689B0601D5002038BDFEF771
:1055A0008FF9401BB0F57A7FF3D9032038BD38B5A9
:1055B0000368DA685206044601D5002038BD4FF072
:1055C000FF32DA60FEF77CF905462368DB685B068C
:1055D000F3D4FEF775F9401BB0F57A7FF5D90320B7
:1055E00038BD38B50446B8B1437F03F0FF0213B9A4
:1055F0000277FFF7C3FF022363772368CA225A6248
:1056000053225A622046FFF7D2FF2368054628B18D
:10561000FF225A620423637701252EE09A682069ED
:1056200022F4E00222F040029A6062689968024324
:10563000606902430A439A60E2681A611A69A168C4
:1056400042EA01421A61DA6822F08002DA609B685D
:105650009B0605D42046FFF792FF08B12368D7E7E1
:105660002368A1691A6C22F480221A641A6C0A4316
:105670001A64FF225A6201236377284638BD00234B
:10568000092803D840EA0310C0B270470A38013332
:10569000C0B2F5E7F8B5037F012B05464FF00206CF
:1056A00030D00123037746774B78C8788E780C7812
:1056B000002A48D1DA0603D523F010030A334B70D1
:1056C000FFF7DDFF07464878FFF7D9FF024630466F
:1056D000FFF7D5FF40EA443040EA074040EA0224A1
:1056E0002B68CA225A6253225A622846FFF75FFF8C
:1056F0002B68064640B1FF225A6204236B770023D1
:105700002B7701263046F8BD24F07F4424F0C004F6
:105710005C60DA6822F08002DA609B689B060AD43B
:105720002846FFF72CFF30B12B68FF225A62042372
:105730006B772E77E5E72B68FF225A6201236B77A0
:1057400000232B77DEE71B0243EA0040304340EAA8
:105750004434C5E7F8B5037F012B06460F464FF0EA
:1057600002052FD0012303770368457708784D7829
:105770008C789B6842BB13F0400308BFCB70FFF7E7
:105780007EFF01462846FFF77AFF02462046FFF7D4
:1057900076FFFB7840EA034040EA014040EA0224F9
:1057A0003368CA225A6253225A623046FFF7FFFE1C
:1057B00033680546A8B1FF225A6204237377002399
:1057C000337701252846F8BD13F040034FEA05253D
:1057D00008BFCB7045EA00402043CC7840EA04443F
:1057E000DEE704F07F3424F0FE441C609A683869D8
:1057F00022F480229A60FA68996802430A439A6008
:10580000DA6822F08002DA609B689B060AD4304690
:10581000FFF7B5FE30B13368FF225A620423737775
:105820003577CEE73368FF225A620123737700236E
:105830003377C7E7030903EB830300F00F0000EBA6
:105840004300C0B27047037F012B4FF002030FD01B
:1058500043770368CA225A6253225A629A6842F016
:1058600020029A60FF225A620123437700230377C4
:105870001846704703685A6822F0E0025A6042688E
:10588000B2F5827F0AD18268B2F5004F02D0B2F53C
:10589000806F03D11A6822F040021A60826AB2F562
:1058A000005F09D11A6822F400521204120C1A6027
:1058B0001A6842F400521A60012380F85130002324
:1058C00080F850300320704770B505460C461646E8
:1058D00029688B689B0701D5002070BD621CF8D039
:1058E00024B92846BDE87040FFF7C4BFFDF7E8FFC4
:1058F000801B8442ECD8F4E72DE9F041DDF81880F4
:1059000005460F4616461C462B6898683840B0423C
:1059100002D10020BDE8F081621CF6D024B92846EF
:10592000BDE8F041FFF7A6BFFDF7CAFFA0EB0800F6
:105930008442E9D8F3E713B50B4600928021002298
:105940000446FFF7D9FF20B1636D43F02003636580
:10595000032002B010BD704738B5044600283BD084
:1059600090F8513003F0FF021BB980F85020FFF788
:10597000F2FF2168A568A06AA269022384F8513069
:105980000B6823F040030B6063682B43E5682B43EF
:1059900025692B4365692B43E5692B43256A2B4316
:1059A000034302F400752B430B60120C636AB0F5DD
:1059B000005F02F0040242EA030208BFE36A4A60A1
:1059C00008BF0B61CB6923F40063CB610020012386
:1059D000606584F8513038BD012038BD2DE9F341B0
:1059E0001E4690F85030012B04460D46904600F0BC
:1059F000BA80012380F85030FDF762FF074694F823
:105A00005100C0B2012840F0AC80002D5FD0B8F149
:105A1000000F5CD0032384F8513000236365A36337
:105A2000A4F83680A387E38763642364A3682268AD
:105A30002563B3F5004F08BF1368A4F8348004BF92
:105A400043F480431360A36AB3F5005F09D1136880
:105A500023F400531B041B0C1360136843F400531E
:105A6000136013685B065EBF136843F04003136066
:105A7000E368B3F5006F63683AD11BB1E38E9BB264
:105A8000012B06D135F8023BD360E38E013B9BB27C
:105A9000E386E38E9BB283B93A4631462046FFF750
:105AA00013FF98B93A4631462046FFF744FF0028D5
:105AB00040D020236365012009E023689A6890079D
:105AC00003D535F8022BDA60DFE74EB90320012356
:105AD00084F85130002384F8503002B0BDE8F081E2
