:020000040800F2
:1000000000000220DD570008295800082958000880
:100010002958000829580008295800080000000045
:100020000000000000000000000000002958000847
:100030002958000800000000295800082958000825
:10004000295800082958000829580008295800088C
:10005000295800082958000829580008295800087C
:10006000295800082958000829580008295800086C
:10007000295800082958000829580008295800085C
:100080002958000829580008295800083D40000850
:10009000414000082958000831400008295800084C
:1000A000295800082958000829580008295800082C
:1000B000295800082958000829580008295800081C
:1000C000295800082958000829580008295800080C
:1000D00029580008295800082958000829580008FC
:1000E00029580008295800082958000829580008EC
:1000F00029580008295800082958000829580008DC
:1001000029580008295800082958000829580008CB
:1001100029580008295800082958000829580008BB
:1001200029580008295800082958000829580008AB
:10013000295800080000000000000000514000089D
:100140005540000829580008454000082958000873
:10015000295800082958000829580008295800087B
:10016000295800082958000829580008295800086B
:1001700029580008295800082958000800000000E4
:1001800000000000295800080000000000000000E6
:10019000295800080000000000000000295800084D
:1001A00000000000000000000000000029580008C6
:1001B000295800082958000829580008295800081B
:1001C0002958000810B5054C237833B9044B13B1F6
:1001D0000448AFF300800123237010BD9810002065
:1001E0000000000094BC010808B5034B1BB1034993
:1001F0000348AFF3008008BD000000009C10002001
:1002000094BC0108A3F5803A704700BF174B002B40
:1002100008BF134B9D46FFF7F5FF00218B460F46A5
:100220001348144A121A09F0E9FE0E4B002B00D0B5
:1002300098470D4B002B00D0984700200021040068
:100240000D000D48002802D00C4804F010FB09F006
:1002500093FC2000290004F099FD04F005FB00BF89
:1002600000000800000000007D4D00080000022092
:1002700098100020783200206F480008000000002D
:1002800010B5094B036003F1200280330446C0F827
:10029000BC20C0F8C030BC3008F052FD204608F049
:1002A0002DF8204610BD00BFD0AF0108A0F1BC0062
:1002B000E6E7A0F1C000E3E708B5164C1649174879
:1002C000174D08F061FD1749144808F05DFD2246FE
:1002D0001549124808F075FD1449104808F054FDFE
:1002E00011490E482A4608F06CFD0C4808F03AFD0A
:1002F0000F492B782278094808F046FD207800F055
:10030000E1F82978207800F0BBFC00F02DF900F02E
:10031000BDFCFAE7CC0100200C8601087411002016
:10032000B4100020528601088092010869860108F5
:100330008686010810B50446FFF7A2FF204604F0A8
:10034000FEFB204610BDA0F1BC00F3E7A0F1C00009
:10035000F0E7000013B5094C4FF416530093032245
:1003600000230221204607F04DFB054A054920469F
:1003700002B0BDE8104004F075BA00BFB81000200C
:10038000C8010020810200080FB407B5064B04AA7B
:100390001B6852F8041BD86801920FF02FFD03B0C0
:1003A0005DF804EB04B07047C006002008B5074BA9
:1003B0001A78074B1B789A4205D106481146FFF779
:1003C000E3FF012008BD0020FCE700BFCD010020B5
:1003D0002E1300209F860108024B1870062000F0A3
:1003E0007FBA00BF9211002038B50546FFF7DEFF47
:1003F0000128044605D105482946FFF7C5FF2046D8
:1004000038BD034B00241D70F9E700BFDE860108EC
:100410002E13002070B50D4E0D4D3378834228BF4A
:1004200003461A460B4829461C4609F0D1FC32788F
:10043000094B121BD2B21C7032702AB129192846FE
:1004400009F0C6FC012070BD1046FCE794110020A5
:100450002F170020951100202A13002038B50546DB
:1004600010460C46FFF7C0FF012808D1072000F016
:1004700053FA20B1BDE83840072000F04DBA192CDE
:100480002246294609D80B4809F0A2FC0A4B1C70E9
:10049000BDE83840042000F023BA084809F098FC71
:1004A000074B1A201C70FFF7B5FF072000F018FA61
:1004B000EEE700BF951100202A1300202F1700201F
:1004C0009411002010B50A4B0A4C00221A702070BB
:1004D00000F01CFAFFF76AFF207800F089FA06485E
:1004E00002F08AF8BDE81040044802F08BB800BF63
:1004F0002E130020CD0100205D040008D903000860
:100500002DE9FF41164D1F4695F80080154B144606
:1005100098440E4600F0E2F922460146404609F0B2
:1005200057FC2A78023A1444E4B2012F2C7003D00D
:100530009DF82830012B10D100F09AFA039000F0BA
:1005400091FA039B009022460648314602F028F8B3
:100550000020287004B0BDE8F0810120FAE700BF58
:10056000931100202F1300202DE9FF47B44BB54C09
:100570001A782578AA4218BF1D70012D00F0A580B9
:10058000022D00F0C580002D40F05681062000F0BD
:10059000C3F978B1AC4B187800F046FAB0FA80F0A5
:1005A000400902F016F82570062004B0BDE8F047B7
:1005B00000F0A0B9032000F0AFF998B300F042FAC0
:1005C000064600F045FA054600F046FA029000F0B3
:1005D00055FA0746284600F05EF9C0B20090029A2C
:1005E0003B4631462846FFF78BFF1FB1002323709F
:1005F0000320DAE7284600F06FF9944A137898420E
:1006000008BF431C284608BF137000F065F9014677
:100610008F4800F04AF932468D48032100F0FAF97C
:100620000123E4E7042000F077F938B3874D894BC4
:100630002A781B7803920720029300F06DF9B0FA34
:1006400080F04009DDE90232834900908348844EFE
:1006500000F032F9834B3278187001467F4800F081
:10066000D9F93378FF2B1EBF2B7801332B707E4BCB
:1006700000221A7001232370042096E7072000F05F
:100680004BF950B1042000F02BF91A20FFF7C2FEFD
:10069000002840F0D180072087E700F03DF908B13D
:1006A000002082E7012000F037F908B101207CE743
:1006B00000F032F908B1022077E7052000F02CF9AC
:1006C000002800F0B98005206FE7284600F024F9E3
:1006D000064650B100F0F2F9012803D0052000F0E1
:1006E0001BF900B102202070E0E700F015F90028A6
:1006F00000F0A2805A4B1B78FF2B04D128462670AD
:1007000001F064FFCCE70223237000F017FAC7E77B
:10071000284600F001F90546D0B100F099F90546E8
:100720004E4800F0D9F80646284600F0D5F8864233
:1007300007D100F0B7F900230120237001F046FF34
:10074000B9E7464800F0C8F8284600F0C5F8B2E717
:10075000052000F0E1F8E0B1434E3378092B0BD9C6
:100760003E4800F0B9F801464048FFF70DFE284624
:10077000257001F02BFFA6E7394B38481A78394B22
:10078000197800F047F9337801333370012323706F
:1007900099E7032000F0C0F8002842D000F052F999
:1007A000074600F055F9054600F056F9814600F07D
:1007B00065F90646284600F06EF85FFA80F8EEB15B
:1007C000CDF8008033464A4639462846FFF798FE62
:1007D000002E7FF40BAF284600F07EF81B4A1378FA
:1007E000984208BF431C284608BF137000F074F8F5
:1007F0000146174800F059F83A460DE7DFF84CA0DB
:10080000284600F069F89AF800308342D8D028468C
:1008100000F062F89AF8002001461548FFF7B4FD91
:10082000D9E700F079F800287FF43AAF012000F012
:1008300073F800287FF43AAF04B0BDE8F08700BF3A
:100840009111002090110020921100202B13002004
:100850005D1200202A130020951100206212002052
:100860002E1300202C1300202D13002003870108D5
:1008700041870108024B1A78024B1A70704700BF7B
:1008800090110020911100200078013801288CBFC0
:100890000020012070470078431E5842584170479D
:1008A0000078B0FA80F040097047002303700123FC
:1008B000417083700320704710B51C469DF80830C6
:1008C0004270012B18BF022303702246023009F048
:1008D0007FFAA01CC0B210BD40787047023070474C
:1008E000034A012303FA00F01368184310607047AD
:1008F000301B0020044901220B6802FA00F023EAB1
:1009000000030B60704700BF301B0020014B00222A
:100910001A607047301B0020012303FA00F0024BDD
:100920001B681840704700BF301B0020054B1B7828
:100930005A1E012A02D80020FFF7D2BF0BB90120AE
:10094000FAE77047351B0020F8B507460C461546F8
:100950001E4609F0C3FB07EE900AFAEEE07AF5EEC8
:10096000C07AF1EE10FA21DD2A462146104809F03E
:100970002FFA104B1F70104B1D7003F079FA0F4BBC
:10098000187003F06FFA0E4B18800E4B20461E7045
:10099000FFF77AFF20B10320BDE8F840FFF7A0BFC2
:1009A0002046FFF77DFF08B10220F5E7F8BD00BF44
:1009B000381B0020371B00206C1B0020361B00203A
:1009C0006A1B0020341B00200FB407B5064B0749F3
:1009D0001B6805AAD86801920FF010FA03B05DF801
:1009E00004EB04B0704700BFC00600208D870108EB
:1009F00010B50446002008F08BF809F067FB20468C
:100A0000024A0349BDE8104003F0CEB94909000885
:100A10002D09000810B5044603F0E8F9014B2278CF
:100A20001A7010BD351B002010B503F027FA0446DC
:100A300018B101460248FFF7C7FF204610BD00BFAE
:100A40008D870108014B1878704700BF371B0020C5
:100A500000487047381B0020014B1878704700BFD2
:100A60006C1B0020014BB3F9000070476A1B00208B
:100A7000014B93F900007047361B0020014B18789A
:100A8000704700BF341B0020036818470B680360E1
:100A900070477047024B002205201A70FFF720BFF5
:100AA0006D1B002008B5034806F0F9FE024B00223A
:100AB0001A7008BD701B00206D1B0020014B1878B8
:100AC000704700BF6D1B0020C36810B504460BB112
:100AD0009B689847204610BD38B50546064B45F83B
:100AE000283B044606F0DBFE2846FFF7EDFF2046D4
:100AF00006F0A0FE204638BD24AF010810B504461C
:100B0000FFF7EAFF204604F01AF8204610BD000067
:100B100010B5034B03600446FFF7DEFF204610BD0F
:100B200098AF010838B5CB6804460D460BB15B6839
:100B30009847EB68E360204638BD000030B589B0C7
:100B400009F0CCFA102204460021684609F056FA52
:100B5000204B00936946204B039304A8FFF7E2FF64
:100B6000032094FBF0F000EB4000241A0234E4B2BE
:100B700007EE904A9FED197AF8EE677A67EE877A6A
:100B800017EE900A16F036FD05460C4607F004FCF9
:100B9000134B5A6B22B993F838300BB107F094F924
:100BA0001048FFF791FF04A90E48FFF7BBFF2A4644
:100BB00023460B4806F05BFE07F004FC04A8FFF791
:100BC00083FF6846FFF780FF074B01221A7009B0C8
:100BD00030BD00BF950A0008C08701080024744991
:100BE000701B0020981B00206D1B002010B50446D0
:100BF000FFF78EFF204603F0A2FF204610BD000045
:100C000010B50C4C204606F0EDFD20460A4B40F88E
:100C1000283B1022002109F0F1F9012384F8383033
:100C2000064B23602046064A0649BDE8104003F003
:100C300019BE00BF701B002024AF010898AF010847
:100C4000C8010020110B00080FB407B5064B074977
:100C50001B6805AAD86801920FF0D0F803B05DF8C0
:100C600004EB04B0704700BFC0060020CC87010829
:100C700008B507F073FA003818BF012008BD00005E
:100C8000014B1870704700BFA02000202DE9F04FE5
:100C9000964A974C117823789942ADF2344D18BF9B
:100CA00013700C2B00F2BB80DFE813F00D002F0057
:100CB000320052012E028106970A31094C08D606ED
:100CC000B900B900B80A8B4B1B68C3B90123237064
:100CD000022001F05BFC002800F0A18001F07CFC08
:100CE000039001F07DFC039902468348FFF7ACFFB7
:100CF00002200DF2344DBDE8F04F01F03BBC012B5A
:100D0000E6D1FFF731FC0223E1E70223237086E0FE
:100D10007A4F784D3B78012B40F0AD802E68002E45
:100D200000F08180012E77D1DFF80C82744E98F8A4
:100D3000003053BB337843BB724B1B68032B24DC5E
:100D4000714ADFF8DC9103EB8303D118D35C487858
:100D5000C9F8003001F0C8FC01466C4809F08EFD6E
:100D6000D9F800206A49694B6A4808F00DF86A4BC7
:100D70006648D3F800A009F0E3FD99F80020C1B25D
:100D80006248D047012388F80030022001F0FEFBC2
:100D900008B301F021FC814601F022FC0328024641
:100DA00016D148465D4909F039FE814680B998F868
:100DB00000306BB15A4B5B491A68564807F0E4FFA4
:100DC00001235949534888F80090337007F0DCFF3D
:100DD000022001F0CFFB3378DBB15448FFF748FF26
:100DE000B8B14C4807F0BEFFC0B2312878D15049A5
:100DF000484807F0C9FF43490B6801330022032B21
:100E000032700B6068DD4B49424807F0BDFF02239A
:100E10002B603B78012B2ED12B68022B5AD00DF280
:100E2000344DBDE8F08F01F02DFCDFF8DC80DFF8F9
:100E30001CA1DFF8E09098F8003098F801000393C7
:100E400001F052FC32460090039B51464846013661
:100E500007F09AFF042E08F10508ECD1294A002377
:100E60001360354A1370264A137001232B603B78B8
:100E7000012B3FF459AF022001F088FB0028CBD0B2
:100E800001F0AAFB039001F0ABFB2C4B03990F2858
:100E90000746A8BF0F2706463A46184608F098FFAF
:100EA000264B27491B480022DA553246009607F0A8
:100EB0006BFF244B0793184B01221B68032107A8E3
:100EC0009847022001F056FB1A49124807F05CFFD0
:100ED00002232B60032319E701232B60227098E77C
:100EE00019490C4807F050FF93E700BFC11B0020D1
:100EF000B01B002040250020CC870108A020002046
:100F0000F4200020E420002098290020F820002070
:100F10002A880108842000204825002046880108EE
:100F20003C2500204A8801086C880108C81F002061
:100F3000A5880108E1880108AC200020B11B002031
:100F40003E89010841434B000689010809880108D0
:100F50008F4F904E3B7863B93378012B20D18E4967
:100F60008E4807F011FF8E498C4807F00DFF0123D2
:100F70003B703378012B29D18A48FFF779FEF0B115
:100F8000864807F0EFFEC0B2762818D1864983481C
:100F900007F0FAFE854A00233B7013600423B5E690
:100FA00083497E4807F0F0FE824B1B782BB98249BB
:100FB0007A4807F0E9FE8149D6E78149D4E7022063
:100FC00001F0E4FA00283FF42AAF91E6022001F094
:100FD000DDFAB8B101F000FB804601F001FB092801
:100FE00081465FD8434677496C484A4607F0CCFEB5
:100FF000704B1B781BB97149684807F0C5FE022089
:1010000001F0B8FA6B4B1B78002B7FF408AF6548F2
:10101000FFF72EFEA8B1042001F0B8FA88B95F48A6
:1010200007F0A0FEC2B20A2A01D00D2A51D1664BA8
:101030001B78002B48D0654A0021D154042001F0D0
:101040008FFA042001F0A2FA00283FF4E8AE5F4BCB
:1010500032785F495F4C604F07A809F0EBF95F49B0
:101060004E4807AA07F090FE0025A37873B12378B5
:1010700032789A420AD0012B08D007A8D7F800800E
:1010800009F05EFC2278C1B207A8C0470135042DE3
:1010900004F10504E9D14C4B002228461A7001F0F6
:1010A00069FABCE64E490A22404609F0B7FC0546FB
:1010B000002897D14B49394807F066FE3B4B3D70FD
:1010C0001D600423237013E63C49344807F05CFE9E
:1010D000B7E7082A01D07F2A07D13B4A1378002BB3
:1010E000AFD0013B40491370EFE7A2F120035E2B24
:1010F000A7D835490B78581C087034492748CA547A
:101100003A4907F041FE9CE7224B1B78012B40F047
:101110000681264B1D68002D7AD0244B1B68012BBD
:1011200040F0F781DFF8E080314E98F80030002B76
:1011300040F07D813578002D40F079812D4BDFF82E
:10114000C4B01B68DBF80020934280F27081DFF8A6
:10115000BCA0294F29498AF80050504657F82390DF
:1011600009F068F9264BDBF80020AA4240F34C81D5
:1011700057F8042B4A4508D0194607A809F05AF930
:1011800007A9504609F0EAF91D4B0135EBE700BF0E
:10119000B0200020A02000206389010884200020C6
:1011A000B8890108C81F0020C78A0108402500200F
:1011B000068A0108A1200020488A0108488B0108FE
:1011C000818A0108F48A0108A2200020C21B0020A5
:1011D000348B01089829002048250020438B010802
:1011E000FC8A0108078B01082D8B0108318B01084F
:1011F000F5200020E820002018250020DC8B0108C5
:10120000AA8B0108A4200020AD2000201821002076
:10121000644B654E1D60654BDFF8DCB11D60644BAF
:10122000DFF8D8E1634A644FDFF898811D703560BC
:101230008BF800502B4629462846AC461EF8019BE9
:10124000B9F1000F04D1107848F8230001330120D0
:101250000131042982F803C047F804CB02F10502EA
:10126000ECD100B1336055495548564FDFF850A1D5
:1012700007F08AFD5449524807F086FD5349B946A4
:101280004FF000083368434508DD59F8042B5046F9
:1012900007F07AFD08F101084C49F3E74C4948484A
:1012A00007F072FD4B4A012313603368002B31DDD8
:1012B000444BDFF82C91D3F800804749DFF840A178
:1012C000002389F80030484609F0B4F83368AB428F
:1012D0000DDD57F8042B424507D0514607A809F009
:1012E000A9F807A9484609F039F90135EEE73B4B63
:1012F0003B481D6809F024FB5FFA88F2C1B2384808
:10130000A847374B37492E48424607F03DFD012399
:101310008BF80030344B1B78012B3FF4FEAE2D4B85
:101320001B68012B01F36C80022001F02FF90028CB
:1013300001F0618001F050F9054601F051F92B49A7
:1013400006462B4602461E4807F01EFD264B2E443D
:10135000187800272B4607A99E4240F01D82184EA0
:10136000DFF8A090A6F1BC084946304607F00CFD16
:101370004046FFF77DFC0028FAD0304607F0F2FC2B
:1013800005465FFA80FA303D194952463046EDB2C3
:1013900007F0FAFC092D40F20D821649304607F09D
:1013A000F3FCE1E7E0200020A4200020E82000205A
:1013B000F520002098290020B4200020508B01083F
:1013C0008420002018250020748B01089F8B0108C1
:1013D000AE8B010840250020DC8B01084825002049
:1013E00018210020118C0108A02000205E8D01082A
:1013F000318B0108B98D0108AD20002071990108D9
:10140000AA8B0108838D0108AC4BAD481D6809F01B
:1014100097FA5FFA89F2C1B2A948A847A84BA9492F
:10142000A9484A4607F0B0FC012388F800300220A2
:1014300001F0ACF838B301F0CFF8054601F0D6F86A
:101440000390284607F020FD0928034698BF9F48CF
:10145000039A9EBF50F82310013140F823109C4896
:101460000168013101609B49974807F08DFC00231A
:1014700088F80030984994480123337007F084FCC1
:10148000022001F077F83378002B3DD09348FFF726
:10149000EFFB002838D08C4807F064FCC0B231283C
:1014A00040F075818E4F8F493B6887480133002596
:1014B0003B60357007F068FC8B4B3A681B689A42BA
:1014C00022DB8A498048DFF83892DFF800B2DFF883
:1014D000F8A107F059FC864999F802303BB199F818
:1014E000002050465BF8223007F04EFC8049013561
:1014F000042D09F10509EFD17E4A02231360002370
:101500003B6088F8003033707B4B1B78012B7FF4F5
:1015100006AF784B1B68022B40F03381DFF818B21E
:101520009BF80050002D75D1DFF8DC81734988F8F5
:1015300000504046724EDFF8049209F00FF837462B
:10154000B246BB785BB13A78604B494653F82230DB
:1015500007A808F06FFF07A9404608F0FFFF013514
:10156000042D07F10507ECD10025654BDFF85C8100
:101570002A464FF0FF37284693F802E0BEF1000FED
:1015800009D0197858F821C0844500F3278102D189
:10159000B94218BF75460132042A03F10503EBD1A5
:1015A000002D40F024817B1C00F0218155495648D4
:1015B00008F0D4FF55493A4607A808F03BFF5248C7
:1015C00007A908F0CBFF05EB850303EB0A0213F82C
:1015D0000A30BB4240F00681002393700023194675
:1015E0001A46B07820B1707801280CBF0132013161
:1015F0000133042B06F10506F3D1002A40F0FC80EC
:101600004349414808F0AAFF424B01221A700123C6
:101610008BF80030404D414E2B78E3B93378D3B985
:101620003F4B314A1B681268934214DA3D4A3648F0
:1016300052F82370214BD3F8008009F081F9FAB2F7
:10164000C1B23148C047304B37491F483A4607F0CE
:101650009BFB01232B70022000F098FF10B300F0D9
:10166000BBFF074600F0BCFF0328024617D13846EF
:101670002E4909F0D3F9074688B92B787BB1284B5E
:101680002B491A68274B104853F8222007F07CFB9F
:10169000012328490C482F70337007F075FB022096
:1016A00000F068FF3378002B66D00C48FFF7E0FAB3
:1016B000002861D0044807F055FB41E04825002090
:1016C00018210020118C010884200020B420002063
:1016D000E0200020458C0108858C0108C81F0020EF
:1016E000E8200020CD8C0108A4200020FB8C0108FC
:1016F000218D010840250020A0200020218E010816
:10170000982900203E8E0108182300203F900108F0
:101710007C8E010838250020AE200020F620002015
:10172000EC20002018250020EA8E010846880108D8
:10173000258F01084A8F0108DC200020318E010826
:10174000C0B2312861D19D4D9D492B689D48013320
:1017500000272B60377007F017FB9B4B2A681B682C
:101760009A4209DB9949974807F00EFB984A8BF893
:10177000007003232F601360964B1B78012B40F001
:101780003F86934B1B68032B7FF449AB67E092497C
:101790008C4807F0F9FAB7E613F8012B303AD5B2C6
:1017A000092D3FF6D9AD90423FF4D6AD41F8272040
:1017B0000137D1E5874B1B78AAF1300293420BD059
:1017C00007A900239F4200F0008651F8040B9042C5
:1017D00000F0FE850133F5E78049DFE500250F467F
:1017E0006046D8E60135042D7FF4EDAEF6E67C497F
:1017F0007C4808F0B3FEF1E68A4201DB7A4900E753
:101800007A49784808F0AAFE01E779496D4807F05F
:10181000BBFAB1E777496B4807F0B6FA7649284634
:1018200009F0AEFA002863D07449664807F0ACFAB4
:10183000734B01221A70734B0793734B01221B6881
:10184000032107A89847634B70491A785D4807F051
:101850009BFA022000F08EFE5D4A032313606C4E5B
:101860000023324635465178012949D19178002923
:1018700046D003EB83032B4493F904B0BBF1FF3F45
:1018800044D1544B634F1A7838780023194696F8A0
:1018900000C0944506D196F802C0BCF1000F01D1FA
:1018A000012318460131042906F10506EFD103B1E1
:1018B0003870FF232B716B72AB73EB74564B4FF088
:1018C000FF311960554900230B605549EB700B60DF
:1018D0004B608B60CB603E492B726B73AB740B60BB
:1018E000474B1B7893BB012A33D10723FFF70EBA6E
:1018F0004C49284609F044FA00289CD04A4994E70C
:101900000133042B02F10502ADD1BAE7404FDFF8F5
:1019100008914649DFF8ACA04FF000083B785B45E2
:101920000CD1BB7853B1D9F800309B4506D00023C9
:10193000BB705A46504607F027FA3C4908F10108A7
:10194000B8F1040F07F10507E8D19AE70C23FFF778
:10195000DDB937491B4807F017FA364A36491948A6
:1019600007F012FA3978354B354A1648002908BF76
:101970001A46344907F008FA3B78ABB932492D488A
:1019800008F012FE0028B0D030492A4808F00CFEBA
:1019900010B90923FFF7BAB92D49264808F004FE0B
:1019A00010B90823FFF7B2B90523FFF7AFB92949EA
:1019B000044807F0E9F9FFF78DBA00BFEC200020DA
:1019C0008D8F010884200020A4200020BA8F0108F8
:1019D00040250020A0200020338D0108EF8D010854
:1019E000458E010818230020A08E0108C78E01082B
:1019F000E38F010892900108EB900108F99001082B
:101A00003825002041434B00482500206F910108F4
:101A100098290020A120002018020020E0200020AA
:101A2000B42000202A9101083B91010891910108FE
:101A3000C5910108B11B0020E1910108F48701085C
:101A4000ED870108FD910108149201081A9201081E
:101A50002192010828920108DFF8DC82A14D98F854
:101A60000030012B40F0AC802F68002F41D02B6854
:101A7000012B39D1022000F089FD88B300F0ACFDC4
:101A800007F002FA984902460746984807F07CF9A1
:101A9000974A002303EB83018818895CB94240F020
:101AA0001681407800F020FE0646924BDFF84C92FB
:101AB000D3F800A0304608F043FF99F80020C1B2E7
:101AC0003046D047D9F800308B4900933A46334628
:101AD000864807F059F9022000F04CFD02232B60E4
:101AE00098F80030012B6BD12B68022B7FF497A95B
:101AF000E3E07F4E3B46324631465078022849D1DA
:101B00009078002846D003EB8303CA5C7B4B1A60B5
:101B10007B4B07AA03F1280E186859689446ACE875
:101B20000300083373456246F6D119889B78ACF8F8
:101B300000108CF80230392200210DF1470008F026
:101B40005DFADFF8B891DFF8F4A1B37863B13278C9
:101B5000D9F800309A4207D0514605A808F06AFC2F
:101B600005A907A808F0FAFC0137042F06F10506BD
:101B7000EBD1604B614E1F6807A808F0E1FE327898
:101B8000C1B207A8B84732685E49584807F0FCF868
:101B900001230FE00133042B02F10502ADD1574BB5
:101BA0001B680133B4D15849504807F0EDF80323BE
:101BB000237000232B6098F80030012B3FF457AFBF
:101BC0005249534808F0F0FC00284BD1514B1B7888
:101BD000002B47D1022000F0D9FC002842D02B680E
:101BE000002B3FD100F0F8FC039000F0F9FC039BC0
:101BF00049493E4FDFF848A102463C4807F0C4F887
:101C0000A7F1BC095146384607F0BEF84846FFF731
:101C10002FF80028FAD0384607F0A4F806465FFAF5
:101C200080FB303E3D495A463846F6B207F0ACF8E4
:101C3000092E52D83A49ABF1300207A808F0FAFB56
:101C40002C4B07A81E6808F07BFE0122C1B207A832
:101C5000B0473449254807F097F8022000F08AFC85
:101C600001232B6098F80030012B3FF43DAF27494A
:101C7000274808F099FC00287FF436AF254B1B78E5
:101C8000002B7FF431AF022000F080FC00283FF4ED
:101C90002BAF2B68012B7FF427AF00F09DFC039046
:101CA00000F09EFC039B20490246104807F06CF8A8
:101CB000022000F05FFC02232B601C490B4807F058
:101CC00063F80323237000232B60FFF7A8B80133C8
:101CD000042B7FF4DFAE164EE7E61649384607F0D0
:101CE00053F88FE740250020BA9201088420002095
:101CF0009829002048250020E992010814020020BC
:101D00006998010883920108469201081A92010815
:101D1000B11B0020A12000202A930108318B01086B
:101D2000809201086A930108BF930108E0930108BB
:101D3000018801089F930108A02000207F920108DC
:101D40004B930108DFF82483B14D98F80030012B44
:101D500040F084802F68FFB12B68012B17D102203F
:101D600000F014FC78B100F037FC07F08DF8A94BB7
:101D7000A94918600246A94807F006F8022000F0B9
:101D8000F9FB02232B6098F80030012B66D12B68F9
:101D9000022B7FF444A8B3E09E4BA14E4FF0FF32DC
:101DA0001A60314632463B465078032842D190783B
:101DB00000283FD003EB8303CA5C9A4B1A609A4B0E
:101DC0000DF11C0C03F1280E18685968624603C215
:101DD000083373459446F7D13C22002111A808F03E
:101DE0000DF9DFF84092DFF888A2B37863B132785A
:101DF000D9F800309A4207D0514605A808F01AFBDE
:101E000005A907A808F0AAFB0137042F06F105066B
:101E1000EBD1864B834E1F6807A808F091FD3278FE
:101E2000C1B207A8B847326881497C4806F0ACFFC8
:101E300001230DE00133042B02F10502B4D1794BEB
:101E40001B680133BBD17B49744806F09DFF022318
:101E50002B6098F80030012B3FF47EAF764977482D
:101E600008F0A2FB002892D1754B1B78002B8ED175
:101E7000022000F08BFB002889D02B68002B86D134
:101E800000F0AAFB039000F0ABFB039B6D49634F8E
:101E9000DFF8E0910246614806F076FFA7F1BC0842
:101EA0004946384606F070FF4046FEF7E1FE00283E
:101EB000FAD0384606F056FF06465FFA80FA303E02
:101EC000614952463846F6B206F05EFF092E19D82F
:101ED000AAF1300A5D49524607A808F0ABFA534B05
:101EE00007A81F6808F02CFD0122C1B207A8B84757
:101EF00057494A48524606F047FF022000F03AFB95
:101F00000923DFE65349384606F03EFFC8E7DFF80D
:101F10005C813F4E98F80030012B2AD13568002DA6
:101F200000F0AC80012D40F04C81022000F02EFB2F
:101F3000D0B100F051FB06F0A7FF47490246054625
:101F4000364806F021FF454B354A1868002303EB5D
:101F500083018F18895C814240F012813D7102201B
:101F600000F008FB0223336098F80030012B00F0EA
:101F700028813368002B40F02481022000F006FB0A
:101F8000002800F01E8136492C4808F00DFB00287F
:101F900040F017812A4B1F78002F40F0128100F08B
:101FA0001BFB054600F01CFB2E4981462B460246D2
:101FB0001A4806F0E9FE98F800002B46A94407A944
:101FC0004B4540F0E280DFF85480DFF8ACA0A8F188
:101FD000BC095146404606F0D7FE4846FEF748FE8B
:101FE0000028FAD0404606F0BDFE05465FFA80FBA9
:101FF000303D15495A464046EDB206F0C5FE092D62
:1020000040F2D1801849404606F0BEFEE1E700BF2D
:102010004025002018020020979401088420002009
:102020009829002010020020CD98010848250020A2
:10203000649401081794010821920108B11B002043
:10204000A1200020D1940108318B01088092010861
:102050000E9501089F930108C79501080C02002006
:1020600014920108F99501084E960108A02000205D
:102070007F920108F2940108279601087F4FDFF84C
:102080003C927F49C9F800504FF0FF3CC7F800C0B0
:102090002A4628462B46AE46CDF80CC091F802C021
:1020A000BCF1000F0ED0774B91F800B043F822B08E
:1020B0004B7802F1010A012B5246634604BFE64603
:1020C000CDF80CB00130042801F10501E6D1BEF1D4
:1020D000000F00F0E881039939600BB1C9F80020C6
:1020E0003B68013304D16849684806F04DFE58E466
:1020F000674B07AA03F1180E186859689446ACE8B4
:102100000300083373456246F6D1186899889B79B5
:10211000CCF80000ACF804108CF806302122002125
:102120000DF13B0007F06AFFDFF858A1DFF890B12E
:10213000D9F80030AB420EDD5AF8042B3B689A42C6
:1021400007D0594605A808F075F905A907A808F0B1
:1021500005FA0135ECE74F4B07A81D6808F0F0FBC6
:102160003A78C1B207A8A84707AB3A684A49474836
:1021700006F00AFE0123336098F80030012BD2E606
:102180000133042B7FF4E3AEE9E613F8012B303A78
:10219000D5B2092D3FF614AF90423FF411AF41F88C
:1021A000272001370CE7ABF1300B07AA00239F4231
:1021B00000F0778152F8041B594500F05981013332
:1021C000F5E73368022B7EF42AAE34492F4806F037
:1021D000DBFD00233360FFF7E4BB31492B48284E79
:1021E000304FDFF8E090DFF8A48006F0CDFD002549
:1021F00033787078039300F077FA17F8012B039B7C
:10220000CDE9000249462A464046013506F0BCFDAC
:10221000042D06F10506EBD1FEF75CBE224E96F8C2
:102220000090B9F1010F4FD0022000F0AFF9002863
:102230003EF4F5AD00F0D0F9054600F0D1F9009577
:10224000034632781949114806F09EFD184B079352
:10225000104B01221B68032107A8984732781549C3
:102260000A4806F091FD022000F084F9124B4FF06D
:10227000FF321A600023FEF749BD00BF0C020020A8
:10228000982900202825002051950108842000204D
:102290003199010848250020949501086B960108A2
:1022A000A196010871990108A020002073970108E8
:1022B00041434B006F91010840250020A8200020D9
:1022C000AA8B0108C1960108794D2B68032B3EF7B4
:1022D000A6ADDFF84482774F98F80020DAB93A7853
:1022E000CAB9754903EB830288188078002864D046
:1022F000724B8A5C7248D3F800A0039208F020FB6E
:10230000039AC1B26E48D047039A6E496E4806F0F0
:102310003BFD88F80090022000F038F920B300F06F
:102320005BF9814600F05CF90328024619D1484662
:10233000664908F073FB814698B998F8003083B17C
:102340002B685D4A6249604803EB8303D25C06F068
:102350001BFD01235F495C4888F800903B7006F044
:1023600013FD022000F006F93B780BB35A48FEF744
:102370007FFCE8B1544806F0F5FCC0B231281FD10B
:102380002B685649504801334FF000082B6087F8FE
:10239000008006F0F9FC2B68032B09DD50494A4800
:1023A00006F0F2FC4F4B84F800804FF0FF321A60C9
:1023B0003378012B3EF433AD36E701332B60AAE7C7
:1023C0004949414806F0E0FCF2E74849FEF7E6BF1C
:1023D000474905A808F02EF8384B05A81D6808F0F5
:1023E000AFFA0122C1B205A8A847022000F0C2F846
:1023F0003C4A022313603F4B1B78012B3FF489A812
:10240000384B186802287FF4BCA900F0BFF80028F8
:102410003FF4B7A900F0E0F8054600F0E1F8354FC9
:10242000009535493A780346274806F0ADFC334914
:10243000284608F0A5FC00283FF4ECA94FF0FF3334
:102440002F49079307AA08F015F8079E2D491E4843
:10245000324606F099FC3B78B3427FF4DFA92A4963
:10246000194806F091FC294B01221A70FFF7D6B9E2
:102470001F495A4605A807F0DDFF104B05A81F6845
:1024800008F05EFA0122C1B205A8B84720490E48FB
:102490005A4606F079FC022000F06CF80223336003
:1024A00093E61C49AFE5002B7FF418AE1BE600BF96
:1024B000F0200020F7200020982900204825002047
:1024C000CE010020ED9601088420002046880108F6
:1024D000258F01084A8F0108C81F00208D8F010831
:1024E0002D97010840250020E38F0108AD970108D2
:1024F00080920108A02000200D9001083F8E010865
:102500003A9001086C900108C5900108A1200020B4
:102510000198010843980108AF20002013B50B4B28
:102520000B4C1A780B4B1A704FF41653009303227E
:1025300000230221204605F065FA074A0749204694
:1025400002B0BDE8104002F08DB900BFB01B002002
:10255000C81F0020C11B0020C80100208102000804
:10256000034A012303FA00F0136818431060704710
:1025700044250020044901220B6802FA00F023EAF6
:1025800000030B60704700BF44250020012303FABD
:1025900000F0024B1B681840704700BF4425002024
:1025A00038B50C4601460648154607F011FC054BA8
:1025B0001D70054B1C70BDE838400220FFF7D0BFEE
:1025C0005025002050290020512900200520FFF728
:1025D000C7BF0620FFF7C4BF004870475025002042
:1025E000014B1878704700BF50290020014B187824
:1025F000704700BF51290020014B1860704700BF91
:1026000048250020014B1860704700BF4C25002072
:1026100010B50C4C204605F0E5F820460A4B40F872
:10262000283B1022002107F0E9FC012384F8383010
:10263000064B23602046064A0649BDE8104002F0DA
:1026400011B900BF5829002024AF010898AF010834
:10265000C8010020110B000870B505464E1E441835
:10266000002E0DDD07F03AFD731C90FBF3F101FB2A
:10267000130314F8012DE95C2170013EEA54EFE7E1
:1026800070BD0000F7B5002006F042FA07F01EFD0D
:102690000421022300240DEB01008DF806300125F2
:1026A00003238DF804408DF807308DF80550FFF7AF
:1026B000D3FF0B480B4A2346264601A9FF240133CA
:1026C00010F801CB11F8017B82F800C0042B577081
:1026D0009570D670147102F10502F0D103B0F0BD0F
:1026E000909901089829002003289ABF024B53F8BB
:1026F00020000248704700BF809901080188010846
:102700000FB407B5064B04AA1B6852F8041BD8681F
:1027100001920DF073FB03B05DF804EB04B0704759
:10272000C0060020002000F05BBF00002DE9F04152
:10273000BDF81C50B5F5806F06460C4690461F4606
:1027400006D322482946FFF7DBFF0620BDE8F081CB
:10275000022000F0A1FC08B10720F7E73146022073
:1027600000F0F6FC4FFA88F1022000F02DFD39460A
:10277000022000F047FD0699022000F061FD21468D
:10278000022000F0C7FC8EB90B3C012C12D80121AD
:10279000022000F0A1FC7DB90121022000F06EFDB5
:1027A00000F0D6FD0130D7D00020CFE7012E01D1B7
:1027B0000C2CECD00021EBE70021022000F05EFDA4
:1027C0002946022000F078FDEAE700BF949901084D
:1027D0007047000084B038B504AC84E80F000220D4
:1027E000DDE9085400F058FC20B10720BDE838406E
:1027F00004B070470C2C15D921461148FFF780FF13
:102800000C21022000F086FCA5B90B3C012C15D848
:102810000121022000F060FC00F09AFD0130E4D0BC
:102820000020E3E7052CEFD821460548FFF768FFB5
:102830000621E6E7012D01D10C2CE9D00021E8E7C3
:10284000249A01080FB407B5064B07491B6805AA6F
:10285000D86801920DF0D2FA03B05DF804EB04B031
:10286000704700BFC00600204D9A010884B010B523
:1028700002AC84E80F009DF80D10012905D0BDE8D9
:102880001040254804B0FFF7DDBF9DF82930332004
:102890005BB301F009F840F04101C9B2332000F008
:1028A000F8FF19213B2000F0F4FF9DF827309DF838
:1028B0002A402BB31D21112000F0EBFF402000F037
:1028C000F3FF00F03301402000F0E3FF00210F2070
:1028D00000F0DFFF00210D2000F0DBFFD4B1052068
:1028E000BDE8104004B001F017B800F0DDFF00F0C3
:1028F000BE0141F00101332000F0CBFF1D21D1E7E3
:102900001F21112000F0C5FF402000F0CDFF00F096
:102910003F01D8E70620E3E74D9A010884B02DE98E
:10292000F04106AC84E80F000898BDF832609DF8CD
:102930003450BDF842700B9CDDF8288000F0CCFFCD
:102940001D2000F0B1FF9DF831309DF8301041EAB4
:10295000C3019DF8363041EA881141EA430141EA5A
:102960008501C9B21D2000F094FF1E2000F09CFFDD
:10297000C7F3012100F00C0041EA04110143C9B280
:102980001E2000F086FFF9B21F2000F082FF310AFE
:10299000202000F07EFFF1B2212000F07AFF25B167
:1029A0009DF83510222000F074FF9DF837306BB190
:1029B0004B2000F079FF60F07F01C9B24B2000F09E
:1029C00068FF9DF83810242000F063FF062C4FF0BC
:1029D00031000FD100F068FF00F0F80141F005016F
:1029E000312000F056FF0C21BDE8F041372004B043
:1029F00000F04FBF00F058FF00F0F80141F0030174
:102A0000312000F046FF0A21EEE78021122000F07D
:102A100040BF4021122000F03CBF07B5122000F05B
:102A200043FF8DF807009DF80700C0F3401003B086
:102A30005DF804FB2021122000F02BBF08B51920FF
:102A400000F032FF030643BF4042C0F3850040421E
:102A500040F3870008BD84B010B502AC84E80F00D5
:102A60009DF938401A2000F01FFF002CB8BF8B3CA6
:102A70004FEA2013B8BF0019BDE81040A8BF8B383B
:102A8000184400B204B0704738B50546132000F072
:102A90000BFF04460146284600F016FF204638BDCD
:102AA0000FB407B5064B04AA1B6852F8041BD8687C
:102AB00001920DF0A3F903B05DF804EB04B0704788
:102AC000C006002008B528B90848FFF7E9FF4FF015
:102AD000FF3008BD402905D90548FFF7E1FF6FF039
:102AE0000100F6E7BDE8084000F0CEBD8C9A010871
:102AF000B89A0108F8B5074601200D4614461E464F
:102B000000F0CAFA08B10720F8BD3946012000F0EC
:102B10003DFB2946012000F01BFB71B2012000F0B3
:102B200053FBBDF81810012000F06CFB0799012041
:102B300000F086FB2146012000F0ECFA65B90B3C61
:102B4000012C0DD80121012000F0C6FA00F0D2FBC3
:102B50000130D8D00020D7E7012D01D10C2CF1D0C5
:102B60000021F0E784B038B504AC84E80F00012000
:102B7000DDE9085400F090FA20B10720BDE83840A4
:102B800004B070479DF91C0000F010FC50BB012000
:102B900000F082FA0028F0D10C2C15D921461248F9
:102BA000FFF77EFF0C21012000F0B4FAA5B90B3C21
:102BB000012C15D80121012000F08EFA00F09AFBBB
:102BC0000130DAD00020D9E7052CEFD8214606489D
:102BD000FFF766FF0621E6E7012D01D10C2CE9D0B5
:102BE0000021E8E70120C9E7249A01080FB407B5DE
:102BF000064B07491B6805AAD86801920DF0FEF83C
:102C000003B05DF804EB04B0704700BFC0060020BD
:102C1000F29A010884B070B504AC84E80F00092072
:102C20009DF9404000F040FE06465A2000F03CFE70
:102C30009DF8103003F0FD03012B14BF0023802307
:102C4000054606F07F001843030600F0F00127D583
:102C5000112CCBBF45F0070505F0F805EDB245F0A6
:102C6000040505F00703072B12D1142CA8BF142468
:102C7000052CB8BF0524631F1943C9B2092000F011
:102C800008FE2946BDE870405A2004B000F001BE9D
:102C9000112CA8BF1124022CB8BF0224A31EEBE7FD
:102CA0000E2CA8BF0E2444EAE47401342143E4E767
:102CB00084B008B50DF1080C8CE80F009DF80D10DC
:102CC000012905D0BDE80840124804B0FFF78EBFC7
:102CD0009DF827309BB1F521112000F0DAFD40204E
:102CE00000F0E2FD00F03301402041F0400100F02F
:102CF000D0FDBDE80840032004B000F00DBEF72170
:102D0000112000F0C6FD402000F0CEFD00F03F0194
:102D1000EAE700BFF29A010884B02DE9F0418AB0D9
:102D200010AC84E80F009DF94C30089314AD0FCD22
:102D30006C46159EBDF85A70DDF850800FC495E8BA
:102D40000F0084E80F0010AB0FCBFFF763FF129862
:102D500000F0C2FD9DF85F306BB14B2000F0A4FD88
:102D600060F07F01C9B24B2000F093FD9DF8601028
:102D7000242000F08EFD1D2000F096FD9DF85930B6
:102D80009DF8581041EAC3019DF85C3041EA881172
:102D900041EA83019DF85E3041EA4301C9B21D203A
:102DA00000F077FD1E2000F07FFD00F00F0141EAEA
:102DB0000611C9B21E2000F06CFD390A202000F077
:102DC00068FD2120F9B200F064FD062E4FF03100BD
:102DD00010D100F069FD00F0F80141F0050131204B
:102DE00000F057FD0C2137200AB0BDE8F04104B0D7
:102DF00000F04FBD00F058FD00F0F80141F0030174
:102E0000312000F046FD0A21EDE70821122000F0F4
:102E100040BD08B568B1332000F046FD00F0BE01AA
:102E2000332000F036FD19213B20BDE8084000F0BA
:102E300030BD332000F038FD00F0BE0141F001014B
:102E4000332000F026FD1D21EEE738B50446222090
:102E50000D4600F01EFD00210E2000F01AFD00219D
:102E60000D2000F016FD012000F01EFD30F0F803EB
:102E700004D100F07FFD012005F03EFD29462046EB
:102E8000BDE8384000F01BBD0FB407B5064B04AADF
:102E90001B6852F8041BD86801920CF0AFFF03B016
:102EA0005DF804EB04B07047C006002010B50A4C72
:102EB00021788142024605D00848FFF7E5FF4FF030
:102EC000FF3004E0022001F003F808B9207010BDC3
:102ED0000348FFF7D9FFF2E7202A002026A30108C4
:102EE0007CA3010808B5044804F0D9FC00F045FDB6
:102EF000024B01221A7108BDB0290020F0290020E0
:102F000013B5174C2379022B03D0032B19D002B031
:102F100010BDFFF75DFCFFF7E5FF032000F0D8FFD1
:102F2000012808D000230F4A0093146819461A4656
:102F30000120A047EBE70C4802B0BDE81040FFF7C6
:102F4000A3BF204600F05CFD94F8280000F049FD86
:102F50000123237102B0BDE8104000F0E9BF00BFBB
:102F6000F0290020242A0020FCA201082DE9F041CC
:102F7000354C267988B046B134483146FFF784FF96
:102F80004FF0FF3008B0BDE8F081314B1860314B95
:102F900031481960FFF778FF4FF4807006F0B8FEF3
:102FA0002E4B186028B92E48FFF76EFF6FF0010016
:102FB000E8E74FF4FA6262620E2222730B22294B79
:102FC000626108224FF00108A36062830423052296
:102FD000204684F820306285237084F805802677A7
:102FE000E67784F81E8084F82160266184F81980D1
:102FF000667784F8228084F8288000F001FD254659
:10300000014605F8100B1848FFF73EFF0FCD6F463D
:103010000FC795E80F0087E80F0094E80F00FFF74F
:10302000A1FDA5F1100CBCE80F006F460FC795E895
:103030000F0087E80F0094E80F00FFF7CBFB84F840
:10304000048030469EE700BFF0290020F39B010872
:10305000282A0020242A0020449C0108AC290020B2
:10306000719C01082021F636AB9C010808B50420AC
:1030700000F02EFF012805D10648FFF705FF4FF0AD
:10308000FF3008BDFFF72EFF022000F021FF0020D7
:10309000F7E700BFC19C010838B5054618B90A48D2
:1030A000FFF7F2FE05E0094C217829B10848FFF747
:1030B000EBFE4FF0FF3004E0084600F009FF08B9CE
:1030C000257038BD0348EBE7D1A00108202A002075
:1030D0000EA1010851A1010838B504460D4600F0C3
:1030E00021FF0128084B06D11A78A24203D1074BD1
:1030F00000201D7638BD06481A782146FFF7C4FE29
:103100004FF0FF30F6E700BF202A0020F029002012
:1031100072A0010838B504460D4600F003FF0128EF
:10312000084B06D11A78A24203D1074B00205D61FB
:1031300038BD06481A782146FFF7A6FE4FF0FF304B
:10314000F6E700BF202A0020F029002013A0010884
:1031500038B504460D4600F0E5FE0128084B06D1BF
:103160001A78A24203D1074B00201D6138BD0648E2
:103170001A782146FFF788FE4FF0FF30F6E700BFD0
:10318000202A0020F029002085A1010838B5044636
:103190000D4600F0C7FE0128084B06D11A78A2425E
:1031A00003D1074B00201D7338BD06481A7821460D
:1031B000FFF76AFE4FF0FF30F6E700BF202A00203D
:1031C000F0290020979E010838B504460D4600F00E
:1031D000A9FE0128084B06D11A78A24203D1074B59
:1031E00000205D7638BD06481A782146FFF74CFE70
:1031F0004FF0FF30F6E700BF202A0020F029002022
:10320000B49F010838B504460D4600F08BFE012836
:10321000084B06D11A78A24203D1074B00205D83E8
:1032200038BD06481A782146FFF72EFE4FF0FF30D2
:10323000F6E700BF202A0020F0290020DEA10108C7
:1032400038B504460D4600F06DFE0128084B06D146
:103250001A78A24203D1074B00209D6038BD064872
:103260001A782146FFF710FE4FF0FF30F6E700BF57
:10327000202A0020F02900209EA2010838B504462B
:103280000D4600F04FFE0128084B07D11A78A242E4
:1032900004D1074B002083F8225038BD05481A7826
:1032A0002146FFF7F1FD4FF0FF30F6E7202A00201E
:1032B000F029002040A2010838B504460D4600F070
:1032C00031FE0128084B06D11A78A24203D1074BE0
:1032D00000205D8538BD06481A782146FFF7D4FDE9
:1032E0004FF0FF30F6E700BF202A0020F029002031
:1032F000579F0108F0B589B000F014FE0128114B6A
:1033000018D11F78012F15D10F4E06F1100500F0CE
:1033100037FB0FCD6C460FC495E80F0084E80F0013
:1033200096E80F00FFF7F8FC3846FFF7BFFD0020D6
:1033300009B0F0BD05481978FFF7A6FD4FF0FF3042
:10334000F6E700BF202A0020F0290020339E010864
:10335000F0B589B000F0E6FD0128114B18D11F78B7
:10336000022F15D10F4E06F1100500F009FB0FCD0D
:103370006C460FC495E80F0084E80F0096E80F0034
:10338000FFF7CCFA3846FFF791FD002009B0F0BDF9
:1033900005481978FFF778FD4FF0FF30F6E700BFDA
:1033A000202A0020F0290020CF9D0108F0B58BB025
:1033B000044600F0B7FD0128104B17D11F78012FEC
:1033C00014D10F4E089406F110050FCD6C460FC4B2
:1033D00095E80F0084E80F0096E80F00FFF71AFC4D
:1033E0003846FFF763FD00200BB0F0BD05481978A3
:1033F000FFF74AFD4FF0FF30F6E700BF202A00201C
:10340000F0290020F39E01080E4B1B79022B13B507
:1034100010D1FFF7FAFAFFF765FD032000F058FD21
:10342000012809D00023084A0093146819461A4657
:103430000120A04702B010BD044802B0BDE8104012
:10344000FFF722BDF0290020242A0020E99C010872
:103450002DE9F041454E3479022C8AB067D1FFF74F
:10346000D8FAFFF7DAFA012829D1FFF7E3FA96F83C
:103470002250ADB9FFF736FD032000F029FD0128E9
:1034800008D03B4B00951E682A462B46294620460D
:10349000B04711E037480AB0BDE8F041FFF7F4BC8F
:1034A00000F040FD0328F5D10023314A0093156850
:1034B00019461A462046A8470AB0BDE8F081FFF732
:1034C000BDFA06F11005089007460FCD6C460FC4F3
:1034D00095E80F0084E80F0096E80F00FFF7BBFAAD
:1034E000254C80462068FFF7CFFA96F82260054603
:1034F0008EB9FFF7F7FC032000F0EAFC012808D0A2
:103500001B4B00971F68216843462A463046B84740
:10351000D2E71A48BFE700F005FD0328F9D1144BA4
:1035200000971E68216843462A460020B0E7032C16
:1035300014D1134804F0B3F9FFF767FCFFF7D2FC8E
:10354000204600F0C5FC012806D00E4B1B68002069
:103550000AB0BDE8F04118470B489CE70B482146EC
:103560000AB0BDE8F041FFF78FBC00BFF029002092
:10357000242A00202C9B0108AC290020689B01080C
:10358000B0290020282A0020A39B0108D79B01080E
:103590002DE97043044699460D46904604F0FCFE22
:1035A000636B23B994F838300BB104F08DFC04F14F
:1035B0002806AE420BD03046FDF786FA3EB1EB68E6
:1035C0001BB15B68294630469847EB686363424607
:1035D0004B46204604F04BF9BDE8704304F0F2BEC0
:1035E000F0B506468DB0012000F072FC012806D12E
:1035F0001E48FFF749FC4FF0FF300DB0F0BD1C4BEB
:103600001C4F18684FF48072002107F1100506F076
:10361000F5FC0FCD6C460FC495E80F0084E80F0051
:1036200097E80F00FFF722F902233B71E6B1102261
:10363000002108A806F0E2FC0F4B089330460F4B20
:103640000B9313F0E5FB00220D4B13F05BFC13F022
:10365000F1FF02460B460B4808A9FFF799FF08A89F
:10366000FDF732FA0020C8E73046C6E7189D01088A
:10367000AC290020F0290020012F0008C087010894
:1036800000408F40B0290020F0B5304C2379032B47
:103690008FB006460D4606D12D48FFF7F5FB4FF0DB
:1036A000FF300FB0F0BD042000F012FC0128F3D071
:1036B000FFF718FC0A2005F01FF9022000F008FCB3
:1036C000012000F005FC012801D12248E5E76379DB
:1036D0001BB1012B03D000270CE01F48DDE794F855
:1036E0002100FFF796FB2946304684F82E50FFF75D
:1036F000ACFB676A194E08970FCE6D460FC596E86A
:103700000F0085E80F0094E80F00FFF7D1FA0323BC
:10371000102200210AA8237106F070FC104B0A93B6
:103720003846104B0D9313F073FB00220E4B13F031
:10373000E9FB13F07FFF02460B460C480AA9FFF78E
:1037400027FF0AA8FDF7C0F90020AAE7F02900200A
:103750003F9D01086F9D0108969D0108002A0020E9
:10376000012F0008C087010800408F40B0290020C9
:1037700010B50C4C204604F035F820460A4B40F8B2
:10378000283B1022002106F039FC012384F8383050
:10379000064B23602046064A0649BDE8104001F06A
:1037A00061B800BFB029002024AF010898AF01081C
:1037B000C8010020110B000810B50446044B40F866
:1037C000B83BD4F8C4300BB19B689847204610BD75
:1037D000B4B001080FB407B5064B07491B6805AA2A
:1037E000D86801920CF00AFB03B05DF804EB04B05A
:1037F000704700BFC0060020DFA30108F8B50D4CDC
:103800000D4F23681646E2681B040D46136040F016
:103810008001094804F086FA013D2E44B54205D0E6
:1038200015F8011F384604F07DFAF7E7A36822680F
:103830001A60F8BDE82A0020202B0020F8B50E4CB5
:103840000E4F23681646E2681B040D46136000F015
:103850007F010A4804F066FA013D2E44B54206D0C5
:103860000021384604F05EFA05F8010FF6E7A36878
:1038700022681A60F8BD00BFE82A0020202B002033
:1038800010B50446FFF798FF204601F058F920468E
:1038900010BD07B502AB012203F8011D1946FFF761
:1038A000ADFF03B05DF804FB07B501220DF1070180
:1038B000FFF7C4FF9DF8070003B05DF804FB0A465C
:1038C00001460020FFF79ABF0A4601460020FFF795
:1038D000B5BF00000000000010B513F099FA0CA36A
:1038E000D3E9002313F038FC13F0E4FD0446C0F3E1
:1038F00007410620FFF7CDFFC4F307210720FFF79C
:10390000C8FFE1B20820BDE81040FFF7C2BF00BF0A
:103910000000000080844E40144910B50A78044627
:1039200090B932B901230B70114BDA681B681B0484
:1039300013600120FFF7B8FF00F0F80121430120D8
:10394000BDE81040FFF7A5BF094B2AB11A68002057
:103950000870D96812040A60032C1A6803D0DB6867
:1039600012041A60E5E79B68FBE700BFFC2B002010
:10397000CC2A00200120FFF7CFBF0020FFF7CCBFEB
:1039800010B504460120FFF78FFFC0F3C01084423A
:1039900026D0012C13D0FFF7F0FF0120FFF784FFA2
:1039A00000F07F010120FFF774FF00214020FFF7A6
:1039B00070FF30214120BDE81040FFF76ABFFFF7DC
:1039C000DCFF2046FFF770FF60F07F01C9B22046A0
:1039D000FFF75FFF00214020FFF75BFF0021E9E7D1
:1039E00010BD10B504460120FFF7CAFF2CB13421E9
:1039F0003920BDE81040FFF74CBF1221F8E7000066
:103A00002DE9FF47594C054604F0C6FC012120462C
:103A100000F000FC04F0D6FC2368E2681B0413608D
:103A2000012004F069FF04F0B7FC2046002100F0FB
:103A3000F1FB04F0C7FC062004F05EFF2E784C4C2E
:103A4000042E1CD104F0A8FC0021204600F0E2FB6B
:103A500004F0B8FC012004F04FFF63681A68236883
:103A60001A4214BF0126002604F096FC20460121CC
:103A700000F0D0FB04F0A6FC012004F03DFF236819
:103A8000E2683C483C4C1B0413603C4B9A681B6842
:103A900013600821002204F023F9394804F01EFFC6
:103AA0000020FFF739FF1022ACBB2146684606F024
:103AB000A5FA69463348344C04F021F86846FDF70E
:103AC00003F810227CBB2146684606F097FA694647
:103AD0002E48DFF8C8802E4C04F011F86846FCF739
:103AE000F3FF4FF0030900235F1CDBB2D8F800207E
:103AF000B2FBF9F29A421ED903EB430304EB030A2B
:103B0000E05CFFF73DFF9AF802109AF80100FFF71A
:103B1000C0FE3B46E8E70021684606F06FFA1D4B01
:103B200000940393C5E70021684606F067FA194B35
:103B300000940393CBE76879174CFFF721FF95F8C2
:103B40002800FFF74EFF4220FFF7AEFE38B92046AF
:103B5000FFF740FE4FF07E5004F0C0FEF3E7A86888
:103B6000FFF7BAFE304604B0BDE8F087042B002012
:103B7000CC2A0020202B002051340008E82A002005
:103B8000CDCCCC3D2C2A0020093400087C2A002012
:103B9000ACA30108C0870108DFA301081C020020B4
:103BA00073B5224D224C234E0A21284603F04CFFC8
:103BB0002846214D2246314600F054FE1321284666
:103BC00003F042FF2246314628461C4D00F04AFED3
:103BD0004FF0FF330093062205230721284604F007
:103BE000D3F822461649284600F03CFE154B1C240B
:103BF00022461846002106F001FA162103F0DAFEEB
:103C0000114B22461846002106F0F8F9002103F076
:103C1000BEFE0E4B22460021184606F0EFF9212188
:103C200002B0BDE8704003F0B2BE00BF2C2A0020F5
:103C3000C8010020A17A00087C2A0020202B002047
:103C4000B9370008E82A0020042B0020CC2A0020E5
:103C50000FB407B5064B04AA1B6852F8041BD868BA
:103C600001920CF0CBF803B05DF804EB04B07047A0
:103C7000C006002013B5084B0024CDE90034012212
:103C8000082307212046FEF751FDFEF74BFD034BAD
:103C90001C7002B010BD00BF2021F636FD2B0020A5
:103CA00010B5044648B9FFF7E1F9FFF7E3FF084B09
:103CB0001B682046BDE810401847012807D1FFF7D0
:103CC000D5F9FFF7D7FF024B02201B68F2E710BDC2
:103CD000402C00202DE9F041884615461F469DF9ED
:103CE000186000283BD1202A03D92648FFF7B0FFEF
:103CF0002025254C2A464146204606F069F8234BEC
:103D00001F80234B1E7026782746FEB9214BA478CE
:103D10001B78A34201D0FF2C1BD1A4F1FF035C420E
:103D20005C4101261C4B1B78ABB9FFF79FF9FFF7ED
:103D3000A1FF012E24D1194B787819492A1F1D683B
:103D4000D2B22346AC46BDE8F04160470024264687
:103D5000E8E73446E6E71348FFF77AFFE9E701387A
:103D600001280DD80C4B1B782BB9FFF77FF9BDE864
:103D7000F041FFF77FBF0B48BDE8F041FFF768BF98
:103D8000BDE8F081ECA40108FE2B00204A2C0020A5
:103D9000482C00204C2C0020FD2B0020442C00201F
:103DA000022C002031A501080A4B10B518700A4BEF
:103DB00019600A4B0A491A6004460A48FFF7D6F808
:103DC000094B00225C701A70FFF750F9BDE81040F3
:103DD000FFF750BF4C2C0020402C0020442C00202A
:103DE000D53C0008A13C00081E2C0020F7B5184F58
:103DF0003C7834B117482146FFF72AFF012003B071
:103E0000F0BD1C2905D914482022FFF721FF03200B
:103E1000F5E7124D0E1DAA70F6B20A460146281D9E
:103E20002C70EE7005F0D4FFFFF720F90C4A082340
:103E3000CDE900322146012307220E20FEF75AFE6B
:103E400031462846FEF73EFE01233B702046D6E76A
:103E5000FD2B002001A4010842A401081E2C002013
:103E60002021F636014BB3F9000070474A2C0020A0
:103E7000014B93F900007047482C002010B5074B08
:103E80001C78012C05D106482146FFF7E1FE2046AB
:103E900010BD044B18700020FAE700BFFD2B002076
:103EA0008CA401084C2C00200FB407B5064B074921
:103EB0001B6805AAD86801920BF0A0FF03B05DF85B
:103EC00004EB04B0704700BFC0060020A6A501089F
:103ED00037B501460D480E4A037803EB83052A44A3
:103EE000545C012C06D00B4B2B445B5C03702046CA
:103EF00003B030BD0848642202FB0300009007486D
:103F000002FB01020648FFF7CFFFF0E74D2C00202F
:103F100092A501087EA501081404002020020020BB
:103F2000A6A50108014B1878704700BF4D2C002052
:103F3000014B00221A7070474D2C002043692DE977
:103F4000F0410D46D907044628D58168334F826871
:103F5000334E836833483940B94202EA060204BF4F
:103F60000127A760B24203EA000304BF4FF4807642
:103F7000A660834204BF4FF48030A060274881428E
:103F800005D027498A4202D0264A934206D1264BC1
:103F9000264A1B6852F8250001219847E2686369A8
:103FA000920708D09F0706D51F4B204A1B6852F87E
:103FB000250000219847A169626963698E070AD5C7
:103FC000900508D5190406D5174B184A1B6852F8F6
:103FD000250005219847A7696669626917F00407FB
:103FE00006F4806609D046B1120406D50E4B0F4A7E
:103FF0001B6852F825000721984763695FB156B1E5
:104000001B0408D5084B094A1B6852F825000221F9
:10401000BDE8F0411847BDE8F08100BF030000048F
:104020000003000800000310582C0020502C002032
:1040300000210148FFF782BF00640040FFF7F8BF8E
:10404000FFF7F6BF01210148FFF778BF0068004085
:10405000FFF7F8BFFFF7F6BF30B5036891FAA1F498
:10406000B4FA84F491FAA1F10325B1FA81F1640064
:1040700005FA04F4490023EA040302FA01F11943A2
:10408000016030BD00B5002389B007286FD8DFE894
:1040900000F00413202D3A4754610093364B374803
:1040A0001A6B42F001021A631B6B03F001030093C9
:1040B000009B09B05DF804FB01932F4B30481A6B4D
:1040C00042F002021A631B6B03F002030193019B8F
:1040D000EFE70293284B2B481A6B42F004021A6355
:1040E0001B6B03F004030293029BE2E70393224B52
:1040F00025481A6B42F008021A631B6B03F0080391
:104100000393039BD5E704931B4B20481A6B42F0A3
:1041100010021A631B6B03F010030493049BC8E79F
:104120000593154B1A481A6B42F020021A631B6B59
:1041300003F020030593059BBBE706930E4B154840
:104140001A6B42F040021A631B6B03F040030693A4
:10415000069BAEE70793084B0F481A6B42F08002AC
:104160001A631B6B03F080030793079BA1E70B48BF
:1041700004F07AFC00209CE7003802400000024076
:104180000004024000080240000C024000100240FF
:104190000014024000180240001C02407CA80108E4
:1041A000431C10B5044604D176220649064803F0A4
:1041B000CBFE2046002100F00DFE04F00F0401208C
:1041C000A04010BD9DA80108F7A8010870B50446DD
:1041D0004B1C0E46218216D0C1F30310FFF752FF8D
:1041E00005463046FFF7DCFF238A074A656103F086
:1041F0000F03206052F82330A36105F11003183536
:104200006360A560E56070BDB4AB0108B0F9100053
:1042100000F078BE0A4619B981694069FFF71CBFF2
:104220000122F9E74C23F0B54343224E224F1A1DD9
:10423000324400244FF0010E1E448C4205D1014649
:10424000BDE8F0401D4804F00FBC33680EFA04F5D9
:104250001D422BD0136B7D690EFA03F32B4225D040
:10426000D2F818C07B61156805B3FA6833EA020218
:1042700003D1BA6833EA020214D10F4A916833EAD3
:10428000010103D1D26833EA02020DD1DCF810201B
:10429000134214BF01210221094B28461B68BDE8C7
:1042A000F04018470221F7E70121F5E70134043215
:1042B000C3E700BF5C2C0020003C014031A901088D
:1042C000702E002006210846FFF7ACBF05210846E6
:1042D000FFF7A8BF01210420FFF7A4BF012103209D
:1042E000FFF7A0BF01210220FFF79CBF0121084674
:1042F000FFF798BF01210020FFF794BF012910B5F7
:1043000018D11B4C838952B1A26803F00F03994066
:104310001143A160836843F00103836010BDA2686C
:1043200003F00F03994022EA0101A160836823F0A2
:104330000103F2E70229F1D10D4983895AB1CC6812
:1043400003F00F03012202FA03F32343CB608368D7
:1043500043F00203E1E7CA6803F00F03012404FA03
:1043600003F322EA0303CB60836823F00203D4E75C
:10437000003C0140B0F90C3099B270B501F00F0665
:1043800006F00C0404F1804404F59C3401F00301B0
:10439000A56889000F228A40C3F3031325EA0205AA
:1043A0008B402B43A3600F4B01221968B24011438D
:1043B00019608468E50742BF996811439960A107B5
:1043C00042BFD9680A43DA6090F90030002B08DB5D
:1043D0005909012203F01F0302FA03F3024A42F8CB
:1043E000213070BD003C014000E100E02DE9F04FBC
:1043F00092464A1C85B080460C4666D00022039245
:10440000334A344F516C41F480415164526C02F490
:1044100080420392039A04F00F090C2202FB0972F6
:10442000C4F303105568062D47D8DFE805F0043AB9
:104430003C3E40424400284E0193FFF723FE0C21EE
:1044400001FB09F17A1857F801E0244FA8F80C4055
:104450004C21694301247B5892F90820C8F8045084
:1044600004FA0EF44FF0000B1C4388F80020C8F843
:1044700008B07C50132101FB05E507EB8501019B8A
:104480004B60174BC861C3F800A0164BC1F83490BD
:104490009B681032404643F82260FFF76BFF584696
:1044A00010E0114EC8E7114EC6E7114EC4E7114E99
:1044B000C2E7114EC0E7114EBEE7114804F0D4FA2E
:1044C0004FF0FF3005B0BDE8F08F0846FAE700BFB7
:1044D000003802405CA90108F54200085C2C00206D
:1044E000702E002000ED00E0ED420008E5420008DB
:1044F000DD420008D5420008CD420008C542000850
:104500000AA901088389184A03F00F03012110B595
:1045100001FA03F39468DB431C409460D4681C40A8
:10452000D46014682340136090F90030002B0CDB3A
:104530005A0903F01F0301FA03F320320B4941F833
:104540002230BFF34F8FBFF36F8F90F90030002BF5
:1045500009DB5A09012103F01F0301FA03F360325A
:10456000024941F8223010BD003C014000E100E06A
:10457000838903F00F020C235343104A70B544683B
:10458000D658FFF7BFFF4C210D4A6143012000FAC6
:1045900006F55058132303FB046320EA050050502E
:1045A00002EB830000214160981D0C3302EB800078
:1045B00002EB83034160596070BD00BF5CA9010834
:1045C0005C2C002008B503F07DF8002008BD000039
:1045D00008B50A4B1B684BB103F0F0F904F001F980
:1045E0004FF47A72002312F0D5FF08BD03F0BEF835
:1045F0004FF47A73B0FBF3F008BD00BF742E0020B7
:1046000010B588B003F0C8FE052101A803F0D2F967
:104610000424039B019A1A60962004F06DF9019B13
:10462000049A1B041360962004F066F9013CF0D153
:104630000424039B019A1A604FF4C87004F05CF9DB
:10464000019B049A1B0413604FF4C87004F054F9E2
:10465000013CEED1DCE7000070B50D46A0B0044689
:1046600003F09AFE2B462246802168460DF014F88E
:10467000051E03DC03F0A6FE20B070BD094B1B68CD
:1046800023B903220221084800F090FE064E0024C0
:104690001DF804103046013401F06AF8A542F7D144
:1046A000E8E700BFBC2E0020643000200FB407B53F
:1046B00004A951F8040B0191FFF7CEFF03B05DF898
:1046C00004EB04B07047000008B502F0A9FF01F048
:1046D000ADF802F095FF02F0A3FF024B01221A6031
:1046E00008BD00BF742E002000207047036801221F
:1046F0001B6900211847036800221B6911461847EF
:1047000003681B69184703689B69184703689B6A1D
:10471000184700290CBF6FF01800002070470120D7
:1047200070471120704770476FF01C0070476FF0A2
:104730001500704701207047002070477047000047
:10474000F8B5074E15460C468F18BC4205D014F834
:10475000011B304601F00CF8F7E72846F8BD00BF12
:104760006430002038B58DB215F0010405D008483A
:1047700000F098FD041C18BF0124EB0605D5044881
:1047800000F0A6FD08B144F01004204638BD00BF7B
:104790006430002010B5044605F0C2FA204610BD72
:1047A00010B50C462AB1044800F0D0FF207001205B
:1047B00010BD104610BD00BF6430002038B51D4646
:1047C000074B0360074B1B68044633B9064800F0EB
:1047D000EDFD2946044800F0B1FD204638BD00BF7C
:1047E00098AA0108BC2E00206430002000207047E9
:1047F0000020704708B5012000F036F80C4A136815
:1048000010B51844EFF30881884205D3094B0C22F8
:104810001A604FF0FF3010BD07490C6824B10749FA
:10482000096821448842F1D21060184610BD00BFCB
:10483000A40600202C300020882E00208C2E002082
:10484000074C08B523680546986804F05BFC2368AC
:10485000D86804F057FC0DB1FFF7D2FEFEE700BFA9
:10486000C00600200120704708B5FFF7E9FF0120CE
:104870007047002105F0FEBC04F07EBC7047704715
:1048800008B5FFF7FBFF08BD08B5FFF7F8FF08BD47
:1048900010B5037803F00303012B04460CD02BB1B1
:1048A00040F2A9520549064803F04EFB237843F035
:1048B00002032370012010BD002010BDE0AA0108F2
:1048C00037AB010810B5037803F00303022B04464D
:1048D00005D040F2B1520549054803F035FB237875
:1048E00023F0030343F00103237010BDE0AA010885
:1048F0005DAB01083F2870B504462FDC184D55F814
:1049000020305A1C13D1022811DCFFF771FF034637
:1049100058B92046FFF76AFF034630B9114E337885
:10492000BFF35B8FDB0704D50F4B45F824301846E7
:1049300070BD3046FFF7ACFF0028F5D04FF416539A
:10494000032202210848FFF739FF3046FFF7BAFF7C
:10495000064A07490448FFF785FFE5E70023E6E735
:10496000A4050020782E0020842E0020C8010020FD
:104970003D47000838B50546FFF7BCFF0B4B002448
:1049800043F8254030B904F083FA092303604FF05F
:10499000FF3038BD03685B699847051E04DA04F0F0
:1049A00077FA6D420560F2E7204638BDA405002085
:1049B000FFF7E0BF38B50C461546FFF79BFF38B947
:1049C00004F066FA092303604FF0FF34204638BD37
:1049D00003682146DB682A469847041EF6DA04F08D
:1049E00057FA64420460EFE708B5131E06DA04F0D4
:1049F0004FFA162303604FF0FF3008BD04D0FFF7D5
:104A0000D9FF40EAE07008BD184608BD38B50C462D
:104A10001546FFF76FFF38B904F03AFA092303602F
:104A20004FF0FF34204638BD036821469B682A4674
:104A30009847041EF6DA04F02BFA64420460EFE7AC
:104A4000002A08B503DBBDE80840FFF7DFBF04F02C
:104A50001FFA162303604FF0FF3008BD10B5FFF7B3
:104A600049FF044628B904F013FA092303602046DD
:104A700010BD0368DB699847041EF8DA04F008FAF1
:104A8000644204600024F2E71FB504220C46402370
:104A90000DEB020101900DF109008DF8083005F0D1
:104AA00097F9214602A804F0F5FC044630B10198BC
:104AB000FFF7D4FF10B12046FFF7DBFE204604B01D
:104AC00010BDFFF7CBBF38B50C461546FFF712FFF8
:104AD00038B904F0DDF9092303604FF0FF342046B4
:104AE00038BD036821461B692A469847041EF6DA3A
:104AF00004F0CEF964420460EFE7FFF7E4BF38B595
:104B00000D46FFF7F7FE044630B904F0C1F909235A
:104B100003604FF0FF3038BD0368DB699847002819
:104B200014BF4FF400534FF400436B6023682046DA
:104B30009B6A98472861002038BDFFF7E0BF05F069
:104B4000EFB80000034610B553F8042B044602B931
:104B5000036022689A4204D05E220349034803F0AE
:104B6000F3F9206810BD00BF1CAA01087BAA010848
:104B700010B504460948FFF7E5FF0023084A194627
:104B800052F82300A04208BF42F823100133402B03
:104B9000F6D10248FFF7D6FF10BD00BF7C2E0020E3
:104BA000A405002010B50F48FFF7CCFF0E4B0324DF
:104BB00053F824206AB10134402CF9D104F068F98B
:104BC000182303600748FFF7BDFF4FF0FF3420466E
:104BD00010BD4FF0FF32034843F82420FFF7B2FF27
:104BE000F5E700BF7C2E0020A405002010B5044688
:104BF000FFF7D8FF0028A4BF014B43F8204010BDA9
:104C0000A405002070B506460C46FFF7EFFF0546E9
:104C100090B12146FFF738FF044630B9074B53F8EF
:104C20002520964203D143F82500204670BD04F0AC
:104C30002FF909230360F8E70446F6E7A4050020EE
:104C40000EB42DE9F04185B00546FFF7ABFF041E19
:104C500013DB0023294602A8019303F0D9FD02A823
:104C600003F028FE1B4D064668B904F011F9132322
:104C7000036045F824604FF0FF34204605B0BDE8DE
:104C8000F04103B0704702A803F002FE074602A8F5
:104C900037B103F006FE0190019B45F82430ECE7A4
:104CA00003F0EDFD06460028DFD0036802A8D3F824
:104CB000088003F0D9FD0B9B024601A93046C0478E
:104CC00006460028E8D004F0E3F87642066045F88E
:104CD0002470D0E7A405002073B50E461849054698
:104CE00005F062FC044620B9FFF704FE204602B03E
:104CF00070BD1449284605F057FC20B90120FFF784
:104D0000F9FD0124F2E71049284605F04DFC20B9D1
:104D10000220FFF7EFFD0224E8E72B78402B07D1B4
:104D20000422691C0DEB020005F052F8019CDDE73E
:104D300026F400412846FFF783FF0446D6E700BF6C
:104D4000A4AB0108ABAB01089CAB010870477047EE
:104D5000074B08499A68084810B5043A52F8044FBE
:104D600041F8044F8142F9D14FF000529A6010BDD2
:104D700000ED00E0FCFFFF1FC001002008B5FFF7B9
:104D8000E7FFFFF7A1FCFFF7E2FF08BD08B5FFF75B
:104D9000DDFFBDE80840FBF78FBA30B5C36891FA74
:104DA000A1F4B4FA84F491FAA1F10325B1FA81F1E6
:104DB000640005FA04F4490023EA040302FA01F14D
:104DC0001943C16030BD012A02D0022A18BF002257
:104DD000FFF7E3BF2DE9F0410E46411C044604D124
:104DE0003E224449444803F0AFF804F00F08434B17
:104DF000C4F3031053F82850FFF744F906F00707EF
:104E00000446836895FAA5F1B1FA81F195FAA5F205
:104E10000320490000FA01F1B2FA82F223EA010309
:104E20005200022101FA02F21343A36087425AD8CA
:104E3000DFE807F05E1D021DB8F1070FC6F303207F
:104E40003BD9626A2B0A93FAA3F1B1FA81F193FA82
:104E5000A3F34FF00F0EB3FA83F389000EFA01F1BA
:104E60009B0022EA010200FA03F3134363623B460C
:104E7000226895FAA5F0B0FA80F095FAA5F14FF006
:104E8000030EB1FA81F140000EFA00F0490022EA67
:104E900000028B40013F1343012F236005D8636854
:104EA00032074CBF2B43AB436360C6F30112294664
:104EB0002046BDE8F041FFF786BF226A95FAA5F3C8
:104EC000B3FA83F395FAA5F14FF00F0EB1FA81F121
:104ED0009B000EFA03F3890022EA030200FA01F3B1
:104EE00013432362C3E767220249054803F02CF805
:104EF0000023BDE7F4AB0108F7A80108B4AB010833
:104F0000EBB20108431C70B506460D4604D1882259
:104F10001B491C4803F018F806F00F021A4BC6F3A1
:104F2000031053F82240FFF7ADF804FB04F20168C8
:104F300002EB42030B40B3FBF2F3013B012B05D81C
:104F4000EB1E022B436809D823434360032D08D18D
:104F500001222146BDE87040FFF735BF23EA040374
:104F60004360012DF4D0052D01D0022D01D1022284
:104F7000EFE721460022BDE87040FFF70EBF00BFFB
:104F8000F4AB0108F7A80108B4AB010870B5A6B0EE
:104F90003422002102A805F031F85C2200210FA87C
:104FA00005F02CF82A4B1D68002D4FD1294C019596
:104FB00001261E60236C43F080532364236C03F0AE
:104FC00080530193019B00F05DFC042302A802932F
:104FD0000895049600F0C0FF10B11F4803F044FD8F
:104FE000A36823F4F813A360A36823F4F813A36061
:104FF000236F43F48073236720230F930FA84FF48C
:1050000080731F9300F058FD10B1144803F02CFD7D
:10501000134B144801221A60134B03600322002330
:10502000826041F6FF7243774360C260036143616F
:10503000836101F05EF910B10C4803F015FD0948D9
:1050400001F089FA10B10A4803F00EFD26B070BDD8
:10505000982E0020003802404CAC01086CAC0108CE
:105060003C0E47429C2E00200028004095AC0108D1
:10507000AFAC0108F0B51F4B1F491C681F4A5D68A3
:105080008BB00C4015401E460F46186808408442FD
:105090002BD158681040854227D105F03F0001F020
:1050A00051FA0490C5F3042001F04CFA0138059040
:1050B000280C01F047FA44300690C4F3054001F093
:1050C00041FA0390C4F3062001F03CFA029004F088
:1050D0007F0001F037FA01220190694601A802F031
:1050E00051FF00B100980BB0F0BD346875683C40CA
:1050F0001540CAE7002800407F7F7F003FFFFF0088
:10510000024BD868C0F30010704700BF0028004071
:10511000214B224A2DE9F0411D691C689E6AC5F3A6
:105120000E05144018461746196811408C422ED1BE
:10513000996A8E422BD1C4F3054001F003FA074669
:10514000C4F3062001F0FEF9804604F07F0001F070
:10515000F9F9134A13493C2313FB08004FF4616328
:1051600003FB07001368146898420B683CBF03F503
:10517000A83303F5C0731B1B03440B601060086861
:10518000013DC00305EB9000801BBDE8F081046881
:10519000866A3C40C8E700BF002800407F7F7F0050
:1051A000942E0020902E002030B591B000211422C2
:1051B000044602A8019104F021FF03F0EDF82A4B08
:1051C0002A4A1A6007A90122204602F02BFF002874
:1051D00048D00D9B03B907238DF804300B9B013396
:1051E0008DF805300A9B8DF806300C9B443B8DF8FA
:1051F0000730099B8DF80830089B8DF80930002492
:10520000079B8DF80A308DF80B4005940694FFF744
:105210007FFF9DF809109DF80A2013483C2313FBDB
:1052200001229DF808304FF4616101FB0323104A0D
:1052300013600E4B224601A99D6A01F0B3F810B12C
:105240000C4803F011FC002202A9074801F00AF9FA
:1052500010B1094803F008FC044A936A9D42FCD14E
:1052600003F0B0F811B030BD9C2E002000280040A3
:10527000942E0020C8AC0108DFAC01080FB407B5BC
:10528000064B07491B6805AAD86801920AF0B6FDCB
:1052900003B05DF804EB04B0704700BFC006002007
:1052A000F6AC01084368094A9B0182B0D3581A68DA
:1052B000120706D5002201921A6801925A680192DB
:1052C000019A1868C0F3401002B07047B030002057
:1052D0004368034A9B01D3581868C0F3C010704755
:1052E000B030002042681449920110B40468545050
:1052F000531882685A60C2689A600269DA6042692B
:105300001A61026A9A610022DA84DA619A84DA8583
:105310009A85B0F91A20013206D108225A6118463E
:105320005DF8044B01F0B1BEB0F9182001320CBF9A
:1053300004220C22F2E700BFB030002010B58160DB
:105340000C46FFF7CFFF28B121460348BDE81040C7
:10535000FFF794BF10BD00BFF6AC0108124B984296
:1053600017D0A3F54C43984215D003F580639842BB
:1053700013D003F58063984211D003F580639842FF
:105380000FD003F5444398420CBF05204FF0FF3087
:1053900070470020704701207047022070470320AB
:1053A00070470420704700BF00100140F0B50E4662
:1053B00087B004465B493046154602F037FC5A492F
:1053C0000746284602F032FC0146384602F008FC47
:1053D0002060013004D13D225449554802F0B4FD0B
:1053E000022E0CD0032D0AD04E49022002F01EFCE2
:1053F000874202D14F4803F037FB002700E0012726
:105400004D4B206898424FF000031AD100934B4B4C
:105410005A6C42F010025A645B6C03F01003009364
:10542000009B474B984229D100230593434B5A6C6C
:1054300042F020025A645B6C03F020030593059B45
:105440001CE0404A90420BD101933C4B1A6C42F451
:1054500000321A641B6C03F400330193019BE0E7F4
:10546000394A904240D10293344B1A6C42F4802264
:105470001A641B6C03F480230293029BFFF76EFFF8
:105480000028606004DAA4222849304802F05CFD5C
:105490002449304602F080FB2349284602F07CFB79
:1054A000721C03D001213046FFF72CFD6B1C03D08A
:1054B00001212846FFF726FD4FF41653A360002371
:1054C000E360236163612362268365832046FFF7DF
:1054D00009FF3FB11E4B1F4801221A6021464C2292
:1054E00004F076FC07B0F0BD1B4A90420BD1039349
:1054F000124B1A6C42F400221A641B6C03F4002352
:105500000393039BBAE7154A90428AD104930B4B4D
:105510001A6C42F480121A641B6C03F48013049317
:10552000049BABE704A801088CA7010820AD010883
:105530007CAD010898AD0108001001400038024020
:10554000001401400044004000480040CDAD010877
:10555000BC2E002064300020004C00400050004071
:10556000002808DB4209012300F01F0003FA00F0C5
:10557000014B43F82200704700E100E000280DDBFA
:105580004309012200F01F0002FA00F02033044A10
:1055900042F82300BFF34F8FBFF36F8F704700BFF8
:1055A00000E100E0F7B5FFF7D9FE071E26DB144E39
:1055B00056F8270010B3134CBD0163591A68120640
:1055C00006D5DB68190603D50F4B01211B689847E8
:1055D00063591A68920608D5DB68980605D50A4B08
:1055E00056F827001B680021984763591A6811076D
:1055F00004D55A69D20744BF5B68019303B0F0BD7C
:10560000C42E0020B0300020C02E00200148FFF73B
:10561000C9BF00BF001401400148FFF7C3BF00BF6E
:10562000005000400148FFF7BDBF00BF004C0040E4
:105630000148FFF7B7BF00BF004800400148FFF72F
:10564000B1BF00BF004400400148FFF7ABBF00BF3F
:1056500000100140034B19604168034B43F82120BF
:10566000704700BFC02E0020C42E002030B490E848
:1056700018002C48834233D00AD8A0F5006083423A
:1056800028D000F58060834227D0002318460FE021
:10569000254883420AD000F58060834223D0A0F5DC
:1056A00044408342F1D1214B352001E0204B25209D
:1056B000204DA401FAB1C9B92959CA6842F02002A3
:1056C000CA601D4A00F11001926830BC42F82130D6
:1056D000FFF746BF194B2620EAE7194B2720E7E7DB
:1056E000184B3420E4E7184B4720E1E72959CA68F2
:1056F00042F08002E4E72B59DA6849B922F020022F
:10570000DA60DB6813F0800F09D130BCFFF736BFD9
:1057100022F08002DA60DB6813F0200FF4E730BC7F
:10572000704700BF004C00400010014019560008AF
:1057300049560008B030002000ED00E03D5600085A
:1057400031560008255600080D56000838B5446843
:1057500005462846FFF7A6FD0028FAD0A401034B12
:105760001B595868C0F3080038BD00BFB030002096
:1057700070B5456806460C463046FFF7A9FD00287F
:10578000FAD0AD01024B5B59C4F308045C6070BDF4
:10579000B030002008B50E4AC36D934214D008D82B
:1057A000A2F5806293420FD00A4803F05DF9002011
:1057B00008BD094A934203D002F580629342F3D1B7
:1057C000BDE8084000F04AB9BDE8084000F036B92D
:1057D000003C0040DFAD010800300140DFF830D070
:1057E000002103E00B4B5B58435004310A480B4B3C
:1057F00042189A42F6D30A4A02E0002342F8043BD8
:10580000084B9A42F9D301F01FFEFAF7FFFC7047EC
:1058100000000220A0BC0108C80100209810002050
:105820009810002078320020FEE7704708B50B4B37
:105830001A6842F400721A601A6842F480621A60B0
:105840001A6842F480721A60032000F009F80F20F1
:10585000FEF7B8FEFFF7E9FF002008BD003C02405C
:10586000074AD36823F4E0631B041B0C43F0BF63B7
:10587000000243F4003300F4E0600343D360704758
:1058800000ED00E0014B01221A60704720000E423B
:1058900037B500230193184B184C1A6C42F0805214
:1058A0001A641B6C03F080530193019B144B01227B
:1058B0001A60FEF78DFE05466368DA030BD5114BBF
:1058C0000E4C01221A60FEF783FE054663689B03B7
:1058D0000AD5002006E0FEF77BFE401BB0F57A7F7C
:1058E000EAD9032003B030BDFEF772FE401BB0F5CD
:1058F0007A7FEBD9F5E700BF003802400070004026
:1059000040000E4244000E422DE9F0410D4604468F
:1059100010B90120BDE8F081444B1A6802F00F0273
:105920008A4228D321688F072DD4C80740D43F4B23
:105930001A6802F00F02954266D3226851076CD4B0
:10594000130707D53A4A2169936823F4604343EA71
:10595000C103936000F0B8FA354B364A9B68C3F335
:105960000313D35CD840344B18600F20FEF72AFE97
:105970000020BDE8F081CAB21A701B6803F00F0363
:105980009942C6D1CEE72A4B11F0040F1EBF9A6888
:1059900042F4E0529A600E0742BF9A6842F46042B5
:1059A0009A609A68A06822F0F00202439A60BCE70D
:1059B00062681F4B012A1DD11B6813F4003FA8D059
:1059C0001B4EB36823F003031343B360FEF700FEDE
:1059D00041F288380746B368626803F00C03B3EB02
:1059E000820FA4D0FEF7F4FDC01B4045F3D903207D
:1059F000BDE8F081911E01291B6802D813F0007FD9
:105A0000DDE713F0020FDAE7EAB21A701B6803F061
:105A10000F039D427FF47DAF8FE70549E0688B68F7
:105A200023F4E05303438B608AE700BF003C02404D
:105A300000380240E5AE0108A8060020044B054AE4
:105A40009B68C3F38223D35C034A1068D840704735
:105A500000380240F5AE0108A8060020044B054AB4
:105A60009B68C3F34233D35C034A1068D840704745
:105A700000380240F5AE0108A80600200F2303609D
:105A80000B4B9A6802F0030242609A6802F0F0023F
:105A900082609A6802F4E052C2609B68DB0803F4FB
:105AA000E0530361034B1B6803F00F030B60704767
:105AB00000380240003C024003682DE9F74313F030
:105AC000010604460BD0AA49866BD1F88C2022F03F
:105AD000C0623243B6FA86F6C1F88C2076099D077B
