:020000040800F2
:10000000000002207D4B0008C94B0008C94B0008C6
:10001000C94B0008C94B0008C94B0008000000008C
:10002000000000000000000000000000C94B0008B4
:10003000C94B000800000000C94B0008C94B00086C
:10004000C94B0008C94B0008C94B0008C94B000840
:10005000C94B0008C94B0008C94B0008C94B000830
:10006000C94B0008C94B0008C94B0008C94B000820
:10007000C94B0008C94B0008C94B0008C94B000810
:10008000C94B0008C94B0008C94B0008DD33000804
:10009000E1330008C94B0008D1330008C94B000800
:1000A000C94B0008C94B0008C94B0008C94B0008E0
:1000B000C94B0008C94B0008C94B0008C94B0008D0
:1000C000C94B0008C94B0008C94B0008C94B0008C0
:1000D000C94B0008C94B0008C94B0008C94B0008B0
:1000E000C94B0008C94B0008C94B0008C94B0008A0
:1000F000C94B0008C94B0008C94B0008C94B000890
:10010000C94B0008C94B0008C94B0008C94B00087F
:10011000C94B0008C94B0008C94B0008C94B00086F
:10012000C94B0008C94B0008C94B0008C94B00085F
:10013000C94B00080000000000000000F133000877
:10014000F5330008C94B0008E5330008C94B000827
:10015000C94B0008C94B0008C94B0008C94B00082F
:10016000C94B0008C94B0008C94B0008C94B00081F
:10017000C94B0008C94B0008C94B0008000000002B
:1001800000000000C94B0008000000000000000053
:10019000C94B00080000000000000000C94B000827
:1001A000000000000000000000000000C94B000833
:1001B000C94B0008C94B0008C94B0008C94B0008CF
:1001C000C94B000810B5054C237833B9044B13B163
:1001D0000448AFF300800123237010BD50100020AD
:1001E00000000000CC87010808B5034B1BB1034990
:1001F0000348AFF3008008BD000000005410002049
:10020000CC870108A3F5803A704700BF174B002B3D
:1002100008BF134B9D46FFF7F5FF00218B460F46A5
:100220001348144A121A09F001F90E4B002B00D0A2
:1002300098470D4B002B00D0984700200021040068
:100240000D000D48002802D00C4803F0E0FC08F037
:10025000A5FE2000290003F069FF03F0D5FC00BFD4
:1002600000000800000000001D41000800000220FE
:1002700050100020403200200F3C00080000000019
:1002800008B5164C16491748174D07F061FF174976
:10029000144807F05DFF22461549124807F075FF24
:1002A0001449104807F054FF11490E482A4607F038
:1002B0006CFF0C4807F03AFF0F492B782278094869
:1002C00007F046FF207800F0B7F82978207800F092
:1002D000E5FC00F003F900F00DFDFAE7CC01002089
:1002E000285C0108D02300206C1000206F5C0108FE
:1002F000865C01088B5C0108A85C01080FB407B597
:10030000064B04AA1B6852F8041BD86801920DF032
:1003100049F903B05DF804EB04B070477C06002097
:1003200008B5074B1A78074B1B789A4205D1064847
:100330001146FFF7E3FF012008BD0020FCE700BFE6
:10034000CD0100200B120020C25C0108024B187086
:10035000062000F07FBA00BF6F10002038B50546B8
:10036000FFF7DEFF0128044605D105482946FFF7BF
:10037000C5FF204638BD034B00241D70F9E700BFC0
:10038000015D01080B12002070B50D4E0D4D337844
:10039000834228BF03461A460B4829461C4608F0EC
:1003A0002FFF3278094B121BD2B21C7032702AB167
:1003B0002919284608F024FF012070BD1046FCE7EB
:1003C000711000200C16002072100020071200206F
:1003D00038B5054610460C46FFF7C0FF012808D186
:1003E000072000F053FA20B1BDE83840072000F0A4
:1003F0004DBA192C2246294609D80B4808F000FFAF
:100400000A4B1C70BDE83840042000F023BA0848AD
:1004100008F0F6FE074B1A201C70FFF7B5FF072007
:1004200000F018FAEEE700BF72100020071200205B
:100430000C1600207110002010B50A4B0A4C002247
:100440001A70207000F01CFAFFF76AFF207800F0A5
:1004500089FA064800F006FDBDE81040044800F0A7
:1004600007BD00BF0B120020CD010020D103000802
:100470004D0300082DE9FF41164D1F4695F80080F9
:10048000154B144698440E4600F0E2F92246014608
:10049000404608F0B5FE2A78023A1444E4B2012F2F
:1004A0002C7003D09DF82830012B10D100F09AFA5F
:1004B000039000F091FA039B0090224606483146D3
:1004C00000F0A4FC0020287004B0BDE8F0810120F9
:1004D000FAE700BF701000200C1200202DE9FF4742
:1004E000B44BB54C1A782578AA4218BF1D70012D5F
:1004F00000F0A580022D00F0C580002D40F056814F
:10050000062000F0C3F978B1AC4B187800F046FA39
:10051000B0FA80F0400900F092FC2570062004B08B
:10052000BDE8F04700F0A0B9032000F0AFF998B3A0
:1005300000F042FA064600F045FA054600F046FA99
:10054000029000F055FA0746284600F05EF9C0B266
:100550000090029A3B4631462846FFF78BFF1FB1B9
:10056000002323700320DAE7284600F06FF9944A4D
:100570001378984208BF431C284608BF137000F048
:1005800065F901468F4800F04AF932468D4803214B
:1005900000F0FAF90123E4E7042000F077F938B31A
:1005A000874D894B2A781B7803920720029300F02D
:1005B0006DF9B0FA80F04009DDE90232834900901C
:1005C0008348844E00F032F9834B3278187001462C
:1005D0007F4800F0D9F93378FF2B1EBF2B78013309
:1005E0002B707E4B00221A7001232370042096E7A3
:1005F000072000F04BF950B1042000F02BF91A202D
:10060000FFF7C2FE002840F0D180072087E700F006
:100610003DF908B1002082E7012000F037F908B168
:1006200001207CE700F032F908B1022077E70520CD
:1006300000F02CF9002800F0B98005206FE728466B
:1006400000F024F9064650B100F0F2F9012803D079
:10065000052000F01BF900B102202070E0E700F057
:1006600015F9002800F0A2805A4B1B78FF2B04D10B
:100670002846267000F0E0FBCCE70223237000F050
:1006800017FAC7E7284600F001F90546D0B100F097
:1006900099F905464E4800F0D9F80646284600F07C
:1006A000D5F8864207D100F0B7F900230120237066
:1006B00000F0C2FBB9E7464800F0C8F8284600F051
:1006C000C5F8B2E7052000F0E1F8E0B1434E337819
:1006D000092B0BD93E4800F0B9F801464048FFF716
:1006E0000DFE2846257000F0A7FBA6E7394B3848D9
:1006F0001A78394B197800F047F9337801333370A1
:100700000123237099E7032000F0C0F8002842D0AD
:1007100000F052F9074600F055F9054600F056F989
:10072000814600F065F90646284600F06EF85FFA4B
:1007300080F8EEB1CDF8008033464A463946284667
:10074000FFF798FE002E7FF40BAF284600F07EF8EE
:100750001B4A1378984208BF431C284608BF1370F1
:1007600000F074F80146174800F059F83A460DE7D2
:10077000DFF84CA0284600F069F89AF80030834270
:10078000D8D0284600F062F89AF8002001461548B3
:10079000FFF7B4FDD9E700F079F800287FF43AAF0D
:1007A000012000F073F800287FF43AAF04B0BDE8F0
:1007B000F08700BF6E1000206D1000206F10002029
:1007C000081200203A1100200712002072100020A9
:1007D0003F1100200B120020091200200A120020F5
:1007E000265D0108645D0108024B1A78024B1A70FD
:1007F000704700BF6D1000206E1000200078013897
:1008000001288CBF0020012070470078431E584209
:10081000584170470078B0FA80F0400970470023D3
:1008200003700123417083700320704710B51C468C
:100830009DF808304270012B18BF02230370224636
:10084000023008F0DDFCA01CC0B210BD407870473B
:1008500002307047034A012303FA00F0136818437B
:10086000106070470C1A0020044901220B6802FA3C
:1008700000F023EA00030B60704700BF0C1A002051
:10088000014B00221A6070470C1A0020012303FA62
:1008900000F0024B1B681840704700BF0C1A002084
:1008A000054B1B785A1E012A02D80020FFF7D2BF41
:1008B0000BB90120FAE77047111A0020F8B5074676
:1008C0000C4615461E4608F06FFE07EE900AFAEE3B
:1008D000E07AF5EEC07AF1EE10FA21DD2A462146E3
:1008E000104808F08DFC104B1F70104B1D7002F06B
:1008F0008FFC0F4B187002F085FC0E4B18800E4BCE
:1009000020461E70FFF77AFF20B10320BDE8F840B3
:10091000FFF7A0BF2046FFF77DFF08B10220F5E7F3
:10092000F8BD00BF141A0020131A0020481A002036
:10093000121A0020461A0020101A00200FB407B522
:10094000064B07491B6805AAD86801920CF02AFEDD
:1009500003B05DF804EB04B0704700BF7C060020D4
:10096000B05D010810B50446002007F0A1FA08F0B8
:1009700013FE2046024A0349BDE8104002F0E4BBE2
:10098000BD080008A108000810B5044602F0FEFBEF
:10099000014B22781A7010BD111A002010B502F018
:1009A0003DFC044618B101460248FFF7C7FF204648
:1009B00010BD00BFB05D0108014B1878704700BF43
:1009C000131A002000487047141A0020014B1878B1
:1009D000704700BF481A0020014BB3F90000704770
:1009E000461A0020014B93F900007047121A0020AC
:1009F000014B1878704700BF101A00200368184791
:100A00000B68036070477047024B002205201A7084
:100A1000FFF720BF491A002008B5034806F00FF978
:100A2000024B00221A7008BD501A0020491A0020FB
:100A3000014B1878704700BF491A0020C36810B5F1
:100A400004460BB19B689847204610BD38B5054653
:100A5000064B45F8283B044606F0F1F82846FFF718
:100A6000EDFF204606F0B6F8204638BD807A010832
:100A700010B50446FFF7EAFF204603F030FA20469F
:100A800010BD000010B5034B03600446FFF7DEFF06
:100A9000204610BDF47A010838B5CB6804460D46EF
:100AA0000BB15B689847EB68E360204638BD0000F7
:100AB00030B589B008F078FD102204460021684660
:100AC00008F0B4FC204B00936946204B039304A824
:100AD000FFF7E2FF032094FBF0F000EB4000241A44
:100AE0000234E4B207EE904A9FED197AF8EE677A85
:100AF00067EE877A17EE900A14F08AF805460C46DE
:100B000006F01AFE134B5A6B22B993F838300BB12A
:100B100006F0AAFB1048FFF791FF04A90E48FFF763
:100B2000BBFF2A4623460B4806F071F806F01AFE72
:100B300004A8FFF783FF6846FFF780FF074B0122F9
:100B40001A7009B030BD00BF090A0008E45D010851
:100B500000247449501A0020781A0020491A0020F5
:100B600010B50446FFF78EFF204603F0B8F9204683
:100B700010BD000010B50C4C204606F003F82046CE
:100B80000A4B40F8283B1022002108F04FFC0123BB
:100B900084F83830064B23602046064A0649BDE8F3
:100BA000104003F02FB800BF501A0020807A0108CF
:100BB000F47A0108C8010020850A000838B51048F9
:100BC00007F0B4FA0446042000F016F9A0B9E0B228
:100BD0000C4C0D4923785A1CD2B20A28227001D03D
:100BE0000D280AD10025CD540848074908F008FB14
:100BF000042000F0EBF8257038BDC854FCE700BFB6
:100C0000D0230020472800200C1F00204124002072
:100C10002DE9F041194C1A4D2268531C06D02B685F
:100C20009A4209D11749184807F092FA4FF0FF335A
:100C300023602B60BDE8F0811449134807F088FA5F
:100C4000134B144893F800C027680678124A002313
:100C500019469E4692F80080B84506D1674508BF00
:100C6000012382F802E008BF1E460131042902F187
:100C70001502EFD1002BD9D00670D7E7D4010020A0
:100C8000D0010020F05D0108D0230020205E010883
:100C9000FB1E0020E41E0020EC23002030B50F4C8A
:100CA0000F4D207085B0297010220021684608F091
:100CB000BDFB0C4B009369460B4B0C480393002281
:100CC00006F0B2FC6846FFF7B9FE2A78217808489A
:100CD00005B0BDE8304008F011BC00BFFB1E00208D
:100CE000FA1E0020BD0B0008E45D0108142300205B
:100CF000505E010830B52E4C2E4D23782A78934251
:100D000085B01BD02C492D4807F022FA2378032BFD
:100D10004FF010024FF00001684619D108F086FB31
:100D2000274B0093274B039327480022694606F080
:100D30007BFC6846FFF782FE23782B702378092B13
:100D40000BD8DFE803F008171A1D202326292C2FC3
:100D500008F06CFBE8E700F05DFA2378032B24D160
:100D60002B78072B01D1FFF753FF05B0BDE83040CA
:100D700000F0A8B900F096FAEFE700F0C5FAECE74A
:100D800000F0A0F9E9E700F0F1FCE6E700F01CFC58
:100D9000E3E700F069FCE0E700F09EFCDDE700F02F
:100DA000E3FDDAE700F02AFED7E705B030BD00BF6B
:100DB000E51E0020402400207C5E0108D023002096
:100DC000BD0B0008E45D010814230020034A012341
:100DD00003FA00F01368184310607047901A00205F
:100DE000044901220B6802FA00F023EA00030B60B9
:100DF000704700BF901A0020012303FA00F0024B55
:100E00001B681840704700BF901A002038B50C4688
:100E100001460648154608F0F3F9054B1D70054BD1
:100E20001C70BDE838400220FFF7D0BF9C1A00209C
:100E30009C1E00209D1E00200520FFF7C7BF062036
:100E4000FFF7C4BF004870479C1A0020014B187878
:100E5000704700BF9C1E0020014B1878704700BFF0
:100E60009D1E0020014B1860704700BF941A00209F
:100E7000014B1860704700BF981A002010B50C4C49
:100E8000204605F07FFE20460A4B40F8283B102202
:100E9000002108F0CBFA012384F83830064B236098
:100EA0002046064A0649BDE8104002F0ABBE00BF2E
:100EB000A01E0020807A0108F47A0108C8010020F1
:100EC000850A00080123017083700021FF2342700E
:100ED000C17003711022053008F0A8BA70B505463C
:100EE0004E1E4418002E0DDD08F05EFB731C90FBB7
:100EF000F3F101FB130314F8012DE95C2170013EAD
:100F0000EA54EFE770BD0000F7B5002006F0D0FF0F
:100F100008F042FB01238DF80530042102238DF8EF
:100F20000630002403230DEB01008DF804408DF8FA
:100F30000730FFF7D3FF084F084E01AD304615F8D4
:100F4000012B17F8011B0134FFF7BCFF042C06F13D
:100F50001506F3D103B0F0BDCC5E0108EC230020F0
:100F600003289ABF024B53F820000248704700BF85
:100F7000BC5E01089C5E010810B5094B036003F1DB
:100F8000200280330446C0F8BC20C0F8C030BC301A
:100F900007F0A6F8204606F081FB204610BD00BFF2
:100FA0002C7B0108A0F1BC00E6E7A0F1C000E3E75C
:100FB00010B500230B4A19461846947824B154788A
:100FC000012C0CBF013001310133042B02F1150259
:100FD000F3D120B18842B4BF0020012010BD012010
:100FE000FCE700BFEC23002010B5FFF78DFF144B8A
:100FF000144800241C70144B1C70144B1C60144BC0
:10100000214640F206421C7008F010FA214640F2D8
:101010000642104808F00AFA214614220E4808F049
:1010200005FA0E4A0E490F484FF0FF3313600E4A7F
:1010300013600E4B1C70BDE8104007F089B800BF6C
:10104000E51E00200C1F002040240020E01E002090
:101050004728002041240020E61E0020D001002067
:10106000D05E0108D0230020D4010020E41E00201F
:1010700010B50446FFF780FF204602F030FF2046FF
:1010800010BDA0F1BC00F3E7A0F1C000F0E7000044
:1010900013B5094C4FF41653009303220023022189
:1010A000204605F07FFE054A0549204602B0BDE80E
:1010B000104002F0A7BD00BF14230020C80100208B
:1010C000790F00082DE9F043434B1B7885B04BB1F5
:1010D0004249434807F03CF8424B04221A7005B0DD
:1010E000BDE8F083404E41483378012B0CD106F027
:1010F00005FA0028F3D03A4807F018F800F0DF00AE
:101100005628ECD13A49E4E706F0F8F9B0B1344892
:10111000384C07F00BF8C1B20D2901D00A294FD184
:101120002368354935480025CD5408F0E7FD344B98
:1011300022681A7004202560FFF748FE0420FFF79C
:101140005BFE18B32F4D2E4FDFF8C480DFF8AC9054
:101150000024AB7853B12A783378934206D0012A21
:1011600004D0D8F800303978484698470134042C28
:1011700005F11505EDD1214A2349194806F0E8FF8C
:101180001F4B002220461A70FFF72AFE0220FFF7AD
:1011900033FE0028A3D0FFF755FE0446FFF75CFEA0
:1011A0000390FFF753FE039A1849009403460C4836
:1011B00006F0CEFF022005B0BDE8F043FFF710BEF9
:1011C0002368FE2BBAD85A1C22600B4A0448D1541B
:1011D00006F098FFB2E700BFE41E00202A5F010876
:1011E000D0230020E51E0020FB1E00201423002039
:1011F0006B5F010848290020482800200C1F0020B0
:1012000047280020EC230020945F01089F5F01081D
:10121000941A00201B4B1B6837B5BBB91A4B01222F
:101220001A700220FFF7E8FD0446B0B1FFF70AFE8E
:101230000190FFF70BFE01990246144808F05EF991
:10124000022003B0BDE83040FFF7CABD012BE8D152
:10125000FFF744F90C4B0222E2E70420FFF7CCFD34
:1012600070B10B490B480C4D08F048FD0B4B0C4A74
:1012700008481B681278297898472C700420E0E70A
:1012800003B030BDE01E0020E51E0020BF5F010856
:101290000C1F00204124002047280020941A002021
:1012A000FA1E0020F0B5124B1B78012B85B019D126
:1012B000FFF72AFE0F4D104F104E00242B78687850
:1012C0000393FFF74DFE22460090039B39463046BC
:1012D000013406F03DFF042C05F11505EED1084B55
:1012E00001221A60074B02221A7005B0F0BD00BF40
:1012F000FB1E0020EC230020E15F0108D02300202A
:10130000E01E0020E51E00202DE9F04FDFF83082BE
:10131000734E98F80030012B87B034D00220FFF7CD
:101320006BFD002800F0C980FFF78CFD0390FFF7EC
:101330008DFD0F286B4B0399054628BF0F25EDB295
:1013400004462A46184607F05BFF664B6649674825
:1013500000225A552246009406F0FAFE644B05938B
:10136000644B01221B68032105A898470220FFF760
:1013700037FD61495D4806F0EBFE022333605F4BA9
:1013800003221A709DE0D6F800A0BAF1010F40F0D8
:1013900094805B4D5B4F2B78002B3FD13B78002B2B
:1013A0003CD1594A1368032B38DC584CDFF8709154
:1013B0004FF0150B0BFB03F3E118E35C487889F859
:1013C0000030FFF7CDFD0146514808F097FC4E4A2A
:1013D0004F4910680BFB0040053008F08FFC4C4B68
:1013E00099F800204B49414806F0B2FE484808F001
:1013F000E7FC312806D948493C4807B0BDE8F04F22
:1014000006F0A6BE3B4B42481C6808F0D9FC99F890
:101410000020C1B23E48A04785F800A00220FFF797
:10142000EBFCF8B1FFF70EFD0446FFF70FFD0328B4
:10143000024614D12046394908F030FD044670B9FF
:101440002B7863B1364B37491A78284806F080FE6E
:101450000123354925482C703B7006F079FE0220A7
:10146000FFF7BEFC3B781BB3304806F047F8F8B1F5
:101470001E4806F05BFEC4B22D491C482346224696
:1014800006F066FE312C1FD12A49184806F060FE8E
:101490001D4A136801331360032B4FF000023A70AA
:1014A0002A7005DD1449114806F052FE022333600C
:1014B00098F80030012B7FF431AF3368022B3FF4F2
:1014C0005EAF07B0BDE8F08F0D2C01D00A2C04D11F
:1014D0001949064806F03CFEEAE71849F9E700BF5B
:1014E000E01E0020FC1E0020C2610108D023002065
:1014F00041434B00941A002026610108E51E00209C
:101500004C2900205429002050290020EC230020E1
:10151000E61E0020026001081E60010861600108EB
:10152000FA1E00206560010887600108142300206E
:10153000C0600108EA6001084B610108846101088C
:10154000FB1E00202DE9F041194A1A4C51681A4F30
:10155000DFF8708092B00546106802AB03C33822F2
:101560000021184607F062FF0026A37873B1637864
:10157000AB420BD022783B78934207D04146684675
:1015800008F0BEF9694602A808F020FA0136042ED8
:1015900004F11504E9D12846FFF7E2FC07490246A9
:1015A00002AB074806F0D4FD12B0BDE8F08100BFE1
:1015B000CD620108EC230020FB1E0020EB61010836
:1015C000D0230020E76101081A4B1B7810B5002BCF
:1015D0002ED11949194808F027FA48BB0120FFF716
:1015E000B1FF1749174806F0B3FD164806F09EFDF7
:1015F000A0F13003DBB2092B1AD8C0B2A0F130043D
:10160000224611490F4806F0A3FD104B104911481E
:101610001C6008F073FB104B0E48042119700F4B2F
:10162000E2B21A700E4B1B6898470E4B06221A70D6
:1016300010BD00BFE41E00207F620108FC1E0020D8
:1016400009620108D023002035620108D40100207E
:10165000496201084124002047280020FA1E00208A
:10166000941A0020E51E0020134B1B7810B51BB107
:10167000124B07221A7010BD1149124808F0D4F914
:101680000028F5D10320FFF75DFF0F490F4806F052
:101690005FFD0E4806F04AFDA0F13003DBB2092BD6
:1016A000E9D8C0B2A0F1300409490848224606F042
:1016B0004FFD084B1C60DBE7E41E0020E51E002008
:1016C000B35E0108FC1E00204E620108D0230020FA
:1016D00035620108D001002038B51A4B1B782BB9B0
:1016E00019491A4808F0A0F9044618B1184B03220A
:1016F0001A7038BD0220FFF725FF1649164806F07C
:1017000027FD154806F012FDA0F13003DBB2092BCE
:10171000EFD8C3B2114A303B152000FB04F18D18FD
:10172000895C99420AD169780D4B0E4A0A48012911
:1017300018BF1A460C4906F00BFDD7E70134042CFC
:10174000EBD1D3E7E41E0020AC5E0108FC1E0020B4
:10175000E51E002085620108D0230020EC23002034
:101760007B6201087F620108B56201082DE9F04F34
:101770006D4E6E4D347893B0002C31D1102221463D
:101780006B4807F053FE6B4B6B496C481C6006F0CE
:10179000DFFC2B78012B40F09E80694FDFF8BC8185
:1017A000DFF8B091BB78A3B13B78012B11D0D8F80A
:1017B0000000D8F8041098F80820D9F800A002AB6F
:1017C00003C302A81A7008F0FBFA3A78C1B202A863
:1017D000D0470134042C07F11507E3D101233370FE
:1017E0000220FFF709FBE8B1FFF72CFB0446FFF7E7
:1017F00033FB2B78012B024611D12378562B0ED1C7
:101800004B48637850F82310013140F823104948C1
:101810000168013101604B49484806F099FC0220FB
:10182000FFF7DEFA2B78012B52D1424B1B68022BBB
:101830004EDD434C3E48002322464FF0FF37194609
:1018400050F804CB8C4506DD92F802E0BEF1000FA3
:101850001CBF1F4661460133042B02F11502EFD174
:10186000DFF8F090DFF8F8A0DFF8F8B04FF00008EC
:10187000A378E3B17B1C51D03A46594602A808F040
:101880003FF82378BB4207D10023A3702B78BB42DB
:1018900002D12D4B01221A70D9F80030019302A811
:1018A00008F08EFA2278019BC1B202A8984708F18D
:1018B0000108B8F1040F04F11504D9D1FFF778FB42
:1018C000224B002814BF092205221A70002333700E
:1018D00013B0BDE8F08F1E49184806F039FC1748D0
:1018E00006F024FC0446C7B2303C14483946E4B242
:1018F00006F008FC092C3FF671AF56238DF808302E
:10190000144B8DF8094002A81B6801220221984758
:1019100011490A483A4606F01BFC5FE7514602A807
:1019200007F0EEFFB8E700BF55290020FB1E00209E
:101930005C290020582900200D630108D0230020D5
:10194000EC23002080630108E41E0020E51E002037
:1019500030630108941A002059630108F1630108FB
:10196000C5630108A76301082DE9F0471B4E3478D1
:10197000FCB91B481B4DDFF87C80DFF87C901A4FC8
:1019800007F0BCFD2A7898F800309A420AD0AB786C
:1019900043B13846D9F800A008F012FA2A78C1B24B
:1019A0003846D0470134042C05F11505EAD101234E
:1019B00033700220FFF720FA50B1FFF743FAFEF729
:1019C00029FF10B1094807F099FD0220FFF708FA36
:1019D000074B09221A70BDE8F08700BF6C29002070
:1019E000FA630108EC230020266401083064010832
:1019F000E51E0020FB1E0020941A00202DE9FF4167
:101A00001D481E4CDFF894801D4F1E4E07F076FDDA
:101A10000025227860780392FFF7A2FA0346A078A7
:101A2000039A002814BF41463946009130462946A2
:101A3000013507F063FD042D04F11504E9D11248C6
:101A400007F05CFD114B1B78012B12D1104807F0F9
:101A500055FD104805F052FD58B10F4806F066FBE1
:101A600000F0DF00592804D104B0BDE8F041FFF7D1
:101A7000BBBA04B0BDE8F0815D640108EC2300202E
:101A80005864010875640108A1640108FB1E002068
:101A9000BA64010814230020D023002052640108F6
:101AA0000FB407B5064B04AA1B6852F8041BD8688C
:101AB00001920BF077FD03B05DF804EB04B07047C2
:101AC0007C060020002000F05BBF00002DE9F04103
:101AD000BDF81C50B5F5806F06460C4690461F4673
:101AE00006D322482946FFF7DBFF0620BDE8F08138
:101AF000022000F0A1FC08B10720F7E731460220E0
:101B000000F0F6FC4FFA88F1022000F02DFD394676
:101B1000022000F047FD0699022000F061FD2146F9
:101B2000022000F0C7FC8EB90B3C012C12D8012119
:101B3000022000F0A1FC7DB90121022000F06EFD21
:101B400000F0D6FD0130D7D00020CFE7012E01D123
:101B50000C2CECD00021EBE70021022000F05EFD10
:101B60002946022000F078FDEAE700BFF36401088F
:101B70007047000084B038B504AC84E80F00022040
:101B8000DDE9085400F058FC20B10720BDE83840DA
:101B900004B070470C2C15D921461148FFF780FF7F
:101BA0000C21022000F086FCA5B90B3C012C15D8B5
:101BB0000121022000F060FC00F09AFD0130E4D029
:101BC0000020E3E7052CEFD821460548FFF768FF22
:101BD0000621E6E7012D01D10C2CE9D00021E8E730
:101BE000836501080FB407B5064B07491B6805AAB2
:101BF000D86801920BF0D6FC03B05DF804EB04B09A
:101C0000704700BF7C060020AC65010884B010B5A9
:101C100002AC84E80F009DF80D10012905D0BDE845
:101C20001040254804B0FFF7DDBF9DF82930332070
:101C30005BB301F009F840F04101C9B2332000F074
:101C4000F8FF19213B2000F0F4FF9DF827309DF8A4
:101C50002A402BB31D21112000F0EBFF402000F0A3
:101C6000F3FF00F03301402000F0E3FF00210F20DC
:101C700000F0DFFF00210D2000F0DBFFD4B10520D4
:101C8000BDE8104004B001F017B800F0DDFF00F02F
:101C9000BE0141F00101332000F0CBFF1D21D1E74F
:101CA0001F21112000F0C5FF402000F0CDFF00F003
:101CB0003F01D8E70620E3E7AC65010884B02DE9D1
:101CC000F04106AC84E80F000898BDF832609DF83A
:101CD0003450BDF842700B9CDDF8288000F0CCFF3A
:101CE0001D2000F0B1FF9DF831309DF8301041EA21
:101CF000C3019DF8363041EA881141EA430141EAC7
:101D00008501C9B21D2000F094FF1E2000F09CFF49
:101D1000C7F3012100F00C0041EA04110143C9B2EC
:101D20001E2000F086FFF9B21F2000F082FF310A6A
:101D3000202000F07EFFF1B2212000F07AFF25B1D3
:101D40009DF83510222000F074FF9DF837306BB1FC
:101D50004B2000F079FF60F07F01C9B24B2000F00A
:101D600068FF9DF83810242000F063FF062C4FF028
:101D700031000FD100F068FF00F0F80141F00501DB
:101D8000312000F056FF0C21BDE8F041372004B0AF
:101D900000F04FBF00F058FF00F0F80141F00301E0
:101DA000312000F046FF0A21EEE78021122000F0EA
:101DB00040BF4021122000F03CBF07B5122000F0C8
:101DC00043FF8DF807009DF80700C0F3401003B0F3
:101DD0005DF804FB2021122000F02BBF08B519206C
:101DE00000F032FF030643BF4042C0F3850040428B
:101DF00040F3870008BD84B010B502AC84E80F0042
:101E00009DF938401A2000F01FFF002CB8BF8B3C12
:101E10004FEA2013B8BF0019BDE81040A8BF8B38A7
:101E2000184400B204B0704738B50546132000F0DE
:101E30000BFF04460146284600F016FF204638BD39
:101E40000FB407B5064B04AA1B6852F8041BD868E8
:101E500001920BF0A7FB03B05DF804EB04B07047F0
:101E60007C06002008B528B90848FFF7E9FF4FF0C5
:101E7000FF3008BD402905D90548FFF7E1FF6FF0A5
:101E80000100F6E7BDE8084000F0CEBDEB650108B3
:101E900017660108F8B5074601200D4614461E4690
:101EA00000F0CAFA08B10720F8BD3946012000F059
:101EB0003DFB2946012000F01BFB71B2012000F020
:101EC00053FBBDF81810012000F06CFB07990120AE
:101ED00000F086FB2146012000F0ECFA65B90B3CCE
:101EE000012C0DD80121012000F0C6FA00F0D2FB30
:101EF0000130D8D00020D7E7012D01D10C2CF1D032
:101F00000021F0E784B038B504AC84E80F0001206C
:101F1000DDE9085400F090FA20B10720BDE8384010
:101F200004B070479DF91C0000F010FC50BB01206C
:101F300000F082FA0028F0D10C2C15D92146124865
:101F4000FFF77EFF0C21012000F0B4FAA5B90B3C8D
:101F5000012C15D80121012000F08EFA00F09AFB27
:101F60000130DAD00020D9E7052CEFD82146064809
:101F7000FFF766FF0621E6E7012D01D10C2CE9D021
:101F80000021E8E70120C9E7836501080FB407B520
:101F9000064B07491B6805AAD86801920BF002FBA3
:101FA00003B05DF804EB04B0704700BF7C0600206E
:101FB0005166010884B070B504AC84E80F000920B4
:101FC0009DF9404000F040FE06465A2000F03CFEDD
:101FD0009DF8103003F0FD03012B14BF0023802374
:101FE000054606F07F001843030600F0F00127D5F0
:101FF000112CCBBF45F0070505F0F805EDB245F013
:10200000040505F00703072B12D1142CA8BF1424D4
:10201000052CB8BF0524631F1943C9B2092000F07D
:1020200008FE2946BDE870405A2004B000F001BE09
:10203000112CA8BF1124022CB8BF0224A31EEBE769
:102040000E2CA8BF0E2444EAE47401342143E4E7D3
:1020500084B008B50DF1080C8CE80F009DF80D1048
:10206000012905D0BDE80840124804B0FFF78EBF33
:102070009DF827309BB1F521112000F0DAFD4020BA
:1020800000F0E2FD00F03301402041F0400100F09B
:10209000D0FDBDE80840032004B000F00DBEF721DC
:1020A000112000F0C6FD402000F0CEFD00F03F0101
:1020B000EAE700BF5166010884B02DE9F0418AB01B
:1020C00010AC84E80F009DF94C30089314AD0FCD8F
:1020D0006C46159EBDF85A70DDF850800FC495E827
:1020E0000F0084E80F0010AB0FCBFFF763FF1298CF
:1020F00000F0C2FD9DF85F306BB14B2000F0A4FDF5
:1021000060F07F01C9B24B2000F093FD9DF8601094
:10211000242000F08EFD1D2000F096FD9DF8593022
:102120009DF8581041EAC3019DF85C3041EA8811DE
:1021300041EA83019DF85E3041EA4301C9B21D20A6
:1021400000F077FD1E2000F07FFD00F00F0141EA56
:102150000611C9B21E2000F06CFD390A202000F0E3
:1021600068FD2120F9B200F064FD062E4FF0310029
:1021700010D100F069FD00F0F80141F005013120B7
:1021800000F057FD0C2137200AB0BDE8F04104B043
:1021900000F04FBD00F058FD00F0F80141F00301E0
:1021A000312000F046FD0A21EDE70821122000F061
:1021B00040BD08B568B1332000F046FD00F0BE0117
:1021C000332000F036FD19213B20BDE8084000F027
:1021D00030BD332000F038FD00F0BE0141F00101B8
:1021E000332000F026FD1D21EEE738B504462220FD
:1021F0000D4600F01EFD00210E2000F01AFD00210A
:102200000D2000F016FD012000F01EFD30F0F80357
:1022100004D100F07FFD012005F03EFD2946204657
:10222000BDE8384000F01BBD0FB407B5064B04AA4B
:102230001B6852F8041BD86801920BF0B3F903B085
:102240005DF804EB04B070477C06002010B50A4C22
:1022500021788142024605D00848FFF7E5FF4FF09C
:10226000FF3004E0022001F003F808B9207010BD2F
:102270000348FFF7D9FFF2E7E8290020856E01083F
:10228000DB6E010808B5044804F0D9FC00F045FDF8
:10229000024B01221A7108BD78290020B8290020BC
:1022A00013B5174C2379022B03D0032B19D002B09E
:1022B00010BDFFF75DFCFFF7E5FF032000F0D8FF3E
:1022C000012808D000230F4A0093146819461A46C3
:1022D0000120A047EBE70C4802B0BDE81040FFF733
:1022E000A3BF204600F05CFD94F8280000F049FDF3
:1022F0000123237102B0BDE8104000F0E9BF00BF28
:10230000B8290020EC2900205B6E01082DE9F0417E
:10231000354C267988B046B134483146FFF784FF02
:102320004FF0FF3008B0BDE8F081314B1860314B01
:1023300031481960FFF778FF4FF4807006F0FAFE1D
:102340002E4B186028B92E48FFF76EFF6FF0010082
:10235000E8E74FF4FA6262620E2222730B22294BE5
:10236000626108224FF00108A36062830423052202
:10237000204684F820306285237084F80580267713
:10238000E67784F81E8084F82160266184F819803D
:10239000667784F8228084F8288000F001FD2546C5
:1023A000014605F8100B1848FFF73EFF0FCD6F46AA
:1023B0000FC795E80F0087E80F0094E80F00FFF7BC
:1023C000A1FDA5F1100CBCE80F006F460FC795E802
:1023D0000F0087E80F0094E80F00FFF7CBFB84F8AD
:1023E000048030469EE700BFB829002052670108EC
:1023F000F0290020EC290020A367010870290020A3
:10240000D06701082021F6360A68010808B50420C3
:1024100000F02EFF012805D10648FFF705FF4FF019
:10242000FF3008BDFFF72EFF022000F021FF002043
:10243000F7E700BF2068010838B5054618B90A4813
:10244000FFF7F2FE05E0094C217829B10848FFF7B3
:10245000EBFE4FF0FF3004E0084600F009FF08B93A
:10246000257038BD0348EBE7306C0108E8290020EF
:102470006D6C0108B06C010838B504460D4600F0DB
:1024800021FF0128084B06D11A78A24203D1074B3D
:1024900000201D7638BD06481A782146FFF7C4FE95
:1024A0004FF0FF30F6E700BFE8290020B8290020F0
:1024B000D16B010838B504460D4600F003FF012832
:1024C000084B06D11A78A24203D1074B00205D6168
:1024D00038BD06481A782146FFF7A6FE4FF0FF30B8
:1024E000F6E700BFE8290020B8290020726B010838
:1024F00038B504460D4600F0E5FE0128084B06D12C
:102500001A78A24203D1074B00201D6138BD06484E
:102510001A782146FFF788FE4FF0FF30F6E700BF3C
:10252000E8290020B8290020E46C010838B50446E9
:102530000D4600F0C7FE0128084B06D11A78A242CA
:1025400003D1074B00201D7338BD06481A78214679
:10255000FFF76AFE4FF0FF30F6E700BFE8290020E2
:10256000B8290020F669010838B504460D4600F088
:10257000A9FE0128084B06D11A78A24203D1074BC5
:1025800000205D7638BD06481A782146FFF74CFEDC
:102590004FF0FF30F6E700BFE8290020B8290020FF
:1025A000136B010838B504460D4600F08BFE012878
:1025B000084B06D11A78A24203D1074B00205D8355
:1025C00038BD06481A782146FFF72EFE4FF0FF303F
:1025D000F6E700BFE8290020B82900203D6D01087A
:1025E00038B504460D4600F06DFE0128084B06D1B3
:1025F0001A78A24203D1074B00209D6038BD0648DF
:102600001A782146FFF710FE4FF0FF30F6E700BFC3
:10261000E8290020B8290020FD6D010838B50446DE
:102620000D4600F04FFE0128084B07D11A78A24250
:1026300004D1074B002083F8225038BD05481A7892
:102640002146FFF7F1FD4FF0FF30F6E7E8290020C3
:10265000B82900209F6D010838B504460D4600F0EA
:1026600031FE0128084B06D11A78A24203D1074B4C
:1026700000205D8538BD06481A782146FFF7D4FD55
:102680004FF0FF30F6E700BFE8290020B82900200E
:10269000B66A0108F0B589B000F014FE0128114BAC
:1026A00018D11F78012F15D10F4E06F1100500F03B
:1026B00037FB0FCD6C460FC495E80F0084E80F0080
:1026C00096E80F00FFF7F8FC3846FFF7BFFD002043
:1026D00009B0F0BD05481978FFF7A6FD4FF0FF30AF
:1026E000F6E700BFE8290020B82900209269010818
:1026F000F0B589B000F0E6FD0128114B18D11F7824
:10270000022F15D10F4E06F1100500F009FB0FCD79
:102710006C460FC495E80F0084E80F0096E80F00A0
:10272000FFF7CCFA3846FFF791FD002009B0F0BD65
:1027300005481978FFF778FD4FF0FF30F6E700BF46
:10274000E8290020B82900202E690108F0B58BB0D7
:10275000044600F0B7FD0128104B17D11F78012F58
:1027600014D10F4E089406F110050FCD6C460FC41E
:1027700095E80F0084E80F0096E80F00FFF71AFCB9
:102780003846FFF763FD00200BB0F0BD054819780F
:10279000FFF74AFD4FF0FF30F6E700BFE8290020C1
:1027A000B8290020526A01080E4B1B79022B13B581
:1027B00010D1FFF7FAFAFFF765FD032000F058FD8E
:1027C000012809D00023084A0093146819461A46C4
:1027D0000120A04702B010BD044802B0BDE810407F
:1027E000FFF722BDB8290020EC2900204868010825
:1027F0002DE9F041454E3479022C8AB067D1FFF7BC
:10280000D8FAFFF7DAFA012829D1FFF7E3FA96F8A8
:102810002250ADB9FFF736FD032000F029FD012855
:1028200008D03B4B00951E682A462B462946204679
:10283000B04711E037480AB0BDE8F041FFF7F4BCFB
:1028400000F040FD0328F5D10023314A00931568BC
:1028500019461A462046A8470AB0BDE8F081FFF79E
:10286000BDFA06F11005089007460FCD6C460FC45F
:1028700095E80F0084E80F0096E80F00FFF7BBFA19
:10288000254C80462068FFF7CFFA96F8226005466F
:102890008EB9FFF7F7FC032000F0EAFC012808D00E
:1028A0001B4B00971F68216843462A463046B847AD
:1028B000D2E71A48BFE700F005FD0328F9D1144B11
:1028C00000971E68216843462A460020B0E7032C83
:1028D00014D1134804F0B3F9FFF767FCFFF7D2FCFB
:1028E000204600F0C5FC012806D00E4B1B680020D6
:1028F0000AB0BDE8F04118470B489CE70B48214659
:102900000AB0BDE8F041FFF78FBC00BFB829002036
:10291000EC2900208B66010870290020C766010899
:1029200078290020F0290020026701083667010895
:102930002DE97043044699460D46904604F0FCFE8E
:10294000636B23B994F838300BB104F08DFC04F1BB
:102950002806AE420BD03046FEF770F83EB1EB6869
:102960001BB15B68294630469847EB686363424673
:102970004B46204604F04BF9BDE8704304F0F2BE2C
:10298000F0B506468DB0012000F072FC012806D19A
:102990001E48FFF749FC4FF0FF300DB0F0BD1C4B57
:1029A0001C4F18684FF48072002107F1100506F0E3
:1029B0003DFD0FCD6C460FC495E80F0084E80F0075
:1029C00097E80F00FFF722F902233B71E6B11022CE
:1029D000002108A806F02AFD0F4B089330460F4B44
:1029E0000B9311F023FD00220D4B11F099FD12F015
:1029F0002FF902460B460B4808A9FFF799FF08A8D4
:102A0000FEF71CF80020C8E73046C6E777680108E3
:102A100070290020B8290020A1220008E45D0108E7
:102A200000408F4078290020F0B5304C2379032BEB
:102A30008FB006460D4606D12D48FFF7F5FB4FF047
:102A4000FF300FB0F0BD042000F012FC0128F3D0DD
:102A5000FFF718FC0A2005F01FF9022000F008FC1F
:102A6000012000F005FC012801D12248E5E7637947
:102A70001BB1012B03D000270CE01F48DDE794F8C1
:102A80002100FFF796FB2946304684F82E50FFF7C9
:102A9000ACFB676A194E08970FCE6D460FC596E8D6
:102AA0000F0085E80F0094E80F00FFF7D1FA032329
:102AB000102200210AA8237106F0B8FC104B0A93DB
:102AC0003846104B0D9311F0B1FC00220E4B11F063
:102AD00027FD12F0BDF802460B460C480AA9FFF785
:102AE00027FF0AA8FDF7AAFF0020AAE7B8290020BF
:102AF0009E680108CE680108F5680108C829002011
:102B0000A1220008E45D010800408F4078290020E0
:102B100010B50C4C204604F035F820460A4B40F81E
:102B2000283B1022002106F081FC012384F8383074
:102B3000064B23602046064A0649BDE8104001F0D6
:102B400061B800BF78290020807A0108F47A010872
:102B5000C8010020850A000810B50446044B40F85F
:102B6000B83BD4F8C4300BB19B689847204610BDE1
:102B7000107C01080FB407B5064B07491B6805AA6E
:102B8000D86801920AF00EFD03B05DF804EB04B0C2
:102B9000704700BF7C0600203E6F0108F8B50D4C61
:102BA0000D4F23681646E2681B040D46136040F083
:102BB0008001094804F086FA013D2E44B54205D053
:102BC00015F8011F384604F07DFAF7E7A36822687C
:102BD0001A60F8BDB02A0020E82A0020F8B50E4C93
:102BE0000E4F23681646E2681B040D46136000F082
:102BF0007F010A4804F066FA013D2E44B54206D032
:102C00000021384604F05EFA05F8010FF6E7A368E4
:102C100022681A60F8BD00BFB02A0020E82A002010
:102C200010B50446FFF798FF204601F058F92046FA
:102C300010BD07B502AB012203F8011D1946FFF7CD
:102C4000ADFF03B05DF804FB07B501220DF10701EC
:102C5000FFF7C4FF9DF8070003B05DF804FB0A46C8
:102C600001460020FFF79ABF0A4601460020FFF701
:102C7000B5BF00000000000010B511F0D7FB0CA399
:102C8000D3E9002311F076FD11F022FF0446C0F3D2
:102C900007410620FFF7CDFFC4F307210720FFF708
:102CA000C8FFE1B20820BDE81040FFF7C2BF00BF77
:102CB0000000000080844E40144910B50A78044694
:102CC00090B932B901230B70114BDA681B681B04F1
:102CD00013600120FFF7B8FF00F0F8012143012045
:102CE000BDE81040FFF7A5BF094B2AB11A680020C4
:102CF0000870D96812040A60032C1A6803D0DB68D4
:102D000012041A60E5E79B68FBE700BFC42B0020B4
:102D1000942A00200120FFF7CFBF0020FFF7CCBF8F
:102D200010B504460120FFF78FFFC0F3C0108442A6
:102D300026D0012C13D0FFF7F0FF0120FFF784FF0E
:102D400000F07F010120FFF774FF00214020FFF712
:102D500070FF30214120BDE81040FFF76ABFFFF748
:102D6000DCFF2046FFF770FF60F07F01C9B220460C
:102D7000FFF75FFF00214020FFF75BFF0021E9E73D
:102D800010BD10B504460120FFF7CAFF2CB1342155
:102D90003920BDE81040FFF74CBF1221F8E70000D2
:102DA0002DE9FF47594C054604F0C6FC0121204699
:102DB00000F000FC04F0D6FC2368E2681B041360FA
:102DC000012004F069FF04F0B7FC2046002100F068
:102DD000F1FB04F0C7FC062004F05EFF2E784C4C9B
:102DE000042E1CD104F0A8FC0021204600F0E2FBD8
:102DF00004F0B8FC012004F04FFF63681A682368F0
:102E00001A4214BF0126002604F096FC2046012138
:102E100000F0D0FB04F0A6FC012004F03DFF236885
:102E2000E2683C483C4C1B0413603C4B9A681B68AE
:102E300013600821002204F023F9394804F01EFF32
:102E40000020FFF739FF1022ACBB2146684606F090
:102E5000EDFA69463348344C04F021F86846FDF732
:102E6000EDFD10227CBB2146684606F0DFFA69467C
:102E70002E48DFF8C8802E4C04F011F86846FDF7A4
:102E8000DDFD4FF0030900235F1CDBB2D8F8002002
:102E9000B2FBF9F29A421ED903EB430304EB030A97
:102EA000E05CFFF73DFF9AF802109AF80100FFF787
:102EB000C0FE3B46E8E70021684606F0B7FA1D4B26
:102EC00000940393C5E70021684606F0AFFA194B5A
:102ED00000940393CBE76879174CFFF721FF95F82F
:102EE0002800FFF74EFF4220FFF7AEFE38B920461C
:102EF000FFF740FE4FF07E5004F0C0FEF3E7A868F5
:102F0000FFF7BAFE304604B0BDE8F087CC2A0020B7
:102F1000942A0020E82A0020F1270008B02A002087
:102F2000CDCCCC3DF4290020A9270008442A00205C
:102F30000B6F0108E45D01083E6F0108D801002015
:102F400073B5224D224C234E0A21284603F04CFF34
:102F50002846214D2246314600F054FE13212846D2
:102F600003F042FF2246314628461C4D00F04AFE3F
:102F70004FF0FF330093062205230721284604F073
:102F8000D3F822461649284600F03CFE154B1C2477
:102F900022461846002106F049FA162103F0DAFE0F
:102FA000114B22461846002106F040FA002103F09A
:102FB000BEFE0E4B22460021184606F037FA2121AC
:102FC00002B0BDE8704003F0B2BE00BFF42900209B
:102FD000C8010020416E0008442A0020E82A002091
:102FE000592B0008B02A0020CC2A0020942A002067
:102FF0000FB407B5064B04AA1B6852F8041BD86827
:1030000001920AF0CFFA03B05DF804EB04B0704708
:103010007C06002013B5084B0024CDE900340122C2
:10302000082307212046FEF751FDFEF74BFD034B19
:103030001C7002B010BD00BF2021F636C52B002049
:1030400010B5044648B9FFF7E1F9FFF7E3FF084B75
:103050001B682046BDE810401847012807D1FFF73C
:10306000D5F9FFF7D7FF024B02201B68F2E710BD2E
:10307000082C00202DE9F041884615461F469DF991
:10308000186000283BD1202A03D92648FFF7B0FF5B
:103090002025254C2A464146204606F0B1F8234B10
:1030A0001F80234B1E7026782746FEB9214BA4783B
:1030B0001B78A34201D0FF2C1BD1A4F1FF035C427B
:1030C0005C4101261C4B1B78ABB9FFF79FF9FFF75A
:1030D000A1FF012E24D1194B787819492A1F1D68A8
:1030E000D2B22346AC46BDE8F041604700242646F4
:1030F000E8E73446E6E71348FFF77AFFE9E70138E7
:1031000001280DD80C4B1B782BB9FFF77FF9BDE8D0
:10311000F041FFF77FBF0B48BDE8F041FFF768BF04
:10312000BDE8F0814B700108C62B0020122C002056
:10313000102C0020142C0020C52B00200C2C00206B
:10314000CA2B0020907001080A4B10B518700A4B6A
:1031500019600A4B0A491A6004460A48FFF7D6F874
:10316000094B00225C701A70FFF750F9BDE810405F
:10317000FFF750BF142C0020082C00200C2C00203E
:103180007530000841300008E62B0020F7B5184FD5
:103190003C7834B117482146FFF72AFF012003B0DD
:1031A000F0BD1C2905D914482022FFF721FF032078
:1031B000F5E7124D0E1DAA70F6B20A460146281D0B
:1031C0002C70EE7006F01CF8FFF720F90C4A08236B
:1031D000CDE900322146012307220E20FEF75AFED8
:1031E00031462846FEF73EFE01233B702046D6E7D7
:1031F000C52B0020606F0108A16F0108E62B00209D
:103200002021F636014BB3F900007047122C002044
:10321000014B93F900007047102C002010B5074BAC
:103220001C78012C05D106482146FFF7E1FE204617
:1032300010BD044B18700020FAE700BFC52B00201A
:10324000EB6F0108142C00200FB407B5064B07499B
:103250001B6805AAD86801920AF0A4F903B05DF8CA
:1032600004EB04B0704700BF7C0600200571010824
:1032700037B501460D480E4A037803EB83052A440F
:10328000545C012C06D00B4B2B445B5C0370204636
:1032900003B030BD0848642202FB030000900748D9
:1032A00002FB01020648FFF7CFFFF0E7152C0020D4
:1032B000F1700108DD700108D0030020DC0100205E
:1032C00005710108014B1878704700BF152C0020CC
:1032D000014B00221A707047152C002043692DE91C
:1032E000F0410D46D907044628D58168334F8268DE
:1032F000334E836833483940B94202EA060204BFBC
:103300000127A760B24203EA000304BF4FF48076AE
:10331000A660834204BF4FF48030A06027488142FA
:1033200005D027498A4202D0264A934206D1264B2D
:10333000264A1B6852F8250001219847E268636914
:10334000920708D09F0706D51F4B204A1B6852F8EA
:10335000250000219847A169626963698E070AD533
:10336000900508D5190406D5174B184A1B6852F862
:10337000250005219847A7696669626917F0040767
:1033800006F4806609D046B1120406D50E4B0F4AEA
:103390001B6852F825000721984763695FB156B151
:1033A0001B0408D5084B094A1B6852F82500022166
:1033B000BDE8F0411847BDE8F08100BF03000004FC
:1033C0000003000800000310202C0020182C00200F
:1033D00000210148FFF782BF00640040FFF7F8BFFB
:1033E000FFF7F6BF01210148FFF778BF00680040F2
:1033F000FFF7F8BFFFF7F6BF30B5036891FAA1F405
:10340000B4FA84F491FAA1F10325B1FA81F16400D0
:1034100005FA04F4490023EA040302FA01F119430E
:10342000016030BD00B5002389B007286FD8DFE800
:1034300000F00413202D3A4754610093364B37486F
:103440001A6B42F001021A631B6B03F00103009335
:10345000009B09B05DF804FB01932F4B30481A6BB9
:1034600042F002021A631B6B03F002030193019BFB
:10347000EFE70293284B2B481A6B42F004021A63C1
:103480001B6B03F004030293029BE2E70393224BBE
:1034900025481A6B42F008021A631B6B03F00803FD
:1034A0000393039BD5E704931B4B20481A6B42F010
:1034B00010021A631B6B03F010030493049BC8E70C
:1034C0000593154B1A481A6B42F020021A631B6BC6
:1034D00003F020030593059BBBE706930E4B1548AD
:1034E0001A6B42F040021A631B6B03F04003069311
:1034F000069BAEE70793084B0F481A6B42F0800219
:103500001A631B6B03F080030793079BA1E70B482B
:1035100004F07AFC00209CE70038024000000240E2
:103520000004024000080240000C0240001002406B
:103530000014024000180240001C0240D873010829
:10354000431C10B5044604D176220649064803F010
:10355000CBFE2046002100F00DFE04F00F040120F8
:10356000A04010BDF97301085374010870B50446FA
:103570004B1C0E46218216D0C1F30310FFF752FFF9
:1035800005463046FFF7DCFF238A074A656103F0F2
:103590000F03206052F82330A36105F110031835A2
:1035A0006360A560E56070BD10770108B0F9100098
:1035B00000F078BE0A4619B981694069FFF71CBF5F
:1035C0000122F9E74C23F0B54343224E224F1A1D46
:1035D000324400244FF0010E1E448C4205D10146B6
:1035E000BDE8F0401D4804F00FBC33680EFA04F546
:1035F0001D422BD0136B7D690EFA03F32B4225D0AD
:10360000D2F818C07B61156805B3FA6833EA020284
:1036100003D1BA6833EA020214D10F4A916833EA3F
:10362000010103D1D26833EA02020DD1DCF8102087
:10363000134214BF01210221094B28461B68BDE833
:10364000F04018470221F7E70121F5E70134043281
:10365000C3E700BF242C0020003C01408D7401080A
:10366000382E002006210846FFF7ACBF052108468A
:10367000FFF7A8BF01210420FFF7A4BF0121032009
:10368000FFF7A0BF01210220FFF79CBF01210846E0
:10369000FFF798BF01210020FFF794BF012910B563
:1036A00018D11B4C838952B1A26803F00F039940D3
:1036B0001143A160836843F00103836010BDA268D9
:1036C00003F00F03994022EA0101A160836823F00F
:1036D0000103F2E70229F1D10D4983895AB1CC687F
:1036E00003F00F03012202FA03F32343CB60836844
:1036F00043F00203E1E7CA6803F00F03012404FA70
:1037000003F322EA0303CB60836823F00203D4E7C8
:10371000003C0140B0F90C3099B270B501F00F06D1
:1037200006F00C0404F1804404F59C3401F003011C
:10373000A56889000F228A40C3F3031325EA020516
:103740008B402B43A3600F4B01221968B2401143F9
:1037500019608468E50742BF996811439960A10721
:1037600042BFD9680A43DA6090F90030002B08DBC9
:103770005909012203F01F0302FA03F3024A42F837
:10378000213070BD003C014000E100E02DE9F04F28
:1037900092464A1C85B080460C4666D000220392B1
:1037A000334A344F516C41F480415164526C02F4FD
:1037B00080420392039A04F00F090C2202FB097263
:1037C000C4F303105568062D47D8DFE805F0043A26
:1037D0003C3E40424400284E0193FFF723FE0C215B
:1037E00001FB09F17A1857F801E0244FA8F80C40C2
:1037F0004C21694301247B5892F90820C8F80450F1
:1038000004FA0EF44FF0000B1C4388F80020C8F8AF
:1038100008B07C50132101FB05E507EB8501019BF6
:103820004B60174BC861C3F800A0164BC1F8349029
:103830009B681032404643F82260FFF76BFF584602
:1038400010E0114EC8E7114EC6E7114EC4E7114E05
:10385000C2E7114EC0E7114EBEE7114804F0D4FA9A
:103860004FF0FF3005B0BDE8F08F0846FAE700BF23
:1038700000380240B874010895360008242C002056
:10388000382E002000ED00E08D3600088536000857
:103890007D360008753600086D360008653600086C
:1038A000667401088389184A03F00F03012110B5DB
:1038B00001FA03F39468DB431C409460D4681C4015
:1038C000D46014682340136090F90030002B0CDBA7
:1038D0005A0903F01F0301FA03F320320B4941F8A0
:1038E0002230BFF34F8FBFF36F8F90F90030002B62
:1038F00009DB5A09012103F01F0301FA03F36032C7
:10390000024941F8223010BD003C014000E100E0D6
:10391000838903F00F020C235343104A70B54468A7
:10392000D658FFF7BFFF4C210D4A6143012000FA32
:1039300006F55058132303FB046320EA050050509A
:1039400002EB830000214160981D0C3302EB8000E4
:1039500002EB83034160596070BD00BFB874010879
:10396000242C002008B503F07DF8002008BD0000DD
:1039700008B50A4B1B684BB103F0F0F904F001F9EC
:103980004FF47A72002311F013F908BD03F0BEF86A
:103990004FF47A73B0FBF3F008BD00BF3C2E00205B
:1039A00010B588B003F0C8FE052101A803F0D2F9D4
:1039B0000424039B019A1A60962004F06DF9019B80
:1039C000049A1B041360962004F066F9013CF0D1C0
:1039D0000424039B019A1A604FF4C87004F05CF948
:1039E000019B049A1B0413604FF4C87004F054F94F
:1039F000013CEED1DCE7000070B50D46A0B00446F6
:103A000003F09AFE2B462246802168460BF018FAF6
:103A1000051E03DC03F0A6FE20B070BD094B1B6839
:103A200023B903220221084800F090FE064E00242C
:103A30001DF804103046013401F06AF8A542F7D1B0
:103A4000E8E700BF842E00202C3000200FB407B51B
:103A500004A951F8040B0191FFF7CEFF03B05DF804
:103A600004EB04B07047000008B502F0A9FF01F0B4
:103A7000ADF802F095FF02F0A3FF024B01221A609D
:103A800008BD00BF3C2E00200020704703680122C3
:103A90001B6900211847036800221B69114618475B
:103AA00003681B69184703689B69184703689B6A8A
:103AB000184700290CBF6FF0180000207047012044
:103AC00070471120704770476FF01C0070476FF00F
:103AD00015007047012070470020704770470000B4
:103AE000F8B5074E15460C468F18BC4205D014F8A1
:103AF000011B304601F00CF8F7E72846F8BD00BF7F
:103B00002C30002038B58DB215F0010405D00848DE
:103B100000F098FD041C18BF0124EB0605D50448ED
:103B200000F0A6FD08B144F01004204638BD00BFE7
:103B30002C30002010B5044605F004FB204610BDD3
:103B400010B50C462AB1044800F0D0FF20700120C7
:103B500010BD104610BD00BF2C30002038B51D46EA
:103B6000074B0360074B1B68044633B9064800F057
:103B7000EDFD2946044800F0B1FD204638BD00BFE8
:103B8000F4750108842E00202C300020002070479E
:103B90000020704708B5012000F036F80C4A136881
:103BA00010B51844EFF30881884205D3094B0C2265
:103BB0001A604FF0FF3010BD07490C6824B1074967
:103BC000096821448842F1D21060184610BD00BF38
:103BD00060060020F42F0020502E0020542E0020DC
:103BE000074C08B523680546986804F06BFC236809
:103BF000D86804F067FC0DB1FFF7D2FEFEE700BF06
:103C00007C0600200120704708B5FFF7E9FF01207E
:103C10007047002105F094BD04F08EBC70477047DA
:103C200008B5FFF7FBFF08BD08B5FFF7F8FF08BDB3
:103C300010B5037803F00303012B04460CD02BB11D
:103C400040F2A9520549064803F04EFB237843F0A1
:103C500002032370012010BD002010BD3C76010836
:103C60009376010810B5037803F00303022B044692
:103C700005D040F2B1520549054803F035FB2378E1
:103C800023F0030343F00103237010BD3C760108C9
:103C9000B97601083F2870B504462FDC184D55F859
:103CA00020305A1C13D1022811DCFFF771FF0346A4
:103CB00058B92046FFF76AFF034630B9114E3378F2
:103CC000BFF35B8FDB0704D50F4B45F82430184654
:103CD00070BD3046FFF7ACFF0028F5D04FF4165307
:103CE000032202210848FFF739FF3046FFF7BAFFE9
:103CF000064A07490448FFF785FFE5E70023E6E7A2
:103D000060050020402E00204C2E0020C80100201D
:103D1000DD3A000838B50546FFF7BCFF0B4B002421
:103D200043F8254030B904F093FA092303604FF0BB
:103D3000FF3038BD03685B699847051E04DA04F05C
:103D400087FA6D420560F2E7204638BD6005002025
:103D5000FFF7E0BF38B50C461546FFF79BFF38B9B3
:103D600004F076FA092303604FF0FF34204638BD93
:103D700003682146DB682A469847041EF6DA04F0F9
:103D800067FA64420460EFE708B5131E06DA04F030
:103D90005FFA162303604FF0FF3008BD04D0FFF731
:103DA000D9FF40EAE07008BD184608BD38B50C469A
:103DB0001546FFF76FFF38B904F04AFA092303608C
:103DC0004FF0FF34204638BD036821469B682A46E1
:103DD0009847041EF6DA04F03BFA64420460EFE709
:103DE000002A08B503DBBDE80840FFF7DFBF04F099
:103DF0002FFA162303604FF0FF3008BD10B5FFF710
:103E000049FF044628B904F023FA09230360204639
:103E100010BD0368DB699847041EF8DA04F018FA4D
:103E2000644204600024F2E71FB504220C464023DC
:103E30000DEB020101900DF109008DF8083005F03D
:103E4000DFF9214602A804F005FD044630B10198CF
:103E5000FFF7D4FF10B12046FFF7DBFE204604B089
:103E600010BDFFF7CBBF38B50C461546FFF712FF64
:103E700038B904F0EDF9092303604FF0FF34204610
:103E800038BD036821461B692A469847041EF6DAA6
:103E900004F0DEF964420460EFE7FFF7E4BF38B5F1
:103EA0000D46FFF7F7FE044630B904F0D1F90923B7
:103EB00003604FF0FF3038BD0368DB699847002886
:103EC00014BF4FF400534FF400436B602368204647
:103ED0009B6A98472861002038BDFFF7E0BF05F0D6
:103EE00031B90000034610B553F8042B044602B95B
:103EF000036022689A4204D05E220349034803F01B
:103F0000F3F9206810BD00BF78750108D775010866
:103F100010B504460948FFF7E5FF0023084A194693
:103F200052F82300A04208BF42F823100133402B6F
:103F3000F6D10248FFF7D6FF10BD00BF442E002087
:103F40006005002010B50F48FFF7CCFF0E4B03248F
:103F500053F824206AB10134402CF9D104F078F9E7
:103F6000182303600748FFF7BDFF4FF0FF342046DA
:103F700010BD4FF0FF32034843F82420FFF7B2FF93
:103F8000F5E700BF442E00206005002010B5044670
:103F9000FFF7D8FF0028A4BF014B43F8204010BD15
:103FA0006005002070B506460C46FFF7EFFF05469A
:103FB00090B12146FFF738FF044630B9074B53F85C
:103FC0002520964203D143F82500204670BD04F019
:103FD0003FF909230360F8E70446F6E7600500208F
:103FE0000EB42DE9F04185B00546FFF7ABFF041E86
:103FF00013DB0023294602A8019303F0D9FD02A890
:1040000003F028FE1B4D064668B904F021F913237E
:10401000036045F824604FF0FF34204605B0BDE84A
:10402000F04103B0704702A803F002FE074602A861
:1040300037B103F006FE0190019B45F82430ECE710
:1040400003F0EDFD06460028DFD0036802A8D3F890
:10405000088003F0D9FD0B9B024601A93046C047FA
:1040600006460028E8D004F0F3F87642066045F8EA
:104070002470D0E76005002073B50E461849054648
:1040800005F0D2FC044620B9FFF704FE204602B03A
:1040900070BD1449284605F0C7FC20B90120FFF780
:1040A000F9FD0124F2E71049284605F0BDFC20B9CE
:1040B0000220FFF7EFFD0224E8E72B78402B07D121
:1040C0000422691C0DEB020005F09AF8019CDDE763
:1040D00026F400412846FFF783FF0446D6E700BFD9
:1040E0000077010807770108F876010870477047E4
:1040F000074B08499A68084810B5043A52F8044F2B
:1041000041F8044F8142F9D14FF000529A6010BD3E
:1041100000ED00E0FCFFFF1FC001002008B5FFF725
:10412000E7FFFFF7A1FCFFF7E2FF08BD08B5FFF7C7
:10413000DDFFBDE80840FCF7A3B830B5C36891FACD
:10414000A1F4B4FA84F491FAA1F10325B1FA81F152
:10415000640005FA04F4490023EA040302FA01F1B9
:104160001943C16030BD012A02D0022A18BF0022C3
:10417000FFF7E3BF2DE9F0410E46411C044604D190
:104180003E224449444803F0AFF804F00F08434B83
:10419000C4F3031053F82850FFF744F906F007075B
:1041A0000446836895FAA5F1B1FA81F195FAA5F272
:1041B0000320490000FA01F1B2FA82F223EA010376
:1041C0005200022101FA02F21343A36087425AD837
:1041D000DFE807F05E1D021DB8F1070FC6F30320EC
:1041E0003BD9626A2B0A93FAA3F1B1FA81F193FAEF
:1041F000A3F34FF00F0EB3FA83F389000EFA01F127
:104200009B0022EA010200FA03F3134363623B4678
:10421000226895FAA5F0B0FA80F095FAA5F14FF072
:10422000030EB1FA81F140000EFA00F0490022EAD3
:1042300000028B40013F1343012F236005D86368C0
:1042400032074CBF2B43AB436360C6F301122946D0
:104250002046BDE8F041FFF786BF226A95FAA5F334
:10426000B3FA83F395FAA5F14FF00F0EB1FA81F18D
:104270009B000EFA03F3890022EA030200FA01F31D
:1042800013432362C3E767220249054803F02CF871
:104290000023BDE750770108537401081077010827
:1042A000477E0108431C70B506460D4604D188229E
:1042B0001B491C4803F018F806F00F021A4BC6F30E
:1042C000031053F82240FFF7ADF804FB04F2016835
:1042D00002EB42030B40B3FBF2F3013B012B05D889
:1042E000EB1E022B436809D823434360032D08D1FA
:1042F00001222146BDE87040FFF735BF23EA0403E1
:104300004360012DF4D0052D01D0022D01D10222F0
:10431000EFE721460022BDE87040FFF70EBF00BF67
:1043200050770108537401081077010870B5A6B0E2
:104330003422002102A805F079F85C2200210FA8A0
:1043400005F074F82A4B1D68002D4FD1294C0195BA
:1043500001261E60236C43F080532364236C03F01A
:1043600080530193019B00F05DFC042302A802939B
:104370000895049600F0C0FF10B11F4803F044FDFB
:10438000A36823F4F813A360A36823F4F813A360CD
:10439000236F43F48073236720230F930FA84FF4F8
:1043A00080731F9300F058FD10B1144803F02CFDEA
:1043B000134B144801221A60134B0360032200239D
:1043C000826041F6FF7243774360C26003614361DC
:1043D000836101F05EF910B10C4803F015FD094846
:1043E00001F089FA10B10A4803F00EFD26B070BD45
:1043F000602E002000380240A8770108C877010825
:104400003C0E4742642E002000280040F17701084E
:104410000B780108F0B51F4B1F491C681F4A5D68E7
:104420008BB00C4015401E460F4618680840844269
:104430002BD158681040854227D105F03F0001F08C
:1044400051FA0490C5F3042001F04CFA01380590AC
:10445000280C01F047FA44300690C4F3054001F0FF
:1044600041FA0390C4F3062001F03CFA029004F0F4
:104470007F0001F037FA01220190694601A802F09D
:1044800051FF00B100980BB0F0BD346875683C4036
:104490001540CAE7002800407F7F7F003FFFFF00F4
:1044A000024BD868C0F30010704700BF00280040DE
:1044B000214B224A2DE9F0411D691C689E6AC5F313
:1044C0000E05144018461746196811408C422ED12B
:1044D000996A8E422BD1C4F3054001F003FA0746D6
:1044E000C4F3062001F0FEF9804604F07F0001F0DD
:1044F000F9F9134A13493C2313FB08004FF4616395
:1045000003FB07001368146898420B683CBF03F56F
:10451000A83303F5C0731B1B03440B6010600868CD
:10452000013DC00305EB9000801BBDE8F0810468ED
:10453000866A3C40C8E700BF002800407F7F7F00BC
:104540005C2E0020582E002030B591B0002114229E
:10455000044602A8019104F069FF03F0EDF82A4B2C
:104560002A4A1A6007A90122204602F02BFF0028E0
:1045700048D00D9B03B907238DF804300B9B013302
:104580008DF805300A9B8DF806300C9B443B8DF866
:104590000730099B8DF80830089B8DF809300024FE
:1045A000079B8DF80A308DF80B4005940694FFF7B1
:1045B0007FFF9DF809109DF80A2013483C2313FB48
:1045C00001229DF808304FF4616101FB0323104A7A
:1045D00013600E4B224601A99D6A01F0B3F810B199
:1045E0000C4803F011FC002202A9074801F00AF967
:1045F00010B1094803F008FC044A936A9D42FCD1BB
:1046000003F0B0F811B030BD642E00200028004047
:104610005C2E0020247801083B7801080FB407B510
:10462000064B07491B6805AAD868019208F0BAFF33
:1046300003B05DF804EB04B0704700BF7C060020B7
:10464000527801084368094A9B0182B0D3581A681E
:10465000120706D5002201921A6801925A68019247
:10466000019A1868C0F3401002B0704778300020FB
:104670004368034A9B01D3581868C0F3C0107047C1
:104680007830002042681449920110B404685450F4
:10469000531882685A60C2689A600269DA60426997
:1046A0001A61026A9A610022DA84DA619A84DA85F0
:1046B0009A85B0F91A20013206D108225A611846AB
:1046C0005DF8044B01F0B1BEB0F9182001320CBF07
:1046D00004220C22F2E700BF7830002010B5816080
:1046E0000C46FFF7CFFF28B121460348BDE8104034
:1046F000FFF794BF10BD00BF52780108124B9842DB
:1047000017D0A3F54C43984215D003F58063984227
:1047100013D003F58063984211D003F5806398426B
:104720000FD003F5444398420CBF05204FF0FF30F3
:104730007047002070470120704702207047032017
:1047400070470420704700BF00100140F0B50E46CE
:1047500087B004465B493046154602F037FC5A499B
:104760000746284602F032FC0146384602F008FCB3
:104770002060013004D13D225449554802F0B4FD77
:10478000022E0CD0032D0AD04E49022002F01EFC4E
:10479000874202D14F4803F037FB002700E0012792
:1047A0004D4B206898424FF000031AD100934B4BB9
:1047B0005A6C42F010025A645B6C03F010030093D1
:1047C000009B474B984229D100230593434B5A6CD9
:1047D00042F020025A645B6C03F020030593059BB2
:1047E0001CE0404A90420BD101933C4B1A6C42F4BE
:1047F00000321A641B6C03F400330193019BE0E761
:10480000394A904240D10293344B1A6C42F48022D0
:104810001A641B6C03F480230293029BFFF76EFF64
:104820000028606004DAA4222849304802F05CFDC8
:104830002449304602F080FB2349284602F07CFBE5
:10484000721C03D001213046FFF72CFD6B1C03D0F6
:1048500001212846FFF726FD4FF41653A3600023DD
:10486000E360236163612362268365832046FFF74B
:1048700009FF3FB11E4B1F4801221A6021464C22FE
:1048800004F0BEFC07B0F0BD1B4A90420BD103936D
:10489000124B1A6C42F400221A641B6C03F40023BE
:1048A0000393039BBAE7154A90428AD104930B4BBA
:1048B0001A6C42F480121A641B6C03F48013049384
:1048C000049BABE760730108E87201087C7801087B
:1048D000D8780108F478010800100140003802403F
:1048E00000140140004400400048004029790108BC
:1048F000842E00202C300020004C0040005000404E
:10490000002808DB4209012300F01F0003FA00F031
:10491000014B43F82200704700E100E000280DDB66
:104920004309012200F01F0002FA00F02033044A7C
:1049300042F82300BFF34F8FBFF36F8F704700BF64
:1049400000E100E0F7B5FFF7D9FE071E26DB144EA5
:1049500056F8270010B3134CBD0163591A681206AC
:1049600006D5DB68190603D50F4B01211B68984754
:1049700063591A68920608D5DB68980605D50A4B74
:1049800056F827001B680021984763591A681107D9
:1049900004D55A69D20744BF5B68019303B0F0BDE8
:1049A0008C2E002078300020882E00200148FFF750
:1049B000C9BF00BF001401400148FFF7C3BF00BFDB
:1049C000005000400148FFF7BDBF00BF004C004051
:1049D0000148FFF7B7BF00BF004800400148FFF79C
:1049E000B1BF00BF004400400148FFF7ABBF00BFAC
:1049F00000100140034B19604168034B43F821202C
:104A0000704700BF882E00208C2E002030B490E824
:104A100018002C48834233D00AD8A0F500608342A6
:104A200028D000F58060834227D0002318460FE08D
:104A3000254883420AD000F58060834223D0A0F548
:104A400044408342F1D1214B352001E0204B252009
:104A5000204DA401FAB1C9B92959CA6842F020020F
:104A6000CA601D4A00F11001926830BC42F8213042
:104A7000FFF746BF194B2620EAE7194B2720E7E747
:104A8000184B3420E4E7184B4720E1E72959CA685E
:104A900042F08002E4E72B59DA6849B922F020029B
:104AA000DA60DB6813F0800F09D130BCFFF736BF46
:104AB00022F08002DA60DB6813F0200FF4E730BCEC
:104AC000704700BF004C004000100140B949000889
:104AD000E94900087830002000ED00E0DD490008D9
:104AE000D1490008C5490008AD49000838B54468F7
:104AF00005462846FFF7A6FD0028FAD0A401034B7F
:104B00001B595868C0F3080038BD00BF783000203A
:104B100070B5456806460C463046FFF7A9FD0028EB
:104B2000FAD0AD01024B5B59C4F308045C6070BD60
:104B30007830002008B50E4AC36D934214D008D8CF
:104B4000A2F5806293420FD00A4803F05DF900207D
:104B500008BD094A934203D002F580629342F3D123
:104B6000BDE8084000F04AB9BDE8084000F036B999
:104B7000003C00403B79010800300140DFF830D0B4
:104B8000002103E00B4B5B58435004310A480B4BA8
:104B900042189A42F6D30A4A02E0002342F8043B44
:104BA000084B9A42F9D301F01FFEFBF72FFB704729
:104BB00000000220D8870108C80100204C10002006
:104BC0005010002040320020FEE7704708B50B4B24
:104BD0001A6842F400721A601A6842F480621A601D
:104BE0001A6842F480721A60032000F009F80F205E
:104BF000FEF7B8FEFFF7E9FF002008BD003C0240C9
:104C0000074AD36823F4E0631B041B0C43F0BF6323
:104C1000000243F4003300F4E0600343D3607047C4
:104C200000ED00E0014B01221A60704720000E42A7
:104C300037B500230193184B184C1A6C42F0805280
:104C40001A641B6C03F080530193019B144B0122E7
:104C50001A60FEF78DFE05466368DA030BD5114B2B
:104C60000E4C01221A60FEF783FE054663689B0323
:104C70000AD5002006E0FEF77BFE401BB0F57A7FE8
:104C8000EAD9032003B030BDFEF772FE401BB0F539
:104C90007A7FEBD9F5E700BF003802400070004092
:104CA00040000E4244000E422DE9F0410D460446FC
:104CB00010B90120BDE8F081444B1A6802F00F02E0
:104CC0008A4228D321688F072DD4C80740D43F4B90
:104CD0001A6802F00F02954266D3226851076CD41D
:104CE000130707D53A4A2169936823F4604343EADE
:104CF000C103936000F0B8FA354B364A9B68C3F3A2
:104D00000313D35CD840344B18600F20FEF72AFE03
:104D10000020BDE8F081CAB21A701B6803F00F03CF
:104D20009942C6D1CEE72A4B11F0040F1EBF9A68F4
:104D300042F4E0529A600E0742BF9A6842F4604221
:104D40009A609A68A06822F0F00202439A60BCE779
:104D500062681F4B012A1DD11B6813F4003FA8D0C5
:104D60001B4EB36823F003031343B360FEF700FE4A
:104D700041F288380746B368626803F00C03B3EB6E
:104D8000820FA4D0FEF7F4FDC01B4045F3D90320E9
:104D9000BDE8F081911E01291B6802D813F0007F45
:104DA000DDE713F0020FDAE7EAB21A701B6803F0CE
:104DB0000F039D427FF47DAF8FE70549E0688B6864
:104DC00023F4E05303438B608AE700BF003C0240BA
:104DD00000380240417A010864060020044B054A6D
:104DE0009B68C3F38223D35C034A1068D8407047A2
:104DF00000380240517A010864060020044B054A3D
:104E00009B68C3F34233D35C034A1068D8407047B1
:104E100000380240517A0108640600200F23036025
:104E20000B4B9A6802F0030242609A6802F0F002AB
:104E300082609A6802F4E052C2609B68DB0803F467
:104E4000E0530361034B1B6803F00F030B607047D3
:104E500000380240003C024003682DE9F74313F09C
:104E6000010604460BD0AA49866BD1F88C2022F0AB
:104E7000C0623243B6FA86F6C1F88C2076099D07E7
:104E80000BD5A348E16BD0F88C2022F0C0520A4326
:104E90000029C0F88C2008BF012613F0040512D0A9
:104EA0009B49256BD1F88C20B5F5801F22F4401268
:104EB00042EA050218BFB5FA85F5C1F88C2012BF89
:104EC0006D090025012618070FD59148616BD0F8B0
:104ED0008C2022F440020A43B1F5800FC0F88C20E8
:104EE00000F00981002908BF0125990633D5002368
:104EF0000193874B874F1A6C42F080521A641B6CE7
:104F000003F080530193019B3B6843F480733B6043
:104F1000FEF72EFD80463B68DA0540F1EE807C4FBF
:104F20003B6F13F4407340F0FB80236C03F440723A
:104F3000B2F5407F764A40F01681916823F07040C8
:104F400021F4F81120F4407001439160116FC3F314
:104F50000B030B4313672368D90642BF6E4B94F8CB
:104F600058201A6023681A0608D56949E06CD1F800
:104F7000942022F440020243C1F894205F0608D531
:104F80006349A06CD1F8942022F080620243C1F8FA
:104F90009420D8050CD55E48616DD0F8942022F09D
:104FA00000620A43B1F1006FC0F8942008BF0125E8
:104FB000990508D55649606CD1F8942022F08052AA
:104FC0000243C1F894205A0500F1D180012E40F02F
:104FD000DC80524E4E4F00233360FEF7C9FC804602
:104FE0003B681B0100F125812268D00701D5A36B26
:104FF0001BB1910715D5E36B9BB94549D1F88430B6
:10500000D1F8840003F4403300F07060034360681B
:105010000343A06843EA8013606943EA0073C1F860
:105020008430530703D5236BB3F5801F05D01707D2
:1050300020D5636BB3F5800F1CD13549D1F884308E
:10504000D1F8840003F4403300F0E040034360688B
:105050000343A06843EA8013206943EA0063C1F870
:105060008430D1F88C00A36A20F01F00013B034379
:10507000C1F88C3050051BD5236DB3F1005F17D1FB
:1050800023486768D0F88410D0F8843003F0E043F8
:105090003B43A768C1F30141013143EA871343EA67
:1050A0004163E1684908013943EA0143C0F88430AB
:1050B000110511D52369A2681B0643EA82136268B1
:1050C0001343626943EA0273E2685208013A43EA11
:1050D00002430F4AC2F8843001233360FEF748FCD4
:1050E0000B4E074633681A0153D4FEF741FCC01B30
:1050F0000228F7D908E00126F7E6FEF739FCA0EB15
:10510000080002287FF607AF032003B0BDE8F08354
:105110000038024000700040E011474268004742FA
:10512000226C02F4407293423FF4FFAE3B6F4B4A55
:105130000121116023F44073002111603B673B6F34
:10514000DB077FF5F2AEFEF713FC41F288398046AB
:105150003B6F98073FF5E9AEFEF70AFCA0EB0800AD
:105160004845F5D9D0E7916821F4F811EDE63C48BF
:10517000216DD0F8942022F000520A43B1F1005F73
:10518000C0F894207FF422AF23E7B3F5006F3FF41B
:1051900020AF012D4BD1334D314E00232B60FEF754
:1051A000E7FB074633689B004BD421684E0701D5C7
:1051B000236B1BB108071AD5636BC3B9284AA069D2
:1051C000D2F8883003F440330343E06943EA8013A4
:1051D000606A43EA0063C2F88830D2F88C30E06A33
:1051E00023F4F853013843EA0023C2F88C30CA058F
:1051F00014D5636DB3F1006F10D11949A269D1F8CC
:10520000883003F070631343E26943EA8213226A31
:105210005208013A43EA0243C1F8883001232B6067
:10522000FEF7A6FB0E4C054623689B000FD5002019
:105230006BE7FEF79DFBA0EB080002287FF6D0AEDF
:1052400062E7FEF795FBC01B0228ABD95CE7FEF7CF
:105250008FFB401B0228E7D956E700BF400E4742AC
:105260000038024070004742204908B58B6803F0BF
:105270000C03082B07D00C2B20D01D4A1D48042BF3
:1052800018BF104608BD4A684B68496813F480038C
:1052900014BF18481648C1F3881118BF002302F044
:1052A0003F02A1FB00010FF083FC104B5B68C3F3CE
:1052B000014301335B00B0FBF3F008BD4A684B6863
:1052C000496813F4800314BF0A480948C1F38811E0
:1052D00018BF002302F03F02A1FB00010FF068FCA1
:1052E000024B5B68C3F30273E5E700BF003802407E
:1052F0000024F40000127A0003682DE9F341DF076F
:10530000044610D423689E0767D423681A0700F167
:10531000B28023685B0700F1D080A269002A40F0C8
:10532000398100201EE0974B9A6802F00C02042A93
:1053300010D09A6802F00C02082A02D15B685D0264
:1053400008D4904B9A6802F00C020C2A0DD15A68CE
:1053500050020AD58B4B1B689903D3D56368002B89
:10536000D0D1012002B0BDE8F0816268B2F5803F83
:1053700011D11A6842F480321A60FEF7F9FA814DB1
:1053800006462B689A03BDD4FEF7F2FA801B642808
:10539000F7D90320E6E77B4DB2F5A02F2B6807D1A4
:1053A00043F480232B602B6843F480332B60E4E7C5
:1053B00023F480332B602B6823F480232B60002A96
:1053C000DBD1FEF7D5FA06462B689B039AD5FEF78C
:1053D000CFFA801B6428F7D9DBE76A4B9A6812F092
:1053E0000C0F10D09A6802F00C02082A02D15B68F8
:1053F0005F0208D5634A936803F00C030C2B11D1AC
:1054000053685E020ED45F4B1A68950702D5E268B6
:10541000012AA6D11A68216922F0F80242EAC102E3
:105420001A6072E7E268584BB2B101221A60FEF7C7
:105430009FFA544D06462B68980707D52B682269BA
:1054400023F0F80343EAC2032B605EE7FEF790FA0D
:10545000801B0228EFD99CE71A60FEF789FA494DB4
:1054600006462B6899077FF550AFFEF781FA801B3F
:105470000228F6D98DE76269444B7AB101221A609D
:10548000FEF776FA3F4D06466B6F9F073FF541AF3B
:10549000FEF76EFA801B0228F6D97AE71A60FEF74B
:1054A00067FA384D06466B6F98077FF532AFFEF707
:1054B0005FFA801B0228F6D96BE7324B1A6C12F0A8
:1054C000805228D101921A6C42F080521A641B6CEF
:1054D00003F080530193019B01262D4D2B68D905C4
:1054E0001BD5A368274D012B27D12B6F43F0010358
:1054F0002B67FEF73DFA234D074641F288382B6FA4
:105500009B0739D5002E3FF408AF1E4A136C23F0D9
:105510008053136401E70026DFE72B6843F48073B0
:105520002B60FEF725FA07462B68DA05D9D4FEF77B
:105530001FFAC01B0228F7D92BE7052B04D12B6FCC
:1055400043F004032B67D0E72A6F22F001022A6799
:105550002A6F22F004022A67002BCAD1FEF708FA4C
:1055600041F2883807462B6F9807CBD5FEF700FA33
:10557000C01B4045F7D90CE7FEF7FAF9C01B4045C0
:10558000BDD906E70038024000004742800E47427E
:1055900000700040234DAB6803F00C03082B3FF470
:1055A000E0AE214E0023022A33602DD1FEF7E0F950
:1055B00007462B68990121D4226AE3691343626A82
:1055C00043EA8213E26A43EA0263226B43EA02730C
:1055D000A26A144C5208013A43EA02436B60012369
:1055E0003360FEF7C5F9054623689A013FF599AE89
:1055F000FEF7BEF9401B0228F6D9CAE6FEF7B8F955
:10560000C01B0228D5D9C4E6FEF7B2F904462B68C0
:105610009B017FF586AEFEF7ABF9001B0228F6D999
:10562000B7E600BF0038024060004742704702689A
:1056300038B5D36823F0A003D3600446FEF798F989
:1056400005462368DB689B0601D5002038BDFEF7C0
:105650008FF9401BB0F57A7FF3D9032038BD38B5F8
:105660000368DA685206044601D5002038BD4FF0C1
:10567000FF32DA60FEF77CF905462368DB685B06DB
:10568000F3D4FEF775F9401BB0F57A7FF5D9032006
:1056900038BD38B50446B8B1437F03F0FF0213B9F3
:1056A0000277FFF7C3FF022363772368CA225A6297
:1056B00053225A622046FFF7D2FF2368054628B1DD
:1056C000FF225A620423637701252EE09A6820693D
:1056D00022F4E00222F040029A6062689968024374
:1056E000606902430A439A60E2681A611A69A16814
:1056F00042EA01421A61DA6822F08002DA609B68AD
:105700009B0605D42046FFF792FF08B12368D7E730
:105710002368A1691A6C22F480221A641A6C0A4365
:105720001A64FF225A6201236377284638BD00239A
:10573000092803D840EA0310C0B270470A38013381
:10574000C0B2F5E7F8B5037F012B05464FF002061E
:1057500030D00123037746774B78C8788E780C7861
:10576000002A48D1DA0603D523F010030A334B7020
:10577000FFF7DDFF07464878FFF7D9FF02463046BE
:10578000FFF7D5FF40EA443040EA074040EA0224F0
:105790002B68CA225A6253225A622846FFF75FFFDB
:1057A0002B68064640B1FF225A6204236B77002320
:1057B0002B7701263046F8BD24F07F4424F0C00446
:1057C0005C60DA6822F08002DA609B689B060AD48B
:1057D0002846FFF72CFF30B12B68FF225A620423C2
:1057E0006B772E77E5E72B68FF225A6201236B77F0
:1057F00000232B77DEE71B0243EA0040304340EAF8
:105800004434C5E7F8B5037F012B06460F464FF039
:1058100002052FD0012303770368457708784D7878
:105820008C789B6842BB13F0400308BFCB70FFF736
:105830007EFF01462846FFF77AFF02462046FFF723
:1058400076FFFB7840EA034040EA014040EA022448
:105850003368CA225A6253225A623046FFF7FFFE6B
:1058600033680546A8B1FF225A62042373770023E8
:10587000337701252846F8BD13F040034FEA05258C
:1058800008BFCB7045EA00402043CC7840EA04448E
:10589000DEE704F07F3424F0FE441C609A68386927
:1058A00022F480229A60FA68996802430A439A6057
:1058B000DA6822F08002DA609B689B060AD43046E0
:1058C000FFF7B5FE30B13368FF225A6204237377C5
:1058D0003577CEE73368FF225A62012373770023BE
:1058E0003377C7E7030903EB830300F00F0000EBF6
:1058F0004300C0B27047037F012B4FF002030FD06B
:1059000043770368CA225A6253225A629A6842F065
:1059100020029A60FF225A62012343770023037713
:105920001846704703685A6822F0E0025A604268DD
:10593000B2F5827F0AD18268B2F5004F02D0B2F58B
:10594000806F03D11A6822F040021A60826AB2F5B1
:10595000005F09D11A6822F400521204120C1A6076
:105960001A6842F400521A60012380F85130002373
:1059700080F850300320704770B505460C46164637
:1059800029688B689B0701D5002070BD621CF8D088
:1059900024B92846BDE87040FFF7C4BFFDF7E8FF13
:1059A000801B8442ECD8F4E72DE9F041DDF8188043
:1059B00005460F4616461C462B6898683840B0428C
:1059C00002D10020BDE8F081621CF6D024B928463F
:1059D000BDE8F041FFF7A6BFFDF7CAFFA0EB080046
:1059E0008442E9D8F3E713B50B46009280210022E8
:1059F0000446FFF7D9FF20B1636D43F020036365D0
:105A0000032002B010BD704738B5044600283BD0D3
:105A100090F8513003F0FF021BB980F85020FFF7D7
:105A2000F2FF2168A568A06AA269022384F85130B8
:105A30000B6823F040030B6063682B43E5682B433E
:105A400025692B4365692B43E5692B43256A2B4365
:105A5000034302F400752B430B60120C636AB0F52C
:105A6000005F02F0040242EA030208BFE36A4A60F0
:105A700008BF0B61CB6923F40063CB6100200123D5
:105A8000606584F8513038BD012038BD2DE9F341FF
:105A90001E4690F85030012B04460D46904600F00B
:105AA000BA80012380F85030FDF762FF074694F872
:105AB0005100C0B2012840F0AC80002D5FD0B8F199
:105AC000000F5CD0032384F8513000236365A36387
:105AD000A4F83680A387E38763642364A3682268FD
