:020000040800F2
:1000000000000220154B0008614B0008614B0008FE
:10001000614B0008614B0008614B000800000000C4
:10002000000000000000000000000000614B00081C
:10003000614B000800000000614B0008614B0008A4
:10004000614B0008614B0008614B0008614B0008E0
:10005000614B0008614B0008614B0008614B0008D0
:10006000614B0008614B0008614B0008614B0008C0
:10007000614B0008614B0008614B0008614B0008B0
:10008000614B0008614B0008614B000875330008A4
:1000900079330008614B000869330008614B0008A0
:1000A000614B0008614B0008614B0008614B000880
:1000B000614B0008614B0008614B0008614B000870
:1000C000614B0008614B0008614B0008614B000860
:1000D000614B0008614B0008614B0008614B000850
:1000E000614B0008614B0008614B0008614B000840
:1000F000614B0008614B0008614B0008614B000830
:10010000614B0008614B0008614B0008614B00081F
:10011000614B0008614B0008614B0008614B00080F
:10012000614B0008614B0008614B0008614B0008FF
:10013000614B000800000000000000008933000847
:100140008D330008614B00087D330008614B0008C7
:10015000614B0008614B0008614B0008614B0008CF
:10016000614B0008614B0008614B0008614B0008BF
:10017000614B0008614B0008614B00080000000063
:1001800000000000614B00080000000000000000BB
:10019000614B00080000000000000000614B0008F7
:1001A000000000000000000000000000614B00089B
:1001B000614B0008614B0008614B0008614B00086F
:1001C000614B00080348044B834202D0034B03B148
:1001D00018477047680D0020680D002000000000DF
:1001E0000548064B1B1AD90F01EBA301491002D099
:1001F000034B03B118477047680D0020680D0020BD
:100200000000000010B5064C237843B9FFF7DAFF71
:10021000044B13B10448AFF300800123237010BDD9
:10022000680D002000000000602E020808B5054B94
:100230001BB105490548AFF30080BDE80840FFF752
:10024000CFBF00BF000000006C0D0020602E020830
:10025000A3F5803A704700BF174B002B08BF134B24
:100260009D46FFF7F5FF00218B460F461348144AC1
:10027000121A0DF05DFB0E4B002B00D098470D4B72
:10028000002B00D098470020002104000D000D48ED
:10029000002802D00C4803F086FC0DF01BFF200064
:1002A000290003F00FFF03F07BFC00BF00000800F3
:1002B00000000000B540000800000220680D00208A
:1002C00060320020A73B00080000000010B5094B79
:1002D000036003F1200280330446C0F8BC20C0F85C
:1002E000C030BC3007F0C8FE204607F0A3F9204616
:1002F00010BD00BF24BB0108A0F1BC00E6E7A0F1DF
:10030000C000E3E708B5164C16491748174D07F02B
:10031000D7FE1749144807F0D3FE22461549124864
:1003200007F0EBFE1449104807F0CAFE11490E48C9
:100330002A4607F0E2FE0C4807F0B0FE0F492B7882
:100340002278094807F0BCFE207800F0DDF8297813
:10035000207800F0ADFC00F029F900F0B3FCFAE7DA
:10036000CC01002080950108440E0020840D00205F
:10037000C6950108DD950108E0950108FD95010885
:1003800010B50446FFF7A2FF204603F074FD204697
:1003900010BDA0F1BC00F3E7A0F1C000F0E7000041
:1003A00007B54FF41653009303220023022105489A
:1003B00006F0C4FC044A0549024803B05DF804EBAA
:1003C00003F0ECBB880D0020C8010020CD0200081E
:1003D0000FB407B5064B04AA1B6852F8041BD86873
:1003E00001920AF065F903B05DF804EB04B07047C0
:1003F000EC07002008B5074B1A78074B1B789A4288
:1004000005D106481146FFF7E3FF012008BD002093
:10041000FCE700BFCD010020FC1700201696010864
:10042000024B1870062000F07FBA00BF600E00205B
:1004300038B50546FFF7DEFF0128044605D104481C
:100440002946FFF7C5FF204638BD024B1D70FAE76D
:1004500055960108FC17002070B50D4E0D4D3478EF
:10046000844228BF044622460B4829460EF088F8ED
:1004700032780A4B121BD2B21C7032702AB1291981
:1004800028460EF07DF8012070BD1046FCE700BF45
:10049000FB130020FC1300206B12002069120020C7
:1004A00038B5054610460C46FFF7C2FF012808D1B3
:1004B000072000F055FA20B1BDE83840072000F0D1
:1004C0004FBA192C2246294609D80B480EF058F885
:1004D0000A4B1C70BDE83840042000F025BA0848DB
:1004E0000EF04EF8074B1A201C70FFF7B5FF0720DF
:1004F00000F01AFAEEE700BF6B120020691200202C
:10050000FC130020FB13002010B50A4B0A4C0022FC
:100510001A70207000F01EFAFFF76CFF207800F0D0
:1005200089FA064801F010FABDE81040044801F0CD
:1005300011BA00BFFC170020CD010020A104000863
:10054000210400082DE9F341164D1F4695F800805F
:10055000154B144698440E4600F0E4F92246014635
:1005600040460EF00DF82B78023B1C44E4B2012FFC
:100570002C7003D09DF82030012B10D100F09AFA96
:10058000074600F091FA3B46009022460648314665
:1005900001F0AEF90020287002B0BDE8F081012022
:1005A000FAE700BF680E0020690E00202DE9F3472E
:1005B000B54BB64C1A782578AA4218BF1D70012D8C
:1005C00000F0A380022D00F0C780002D40F058817C
:1005D000062000F0C5F978B1AD4B187800F046FA66
:1005E000B0FA80F0400901F09CF92570062002B0B5
:1005F000BDE8F04700F0A2B9032000F0B1F998B3CC
:1006000000F042FA064600F045FA054600F046FAC8
:10061000804600F055FA0746284600F060F9C0B25F
:1006200000903B46424631462846FFF78BFF1FB1FC
:10063000002323700320DAE7284600F071F9954A79
:100640001378984208BF431C284608BF137000F077
:1006500067F90146904800F04CF932468E48032174
:1006600000F0FAF90123E4E7042000F079F928B357
:10067000884D8A4B2E781F78072000F071F9B0FA68
:1006800080F040093246864900903B468548864EB8
:1006900000F036F9854B327818700146814800F039
:1006A000DBF93378FF2B1EBF2B7801332B70804B87
:1006B00000221A7001232370042098E7072000F01D
:1006C0004FF950B1042000F02FF91A20FFF7C4FEB3
:1006D000002840F0D580072089E700F041F908B1F3
:1006E000002084E7012000F03BF908B101207EE7FB
:1006F00000F036F908B1022079E7052000F030F962
:10070000002800F0BD80052071E7284600F028F998
:10071000064670B100F0F4F9012808D0052000F079
:100720001FF9003818BF012040002070DEE70220CA
:10073000FBE700F015F9002800F0A2805A4B1B7867
:10074000FF2B04D12846267001F0E8F8C8E7022301
:10075000237000F009FAC3E7284600F001F90546C6
:10076000D0B100F097F905464E4800F0D9F806469A
:10077000284600F0D5F8864207D100F0B5F90023ED
:100780000120237001F0CAF8B5E7464800F0C8F828
:10079000284600F0C5F8AEE7052000F0E1F8E0B12A
:1007A000434E3378092B0BD93E4800F0B9F8014687
:1007B0004048FFF70DFE2846257001F0AFF8A2E78C
:1007C000394B38481A78394B197800F045F93378A5
:1007D000013333700123237095E7032000F0C0F844
:1007E000002842D000F050F9074600F053F90546C2
:1007F00000F054F9814600F063F90646284600F0FF
:100800006EF85FFA80F8EEB1CDF8008033464A46C4
:1008100039462846FFF796FE002E7FF409AF28469A
:1008200000F07EF81B4A1378984208BF431C284604
:1008300008BF137000F074F80146174800F059F82B
:100840003A460BE7DFF84CA0284600F069F89AF822
:1008500000308342D8D0284600F062F89AF8002091
:1008600001461548FFF7B4FDD9E700F079F80028F4
:100870007FF436AF012000F073F800287FF436AF24
:1008800002B0BDE8F08700BFFD170020FE17002072
:10089000600E0020670E0020610E0020691200200B
:1008A0006B12002033130020FC1700206A12002076
:1008B000660E00207A960108B8960108024B1A7855
:1008C000024B1A70704700BFFE170020FD17002072
:1008D0000078013801288CBF002001207047007883
:1008E000431E5842584170470078B0FA80F04009E2
:1008F0007047002303700123417083700320704709
:1009000010B51C469DF808304270012B18BF022319
:100910000370224602300DF033FEA01CC0B210BDA1
:100920004078704702307047034A012311688340C2
:100930000B431360704700BF00180020044A0123D6
:1009400003FA00F0136823EA00031360704700BF46
:1009500000180020014B00221A6070470018002088
:10096000024A012383401068184070470018002095
:10097000054B1B785A1E012A02D80020FFF7D4BF6E
:100980000BB90120FAE770473C180020F8B507467C
:100990000C4615461E4607F02FFC07EE900AFAEEAD
:1009A000E07AF5EEC07AF1EE10FA21DD2A46214612
:1009B00010480DF0E5FD104B1F70104B1D7002F03C
:1009C000F3FB0F4B187002F0E9FB0E4B18800E4B37
:1009D00020461E70FFF77CFF20B10320BDE8F840E1
:1009E000FFF7A2BF2046FFF77FFF08B10220F5E71F
:1009F000F8BD00BF0A1800200918002008180020C0
:100A00000518002006180020041800200FB407B5B0
:100A1000064B07491B6805AAD868019209F048FEF1
:100A200003B05DF804EB04B0704700BFEC07002092
:100A30000497010810B50446002007F005FA07F0F6
:100A4000D3FB2046024A0349BDE8104002F048BBF0
:100A50008D0900087109000810B5044602F062FB18
:100A6000014B22781A7010BD3C18002010B502F01E
:100A7000A1FB044618B101460248FFF7C7FF204614
:100A800010BD00BF04970108014B1878704700BFE4
:100A900009180020004870470A180020014B1878F8
:100AA000704700BF08180020014BB3F900007047E1
:100AB00006180020014B93F900007047051800202C
:100AC000014B1878704700BF0418002003681847CE
:100AD0000B68036070477047024B002205201A70B4
:100AE000FFF722BF3D18002008B5034806F073F851
:100AF000024B00221A7008BD401800203D1800204B
:100B0000014B1878704700BF3D180020C36810B52E
:100B100004460BB19B689847204610BD38B5054682
:100B2000064B45F8283B044606F055F82846FFF7E3
:100B3000EDFF204606F01AF8204638BDD8BA010865
:100B400010B50446FFF7EAFF204603F094F920466B
:100B500010BD000010B5034B03600446FFF7DEFF35
:100B6000204610BDECBA010870B52DED028B88B09F
:100B700007F042FB10220446002168460CF0D8FE24
:100B8000244B0093032394FBF3F303EB4303E41A96
:100B90000234E4B2204D039507EE904AB8EE678A1E
:100BA0001DB1694604A8FFF793FFDFED1C7A079596
:100BB00068EE277A1A4E17EE900A17F0E7FC054602
:100BC0000C4606F085FD736B23B996F838300BB1EF
:100BD00006F016FB1348FFF799FF079B1BB15B68F4
:100BE000104804A99847079B0D4873632A4623467B
:100BF00005F0D9FF06F082FD04A8FFF787FF6846DD
:100C0000FFF784FF084B01221A7008B0BDEC028B7D
:100C100070BD00BFD90A000814B601080024744949
:100C200040180020681800203D18002010B5044628
:100C3000FFF790FF204603F01EF9204610BD00008C
:100C400008B50C4805F06AFF0A480B4B40F8283BF2
:100C5000102200210CF06CFE064A084905480123C9
:100C600082F83830064B1360BDE80840054A02F0B0
:100C700095BF00BF40180020D8BA0108550B0008E6
:100C8000ECBA0108C80100200FB407B5064B0749AC
:100C90001B6805AAD868019209F00AFD03B05DF847
:100CA00004EB04B0704700BFEC0700203697010842
:100CB000024B1870024B1970704700BFF71A0020E2
:100CC000F61A00202DE9F04FA24AA34C11782378A0
:100CD00099428FB018BF13700C2B00F22581DFE80A
:100CE00013F00D00420045002F01750168056E05E7
:100CF000230123012301230123018B05974B1B684B
:100D0000B3B901232370022000F0E8FD0446A8B126
:100D100000F00AFE044600F00BFE21460246904811
:100D2000FFF7B2FF02200FB0BDE8F04F00F0CABDE0
:100D3000012BE8D1FFF73AFC0223E3E7042000F09F
:100D4000CDFD002800F0F08086498748874D0DF0E2
:100D500067FB874B874A84481B6812782978984735
:100D60002C700420DFE702232370DDE0824F7B4DEF
:100D70003B78012B24D12E68002E55D100F02AFE9D
:100D8000DFF81C8298F8010098F8009000F04AFE05
:100D90003246009079497A484B46013607F090F97F
:100DA000042E08F10408EDD1764A00231360764A38
:100DB0001370764A137001232B603B78012B38D0D7
:100DC000022000F08BFD002800F0AA8000F0ACFDAE
:100DD000074600F0ADFD0F288046A8BF4FF00F0872
:100DE0000646424639466A480DF0CAFB684A6949D8
:100DF0006348002302F8083013460096324607F095
:100E00005FF9654B06935A4B01221B68032106A824
:100E10009847022000F056FD6049594807F050F904
:100E200002232B6003239FE7012E79D1564B1B78B9
:100E30003BBB564B1B7823BB524B1A68032A20DC62
:100E4000574B584E13F82210316003EB8203587849
:100E500000F0E8FD014654480DF0E2FA32685349CB
:100E6000514B474807F02CF9414B4F48D3F80080CD
:100E70000DF026FC3278C1B24B48C047424B0122EC
:100E80001A70022000F02AFDDFF8008120B300F084
:100E90004BFD064600F04CFD0328024619D13046B2
:100EA00043490CF0B3FD064698B9DFF8DC9099F899
:100EB000003073B13B4B3F491A68314807F000F9E5
:100EC00001233D492E4889F8006088F8003007F07A
:100ED000F7F8022000F0F6FC98F80030E3B137484C
:100EE00006F0D8FAC0B1264807F0D8F8C0B23128C9
:100EF00021D13349224807F0E3F822490B68013336
:100F00000022032B88F800200B6010DD23491C48C9
:100F100007F0D6F802232B603B78012B7FF450AF0B
:100F20002B68022B3FF47EAF0FB0BDE8F08F01239A
:100F30002B602270F0E72349114807F0C1F8EBE776
:100F400021490F4807F0BCF8044B00221A60042323
:100F50000AE700BFEE230020EF230020F423002047
:100F600036970108D71F0020D01B0020D61F002075
:100F7000FC230020F61A0020F71A00206B970108C6
:100F8000B41B0020F01A0020F51A0020F41A0020EB
:100F9000DE230020A098010841434B00439801083C
:100FA00048280020EC1A0020CC1A00208C97010859
:100FB000A8970108AC970108CE970108F81A0020FD
:100FC0000798010868980108C5980108464B474DE5
:100FD0001B78012B40F05A812E68002E40F0B08023
:100FE000434B444F1E60444BDFF850911E60434B0F
:100FF000434A1E70434BDFF840E143481E703E6099
:1010000033463146B446B04619F801ABBAF1000F89
:1010100006D192F800C040F823C001334FF0010C14
:101020000131042982F803804EF8048B02F1040296
:10103000EAD1BCF1000F00D03B6034493448DFF8FE
:10104000C88007F03DF83349314807F039F83B686C
:10105000B34241DC30492E4807F032F801232B60BF
:10106000214B1B78012B6ED02868022840F0A78204
:1010700000F034FC002800F0A28200F055FC074686
:1010800000F056FC184A009724491278034620487D
:1010900007F016F8224938460CF0A8FE002800F0A8
:1010A0002B834FF0FF33069306AB1A461D490CF015
:1010B0004BF8069E1C491648324607F001F80A4ACA
:1010C0001378B34240F01C831849114806F0F8FF2A
:1010D000174B01221A7013E358F8042B15490C48DA
:1010E00006F0EEFF0136B2E7F71A0020F4230020E5
:1010F000C81A0020C41A0020901A0020951A002057
:1011000048280020941A0020801A0020E198010845
:10111000B41B0020059901083F990108769E01083B
:10112000279C0108A39E0108D59E01082E9F010857
:10113000DD23002030990108981A0020F0230020B8
:10114000012E40F06281DFF88C92884F99F80030D0
:101150005BBB3E784EBB864BDFF844B21A68DBF8C7
:1011600000108A4221DA834BDFF86C82824958F8FA
:1011700022A01E7018460BF0C5FFDBF80020B2421B
:1011800000F3BD807D4B7B481E680DF099FA5FFA35
:101190008AF2C1B27748B047764B794979485246CE
:1011A00006F08EFF012389F80030022000F096FB44
:1011B00030B300F0B9FB804600F0C0FB0646404665
:1011C00006F0FEFF09289FBF6F4951F82020013229
:1011D00041F820206D490A68013203460A606948D7
:1011E0006B49324606F06CFF002389F800306949EC
:1011F000644801233B7006F063FF022000F062FBAD
:101200003B78002B3DD0644806F044F9002838D0E4
:101210005C4806F043FFC0B231287ED1DFF8508130
:101220005E49D8F80030574801330026C8F800302E
:101230003E7006F045FF5A4BD8F800201B689A42D2
:101240001FDB58494F48DFF888A1DFF83CB106F0B2
:1012500037FF9AF802303BB19AF8002052495BF808
:101260002230484806F02CFF0136042E0AF1040A09
:10127000EFD102232B600023C8F8003089F800303A
:101280003B704A4B1B78012B00F0BF802F68002F6A
:101290007FF4EAAE022000F021FB002800F0B080CD
:1012A00000F042FB064600F043FB414980463346CE
:1012B0000246344806F004FF3C4BB04419783346EC
:1012C00043452FD13B492F4806F0FAFE324806F03D
:1012D000E1F80028FAD02B4806F0E0FE06465FFA57
:1012E00080F8303E344927484246F6B206F0E8FE20
:1012F000092E26D93149234806F0E2FEE2E758F8E4
:10130000042B524507D02E4906A80BF0FBFE1948C6
:1013100006A90CF05BFB01362FE72A49194806F0B5
:10132000CFFEAEE713F8012B303AD0B20928C7D868
:1013300091421FBF0EA800EB8700013740F8202C18
:10134000BEE71A4B1B78A8F13002934205D006A9DC
:1013500000239F4203D11C49CDE71C49CBE751F83C
:10136000040B90423AD00133F3E700BF941A0020F7
:10137000901A0020801800206D990108FC2300209D
:10138000A2990108B41B0020981A0020C81A002056
:10139000D6990108169A0108F81A00205E9A0108E9
:1013A000C41A00208C9A0108B29A0108F71A00208A
:1013B000EF9A0108D39B0108149B0108179B0108B1
:1013C0003B990108C49A01087F9B01084D9B0108C5
:1013D00048280020951A0020801A0020A34905A85B
:1013E0000BF090FEA24B05A81E680DF069F90122D2
:1013F000C1B205A8B047022000F064FA02232B60B6
:101400009C4B1B78012B7FF42FAE2B68022B40F0F6
:10141000D680DFF8DC82DFF8DCA298F80030002B01
:1014200072D19AF80060002E6ED1934B934F1B68D7
:101430003A68934268DADFF884B291485BF8233067
:101440009049039306700BF05DFED9463868B042B0
:1014500000F3BA800023DFF878928B4F19464FF0E3
:10146000FF369E46884200F3BE80002B40F0E380AA
:10147000731C00F0E080854981480CF0A7FA84498C
:10148000324606A80BF03EFE06A97D48DFF84892DA
:101490007D4E0CF09BFA4FF0000B5F4619F8013BB4
:1014A0005BB9737832787B48012B0BBF7A497B4953
:1014B00001370BF1010B06F003FE794B04369E4217
:1014C000ECD1784973485B463A4606F0F9FD002FA7
:1014D00040F0B38074496A480CF078FA734B0122EB
:1014E0001A70634B66481E680DF0EAF89DF80C20F0
:1014F000C1B26348B047624B039A6D49654806F034
:10150000DFFD012388F80030022000F0E7F928B35E
:1015100000F00AFA064600F00BFA032802461AD138
:10152000304664490CF072FA0646A0B998F80030CB
:101530008BB1514B60491A68604B564853F82220D2
:1015400006F0BEFD01235E49524888F800608AF823
:10155000003006F0B5FD022000F0B4F99AF8003032
:1015600043B3584805F096FF20B34A4806F096FD6D
:10157000C0B2312874D1404FDFF800813B68524936
:101580004448013300263B608AF8006006F098FD6D
:101590003A68D8F800309A420CDB4C493D48474F36
:1015A000DFF82C9106F08CFDD8F80030B3424DDC0A
:1015B00003232B602F4B1B78012B7FF455AD2B6839
:1015C000032B7FF4B1ACB9E059F8042B404B4149EF
:1015D00053F8223006A80BF095FD294806A90CF017
:1015E000F5F9013632E75BF8042B59F822C0F445CF
:1015F00018DD002617F826E0964507EB86030DD187
:101600004FF0000E83F802E0334B4FF0010E03F869
:1016100006E000231646E646013123E70136042E94
:10162000E8D1F6E7F8D1BEF1000FF5D0964218BF29
:1016300043F00103F0E7294927E75F4501DB28492B
:1016400049E728490E480CF0C1F94AE757F8042B3E
:10165000254959F822300F4806F032FD0136A3E73C
:1016600022490C4806F02CFDA4E700BFDD950108D7
:10167000FC230020F71A0020901A0020C41A002032
:1016800080180020099C010848280020269C010899
:10169000A89E0108B41B0020649C0108839C0108DB
:1016A000582800209F9C0108CB9C0108C01A0020EC
:1016B000399D0108A8970108759D0108801A00202E
:1016C0009C9D0108F81A0020E19D0108109E010868
:1016D000981A0020199C0108F02300202D9C010875
:1016E000EF9C0108169D0108B29A01084A9E010864
:1016F000951A0020941A00204349444806F0E0FC63
:101700004349444E38460CF071FB00282AD0424928
:101710003E4806F0D5FC01233370404B0693404B06
:1017200001221B68032106A898473E4B3E491A78C0
:10173000364806F0C5FC022000F0C4F83B4A3C499C
:10174000002313603B4A0B60D3704B60D3718B60F6
:10175000D372CB60D3732B602E4B1B7853B10C2309
:10176000FFF702BB344938460CF040FB0028D4D0C8
:101770003249CDE72B4B1A78012A02D10623FFF715
:10178000F3BA2F49214806F09BFC2E4A2E491F48E8
:1017900006F096FC2D4B2E491A782E4B1B48002A3A
:1017A00018BF19460A462C4906F08AFC0523FFF7A4
:1017B000DBBA2A49154806F083FCFFF733BB2849FA
:1017C00012481C4E274F06F07BFC0025707896F8D7
:1017D000008000F027F917F8013B2349CDE9000309
:1017E0002A460A484346013506F06AFC042D06F1F4
:1017F0000406EBD1FFF716BB1C4B4FF0FF321A600B
:101800000023FFF7B1BA00BFFB9E0108B41B002004
:10181000549F0108C01A0020629F010841434B00F9
:10182000FC230020F71A0020D89F0108C81A0020C6
:10183000981A002048280020939F0108A49F0108BF
:10184000FA9F0108DE23002016A00108DD230020F6
:101850005E9701085797010832A0010849A00108C6
:1018600067A00108F023002087A00108F4230020CE
:1018700007B50A4B0A481A780A4B1A704FF41653E8
:10188000009303220023022105F058FA064A074973
:10189000034803B05DF804EB02F080B9EF230020A9
:1018A000F81A0020EE230020C8010020CD02000815
:1018B000034A012303FA00F01368184310607047CD
:1018C000F8230020044A012303FA00F0136823EAF6
:1018D00000031360704700BFF8230020012303FAC0
:1018E00000F0024B1B681840704700BFF82300202F
:1018F00038B50C460146064815460CF041FE054B2E
:101900001D70054B1C700220BDE83840FFF7D0BFAA
:101910000424002004280020052800200520FFF7CB
:10192000C7BF0620FFF7C4BF00487047042400204B
:10193000014B1878704700BF04280020014B18782D
:10194000704700BF05280020014B1860704700BF9A
:10195000FC230020014B1860704700BF00240020CA
:1019600010B50C4C204605F0D9F820460A4B40F83B
:10197000283B102200210BF0DBFF012384F83830D4
:10198000064B23602046064A0649BDE8104002F097
:1019900005B900BF08280020D8BA0108ECBA010830
:1019A000C8010020550B000870B505464E1E4418AE
:1019B000002E00DC70BD06F01FFC731C90FBF3F1E1
:1019C00001FB130014F8012D2B5C2370013E2A54F7
:1019D000EEE70000F7B5002006F036FA06F004FC4A
:1019E00004210D4B01930DEB0100FFF7DDFF0021FA
:1019F0000A480B4B01AA01250C46013110F8017B66
:101A000012F8016B1F7004295E709D70DC7003F189
:101A10000403F2D103B0F0BD0001020330B60108A7
:101A20004828002003289ABF024B53F820000248A0
:101A3000704700BF20B60108B3A001080FB407B576
:101A4000064B04AA1B6852F8041BD868019208F0E0
:101A50002FFE03B05DF804EB04B07047EC070020E4
:101A6000002000F05BBF00002DE9F041BDF81C50E4
:101A7000B5F5806F06460C4690461F4606D32248B1
:101A80002946FFF7DBFF0620BDE8F081022000F0C9
:101A9000A1FC08B10720F7E73146022000F0F6FC70
:101AA0004FFA88F1022000F02DFD3946022000F0A7
:101AB00047FD0699022000F061FD2146022000F05A
:101AC000C7FC8EB90B3C012C12D80121022000F07A
:101AD000A1FC7DB90121022000F06EFD00F0D6FDD1
:101AE0000130D7D00020CFE7012E01D10C2CECD053
:101AF0000021EBE70021022000F05EFD29460220D4
:101B000000F078FDEAE700BFD7A0010870470000A9
:101B100084B038B504AC84E80F000220DDE9085435
:101B200000F058FC20B10720BDE8384004B07047F1
:101B30000C2C15D921461148FFF780FF0C210220FB
:101B400000F086FCA5B90B3C012C15D80121022020
:101B500000F060FC00F09AFD0130E4D00020E3E7E3
:101B6000052CEFD821460548FFF768FF0621E6E778
:101B7000012D01D10C2CE9D00021E8E767A1010873
:101B80000FB407B5064B07491B6805AAD868019230
:101B900008F08EFD03B05DF804EB04B0704700BFA1
:101BA000EC07002090A1010884B010B502AC84E8D5
:101BB0000F009DF80D10012905D0BDE81040254803
:101BC00004B0FFF7DDBF9DF8293033205BB301F08F
:101BD00009F840F04101C9B2332000F0F8FF1921A3
:101BE0003B2000F0F4FF9DF827309DF82A402BB3EE
:101BF0001D21112000F0EBFF402000F0F3FF00F06A
:101C00003301402000F0E3FF00210F2000F0DFFF50
:101C100000210D2000F0DBFFD4B10520BDE810400D
:101C200004B001F015B800F0DDFF00F0BE0141F096
:101C30000101332000F0CBFF1D21D1E71F2111202E
:101C400000F0C5FF402000F0CDFF00F03F01D8E7D5
:101C50000620E3E790A1010884B02DE9F04106AC2D
:101C600084E80F000898BDF832609DF83450BDF844
:101C700042700B9CDDF8288000F0CAFF1D2000F0A8
:101C8000B1FF9DF831309DF8301041EAC3019DF855
:101C9000363041EA881141EA430141EA8501C9B27F
:101CA0001D2000F094FF1E2000F09CFFC7F30121CF
:101CB00000F00C0041EA04110143C9B21E2000F0FB
:101CC00086FFF9B21F2000F082FF310A202000F0C9
:101CD0007EFFF1B2212000F07AFF25B19DF835108A
:101CE000222000F074FF9DF837306BB14B2000F0DC
:101CF00079FF60F07F01C9B24B2000F068FF9DF8CA
:101D00003810242000F063FF062C4FF031000FD173
:101D100000F068FF00F0F80141F00501312000F00B
:101D200056FF0C21BDE8F041372004B000F04FBF52
:101D300000F058FF00F0F80141F00301312000F0FD
:101D400046FF0A21EEE78021122000F040BF40212B
:101D5000122000F03CBF07B5122000F043FF8DF8C1
:101D600007009DF80700C0F3401003B05DF804FBC6
:101D70002021122000F02BBF08B5192000F032FFFF
:101D8000030643BF4042C0F38500404240F3870052
:101D900008BD84B010B502AC84E80F009DF938404E
:101DA0001A2000F01FFF002CB8BF8B3C4FEA201315
:101DB000B8BF0019BDE81040A8BF8B38184400B266
:101DC00004B0704738B50546132000F00BFF0446F9
:101DD0000146284600F016FF204638BD0FB407B56F
:101DE000064B04AA1B6852F8041BD868019208F03D
:101DF0005FFC03B05DF804EB04B07047EC07002013
:101E000008B528B90848FFF7E9FF4FF0FF3008BDD3
:101E1000402905D90548FFF7E1FF6FF00100F6E71B
:101E2000BDE8084000F0CEBDCFA10108FBA101082C
:101E3000F8B5074601200D4614461E4600F0CAFAC2
:101E400008B10720F8BD3946012000F03DFB2946C6
:101E5000012000F01BFB71B2012000F053FBBDF824
:101E60001810012000F06CFB0799012000F086FBA0
:101E70002146012000F0ECFA65B90B3C012C0DD88D
:101E80000121012000F0C6FA00F0D2FB0130D8D0C9
:101E90000020D7E7012D01D10C2CF1D00021F0E773
:101EA00084B038B504AC84E80F000120DDE90854A3
:101EB00000F090FA20B10720BDE8384004B0704728
:101EC0009DF91C0000F010FC50BB012000F082FACC
:101ED0000028F0D10C2C15D921461248FFF77EFFBF
:101EE0000C21012000F0B4FAA5B90B3C012C15D847
:101EF0000121012000F08EFA00F09AFB0130DAD0C7
:101F00000020D9E7052CEFD821460648FFF766FFE9
:101F10000621E6E7012D01D10C2CE9D00021E8E7EC
:101F20000120C9E767A101080FB407B5064B0749AF
:101F30001B6805AAD868019208F0BAFB03B05DF8E7
:101F400004EB04B0704700BFEC07002035A2010885
:101F500084B070B504AC84E80F0009209DF94040BE
:101F600000F040FE06465A2000F03CFE9DF810307E
:101F700003F0FD03012B14BF00238023054606F068
:101F80007F001843030600F0F00127D5112CCBBFCA
:101F900045F0070505F0F805EDB245F0040505F03C
:101FA0000703072B12D1142CA8BF1424052CB8BF8B
:101FB0000524631F1943C9B2092000F008FE294611
:101FC000BDE870405A2004B000F001BE112CA8BF3B
:101FD0001124022CB8BF0224A31EEBE70E2CA8BFCD
:101FE0000E2444EAE47401342143E4E784B008B5E4
:101FF0000DF1080C8CE80F009DF80D10012905D09B
:10200000BDE80840124804B0FFF78EBF9DF82730A6
:102010009BB1F521112000F0DAFD402000F0E2FD37
:1020200000F03301402041F0400100F0D0FDBDE858
:102030000840032004B000F00BBEF721112000F08F
:10204000C6FD402000F0CEFD00F03F01EAE700BFF2
:1020500035A2010884B02DE9F0418AB010AC84E8C3
:102060000F009DF94C30089314AD0FCD6C46159EB2
:10207000BDF85A70DDF850800FC495E80F0084E871
:102080000F0010AB0FCBFFF763FF129800F0C0FDFD
:102090009DF85F306BB14B2000F0A4FD60F07F0134
:1020A000C9B24B2000F093FD9DF86010242000F091
:1020B0008EFD1D2000F096FD9DF859309DF85810BA
:1020C00041EAC3019DF85C3041EA881141EA83018D
:1020D0009DF85E3041EA4301C9B21D2000F077FD52
:1020E0001E2000F07FFD00F00F0141EA0611C9B289
:1020F0001E2000F06CFD390A202000F068FD212030
:10210000F9B200F064FD062E4FF0310010D100F05E
:1021100069FD00F0F80141F00501312000F057FDA4
:102120000C2137200AB0BDE8F04104B000F04FBDEB
:1021300000F058FD00F0F80141F00301312000F0FB
:1021400046FD0A21EDE70821122000F040BD08B548
:1021500068B1332000F046FD00F0BE01332000F0EE
:1021600036FD19213B20BDE8084000F030BD33208A
:1021700000F038FD00F0BE0141F00101332000F015
:1021800026FD1D21EEE738B5044622200D4600F05D
:102190001EFD00210E2000F01AFD00210D2000F090
:1021A00016FD012000F01EFD30F0F80304D100F010
:1021B0007DFD012005F03CFD29462046BDE8384064
:1021C00000F01BBD0FB407B5064B04AA1B6852F8FC
:1021D000041BD868019208F06BFA03B05DF804EBB9
:1021E00004B07047EC07002010B50A4C21788142FA
:1021F000024605D00848FFF7E5FF4FF0FF3004E046
:10220000022001F001F808B9207010BD0348FFF763
:10221000D9FFF2E7D028002069AA0108BFAA010867
:1022200008B5044804F0D7FC00F043FD024B01223E
:102230001A7108BD60280020A028002013B5174C93
:102240002379022B03D0032B19D002B010BDFFF766
:102250005DFCFFF7E5FF032000F0D6FF012808D062
:1022600000230F4A0093146819461A460120A0471C
:10227000EBE70C4802B0BDE81040FFF7A3BF2046D3
:1022800000F05AFD94F8280000F047FD0123237167
:1022900002B0BDE8104000F0E7BF00BFA02800205A
:1022A000D42800203FAA01082DE9F041354C2679B9
:1022B00088B046B134483146FFF784FF4FF0FF3015
:1022C00008B0BDE8F081314B1860314B31481960DE
:1022D000FFF778FF4FF4807005F076FF2E4B186003
:1022E00028B92E48FFF76EFF6FF00100E8E74FF4C2
:1022F000FA6262620E2222730B22294B626108226B
:102300004FF00108A360628304230522204684F86D
:1023100020306285237084F805802677E67784F87C
:102320001E8084F82160266184F81980667784F81D
:10233000228084F8288000F0FFFC2546014605F83D
:10234000100B1848FFF73EFF0FCD6F460FC795E8FB
:102350000F0087E80F0094E80F00FFF7A1FDA5F13B
:10236000100CBCE80F006F460FC795E80F0087E818
:102370000F0094E80F00FFF7CBFB84F80480304691
:102380009EE700BFA028002036A30108D82800201F
:10239000D428002087A3010858280020B4A30108EE
:1023A0002021F636EEA3010808B5042000F02CFF2A
:1023B000012805D10648FFF705FF4FF0FF3008BDA3
:1023C000FFF72EFF022000F01FFF0020F7E700BFFD
:1023D00004A4010838B5054618B90A48FFF7F2FE0B
:1023E00005E0094C217829B10848FFF7EBFE4FF0D2
:1023F000FF3004E0084600F007FF08B9257038BD3B
:102400000348EBE714A80108D028002051A80108D0
:1024100094A8010838B504460D4600F01FFF0128B6
:10242000084B06D11A78A24203D1074B00201D7633
:1024300038BD06481A782146FFF7C4FE4FF0FF303A
:10244000F6E700BFD0280020A0280020B5A701088B
:1024500038B504460D4600F001FF0128084B06D1AF
:102460001A78A24203D1074B00205D6138BD0648AF
:102470001A782146FFF7A6FE4FF0FF30F6E700BFBF
:10248000D0280020A028002056A7010838B504460F
:102490000D4600F0E3FE0128084B06D11A78A2424F
:1024A00003D1074B00201D6138BD06481A7821462C
:1024B000FFF788FE4FF0FF30F6E700BFD02800207E
:1024C000A0280020C8A8010838B504460D4600F031
:1024D000C5FE0128084B06D11A78A24203D1074B4A
:1024E00000201D7338BD06481A782146FFF76AFEA2
:1024F0004FF0FF30F6E700BFD0280020A0280020D2
:10250000DAA5010838B504460D4600F0A7FE0128FB
:10251000084B06D11A78A24203D1074B00205D7602
:1025200038BD06481A782146FFF74CFE4FF0FF30C1
:10253000F6E700BFD0280020A0280020F7A6010859
:1025400038B504460D4600F089FE0128084B06D137
:102550001A78A24203D1074B00205D8338BD06489C
:102560001A782146FFF72EFE4FF0FF30F6E700BF46
:10257000D0280020A028002021A9010838B5044651
:102580000D4600F06BFE0128084B06D11A78A242D6
:1025900003D1074B00209D6038BD06481A782146BC
:1025A000FFF710FE4FF0FF30F6E700BFD028002005
:1025B000A0280020E1A9010838B504460D4600F026
:1025C0004DFE0128084B07D11A78A24204D1074BCF
:1025D000002083F8225038BD05481A782146FFF7BD
:1025E000F1FD4FF0FF30F6E7D0280020A0280020B2
:1025F00083A9010838B504460D4600F02FFE0128D6
:10260000084B06D11A78A24203D1074B00205D8502
:1026100038BD06481A782146FFF7D4FD4FF0FF3049
:10262000F6E700BFD0280020A02800209AA60108C5
:10263000F0B589B000F012FE0128114B18D11F78B7
:10264000012F15D10F4E06F1100500F035FB0FCD0F
:102650006C460FC495E80F0084E80F0096E80F0061
:10266000FFF7F8FC3846FFF7BFFD002009B0F0BDCA
:1026700005481978FFF7A6FD4FF0FF30F6E700BFD9
:10268000D0280020A028002076A50108F0B589B048
:1026900000F0E4FD0128114B18D11F78022F15D14D
:1026A0000F4E06F1100500F007FB0FCD6C460FC46E
:1026B00095E80F0084E80F0096E80F00FFF7CCFACA
:1026C0003846FFF791FD002009B0F0BD05481978A4
:1026D000FFF778FD4FF0FF30F6E700BFD02800206D
:1026E000A028002012A50108F0B58BB0044600F028
:1026F000B5FD0128104B17D11F78012F14D10F4EB3
:10270000089406F110050FCD6C460FC495E80F0034
:1027100084E80F0096E80F00FFF71AFC3846FFF731
:1027200063FD00200BB0F0BD05481978FFF74AFDA6
:102730004FF0FF30F6E700BFD0280020A02800208F
:1027400036A601080E4B1B79022B13B510D1FFF7EB
:10275000FAFAFFF765FD032000F056FD012809D0C5
:102760000023084A0093146819461A460120A0471E
:1027700002B010BD044802B0BDE81040FFF722BD12
:10278000A0280020D42800202CA401082DE9F04125
:10279000454E3479022C8AB067D1FFF7D8FAFFF79B
:1027A000DAFA012829D1FFF7E3FA96F82250ADB9F9
:1027B000FFF736FD032000F027FD012808D03B4B32
:1027C00000951E682A462B4629462046B04711E050
:1027D00037480AB0BDE8F041FFF7F4BC00F03EFD19
:1027E0000328F5D10023314A0093156819461A468B
:1027F0002046A8470AB0BDE8F081FFF7BDFA06F110
:102800001005089007460FCD6C460FC495E80F00E1
:1028100084E80F0096E80F00FFF7BBFA254C8046CE
:102820002068FFF7CFFA96F8226005468EB9FFF7C9
:10283000F7FC032000F0E8FC012808D01B4B0097B0
:102840001F68216843462A463046B847D2E71A48EF
:10285000BFE700F003FD0328F9D1144B00971E6871
:10286000216843462A460020B0E7032C14D11348C0
:1028700004F0B1F9FFF767FCFFF7D2FC204600F047
:10288000C3FC012806D00E4B1B6800200AB0BDE82F
:10289000F04118470B489CE70B4821460AB0BDE8B9
:1028A000F041FFF78FBC00BFA0280020D4280020F3
:1028B0006FA2010858280020ABA201086028002060
:1028C000D8280020E6A201081AA301082DE97043C8
:1028D000044699460D46904604F0FAFE636B23B910
:1028E00094F838300BB104F08BFC04F12806AE42AA
:1028F0000BD03046FEF70AF93EB1EB681BB15B68BE
:10290000294630469847EB68636342464B4620466B
:1029100004F049F9BDE8704304F0F0BEF0B5064696
:102920008DB0012000F070FC012806D11E48FFF791
:1029300049FC4FF0FF300DB0F0BD1C4B1C4F186828
:102940004FF48072002107F110050AF0F1FF0FCD5E
:102950006C460FC495E80F0084E80F0097E80F005D
:10296000FFF722F902233B71E6B11022002108A8EB
:102970000AF0DEFF0F4B089330460F4B0B9315F018
:1029800013FA00220D4B15F089FA15F01FFE0246CE
:102990000B460B4808A9FFF799FF08A8FEF7B6F801
:1029A0000020C8E73046C6E75BA40108582800208D
:1029B000A02800203D22000814B6010800408F40E6
:1029C00060280020F0B5304C2379032B8FB00646E9
:1029D0000D4606D12D48FFF7F5FB4FF0FF300FB045
:1029E000F0BD042000F010FC0128F3D0FFF718FC24
:1029F0000A2005F01DF9022000F006FC012000F07D
:102A000003FC012801D12248E5E763791BB1012BC2
:102A100003D000270CE01F48DDE794F82100FFF702
:102A200096FB2946304684F82E50FFF7ACFB676AC8
:102A3000194E08970FCE6D460FC596E80F0085E832
:102A40000F0094E80F00FFF7D1FA032310220021B2
:102A50000AA823710AF06CFF104B0A933846104BFA
:102A60000D9315F0A1F900220E4B15F017FA15F091
:102A7000ADFD02460B460C480AA9FFF727FF0AA83E
:102A8000FEF744F80020AAE7A028002082A401084D
:102A9000B2A40108D9A40108B02800203D220008F2
:102AA00014B6010800408F406028002010B50C4C7F
:102AB000204604F033F820460A4B40F8283B102209
:102AC00000210AF035FF012384F83830064B2360DB
:102AD0002046064A0649BDE8104001F05FB800BF35
:102AE00060280020D8BA0108ECBA0108C80100200B
:102AF000550B000810B50446044B40F8B83BD4F819
:102B0000C4300BB19B689847204610BDC4BB010878
:102B10000FB407B5064B07491B6805AAD868019290
:102B200007F0C6FD03B05DF804EB04B0704700BFCA
:102B3000EC070020EFAA0108F8B50D4C0D4F2368F3
:102B40001646E2681B040D46136040F080010948F8
:102B500004F084FA013D2E44B54205D015F8011F5A
:102B6000384604F07BFAF7E7A36822681A60F8BDDC
:102B700098290020D0290020F8B50E4C0E4F23686C
:102B80001646E2681B040D46136000F07F010A48F8
:102B900004F064FA013D2E44B54206D000213846C7
:102BA00004F05CFA05F8010FF6E7A36822681A60E2
:102BB000F8BD00BF98290020D029002010B5044698
:102BC000FFF798FF204601F056F9204610BD07B5E3
:102BD00002AB012203F8011D1946FFF7ADFF03B058
:102BE0005DF804FB07B501220DF10701FFF7C4FFF3
:102BF0009DF8070003B05DF804FB0A46014600207B
:102C0000FFF79ABF0A4601460020FFF7B5BF000054
:102C100010B515F0C9F80CA3D3E9002315F068FA34
:102C200015F014FC0446C0F307410620FFF7CFFF60
:102C3000C4F307210720FFF7CAFFE1B20820BDE86F
:102C40001040FFF7C4BF00BF0000000080844E406A
:102C5000144910B50A78044690B932B901230B70B3
:102C6000114BDA681B681B0413600120FFF7BAFFE1
:102C700000F0F80121430120BDE81040FFF7A7BF95
:102C8000094B2AB11A6800200870D96812040A603A
:102C9000032C1A6803D0DB6812041A60E5E79B680E
:102CA000FBE700BFAC2A00207C2900200120FFF7B1
:102CB000CFBF0020FFF7CCBF10B504460120FFF7BF
:102CC00091FFC0F3C010844226D0012C13D0FFF72F
:102CD000F0FF0120FFF786FF00F07F010120FFF7E2
:102CE00076FF00214020FFF772FF30214120BDE830
:102CF0001040FFF76CBFFFF7DCFF2046FFF772FFC5
:102D000060F07F01C9B22046FFF761FF002140203B
:102D1000FFF75DFF0021E9E710BD10B50446012073
:102D2000FFF7CAFF2CB134213920BDE81040FFF76E
:102D30004EBF1221F8E700002DE9FF47594C054628
:102D400004F0C6FC0121204600F000FC04F0D6FC93
:102D50002368E2681B041360012004F069FF04F09B
:102D6000B7FC2046002100F0F1FB04F0C7FC062070
:102D700004F05EFF2E784C4C042E1CD104F0A8FC0D
:102D80000021204600F0E2FB04F0B8FC012004F032
:102D90004FFF63681A6823681A4214BF0126002691
:102DA00004F096FC2046012100F0D0FB04F0A6FCC4
:102DB000012004F03DFF2368E2683C483C4C1B04C2
:102DC00013603C4B9A681B6813600821002204F0D2
:102DD00023F9394804F01EFF0020FFF739FF1022C5
:102DE000ACBB214668460AF0A3FD69463348344C23
:102DF00004F021F86846FDF789FE10227CBB2146CD
:102E000068460AF095FD69462E48DFF8C8802E4CCA
:102E100004F011F86846FDF779FE4FF0030900232E
:102E20005F1CDBB2D8F80020B2FBF9F29A421ED93F
:102E300003EB430304EB030AE05CFFF73DFF9AF862
:102E400002109AF80100FFF7C2FE3B46E8E70021B6
:102E500068460AF06DFD1D4B00940393C5E7002101
:102E600068460AF065FD194B00940393CBE7687937
:102E7000174CFFF721FF95F82800FFF74EFF42207F
:102E8000FFF7B0FE38B92046FFF742FE4FF07E5004
:102E900004F0C0FEF3E7A868FFF7BAFE304604B0BE
:102EA000BDE8F087B42900207C290020D02900202B
:102EB0008D27000898290020CDCCCC3DDC280020AF
:102EC000452700082C29002034B6010814B6010853
:102ED000EFAA0108D001002073B5224D224C234EE9
:102EE0000A21284603F04CFF2846214D2246314650
:102EF00000F054FE1321284603F042FF22463146DB
:102F000028461C4D00F04AFE4FF0FF330093062286
:102F100005230721284604F0D3F8224616492846FF
:102F200000F03CFE154B1C242246184600210AF0F6
:102F3000FFFC162103F0DAFE114B22461846002151
:102F40000AF0F6FC002103F0BEFE0E4B22460021E3
:102F500018460AF0EDFC212102B0BDE8704003F0F4
:102F6000B2BE00BFDC280020C8010020D96D0008D7
:102F70002C290020D0290020F52A000898290020BB
:102F8000B42900207C2900200FB407B5064B04AA01
:102F90001B6852F8041BD868019207F089FB03B044
:102FA0005DF804EB04B07047EC07002013B5084B44
:102FB0000024CDE900340122082307212046FEF732
:102FC00053FDFEF74DFD034B1C7002B010BD00BF5A
:102FD0002021F636AD2A002010B5044648B9FFF787
:102FE000E3F9FFF7E3FF084B1B682046BDE81040FC
:102FF0001847012807D1FFF7D7F9FFF7D7FF024B92
:1030000002201B68F2E710BDF02A00202DE9F041F4
:10301000884615461F469DF9186000283BD1202A96
:1030200003D92648FFF7B0FF2025254C2A46414604
:1030300020460BF0A5FA234B1F80234B1E702678E9
:103040002746FEB9214BA4781B78A34201D0FF2C60
:103050001BD1A4F1FF035C425C4101261C4B1B7891
:10306000ABB9FFF7A1F9FFF7A1FF012E24D1194B4E
:10307000787819492A1F1D68D2B22346AC46BDE8AC
:10308000F041604700242646E8E73446E6E7134867
:10309000FFF77AFFE9E7013801280DD80C4B1B78C0
:1030A0002BB9FFF781F9BDE8F041FFF77FBF0B486F
:1030B000BDE8F041FFF768BFBDE8F081FCAB010857
:1030C000AE2A0020FA2A0020F82A0020FC2A00203C
:1030D000AD2A0020F42A0020B22A002041AC0108C9
:1030E0000A4B10B518700A4B19600A4B0A491A604E
:1030F00004460A48FFF7D8F8094B00225C701A70A2
:10310000FFF752F9BDE81040FFF750BFFC2A00203E
:10311000F02A0020F42A00200D300008D92F0008E2
:10312000CE2A0020F7B5184F3C7834B11748214615
:10313000FFF72AFF012003B0F0BD1C2905D9144870
:103140002022FFF721FF0320F5E7124D0E1DAA7084
:10315000F6B20A460146281D2C70EE700BF010FAEC
:10316000FFF722F90C4A0823CDE90032214601235A
:1031700007220E20FEF75CFE31462846FEF740FE91
:1031800001233B702046D6E7AD2A002011AB010891
:1031900052AB0108CE2A00202021F636014BB3F9AC
:1031A00000007047FA2A0020014B93F90000704795
:1031B000F82A002010B5074B1C78012C05D10648D1
:1031C0002146FFF7E1FE204610BD044B1870002099
:1031D000FAE700BFAD2A00209CAB0108FC2A0020C2
:1031E0000FB407B5064B07491B6805AAD8680192BA
:1031F00007F05EFA03B05DF804EB04B0704700BF5F
:10320000EC0700208EAC010837B501460D480E4A88
:10321000037803EB83052A44545C012C06D00B4B46
:103220002B445B5C0370204603B030BD0848642229
:1032300002FB03000090074802FB01020648FFF76B
:10324000CFFFF0E7FD2A00207BB6010867B6010832
:10325000C8030020D40100208EAC0108014B18786F
:10326000704700BFFD2A0020014B00221A707047F2
:10327000FD2A002043692DE9F0410D46D907044697
:1032800028D58168334F8268334E8368334839408C
:10329000B94202EA060204BF0127A760B24203EA6C
:1032A000000304BF4FF48076A660834204BF4FF44E
:1032B0008030A0602748814205D027498A4202D049
:1032C000264A934206D1264B264A1B6852F825000F
:1032D00001219847E2686369920708D09F0706D5E5
:1032E0001F4B204A1B6852F8250000219847A1690E
:1032F000626963698E070AD5900508D5190406D559
:10330000174B184A1B6852F8250005219847A769F2
:103310006669626917F0040706F4806609D046B151
:10332000120406D50E4B0F4A1B6852F825000721E0
:10333000984763695FB156B11B0408D5084B094A29
:103340001B6852F825000221BDE8F0411847BDE88E
:10335000F08100BF03000004000300080000031018
:10336000082B0020002B002000210148FFF782BF1E
:1033700000640040FFF7F8BFFFF7F6BF01210148E6
:10338000FFF778BF00680040FFF7F8BFFFF7F6BF10
:1033900030B5036891FAA1F4B4FA84F491FAA1F17A
:1033A0000325B1FA81F1640005FA04F4490023EA27
:1033B000040302FA01F11943016030BD00B5002396
:1033C00089B007286FD8DFE800F00413202D3A47B2
:1033D00054610093364B37481A6B42F001021A636E
:1033E0001B6B03F001030093009B09B05DF804FB25
:1033F00001932F4B30481A6B42F002021A631B6B89
:1034000003F002030193019BEFE70293284B2B4843
:103410001A6B42F004021A631B6B03F0040302935D
:10342000029BE2E70393224B25481A6B42F0080205
:103430001A631B6B03F008030393039BD5E7049304
:103440001B4B20481A6B42F010021A631B6B03F0EF
:1034500010030493049BC8E70593154B1A481A6B95
:1034600042F020021A631B6B03F020030593059BB7
:10347000BBE706930E4B15481A6B42F040021A63E5
:103480001B6B03F040030693069BAEE70793084BC4
:103490000F481A6B42F080021A631B6B03F0800323
:1034A0000793079BA1E70B4804F07AFC00209CE7F8
:1034B00000380240000002400004024000080240C0
:1034C000000C0240001002400014024000180240AC
:1034D000001C0240CDAC0108431C10B5044604D1C9
:1034E00076220649064803F0CBFE2046002100F074
:1034F0000DFE04F00F040120A04010BDEEAC010849
:1035000048AD010870B504464B1C0E46218216D00A
:10351000C1F30310FFF752FF05463046FFF7DCFF0B
:10352000238A074A656103F00F03206052F82330B5
:10353000A36105F1100318356360A560E56070BDF7
:103540004CBA0108B0F9100000F078BE0A4619B96B
:1035500081694069FFF71CBF0122F9E74C23F0B5F0
:103560004343224E224F1A1D324400244FF0010ED5
:103570001E448C4205D10146BDE8F0401D4804F0D0
:103580000FBC33680EFA04F51D422BD0136B7D6916
:103590000EFA03F32B4225D0D2F818C07B611568D0
:1035A00005B3FA6833EA020203D1BA6833EA0202C9
:1035B00014D10F4A916833EA010103D1D26833EA8A
:1035C00002020DD1DCF81020134214BF01210221A8
:1035D000094B28461B68BDE8F04018470221F7E771
:1035E0000121F5E701340432C3E700BF0C2B0020B2
:1035F000003C014082AD0108202D00200621084634
:10360000FFF7ACBF05210846FFF7A8BF0121042042
:10361000FFF7A4BF01210320FFF7A0BF0121022073
:10362000FFF79CBF01210846FFF798BF012100204A
:10363000FFF794BF012910B518D11B4C838952B1F3
:10364000A26803F00F0399401143A160836843F01F
:103650000103836010BDA26803F00F03994022EAC2
:103660000101A160836823F00103F2E70229F1D18F
:103670000D4983895AB1CC6803F00F03012202FA85
:1036800003F32343CB60836843F00203E1E7CA6896
:1036900003F00F03012404FA03F322EA0303CB60CF
:1036A000836823F00203D4E7003C0140B0F90C30FA
:1036B00099B270B501F00F0606F00C0404F18044D5
:1036C00004F59C3401F00301A56889000F228A40AB
:1036D000C3F3031325EA02058B402B43A3600F4B72
:1036E00001221968B240114319608468E50742BF9E
:1036F000996811439960A10742BFD9680A43DA600B
:1037000090F90030002B08DB5909012203F01F0358
:1037100002FA03F3024A42F8213070BD003C014036
:1037200000E100E02DE9F04F92464A1C85B080464A
:103730000C4666D000220392334A344F516C41F458
:1037400080415164526C02F480420392039A04F067
:103750000F090C2202FB0972C4F303105568062DF1
:1037600047D8DFE805F0043A3C3E40424400284E8A
:103770000193FFF723FE0C2101FB09F17A1857F89A
:1037800001E0244FA8F80C404C21694301247B58E8
:1037900092F90820C8F8045004FA0EF44FF0000B18
:1037A0001C4388F80020C8F808B07C50132101FBA6
:1037B00005E507EB8501019B4B60174BC861C3F81A
:1037C00000A0164BC1F834909B681032404643F875
:1037D0002260FFF76BFF584610E0114EC8E7114E0C
:1037E000C6E7114EC4E7114EC2E7114EC0E7114EB5
:1037F000BEE7114804F0D4FA4FF0FF3005B0BDE841
:10380000F08F0846FAE700BF0038024024B90108EB
:103810002D3600080C2B0020202D002000ED00E0AC
:10382000253600081D360008153600080D3600083C
:1038300005360008FD3500085BAD01088389184A8C
:1038400003F00F03012110B501FA03F39468DB4381
:103850001C409460D4681C40D460146823401360FA
:1038600090F90030002B0CDB5A0903F01F0301FA1A
:1038700003F320320B4941F82230BFF34F8FBFF3DF
:103880006F8F90F90030002B09DB5A09012103F0FA
:103890001F0301FA03F36032024941F8223010BDE0
:1038A000003C014000E100E0838903F00F020C239B
:1038B0005343104A70B54468D658FFF7BFFF4C21F8
:1038C0000D4A6143012000FA06F55058132303FB0B
:1038D000046320EA0500505002EB830000214160A0
:1038E000981D0C3302EB800002EB830341605960AA
:1038F00070BD00BF24B901080C2B002008B503F0EF
:103900007DF8002008BD000008B50A4B1B684BB1CC
:1039100003F0F0F904F001F94FF47A72002314F087
:1039200005FE08BD03F0BEF84FF47A73B0FBF3F068
:1039300008BD00BF242D002010B588B003F0C8FEDC
:10394000052101A803F0D2F90424039B019A1A600F
:10395000962004F06DF9019B049A1B0413609620D5
:1039600004F066F9013CF0D10424039B019A1A602B
:103970004FF4C87004F05CF9019B049A1B041360B7
:103980004FF4C87004F054F9013CEED1DCE70000BC
:1039900070B50D46A0B0044603F09AFE2B462246B1
:1039A0008021684609F012FD051E03DC03F0A6FE27
:1039B00020B070BD094B1B6823B9032202210848BF
:1039C00000F090FE064E00241DF80410304601342D
:1039D00001F06AF8A542F7D1E8E700BF6C2D00209E
:1039E0004C3000200FB407B504A951F8040B019125
:1039F000FFF7CEFF03B05DF804EB04B070470000A2
:103A000008B502F0A9FF01F0ADF802F095FF02F051
:103A1000A3FF024B01221A6008BD00BF242D002025
:103A200000207047036801221B69002118470368C2
:103A300000221B691146184703681B691847036871
:103A40009B69184703689B6A184700290CBF6FF0F1
:103A50001800002070470120704711207047704700
:103A60006FF01C0070476FF0150070470120704721
:103A70000020704770470000F8B5074E15460C4609
:103A80008F18BC4205D014F8011B304601F00CF829
:103A9000F7E72846F8BD00BF4C30002038B58DB29E
:103AA00015F0010405D0084800F098FD041C18BF6B
:103AB0000124EB0605D5044800F0A6FD08B144F04A
:103AC0001004204638BD00BF4C30002010B504461D
:103AD00004F082FB204610BD10B50C462AB1044804
:103AE00000F0D0FF2070012010BD104610BD00BFB7
:103AF0004C30002038B51D46074B0360074B1B6850
:103B0000044633B9064800F0EDFD2946044800F0AC
:103B1000B1FD204638BD00BFECB901086C2D002076
:103B20004C300020002070470020704708B501206D
:103B300000F036F80C4A136810B51844EFF308810A
:103B4000884205D3094B0C221A604FF0FF3010BD9C
:103B500007490C6824B10749096821448842F1D219
:103B60001060184610BD00BF58060020103000201D
:103B7000382D00203C2D0020074C08B52368054651
:103B8000986808F067FC2368D86808F063FC0DB1FA
:103B9000FFF7D2FEFEE700BFEC07002001207047D0
:103BA00008B5FFF7E9FF01207047002109F0D0B9FF
:103BB00008F08ABC7047704708B5FFF7FBFF08BDE7
:103BC00008B5FFF7F8FF08BD10B5037803F003034D
:103BD000012B04460CD02BB140F2A95205490648EE
:103BE00003F04EFB237843F002032370012010BD45
:103BF000002010BD1FAE010876AE010810B5037895
:103C000003F00303022B044605D040F2B1520549EC
:103C1000054803F035FB237823F0030343F0010349
:103C2000237010BD1FAE01089CAE01083F2870B57F
:103C300004462FDC184D55F820305A1C13D10228A9
:103C400011DCFFF771FF034658B92046FFF76AFF02
:103C5000034630B9114E3378BFF35B8FDB0704D5D1
:103C60000F4B45F82430184670BD3046FFF7ACFFC7
:103C70000028F5D04FF41653032202210848FFF71D
:103C800039FF3046FFF7BAFF064A07490448FFF7F5
:103C900085FFE5E70023E6E758050020282D0020F2
:103CA000342D0020C8010020753A000838B50546BB
:103CB000FFF7BCFF0B4B002443F8254030B90AF056
:103CC00003FA092303604FF0FF3038BD03685B69D6
:103CD0009847051E04DA0AF0F7F96D420560F2E72D
:103CE000204638BD58050020FFF7E0BF38B50C4628
:103CF0001546FFF79BFF38B90AF0E6F90923036080
:103D00004FF0FF34204638BD03682146DB682A4661
:103D10009847041EF6DA0AF0D7F964420460EFE728
:103D200008B5131E06DA0AF0CFF9162303604FF028
:103D3000FF3008BD04D0FFF7D9FF40EAE07008BDAE
:103D4000184608BD38B50C461546FFF76FFF38B961
:103D50000AF0BAF9092303604FF0FF34204638BD5A
:103D6000036821469B682A469847041EF6DA0AF043
:103D7000ABF964420460EFE7002A08B503DBBDE855
:103D80000840FFF7DFBF0AF09FF9162303604FF0EA
:103D9000FF3008BD10B5FFF749FF044628B90AF007
:103DA00093F909230360204610BD0368DB69984737
:103DB000041EF8DA0AF088F9644204600024F2E78D
:103DC0001FB504220C4640230DEB020101900DF1BA
:103DD00009008DF808300AF0D3FB214602A808F04C
:103DE00035FD044630B10198FFF7D4FF10B12046ED
:103DF000FFF7DBFE204604B010BDFFF7CBBF38B5A0
:103E00000C461546FFF712FF38B90AF05DF9092391
:103E100003604FF0FF34204638BD036821461B691C
:103E20002A469847041EF6DA0AF04EF96442046006
:103E3000EFE7FFF7E4BF38B50D46FFF7F7FE04469E
:103E400030B90AF041F9092303604FF0FF3038BD63
:103E50000368DB699847002814BF4FF400534FF400
:103E600000436B60236820469B6A984728610020C6
:103E700038BDFFF7E0BF04F0AFB90000034610B54E
:103E800053F8042B044602B9036022689A4204D016
:103E90005E220349034803F0F3F9206810BD00BF18
:103EA000ACAD01080BAE010810B504460948FFF798
:103EB000E5FF0023084A194652F82300A04208BF34
:103EC00042F823100133402BF6D10248FFF7D6FF0A
:103ED00010BD00BF2C2D00205805002010B50F4844
:103EE000FFF7CCFF0E4B032453F824206AB10134B2
:103EF000402CF9D10AF0E8F8182303600748FFF7CF
:103F0000BDFF4FF0FF34204610BD4FF0FF32034895
:103F100043F82420FFF7B2FFF5E700BF2C2D002067
:103F20005805002010B50446FFF7D8FF0028A4BFAD
:103F3000014B43F8204010BD5805002070B50646DF
:103F40000C46FFF7EFFF054690B12146FFF738FF1B
:103F5000044630B9074B53F82520964203D143F865
:103F60002500204670BD0AF0AFF809230360F8E78A
:103F70000446F6E7580500200EB42DE9F04185B05F
:103F80000546FFF7ABFF041E13DB0023294602A8FA
:103F9000019303F0D9FD02A803F028FE1B4D06464D
:103FA00068B90AF091F81323036045F824604FF0D4
:103FB000FF34204605B0BDE8F04103B0704702A8C9
:103FC00003F002FE074602A837B103F006FE019097
:103FD000019B45F82430ECE703F0EDFD0646002890
:103FE000DFD0036802A8D3F8088003F0D9FD0B9B4B
:103FF000024601A93046C04706460028E8D00AF02C
:1040000063F87642066045F82470D0E75805002032
:1040100073B50E46184905460AF092F8044620B9D1
:10402000FFF704FE204602B070BD144928460AF08E
:1040300087F820B90120FFF7F9FD0124F2E71049C4
:1040400028460AF07DF820B90220FFF7EFFD022490
:10405000E8E72B78402B07D10422691C0DEB020006
:104060000AF08EFA019CDDE726F400412846FFF7AE
:1040700083FF0446D6E700BF3CBA010843BA0108F3
:1040800034BA010870477047074B08499A680848D6
:1040900010B5043A52F8044F41F8044F8142F9D167
:1040A0004FF000529A6010BD00ED00E0FCFFFF1FD2
:1040B000C001002008B5FFF7E7FFFFF7A1FCFFF7FD
:1040C000E2FF08BD08B5FFF7DDFFBDE80840FCF7DB
:1040D00019B930B5C36891FAA1F4B4FA84F491FA2D
:1040E000A1F10325B1FA81F1640005FA04F4490055
:1040F00023EA040302FA01F11943C16030BD012A29
:1041000002D0022A18BF0022FFF7E3BF2DE9F041D9
:104110000E46411C044604D13E224449444803F063
:10412000AFF804F00F08434BC4F3031053F82850C2
:10413000FFF744F906F007070446836895FAA5F1EE
:10414000B1FA81F195FAA5F20320490000FA01F1D4
:10415000B2FA82F223EA01035200022101FA02F2CA
:104160001343A36087425AD8DFE807F05E1D021DA3
:10417000B8F1070FC6F303203BD9626A2B0A93FA02
:10418000A3F1B1FA81F193FAA3F34FF00F0EB3FA52
:1041900083F389000EFA01F19B0022EA010200FA82
:1041A00003F3134363623B46226895FAA5F0B0FA25
:1041B00080F095FAA5F14FF0030EB1FA81F14000BD
:1041C0000EFA00F0490022EA00028B40013F13433F
:1041D000012F236005D8636832074CBF2B43AB43E4
:1041E0006360C6F3011229462046BDE8F041FFF79F
:1041F00086BF226A95FAA5F3B3FA83F395FAA5F17F
:104200004FF00F0EB1FA81F19B000EFA03F3890013
:1042100022EA030200FA01F313432362C3E7672291
:104220000249054803F02CF80023BDE7DBAE010886
:1042300048AD01084CBA010804B40108431C70B52C
:1042400006460D4604D188221B491C4803F018F885
:1042500006F00F021A4BC6F3031053F82240FFF783
:10426000ADF804FB04F2016802EB42030B40B3FB20
:10427000F2F3013B012B05D8EB1E022B436809D852
:1042800023434360032D08D101222146BDE870403D
:10429000FFF735BF23EA04034360012DF4D0052D59
:1042A00001D0022D01D10222EFE721460022BDE814
:1042B0007040FFF70EBF00BFDBAE010848AD01083C
:1042C0004CBA010870B5A6B03422002102A809F04A
:1042D0002FFB5C2200210FA809F02AFB2A4B1D6846
:1042E000002D4FD1294C019501261E60236C43F00F
:1042F00080532364236C03F080530193019B00F0EF
:104300005DFC042302A802930895049600F0C0FF08
:1043100010B11F4803F044FDA36823F4F813A36011
:10432000A36823F4F813A360236F43F48073236717
:1043300020230F930FA84FF480731F9300F058FDB4
:1043400010B1144803F02CFD134B144801221A60DD
:10435000134B036003220023826041F6FF72437710
:104360004360C26003614361836101F05EF910B193
:104370000C4803F015FD094801F089FA10B10A480C
:1043800003F00EFD26B070BD482D0020003802401D
:1043900033AF010853AF01083C0E47424C2D0020BB
:1043A000002800407CAF010896AF0108F0B51F4B14
:1043B0001F491C681F4A5D688BB00C4015401E46A3
:1043C0000F461868084084422BD158681040854237
:1043D00027D105F03F0001F051FA0490C5F3042005
:1043E00001F04CFA01380590280C01F047FA4430EE
:1043F0000690C4F3054001F041FA0390C4F306208F
:1044000001F03CFA029004F07F0001F037FA01223B
:104410000190694601A802F051FF00B100980BB06D
:10442000F0BD346875683C401540CAE7002800407C
:104430007F7F7F003FFFFF00024BD868C0F3001072
:10444000704700BF00280040214B224A2DE9F0416F
:104450001D691C689E6AC5F30E0514401846174670
:10446000196811408C422ED1996A8E422BD1C4F327
:10447000054001F003FA0746C4F3062001F0FEF9F7
:10448000804604F07F0001F0F9F9134A13493C23F8
:1044900013FB08004FF4616303FB07001368146803
:1044A00098420B683CBF03F5A83303F5C0731B1B90
:1044B00003440B6010600868013DC00305EB9000E9
:1044C000801BBDE8F0810468866A3C40C8E700BFF5
:1044D000002800407F7F7F00442D0020402D0020D9
:1044E00030B591B000211422044602A8019109F0D0
:1044F0001FFA03F0EDF82A4B2A4A1A6007A9012295
:10450000204602F02BFF002848D00D9B03B907235B
:104510008DF804300B9B01338DF805300A9B8DF824
:1045200006300C9B443B8DF80730099B8DF8083012
:10453000089B8DF809300024079B8DF80A308DF810
:104540000B4005940694FFF77FFF9DF809109DF836
:104550000A2013483C2313FB01229DF808304FF436
:10456000616101FB0323104A13600E4B224601A92F
:104570009D6A01F0B3F810B10C4803F011FC002261
:1045800002A9074801F00AF910B1094803F008FC34
:10459000044A936A9D42FCD103F0B0F811B030BDDB
:1045A0004C2D002000280040442D0020AFAF010812
:1045B000C6AF01080FB407B5064B07491B6805AA2B
:1045C000D868019206F074F803B05DF804EB04B00B
:1045D000704700BFEC070020DDAF01084368094ABF
:1045E0009B0182B0D3581A68120706D500220192A7
:1045F0001A6801925A680192019A1868C0F3401033
:1046000002B07047983000204368034A9B01D3589A
:104610001868C0F3C01070479830002042681449F1
:10462000920110B404685450531882685A60C268EA
:104630009A600269DA6042691A61026A9A6100222C
:10464000DA84DA619A84DA859A85B0F91A2001321F
:1046500006D108225A6118465DF8044B01F0B1BE3C
:10466000B0F9182001320CBF04220C22F2E700BF7F
:104670009830002010B581600C46FFF7CFFF28B1BD
:1046800021460348BDE81040FFF794BF10BD00BFAE
:10469000DDAF0108124B984217D0A3F54C43984266
:1046A00015D003F58063984213D003F580639842D8
:1046B00011D003F5806398420FD003F5444398422C
:1046C0000CBF05204FF0FF307047002070470120DD
:1046D000704702207047032070470420704700BFD6
:1046E00000100140F0B50E4687B004465B493046E5
:1046F000154602F037FC5A490746284602F032FCBC
:104700000146384602F008FC2060013004D13D2209
:104710005449554802F0B4FD022E0CD0032D0AD0A6
:104720004E49022002F01EFC874202D14F4803F09E
:1047300037FB002700E001274D4B206898424FF0DF
:1047400000031AD100934B4B5A6C42F010025A648A
:104750005B6C03F010030093009B474B984229D1F8
:1047600000230593434B5A6C42F020025A645B6C61
:1047700003F020030593059B1CE0404A90420BD1B7
:1047800001933C4B1A6C42F400321A641B6C03F424
:1047900000330193019BE0E7394A904240D10293F4
:1047A000344B1A6C42F480221A641B6C03F480238D
:1047B0000293029BFFF76EFF0028606004DAA422D8
:1047C0002849304802F05CFD2449304602F080FB65
:1047D0002349284602F07CFB721C03D0012130469D
:1047E000FFF72CFD6B1C03D001212846FFF726FDA7
:1047F0004FF41653A3600023E360236163612362D7
:10480000268365832046FFF709FF3FB11E4B1F48F3
:1048100001221A6021464C2209F0B2FE07B0F0BD19
:104820001B4A90420BD10393124B1A6C42F40022A4
:104830001A641B6C03F400230393039BBAE7154A25
:1048400090428AD104930B4B1A6C42F480121A6482
:104850001B6C03F480130493049BABE7ACB8010812
:1048600034B8010807B0010863B001087FB001083F
:104870000010014000380240001401400044004094
:1048800000480040B4B001086C2D00204C300020DE
:10489000004C004000500040002808DB4209012382
:1048A00000F01F0003FA00F0014B43F822007047AC
:1048B00000E100E000280DDB4309012200F01F00A9
:1048C00002FA00F02033044A42F82300BFF34F8F6E
:1048D000BFF36F8F704700BF00E100E0F7B5FFF74F
:1048E000D9FE071E26DB144E56F8270010B3134CD2
:1048F000BD0163591A68120606D5DB68190603D58F
:104900000F4B01211B68984763591A68920608D516
:10491000DB68980605D50A4B56F827001B6800216E
:10492000984763591A68110704D55A69D20744BFDA
:104930005B68019303B0F0BD742D00209830002017
:10494000702D00200148FFF7C9BF00BF00140140CF
:104950000148FFF7C3BF00BF005000400148FFF708
:10496000BDBF00BF004C00400148FFF7B7BF00BF0C
:10497000004800400148FFF7B1BF00BF00440040BD
:104980000148FFF7ABBF00BF00100140034B1960A7
:104990004168034B43F82120704700BF702D002071
:1049A000742D002030B490E818002C48834233D096
:1049B0000AD8A0F50060834228D000F580608342C9
:1049C00027D0002318460FE0254883420AD000F57F
:1049D0008060834223D0A0F544408342F1D1214B33
:1049E000352001E0204B2520204DA401FAB1C9B9A2
:1049F0002959CA6842F02002CA601D4A00F110011C
:104A0000926830BC42F82130FFF746BF194B262090
:104A1000EAE7194B2720E7E7184B3420E4E7184B67
:104A20004720E1E72959CA6842F08002E4E72B59A0
:104A3000DA6849B922F02002DA60DB6813F0800FEF
:104A400009D130BCFFF736BF22F08002DA60DB68A4
:104A500013F0200FF4E730BC704700BF004C00405B
:104A60000010014051490008814900089830002099
:104A700000ED00E075490008694900085D4900083B
:104A80004549000838B5446805462846FFF7A6FDA5
:104A90000028FAD0A401034B1B595868C0F3080042
:104AA00038BD00BF9830002070B5456806460C46FA
:104AB0003046FFF7A9FD0028FAD0AD01024B5B5943
:104AC000C4F308045C6070BD9830002008B50E4A3D
:104AD000C36D934214D008D8A2F5806293420FD0E0
:104AE0000A4803F05DF9002008BD094A934203D04B
:104AF00002F580629342F3D1BDE8084000F04AB964
:104B0000BDE8084000F036B9003C0040C6B00108DE
:104B100000300140DFF830D0002103E00B4B5B5840
:104B2000435004310A480B4B42189A42F6D30A4AC2
:104B300002E0002342F8043B084B9A42F9D301F00B
:104B40001FFEFBF789FB7047000002206C2E020855
:104B5000C8010020680D0020680D00206032002090
:104B6000FEE7704708B50B4B1A6842F400721A60F2
:104B70001A6842F480621A601A6842F480721A60FD
:104B8000032000F009F80F20FEF7B8FEFFF7E9FF59
:104B9000002008BD003C0240074AD36823F4E063CC
:104BA0001B041B0C43F0BF63000243F4003300F40A
:104BB000E0600343D360704700ED00E0014B012249
:104BC0001A60704720000E4237B500230193184B3E
:104BD000184C1A6C42F080521A641B6C03F080531C
:104BE0000193019B144B01221A60FEF78DFE0546CE
:104BF0006368DA030BD5114B0E4C01221A60FEF7E5
:104C000083FE054663689B030AD5002006E0FEF795
:104C10007BFE401BB0F57A7FEAD9032003B030BD9C
:104C2000FEF772FE401BB0F57A7FEBD9F5E700BFC7
:104C3000003802400070004040000E4244000E4226
:104C40002DE9F0410D46044610B90120BDE8F08180
:104C5000444B1A6802F00F028A4228D321688F075A
:104C60002DD4C80740D43F4B1A6802F00F0295427A
:104C700066D3226851076CD4130707D53A4A2169D5
:104C8000936823F4604343EAC103936000F0B8FAE9
:104C9000354B364A9B68C3F30313D35CD840344B7F
:104CA00018600F20FEF72AFE0020BDE8F081CAB28E
:104CB0001A701B6803F00F039942C6D1CEE72A4B46
:104CC00011F0040F1EBF9A6842F4E0529A600E077A
:104CD00042BF9A6842F460429A609A68A06822F0E3
:104CE000F00202439A60BCE762681F4B012A1DD1A3
:104CF0001B6813F4003FA8D01B4EB36823F00303D6
:104D00001343B360FEF700FE41F288380746B368EC
:104D1000626803F00C03B3EB820FA4D0FEF7F4FD3E
:104D2000C01B4045F3D90320BDE8F081911E012945
:104D30001B6802D813F0007FDDE713F0020FDAE7FB
:104D4000EAB21A701B6803F00F039D427FF47DAF37
:104D50008FE70549E0688B6823F4E05303438B60D9
:104D60008AE700BF003C0240003802409CBA0108BC
:104D70005C060020044B054A9B68C3F38223D35C86
:104D8000034A1068D840704700380240ACBA0108A6
:104D90005C060020044B054A9B68C3F34233D35C96
:104DA000034A1068D840704700380240ACBA010886
:104DB0005C0600200F2303600B4B9A6802F003028D
:104DC00042609A6802F0F00282609A6802F4E0524F
:104DD000C2609B68DB0803F4E0530361034B1B686C
:104DE00003F00F030B60704700380240003C0240A4
:104DF00003682DE9F74313F0010604460BD0AA49D6
:104E0000866BD1F88C2022F0C0623243B6FA86F667
:104E1000C1F88C2076099D070BD5A348E16BD0F82B
:104E20008C2022F0C0520A430029C0F88C2008BF11
:104E3000012613F0040512D09B49256BD1F88C2074
:104E4000B5F5801F22F4401242EA050218BFB5FAF8
:104E500085F5C1F88C2012BF6D09002501261807C1
:104E60000FD59148616BD0F88C2022F440020A43A0
:104E7000B1F5800FC0F88C2000F00981002908BF2F
:104E80000125990633D500230193874B874F1A6C70
:104E900042F080521A641B6C03F080530193019B13
:104EA0003B6843F480733B60FEF72EFD80463B6811
:104EB000DA0540F1EE807C4F3B6F13F4407340F015
:104EC000FB80236C03F44072B2F5407F764A40F0D9
:104ED0001681916823F0704021F4F81120F440709D
:104EE00001439160116FC3F30B030B4313672368F6
:104EF000D90642BF6E4B94F858201A6023681A06F0
:104F000008D56949E06CD1F8942022F440020243AC
:104F1000C1F894205F0608D56349A06CD1F89420AD
:104F200022F080620243C1F89420D8050CD55E4877
:104F3000616DD0F8942022F000620A43B1F1006F55
:104F4000C0F8942008BF0125990508D55649606C22
:104F5000D1F8942022F080520243C1F894205A05DF
:104F600000F1D180012E40F0DC80524E4E4F0023E4
:104F70003360FEF7C9FC80463B681B0100F12581C8
:104F80002268D00701D5A36B1BB1910715D5E36B40
:104F90009BB94549D1F88430D1F8840003F44033FB
:104FA00000F07060034360680343A06843EA801325
:104FB000606943EA0073C1F88430530703D5236B5B
:104FC000B3F5801F05D0170720D5636BB3F5800FAD
:104FD0001CD13549D1F88430D1F8840003F4403332
:104FE00000F0E040034360680343A06843EA801395
:104FF000206943EA0063C1F88430D1F88C00A36AC9
:1050000020F01F00013B0343C1F88C3050051BD535
:10501000236DB3F1005F17D123486768D0F884107F
:10502000D0F8843003F0E0433B43A768C1F301416B
:10503000013143EA871343EA4163E16849080139D2
:1050400043EA0143C0F88430110511D52369A268F1
:105050001B0643EA821362681343626943EA0273E0
:10506000E2685208013A43EA02430F4AC2F8843028
:1050700001233360FEF748FC0B4E074633681A01E4
:1050800053D4FEF741FCC01B0228F7D908E00126E3
:10509000F7E6FEF739FCA0EB080002287FF607AF21
:1050A000032003B0BDE8F0830038024000700040E8
:1050B000E011474268004742226C02F4407293427A
:1050C0003FF4FFAE3B6F4B4A0121116023F4407364
:1050D000002111603B673B6FDB077FF5F2AEFEF707
:1050E00013FC41F2883980463B6F98073FF5E9AEE3
:1050F000FEF70AFCA0EB08004845F5D9D0E7916817
:1051000021F4F811EDE63C48216DD0F8942022F00E
:1051100000520A43B1F1005FC0F894207FF422AF3F
:1051200023E7B3F5006F3FF420AF012D4BD1334D92
:10513000314E00232B60FEF7E7FB074633689B00E8
:105140004BD421684E0701D5236B1BB108071AD534
:10515000636BC3B9284AA069D2F8883003F440339E
:105160000343E06943EA8013606A43EA0063C2F8DC
:105170008830D2F88C30E06A23F4F853013843EADF
:105180000023C2F88C30CA0514D5636DB3F1006FEB
:1051900010D11949A269D1F8883003F07063134324
:1051A000E26943EA8213226A5208013A43EA02435F
:1051B000C1F8883001232B60FEF7A6FB0E4C054694
:1051C00023689B000FD500206BE7FEF79DFBA0EB4B
:1051D000080002287FF6D0AE62E7FEF795FBC01B01
:1051E0000228ABD95CE7FEF78FFB401B0228E7D90A
:1051F00056E700BF400E4742003802407000474269
:10520000204908B58B6803F00C03082B07D00C2B42
:1052100020D01D4A1D48042B18BF104608BD4A68FF
:105220004B68496813F4800314BF18481648C1F34B
:10523000881118BF002302F03F02A1FB000113F008
:1052400075F9104B5B68C3F3014301335B00B0FB9E
:10525000F3F008BD4A684B68496813F4800314BF33
:105260000A480948C1F3881118BF002302F03F0221
:10527000A1FB000113F05AF9024B5B68C3F3027300
:10528000E5E700BF003802400024F40000127A0075
:1052900003682DE9F341DF07044610D423689E0715
:1052A00067D423681A0700F1B28023685B0700F116
:1052B000D080A269002A40F0398100201EE0974B7F
:1052C0009A6802F00C02042A10D09A6802F00C02CC
:1052D000082A02D15B685D0208D4904B9A6802F0FC
:1052E0000C020C2A0DD15A6850020AD58B4B1B6850
:1052F0009903D3D56368002BD0D1012002B0BDE85B
:10530000F0816268B2F5803F11D11A6842F48032B0
:105310001A60FEF7F9FA814D06462B689A03BDD450
:10532000FEF7F2FA801B6428F7D90320E6E77B4DED
:10533000B2F5A02F2B6807D143F480232B602B6894
:1053400043F480332B60E4E723F480332B602B6835
:1053500023F480232B60002ADBD1FEF7D5FA064622
:105360002B689B039AD5FEF7CFFA801B6428F7D9E8
:10537000DBE76A4B9A6812F00C0F10D09A6802F0C3
:105380000C02082A02D15B685F0208D5634A936861
:1053900003F00C030C2B11D153685E020ED45F4B4B
:1053A0001A68950702D5E268012AA6D11A68216910
:1053B00022F0F80242EAC1021A6072E7E268584B32
:1053C000B2B101221A60FEF79FFA544D06462B68CF
:1053D000980707D52B68226923F0F80343EAC20334
:1053E0002B605EE7FEF790FA801B0228EFD99CE75E
:1053F0001A60FEF789FA494D06462B6899077FF532
:1054000050AFFEF781FA801B0228F6D98DE762695A
:10541000444B7AB101221A60FEF776FA3F4D0646F8
:105420006B6F9F073FF541AFFEF76EFA801B0228B6
:10543000F6D97AE71A60FEF767FA384D06466B6FC1
:1054400098077FF532AFFEF75FFA801B0228F6D986
:105450006BE7324B1A6C12F0805228D101921A6C11
:1054600042F080521A641B6C03F080530193019B3D
:1054700001262D4D2B68D9051BD5A368274D012B7F
:1054800027D12B6F43F001032B67FEF73DFA234D25
:10549000074641F288382B6F9B0739D5002E3FF421
:1054A00008AF1E4A136C23F08053136401E70026F3
:1054B000DFE72B6843F480732B60FEF725FA07467D
:1054C0002B68DA05D9D4FEF71FFAC01B0228F7D9DA
:1054D0002BE7052B04D12B6F43F004032B67D0E798
:1054E0002A6F22F001022A672A6F22F004022A673B
:1054F000002BCAD1FEF708FA41F2883807462B6F15
:105500009807CBD5FEF700FAC01B4045F7D90CE74A
:10551000FEF7FAF9C01B4045BDD906E70038024046
:1055200000004742800E474200700040234DAB68A8
:1055300003F00C03082B3FF4E0AE214E0023022AB7
:1055400033602DD1FEF7E0F907462B68990121D48D
:10555000226AE3691343626A43EA8213E26A43EA16
:105560000263226B43EA0273A26A144C5208013AA6
:1055700043EA02436B6001233360FEF7C5F9054639
:1055800023689A013FF599AEFEF7BEF9401B022849
:10559000F6D9CAE6FEF7B8F9C01B0228D5D9C4E689
:1055A000FEF7B2F904462B689B017FF586AEFEF745
:1055B000ABF9001B0228F6D9B7E600BF003802405D
:1055C000600047427047026838B5D36823F0A003F3
:1055D000D3600446FEF798F905462368DB689B060E
:1055E00001D5002038BDFEF78FF9401BB0F57A7F5A
:1055F000F3D9032038BD38B50368DA68520604468B
:1056000001D5002038BD4FF0FF32DA60FEF77CF99B
:1056100005462368DB685B06F3D4FEF775F9401B8B
:10562000B0F57A7FF5D9032038BD38B50446B8B156
:10563000437F03F0FF0213B90277FFF7C3FF022392
:1056400063772368CA225A6253225A622046FFF7C0
:10565000D2FF2368054628B1FF225A6204236377EC
:1056600001252EE09A68206922F4E00222F040022F
:105670009A60626899680243606902430A439A60CB
:10568000E2681A611A69A16842EA01421A61DA689D
:1056900022F08002DA609B689B0605D42046FFF763
:1056A00092FF08B12368D7E72368A1691A6C22F436
:1056B00080221A641A6C0A431A64FF225A62012378
:1056C0006377284638BD0023092803D840EA031031
:1056D000C0B270470A380133C0B2F5E7F8B5037FAE
:1056E000012B05464FF0020630D0012303774677A1
:1056F0004B78C8788E780C78002A48D1DA0603D522
:1057000023F010030A334B70FFF7DDFF074648789C
:10571000FFF7D9FF02463046FFF7D5FF40EA443095
:1057200040EA074040EA02242B68CA225A62532208
:105730005A622846FFF75FFF2B68064640B1FF22FA
:105740005A6204236B7700232B7701263046F8BD7D
:1057500024F07F4424F0C0045C60DA6822F0800208
:10576000DA609B689B060AD42846FFF72CFF30B10D
:105770002B68FF225A6204236B772E77E5E72B68AC
:10578000FF225A6201236B7700232B77DEE71B028F
:1057900043EA0040304340EA4434C5E7F8B5037FAC
:1057A000012B06460F464FF002052FD00123037749
:1057B0000368457708784D788C789B6842BB13F076
:1057C000400308BFCB70FFF77EFF01462846FFF776
:1057D0007AFF02462046FFF776FFFB7840EA034057
:1057E00040EA014040EA02243368CA225A62532246
:1057F0005A623046FFF7FFFE33680546A8B1FF2224
:105800005A62042373770023337701252846F8BDB5
:1058100013F040034FEA052508BFCB7045EA00406E
:105820002043CC7840EA0444DEE704F07F3424F0DF
:10583000FE441C609A68386922F480229A60FA68F3
:10584000996802430A439A60DA6822F08002DA60BB
:105850009B689B060AD43046FFF7B5FE30B133682B
:10586000FF225A62042373773577CEE73368FF222D
:105870005A620123737700233377C7E7030903EBE9
:10588000830300F00F0000EB4300C0B27047037FBA
:10589000012B4FF002030FD043770368CA225A62EC
:1058A00053225A629A6842F020029A60FF225A629A
:1058B00001234377002303771846704703685A682B
:1058C00022F0E0025A604268B2F5827F0AD1826813
:1058D000B2F5004F02D0B2F5806F03D11A6822F002
:1058E00040021A60826AB2F5005F09D11A6822F498
:1058F00000521204120C1A601A6842F400521A6024
:10590000012380F85130002380F850300320704785
:1059100070B505460C46164629688B689B0701D56D
:10592000002070BD621CF8D024B92846BDE8704044
:10593000FFF7C4BFFDF7E8FF801B8442ECD8F4E713
:105940002DE9F041DDF8188005460F4616461C4645
:105950002B6898683840B04202D10020BDE8F08141
:10596000621CF6D024B92846BDE8F041FFF7A6BF77
:10597000FDF7CAFFA0EB08008442E9D8F3E713B5AE
:105980000B460092802100220446FFF7D9FF20B188
:10599000636D43F020036365032002B010BD7047C0
:1059A00038B5044600283BD090F8513003F0FF0290
:1059B0001BB980F85020FFF7F2FF2168A568A06AA4
:1059C000A269022384F851300B6823F040030B6076
:1059D00063682B43E5682B4325692B4365692B439B
:1059E000E5692B43256A2B43034302F400752B43DF
:1059F0000B60120C636AB0F5005F02F0040242EA29
:105A0000030208BFE36A4A6008BF0B61CB6923F455
:105A10000063CB6100200123606584F8513038BDFC
:105A2000012038BD2DE9F3411E4690F85030012B7E
:105A300004460D46904600F0BA80012380F85030AD
:105A4000FDF762FF074694F85100C0B2012840F00C
:105A5000AC80002D5FD0B8F1000F5CD0032384F838
:105A6000513000236365A363A4F83680A387E387DE
:105A700063642364A36822682563B3F5004F08BFFD
:105A80001368A4F8348004BF43F480431360A36A0E
:105A9000B3F5005F09D1136823F400531B041B0CFA
:105AA0001360136843F40053136013685B065EBF12
:105AB000136843F040031360E368B3F5006F636855
:105AC0003AD11BB1E38E9BB2012B06D135F8023BD4
:105AD000D360E38E013B9BB2E386E38E9BB283B936
