:020000040800F2
:10000000000002204D560008995600089956000835
:1000100099560008995600089956000800000000FB
:1000200000000000000000000000000099560008D9
:1000300099560008000000009956000899560008DB
:1000400099560008995600089956000899560008D4
:1000500099560008995600089956000899560008C4
:1000600099560008995600089956000899560008B4
:1000700099560008995600089956000899560008A4
:10008000995600089956000899560008AD3E000898
:10009000B13E000899560008A13E00089956000894
:1000A0009956000899560008995600089956000874
:1000B0009956000899560008995600089956000864
:1000C0009956000899560008995600089956000854
:1000D0009956000899560008995600089956000844
:1000E0009956000899560008995600089956000834
:1000F0009956000899560008995600089956000824
:100100009956000899560008995600089956000813
:100110009956000899560008995600089956000803
:1001200099560008995600089956000899560008F3
:10013000995600080000000000000000C13E0008C1
:10014000C53E000899560008B53E000899560008BB
:1001500099560008995600089956000899560008C3
:1001600099560008995600089956000899560008B3
:10017000995600089956000899560008000000009A
:100180000000000099560008000000000000000078
:100190009956000800000000000000009956000871
:1001A0000000000000000000000000009956000858
:1001B0009956000899560008995600089956000863
:1001C0009956000810B5054C237833B9044B13B188
:1001D0000448AFF300800123237010BD9810002065
:1001E000000000000CBA010808B5034B1BB103491D
:1001F0000348AFF3008008BD000000009C10002001
:100200000CBA0108A3F5803A704700BF174B002BCA
:1002100008BF134B9D46FFF7F5FF00218B460F46A5
:100220001348144A121A09F021FE0E4B002B00D07D
:1002300098470D4B002B00D0984700200021040068
:100240000D000D48002802D00C4804F048FA09F0CF
:10025000CBFB2000290004F0D1FC04F03DFA00BFE4
:100260000000080000000000ED4B00080000022024
:100270009810002078360020DF46000800000000BB
:1002800010B5094B036003F1200280330446C0F827
:10029000BC20C0F8C030BC3008F08AFC204607F013
:1002A00065FF204610BD00BF48AD0108A0F1BC00AD
:1002B000E6E7A0F1C000E3E708B5164C1649174879
:1002C000174D08F099FC1749144808F095FC224690
:1002D0001549124808F0ADFC1449104808F08CFC90
:1002E00011490E482A4608F0A4FC0C4808F072FC9C
:1002F0000F492B782278094808F07EFC207800F01E
:10030000E1F82978207800F0BBFC00F02DF900F02E
:10031000C1FCFAE7CC0100208C8401087411002094
:10032000B4100020D2840108408F0108E98401083C
:100330000685010810B50446FFF7A2FF204604F029
:1003400036FB204610BDA0F1BC00F3E7A0F1C000D1
:10035000F0E7000013B5094C4FF416530093032245
:1003600000230221204607F085FA054A0549204668
:1003700002B0BDE8104004F0ADB900BFB8100020D5
:10038000C8010020810200080FB407B5064B04AA7B
:100390001B6852F8041BD86801920FF06FFC03B081
:1003A0005DF804EB04B07047C006002008B5074BA9
:1003B0001A78074B1B789A4205D106481146FFF779
:1003C000E3FF012008BD0020FCE700BFCD010020B5
:1003D0002E1300201F850108024B1870062000F024
:1003E0007FBA00BF9211002038B50546FFF7DEFF47
:1003F0000128044605D105482946FFF7C5FF2046D8
:1004000038BD034B00241D70F9E700BF5E8501086D
:100410002E13002070B50D4E0D4D3378834228BF4A
:1004200003461A460B4829461C4609F009FC327857
:10043000094B121BD2B21C7032702AB129192846FE
:1004400009F0FEFB012070BD1046FCE7941100206E
:100450002F170020951100202A13002038B50546DB
:1004600010460C46FFF7C0FF012808D1072000F016
:1004700053FA20B1BDE83840072000F04DBA192CDE
:100480002246294609D80B4809F0DAFB0A4B1C70B2
:10049000BDE83840042000F023BA084809F0D0FB3A
:1004A000074B1A201C70FFF7B5FF072000F018FA61
:1004B000EEE700BF951100202A1300202F1700201F
:1004C0009411002010B50A4B0A4C00221A702070BB
:1004D00000F01CFAFFF76AFF207800F089FA06485E
:1004E00001F0C4FFBDE81040044801F0C5BF00BFE3
:1004F0002E130020CD0100205D040008D903000860
:100500002DE9FF41164D1F4695F80080154B144606
:1005100098440E4600F0E2F922460146404609F0B2
:100520008FFB2A78023A1444E4B2012F2C7003D0D6
:100530009DF82830012B10D100F09AFA039000F0BA
:1005400091FA039B009022460648314601F062FF73
:100550000020287004B0BDE8F0810120FAE700BF58
:10056000931100202F1300202DE9FF47B44BB54C09
:100570001A782578AA4218BF1D70012D00F0A580B9
:10058000022D00F0C580002D40F05681062000F0BD
:10059000C3F978B1AC4B187800F046FAB0FA80F0A5
:1005A000400901F050FF2570062004B0BDE8F04777
:1005B00000F0A0B9032000F0AFF998B300F042FAC0
:1005C000064600F045FA054600F046FA029000F0B3
:1005D00055FA0746284600F05EF9C0B20090029A2C
:1005E0003B4631462846FFF78BFF1FB1002323709F
:1005F0000320DAE7284600F06FF9944A137898420E
:1006000008BF431C284608BF137000F065F9014677
:100610008F4800F04AF932468D48032100F0FAF97C
:100620000123E4E7042000F077F938B3874D894BC4
:100630002A781B7803920720029300F06DF9B0FA34
:1006400080F04009DDE90232834900908348844EFE
:1006500000F032F9834B3278187001467F4800F081
:10066000D9F93378FF2B1EBF2B7801332B707E4BCB
:1006700000221A7001232370042096E7072000F05F
:100680004BF950B1042000F02BF91A20FFF7C2FEFD
:10069000002840F0D180072087E700F03DF908B13D
:1006A000002082E7012000F037F908B101207CE743
:1006B00000F032F908B1022077E7052000F02CF9AC
:1006C000002800F0B98005206FE7284600F024F9E3
:1006D000064650B100F0F2F9012803D0052000F0E1
:1006E0001BF900B102202070E0E700F015F90028A6
:1006F00000F0A2805A4B1B78FF2B04D128462670AD
:1007000001F09EFECCE70223237000F017FAC7E742
:10071000284600F001F90546D0B100F099F90546E8
:100720004E4800F0D9F80646284600F0D5F8864233
:1007300007D100F0B7F900230120237001F080FEFB
:10074000B9E7464800F0C8F8284600F0C5F8B2E717
:10075000052000F0E1F8E0B1434E3378092B0BD9C6
:100760003E4800F0B9F801464048FFF70DFE284624
:10077000257001F065FEA6E7394B38481A78394BE9
:10078000197800F047F9337801333370012323706F
:1007900099E7032000F0C0F8002842D000F052F999
:1007A000074600F055F9054600F056F9814600F07D
:1007B00065F90646284600F06EF85FFA80F8EEB15B
:1007C000CDF8008033464A4639462846FFF798FE62
:1007D000002E7FF40BAF284600F07EF81B4A1378FA
:1007E000984208BF431C284608BF137000F074F8F5
:1007F0000146174800F059F83A460DE7DFF84CA0DB
:10080000284600F069F89AF800308342D8D028468C
:1008100000F062F89AF8002001461548FFF7B4FD91
:10082000D9E700F079F800287FF43AAF012000F012
:1008300073F800287FF43AAF04B0BDE8F08700BF3A
:100840009111002090110020921100202B13002004
:100850005D1200202A130020951100206212002052
:100860002E1300202C1300202D1300208385010857
:10087000C1850108024B1A78024B1A70704700BFFD
:1008800090110020911100200078013801288CBFC0
:100890000020012070470078431E5842584170479D
:1008A0000078B0FA80F040097047002303700123FC
:1008B000417083700320704710B51C469DF80830C6
:1008C0004270012B18BF022303702246023009F048
:1008D000B7F9A01CC0B210BD407870470230704715
:1008E000034A012303FA00F01368184310607047AD
:1008F000301B0020044901220B6802FA00F023EAB1
:1009000000030B60704700BF301B0020014B00222A
:100910001A607047301B0020012303FA00F0024BDD
:100920001B681840704700BF301B0020054B1B7828
:100930005A1E012A02D80020FFF7D2BF0BB90120AE
:10094000FAE77047351B0020F8B507460C461546F8
:100950001E4609F0FBFA07EE900AFAEEE07AF5EE91
:10096000C07AF1EE10FA21DD2A462146104809F03E
:1009700067F9104B1F70104B1D7003F0B1F90F4B4E
:10098000187003F0A7F90E4B18800E4B20461E700E
:10099000FFF77AFF20B10320BDE8F840FFF7A0BFC2
:1009A0002046FFF77DFF08B10220F5E7F8BD00BF44
:1009B000381B0020371B00206C1B0020361B00203A
:1009C0006A1B0020341B00200FB407B5064B0749F3
:1009D0001B6805AAD86801920FF050F903B05DF8C2
:1009E00004EB04B0704700BFC00600200D8601086C
:1009F00010B50446002007F0C3FF09F09FFA204617
:100A0000024A0349BDE8104003F006B9490900084D
:100A10002D09000810B5044603F020F9014B227897
:100A20001A7010BD351B002010B503F05FF90446A5
:100A300018B101460248FFF7C7FF204610BD00BFAE
:100A40000D860108014B1878704700BF371B002046
:100A500000487047381B0020014B1878704700BFD2
:100A60006C1B0020014BB3F9000070476A1B00208B
:100A7000014B93F900007047361B0020014B18789A
:100A8000704700BF341B0020036818470B680360E1
:100A900070477047024B002205201A70FFF720BFF5
:100AA0006D1B002008B5034806F031FE024B002202
:100AB0001A7008BD701B00206D1B0020014B1878B8
:100AC000704700BF6D1B0020C36810B504460BB112
:100AD0009B689847204610BD38B50546064B45F83B
:100AE000283B044606F013FE2846FFF7EDFF20469C
:100AF00006F0D8FD204638BD9CAC010810B5044670
:100B0000FFF7EAFF204603F052FF204610BD000029
:100B100010B5034B03600446FFF7DEFF204610BD0F
:100B200010AD010838B5CB6804460D460BB15B68C3
:100B30009847EB68E360204638BD000030B589B0C7
:100B400009F004FA102204460021684609F08EF9E3
:100B5000204B00936946204B039304A8FFF7E2FF64
:100B6000032094FBF0F000EB4000241A0234E4B2BE
:100B700007EE904A9FED197AF8EE677A67EE877A6A
:100B800017EE900A16F076FC05460C4607F03CFB83
:100B9000134B5A6B22B993F838300BB107F0CCF8ED
:100BA0001048FFF791FF04A90E48FFF7BBFF2A4644
:100BB00023460B4806F093FD07F03CFB04A8FFF723
:100BC00083FF6846FFF780FF074B01221A7009B0C8
:100BD00030BD00BF950A0008408601080024744912
:100BE000701B0020981B00206D1B002010B50446D0
:100BF000FFF78EFF204603F0DAFE204610BD00000E
:100C000010B50C4C204606F025FD20460A4B40F856
:100C1000283B1022002109F029F9012384F83830FB
:100C2000064B23602046064A0649BDE8104003F003
:100C300051BD00BF701B00209CAC010810AD010825
:100C4000C8010020110B00080FB407B5064B074977
:100C50001B6805AAD86801920FF010F803B05DF880
:100C600004EB04B0704700BFC00600204C860108AA
:100C700008B507F0ABF9003818BF012008BD000027
:100C8000024B1870024B1970704700BFA624002059
:100C9000A92400202DE9F04FA04AA14B11781B7820
:100CA0009942A1B018BF13700C2B00F2CB80DFE883
:100CB00013F00D00430047002C0171011B04C20812
:100CC000600741066304C900C900E208954B1B6830
:100CD0009BB90123924A1370022001F091FB044654
:100CE00088B101F0B3FB039001F0B4FB0399024615
:100CF0008D48FFF7A9FF022019E0012BECD1FFF787
:100D000033FC0223E6E7042001F07AFB002800F020
:100D1000998086498648874D09F0F0FC864B874AC2
:100D200083481B681278297898472C70042021B0DA
:100D3000BDE8F04F01F058BB0223794A137081E0FF
:100D40007F4E784C3378012B40F0A4802568002D2D
:100D50007BD0012D73D17B4F7B4D3B784BBB2B78E8
:100D60003BBB7A4B1B68032B23DC794ADFF8F48109
:100D700003EB8303D118D35C4878C8F8003001F046
:100D8000EDFB0146734809F0B9FCD8F80020724920
:100D9000704B724807F030FF674B6E48D3F80090F5
:100DA00009F00EFD98F80020C1B26A48C847012337
:100DB0003B70022001F024FB00B301F047FB8046AA
:100DC00001F048FB0328024615D14046644909F06A
:100DD00065FD804678B93B786BB1624B62491A6811
:100DE0005E4807F009FF012360495C4887F80080EE
:100DF0002B7007F001FF022001F0F6FA2B78DBB12F
:100E00005B48FFF735FFB8B1544807F0E3FEC0B2C6
:100E1000312875D15749514807F0EEFE4B490B6810
:100E200001330022032B2A700B6064DD52494B48CA
:100E300007F0E2FE022323603378012B2AD12368D6
:100E4000022B56D021B0BDE8F08F01F055FB404F8A
:100E5000DFF83C91DFF804813B787878039301F068
:100E60007DFB2A460090039B49464046013507F02A
:100E7000C3FE042D07F10507EED1344A00231360A9
:100E8000304A1370304A1370012323603378012BEA
:100E90003FF461AF022001F0B3FA0028CFD001F097
:100EA000D5FA039001F0D6FA344B03990F28064681
:100EB000A8BF0F2605463246184608F0C1FE2F4B44
:100EC0002F49264800229A552A46009507F094FE9D
:100ED0002C4B0793184B01221B68032107A8984746
:100EE000022001F081FA24491C4807F085FE022304
:100EF0002360032321E701232360094B1A709BE73A
:100F00002149164807F078FE96E72049134807F074
:100F100073FE044B00221A6004230EE7C11B00205D
:100F2000B01B0020442900204C860108C21B002071
:100F3000A0200020A82400204C290020A924002063
:100F4000A6240020B4240020F8240020E824002057
:100F5000982D0020FC240020AA860108842000206F
:100F6000C686010840290020CA860108EC860108CF
:100F7000C81F00202587010861870108B11B0020D8
:100F8000BE87010841434B0086870108E3870108BB
:100F900089860108B34BB44C1B78012B40F0478184
:100FA0002568002D37D0012D41F05980DFF8D88217
:100FB000AE4E98F80030002B40F0C9803578002DF7
:100FC00040F0C580AA4BDFF8BCB21B68DBF80020FC
:100FD000934280F2BC80DFF8DCA2A64FA6498AF8D3
:100FE0000050504657F8239009F05CF9A34BDBF80A
:100FF0000020AA4240F3988057F8042B4A4508D0B5
:10100000194607A809F04EF907A9504609F0DEF97C
:101010009A4B0135EBE79A4B9A4E1D60944BDFF8E3
:10102000B8E21D60984B994A1D70904B984FDFF8BD
:1010300044821D7035602B4629462846AC461EF872
:10104000019BB9F1000F04D1107848F82300013357
:1010500001200131042982F803C047F804CB02F1D2
:101060000502ECD100B133608A498B48814FDFF82B
:101070006C92DFF8248207F0BFFD8849864807F0AC
:10108000BBFD3368AB4207DD57F8042B49464046A9
:1010900007F0B2FD0135F4E781497F4807F0ACFD68
:1010A000012323606F4B1B78012B3FF47FAF02209D
:1010B00001F0A6F9002800F0CD8701F0C7F9054638
:1010C00001F0C8F92B46064602467649724807F0F9
:1010D00093FD644B2E44187800272B46B34240F012
:1010E000B0806D4EDFF8F891A6F1BC084946304655
:1010F00007F082FD4046FFF7BBFD0028FAD03046DE
:1011000007F068FD05465FFA80FA303D66495246B1
:101110003046EDB207F070FD092D40F2E3806349DF
:10112000304607F069FDE1E7614B62481D6809F050
:1011300047FB5FFA89F2C1B25E48A8475D4B5E4942
:1011400055484A4607F058FD012388F80030022030
:1011500001F056F938B301F079F9054601F080F94C
:101160000390284607F0C8FD0928034698BF484861
:10117000039A9EBF50F82310013140F823104048D5
:101180000168013101604D49434807F035FD0023F6
:1011900088F800304A4940480123337007F02CFD9D
:1011A000022001F021F93378002B3BD04548FFF7AE
:1011B0005FFD002836D0384807F00CFDC0B231285A
:1011C0003AD12B4F40493B683348013300253B60FF
:1011D000357007F011FD2B4B3A681B689A4221DBF2
:1011E0003A492D48DFF8A490DFF8A4B0DFF8A8A0B2
:1011F00007F002FD364999F802303BB199F800201A
:1012000050465BF8223007F0F7FC31490135042DD8
:1012100009F10509EFD10223236000233B6088F820
:10122000003033700F4B1B78012B00F018872368B8
:10123000012B01F306803AE72649174807F0DCFC4A
:10124000F0E713F8012B303AD1B209293FF646AF47
:1012500090423FF443AF20A901EB8701013741F8E9
:10126000642C3BE7A624002044290020F924002018
:10127000EC2400201C2900208B88010859880108D3
:10128000E4240020AC240020B5240020982D002068
:10129000B8240020FF87010884200020238801084B
:1012A0005D8801080D8A0108688A01086B8A0108B7
:1012B0004C2900201C250020C0880108F488010862
:1012C00034890108C81F00207C890108AA89010807
:1012D000D0890108E2890108EB9601084E880108CF
:1012E000328A0108834B1B78AAF1300293420BD05B
:1012F00007A900239F4200F0DB8751F8040B9042BE
:1013000000F096860133F5E77B4909E700250F4693
:10131000604600F0E5BE0135042D40F0F98600F08E
:1013200002BF7649764809F051F800F0FCBE8A42C7
:1013300002DB744900F00ABF7349714809F046F8AE
:1013400000F00ABF7149724807F056FC00F074BF04
:1013500070496F4807F050FC6F49284609F050FC6F
:10136000002861D06D496A4807F046FC6C4B0122A9
:101370001A706C4B07936C4B01221B68032107A862
:1013800098475C4B69491A78614807F035FC0220A0
:1013900001F02AF803232360654E002332463546C8
:1013A000517801294DD1917800294AD003EB83036C
:1013B0002B4493F904B0BBF1FF3F48D14D4B5D4F37
:1013C0001A7838780023194696F800C0944506D15B
:1013D00096F802C0BCF1000F01D10123184601317B
:1013E000042906F10506EFD103B13870FF232B71F4
:1013F0006B72AB73EB74504B4FF0FF3119604F4978
:1014000000230B604E49EB700B604B602B728B60BE
:101410006B73CB60AB742360414B1B78002B36D1D0
:10142000012A36D1072388E44649284609F0E8FB1B
:1014300000289ED0444996E72368032B7FF402AD31
:10144000AAE70133042B02F10502A9D1B6E7384F10
:10145000DFF8E4903D49DFF8B8A04FF000083B7892
:101460005B450CD1BB7853B1D9F800309B4506D011
:101470000023BB705A46504607F0BEFB334908F1C3
:101480000108B8F1040F07F10507E8D196E70C232E
:1014900053E42F491E4807F0AFFB2E4A2E491C4843
:1014A00007F0AAFB39782D4B2D4A1948002908BFAF
:1014B0001A462C4907F0A0FB3B789BB92A492548DE
:1014C00008F0B2FF0028ADD02849224808F0ACFF50
:1014D00008B9092331E426491E4808F0A5FF08B9D8
:1014E00008232AE4052328E42249094807F084FB5D
:1014F000FFE400BFA6240020A18A0108F78A0108A2
:101500001C270020528B0108798B0108958C01085B
:1015100084200020448D01089D8D0108AB8D0108B9
:101520003C29002041434B004C290020218E01081A
:10153000982D0020A724002018020020E424002079
:10154000B8240020DC8D0108ED8D0108438E0108D0
:10155000778E0108B11B0020938E01087486010864
:101560006D860108AF8E0108C68E0108CC8E010879
:10157000D38E0108DA8E01088A4C2378012B40F0C3
:10158000DB80894D2F68002F6ED02B68012B7FF4F4
:1015900059AC022000F034FF002860D000F056FF64
:1015A00007F0AAFB814902468046814807F024FBE8
:1015B000804A002303EB83018818895C414540F091
:1015C000EA80407800F0CAFF0646DFF804927A4FBE
:1015D000D9F800A0DFF8D8B1304609F0F1F83A7830
:1015E000C1B23046D0473B68744900934246334607
:1015F0006F48704EDFF8F8A107F0FEFA022000F005
:10160000F3FE6F4A10685168128907AB03C34FF0AD
:1016100000081A80B3787BB1D9F80030039307A88B
:1016200009F0CEF83278039BC1B207A89847327808
:101630005146584607F0E0FA08F10108B8F1040FE6
:1016400006F10506E6D15F49594807F0D5FA5E4A2A
:101650000323137000232B604FF0FF333B6023788C
:10166000012B3FF4EFAB67E0524E3B46324631462A
:10167000507802284AD19078002847D003EB8303A2
:10168000CA5C4D4B1A60514B07AA03F1280E9046D5
:10169000186859689446ACE80300083373456246FD
:1016A000F6D119889B78ACF800108CF802303922FA
:1016B00000210DF1470008F0D9FBDFF8FC90DFF8BE
:1016C00034A1B37863B13278D9F800309A4207D0A8
:1016D000514605A808F0E6FD05A9404608F076FE4B
:1016E0000137042F06F10506EBD1394B324E1F6846
:1016F000404609F065F83278C1B24046B8473268D2
:1017000034492B4807F078FA012310E00133042B09
:1017100002F10502ACD1284B1B680133B3D12E492D
:10172000234807F069FA284A0323137000232B602B
:101730002378012B3FF429AF2849294808F074FE8B
:10174000002840F09480274B1B78002B40F08F80BE
:10175000022000F055FE002800F08980124F3B68FF
:10176000002B40F0848000F071FE054600F072FE10
:10177000134980460922284609F090F806460028B9
:101780003AD119490A4807F037FA0F4A3E60032355
:101790001370FFF7B0BA0133042B7FF40BAF134E75
:1017A00013E700BFA6240020442900207A8F0108F7
:1017B00084200020982D002014020020A98F010809
:1017C0005B90010824900108B01B0020E3950108FC
:1017D0004C290020438F0108F88E0108CC8E0108A7
:1017E000B11B0020A7240020659001088186010814
:1017F000EA8F01083F8F010842468A498A488A4E8B
:10180000DFF87C922B4607F0F7F9A6F1BC084946B1
:10181000304607F0F1F94046FFF72AFA0028FAD0DF
:10182000304607F0D7F905465FFA80FA303D7F4928
:1018300052463046EDB207F0DFF9092D45D87C4914
:10184000AAF1300207A808F02DFD7A4B07A81D6801
:1018500008F0B6FF0122C1B207A8A847764972482E
:1018600007F0CAF9022000F0BFFD01233B60237896
:10187000012B3FF4E7AA7149714808F0D5FD90BBF0
:10188000704B1B787BBB022000F0BAFD58B3DFF829
:10189000D081D8F80030012B25D100F0D7FD0546C6
:1018A00000F0D8FD684907460922284608F0F6FFEF
:1018B000064678B965495C4807F09EF9644AC8F85D
:1018C000006003231370FFF716BA6249304607F031
:1018D00093F99CE7604954482B463A4607F08CF947
:1018E000022000F081FD2378012B3FF4ABAA0220F7
:1018F00000F086FD00283FF4A5AA00F0A7FD0446ED
:1019000000F0A8FD092802467FF49CAA20464E4913
:1019100008F0C4FF044600287FF494AA484A4F49BF
:10192000414807F069F94A4A032313704C4B1C6085
:10193000FFF7E1B94B4F4A4C3B78012B40F0B780A1
:101940002668FEB12368012B17D1022000F058FD54
:1019500078B100F07BFD07F0CFF9434B43491860A5
:101960000246314807F048F9022000F03DFD02230D
:1019700023603B78012B40F09A802368022B7FF490
:1019800061AAEAE0384B3A4D4FF0FF321A6029461F
:101990002A4633465078032876D19078002873D0B1
:1019A00003EB8303CA5C334B1A60334B07AA03F182
:1019B000280E9046186859689446ACE8030008332E
:1019C00073456246F6D13C22002111A808F04EFA78
:1019D000DFF8A090DFF8ACA0AB7863B12A78D9F833
:1019E00000309A4207D0514605A808F05BFC05A9D3
:1019F000404608F0EBFC0136042E05F10505EBD15D
:101A00000C4B1C4D1E68404608F0DAFE2A78C1B225
:101A10004046B0472A681949034807F0EDF801230A
:101A200040E000BFA290010884200020688A0108DD
:101A3000408F01084C290020E2900108CC8E01085B
:101A4000B11B0020A72400205B90010865900108CD
:101A5000B01B002017910108379101085891010827
:101A600044290020A6240020180200201192010819
:101A7000982D00201002002047960108DE910108F1
:101A8000C39001083F8F01080133042B02F10502C6
:101A900080D1B64B1B68013387D1B549B54807F0F3
:101AA000ABF8022323603B78012B3FF44BAFB249E4
:101AB000B24808F0B9FC00287FF45FAFB04B1B7848
:101AC000002B7FF45AAF022000F09AFC00283FF46C
:101AD00054AF2368002B7FF450AF00F0B7FC0390A5
:101AE00000F0B8FC039BA749A24EDFF8E48202464F
:101AF000A04807F081F8A6F1BC074146304607F040
:101B00007BF83846FFF7B4F80028FAD0304607F0E3
:101B100061F805465FFA80F9303D9B494A463046F8
:101B2000EDB207F069F8092D1ED8A9F130099749DF
:101B30004A4607A808F0B6FB954B07A81E6808F0B0
:101B40003FFE0122C1B207A8B047924989484A46E0
:101B500007F052F8022000F047FC8F4A0923137067
:101B600000232360FFF76EB98C49304607F044F834
:101B7000C3E78B4F8B4D3B78012B28D12C68002C71
:101B800070D0012C40F04B81022000F039FCD0B124
:101B900000F05CFC07F0B0F8834902460446754843
:101BA00007F02AF8814B824A1868002303EB83016F
:101BB0008E18895C814240F0D3803471022000F09D
:101BC00013FC02232B603B78012B00F028812B684B
:101BD000002B40F02481022000F012FC002800F0CD
:101BE0001E817449654808F01FFC002840F01781E9
:101BF000634B1E78002E40F0128100F027FC044653
:101C000000F028FC2346804602466B49594806F0FE
:101C1000F3FF38782346A044434540F0E180554F18
:101C2000DFF8B091A7F1BC084946384606F0E4FF5A
:101C30004046FFF71DF80028FAD0384606F0CAFFE4
:101C400004465FFA80FA303C4F4952463846E4B2C7
:101C500006F0D2FF092C40F2D4805849384606F0ED
:101C6000CBFFE1E7514EDFF870815149C8F80040E1
:101C70004FF0FF3BC6F800B0224620462346A6465A
:101C800091F802C0BCF1000F0DD04D4B91F800A0AF
:101C900043F822A04B7802F10109012B4A46634622
:101CA00004BFE646D3460130042801F10501E7D11F
:101CB000BEF1000F00F05D83C6F800B00BB1C8F8AC
:101CC00000203368013304D13E492A4806F094FFCE
:101CD00006E43D4A0DF11C0C02F1180EE1461068B5
:101CE0005168634603C3083272459C46F7D11068B9
:101CF000186091889379ACF804108CF80630212292
:101D000000210DF13B0008F0B1F8DFF8B4A0DFF8D6
:101D1000CCB0D8F80030A3420EDD5AF8042B33685B
:101D20009A4207D0594605A808F0BCFA05A94846CA
:101D300008F04CFB0134ECE7154B48461C6808F0F2
:101D40003FFD3278C1B24846A0474B4632681F4932
:101D5000084806F051FF01232B603B78012B11E767
:101D60000133042B7FF422AF28E700BF10020020CC
:101D70009191010884200020D38E0108B11B00201E
:101D8000A72400204B920108688A0108408F0108AF
:101D90004C29002088920108B01B002017910108EF
:101DA000A624002044290020419301080C020020B1
:101DB000982D0020C68E010873930108C89301086E
:101DC0002C290020CB920108AB9601080E93010844
:101DD0006C920108A1930108B024002059880108E1
:101DE00013F8012B303AD1B209293FF615AF9042D2
:101DF0003FF412AF20A901EB8601013641F8642CB3
:101E00000AE7AAF1300A07AA00239E4200F0AF8237
:101E100052F8041B514500F091820133F5E72B681D
:101E2000022B7FF40FA86949694806F0E5FE0023FC
:101E30002B60FFF755BB67496548674D674EDFF874
:101E4000EC81634F06F0D8FE00242B78687803936A
:101E500000F084FB16F8012B039BCDE900024146FC
:101E600022463846013406F0C7FE042C05F105056C
:101E7000EBD1FFF73EB85A4D95F80080B8F1010F4D
:101E800028D0022000F0BCFA00283EF4DBAF00F0BE
:101E9000DDFA044600F0DEFA009403462A78514940
:101EA0004B4806F0A9FE504B0793504B01221B688C
:101EB000032107A898472A784D49454806F09CFE1B
:101EC000022000F091FA4B4B4FF0FF321A600023D2
:101ED000FEF733BF484C2368032B3EF7B3AF474FA1
:101EE000474E3A78DAB93278CAB93B4903EB8302F4
:101EF00088188078002861D03C4B8A5C4148D3F830
:101F00000090039208F05CFC039AC1B23D48C847B8
:101F1000039A3D492E4806F06FFE87F800800220A4
:101F200000F06EFA18B300F091FA804600F092FAD1
:101F30000328024618D14046344908F0AFFC8046D9
:101F400090B93B7883B12368234A3149204803EB99
:101F50008303D25C06F050FE01232E491C4887F80B
:101F60000080337006F048FE022000F03DFA33781E
:101F7000FBB12948FEF77CFED8B1154806F02AFED1
:101F8000C0B231281DD123682449114801330027EC
:101F90002360377006F030FE2368032B09DD2049EB
:101FA0000B4806F029FE134B4FF0FF321A601D4B11
:101FB0001F702B78012B3EF445AF62E7013323609D
:101FC000ADE71949024806F017FEF2E7E59301086C
:101FD000842000201B940108982D0020EB96010816
:101FE000A6240020ED94010841434B004C29002019
:101FF000218E010844290020F4240020B724002069
:10200000FB240020CE01002067940108C686010849
:10201000D78B0108FC8B0108C81F00203F8C0108EA
:10202000A7940108B01B0020958C01083B9401087F
:10203000A14905A808F036F9A04B05A81D6808F0CD
:10204000BFFB0122C1B205A8A847022000F0CCF9CD
:10205000022323609A4B1B78012B40F0F280236807
:10206000022B7FF4E9A9DFF8CCB29BF80050002DD9
:1020700075D1DFF86082934988F800504046924E4F
:10208000DFF8B49208F0A2F93746B246BB785BB1EC
:102090003A788E4B494653F8223007A808F002F9E7
:1020A00007A9404608F092F90135042D07F105070C
:1020B000ECD10025844BDFF814822A464FF0FF371D
:1020C000284693F802E0BEF1000F09D0197858F8BD
:1020D00021C084453FF71AA902D1B94218BF7546FD
:1020E0000132042A03F10503EBD1002D7FF419A975
:1020F0007B1C3FF416A97649764808F067F97649C3
:102100003A4607A808F0CEF8724807A908F05EF929
:1021100005EB850303EB0A0213F80A30BB427FF498
:10212000FAA800239370002319461A46B07820B10C
:10213000707801280CBF013201310133042B06F104
:102140000506F3D1002A7FF4F2A86449614808F03B
:102150003DF9634B01221A7001238BF80030614D69
:10216000614E2B78E3B93378D3B9604B604A1B6872
:102170001268934214DA5F4A564852F823704F4B64
:10218000D3F8008008F01CFBFAB2C1B25148C04736
:10219000504B594959483A4606F02EFD01232B7001
:1021A000022000F02DF910B300F050F9074600F0BE
:1021B00051F90328024617D13846514908F06EFB01
:1021C000074688B92B787BB1484B4E491A68494B72
:1021D0004A4853F8222006F00FFD01234A49474898
:1021E0002F70337006F008FD022000F0FDF8337800
:1021F00013B34648FEF73CFDF0B1404806F0EAFC58
:10220000C0B231287FF49EA8384D41492B683B4825
:10221000013300272B60377006F0EEFC344B2A6840
:102220001B689A4208DB3B49344806F0E5FC03236F
:102230008BF800702F602360214B1B78012B3FF43B
:10224000FBA8206802287FF4F7A800F0D9F800283E
:102250003FF4F2A800F0FAF8054600F0FBF8184F3A
:1022600000952D493A780346244806F0C5FC2B49D1
:10227000284608F0C5FC00283FF46AA84FF0FF3359
:102280002749079307AA08F02DF8079E25491B4800
:10229000324606F0B1FC3B78B3427FF45DA8224998
:1022A000164806F0A9FC214B01221A70FFF754B81A
:1022B0001F49FEF735BF00BF408F01084C290020A1
:1022C000A6240020D38A0108982D0020B8240020DD
:1022D000F08A01081C270020F18C01082E8B0108D0
:1022E0003C290020B6240020FA240020F0240020FD
:1022F000AC2400201C2900209C8B01088420002095
:10230000C6860108D78B0108FC8B0108C81F002076
:102310003F8C01086C8C0108BF8C0108F18A010810
:10232000EC8C01081E8D0108778D0108A724002080
:1023300027950108E0240020E38A01080F4952464E
:1023400005A807F0AFFF0E4B05A81E6808F038FA85
:102350000122C1B205A8B0470A490B48524606F00F
:102360004BFC022000F040F802232B605BE507499C
:1023700074E4002B7FF4A3ACA6E400BF408F0108F7
:102380004C2900207B95010884200020BD95010880
:1023900013B50B4B0B4C1A780B4B1A704FF41653AA
:1023A0000093032200230221204605F063FA074A26
:1023B0000749204602B0BDE8104002F08BB900BFCB
:1023C000B01B0020C81F0020C11B0020C801002036
:1023D00081020008034A012303FA00F0136818433E
:1023E0001060704748290020044901220B6802FA56
:1023F00000F023EA00030B60704700BF482900206B
:10240000012303FA00F0024B1B681840704700BF1D
:102410004829002038B50C4601460648154607F005
:102420000FFC054B1D70054B1C70BDE838400220A9
:10243000FFF7D0BF54290020542D0020552D002037
:102440000520FFF7C7BF0620FFF7C4BF004870474D
:1024500054290020014B1878704700BF542D0020EC
:10246000014B1878704700BF552D0020014B1860B4
:10247000704700BF4C290020014B1860704700BF17
:102480005029002010B50C4C204605F0E3F82046FA
:102490000A4B40F8283B1022002107F0E7FC0123FB
:1024A00084F83830064B23602046064A0649BDE8CA
:1024B000104002F00FB900BF582D00209CAC01085D
:1024C00010AD0108C8010020110B000870B50546C9
:1024D0004E1E4418002E0DDD07F038FD731C90FBD6
:1024E000F3F101FB130314F8012DE95C2170013EA7
:1024F000EA54EFE770BD0000F7B5002006F040FA9F
:1025000007F01CFD0421022300240DEB01008DF8CF
:102510000630012503238DF804408DF807308DF82F
:102520000550FFF7D3FF0B480B4A2346264601A967
:10253000FF24013310F801CB11F8017B82F800C0B1
:10254000042B57709570D670147102F10502F0D10A
:1025500003B0F0BD08970108982D002003289ABF0A
:10256000024B53F820000248704700BFF89601085C
:10257000818601080FB407B5064B04AA1B6852F800
:10258000041BD86801920DF079FB03B05DF804EBF1
:1025900004B07047C0060020002000F05BBF0000C0
:1025A0002DE9F041BDF81C50B5F5806F06460C468C
:1025B00090461F4606D322482946FFF7DBFF062038
:1025C000BDE8F081022000F0A1FC08B10720F7E788
:1025D0003146022000F0F6FC4FFA88F1022000F0AC
:1025E0002DFD3946022000F047FD0699022000F03B
:1025F00061FD2146022000F0C7FC8EB90B3C012C86
:1026000012D80121022000F0A1FC7DB90121022095
:1026100000F06EFD00F0D6FD0130D7D00020CFE7EE
:10262000012E01D10C2CECD00021EBE7002102207F
:1026300000F05EFD2946022000F078FDEAE700BFC9
:102640000C9701087047000084B038B504AC84E8EA
:102650000F000220DDE9085400F058FC20B10720EB
:10266000BDE8384004B070470C2C15D921461148FC
:10267000FFF780FF0C21022000F086FCA5B90B3C7F
:10268000012C15D80121022000F060FC00F09AFD19
:102690000130E4D00020E3E7052CEFD821460548BF
:1026A000FFF768FF0621E6E7012D01D10C2CE9D0E8
:1026B0000021E8E79C9701080FB407B5064B0749CE
:1026C0001B6805AAD86801920DF0D8FA03B05DF82E
:1026D00004EB04B0704700BFC0060020C597010896
:1026E00084B010B502AC84E80F009DF80D100129EC
:1026F00005D0BDE81040254804B0FFF7DDBF9DF8C8
:10270000293033205BB301F009F840F04101C9B230
:10271000332000F0F8FF19213B2000F0F4FF9DF872
:1027200027309DF82A402BB31D21112000F0EBFF2C
:10273000402000F0F3FF00F03301402000F0E3FF01
:1027400000210F2000F0DFFF00210D2000F0DBFF53
:10275000D4B10520BDE8104004B001F015B800F078
:10276000DDFF00F0BE0141F00101332000F0CBFF9E
:102770001D21D1E71F21112000F0C5FF402000F0EE
:10278000CDFF00F03F01D8E70620E3E7C597010839
:1027900084B02DE9F04106AC84E80F000898BDF83C
:1027A00032609DF83450BDF842700B9CDDF82880F3
:1027B00000F0CAFF1D2000F0B1FF9DF831309DF8F8
:1027C000301041EAC3019DF8363041EA881141EAF0
:1027D000430141EA8501C9B21D2000F094FF1E208B
:1027E00000F09CFFC7F3012100F00C0041EA041146
:1027F0000143C9B21E2000F086FFF9B21F2000F08D
:1028000082FF310A202000F07EFFF1B2212000F08B
:102810007AFF25B19DF83510222000F074FF9DF855
:1028200037306BB14B2000F079FF60F07F01C9B207
:102830004B2000F068FF9DF83810242000F063FF63
:10284000062C4FF031000FD100F068FF00F0F801C6
:1028500041F00501312000F056FF0C21BDE8F041A8
:10286000372004B000F04FBF00F058FF00F0F8012F
:1028700041F00301312000F046FF0A21EEE78021FC
:10288000122000F040BF4021122000F03CBF07B5ED
:10289000122000F043FF8DF807009DF80700C0F3F9
:1028A000401003B05DF804FB2021122000F02BBF84
:1028B00008B5192000F032FF030643BF4042C0F3C1
:1028C0008500404240F3870008BD84B010B502ACDB
:1028D00084E80F009DF938401A2000F01FFF002CFB
:1028E000B8BF8B3C4FEA2013B8BF0019BDE81040B9
:1028F000A8BF8B38184400B204B0704738B50546FD
:10290000132000F00BFF04460146284600F016FF96
:10291000204638BD0FB407B5064B04AA1B6852F811
:10292000041BD86801920DF0A9F903B05DF804EB1F
:1029300004B07047C006002008B528B90848FFF762
:10294000E9FF4FF0FF3008BD402905D90548FFF7E2
:10295000E1FF6FF00100F6E7BDE8084000F0CEBDF2
:102960000498010830980108F8B5074601200D4683
:1029700014461E4600F0CAFA08B10720F8BD3946D1
:10298000012000F03DFB2946012000F01BFB71B245
:10299000012000F053FBBDF81810012000F06CFB83
:1029A0000799012000F086FB2146012000F0ECFA97
:1029B00065B90B3C012C0DD80121012000F0C6FAAD
:1029C00000F0D2FB0130D8D00020D7E7012D01D193
:1029D0000C2CF1D00021F0E784B038B504AC84E8C9
:1029E0000F000120DDE9085400F090FA20B1072023
:1029F000BDE8384004B070479DF91C0000F010FCA1
:102A000050BB012000F082FA0028F0D10C2C15D91F
:102A100021461248FFF77EFF0C21012000F0B4FA96
:102A2000A5B90B3C012C15D80121012000F08EFA2C
:102A300000F09AFB0130DAD00020D9E7052CEFD85E
:102A400021460648FFF766FF0621E6E7012D01D182
:102A50000C2CE9D00021E8E70120C9E79C97010888
:102A60000FB407B5064B07491B6805AAD868019241
:102A70000DF004F903B05DF804EB04B0704700BF3B
:102A8000C00600206A98010884B070B504AC84E8E0
:102A90000F0009209DF9404000F040FE06465A20F4
:102AA00000F03CFE9DF8103003F0FD03012B14BF35
:102AB00000238023054606F07F001843030600F03C
:102AC000F00127D5112CCBBF45F0070505F0F8051F
:102AD000EDB245F0040505F00703072B12D1142CC5
:102AE000A8BF1424052CB8BF0524631F1943C9B21D
:102AF000092000F008FE2946BDE870405A2004B0C5
:102B000000F001BE112CA8BF1124022CB8BF022472
:102B1000A31EEBE70E2CA8BF0E2444EAE474013494
:102B20002143E4E784B008B50DF1080C8CE80F00F0
:102B30009DF80D10012905D0BDE80840124804B0E9
:102B4000FFF78EBF9DF827309BB1F521112000F0D3
:102B5000DAFD402000F0E2FD00F03301402041F0BA
:102B6000400100F0D0FDBDE80840032004B000F0B3
:102B70000BBEF721112000F0C6FD402000F0CEFD75
:102B800000F03F01EAE700BF6A98010884B02DE930
:102B9000F0418AB010AC84E80F009DF94C300893E6
:102BA00014AD0FCD6C46159EBDF85A70DDF85080FF
:102BB0000FC495E80F0084E80F0010AB0FCBFFF7B0
:102BC00063FF129800F0C0FD9DF85F306BB14B20A1
:102BD00000F0A4FD60F07F01C9B24B2000F093FD2E
:102BE0009DF86010242000F08EFD1D2000F096FD61
:102BF0009DF859309DF8581041EAC3019DF85C30AA
:102C000041EA881141EA83019DF85E3041EA4301BF
:102C1000C9B21D2000F077FD1E2000F07FFD00F0FE
:102C20000F0141EA0611C9B21E2000F06CFD390AFD
:102C3000202000F068FD2120F9B200F064FD062E8E
:102C40004FF0310010D100F069FD00F0F80141F0C3
:102C50000501312000F057FD0C2137200AB0BDE8F6
:102C6000F04104B000F04FBD00F058FD00F0F80155
:102C700041F00301312000F046FD0A21EDE7082173
:102C8000122000F040BD08B568B1332000F046FDC9
:102C900000F0BE01332000F036FD19213B20BDE8D5
:102CA000084000F030BD332000F038FD00F0BE01D8
:102CB00041F00101332000F026FD1D21EEE738B57B
:102CC000044622200D4600F01EFD00210E2000F0DB
:102CD0001AFD00210D2000F016FD012000F01EFD60
:102CE00030F0F80304D100F07DFD012005F03CFD3B
:102CF00029462046BDE8384000F01BBD0FB407B59B
:102D0000064B04AA1B6852F8041BD86801920CF009
:102D1000B5FF03B05DF804EB04B07047C0060020B7
:102D200010B50A4C21788142024605D00848FFF7C9
:102D3000E5FF4FF0FF3004E0022001F001F808B990
:102D4000207010BD0348FFF7D9FFF2E7202E0020C6
:102D50009EA00108F4A0010808B5044804F0D7FCBF
:102D600000F043FD024B01221A7108BDB02D002076
:102D7000F02D002013B5174C2379022B03D0032B21
:102D800019D002B010BDFFF75DFCFFF7E5FF03208F
:102D900000F0D6FF012808D000230F4A00931468E2
:102DA00019461A460120A047EBE70C4802B0BDE8DF
:102DB0001040FFF7A3BF204600F05AFD94F828000A
:102DC00000F047FD0123237102B0BDE8104000F080
:102DD000E7BF00BFF02D0020242E002074A00108C2
:102DE0002DE9F041354C267988B046B1344831465A
:102DF000FFF784FF4FF0FF3008B0BDE8F081314BA2
:102E00001860314B31481960FFF778FF4FF480703C
:102E100006F0B6FE2E4B186028B92E48FFF76EFF5D
:102E20006FF00100E8E74FF4FA6262620E2222734B
:102E30000B22294B626108224FF00108A3606283D4
:102E400004230522204684F820306285237084F80C
:102E500005802677E67784F81E8084F82160266155
:102E600084F81980667784F8228084F8288000F03E
:102E7000FFFC2546014605F8100B1848FFF73EFFFA
:102E80000FCD6F460FC795E80F0087E80F0094E855
:102E90000F00FFF7A1FDA5F1100CBCE80F006F4675
:102EA0000FC795E80F0087E80F0094E80F00FFF7C1
:102EB000CBFB84F8048030469EE700BFF02D002055
:102EC0006B990108282E0020242E0020BC990108AF
:102ED000AC2D0020E99901082021F636239A01083B
:102EE00008B5042000F02CFF012805D10648FFF7A3
:102EF00005FF4FF0FF3008BDFFF72EFF022000F066
:102F00001FFF0020F7E700BF399A010838B50546D2
:102F100018B90A48FFF7F2FE05E0094C217829B1FB
:102F20000848FFF7EBFE4FF0FF3004E0084600F0E2
:102F300007FF08B9257038BD0348EBE7499E010833
:102F4000202E0020869E0108C99E010838B504463F
:102F50000D4600F01FFF0128084B06D11A78A24247
:102F600003D1074B00201D7638BD06481A7821464C
:102F7000FFF7C4FE4FF0FF30F6E700BF202E002021
:102F8000F02D0020EA9D010838B504460D4600F0FA
:102F900001FF0128084B06D11A78A24203D1074B42
:102FA00000205D6138BD06481A782146FFF7A6FE6D
:102FB0004FF0FF30F6E700BF202E0020F02D00205C
:102FC0008B9D010838B504460D4600F0E3FE01284C
:102FD000084B06D11A78A24203D1074B00201D618D
:102FE00038BD06481A782146FFF788FE4FF0FF30BB
:102FF000F6E700BF202E0020F02D0020FD9E0108E6
:1030000038B504460D4600F0C5FE0128084B06D130
:103010001A78A24203D1074B00201D7338BD064821
:103020001A782146FFF76AFE4FF0FF30F6E700BF3F
:10303000202E0020F02D00200F9C010838B50446FA
:103040000D4600F0A7FE0128084B06D11A78A242CF
:1030500003D1074B00205D7638BD06481A7821461B
:10306000FFF74CFE4FF0FF30F6E700BF202E0020A8
:10307000F02D00202C9D010838B504460D4600F0C7
:1030800089FE0128084B06D11A78A24203D1074BCA
:1030900000205D8338BD06481A782146FFF72EFED2
:1030A0004FF0FF30F6E700BF202E0020F02D00206B
:1030B000569F010838B504460D4600F06BFE012806
:1030C000084B06D11A78A24203D1074B00209D601D
:1030D00038BD06481A782146FFF710FE4FF0FF3042
:1030E000F6E700BF202E0020F02D002016A00108DA
:1030F00038B504460D4600F04DFE0128084B07D1B7
:103100001A78A24204D1074B002083F8225038BD20
:1031100005481A782146FFF7F1FD4FF0FF30F6E73A
:10312000202E0020F02D0020B89F010838B504465D
:103130000D4600F02FFE0128084B06D11A78A24256
:1031400003D1074B00205D8538BD06481A7821461B
:10315000FFF7D4FD4FF0FF30F6E700BF202E002030
:10316000F02D0020CF9C0108F0B589B000F012FED0
:103170000128114B18D11F78012F15D10F4E06F1E0
:10318000100500F035FB0FCD6C460FC495E80F001D
:1031900084E80F0096E80F00FFF7F8FC3846FFF7C9
:1031A000BFFD002009B0F0BD05481978FFF7A6FD66
:1031B0004FF0FF30F6E700BF202E0020F02D00205A
:1031C000AB9B0108F0B589B000F0E4FD0128114B7C
:1031D00018D11F78022F15D10F4E06F1100500F0FF
:1031E00007FB0FCD6C460FC495E80F0084E80F0075
:1031F00096E80F00FFF7CCFA3846FFF791FD002064
:1032000009B0F0BD05481978FFF778FD4FF0FF30A1
:10321000F6E700BF202E0020F02D0020479B01087C
:10322000F0B58BB0044600F0B5FD0128104B17D166
:103230001F78012F14D10F4E089406F110050FCD01
:103240006C460FC495E80F0084E80F0096E80F0065
:10325000FFF71AFC3846FFF763FD00200BB0F0BD06
:1032600005481978FFF74AFD4FF0FF30F6E700BF39
:10327000202E0020F02D00206B9C01080E4B1B79A6
:10328000022B13B510D1FFF7FAFAFFF765FD032003
:1032900000F056FD012809D00023084A0093146865
:1032A00019461A460120A04702B010BD044802B0DA
:1032B000BDE81040FFF722BDF02D0020242E002095
:1032C000619A01082DE9F041454E3479022C8AB00B
:1032D00067D1FFF7D8FAFFF7DAFA012829D1FFF70B
:1032E000E3FA96F82250ADB9FFF736FD032000F05F
:1032F00027FD012808D03B4B00951E682A462B4627
:1033000029462046B04711E037480AB0BDE8F041F1
:10331000FFF7F4BC00F03EFD0328F5D10023314A4D
:103320000093156819461A462046A8470AB0BDE81A
:10333000F081FFF7BDFA06F11005089007460FCDA2
:103340006C460FC495E80F0084E80F0096E80F0064
:10335000FFF7BBFA254C80462068FFF7CFFA96F8B6
:10336000226005468EB9FFF7F7FC032000F0E8FC69
:10337000012808D01B4B00971F68216843462A4646
:103380003046B847D2E71A48BFE700F003FD0328EC
:10339000F9D1144B00971E68216843462A46002045
:1033A000B0E7032C14D1134804F0B1F9FFF767FC20
:1033B000FFF7D2FC204600F0C3FC012806D00E4BDC
:1033C0001B6800200AB0BDE8F04118470B489CE795
:1033D0000B4821460AB0BDE8F041FFF78FBC00BFA3
:1033E000F02D0020242E0020A4980108AC2D0020F0
:1033F000E0980108B02D0020282E00201B9901081C
:103400004F9901082DE97043044699460D469046B0
:1034100004F0FAFE636B23B994F838300BB104F072
:103420008BFC04F12806AE420BD03046FDF74CFB76
:103430003EB1EB681BB15B68294630469847EB68A4
:10344000636342464B46204604F049F9BDE87043A9
:1034500004F0F0BEF0B506468DB0012000F070FC1F
:10346000012806D11E48FFF749FC4FF0FF300DB090
:10347000F0BD1C4B1C4F18684FF48072002107F1FF
:10348000100506F0F3FC0FCD6C460FC495E80F0055
:1034900084E80F0097E80F00FFF722F902233B7141
:1034A000E6B11022002108A806F0E0FC0F4B0893BB
:1034B00030460F4B0B9313F0EBFB00220D4B13F038
:1034C00061FC13F0F7FF02460B460B4808A9FFF713
:1034D00099FF08A8FDF7F8FA0020C8E73046C6E7CC
:1034E000909A0108AC2D0020F02D0020752D0008C9
:1034F0004086010800408F40B02D0020F0B5304CD0
:103500002379032B8FB006460D4606D12D48FFF7D1
:10351000F5FB4FF0FF300FB0F0BD042000F010FCC1
:103520000128F3D0FFF718FC0A2005F01DF902204E
:1035300000F006FC012000F003FC012801D1224824
:10354000E5E763791BB1012B03D000270CE01F488E
:10355000DDE794F82100FFF796FB2946304684F812
:103560002E50FFF7ACFB676A194E08970FCE6D46D9
:103570000FC596E80F0085E80F0094E80F00FFF7ED
:10358000D1FA0323102200210AA8237106F06EFC51
:10359000104B0A933846104B0D9313F079FB002221
:1035A0000E4B13F0EFFB13F085FF02460B460C4861
:1035B0000AA9FFF727FF0AA8FDF786FA0020AAE765
:1035C000F02D0020B79A0108E79A01080E9B010828
:1035D000002E0020752D00084086010800408F4015
:1035E000B02D002010B50C4C204604F033F82046D6
:1035F0000A4B40F8283B1022002106F037FC01233B
:1036000084F83830064B23602046064A0649BDE858
:10361000104001F05FB800BFB02D00209CAC010845
:1036200010AD0108C8010020110B000810B50446B8
:10363000044B40F8B83BD4F8C4300BB19B689847B2
:10364000204610BD2CAE01080FB407B5064B074944
:103650001B6805AAD86801920CF010FB03B05DF856
:1036600004EB04B0704700BFC006002057A101085A
:10367000F8B50D4C0D4F23681646E2681B040D4645
:10368000136040F08001094804F084FA013D2E44A3
:10369000B54205D015F8011F384604F07BFAF7E76C
:1036A000A36822681A60F8BDE82E0020202F0020B1
:1036B000F8B50E4C0E4F23681646E2681B040D4603
:1036C000136000F07F010A4804F064FA013D2E44C3
:1036D000B54206D00021384604F05CFA05F8010F27
:1036E000F6E7A36822681A60F8BD00BFE82E002044
:1036F000202F002010B50446FFF798FF204601F068
:1037000056F9204610BD07B502AB012203F8011D92
:103710001946FFF7ADFF03B05DF804FB07B50122C2
:103720000DF10701FFF7C4FF9DF8070003B05DF836
:1037300004FB0A4601460020FFF79ABF0A460146ED
:103740000020FFF7B5BF000010B513F0A1FA0CA3DD
:10375000D3E9002313F040FC13F0ECFD0446C0F362
:1037600007410620FFF7CFFFC4F307210720FFF72B
:10377000CAFFE1B20820BDE81040FFF7C4BF00BF98
:103780000000000080844E40144910B50A780446B9
:1037900090B932B901230B70114BDA681B681B0416
:1037A00013600120FFF7BAFF00F0F8012143012068
:1037B000BDE81040FFF7A7BF094B2AB11A680020E7
:1037C0000870D96812040A60032C1A6803D0DB68F9
:1037D00012041A60E5E79B68FBE700BFFC2F00209E
:1037E000CC2E00200120FFF7CFBF0020FFF7CCBF79
:1037F00010B504460120FFF791FFC0F3C0108442CA
:1038000026D0012C13D0FFF7F0FF0120FFF786FF31
:1038100000F07F010120FFF776FF00214020FFF735
:1038200072FF30214120BDE81040FFF76CBFFFF769
:10383000DCFF2046FFF772FF60F07F01C9B220462F
:10384000FFF761FF00214020FFF75DFF0021E9E75E
:1038500010BD10B504460120FFF7CAFF2CB134217A
:103860003920BDE81040FFF74EBF1221F8E70000F5
:103870002DE9FF47594C054604F0C6FC01212046BE
:1038800000F000FC04F0D6FC2368E2681B0413601F
:10389000012004F069FF04F0B7FC2046002100F08D
:1038A000F1FB04F0C7FC062004F05EFF2E784C4CC0
:1038B000042E1CD104F0A8FC0021204600F0E2FBFD
:1038C00004F0B8FC012004F04FFF63681A68236815
:1038D0001A4214BF0126002604F096FC204601215E
:1038E00000F0D0FB04F0A6FC012004F03DFF2368AB
:1038F000E2683C483C4C1B0413603C4B9A681B68D4
:1039000013600821002204F023F9394804F01EFF57
:103910000020FFF739FF1022ACBB2146684606F0B5
:10392000A5FA69463348344C04F021F86846FDF79F
:10393000CBF810227CBB2146684606F097FA694610
:103940002E48DFF8C8802E4C04F011F86846FDF7C9
:10395000BBF84FF0030900235F1CDBB2D8F800204E
:10396000B2FBF9F29A421ED903EB430304EB030ABC
:10397000E05CFFF73DFF9AF802109AF80100FFF7AC
:10398000C2FE3B46E8E70021684606F06FFA1D4B91
:1039900000940393C5E70021684606F067FA194BC7
:1039A00000940393CBE76879174CFFF721FF95F854
:1039B0002800FFF74EFF4220FFF7B0FE38B920463F
:1039C000FFF742FE4FF07E5004F0C0FEF3E7A86818
:1039D000FFF7BAFE304604B0BDE8F087042F0020A0
:1039E000CC2E0020202F0020C5320008E82E002019
:1039F000CDCCCC3D2C2E00207D3200087C2E00202A
:103A000024A101084086010857A101081C020020DA
:103A100073B5224D224C234E0A21284603F04CFF59
:103A20002846214D2246314600F054FE13212846F7
:103A300003F042FF2246314628461C4D00F04AFE64
:103A40004FF0FF330093062205230721284604F098
:103A5000D3F822461649284600F03CFE154B1C249C
:103A600022461846002106F001FA162103F0DAFE7C
:103A7000114B22461846002106F0F8F9002103F008
:103A8000BEFE0E4B22460021184606F0EFF921211A
:103A900002B0BDE8704003F0B2BE00BF2C2E002083
:103AA000C8010020117900087C2E0020202F002062
:103AB0002D360008E82E0020042F0020CC2E0020F8
:103AC0000FB407B5064B04AA1B6852F8041BD8684C
:103AD00001920CF0D3F803B05DF804EB04B070472A
:103AE000C006002013B5084B0024CDE900340122A4
:103AF000082307212046FEF753FDFEF74DFD034B3B
:103B00001C7002B010BD00BF2021F636FD2F002032
:103B100010B5044648B9FFF7E3F9FFF7E3FF084B98
:103B20001B682046BDE810401847012807D1FFF761
:103B3000D7F9FFF7D7FF024B02201B68F2E710BD51
:103B4000403000202DE9F041884615461F469DF97A
:103B5000186000283BD1202A03D92648FFF7B0FF80
:103B60002025254C2A464146204606F069F8234B7D
:103B70001F80234B1E7026782746FEB9214BA47860
:103B80001B78A34201D0FF2C1BD1A4F1FF035C42A0
:103B90005C4101261C4B1B78ABB9FFF7A1F9FFF77D
:103BA000A1FF012E24D1194B787819492A1F1D68CD
:103BB000D2B22346AC46BDE8F04160470024264619
:103BC000E8E73446E6E71348FFF77AFFE9E701380C
:103BD00001280DD80C4B1B782BB9FFF781F9BDE8F4
:103BE000F041FFF77FBF0B48BDE8F041FFF768BF2A
:103BF000BDE8F08164A20108FE2F00204A300020B9
:103C0000483000204C300020FD2F002044300020A0
:103C100002300020A9A201080A4B10B518700A4B07
:103C200019600A4B0A491A6004460A48FFF7D8F897
:103C3000094B00225C701A70FFF752F9BDE8104082
:103C4000FFF750BF4C3000204030002044300020AF
:103C5000453B0008113B00081E300020F7B5184F07
:103C60003C7834B117482146FFF72AFF012003B002
:103C7000F0BD1C2905D914482022FFF721FF03209D
:103C8000F5E7124D0E1DAA70F6B20A460146281D30
:103C90002C70EE7005F0D4FFFFF722F90C4A0823D0
:103CA000CDE900322146012307220E20FEF75CFEFB
:103CB00031462846FEF740FE01233B702046D6E7FA
:103CC000FD2F002079A10108BAA101081E300020B3
:103CD0002021F636014BB3F9000070474A3000202E
:103CE000014B93F9000070474830002010B5074B96
:103CF0001C78012C05D106482146FFF7E1FE20463D
:103D000010BD044B18700020FAE700BFFD2F002003
:103D100004A201084C3000200FB407B5064B074938
:103D20001B6805AAD86801920BF0A8FF03B05DF8E4
:103D300004EB04B0704700BFC00600201EA30108BA
:103D400037B501460D480E4A037803EB83052A4434
:103D5000545C012C06D00B4B2B445B5C037020465B
:103D600003B030BD0848642202FB030000900748FE
:103D700002FB01020648FFF7CFFFF0E74D300020BD
:103D80000AA30108F6A20108140400202002002062
:103D90001EA30108014B1878704700BF4D3000206A
:103DA000014B00221A7070474D30002043692DE905
:103DB000F0410D46D907044628D58168334F826803
:103DC000334E836833483940B94202EA060204BFE1
:103DD0000127A760B24203EA000304BF4FF48076D4
:103DE000A660834204BF4FF48030A0602748814220
:103DF00005D027498A4202D0264A934206D1264B53
:103E0000264A1B6852F8250001219847E268636939
:103E1000920708D09F0706D51F4B204A1B6852F80F
:103E2000250000219847A169626963698E070AD558
:103E3000900508D5190406D5174B184A1B6852F887
:103E4000250005219847A7696669626917F004078C
:103E500006F4806609D046B1120406D50E4B0F4A0F
:103E60001B6852F825000721984763695FB156B176
:103E70001B0408D5084B094A1B6852F8250002218B
:103E8000BDE8F0411847BDE8F08100BF0300000421
:103E900000030008000003105830002050300020BC
:103EA00000210148FFF782BF00640040FFF7F8BF20
:103EB000FFF7F6BF01210148FFF778BF0068004017
:103EC000FFF7F8BFFFF7F6BF30B5036891FAA1F42A
:103ED000B4FA84F491FAA1F10325B1FA81F16400F6
:103EE00005FA04F4490023EA040302FA01F1194334
:103EF000016030BD00B5002389B007286FD8DFE826
:103F000000F00413202D3A4754610093364B374894
:103F10001A6B42F001021A631B6B03F0010300935A
:103F2000009B09B05DF804FB01932F4B30481A6BDE
:103F300042F002021A631B6B03F002030193019B20
:103F4000EFE70293284B2B481A6B42F004021A63E6
:103F50001B6B03F004030293029BE2E70393224BE3
:103F600025481A6B42F008021A631B6B03F0080322
:103F70000393039BD5E704931B4B20481A6B42F035
:103F800010021A631B6B03F010030493049BC8E731
:103F90000593154B1A481A6B42F020021A631B6BEB
:103FA00003F020030593059BBBE706930E4B1548D2
:103FB0001A6B42F040021A631B6B03F04003069336
:103FC000069BAEE70793084B0F481A6B42F080023E
:103FD0001A631B6B03F080030793079BA1E70B4851
:103FE00004F07AFC00209CE7003802400000024008
:103FF0000004024000080240000C02400010024091
:104000000014024000180240001C0240F4A5010800
:10401000431C10B5044604D176220649064803F035
:10402000CBFE2046002100F00DFE04F00F0401201D
:10403000A04010BD15A601086FA6010870B5044682
:104040004B1C0E46218216D0C1F30310FFF752FF1E
:1040500005463046FFF7DCFF238A074A656103F017
:104060000F03206052F82330A36105F110031835C7
:104070006360A560E56070BD2CA90108B0F910006F
:1040800000F078BE0A4619B981694069FFF71CBF84
:104090000122F9E74C23F0B54343224E224F1A1D6B
:1040A000324400244FF0010E1E448C4205D10146DB
:1040B000BDE8F0401D4804F00FBC33680EFA04F56B
:1040C0001D422BD0136B7D690EFA03F32B4225D0D2
:1040D000D2F818C07B61156805B3FA6833EA0202AA
:1040E00003D1BA6833EA020214D10F4A916833EA65
:1040F000010103D1D26833EA02020DD1DCF81020AD
:10410000134214BF01210221094B28461B68BDE858
:10411000F04018470221F7E70121F5E701340432A6
:10412000C3E700BF5C300020003C0140A9A60108A5
:104130007032002006210846FFF7ACBF0521084673
:10414000FFF7A8BF01210420FFF7A4BF012103202E
:10415000FFF7A0BF01210220FFF79CBF0121084605
:10416000FFF798BF01210020FFF794BF012910B588
:1041700018D11B4C838952B1A26803F00F039940F8
:104180001143A160836843F00103836010BDA268FE
:1041900003F00F03994022EA0101A160836823F034
:1041A0000103F2E70229F1D10D4983895AB1CC68A4
:1041B00003F00F03012202FA03F32343CB60836869
:1041C00043F00203E1E7CA6803F00F03012404FA95
:1041D00003F322EA0303CB60836823F00203D4E7EE
:1041E000003C0140B0F90C3099B270B501F00F06F7
:1041F00006F00C0404F1804404F59C3401F0030142
:10420000A56889000F228A40C3F3031325EA02053B
:104210008B402B43A3600F4B01221968B24011431E
:1042200019608468E50742BF996811439960A10746
:1042300042BFD9680A43DA6090F90030002B08DBEE
:104240005909012203F01F0302FA03F3024A42F85C
:10425000213070BD003C014000E100E02DE9F04F4D
:1042600092464A1C85B080460C4666D000220392D6
:10427000334A344F516C41F480415164526C02F422
:1042800080420392039A04F00F090C2202FB097288
:10429000C4F303105568062D47D8DFE805F0043A4B
:1042A0003C3E40424400284E0193FFF723FE0C2180
:1042B00001FB09F17A1857F801E0244FA8F80C40E7
:1042C0004C21694301247B5892F90820C8F8045016
:1042D00004FA0EF44FF0000B1C4388F80020C8F8D5
:1042E00008B07C50132101FB05E507EB8501019B1C
:1042F0004B60174BC861C3F800A0164BC1F834904F
:104300009B681032404643F82260FFF76BFF584627
:1043100010E0114EC8E7114EC6E7114EC4E7114E2A
:10432000C2E7114EC0E7114EBEE7114804F0D4FABF
:104330004FF0FF3005B0BDE8F08F0846FAE700BF48
:1043400000380240D4A60108654100085C30002016
:104350007032002000ED00E05D410008554100088A
:104360004D410008454100083D4100083541000825
:1043700082A601088389184A03F00F03012110B5B2
:1043800001FA03F39468DB431C409460D4681C403A
:10439000D46014682340136090F90030002B0CDBCC
:1043A0005A0903F01F0301FA03F320320B4941F8C5
:1043B0002230BFF34F8FBFF36F8F90F90030002B87
:1043C00009DB5A09012103F01F0301FA03F36032EC
:1043D000024941F8223010BD003C014000E100E0FC
:1043E000838903F00F020C235343104A70B54468CD
:1043F000D658FFF7BFFF4C210D4A6143012000FA58
:1044000006F55058132303FB046320EA05005050BF
:1044100002EB830000214160981D0C3302EB800009
:1044200002EB83034160596070BD00BFD4A6010850
:104430005C30002008B503F07DF8002008BD0000C6
:1044400008B50A4B1B684BB103F0F0F904F001F911
:104450004FF47A72002312F0DDFF08BD03F0BEF8BE
:104460004FF47A73B0FBF3F008BD00BF7432002044
:1044700010B588B003F0C8FE052101A803F0D2F9F9
:104480000424039B019A1A60962004F06DF9019BA5
:10449000049A1B041360962004F066F9013CF0D1E5
:1044A0000424039B019A1A604FF4C87004F05CF96D
:1044B000019B049A1B0413604FF4C87004F054F974
:1044C000013CEED1DCE7000070B50D46A0B004461B
:1044D00003F09AFE2B462246802168460DF01CF818
:1044E000051E03DC03F0A6FE20B070BD094B1B685F
:1044F00023B903220221084800F090FE064E002452
:104500001DF804103046013401F06AF8A542F7D1D5
:10451000E8E700BFBC320020643400200FB407B5C8
:1045200004A951F8040B0191FFF7CEFF03B05DF829
:1045300004EB04B07047000008B502F0A9FF01F0D9
:10454000ADF802F095FF02F0A3FF024B01221A60C2
:1045500008BD00BF743200200020704703680122AC
:104560001B6900211847036800221B691146184780
:1045700003681B69184703689B69184703689B6AAF
:10458000184700290CBF6FF0180000207047012069
:1045900070471120704770476FF01C0070476FF034
:1045A00015007047012070470020704770470000D9
:1045B000F8B5074E15460C468F18BC4205D014F8C6
:1045C000011B304601F00CF8F7E72846F8BD00BFA4
:1045D0006434002038B58DB215F0010405D00848C8
:1045E00000F098FD041C18BF0124EB0605D5044813
:1045F00000F0A6FD08B144F01004204638BD00BF0D
:104600006434002010B5044605F0C2FA204610BDFF
:1046100010B50C462AB1044800F0D0FF20700120EC
:1046200010BD104610BD00BF6434002038B51D46D3
:10463000074B0360074B1B68044633B9064800F07C
:10464000EDFD2946044800F0B1FD204638BD00BF0D
:1046500010A80108BC3200206434002000207047FC
:104660000020704708B5012000F036F80C4A1368A6
:1046700010B51844EFF30881884205D3094B0C228A
:104680001A604FF0FF3010BD07490C6824B107498C
:10469000096821448842F1D21060184610BD00BF5D
:1046A000A40600202C340020883200208C32002008
:1046B000074C08B523680546986804F05BFC23683E
:1046C000D86804F057FC0DB1FFF7D2FEFEE700BF3B
:1046D000C00600200120704708B5FFF7E9FF012060
:1046E0007047002105F0FEBC04F07EBC70477047A7
:1046F00008B5FFF7FBFF08BD08B5FFF7F8FF08BDD9
:1047000010B5037803F00303012B04460CD02BB142
:1047100040F2A9520549064803F04EFB237843F0C6
:1047200002032370012010BD002010BD58A801080D
:10473000AFA8010810B5037803F00303022B044669
:1047400005D040F2B1520549054803F035FB237806
:1047500023F0030343F00103237010BD58A80108A0
:10476000D5A801083F2870B504462FDC184D55F830
:1047700020305A1C13D1022811DCFFF771FF0346C9
:1047800058B92046FFF76AFF034630B9114E337817
:10479000BFF35B8FDB0704D50F4B45F82430184679
:1047A00070BD3046FFF7ACFF0028F5D04FF416532C
:1047B000032202210848FFF739FF3046FFF7BAFF0E
:1047C000064A07490448FFF785FFE5E70023E6E7C7
:1047D000A40500207832002084320020C801002087
:1047E000AD45000838B50546FFF7BCFF0B4B00246C
:1047F00043F8254030B904F083FA092303604FF0F1
:10480000FF3038BD03685B699847051E04DA04F081
:1048100077FA6D420560F2E7204638BDA405002016
:10482000FFF7E0BF38B50C461546FFF79BFF38B9D8
:1048300004F066FA092303604FF0FF34204638BDC8
:1048400003682146DB682A469847041EF6DA04F01E
:1048500057FA64420460EFE708B5131E06DA04F065
:104860004FFA162303604FF0FF3008BD04D0FFF766
:10487000D9FF40EAE07008BD184608BD38B50C46BF
:104880001546FFF76FFF38B904F03AFA09230360C1
:104890004FF0FF34204638BD036821469B682A4606
:1048A0009847041EF6DA04F02BFA64420460EFE73E
:1048B000002A08B503DBBDE80840FFF7DFBF04F0BE
:1048C0001FFA162303604FF0FF3008BD10B5FFF745
:1048D00049FF044628B904F013FA0923036020466F
:1048E00010BD0368DB699847041EF8DA04F008FA83
:1048F000644204600024F2E71FB504220C46402302
:104900000DEB020101900DF109008DF8083005F062
:1049100097F9214602A804F0F5FC044630B101984D
:10492000FFF7D4FF10B12046FFF7DBFE204604B0AE
:1049300010BDFFF7CBBF38B50C461546FFF712FF89
:1049400038B904F0DDF9092303604FF0FF34204645
:1049500038BD036821461B692A469847041EF6DACB
:1049600004F0CEF964420460EFE7FFF7E4BF38B526
:104970000D46FFF7F7FE044630B904F0C1F90923EC
:1049800003604FF0FF3038BD0368DB6998470028AB
:1049900014BF4FF400534FF400436B60236820466C
:1049A0009B6A98472861002038BDFFF7E0BF05F0FB
:1049B000EFB80000034610B553F8042B044602B9C3
:1049C000036022689A4204D05E220349034803F040
:1049D000F3F9206810BD00BF94A70108F3A70108F0
:1049E00010B504460948FFF7E5FF0023084A1946B9
:1049F00052F82300A04208BF42F823100133402B95
:104A0000F6D10248FFF7D6FF10BD00BF7C32002070
:104A1000A405002010B50F48FFF7CCFF0E4B032470
:104A200053F824206AB10134402CF9D104F068F91C
:104A3000182303600748FFF7BDFF4FF0FF342046FF
:104A400010BD4FF0FF32034843F82420FFF7B2FFB8
:104A5000F5E700BF7C320020A405002010B5044615
:104A6000FFF7D8FF0028A4BF014B43F8204010BD3A
:104A7000A405002070B506460C46FFF7EFFF05467B
:104A800090B12146FFF738FF044630B9074B53F881
:104A90002520964203D143F82500204670BD04F03E
:104AA0002FF909230360F8E70446F6E7A405002080
:104AB0000EB42DE9F04185B00546FFF7ABFF041EAB
:104AC00013DB0023294602A8019303F0D9FD02A8B5
:104AD00003F028FE1B4D064668B904F011F91323B4
:104AE000036045F824604FF0FF34204605B0BDE870
:104AF000F04103B0704702A803F002FE074602A887
:104B000037B103F006FE0190019B45F82430ECE735
:104B100003F0EDFD06460028DFD0036802A8D3F8B5
:104B2000088003F0D9FD0B9B024601A93046C0471F
:104B300006460028E8D004F0E3F87642066045F81F
:104B40002470D0E7A405002073B50E461849054629
:104B500005F06AFC044620B9FFF704FE204602B0C7
:104B600070BD1449284605F05FFC20B90120FFF70D
:104B7000F9FD0124F2E71049284605F055FC20B95B
:104B80000220FFF7EFFD0224E8E72B78402B07D146
:104B90000422691C0DEB020005F052F8019CDDE7D0
:104BA00026F400412846FFF783FF0446D6E700BFFE
:104BB0001CA9010823A9010814A90108704770471E
:104BC000074B08499A68084810B5043A52F8044F50
:104BD00041F8044F8142F9D14FF000529A6010BD64
:104BE00000ED00E0FCFFFF1FC001002008B5FFF74B
:104BF000E7FFFFF7A1FCFFF7E2FF08BD08B5FFF7ED
:104C0000DDFFBDE80840FBF757BB30B5C36891FA3C
:104C1000A1F4B4FA84F491FAA1F10325B1FA81F177
:104C2000640005FA04F4490023EA040302FA01F1DE
:104C30001943C16030BD012A02D0022A18BF0022E8
:104C4000FFF7E3BF2DE9F0410E46411C044604D1B5
:104C50003E224449444803F0AFF804F00F08434BA8
:104C6000C4F3031053F82850FFF744F906F0070780
:104C70000446836895FAA5F1B1FA81F195FAA5F297
:104C80000320490000FA01F1B2FA82F223EA01039B
:104C90005200022101FA02F21343A36087425AD85C
:104CA000DFE807F05E1D021DB8F1070FC6F3032011
:104CB0003BD9626A2B0A93FAA3F1B1FA81F193FA14
:104CC000A3F34FF00F0EB3FA83F389000EFA01F14C
:104CD0009B0022EA010200FA03F3134363623B469E
:104CE000226895FAA5F0B0FA80F095FAA5F14FF098
:104CF000030EB1FA81F140000EFA00F0490022EAF9
:104D000000028B40013F1343012F236005D86368E5
:104D100032074CBF2B43AB436360C6F301122946F5
:104D20002046BDE8F041FFF786BF226A95FAA5F359
:104D3000B3FA83F395FAA5F14FF00F0EB1FA81F1B2
:104D40009B000EFA03F3890022EA030200FA01F342
:104D500013432362C3E767220249054803F02CF896
:104D60000023BDE76CA901086FA601082CA9010862
:104D700063B00108431C70B506460D4604D1882275
:104D80001B491C4803F018F806F00F021A4BC6F333
:104D9000031053F82240FFF7ADF804FB04F201685A
:104DA00002EB42030B40B3FBF2F3013B012B05D8AE
:104DB000EB1E022B436809D823434360032D08D11F
:104DC00001222146BDE87040FFF735BF23EA040306
:104DD0004360012DF4D0052D01D0022D01D1022216
:104DE000EFE721460022BDE87040FFF70EBF00BF8D
:104DF0006CA901086FA601082CA9010870B5A6B01E
:104E00003422002102A805F031F85C2200210FA80D
:104E100005F02CF82A4B1D68002D4FD1294C019527
:104E200001261E60236C43F080532364236C03F03F
:104E300080530193019B00F05DFC042302A80293C0
:104E40000895049600F0C0FF10B11F4803F044FD20
:104E5000A36823F4F813A360A36823F4F813A360F2
:104E6000236F43F48073236720230F930FA84FF41D
:104E700080731F9300F058FD10B1144803F02CFD0F
:104E8000134B144801221A60134B036003220023C2
:104E9000826041F6FF7243774360C2600361436101
:104EA000836101F05EF910B10C4803F015FD09486B
:104EB00001F089FA10B10A4803F00EFD26B070BD6A
:104EC0009832002000380240C4A90108E4A9010872
:104ED0003C0E47429C320020002800400DAA0108E9
:104EE00027AA0108F0B51F4B1F491C681F4A5D68BF
:104EF0008BB00C4015401E460F461868084084428F
:104F00002BD158681040854227D105F03F0001F0B1
:104F100051FA0490C5F3042001F04CFA01380590D1
:104F2000280C01F047FA44300690C4F3054001F024
:104F300041FA0390C4F3062001F03CFA029004F019
:104F40007F0001F037FA01220190694601A802F0C2
:104F500051FF00B100980BB0F0BD346875683C405B
:104F60001540CAE7002800407F7F7F003FFFFF0019
:104F7000024BD868C0F30010704700BF0028004003
:104F8000214B224A2DE9F0411D691C689E6AC5F338
:104F90000E05144018461746196811408C422ED150
:104FA000996A8E422BD1C4F3054001F003FA0746FB
:104FB000C4F3062001F0FEF9804604F07F0001F002
:104FC000F9F9134A13493C2313FB08004FF46163BA
:104FD00003FB07001368146898420B683CBF03F595
:104FE000A83303F5C0731B1B03440B6010600868F3
:104FF000013DC00305EB9000801BBDE8F081046813
:10500000866A3C40C8E700BF002800407F7F7F00E1
:10501000943200209032002030B591B0002114224B
:10502000044602A8019104F021FF03F0EDF82A4B99
:105030002A4A1A6007A90122204602F02BFF002805
:1050400048D00D9B03B907238DF804300B9B013327
:105050008DF805300A9B8DF806300C9B443B8DF88B
:105060000730099B8DF80830089B8DF80930002423
:10507000079B8DF80A308DF80B4005940694FFF7D6
:105080007FFF9DF809109DF80A2013483C2313FB6D
:1050900001229DF808304FF4616101FB0323104A9F
:1050A00013600E4B224601A99D6A01F0B3F810B1BE
:1050B0000C4803F011FC002202A9074801F00AF98C
:1050C00010B1094803F008FC044A936A9D42FCD1E0
:1050D00003F0B0F811B030BD9C3200200028004031
:1050E0009432002040AA010857AA01080FB407B55E
:1050F000064B07491B6805AAD86801920AF0BEFD55
:1051000003B05DF804EB04B0704700BFC006002098
:105110006EAA01084368094A9B0182B0D3581A68F5
:10512000120706D5002201921A6801925A6801926C
:10513000019A1868C0F3401002B07047B0340020E4
:105140004368034A9B01D3581868C0F3C0107047E6
:10515000B034002042681449920110B404685450DD
:10516000531882685A60C2689A600269DA604269BC
:105170001A61026A9A610022DA84DA619A84DA8515
:105180009A85B0F91A20013206D108225A611846D0
:105190005DF8044B01F0B1BEB0F9182001320CBF2C
:1051A00004220C22F2E700BFB034002010B5816069
:1051B0000C46FFF7CFFF28B121460348BDE8104059
:1051C000FFF794BF10BD00BF6EAA0108124B9842B2
:1051D00017D0A3F54C43984215D003F5806398424D
:1051E00013D003F58063984211D003F58063984291
:1051F0000FD003F5444398420CBF05204FF0FF3019
:10520000704700207047012070470220704703203C
:1052100070470420704700BF00100140F0B50E46F3
:1052200087B004465B493046154602F037FC5A49C0
:105230000746284602F032FC0146384602F008FCD8
:105240002060013004D13D225449554802F0B4FD9C
:10525000022E0CD0032D0AD04E49022002F01EFC73
:10526000874202D14F4803F037FB002700E00127B7
:105270004D4B206898424FF000031AD100934B4BDE
:105280005A6C42F010025A645B6C03F010030093F6
:10529000009B474B984229D100230593434B5A6CFE
:1052A00042F020025A645B6C03F020030593059BD7
:1052B0001CE0404A90420BD101933C4B1A6C42F4E3
:1052C00000321A641B6C03F400330193019BE0E786
:1052D000394A904240D10293344B1A6C42F48022F6
:1052E0001A641B6C03F480230293029BFFF76EFF8A
:1052F0000028606004DAA4222849304802F05CFDEE
:105300002449304602F080FB2349284602F07CFB0A
:10531000721C03D001213046FFF72CFD6B1C03D01B
:1053200001212846FFF726FD4FF41653A360002302
:10533000E360236163612362268365832046FFF770
:1053400009FF3FB11E4B1F4801221A6021464C2223
:1053500004F076FC07B0F0BD1B4A90420BD10393DA
:10536000124B1A6C42F400221A641B6C03F40023E3
:105370000393039BBAE7154A90428AD104930B4BDF
:105380001A6C42F480121A641B6C03F480130493A9
:10539000049BABE77CA5010804A5010898AA0108B5
:1053A000F4AA010810AB01080010014000380240C7
:1053B00000140140004400400048004045AB010893
:1053C000BC32002064340020004C004000500040FB
:1053D000002808DB4209012300F01F0003FA00F057
:1053E000014B43F82200704700E100E000280DDB8C
:1053F0004309012200F01F0002FA00F02033044AA2
:1054000042F82300BFF34F8FBFF36F8F704700BF89
:1054100000E100E0F7B5FFF7D9FE071E26DB144ECA
:1054200056F8270010B3134CBD0163591A681206D1
:1054300006D5DB68190603D50F4B01211B68984779
:1054400063591A68920608D5DB68980605D50A4B99
:1054500056F827001B680021984763591A681107FE
:1054600004D55A69D20744BF5B68019303B0F0BD0D
:10547000C4320020B0340020C03200200148FFF7C1
:10548000C9BF00BF001401400148FFF7C3BF00BF00
:10549000005000400148FFF7BDBF00BF004C004076
:1054A0000148FFF7B7BF00BF004800400148FFF7C1
:1054B000B1BF00BF004400400148FFF7ABBF00BFD1
:1054C00000100140034B19604168034B43F8212051
:1054D000704700BFC0320020C432002030B490E8D2
:1054E00018002C48834233D00AD8A0F500608342CC
:1054F00028D000F58060834227D0002318460FE0B3
:10550000254883420AD000F58060834223D0A0F56D
:1055100044408342F1D1214B352001E0204B25202E
:10552000204DA401FAB1C9B92959CA6842F0200234
:10553000CA601D4A00F11001926830BC42F8213067
:10554000FFF746BF194B2620EAE7194B2720E7E76C
:10555000184B3420E4E7184B4720E1E72959CA6883
:1055600042F08002E4E72B59DA6849B922F02002C0
:10557000DA60DB6813F0800F09D130BCFFF736BF6B
:1055800022F08002DA60DB6813F0200FF4E730BC11
:10559000704700BF004C00400010014089540008D3
:1055A000B9540008B034002000ED00E0AD5400080C
:1055B000A1540008955400087D54000838B544688B
:1055C00005462846FFF7A6FD0028FAD0A401034BA4
:1055D0001B595868C0F3080038BD00BFB034002024
:1055E00070B5456806460C463046FFF7A9FD002811
:1055F000FAD0AD01024B5B59C4F308045C6070BD86
:10560000B034002008B50E4AC36D934214D008D8B8
:10561000A2F5806293420FD00A4803F05DF90020A2
:1056200008BD094A934203D002F580629342F3D148
:10563000BDE8084000F04AB9BDE8084000F036B9BE
:10564000003C004057AB010800300140DFF830D08B
:10565000002103E00B4B5B58435004310A480B4BCD
:1056600042189A42F6D30A4A02E0002342F8043B69
:10567000084B9A42F9D301F01FFEFAF7C7FD7047B5
:105680000000022018BA0108C8010020981000206C
:105690009810002078360020FEE7704708B50B4BC5
:1056A0001A6842F400721A601A6842F480621A6042
:1056B0001A6842F480721A60032000F009F80F2083
:1056C000FEF7B8FEFFF7E9FF002008BD003C0240EE
:1056D000074AD36823F4E0631B041B0C43F0BF6349
:1056E000000243F4003300F4E0600343D3607047EA
:1056F00000ED00E0014B01221A60704720000E42CD
:1057000037B500230193184B184C1A6C42F08052A5
:105710001A641B6C03F080530193019B144B01220C
:105720001A60FEF78DFE05466368DA030BD5114B50
:105730000E4C01221A60FEF783FE054663689B0348
:105740000AD5002006E0FEF77BFE401BB0F57A7F0D
:10575000EAD9032003B030BDFEF772FE401BB0F55E
:105760007A7FEBD9F5E700BF0038024000700040B7
:1057700040000E4244000E422DE9F0410D46044621
:1057800010B90120BDE8F081444B1A6802F00F0205
:105790008A4228D321688F072DD4C80740D43F4BB5
:1057A0001A6802F00F02954266D3226851076CD442
:1057B000130707D53A4A2169936823F4604343EA03
:1057C000C103936000F0B8FA354B364A9B68C3F3C7
:1057D0000313D35CD840344B18600F20FEF72AFE29
:1057E0000020BDE8F081CAB21A701B6803F00F03F5
:1057F0009942C6D1CEE72A4B11F0040F1EBF9A681A
:1058000042F4E0529A600E0742BF9A6842F4604246
:105810009A609A68A06822F0F00202439A60BCE79E
:1058200062681F4B012A1DD11B6813F4003FA8D0EA
:105830001B4EB36823F003031343B360FEF700FE6F
:1058400041F288380746B368626803F00C03B3EB93
:10585000820FA4D0FEF7F4FDC01B4045F3D903200E
:10586000BDE8F081911E01291B6802D813F0007F6A
:10587000DDE713F0020FDAE7EAB21A701B6803F0F3
:105880000F039D427FF47DAF8FE70549E0688B6889
:1058900023F4E05303438B608AE700BF003C0240DF
:1058A000003802405DAC0108A8060020044B054A00
:1058B0009B68C3F38223D35C034A1068D8407047C7
:1058C000003802406DAC0108A8060020044B054AD0
:1058D0009B68C3F34233D35C034A1068D8407047D7
:1058E000003802406DAC0108A80600200F230360B9
:1058F0000B4B9A6802F0030242609A6802F0F002D1
:1059000082609A6802F4E052C2609B68DB0803F48C
:10591000E0530361034B1B6803F00F030B607047F8
:1059200000380240003C024003682DE9F74313F0C1
:10593000010604460BD0AA49866BD1F88C2022F0D0
:10594000C0623243B6FA86F6C1F88C2076099D070C
:105950000BD5A348E16BD0F88C2022F0C0520A434B
:105960000029C0F88C2008BF012613F0040512D0CE
:105970009B49256BD1F88C20B5F5801F22F440128D
:1059800042EA050218BFB5FA85F5C1F88C2012BFAE
:105990006D090025012618070FD59148616BD0F8D5
:1059A0008C2022F440020A43B1F5800FC0F88C200D
:1059B00000F00981002908BF0125990633D500238D
:1059C0000193874B874F1A6C42F080521A641B6C0C
:1059D00003F080530193019B3B6843F480733B6069
:1059E000FEF72EFD80463B68DA0540F1EE807C4FE5
:1059F0003B6F13F4407340F0FB80236C03F4407260
:105A0000B2F5407F764A40F01681916823F07040ED
:105A100021F4F81120F4407001439160116FC3F339
:105A20000B030B4313672368D90642BF6E4B94F8F0
:105A300058201A6023681A0608D56949E06CD1F825
:105A4000942022F440020243C1F894205F0608D556
:105A50006349A06CD1F8942022F080620243C1F81F
:105A60009420D8050CD55E48616DD0F8942022F0C2
:105A700000620A43B1F1006FC0F8942008BF01250D
:105A8000990508D55649606CD1F8942022F08052CF
:105A90000243C1F894205A0500F1D180012E40F054
:105AA000DC80524E4E4F00233360FEF7C9FC804627
:105AB0003B681B0100F125812268D00701D5A36B4B
:105AC0001BB1910715D5E36B9BB94549D1F88430DB
:105AD000D1F8840003F4403300F070600343606841
