:020000040800F2
:1000000000000220E54D0008314E0008314E000886
:10001000314E0008314E0008314E0008000000004B
:10002000000000000000000000000000314E000849
:10003000314E000800000000314E0008314E00082B
:10004000314E0008314E0008314E0008314E000894
:10005000314E0008314E0008314E0008314E000884
:10006000314E0008314E0008314E0008314E000874
:10007000314E0008314E0008314E0008314E000864
:10008000314E0008314E0008314E00084536000858
:1000900049360008314E000839360008314E000854
:1000A000314E0008314E0008314E0008314E000834
:1000B000314E0008314E0008314E0008314E000824
:1000C000314E0008314E0008314E0008314E000814
:1000D000314E0008314E0008314E0008314E000804
:1000E000314E0008314E0008314E0008314E0008F4
:1000F000314E0008314E0008314E0008314E0008E4
:10010000314E0008314E0008314E0008314E0008D3
:10011000314E0008314E0008314E0008314E0008C3
:10012000314E0008314E0008314E0008314E0008B3
:10013000314E0008000000000000000059360008A1
:100140005D360008314E00084D360008314E00087B
:10015000314E0008314E0008314E0008314E000883
:10016000314E0008314E0008314E0008314E000873
:10017000314E0008314E0008314E000800000000EA
:1001800000000000314E00080000000000000000E8
:10019000314E00080000000000000000314E000851
:1001A000000000000000000000000000314E0008C8
:1001B000314E0008314E0008314E0008314E000823
:1001C000314E00080348044B834202D0034B03B175
:1001D00018477047680D0020680D002000000000DF
:1001E0000548064B1B1AD90F01EBA301491002D099
:1001F000034B03B118477047680D0020680D0020BD
:100200000000000010B5064C237843B9FFF7DAFF71
:10021000044B13B10448AFF300800123237010BDD9
:10022000680D0020000000000835020808B5054BE5
:100230001BB105490548AFF30080BDE80840FFF752
:10024000CFBF00BF000000006C0D00200835020881
:10025000A3F5803A704700BF174B002B08BF134B24
:100260009D46FFF7F5FF00218B460F461348144AC1
:10027000121A0DF0C5FC0E4B002B00D098470D4B09
:10028000002B00D098470020002104000D000D48ED
:10029000002802D00C4803F0EEFD0EF083F8200099
:1002A000290004F077F803F0E3FD00BF0000080028
:1002B000000000008543000800000220680D0020B7
:1002C00098320020773E00080000000010B5094B6E
:1002D000036003F1200280330446C0F8BC20C0F85C
:1002E000C030BC3008F030F8204607F00BFB204649
:1002F00010BD00BFC8C10108A0F1BC00E6E7A0F135
:10030000C000E3E708B5164C16491748174D08F02A
:100310003FF81749144808F03BF82246154912489F
:1003200008F053F81449104808F032F811490E4803
:100330002A4608F04AF80C4808F018F80F492B78BC
:100340002278094808F024F8207800F0DDF82978B0
:10035000207800F0ADFC00F029F900F0B3FCFAE7DA
:10036000CC01002080980108440E0020840D00205C
:10037000C6980108DD980108E0980108FD98010879
:1003800010B50446FFF7A2FF204603F0DCFE20462E
:1003900010BDA0F1BC00F3E7A0F1C000F0E7000041
:1003A00007B54FF41653009303220023022105489A
:1003B00006F02CFE044A0549024803B05DF804EB40
:1003C00003F054BD880D0020C8010020CD020008B4
:1003D0000FB407B5064B04AA1B6852F8041BD86873
:1003E00001920AF0CDFA03B05DF804EB04B0704757
:1003F000EC07002008B5074B1A78074B1B789A4288
:1004000005D106481146FFF7E3FF012008BD002093
:10041000FCE700BFCD010020FC1700201699010861
:10042000024B1870062000F07FBA00BF600E00205B
:1004300038B50546FFF7DEFF0128044605D104481C
:100440002946FFF7C5FF204638BD024B1D70FAE76D
:1004500055990108FC17002070B50D4E0D4D3478EC
:10046000844228BF044622460B4829460EF0F8F97C
:1004700032780A4B121BD2B21C7032702AB1291981
:1004800028460EF0EDF9012070BD1046FCE700BFD4
:10049000FB130020FC1300206B12002069120020C7
:1004A00038B5054610460C46FFF7C2FF012808D1B3
:1004B000072000F055FA20B1BDE83840072000F0D1
:1004C0004FBA192C2246294609D80B480EF0C8F914
:1004D0000A4B1C70BDE83840042000F025BA0848DB
:1004E0000EF0BEF9074B1A201C70FFF7B5FF07206E
:1004F00000F01AFAEEE700BF6B120020691200202C
:10050000FC130020FB13002010B50A4B0A4C0022FC
:100510001A70207000F01EFAFFF76CFF207800F0D0
:1005200089FA064801F076FBBDE81040044801F066
:1005300077BB00BFFC170020CD010020A1040008FC
:10054000210400082DE9F341164D1F4695F800805F
:10055000154B144698440E4600F0E4F92246014635
:1005600040460EF07DF92B78023B1C44E4B2012F8B
:100570002C7003D09DF82030012B10D100F09AFA96
:10058000074600F091FA3B46009022460648314665
:1005900001F014FB0020287002B0BDE8F0810120BA
:1005A000FAE700BF680E0020690E00202DE9F3472E
:1005B000B54BB64C1A782578AA4218BF1D70012D8C
:1005C00000F0A380022D00F0C780002D40F058817C
:1005D000062000F0C5F978B1AD4B187800F046FA66
:1005E000B0FA80F0400901F002FB2570062002B04D
:1005F000BDE8F04700F0A2B9032000F0B1F998B3CC
:1006000000F042FA064600F045FA054600F046FAC8
:10061000804600F055FA0746284600F060F9C0B25F
:1006200000903B46424631462846FFF78BFF1FB1FC
:10063000002323700320DAE7284600F071F9954A79
:100640001378984208BF431C284608BF137000F077
:1006500067F90146904800F04CF932468E48032174
:1006600000F0FAF90123E4E7042000F079F928B357
:10067000884D8A4B2E781F78072000F071F9B0FA68
:1006800080F040093246864900903B468548864EB8
:1006900000F036F9854B327818700146814800F039
:1006A000DBF93378FF2B1EBF2B7801332B70804B87
:1006B00000221A7001232370042098E7072000F01D
:1006C0004FF950B1042000F02FF91A20FFF7C4FEB3
:1006D000002840F0D580072089E700F041F908B1F3
:1006E000002084E7012000F03BF908B101207EE7FB
:1006F00000F036F908B1022079E7052000F030F962
:10070000002800F0BD80052071E7284600F028F998
:10071000064670B100F0F4F9012808D0052000F079
:100720001FF9003818BF012040002070DEE70220CA
:10073000FBE700F015F9002800F0A2805A4B1B7867
:10074000FF2B04D12846267001F04EFAC8E7022399
:10075000237000F009FAC3E7284600F001F90546C6
:10076000D0B100F097F905464E4800F0D9F806469A
:10077000284600F0D5F8864207D100F0B5F90023ED
:100780000120237001F030FAB5E7464800F0C8F8C0
:10079000284600F0C5F8AEE7052000F0E1F8E0B12A
:1007A000434E3378092B0BD93E4800F0B9F8014687
:1007B0004048FFF70DFE2846257001F015FAA2E724
:1007C000394B38481A78394B197800F045F93378A5
:1007D000013333700123237095E7032000F0C0F844
:1007E000002842D000F050F9074600F053F90546C2
:1007F00000F054F9814600F063F90646284600F0FF
:100800006EF85FFA80F8EEB1CDF8008033464A46C4
:1008100039462846FFF796FE002E7FF409AF28469A
:1008200000F07EF81B4A1378984208BF431C284604
:1008300008BF137000F074F80146174800F059F82B
:100840003A460BE7DFF84CA0284600F069F89AF822
:1008500000308342D8D0284600F062F89AF8002091
:1008600001461548FFF7B4FDD9E700F079F80028F4
:100870007FF436AF012000F073F800287FF436AF24
:1008800002B0BDE8F08700BFFD170020FE17002072
:10089000600E0020670E0020610E0020691200200B
:1008A0006B12002033130020FC1700206A12002076
:1008B000660E00207A990108B8990108024B1A784F
:1008C000024B1A70704700BFFE170020FD17002072
:1008D0000078013801288CBF002001207047007883
:1008E000431E5842584170470078B0FA80F04009E2
:1008F0007047002303700123417083700320704709
:1009000010B51C469DF808304270012B18BF022319
:100910000370224602300DF0A3FFA01CC0B210BD30
:100920004078704702307047034A012311688340C2
:100930000B431360704700BF00180020044A0123D6
:1009400003FA00F0136823EA00031360704700BF46
:1009500000180020014B00221A6070470018002088
:10096000024A012383401068184070470018002095
:10097000054B1B785A1E012A02D80020FFF7D4BF6E
:100980000BB90120FAE770473C180020F8B507467C
:100990000C4615461E4607F097FD07EE900AFAEE44
:1009A000E07AF5EEC07AF1EE10FA21DD2A46214612
:1009B00010480DF055FF104B1F70104B1D7002F0CA
:1009C0005BFD0F4B187002F051FD0E4B18800E4B63
:1009D00020461E70FFF77CFF20B10320BDE8F840E1
:1009E000FFF7A2BF2046FFF77FFF08B10220F5E71F
:1009F000F8BD00BF0A1800200918002008180020C0
:100A00000518002006180020041800200FB407B5B0
:100A1000064B07491B6805AAD868019209F0B0FF88
:100A200003B05DF804EB04B0704700BFEC07002092
:100A3000049A010810B50446002007F06DFB07F08A
:100A40003BFD2046024A0349BDE8104002F0B0BC1D
:100A50008D0900087109000810B5044602F0CAFCAF
:100A6000014B22781A7010BD3C18002010B502F01E
:100A700009FD044618B101460248FFF7C7FF2046AA
:100A800010BD00BF049A0108014B1878704700BFE1
:100A900009180020004870470A180020014B1878F8
:100AA000704700BF08180020014BB3F900007047E1
:100AB00006180020014B93F900007047051800202C
:100AC000014B1878704700BF0418002003681847CE
:100AD0000B68036070477047024B002205201A70B4
:100AE000FFF722BF3D18002008B5034806F0DBF9E8
:100AF000024B00221A7008BD401800203D1800204B
:100B0000014B1878704700BF3D180020C36810B52E
:100B100004460BB19B689847204610BD38B5054682
:100B2000064B45F8283B044606F0BDF92846FFF77A
:100B3000EDFF204606F082F9204638BD7CC1010851
:100B400010B50446FFF7EAFF204603F0FCFA204602
:100B500010BD000010B5034B03600446FFF7DEFF35
:100B6000204610BD90C1010870B52DED028B88B0F4
:100B700007F0AAFC10220446002168460DF040F858
:100B8000244B0093032394FBF3F303EB4303E41A96
:100B90000234E4B2204D039507EE904AB8EE678A1E
:100BA0001DB1694604A8FFF793FFDFED1C7A079596
:100BB00068EE277A1A4E17EE900A17F067FE054680
:100BC0000C4606F0EDFE736B23B996F838300BB186
:100BD00006F07EFC1348FFF799FF079B1BB15B688B
:100BE000104804A99847079B0D4873632A4623467B
:100BF00006F041F906F0EAFE04A8FFF787FF684611
:100C0000FFF784FF084B01221A7008B0BDEC028B7D
:100C100070BD00BFD90A0008B8BC0108002474499F
:100C200040180020681800203D18002010B5044628
:100C3000FFF790FF204603F086FA204610BD000023
:100C400008B50C4806F0D2F80A480B4B40F8283B90
:100C5000102200210CF0D4FF064A08490548012360
:100C600082F83830064B1360BDE80840054A03F0AF
:100C7000FDB800BF401800207CC10108550B0008DA
:100C800090C10108C80100200FB407B5064B074901
:100C90001B6805AAD868019209F072FE03B05DF8DE
:100CA00004EB04B0704700BFEC070020369A01083F
:100CB000024B1870024B1970704700BFFB1A0020DE
:100CC000FA1A00202DE9F04F9F4ADFF8F0B21178B0
:100CD0009BF8003099428FB018BF13700C2B00F2B4
:100CE0001D81DFE813F00D004300470028016D016E
:100CF0005005DF065A05580556051B011B01FB066A
:100D0000924B1B68BBB901238BF80030022000F026
:100D10004BFF0446A8B100F06DFF044600F06EFFE3
:100D2000214602468A48FFF7AFFF02200FB0BDE818
:100D3000F04F00F02DBF012BE8D1FFF737FC022365
:100D4000E2E7042000F030FF002800F0E78081494E
:100D50008148824D0DF0D4FC814B824A7E481B684D
:100D60001278297898472C700420DFE702238BF84B
:100D70000030D3E07C4E754C3378012B22D12568AE
:100D8000002D51D100F08CFF784F787897F80080D3
:100D900000F0AEFF2A46009075497648434601357B
:100DA00007F0F6FA042D07F10407EED1724A00238A
:100DB0001360724A1370724A1370012323603378F0
:100DC000012B36D0022000F0EFFE002800F0A380B7
:100DD00000F010FF064600F011FF0F280746A8BFDD
:100DE0000F2705463A46314666480DF039FD654AFB
:100DF000654960480023D355134600952A4607F0FD
:100E0000C7FA624B0693564B01221B68032106A8C2
:100E10009847022000F0BCFE5D49564807F0B8FA3A
:100E2000022323600323A2E7012D74D1534B1B78C7
:100E300033BB534B1B781BBB4F4B1A68032A1FDC79
:100E40004A4B544D13F82210296003EB8203587863
:100E500000F04EFF014650480DF052FC2A684F4901
:100E60004D4B444807F094FA3D4B4B481F680DF03A
:100E7000A7FD2A78C1B24848B847404B01221A70F2
:100E8000022000F091FE3E4F18B300F0B3FE05467D
:100E900000F0B4FE0328024618D1284640490CF061
:100EA0001DFF054690B9DFF8D48098F800306BB18B
:100EB000384B3C491A682F4807F06AFA01233A492F
:100EC0002C4888F800503B7007F062FA022000F0CE
:100ED0005FFE3B78DBB1354806F044FCB8B12548ED
:100EE00007F044FAC0B2312820D13149214807F037
:100EF0004FFA21490B6801330022032B3A700B6033
:100F00000FDD23491B4807F043FA0223236033789F
:100F1000012B7FF457AF2368022B83D00FB0BDE8BD
:100F2000F08F012323608BF80020F0E7214911485E
:100F300007F02EFAEBE720490E4807F029FA034B99
:100F400000221A60042312E7242400202C2400200D
:100F5000369A0108DB1F0020D41B0020DA1F002076
:100F600034240020FA1A0020FB1A002080280020D8
:100F70006B9A0108B81B0020F41A0020F91A00200F
:100F8000F81A002014240020A09B010841434B00C4
:100F9000439B0108F01A0020D01A00208C9A010807
:100FA000A89A0108AC9A0108CE9A0108FC1A002000
:100FB000079B0108689B0108C59B010825240020A8
:100FC000A74BA84C1B78012B40F021812568002DF0
:100FD0007DD1A54BA54E1D60A54BDFF800831D609C
:100FE000A44BA54A1D70A54BDFF8D0C2A4481D70C4
:100FF00035602B4629462F46AE4618F8019BB9F1BD
:10100000000F04D1177840F8237001330127013114
:10101000042982F803E04CF804EB02F10402ECD15D
:1010200007B1336097499848954F07F0B1F9974950
:10103000954807F0ADF93368AB4240DC94499248DB
:1010400007F0A6F901232360854B1B78012B41D0C3
:10105000022000F0A9FD002800F0688100F0CAFD20
:10106000054600F0CBFD8B4906462B4602468648D6
:1010700007F08EF97A4BA819197800262B4683427F
:1010800040F0DD808449804807F082F9834806F00B
:1010900069FB0028FAD07C4807F068F90546C7B21A
:1010A000303D7F4978483A46EDB207F071F9092D95
:1010B00040F216817B49744807F06AF9E2E757F875
:1010C000042B7949704807F063F90135B3E7012D26
:1010D00040F03181DFF89C81684E98F8003053BBB6
:1010E000357845BB624BDFF884A11B68DAF8002035
:1010F000934220DA624F6D4957F823906C4B1846A3
:101100001D700CF067F9DAF80030AB4200F3848010
:10111000684B67481D680DF053FC5FFA89F2C1B255
:101120006348A847624B644957484A4607F030F97C
:10113000012388F80030022000F036FD30B300F0C3
:1011400059FD074600F060FD0546384607F0A0F956
:1011500009289FBF594951F82020013241F8202029
:1011600041490A68013203460A60474854492A4601
:1011700007F00EF9002388F8003052494248012355
:10118000337007F005F9022000F002FD3378002BE0
:1011900038D0424806F0E6FA002833D03A4807F043
:1011A000E5F8C0B2312845D1314F47493B68364850
:1011B000013300253B60357007F0EAF82B4B3A68A5
:1011C0001B689A421EDB41492F48DFF8AC90DFF8DC
:1011D000ECA007F0DDF899F802303BB199F8002057
:1011E0003B495AF82230284807F0D2F80135042D3F
:1011F00009F10409EFD10223236000233B6088F842
:1012000000303370164B1B78012B00F0948023685C
:10121000012B00F364811BE757F8042B4A4507D0E4
:101220002C4906A80CF0D6F8214806A90CF036FD8A
:10123000013568E72849144807F0AAF8E2E713F8EF
:10124000012B303AD5B2092D3FF619AF91421FBF9D
:101250000EAD05EB8605013645F8202C0FE700BFE3
:10126000FB1A00202C240020CC1A0020C81A0020D1
:10127000941A0020991A002080280020981A002033
:10128000841A0020E19B0108B81B0020059C01087E
:101290003F9C0108BA9D01089E9E0108FC1A00208F
:1012A000DF9D0108E29D0108309C01086DA4010842
:1012B00081180020342400206D9C01089C1A002015
:1012C000A19C0108E19C0108299D0108579D010886
:1012D0007D9D01083B9C01088F9D0108262400206C
:1012E000A14B1B78A7F13002934205D006A9002339
:1012F0009E4203D19D49DEE69D49DCE651F8040B90
:10130000904201D00133F3E79A4905A80CF062F846
:10131000994B05A81D680DF053FB0122C1B205A829
:10132000A847022000F034FC022323608E4B1B7878
:10133000012B40F0D4802368022B40F0E1818F4FD5
:10134000DFF8B4923B78002B71D199F80050002D52
:101350006DD18B4B8B4E1B683268934267DADFF896
:1013600064A289485AF823308849039305700CF029
:1013700031F8D0463068A84200F3E7800023DFF858
:101380007082834E19464FF0FF359E46884200F327
:101390003781002B40F05C816A1C00F059817D4947
:1013A00079480CF07BFC7C492A4606A80CF012F820
:1013B00006A97548DFF84482754D0CF06FFC4FF0BC
:1013C000000A564618F8013B5BB96B782A787348D7
:1013D000012B0BBF7249734901360AF1010A06F06D
:1013E000D7FF714B04359D42ECD170496B48534691
:1013F000324606F0CDFF002E40F02C816C49624849
:101400000CF04CFC6B4B01221A705B4B5E481D6864
:101410000DF0D6FA9DF80C20C1B25B48A8475A4B94
:10142000039A65495D4806F0B3FF01233B70022033
:1014300000F0BAFB18B300F0DDFB054600F0DEFB60
:101440000328024618D128465C490CF047FC0546A3
:1014500090B93B7883B14A4B59491A68594B4F4868
:1014600053F8222006F094FF012357494B483D7062
:1014700089F8003006F08CFF022000F089FB99F813
:1014800000303BB3514806F06DF918B3434806F0FD
:101490006DFFC0B2312840F0F080394E394F3368CB
:1014A0004B493E4801330025336089F8005006F06F
:1014B0006FFF32683B689A420CDB46493748414E21
:1014C000DFF82C8106F064FF3B68AB4200F3CB8071
:1014D00003232360244B1B78012B00F0118120682B
:1014E000022840F00D8100F05FFB002800F0088129
:1014F00000F080FB064600F081FB1B4F009636494A
:101500003A780346254806F043FF344930460CF04C
:10151000D5FD002800F0B6804FF0FF333049069328
:1015200006AA0BF079FF069D2E491C482A4606F0B4
:101530002FFF3B78AB4240F0A9802B49174806F0BB
:1015400027FF2A4B01221A70A0E058F8042B284BE1
:10155000284953F8223006A80BF03CFF0A4806A998
:101560000CF09CFB013505E7FB1A00204A9E0108A0
:10157000189E0108DD98010834240020991A0020E3
:10158000941A0020C81A002081180020D49E010857
:1015900080280020F19E010873A10108B81B0020DB
:1015A0002F9F01084E9F0108902800206A9F010884
:1015B000969F0108C41A002004A00108A89A0108F7
:1015C00040A00108841A002067A00108FC1A00202E
:1015D000ACA00108DBA0010841A10108F29E0108AE
:1015E0006EA10108A0A10108F9A10108132400209F
:1015F0009C1A0020E49E0108981A0020262400204E
:101600005AF8042B58F822C0F44518DD002516F8C6
:1016100025E0964506EB85030DD14FF0000E83F8CB
:1016200002E09D4B4FF0010E03F805E00023154644
:10163000E6460131AAE60135042DE8D1F6E7F8D1F6
:10164000BEF1000FF5D0954218BF43F00103F0E75B
:101650009249AEE6564501DB9149D0E69149924860
:101660000CF01CFBD1E656F8042B904958F82230B8
:101670008F4806F08DFE013526E78E498C4806F02E
:1016800087FE27E78C498A4806F082FE8B498C4DFD
:1016900030460CF013FD00282AD08A49844806F011
:1016A00077FE01232B70884B0693884B01221B6821
:1016B000032106A89847864B86491A787C4806F08D
:1016C00067FE022000F064FA834A84490023136015
:1016D000834A0B60D3704B60D3718B60D372CB6045
:1016E000D3732360764B1B787BB10C23FFF73FBB92
:1016F0007C4930460CF0E2FC0028D4D07A49CDE792
:101700002368032B7FF40AACDEE7714B1A78012AB9
:1017100002D10723FFF72BBB7449754C644806F0D0
:1017200037FE744A7449624806F032FE2278734BE1
:1017300073495F48002A18BF19460A46714906F0E6
:1017400027FE2378E3B970496A480CF069FE002847
:10175000DFD06E4967480CF063FE10B90923FFF72C
:1017600006BB6B4963480CF05BFE10B90823FFF71A
:10177000FEBA68495F480CF053FE00287FF4CEABF8
:101780000523FFF7F4BA6449494806F001FEFFF764
:1017900049BB6249F8E76249F6E74D4E614F33783D
:1017A000012B3BD03C68002C40F01A81022000F055
:1017B000FBF9002800F0148100F01CFA054600F047
:1017C0001DFA594980463A4806F0E2FD424657491B
:1017D00037482B4606F0DCFDA844454540F016810D
:1017E0005349334806F0D4FD524805F0BBFF0028AA
:1017F000FAD02F4806F0BAFD05465FFA80F8303D72
:101800004D492B484246EDB206F0C2FD092D40F28B
:1018100015814A49264806F0BBFDE1E7D7F800806C
:10182000B8F1000F40F0DC8045492148DFF86890AE
:10183000DFF8ACA006F0ACFD45464FF0FF3419F8D8
:10184000013B73B96B1C03930EAB03EB85059AF850
:10185000002045F8202C3B49154806F099FD039BD4
:101860001D469AF80130012B09D119F8013C33B912
:101870009AF8004034490E48224606F089FD334B61
:1018800099450AF1040ADAD1631C63D1304908484A
:1018900006F07EFD62E700BF26240020F89E0108C6
:1018A000BA9F0108E19F0108811800207D9D010871
:1018B000B81B002015A10108C6A101081FA201083C
:1018C000C41A00202DA2010841434B0034240020FB
:1018D000FB1A0020A3A20108CC1A00209C1A0020A9
:1018E000802800205EA201086FA20108C5A201089D
:1018F0001324002014240020E1A20108579A0108B3
:101900005E9A0108FDA2010814A301081AA30108A8
:1019100021A3010828A3010830A301084EA3010850
:1019200076A301082C24002043A501087DA5010809
:10193000B3A60108FC1A0020DF9D0108D5A5010807
:101940009EA30108C9A30108F0A301082A240020CE
:1019500015A40108DFF8E09199F800300BBBDFF81F
:1019600090A162498AF8003050460BF033FD06AB77
:1019700045453AD15E4A5F495F4806F009FD5F4B35
:101980005B481D680DF01CF8E2B2C1B25848A84788
:10199000574B5B495848224606F0FAFC012389F868
:1019A0000030022000F000F9B0B100F023F9054644
:1019B00000F02AF90446284606F06AFD514903461C
:1019C00022464D4806F0E4FC0023022089F800304E
:1019D00000F0DEF802233B603378012B7FF4E2AEA7
:1019E0003B68022B7FF49AAA53E053F8042BA242DF
:1019F00009D04549039305A80BF0ECFC05A9504616
:101A00000CF04CF9039B08F10108B1E715F8012B24
:101A1000303AD3B2092B3FF6E0AE337893423FF42D
:101A2000DCAE0EAB04F1010903EB8404374944F842
:101A3000202C314806F0ACFC4C46CEE63378A8F1B9
:101A40003008434505D006AA00239C4203D1304903
:101A5000E0E63049DEE652F8041B414501D001338F
:101A6000F3E72D49424605A80BF0B4FC234B05A82B
:101A70001C680CF0A5FF0122C1B205A8A0472749A8
:101A80001D48424606F084FC022000F081F8022343
:101A90003B602349184806F07BFC3378012B7FF428
:101AA0006FAE5BE61F4914481F4D204E06F070FCD8
:101AB000002468782F7800F01BF916F8013B1C49C8
:101AC000CDE9000322460C483B46013406F060FC99
:101AD000042C05F10405ECD1FFF7A4B9154B4FF028
:101AE000FF321A600023FFF742B900BF5CA401086F
:101AF000E1230020A2A40108B81B00203424002008
:101B0000C8A4010801A501083B9C0108A8A501087B
:101B100080A60108FFA50108DD98010844A6010878
:101B2000E9A601082AA70108802800202624002011
:101B30004AA701082C2400208018002007B50A4B72
:101B40000A481A780A4B1A704FF41653009303226E
:101B50000023022105F05AFA064A0749034803B058
:101B60005DF804EB02F082B925240020FC1A002065
:101B700024240020C8010020CD020008034A0123CC
:101B800003FA00F0136818431060704730240020F7
:101B9000044A012303FA00F0136823EA00031360E8
:101BA000704700BF30240020012303FA00F0024BED
:101BB0001B681840704700BF3024002038B50C4621
:101BC0000146064815460CF04BFE054B1D70054BB3
:101BD0001C700220BDE83840FFF7D0BF3C24002035
:101BE0003C2800203D2800200520FFF7C7BF062025
:101BF000FFF7C4BF004870473C240020014B187811
:101C0000704700BF3C280020014B1878704700BF88
:101C10003D280020014B1860704700BF342400208D
:101C2000014B1860704700BF3824002010B50C4CE1
:101C3000204605F0DBF820460A4B40F8283B1022EE
:101C400000210BF0DDFF012384F83830064B2360C0
:101C50002046064A0649BDE8104002F007B900BF19
:101C6000402800207CC1010890C10108C801002063
:101C7000550B000870B505464E1E4418002E00DCBA
:101C800070BD06F021FC731C90FBF3F101FB130007
:101C900014F8012D2B5C2370013E2A54EEE700005E
:101CA000F7B5002006F038FA06F006FC04210D4BCB
:101CB00001930DEB0100FFF7DDFF00210A480B4BFC
:101CC00001AA01250C46013110F8017B12F8016BC5
:101CD0001F7004295E709D70DC7003F10403F2D163
:101CE00003B0F0BD00010203D4BC0108802800202D
:101CF00003289ABF024B53F820000248704700BFE8
:101D0000C4BC010876A701080FB407B5064B04AAA6
:101D10001B6852F8041BD868019208F031FE03B02A
:101D20005DF804EB04B07047EC070020002000F0E1
:101D30005BBF00002DE9F041BDF81C50B5F5806F88
:101D400006460C4690461F4606D322482946FFF712
:101D5000DBFF0620BDE8F081022000F0A1FC08B105
:101D60000720F7E73146022000F0F6FC4FFA88F131
:101D7000022000F02DFD3946022000F047FD0699B3
:101D8000022000F061FD2146022000F0C7FC8EB960
:101D90000B3C012C12D80121022000F0A1FC7DB9DE
:101DA0000121022000F06EFD00F0D6FD0130D7D0F9
:101DB0000020CFE7012E01D10C2CECD00021EBE765
:101DC0000021022000F05EFD2946022000F078FD8F
:101DD000EAE700BF7EA701087047000084B038B56D
:101DE00004AC84E80F000220DDE9085400F058FC40
:101DF00020B10720BDE8384004B070470C2C15D93D
:101E000021461148FFF780FF0C21022000F086FCDC
:101E1000A5B90B3C012C15D80121022000F060FC73
:101E200000F09AFD0130E4D00020E3E7052CEFD864
:101E300021460548FFF768FF0621E6E7012D01D19D
:101E40000C2CE9D00021E8E70EA801080FB407B573
:101E5000064B07491B6805AAD868019208F090FD57
:101E600003B05DF804EB04B0704700BFEC0700203E
:101E700037A8010884B010B502AC84E80F009DF8C3
:101E80000D10012905D0BDE81040254804B0FFF72A
:101E9000DDBF9DF8293033205BB301F009F840F035
:101EA0004101C9B2332000F0F8FF19213B2000F0B6
:101EB000F4FF9DF827309DF82A402BB31D211120F7
:101EC00000F0EBFF402000F0F3FF00F03301402072
:101ED00000F0E3FF00210F2000F0DFFF00210D20C4
:101EE00000F0DBFFD4B10520BDE8104004B001F0E4
:101EF00017B800F0DDFF00F0BE0141F00101332012
:101F000000F0CBFF1D21D1E71F21112000F0C5FFFC
:101F1000402000F0CDFF00F03F01D8E70620E3E7C6
:101F200037A8010884B02DE9F04106AC84E80F0021
:101F30000898BDF832609DF83450BDF842700B9C93
:101F4000DDF8288000F0CCFF1D2000F0B1FF9DF8E7
:101F500031309DF8301041EAC3019DF8363041EA36
:101F6000881141EA430141EA8501C9B21D2000F010
:101F700094FF1E2000F09CFFC7F3012100F00C002D
:101F800041EA04110143C9B21E2000F086FFF9B2F4
:101F90001F2000F082FF310A202000F07EFFF1B206
:101FA000212000F07AFF25B19DF83510222000F0A5
:101FB00074FF9DF837306BB14B2000F079FF60F073
:101FC0007F01C9B24B2000F068FF9DF83810242033
:101FD00000F063FF062C4FF031000FD100F068FFD6
:101FE00000F0F80141F00501312000F056FF0C210E
:101FF000BDE8F041372004B000F04FBF00F058FFBB
:1020000000F0F80141F00301312000F046FF0A2101
:10201000EEE78021122000F040BF4021122000F0A6
:102020003CBF07B5122000F043FF8DF807009DF874
:102030000700C0F3401003B05DF804FB202112201C
:1020400000F02BBF08B5192000F032FF030643BF94
:102050004042C0F38500404240F3870008BD84B091
:1020600010B502AC84E80F009DF938401A2000F04A
:102070001FFF002CB8BF8B3C4FEA2013B8BF0019DC
:10208000BDE81040A8BF8B38184400B204B07047B8
:1020900038B50546132000F00BFF044601462846DC
:1020A00000F016FF204638BD0FB407B5064B04AA52
:1020B0001B6852F8041BD868019208F061FC03B059
:1020C0005DF804EB04B07047EC07002008B528B9B0
:1020D0000848FFF7E9FF4FF0FF3008BD402905D958
:1020E0000548FFF7E1FF6FF00100F6E7BDE80840A3
:1020F00000F0CEBD76A80108A2A80108F8B50746F1
:1021000001200D4614461E4600F0CAFA08B1072009
:10211000F8BD3946012000F03DFB2946012000F0C2
:102120001BFB71B2012000F053FBBDF81810012019
:1021300000F06CFB0799012000F086FB214601208E
:1021400000F0ECFA65B90B3C012C0DD801210120FF
:1021500000F0C6FA00F0D2FB0130D8D00020D7E75B
:10216000012D01D10C2CF1D00021F0E784B038B55D
:1021700004AC84E80F000120DDE9085400F090FA77
:1021800020B10720BDE8384004B070479DF91C001D
:1021900000F010FC50BB012000F082FA0028F0D1C2
:1021A0000C2C15D921461248FFF77EFF0C21012087
:1021B00000F0B4FAA5B90B3C012C15D8012101207F
:1021C00000F08EFA00F09AFB0130DAD00020D9E757
:1021D000052CEFD821460648FFF766FF0621E6E703
:1021E000012D01D10C2CE9D00021E8E70120C9E73D
:1021F0000EA801080FB407B5064B07491B6805AACE
:10220000D868019208F0BCFB03B05DF804EB04B0A1
:10221000704700BFEC070020DCA8010884B070B54F
:1022200004AC84E80F0009209DF9404000F040FE16
:1022300006465A2000F03CFE9DF8103003F0FD03E6
:10224000012B14BF00238023054606F07F001843AE
:10225000030600F0F00127D5112CCBBF45F0070590
:1022600005F0F805EDB245F0040505F00703072B6E
:1022700012D1142CA8BF1424052CB8BF0524631F49
:102280001943C9B2092000F008FE2946BDE8704094
:102290005A2004B000F001BE112CA8BF1124022C5A
:1022A000B8BF0224A31EEBE70E2CA8BF0E2444EAFD
:1022B000E47401342143E4E784B008B50DF1080C5F
:1022C0008CE80F009DF80D10012905D0BDE80840ED
:1022D000124804B0FFF78EBF9DF827309BB1F5215F
:1022E000112000F0DAFD402000F0E2FD00F03301A3
:1022F000402041F0400100F0D0FDBDE8084003203F
:1023000004B000F00DBEF721112000F0C6FD402002
:1023100000F0CEFD00F03F01EAE700BFDCA80108B5
:1023200084B02DE9F0418AB010AC84E80F009DF92B
:102330004C30089314AD0FCD6C46159EBDF85A7005
:10234000DDF850800FC495E80F0084E80F0010AB53
:102350000FCBFFF763FF129800F0C2FD9DF85F30CE
:102360006BB14B2000F0A4FD60F07F01C9B24B209F
:1023700000F093FD9DF86010242000F08EFD1D20DC
:1023800000F096FD9DF859309DF8581041EAC301C0
:102390009DF85C3041EA881141EA83019DF85E3086
:1023A00041EA4301C9B21D2000F077FD1E2000F074
:1023B0007FFD00F00F0141EA0611C9B21E2000F0B6
:1023C0006CFD390A202000F068FD2120F9B200F0F0
:1023D00064FD062E4FF0310010D100F069FD00F0D1
:1023E000F80141F00501312000F057FD0C213720A4
:1023F0000AB0BDE8F04104B000F04FBD00F058FD58
:1024000000F0F80141F00301312000F046FD0A21FF
:10241000EDE70821122000F040BD08B568B1332077
:1024200000F046FD00F0BE01332000F036FD19211A
:102430003B20BDE8084000F030BD332000F038FDFF
:1024400000F0BE0141F00101332000F026FD1D2106
:10245000EEE738B5044622200D4600F01EFD0021AF
:102460000E2000F01AFD00210D2000F016FD0120C5
:1024700000F01EFD30F0F80304D100F07FFD0120D4
:1024800005F03EFD29462046BDE8384000F01BBD62
:102490000FB407B5064B04AA1B6852F8041BD86892
:1024A000019208F06DFA03B05DF804EB04B07047D8
:1024B000EC07002010B50A4C21788142024605D075
:1024C0000848FFF7E5FF4FF0FF3004E0022001F07D
:1024D00003F808B9207010BD0348FFF7D9FFF2E7F1
:1024E0000829002010B1010866B1010808B50448A8
:1024F00004F0D9FC00F045FD024B01221A7108BD21
:1025000098280020D828002013B5174C2379022BD7
:1025100003D0032B19D002B010BDFFF75DFCFFF70D
:10252000E5FF032000F0D8FF012808D000230F4A60
:102530000093146819461A460120A047EBE70C489F
:1025400002B0BDE81040FFF7A3BF204600F05CFDDD
:1025500094F8280000F049FD0123237102B0BDE882
:10256000104000F0E9BF00BFD82800200C2900204F
:10257000E6B001082DE9F041354C267988B046B126
:1025800034483146FFF784FF4FF0FF3008B0BDE814
:10259000F081314B1860314B31481960FFF778FFFB
:1025A0004FF4807005F078FF2E4B186028B92E4844
:1025B000FFF76EFF6FF00100E8E74FF4FA62626226
:1025C0000E2222730B22294B626108224FF0010870
:1025D000A360628304230522204684F820306285AC
:1025E000237084F805802677E67784F81E8084F8C7
:1025F0002160266184F81980667784F8228084F847
:10260000288000F001FD2546014605F8100B18480A
:10261000FFF73EFF0FCD6F460FC795E80F0087E825
:102620000F0094E80F00FFF7A1FDA5F1100CBCE826
:102630000F006F460FC795E80F0087E80F0094E87A
:102640000F00FFF7CBFB84F8048030469EE700BF05
:10265000D8280020DDA90108102900200C2900201D
:102660002EAA0108902800205BAA01082021F63636
:1026700095AA010808B5042000F02EFF012805D115
:102680000648FFF705FF4FF0FF3008BDFFF72EFFAC
:10269000022000F021FF0020F7E700BFABAA0108ED
:1026A00038B5054618B90A48FFF7F2FE05E0094CAF
:1026B000217829B10848FFF7EBFE4FF0FF3004E026
:1026C000084600F009FF08B9257038BD0348EBE75C
:1026D000BBAE010808290020F8AE01083BAF010895
:1026E00038B504460D4600F021FF0128084B06D1FD
:1026F0001A78A24203D1074B00201D7638BD064848
:102700001A782146FFF7C4FE4FF0FF30F6E700BF0E
:1027100008290020D82800205CAE010838B50446FE
:102720000D4600F003FF0128084B06D11A78A2429B
:1027300003D1074B00205D6138BD06481A78214659
:10274000FFF7A6FE4FF0FF30F6E700BF0829002094
:10275000D8280020FDAD010838B504460D4600F02C
:10276000E5FE0128084B06D11A78A24203D1074B97
:1027700000201D6138BD06481A782146FFF788FE03
:102780004FF0FF30F6E700BF08290020D8280020CE
:102790006FAF010838B504460D4600F0C7FE0128AA
:1027A000084B06D11A78A24203D1074B00201D73B3
:1027B00038BD06481A782146FFF76AFE4FF0FF3011
:1027C000F6E700BF08290020D828002081AC0108C6
:1027D00038B504460D4600F0A9FE0128084B06D185
:1027E0001A78A24203D1074B00205D7638BD064817
:1027F0001A782146FFF74CFE4FF0FF30F6E700BF96
:1028000008290020D82800209EAD010838B50446CC
:102810000D4600F08BFE0128084B06D11A78A24223
:1028200003D1074B00205D8338BD06481A78214646
:10283000FFF72EFE4FF0FF30F6E700BF082900201B
:10284000D8280020C8AF010838B504460D4600F06E
:102850006DFE0128084B06D11A78A24203D1074B1E
:1028600000209D6038BD06481A782146FFF710FE0B
:102870004FF0FF30F6E700BF08290020D8280020DD
:1028800088B0010838B504460D4600F04FFE012817
:10289000084B07D11A78A24204D1074B002083F8D5
:1028A000225038BD05481A782146FFF7F1FD4FF058
:1028B000FF30F6E708290020D82800202AB00108B8
:1028C00038B504460D4600F031FE0128084B06D10C
:1028D0001A78A24203D1074B00205D8538BD064817
:1028E0001A782146FFF7D4FD4FF0FF30F6E700BF1E
:1028F00008290020D828002041AD0108F0B589B092
:1029000000F014FE0128114B18D11F78012F15D1AA
:102910000F4E06F1100500F037FB0FCD6C460FC4CB
:1029200095E80F0084E80F0096E80F00FFF7F8FC29
:102930003846FFF7BFFD002009B0F0BD0548197803
:10294000FFF7A6FD4FF0FF30F6E700BF0829002093
:10295000D82800201DAC0108F0B589B000F0E6FDD4
:102960000128114B18D11F78022F15D10F4E06F1F7
:10297000100500F009FB0FCD6C460FC495E80F0061
:1029800084E80F0096E80F00FFF7CCFA3846FFF70F
:1029900091FD002009B0F0BD05481978FFF778FDDA
:1029A0004FF0FF30F6E700BF08290020D8280020AC
:1029B000B9AB0108F0B58BB0044600F0B7FD0128B3
:1029C000104B17D11F78012F14D10F4E089406F128
:1029D00010050FCD6C460FC495E80F0084E80F007A
:1029E00096E80F00FFF71AFC3846FFF763FD00205A
:1029F0000BB0F0BD05481978FFF74AFD4FF0FF30E6
:102A0000F6E700BF08290020D8280020DDAC010827
:102A10000E4B1B79022B13B510D1FFF7FAFAFFF713
:102A200065FD032000F058FD012809D00023084A65
:102A30000093146819461A460120A04702B010BD41
:102A4000044802B0BDE81040FFF722BDD82800209E
:102A50000C290020D3AA01082DE9F041454E347914
:102A6000022C8AB067D1FFF7D8FAFFF7DAFA01280B
:102A700029D1FFF7E3FA96F82250ADB9FFF736FDFA
:102A8000032000F029FD012808D03B4B00951E686B
:102A90002A462B4629462046B04711E037480AB05F
:102AA000BDE8F041FFF7F4BC00F040FD0328F5D18C
:102AB0000023314A0093156819461A462046A84754
:102AC0000AB0BDE8F081FFF7BDFA06F110050890E5
:102AD00007460FCD6C460FC495E80F0084E80F0041
:102AE00096E80F00FFF7BBFA254C80462068FFF7F9
:102AF000CFFA96F8226005468EB9FFF7F7FC03205F
:102B000000F0EAFC012808D01B4B00971F682168E1
:102B100043462A463046B847D2E71A48BFE700F096
:102B200005FD0328F9D1144B00971E682168434620
:102B30002A460020B0E7032C14D1134804F0B3F95F
:102B4000FFF767FCFFF7D2FC204600F0C5FC012828
:102B500006D00E4B1B6800200AB0BDE8F0411847B4
:102B60000B489CE70B4821460AB0BDE8F041FFF74F
:102B70008FBC00BFD82800200C29002016A901080E
:102B80009028002052A90108982800201029002030
:102B90008DA90108C1A901082DE970430446994691
:102BA0000D46904604F0FCFE636B23B994F8383070
:102BB0000BB104F08DFC04F12806AE420BD0304678
:102BC000FDF7A4FF3EB1EB681BB15B6829463046B8
:102BD0009847EB68636342464B46204604F04BF946
:102BE000BDE8704304F0F2BEF0B506468DB001209A
:102BF00000F072FC012806D11E48FFF749FC4FF097
:102C0000FF300DB0F0BD1C4B1C4F18684FF48072A4
:102C1000002107F110050AF0F3FF0FCD6C460FC439
:102C200095E80F0084E80F0097E80F00FFF722F9FE
:102C300002233B71E6B11022002108A80AF0E0FF50
:102C40000F4B089330460F4B0B9315F02DFA0022D3
:102C50000D4B15F0A3FA15F039FE02460B460B4852
:102C600008A9FFF799FF08A8FDF750FF0020C8E763
:102C70003046C6E702AB010890280020D828002083
:102C800009250008B8BC010800408F4098280020A2
:102C9000F0B5304C2379032B8FB006460D4606D194
:102CA0002D48FFF7F5FB4FF0FF300FB0F0BD0420CB
:102CB00000F012FC0128F3D0FFF718FC0A2005F001
:102CC0001FF9022000F008FC012000F005FC01289B
:102CD00001D12248E5E763791BB1012B03D000271E
:102CE0000CE01F48DDE794F82100FFF796FB29462A
:102CF000304684F82E50FFF7ACFB676A194E0897F0
:102D00000FCE6D460FC596E80F0085E80F0094E8DA
:102D10000F00FFF7D1FA0323102200210AA8237124
:102D20000AF06EFF104B0A933846104B0D9315F0C6
:102D3000BBF900220E4B15F031FA15F0C7FD024623
:102D40000B460C480AA9FFF727FF0AA8FDF7DEFE8D
:102D50000020AAE7D828002029AB010859AB0108B8
:102D600080AB0108E828002009250008B8BC01084C
:102D700000408F409828002010B50C4C204604F0ED
:102D800035F820460A4B40F8283B102200210AF073
:102D900037FF012384F83830064B23602046064A6B
:102DA0000649BDE8104001F061B800BF9828002036
:102DB0007CC1010890C10108C8010020550B000822
:102DC00010B50446044B40F8B83BD4F8C4300BB1FE
:102DD0009B689847204610BD68C201080FB407B52C
:102DE000064B07491B6805AAD868019207F0C8FD81
:102DF00003B05DF804EB04B0704700BFEC0700209F
:102E000096B10108F8B50D4C0D4F23681646E268DF
:102E10001B040D46136040F08001094804F086FA57
:102E2000013D2E44B54205D015F8011F384604F087
:102E30007DFAF7E7A36822681A60F8BDD029002060
:102E4000082A0020F8B50E4C0E4F23681646E2689B
:102E50001B040D46136000F07F010A4804F066FA77
:102E6000013D2E44B54206D00021384604F05EFAFA
:102E700005F8010FF6E7A36822681A60F8BD00BFE5
:102E8000D0290020082A002010B50446FFF798FF3B
:102E9000204601F058F9204610BD07B502AB0122CB
:102EA00003F8011D1946FFF7ADFF03B05DF804FB01
:102EB00007B501220DF10701FFF7C4FF9DF80700D8
:102EC00003B05DF804FB0A4601460020FFF79ABFF5
:102ED0000A4601460020FFF7B5BF000000000000D1
:102EE00010B515F0E1F80CA3D3E9002315F080FA32
:102EF00015F02CFC0446C0F307410620FFF7CDFF78
:102F0000C4F307210720FFF7C8FFE1B20820BDE89E
:102F10001040FFF7C2BF00BF0000000080844E4099
:102F2000144910B50A78044690B932B901230B70E0
:102F3000114BDA681B681B0413600120FFF7B8FF10
:102F400000F0F80121430120BDE81040FFF7A5BFC4
:102F5000094B2AB11A6800200870D96812040A6067
:102F6000032C1A6803D0DB6812041A60E5E79B683B
:102F7000FBE700BFE42A0020B42900200120FFF76E
:102F8000CFBF0020FFF7CCBF10B504460120FFF7EC
:102F90008FFFC0F3C010844226D0012C13D0FFF75E
:102FA000F0FF0120FFF784FF00F07F010120FFF711
:102FB00074FF00214020FFF770FF30214120BDE861
:102FC0001040FFF76ABFFFF7DCFF2046FFF770FFF6
:102FD00060F07F01C9B22046FFF75FFF002140206B
:102FE000FFF75BFF0021E9E710BD10B504460120A3
:102FF000FFF7CAFF2CB134213920BDE81040FFF79C
:103000004CBF1221F8E700002DE9FF47594C054657
:1030100004F0C6FC0121204600F000FC04F0D6FCC0
:103020002368E2681B041360012004F069FF04F0C8
:10303000B7FC2046002100F0F1FB04F0C7FC06209D
:1030400004F05EFF2E784C4C042E1CD104F0A8FC3A
:103050000021204600F0E2FB04F0B8FC012004F05F
:103060004FFF63681A6823681A4214BF01260026BE
:1030700004F096FC2046012100F0D0FB04F0A6FCF1
:10308000012004F03DFF2368E2683C483C4C1B04EF
:1030900013603C4B9A681B6813600821002204F0FF
:1030A00023F9394804F01EFF0020FFF739FF1022F2
:1030B000ACBB214668460AF0A3FD69463348344C50
:1030C00004F021F86846FDF721FD10227CBB214663
:1030D00068460AF095FD69462E48DFF8C8802E4CF8
:1030E00004F011F86846FDF711FD4FF003090023C5
:1030F0005F1CDBB2D8F80020B2FBF9F29A421ED96D
:1031000003EB430304EB030AE05CFFF73DFF9AF88F
:1031100002109AF80100FFF7C0FE3B46E8E70021E5
:1031200068460AF06DFD1D4B00940393C5E700212E
:1031300068460AF065FD194B00940393CBE7687964
:10314000174CFFF721FF95F82800FFF74EFF4220AC
:10315000FFF7AEFE38B92046FFF740FE4FF07E5035
:1031600004F0C0FEF3E7A868FFF7BAFE304604B0EB
:10317000BDE8F087EC290020B4290020082A0020AF
:10318000592A0008D0290020CDCCCC3D142900209C
:10319000112A000864290020D8BC0108B8BC010825
:1031A00096B10108D001002073B5224D224C234E68
:1031B0000A21284603F04CFF2846214D224631467D
:1031C00000F054FE1321284603F042FF2246314608
:1031D00028461C4D00F04AFE4FF0FF3300930622B4
:1031E00005230721284604F0D3F82246164928462D
:1031F00000F03CFE154B1C242246184600210AF024
:10320000FFFC162103F0DAFE114B2246184600217E
:103210000AF0F6FC002103F0BEFE0E4B2246002110
:1032200018460AF0EDFC212102B0BDE8704003F021
:10323000B2BE00BF14290020C8010020A9700008F8
:1032400064290020082A0020C12D0008D029002070
:10325000EC290020B42900200FB407B5064B04AABE
:103260001B6852F8041BD868019207F089FB03B071
:103270005DF804EB04B07047EC07002013B5084B71
:103280000024CDE900340122082307212046FEF75F
:1032900051FDFEF74BFD034B1C7002B010BD00BF8B
:1032A0002021F636E52A002010B5044648B9FFF77C
:1032B000E1F9FFF7E3FF084B1B682046BDE810402B
:1032C0001847012807D1FFF7D5F9FFF7D7FF024BC1
:1032D00002201B68F2E710BD282B00202DE9F041E9
:1032E000884615461F469DF9186000283BD1202AC4
:1032F00003D92648FFF7B0FF2025254C2A46414632
:1033000020460BF0ADFA234B1F80234B1E7026780E
:103310002746FEB9214BA4781B78A34201D0FF2C8D
:103320001BD1A4F1FF035C425C4101261C4B1B78BE
:10333000ABB9FFF79FF9FFF7A1FF012E24D1194B7D
:10334000787819492A1F1D68D2B22346AC46BDE8D9
:10335000F041604700242646E8E73446E6E7134894
:10336000FFF77AFFE9E7013801280DD80C4B1B78ED
:103370002BB9FFF77FF9BDE8F041FFF77FBF0B489E
:10338000BDE8F041FFF768BFBDE8F081A3B20108D6
:10339000E62A0020322B0020302B0020342B002086
:1033A000E52A00202C2B0020EA2A0020E8B20108A0
:1033B0000A4B10B518700A4B19600A4B0A491A607B
:1033C00004460A48FFF7D6F8094B00225C701A70D1
:1033D000FFF750F9BDE81040FFF750BF342B002035
:1033E000282B00202C2B0020DD320008A9320008F9
:1033F000062B0020F7B5184F3C7834B1174821460A
:10340000FFF72AFF012003B0F0BD1C2905D914489D
:103410002022FFF721FF0320F5E7124D0E1DAA70B1
:10342000F6B20A460146281D2C70EE700BF018FA11
:10343000FFF720F90C4A0823CDE900322146012389
:1034400007220E20FEF75AFE31462846FEF73EFEC2
:1034500001233B702046D6E7E52A0020B8B10108D9
:10346000F9B10108062B00202021F636014BB3F9F3
:1034700000007047322B0020014B93F90000704789
:10348000302B002010B5074B1C78012C05D10648C5
:103490002146FFF7E1FE204610BD044B18700020C6
:1034A000FAE700BFE52A002043B20108342B0020D0
:1034B0000FB407B5064B07491B6805AAD8680192E7
:1034C00007F05EFA03B05DF804EB04B0704700BF8C
:1034D000EC07002035B3010837B501460D480E4A08
:1034E000037803EB83052A44545C012C06D00B4B74
:1034F0002B445B5C0370204603B030BD0848642257
:1035000002FB03000090074802FB01020648FFF798
:10351000CFFFF0E7352B00201FBD01080BBD0108D0
:10352000C8030020D401002035B30108014B1878EE
:10353000704700BF352B0020014B00221A707047E6
:10354000352B002043692DE9F0410D46D90704468B
:1035500028D58168334F8268334E836833483940B9
:10356000B94202EA060204BF0127A760B24203EA99
:10357000000304BF4FF48076A660834204BF4FF47B
:103580008030A0602748814205D027498A4202D076
:10359000264A934206D1264B264A1B6852F825003C
:1035A00001219847E2686369920708D09F0706D512
:1035B0001F4B204A1B6852F8250000219847A1693B
:1035C000626963698E070AD5900508D5190406D586
:1035D000174B184A1B6852F8250005219847A76920
:1035E0006669626917F0040706F4806609D046B17F
:1035F000120406D50E4B0F4A1B6852F8250007210E
:10360000984763695FB156B11B0408D5084B094A56
:103610001B6852F825000221BDE8F0411847BDE8BB
:10362000F08100BF03000004000300080000031045
:10363000402B0020382B002000210148FFF782BFDB
:1036400000640040FFF7F8BFFFF7F6BF0121014813
:10365000FFF778BF00680040FFF7F8BFFFF7F6BF3D
:1036600030B5036891FAA1F4B4FA84F491FAA1F1A7
:103670000325B1FA81F1640005FA04F4490023EA54
:10368000040302FA01F11943016030BD00B50023C3
:1036900089B007286FD8DFE800F00413202D3A47DF
:1036A00054610093364B37481A6B42F001021A639B
:1036B0001B6B03F001030093009B09B05DF804FB52
:1036C00001932F4B30481A6B42F002021A631B6BB6
:1036D00003F002030193019BEFE70293284B2B4871
:1036E0001A6B42F004021A631B6B03F0040302938B
:1036F000029BE2E70393224B25481A6B42F0080233
:103700001A631B6B03F008030393039BD5E7049331
:103710001B4B20481A6B42F010021A631B6B03F01C
:1037200010030493049BC8E70593154B1A481A6BC2
:1037300042F020021A631B6B03F020030593059BE4
:10374000BBE706930E4B15481A6B42F040021A6312
:103750001B6B03F040030693069BAEE70793084BF1
:103760000F481A6B42F080021A631B6B03F0800350
:103770000793079BA1E70B4804F07AFC00209CE725
:1037800000380240000002400004024000080240ED
:10379000000C0240001002400014024000180240D9
:1037A000001C024074B30108431C10B5044604D148
:1037B00076220649064803F0CBFE2046002100F0A1
:1037C0000DFE04F00F040120A04010BD95B30108C8
:1037D000EFB3010870B504464B1C0E46218216D08B
:1037E000C1F30310FFF752FF05463046FFF7DCFF39
:1037F000238A074A656103F00F03206052F82330E3
:10380000A36105F1100318356360A560E56070BD24
:10381000F0C00108B0F9100000F078BE0A4619B9EE
:1038200081694069FFF71CBF0122F9E74C23F0B51D
:103830004343224E224F1A1D324400244FF0010E02
:103840001E448C4205D10146BDE8F0401D4804F0FD
:103850000FBC33680EFA04F51D422BD0136B7D6943
:103860000EFA03F32B4225D0D2F818C07B611568FD
:1038700005B3FA6833EA020203D1BA6833EA0202F6
:1038800014D10F4A916833EA010103D1D26833EAB7
:1038900002020DD1DCF81020134214BF01210221D5
:1038A000094B28461B68BDE8F04018470221F7E79E
:1038B0000121F5E701340432C3E700BF442B0020A7
:1038C000003C014029B40108582D0020062108467B
:1038D000FFF7ACBF05210846FFF7A8BF0121042070
:1038E000FFF7A4BF01210320FFF7A0BF01210220A1
:1038F000FFF79CBF01210846FFF798BF0121002078
:10390000FFF794BF012910B518D11B4C838952B120
:10391000A26803F00F0399401143A160836843F04C
:103920000103836010BDA26803F00F03994022EAEF
:103930000101A160836823F00103F2E70229F1D1BC
:103940000D4983895AB1CC6803F00F03012202FAB2
:1039500003F32343CB60836843F00203E1E7CA68C3
:1039600003F00F03012404FA03F322EA0303CB60FC
:10397000836823F00203D4E7003C0140B0F90C3027
:1039800099B270B501F00F0606F00C0404F1804402
:1039900004F59C3401F00301A56889000F228A40D8
:1039A000C3F3031325EA02058B402B43A3600F4B9F
:1039B00001221968B240114319608468E50742BFCB
:1039C000996811439960A10742BFD9680A43DA6038
:1039D00090F90030002B08DB5909012203F01F0386
:1039E00002FA03F3024A42F8213070BD003C014064
:1039F00000E100E02DE9F04F92464A1C85B0804678
:103A00000C4666D000220392334A344F516C41F485
:103A100080415164526C02F480420392039A04F094
:103A20000F090C2202FB0972C4F303105568062D1E
:103A300047D8DFE805F0043A3C3E40424400284EB7
:103A40000193FFF723FE0C2101FB09F17A1857F8C7
:103A500001E0244FA8F80C404C21694301247B5815
:103A600092F90820C8F8045004FA0EF44FF0000B45
:103A70001C4388F80020C8F808B07C50132101FBD3
:103A800005E507EB8501019B4B60174BC861C3F847
:103A900000A0164BC1F834909B681032404643F8A2
:103AA0002260FFF76BFF584610E0114EC8E7114E39
:103AB000C6E7114EC4E7114EC2E7114EC0E7114EE2
:103AC000BEE7114804F0D4FA4FF0FF3005B0BDE86E
:103AD000F08F0846FAE700BF00380240C8BF01086F
:103AE000FD380008442B0020582D002000ED00E098
:103AF000F5380008ED380008E5380008DD38000822
:103B0000D5380008CD38000802B401088389184A66
:103B100003F00F03012110B501FA03F39468DB43AE
:103B20001C409460D4681C40D46014682340136027
:103B300090F90030002B0CDB5A0903F01F0301FA47
:103B400003F320320B4941F82230BFF34F8FBFF30C
:103B50006F8F90F90030002B09DB5A09012103F027
:103B60001F0301FA03F36032024941F8223010BD0D
:103B7000003C014000E100E0838903F00F020C23C8
:103B80005343104A70B54468D658FFF7BFFF4C2125
:103B90000D4A6143012000FA06F55058132303FB38
:103BA000046320EA0500505002EB830000214160CD
:103BB000981D0C3302EB800002EB830341605960D7
:103BC00070BD00BFC8BF0108442B002008B503F03A
:103BD0007DF8002008BD000008B50A4B1B684BB1FA
:103BE00003F0F0F904F001F94FF47A72002314F0B5
:103BF0001DFE08BD03F0BEF84FF47A73B0FBF3F07E
:103C000008BD00BF5C2D002010B588B003F0C8FED1
:103C1000052101A803F0D2F90424039B019A1A603C
:103C2000962004F06DF9019B049A1B041360962002
:103C300004F066F9013CF0D10424039B019A1A6058
:103C40004FF4C87004F05CF9019B049A1B041360E4
:103C50004FF4C87004F054F9013CEED1DCE70000E9
:103C600070B50D46A0B0044603F09AFE2B462246DE
:103C70008021684609F012FD051E03DC03F0A6FE54
:103C800020B070BD094B1B6823B9032202210848EC
:103C900000F090FE064E00241DF80410304601345A
:103CA00001F06AF8A542F7D1E8E700BFA42D002093
:103CB000843000200FB407B504A951F8040B01911A
:103CC000FFF7CEFF03B05DF804EB04B070470000CF
:103CD00008B502F0A9FF01F0ADF802F095FF02F07F
:103CE000A3FF024B01221A6008BD00BF5C2D00201B
:103CF00000207047036801221B69002118470368F0
:103D000000221B691146184703681B69184703689E
:103D10009B69184703689B6A184700290CBF6FF01E
:103D2000180000207047012070471120704770472D
:103D30006FF01C0070476FF015007047012070474E
:103D40000020704770470000F8B5074E15460C4636
:103D50008F18BC4205D014F8011B304601F00CF856
:103D6000F7E72846F8BD00BF8430002038B58DB293
:103D700015F0010405D0084800F098FD041C18BF98
:103D80000124EB0605D5044800F0A6FD08B144F077
:103D90001004204638BD00BF8430002010B5044612
:103DA00004F082FB204610BD10B50C462AB1044831
:103DB00000F0D0FF2070012010BD104610BD00BFE4
:103DC0008430002038B51D46074B0360074B1B6845
:103DD000044633B9064800F0EDFD2946044800F0DA
:103DE000B1FD204638BD00BF90C00108A42D0020C1
:103DF00084300020002070470020704708B5012063
:103E000000F036F80C4A136810B51844EFF3088137
:103E1000884205D3094B0C221A604FF0FF3010BDC9
:103E200007490C6824B10749096821448842F1D246
:103E30001060184610BD00BF580600204830002012
:103E4000702D0020742D0020074C08B5236805460E
:103E5000986808F067FC2368D86808F063FC0DB127
:103E6000FFF7D2FEFEE700BFEC07002001207047FD
:103E700008B5FFF7E9FF01207047002109F0D0B92C
:103E800008F08ABC7047704708B5FFF7FBFF08BD14
:103E900008B5FFF7F8FF08BD10B5037803F003037A
:103EA000012B04460CD02BB140F2A952054906481B
:103EB00003F04EFB237843F002032370012010BD72
:103EC000002010BDC6B401081DB5010810B5037867
:103ED00003F00303022B044605D040F2B15205491A
:103EE000054803F035FB237823F0030343F0010377
:103EF000237010BDC6B4010843B501083F2870B552
:103F000004462FDC184D55F820305A1C13D10228D6
:103F100011DCFFF771FF034658B92046FFF76AFF2F
:103F2000034630B9114E3378BFF35B8FDB0704D5FE
:103F30000F4B45F82430184670BD3046FFF7ACFFF4
:103F40000028F5D04FF41653032202210848FFF74A
:103F500039FF3046FFF7BAFF064A07490448FFF722
:103F600085FFE5E70023E6E758050020602D0020E7
:103F70006C2D0020C8010020453D000838B50546DD
:103F8000FFF7BCFF0B4B002443F8254030B90AF083
:103F900003FA092303604FF0FF3038BD03685B6903
:103FA0009847051E04DA0AF0F7F96D420560F2E75A
:103FB000204638BD58050020FFF7E0BF38B50C4655
:103FC0001546FFF79BFF38B90AF0E6F909230360AD
:103FD0004FF0FF34204638BD03682146DB682A468F
:103FE0009847041EF6DA0AF0D7F964420460EFE756
:103FF00008B5131E06DA0AF0CFF9162303604FF056
:10400000FF3008BD04D0FFF7D9FF40EAE07008BDDB
:10401000184608BD38B50C461546FFF76FFF38B98E
:104020000AF0BAF9092303604FF0FF34204638BD87
:10403000036821469B682A469847041EF6DA0AF070
:10404000ABF964420460EFE7002A08B503DBBDE882
:104050000840FFF7DFBF0AF09FF9162303604FF017
:10406000FF3008BD10B5FFF749FF044628B90AF034
:1040700093F909230360204610BD0368DB69984764
:10408000041EF8DA0AF088F9644204600024F2E7BA
:104090001FB504220C4640230DEB020101900DF1E7
:1040A00009008DF808300AF0DBFB214602A808F071
:1040B00035FD044630B10198FFF7D4FF10B120461A
:1040C000FFF7DBFE204604B010BDFFF7CBBF38B5CD
:1040D0000C461546FFF712FF38B90AF05DF90923BF
:1040E00003604FF0FF34204638BD036821461B694A
:1040F0002A469847041EF6DA0AF04EF96442046034
:10410000EFE7FFF7E4BF38B50D46FFF7F7FE0446CB
:1041100030B90AF041F9092303604FF0FF3038BD90
:104120000368DB699847002814BF4FF400534FF42D
:1041300000436B60236820469B6A984728610020F3
:1041400038BDFFF7E0BF04F0AFB90000034610B57B
:1041500053F8042B044602B9036022689A4204D043
:104160005E220349034803F0F3F9206810BD00BF45
:1041700053B40108B2B4010810B504460948FFF76A
:10418000E5FF0023084A194652F82300A04208BF61
:1041900042F823100133402BF6D10248FFF7D6FF37
:1041A00010BD00BF642D00205805002010B50F4839
:1041B000FFF7CCFF0E4B032453F824206AB10134DF
:1041C000402CF9D10AF0E8F8182303600748FFF7FC
:1041D000BDFF4FF0FF34204610BD4FF0FF320348C3
:1041E00043F82420FFF7B2FFF5E700BF642D00205D
:1041F0005805002010B50446FFF7D8FF0028A4BFDB
:10420000014B43F8204010BD5805002070B506460C
:104210000C46FFF7EFFF054690B12146FFF738FF48
:10422000044630B9074B53F82520964203D143F892
:104230002500204670BD0AF0AFF809230360F8E7B7
:104240000446F6E7580500200EB42DE9F04185B08C
:104250000546FFF7ABFF041E13DB0023294602A827
:10426000019303F0D9FD02A803F028FE1B4D06467A
:1042700068B90AF091F81323036045F824604FF001
:10428000FF34204605B0BDE8F04103B0704702A8F6
:1042900003F002FE074602A837B103F006FE0190C4
:1042A000019B45F82430ECE703F0EDFD06460028BD
:1042B000DFD0036802A8D3F8088003F0D9FD0B9B78
:1042C000024601A93046C04706460028E8D00AF059
:1042D00063F87642066045F82470D0E75805002060
:1042E00073B50E46184905460AF09AF8044620B9F7
:1042F000FFF704FE204602B070BD144928460AF0BC
:104300008FF820B90120FFF7F9FD0124F2E71049E9
:1043100028460AF085F820B90220FFF7EFFD0224B5
:10432000E8E72B78402B07D10422691C0DEB020033
:104330000AF096FA019CDDE726F400412846FFF7D3
:1043400083FF0446D6E700BFE0C00108E7C00108CC
:10435000D8C0010870477047074B08499A68084859
:1043600010B5043A52F8044F41F8044F8142F9D194
:104370004FF000529A6010BD00ED00E0FCFFFF1FFF
:10438000C001002008B5FFF7E7FFFFF7A1FCFFF72A
:10439000E2FF08BD08B5FFF7DDFFBDE80840FBF709
:1043A000B1BF30B5C36891FAA1F4B4FA84F491FABC
:1043B000A1F10325B1FA81F1640005FA04F4490082
:1043C00023EA040302FA01F11943C16030BD012A56
:1043D00002D0022A18BF0022FFF7E3BF2DE9F04107
:1043E0000E46411C044604D13E224449444803F091
:1043F000AFF804F00F08434BC4F3031053F82850F0
:10440000FFF744F906F007070446836895FAA5F11B
:10441000B1FA81F195FAA5F20320490000FA01F101
:10442000B2FA82F223EA01035200022101FA02F2F7
:104430001343A36087425AD8DFE807F05E1D021DD0
:10444000B8F1070FC6F303203BD9626A2B0A93FA2F
:10445000A3F1B1FA81F193FAA3F34FF00F0EB3FA7F
:1044600083F389000EFA01F19B0022EA010200FAAF
:1044700003F3134363623B46226895FAA5F0B0FA52
:1044800080F095FAA5F14FF0030EB1FA81F14000EA
:104490000EFA00F0490022EA00028B40013F13436C
:1044A000012F236005D8636832074CBF2B43AB4311
:1044B0006360C6F3011229462046BDE8F041FFF7CC
:1044C00086BF226A95FAA5F3B3FA83F395FAA5F1AC
:1044D0004FF00F0EB1FA81F19B000EFA03F3890041
:1044E00022EA030200FA01F313432362C3E76722BF
:1044F0000249054803F02CF80023BDE782B5010806
:10450000EFB30108F0C00108ABBA0108431C70B555
:1045100006460D4604D188221B491C4803F018F8B2
:1045200006F00F021A4BC6F3031053F82240FFF7B0
:10453000ADF804FB04F2016802EB42030B40B3FB4D
:10454000F2F3013B012B05D8EB1E022B436809D87F
:1045500023434360032D08D101222146BDE870406A
:10456000FFF735BF23EA04034360012DF4D0052D86
:1045700001D0022D01D10222EFE721460022BDE841
:104580007040FFF70EBF00BF82B50108EFB301080E
:10459000F0C0010870B5A6B03422002102A809F0CD
:1045A0002FFB5C2200210FA809F02AFB2A4B1D6873
:1045B000002D4FD1294C019501261E60236C43F03C
:1045C00080532364236C03F080530193019B00F01C
:1045D0005DFC042302A802930895049600F0C0FF36
:1045E00010B11F4803F044FDA36823F4F813A3603F
:1045F000A36823F4F813A360236F43F48073236745
:1046000020230F930FA84FF480731F9300F058FDE1
:1046100010B1144803F02CFD134B144801221A600A
:10462000134B036003220023826041F6FF7243773D
:104630004360C26003614361836101F05EF910B1C0
:104640000C4803F015FD094801F089FA10B10A4839
:1046500003F00EFD26B070BD802D00200038024012
:10466000DAB50108FAB501083C0E4742842D002056
:104670000028004023B601083DB60108F0B51F4BE5
:104680001F491C681F4A5D688BB00C4015401E46D0
:104690000F461868084084422BD158681040854264
:1046A00027D105F03F0001F051FA0490C5F3042032
:1046B00001F04CFA01380590280C01F047FA44301B
:1046C0000690C4F3054001F041FA0390C4F30620BC
:1046D00001F03CFA029004F07F0001F037FA012269
:1046E0000190694601A802F051FF00B100980BB09B
:1046F000F0BD346875683C401540CAE700280040AA
:104700007F7F7F003FFFFF00024BD868C0F300109F
:10471000704700BF00280040214B224A2DE9F0419C
:104720001D691C689E6AC5F30E051440184617469D
:10473000196811408C422ED1996A8E422BD1C4F354
:10474000054001F003FA0746C4F3062001F0FEF924
:10475000804604F07F0001F0F9F9134A13493C2325
:1047600013FB08004FF4616303FB07001368146830
:1047700098420B683CBF03F5A83303F5C0731B1BBD
:1047800003440B6010600868013DC00305EB900016
:10479000801BBDE8F0810468866A3C40C8E700BF22
:1047A000002800407F7F7F007C2D0020782D002096
:1047B00030B591B000211422044602A8019109F0FD
:1047C0001FFA03F0EDF82A4B2A4A1A6007A90122C2
:1047D000204602F02BFF002848D00D9B03B9072389
:1047E0008DF804300B9B01338DF805300A9B8DF852
:1047F00006300C9B443B8DF80730099B8DF8083040
:10480000089B8DF809300024079B8DF80A308DF83D
:104810000B4005940694FFF77FFF9DF809109DF863
:104820000A2013483C2313FB01229DF808304FF463
:10483000616101FB0323104A13600E4B224601A95C
:104840009D6A01F0B3F810B10C4803F011FC00228E
:1048500002A9074801F00AF910B1094803F008FC61
:10486000044A936A9D42FCD103F0B0F811B030BD08
:10487000842D0020002800407C2D002056B6010821
:104880006DB601080FB407B5064B07491B6805AAAA
:10489000D868019206F074F803B05DF804EB04B038
:1048A000704700BFEC07002084B601084368094A3E
:1048B0009B0182B0D3581A68120706D500220192D4
:1048C0001A6801925A680192019A1868C0F3401060
:1048D00002B07047D03000204368034A9B01D35890
:1048E0001868C0F3C0107047D030002042681449E7
:1048F000920110B404685450531882685A60C26818
:104900009A600269DA6042691A61026A9A61002259
:10491000DA84DA619A84DA859A85B0F91A2001324C
:1049200006D108225A6118465DF8044B01F0B1BE69
:10493000B0F9182001320CBF04220C22F2E700BFAC
:10494000D030002010B581600C46FFF7CFFF28B1B2
:1049500021460348BDE81040FFF794BF10BD00BFDB
:1049600084B60108124B984217D0A3F54C439842E5
:1049700015D003F58063984213D003F58063984205
:1049800011D003F5806398420FD003F54443984259
:104990000CBF05204FF0FF3070470020704701200A
:1049A000704702207047032070470420704700BF03
:1049B00000100140F0B50E4687B004465B49304612
:1049C000154602F037FC5A490746284602F032FCE9
:1049D0000146384602F008FC2060013004D13D2237
:1049E0005449554802F0B4FD022E0CD0032D0AD0D4
:1049F0004E49022002F01EFC874202D14F4803F0CC
:104A000037FB002700E001274D4B206898424FF00C
:104A100000031AD100934B4B5A6C42F010025A64B7
:104A20005B6C03F010030093009B474B984229D125
:104A300000230593434B5A6C42F020025A645B6C8E
:104A400003F020030593059B1CE0404A90420BD1E4
:104A500001933C4B1A6C42F400321A641B6C03F451
:104A600000330193019BE0E7394A904240D1029321
:104A7000344B1A6C42F480221A641B6C03F48023BA
:104A80000293029BFFF76EFF0028606004DAA42205
:104A90002849304802F05CFD2449304602F080FB92
:104AA0002349284602F07CFB721C03D001213046CA
:104AB000FFF72CFD6B1C03D001212846FFF726FDD4
:104AC0004FF41653A3600023E36023616361236204
:104AD000268365832046FFF709FF3FB11E4B1F4821
:104AE00001221A6021464C2209F0BAFE07B0F0BD3F
:104AF0001B4A90420BD10393124B1A6C42F40022D2
:104B00001A641B6C03F400230393039BBAE7154A52
:104B100090428AD104930B4B1A6C42F480121A64AF
:104B20001B6C03F480130493049BABE750BF010894
:104B3000D8BE0108AEB601080AB7010826B70108B9
:104B400000100140003802400014014000440040C1
:104B5000004800405BB70108A42D002084300020ED
:104B6000004C004000500040002808DB42090123AF
:104B700000F01F0003FA00F0014B43F822007047D9
:104B800000E100E000280DDB4309012200F01F00D6
:104B900002FA00F02033044A42F82300BFF34F8F9B
:104BA000BFF36F8F704700BF00E100E0F7B5FFF77C
:104BB000D9FE071E26DB144E56F8270010B3134CFF
:104BC000BD0163591A68120606D5DB68190603D5BC
:104BD0000F4B01211B68984763591A68920608D544
:104BE000DB68980605D50A4B56F827001B6800219C
:104BF000984763591A68110704D55A69D20744BF08
:104C00005B68019303B0F0BDAC2D0020D0300020D4
:104C1000A82D00200148FFF7C9BF00BF00140140C4
:104C20000148FFF7C3BF00BF005000400148FFF735
:104C3000BDBF00BF004C00400148FFF7B7BF00BF39
:104C4000004800400148FFF7B1BF00BF00440040EA
:104C50000148FFF7ABBF00BF00100140034B1960D4
:104C60004168034B43F82120704700BFA82D002066
:104C7000AC2D002030B490E818002C48834233D08B
:104C80000AD8A0F50060834228D000F580608342F6
:104C900027D0002318460FE0254883420AD000F5AC
:104CA0008060834223D0A0F544408342F1D1214B60
:104CB000352001E0204B2520204DA401FAB1C9B9CF
:104CC0002959CA6842F02002CA601D4A00F1100149
:104CD000926830BC42F82130FFF746BF194B2620BE
:104CE000EAE7194B2720E7E7184B3420E4E7184B95
:104CF0004720E1E72959CA6842F08002E4E72B59CE
:104D0000DA6849B922F02002DA60DB6813F0800F1C
:104D100009D130BCFFF736BF22F08002DA60DB68D1
:104D200013F0200FF4E730BC704700BF004C004088
:104D300000100140214C0008514C0008D0300020E8
:104D400000ED00E0454C0008394C00082D4C0008EF
:104D5000154C000838B5446805462846FFF7A6FDFF
:104D60000028FAD0A401034B1B595868C0F308006F
:104D700038BD00BFD030002070B5456806460C46EF
:104D80003046FFF7A9FD0028FAD0AD01024B5B5970
:104D9000C4F308045C6070BDD030002008B50E4A32
:104DA000C36D934214D008D8A2F5806293420FD00D
:104DB0000A4803F05DF9002008BD094A934203D078
:104DC00002F580629342F3D1BDE8084000F04AB991
:104DD000BDE8084000F036B9003C00406DB701085E
:104DE00000300140DFF830D0002103E00B4B5B586E
:104DF000435004310A480B4B42189A42F6D30A4AF0
:104E000002E0002342F8043B084B9A42F9D301F038
:104E10001FFEFBF721FA704700000220143502083C
:104E2000C8010020680D0020680D00209832002085
:104E3000FEE7704708B50B4B1A6842F400721A601F
:104E40001A6842F480621A601A6842F480721A602A
:104E5000032000F009F80F20FEF7B8FEFFF7E9FF86
:104E6000002008BD003C0240074AD36823F4E063F9
:104E70001B041B0C43F0BF63000243F4003300F437
:104E8000E0600343D360704700ED00E0014B012276
:104E90001A60704720000E4237B500230193184B6B
:104EA000184C1A6C42F080521A641B6C03F0805349
:104EB0000193019B144B01221A60FEF78DFE0546FB
:104EC0006368DA030BD5114B0E4C01221A60FEF712
:104ED00083FE054663689B030AD5002006E0FEF7C3
:104EE0007BFE401BB0F57A7FEAD9032003B030BDCA
:104EF000FEF772FE401BB0F57A7FEBD9F5E700BFF5
:104F0000003802400070004040000E4244000E4253
:104F10002DE9F0410D46044610B90120BDE8F081AD
:104F2000444B1A6802F00F028A4228D321688F0787
:104F30002DD4C80740D43F4B1A6802F00F029542A7
:104F400066D3226851076CD4130707D53A4A216902
:104F5000936823F4604343EAC103936000F0B8FA16
:104F6000354B364A9B68C3F30313D35CD840344BAC
:104F700018600F20FEF72AFE0020BDE8F081CAB2BB
:104F80001A701B6803F00F039942C6D1CEE72A4B73
:104F900011F0040F1EBF9A6842F4E0529A600E07A7
:104FA00042BF9A6842F460429A609A68A06822F010
:104FB000F00202439A60BCE762681F4B012A1DD1D0
:104FC0001B6813F4003FA8D01B4EB36823F0030303
:104FD0001343B360FEF700FE41F288380746B3681A
:104FE000626803F00C03B3EB820FA4D0FEF7F4FD6C
:104FF000C01B4045F3D90320BDE8F081911E012973
:105000001B6802D813F0007FDDE713F0020FDAE728
:10501000EAB21A701B6803F00F039D427FF47DAF64
:105020008FE70549E0688B6823F4E05303438B6006
:105030008AE700BF003C02400038024040C101083E
:105040005C060020044B054A9B68C3F38223D35CB3
:10505000034A1068D84070470038024050C1010828
:105060005C060020044B054A9B68C3F34233D35CC3
:10507000034A1068D84070470038024050C1010808
:105080005C0600200F2303600B4B9A6802F00302BA
:1050900042609A6802F0F00282609A6802F4E0527C
:1050A000C2609B68DB0803F4E0530361034B1B6899
:1050B00003F00F030B60704700380240003C0240D1
:1050C00003682DE9F74313F0010604460BD0AA4903
:1050D000866BD1F88C2022F0C0623243B6FA86F695
:1050E000C1F88C2076099D070BD5A348E16BD0F859
:1050F0008C2022F0C0520A430029C0F88C2008BF3F
:10510000012613F0040512D09B49256BD1F88C20A1
:10511000B5F5801F22F4401242EA050218BFB5FA25
:1051200085F5C1F88C2012BF6D09002501261807EE
:105130000FD59148616BD0F88C2022F440020A43CD
:10514000B1F5800FC0F88C2000F00981002908BF5C
:105150000125990633D500230193874B874F1A6C9D
:1051600042F080521A641B6C03F080530193019B40
:105170003B6843F480733B60FEF72EFD80463B683E
:10518000DA0540F1EE807C4F3B6F13F4407340F042
:10519000FB80236C03F44072B2F5407F764A40F006
:1051A0001681916823F0704021F4F81120F44070CA
:1051B00001439160116FC3F30B030B431367236823
:1051C000D90642BF6E4B94F858201A6023681A061D
:1051D00008D56949E06CD1F8942022F440020243DA
:1051E000C1F894205F0608D56349A06CD1F89420DB
:1051F00022F080620243C1F89420D8050CD55E48A5
:10520000616DD0F8942022F000620A43B1F1006F82
:10521000C0F8942008BF0125990508D55649606C4F
:10522000D1F8942022F080520243C1F894205A050C
:1052300000F1D180012E40F0DC80524E4E4F002311
:105240003360FEF7C9FC80463B681B0100F12581F5
:105250002268D00701D5A36B1BB1910715D5E36B6D
:105260009BB94549D1F88430D1F8840003F4403328
:1052700000F07060034360680343A06843EA801352
:10528000606943EA0073C1F88430530703D5236B88
:10529000B3F5801F05D0170720D5636BB3F5800FDA
:1052A0001CD13549D1F88430D1F8840003F440335F
:1052B00000F0E040034360680343A06843EA8013C2
:1052C000206943EA0063C1F88430D1F88C00A36AF6
:1052D00020F01F00013B0343C1F88C3050051BD563
:1052E000236DB3F1005F17D123486768D0F88410AD
:1052F000D0F8843003F0E0433B43A768C1F3014199
:10530000013143EA871343EA4163E16849080139FF
:1053100043EA0143C0F88430110511D52369A2681E
:105320001B0643EA821362681343626943EA02730D
:10533000E2685208013A43EA02430F4AC2F8843055
:1053400001233360FEF748FC0B4E074633681A0111
:1053500053D4FEF741FCC01B0228F7D908E0012610
:10536000F7E6FEF739FCA0EB080002287FF607AF4E
:10537000032003B0BDE8F083003802400070004015
:10538000E011474268004742226C02F440729342A7
:105390003FF4FFAE3B6F4B4A0121116023F4407391
:1053A000002111603B673B6FDB077FF5F2AEFEF734
:1053B00013FC41F2883980463B6F98073FF5E9AE10
:1053C000FEF70AFCA0EB08004845F5D9D0E7916844
:1053D00021F4F811EDE63C48216DD0F8942022F03C
:1053E00000520A43B1F1005FC0F894207FF422AF6D
:1053F00023E7B3F5006F3FF420AF012D4BD1334DC0
:10540000314E00232B60FEF7E7FB074633689B0015
:105410004BD421684E0701D5236B1BB108071AD561
:10542000636BC3B9284AA069D2F8883003F44033CB
:105430000343E06943EA8013606A43EA0063C2F809
:105440008830D2F88C30E06A23F4F853013843EA0C
:105450000023C2F88C30CA0514D5636DB3F1006F18
:1054600010D11949A269D1F8883003F07063134351
:10547000E26943EA8213226A5208013A43EA02438C
:10548000C1F8883001232B60FEF7A6FB0E4C0546C1
:1054900023689B000FD500206BE7FEF79DFBA0EB78
:1054A000080002287FF6D0AE62E7FEF795FBC01B2E
:1054B0000228ABD95CE7FEF78FFB401B0228E7D937
:1054C00056E700BF400E4742003802407000474296
:1054D000204908B58B6803F00C03082B07D00C2B70
:1054E00020D01D4A1D48042B18BF104608BD4A682D
:1054F0004B68496813F4800314BF18481648C1F379
:10550000881118BF002302F03F02A1FB000113F035
:105510008DF9104B5B68C3F3014301335B00B0FBB3
:10552000F3F008BD4A684B68496813F4800314BF60
:105530000A480948C1F3881118BF002302F03F024E
:10554000A1FB000113F072F9024B5B68C3F3027315
:10555000E5E700BF003802400024F40000127A00A2
:1055600003682DE9F341DF07044610D423689E0742
:1055700067D423681A0700F1B28023685B0700F143
:10558000D080A269002A40F0398100201EE0974BAC
:105590009A6802F00C02042A10D09A6802F00C02F9
:1055A000082A02D15B685D0208D4904B9A6802F029
:1055B0000C020C2A0DD15A6850020AD58B4B1B687D
:1055C0009903D3D56368002BD0D1012002B0BDE888
:1055D000F0816268B2F5803F11D11A6842F48032DE
:1055E0001A60FEF7F9FA814D06462B689A03BDD47E
:1055F000FEF7F2FA801B6428F7D90320E6E77B4D1B
:10560000B2F5A02F2B6807D143F480232B602B68C1
:1056100043F480332B60E4E723F480332B602B6862
:1056200023F480232B60002ADBD1FEF7D5FA06464F
:105630002B689B039AD5FEF7CFFA801B6428F7D915
:10564000DBE76A4B9A6812F00C0F10D09A6802F0F0
:105650000C02082A02D15B685F0208D5634A93688E
:1056600003F00C030C2B11D153685E020ED45F4B78
:105670001A68950702D5E268012AA6D11A6821693D
:1056800022F0F80242EAC1021A6072E7E268584B5F
:10569000B2B101221A60FEF79FFA544D06462B68FC
:1056A000980707D52B68226923F0F80343EAC20361
:1056B0002B605EE7FEF790FA801B0228EFD99CE78B
:1056C0001A60FEF789FA494D06462B6899077FF55F
:1056D00050AFFEF781FA801B0228F6D98DE7626988
:1056E000444B7AB101221A60FEF776FA3F4D064626
:1056F0006B6F9F073FF541AFFEF76EFA801B0228E4
:10570000F6D97AE71A60FEF767FA384D06466B6FEE
:1057100098077FF532AFFEF75FFA801B0228F6D9B3
:105720006BE7324B1A6C12F0805228D101921A6C3E
:1057300042F080521A641B6C03F080530193019B6A
:1057400001262D4D2B68D9051BD5A368274D012BAC
:1057500027D12B6F43F001032B67FEF73DFA234D52
:10576000074641F288382B6F9B0739D5002E3FF44E
:1057700008AF1E4A136C23F08053136401E7002620
:10578000DFE72B6843F480732B60FEF725FA0746AA
:105790002B68DA05D9D4FEF71FFAC01B0228F7D907
:1057A0002BE7052B04D12B6F43F004032B67D0E7C5
:1057B0002A6F22F001022A672A6F22F004022A6768
:1057C000002BCAD1FEF708FA41F2883807462B6F42
:1057D0009807CBD5FEF700FAC01B4045F7D90CE778
:1057E000FEF7FAF9C01B4045BDD906E70038024074
:1057F00000004742800E474200700040234DAB68D6
:1058000003F00C03082B3FF4E0AE214E0023022AE4
:1058100033602DD1FEF7E0F907462B68990121D4BA
:10582000226AE3691343626A43EA8213E26A43EA43
:105830000263226B43EA0273A26A144C5208013AD3
:1058400043EA02436B6001233360FEF7C5F9054666
:1058500023689A013FF599AEFEF7BEF9401B022876
:10586000F6D9CAE6FEF7B8F9C01B0228D5D9C4E6B6
:10587000FEF7B2F904462B689B017FF586AEFEF772
:10588000ABF9001B0228F6D9B7E600BF003802408A
:10589000600047427047026838B5D36823F0A00320
:1058A000D3600446FEF798F905462368DB689B063B
:1058B00001D5002038BDFEF78FF9401BB0F57A7F87
:1058C000F3D9032038BD38B50368DA6852060446B8
:1058D00001D5002038BD4FF0FF32DA60FEF77CF9C9
:1058E00005462368DB685B06F3D4FEF775F9401BB9
:1058F000B0F57A7FF5D9032038BD38B50446B8B184
:10590000437F03F0FF0213B90277FFF7C3FF0223BF
:1059100063772368CA225A6253225A622046FFF7ED
:10592000D2FF2368054628B1FF225A620423637719
:1059300001252EE09A68206922F4E00222F040025C
:105940009A60626899680243606902430A439A60F8
:10595000E2681A611A69A16842EA01421A61DA68CA
:1059600022F08002DA609B689B0605D42046FFF790
:1059700092FF08B12368D7E72368A1691A6C22F463
:1059800080221A641A6C0A431A64FF225A620123A5
:105990006377284638BD0023092803D840EA03105E
:1059A000C0B270470A380133C0B2F5E7F8B5037FDB
:1059B000012B05464FF0020630D0012303774677CE
:1059C0004B78C8788E780C78002A48D1DA0603D54F
:1059D00023F010030A334B70FFF7DDFF07464878CA
:1059E000FFF7D9FF02463046FFF7D5FF40EA4430C3
:1059F00040EA074040EA02242B68CA225A62532236
:105A00005A622846FFF75FFF2B68064640B1FF2227
:105A10005A6204236B7700232B7701263046F8BDAA
:105A200024F07F4424F0C0045C60DA6822F0800235
:105A3000DA609B689B060AD42846FFF72CFF30B13A
:105A40002B68FF225A6204236B772E77E5E72B68D9
:105A5000FF225A6201236B7700232B77DEE71B02BC
:105A600043EA0040304340EA4434C5E7F8B5037FD9
:105A7000012B06460F464FF002052FD00123037776
:105A80000368457708784D788C789B6842BB13F0A3
:105A9000400308BFCB70FFF77EFF01462846FFF7A3
:105AA0007AFF02462046FFF776FFFB7840EA034084
:105AB00040EA014040EA02243368CA225A62532273
:105AC0005A623046FFF7FFFE33680546A8B1FF2251
:105AD0005A62042373770023337701252846F8BDE3
