:020000040800F2
:10000000000002209D4F0008E94F0008E94F00085A
:10001000E94F0008E94F0008E94F00080000000020
:10002000000000000000000000000000E94F000890
:10003000E94F000800000000E94F0008E94F000800
:10004000E94F0008E94F0008E94F0008E94F0008B0
:10005000E94F0008E94F0008E94F0008E94F0008A0
:10006000E94F0008E94F0008E94F0008E94F000890
:10007000E94F0008E94F0008E94F0008E94F000880
:10008000E94F0008E94F0008E94F0008D53700089C
:10009000D9370008E94F0008C9370008E94F0008C0
:1000A000E94F0008E94F0008E94F0008E94F000850
:1000B000E94F0008E94F0008E94F0008E94F000840
:1000C000E94F0008E94F0008E94F0008E94F000830
:1000D000E94F0008E94F0008E94F0008E94F000820
:1000E000E94F0008E94F0008E94F0008E94F000810
:1000F000E94F0008E94F0008E94F0008E94F000800
:10010000E94F0008E94F0008E94F0008E94F0008EF
:10011000E94F0008E94F0008E94F0008E94F0008DF
:10012000E94F0008E94F0008E94F0008E94F0008CF
:10013000E94F00080000000000000000E937000857
:10014000ED370008E94F0008DD370008E94F0008E7
:10015000E94F0008E94F0008E94F0008E94F00089F
:10016000E94F0008E94F0008E94F0008E94F00088F
:10017000E94F0008E94F0008E94F000800000000BF
:1001800000000000E94F000800000000000000002F
:10019000E94F00080000000000000000E94F0008DF
:1001A000000000000000000000000000E94F00080F
:1001B000E94F0008E94F0008E94F0008E94F00083F
:1001C000E94F000810B5054C237833B9044B13B13F
:1001D0000448AFF300800123237010BD50100020AD
:1001E00000000000AC91010808B5034B1BB10349A6
:1001F0000348AFF3008008BD000000005410002049
:10020000AC910108A3F5803A704700BF174B002B53
:1002100008BF134B9D46FFF7F5FF00218B460F46A5
:100220001348144A121A09F001FC0E4B002B00D09F
:1002300098470D4B002B00D0984700200021040068
:100240000D000D48002802D00C4803F0DCFE09F038
:10025000ABF92000290004F079F903F0D1FE00BFCA
:1002600000000800000000003D45000800000220DA
:100270005010002058310020074000080000000006
:1002800008B5164C16491748174D08F071F917496B
:10029000144808F06DF922461549124808F085F90E
:1002A0001449104808F064F911490E482A4608F02C
:1002B0007CF90C4808F04AF90F492B782278094854
:1002C00008F056F9207800F0B7F82978207800F087
:1002D00005FD00F003F900F02DFDFAE7CC01002048
:1002E000D4620108E02300206C1000201B63010889
:1002F0003263010837630108546301080FB407B57E
:10030000064B04AA1B6852F8041BD86801920DF032
:100310003DFD03B05DF804EB04B070477C0600209F
:1003200008B5074B1A78074B1B789A4205D1064847
:100330001146FFF7E3FF012008BD0020FCE700BFE6
:10034000CD0100200B1200206E630108024B1870D3
:10035000062000F07FBA00BF6F10002038B50546B8
:10036000FFF7DEFF0128044605D105482946FFF7BF
:10037000C5FF204638BD034B00241D70F9E700BFC0
:10038000AD6301080B12002070B50D4E0D4D337892
:10039000834228BF03461A460B4829461C4609F0EB
:1003A0002FFA3278094B121BD2B21C7032702AB16C
:1003B0002919284609F024FA012070BD1046FCE7EF
:1003C000711000200C16002072100020071200206F
:1003D00038B5054610460C46FFF7C0FF012808D186
:1003E000072000F053FA20B1BDE83840072000F0A4
:1003F0004DBA192C2246294609D80B4809F000FAB3
:100400000A4B1C70BDE83840042000F023BA0848AD
:1004100009F0F6F9074B1A201C70FFF7B5FF07200B
:1004200000F018FAEEE700BF72100020071200205B
:100430000C1600207110002010B50A4B0A4C002247
:100440001A70207000F01CFAFFF76AFF207800F0A5
:1004500089FA064800F0A2FDBDE81040044800F00B
:10046000A3BD00BF0B120020CD010020D103000866
:100470004D0300082DE9FF41164D1F4695F80080F9
:10048000154B144698440E4600F0E2F92246014608
:10049000404609F0B5F92A78023A1444E4B2012F33
:1004A0002C7003D09DF82830012B10D100F09AFA5F
:1004B000039000F091FA039B0090224606483146D3
:1004C00000F046FD0020287004B0BDE8F081012056
:1004D000FAE700BF701000200C1200202DE9FF4742
:1004E000B44BB54C1A782578AA4218BF1D70012D5F
:1004F00000F0A580022D00F0C580002D40F056814F
:10050000062000F0C3F978B1AC4B187800F046FA39
:10051000B0FA80F0400900F034FD2570062004B0E8
:10052000BDE8F04700F0A0B9032000F0AFF998B3A0
:1005300000F042FA064600F045FA054600F046FA99
:10054000029000F055FA0746284600F05EF9C0B266
:100550000090029A3B4631462846FFF78BFF1FB1B9
:10056000002323700320DAE7284600F06FF9944A4D
:100570001378984208BF431C284608BF137000F048
:1005800065F901468F4800F04AF932468D4803214B
:1005900000F0FAF90123E4E7042000F077F938B31A
:1005A000874D894B2A781B7803920720029300F02D
:1005B0006DF9B0FA80F04009DDE90232834900901C
:1005C0008348844E00F032F9834B3278187001462C
:1005D0007F4800F0D9F93378FF2B1EBF2B78013309
:1005E0002B707E4B00221A7001232370042096E7A3
:1005F000072000F04BF950B1042000F02BF91A202D
:10060000FFF7C2FE002840F0D180072087E700F006
:100610003DF908B1002082E7012000F037F908B168
:1006200001207CE700F032F908B1022077E70520CD
:1006300000F02CF9002800F0B98005206FE728466B
:1006400000F024F9064650B100F0F2F9012803D079
:10065000052000F01BF900B102202070E0E700F057
:1006600015F9002800F0A2805A4B1B78FF2B04D10B
:100670002846267000F082FCCCE70223237000F0AD
:1006800017FAC7E7284600F001F90546D0B100F097
:1006900099F905464E4800F0D9F80646284600F07C
:1006A000D5F8864207D100F0B7F900230120237066
:1006B00000F064FCB9E7464800F0C8F8284600F0AE
:1006C000C5F8B2E7052000F0E1F8E0B1434E337819
:1006D000092B0BD93E4800F0B9F801464048FFF716
:1006E0000DFE2846257000F049FCA6E7394B384836
:1006F0001A78394B197800F047F9337801333370A1
:100700000123237099E7032000F0C0F8002842D0AD
:1007100000F052F9074600F055F9054600F056F989
:10072000814600F065F90646284600F06EF85FFA4B
:1007300080F8EEB1CDF8008033464A463946284667
:10074000FFF798FE002E7FF40BAF284600F07EF8EE
:100750001B4A1378984208BF431C284608BF1370F1
:1007600000F074F80146174800F059F83A460DE7D2
:10077000DFF84CA0284600F069F89AF80030834270
:10078000D8D0284600F062F89AF8002001461548B3
:10079000FFF7B4FDD9E700F079F800287FF43AAF0D
:1007A000012000F073F800287FF43AAF04B0BDE8F0
:1007B000F08700BF6E1000206D1000206F10002029
:1007C000081200203A1100200712002072100020A9
:1007D0003F1100200B120020091200200A120020F5
:1007E000D263010810640108024B1A78024B1A7098
:1007F000704700BF6D1000206E1000200078013897
:1008000001288CBF0020012070470078431E584209
:10081000584170470078B0FA80F0400970470023D3
:1008200003700123417083700320704710B51C468C
:100830009DF808304270012B18BF02230370224636
:10084000023008F0DDFFA01CC0B210BD4078704738
:1008500002307047034A012303FA00F0136818437B
:10086000106070470C1A0020044901220B6802FA3C
:1008700000F023EA00030B60704700BF0C1A002051
:10088000014B00221A6070470C1A0020012303FA62
:1008900000F0024B1B681840704700BF0C1A002084
:1008A000054B1B785A1E012A02D80020FFF7D2BF41
:1008B0000BB90120FAE77047111A0020F8B5074676
:1008C0000C4615461E4609F06FF907EE900AFAEE3F
:1008D000E07AF5EEC07AF1EE10FA21DD2A462146E3
:1008E000104808F08DFF104B1F70104B1D7002F068
:1008F0008BFE0F4B187002F081FE0E4B18800E4BD2
:1009000020461E70FFF77AFF20B10320BDE8F840B3
:10091000FFF7A0BF2046FFF77DFF08B10220F5E7F3
:10092000F8BD00BF141A0020131A0020481A002036
:10093000121A0020461A0020101A00200FB407B522
:10094000064B07491B6805AAD86801920DF01EFAEC
:1009500003B05DF804EB04B0704700BF7C060020D4
:100960005C64010810B50446002007F0B1FC09F0F2
:1009700013F92046024A0349BDE8104002F0E0BDE9
:10098000BD080008A108000810B5044602F0FAFDF1
:10099000014B22781A7010BD111A002010B502F018
:1009A00039FE044618B101460248FFF7C7FF20464A
:1009B00010BD00BF5C640108014B1878704700BF90
:1009C000131A002000487047141A0020014B1878B1
:1009D000704700BF481A0020014BB3F90000704770
:1009E000461A0020014B93F900007047121A0020AC
:1009F000014B1878704700BF101A00200368184791
:100A00000B68036070477047024B002205201A7084
:100A1000FFF720BF491A002008B5034806F01FFB66
:100A2000024B00221A7008BD501A0020491A0020FB
:100A3000014B1878704700BF491A0020C36810B5F1
:100A400004460BB19B689847204610BD38B5054653
:100A5000064B45F8283B044606F001FB2846FFF705
:100A6000EDFF204606F0C6FA204638BD6084010836
:100A700010B50446FFF7EAFF204603F041FC20468C
:100A800010BD000010B5034B03600446FFF7DEFF06
:100A9000204610BDD484010838B5CB6804460D4605
:100AA0000BB15B689847EB68E360204638BD0000F7
:100AB00030B589B009F078F8102204460021684664
:100AC00008F0B4FF204B00936946204B039304A821
:100AD000FFF7E2FF032094FBF0F000EB4000241A44
:100AE0000234E4B207EE904A9FED197AF8EE677A85
:100AF00067EE877A17EE900A14F0E0FB05460C4685
:100B000007F02AF8134B5A6B22B993F838300BB11F
:100B100006F0BAFD1048FFF791FF04A90E48FFF751
:100B2000BBFF2A4623460B4806F081FA07F02AF855
:100B300004A8FFF783FF6846FFF780FF074B0122F9
:100B40001A7009B030BD00BF090A0008906401089E
:100B500000247449501A0020781A0020491A0020F5
:100B600010B50446FFF78EFF204603F0C9FB204670
:100B700010BD000010B50C4C204606F013FA2046BC
:100B80000A4B40F8283B1022002108F04FFF0123B8
:100B900084F83830064B23602046064A0649BDE8F3
:100BA000104003F02BBA00BF501A002060840108E7
:100BB000D4840108C8010020850A000838B51C4803
:100BC0001C4D07F0C3FC2B78044633B9C2B21A4956
:100BD000174807F0CDFC01232B70042000F0AEF97C
:100BE000E0B9E0B2154C0A28226801D00D2816D1D0
:100BF00092B1134B134D14482A7000219954194691
:100C0000D2B208F0FDFD042000F082F90C4B2A78E6
:100C10000E49074807F0ACFC0023236038BD40F2C2
:100C200004439A429FBF531C2360054B9854F5E739
:100C3000E0230020901A00209C640108941A0020F0
:100C40001C1F00205728002051240020E0640108C8
:100C50002DE9F041194C1A4D2268531C06D02B681F
:100C60009A4209D11749184807F082FC4FF0FF3328
:100C700023602B60BDE8F0811449134807F078FC2D
:100C8000134B144893F800C027680678124A0023D3
:100C900019469E4692F80080B84506D1674508BFC0
:100CA000012382F802E008BF1E460131042902F147
:100CB0001502EFD1002BD9D00670D7E7D401002060
:100CC000D00100200E650108E02300203E650108E8
:100CD0000B1F0020F41E0020FC23002030B50F4C19
:100CE0000F4D207085B0297010220021684608F051
:100CF0009DFE0C4B009369460B4B0C48039300225E
:100D000006F0A2FE6846FFF799FE2A782178084887
:100D100005B0BDE8304008F0F1BE00BF0B1F002059
:100D20000A1F0020BD0B0008906401082423002046
:100D30006E6501082DE9FF41664C674D23782A78DE
:100D4000664F934226D06649664807F011FC237827
:100D5000032B46D13B78012B4FF010024FF00001DE
:100D6000684641D008F062FE5F4B00935F4B0393EF
:100D70005F480022694606F067FE6846FFF75EFEA0
:100D80002378032B04D12B78072B01D1FFF760FFC9
:100D900023782B703B78012B19D02378032B16D1A5
:100DA000022000F0CBF890B100F0EEF8064600F01B
:100DB000EFF8012808D13378532B05D14D49494824
:100DC00007F0D6FB04232370022000F0ABF8237851
:100DD000092B58D8DFE803F00B10151A5F64696E11
:100DE000737810220021684608F020FEC0E704B0A6
:100DF000BDE8F04100F0D8BA04B0BDE8F04100F021
:100E00001BBB04B0BDE8F04100F048BB3A4A136890
:100E1000591C002B116003DC3849324807F0A8FB4D
:100E20002B78072B01D1FFF713FF3B78012B2DD136
:100E30002F4806F073FD48B32A4807F087FBC5B278
:100E40002F4928482A4607F093FB762D1ED12D49BD
:100E500024482D4EDFF8B48007F08AFB53238DF829
:100E600000300025B37843B132783B78934204D008
:100E7000D8F800300121684698470135042D06F165
:100E80001506EFD1257004B0BDE8F08104B0BDE8CF
:100E9000F04100F097B904B0BDE8F04100F0FABDB0
:100EA00004B0BDE8F04100F05BBC04B0BDE8F04127
:100EB00000F0A6BC04B0BDE8F04100F0D9BC04B01D
:100EC000BDE8F04100F04CBF04B0BDE8F04100F0D7
:100ED00091BF00BFF51E0020502400200B1F0020F2
:100EE0009A650108E0230020BD0B0008906401080A
:100EF00024230020BA650108981A0020F96501082A
:100F00001266010838660108FC230020A01A0020A0
:100F1000034A012303FA00F0136818431060704776
:100F20009C1A0020044901220B6802FA00F023EA0F
:100F300000030B60704700BF9C1A0020012303FAD6
:100F400000F0024B1B681840704700BF9C1A00203D
:100F500038B50C4601460648154608F051FC054BCD
:100F60001D70054B1C70BDE838400220FFF7D0BF54
:100F7000A81A0020A81E0020A91E00200520FFF7A7
:100F8000C7BF0620FFF7C4BF00487047A81A00205B
:100F9000014B1878704700BFA81E0020014B186055
:100FA000704700BFA01A0020014B1860704700BFB7
:100FB000A41A002010B50C4C204605F0F3FF204683
:100FC0000A4B40F8283B1022002108F02FFD012396
:100FD00084F83830064B23602046064A0649BDE8AF
:100FE000104003F00BB800BFB01E00206084010861
:100FF000D4840108C8010020850A0008012301707B
:1010000083700021FF234270C170037110220530EC
:1010100008F00CBD70B505464E1E4418002E0DDDBF
:1010200008F0C2FD731C90FBF3F101FB130314F8ED
:10103000012DE95C2170013EEA54EFE770BD00002C
:10104000F7B5002007F044F908F0A6FD01238DF85C
:101050000530042102238DF80630002403230DEB14
:1010600001008DF804408DF80730FFF7D3FF084FDB
:10107000084E01AD304615F8012B17F8011B01345D
:10108000FFF7BCFF042C06F11506F3D103B0F0BD49
:101090008C660108FC23002003289ABF024B53F8FA
:1010A00020000248704700BF7C6601085B660108AB
:1010B00010B5094B036003F1200280330446C0F8E9
:1010C000BC20C0F8C030BC3007F01AFA204606F049
:1010D000F5FC204610BD00BF0C850108A0F1BC0046
:1010E000E6E7A0F1C000E3E710B5FFF7A9FF144B56
:1010F000144800241C70144B1C70144B1C60144BBF
:10110000214640F206421C7008F090FC214640F255
:101110000642104808F08AFC214614220E4808F0C6
:1011200085FC0E4A0E490F484FF0FF3313600E4AFC
:1011300013600E4B1C70BDE8104007F019BA00BFD9
:10114000F51E00201C1F002050240020F01E00204F
:101150005728002051240020F61E0020D001002036
:1011600090660108E0230020D4010020F41E002036
:1011700010B50446FFF79CFF204603F0C1F8204657
:1011800010BDA0F1BC00F3E7A0F1C000F0E7000043
:1011900013B5094C4FF41653009303220023022188
:1011A000204606F00FF8054A0549204602B0BDE882
:1011B000104002F023BF00BF24230020C8010020FC
:1011C000B11000082DE9F047624E3378A4B04BB956
:1011D0006149624807F0CCF96149604807F0C8F9F5
:1011E000012333705F4B1C785CB15F495B4807F0AB
:1011F000BFF9002333705D4B04221A7024B0BDE8A0
:10120000F0870420FFF79AFE002834D0584A594945
:101210005248594D594FDFF85881DFF8849107F053
:10122000A7F92B78FBB115F8022C3B789A421AD01B
:10123000012A18D04A468021CDF8008004A808F081
:101240005FFE4F4B04A8D3F800A009F0F9F815F899
:10125000022CC1B204A8D04715F8022C49493F48D6
:1012600004AB07F085F90134042C05F11505D8D13C
:101270002046FFF757FE0220FFF760FE88B3FFF716
:1012800083FE0546FFF784FE0128024611D12B7824
:10129000532B0ED13C49314807F06AF900233370D3
:1012A000324B042202201A7024B0BDE8F047FFF749
:1012B00039BE7C212846039208F052FA039A04466C
:1012C000002843D0002304F8013B284607F0C2FA67
:1012D0002E4902462346214807F04AF90220FFF72B
:1012E00021FE2B4806F01AFB002887D01B4807F088
:1012F0002DF9C0B2762881D1204F2649174807F032
:1013000037F93B78012B7FF474AF5323224CDFF87D
:1013100070A0DFF89080DFF844908DF81030002541
:1013200022783B7893420BD0A3784BB1012104A8DB
:10133000DAF80030984722784146484607F018F915
:101340000135042D04F11504EAD152E713492B4667
:10135000C1E700BF58280020EA660108E02300200A
:1013600031670108F41E00208C670108F51E00207B
:101370001C1F0020DF670108FE2300200B1F002038
:10138000A01A0020F8670108186801084E680108D3
:101390002423002081680108FC23002064680108E0
:1013A000F2670108C06801081B4B1B6837B5BBB961
:1013B0001A4B01221A700220FFF7C0FD0446B0B19B
:1013C000FFF7E2FD0190FFF7E3FD019902461448A3
:1013D00008F094FB022003B0BDE83040FFF7A2BD47
:1013E000012BE8D1FFF77AF80C4B0222E2E7042048
:1013F000FFF7A4FD70B10B490B480C4D08F0BEFF80
:101400000B4B0C4A08481B681278297898472C70B7
:101410000420E0E703B030BDF01E0020F51E0020E0
:10142000E66801081C1F00205124002057280020D6
:10143000A01A00200A1F0020F0B5124B1B78012BC8
:1014400085B019D1FFF7FCFD0F4D104F104E002451
:101450002B7868780393FFF71FFE22460090039BCA
:1014600039463046013407F083F8042C05F11505A0
:10147000EED1084B01221A60074B02221A7005B008
:10148000F0BD00BF0B1F0020FC23002008690108ED
:10149000E0230020F01E0020F51E00202DE9F04F73
:1014A000DFF83482744E98F80030012B87B034D0C6
:1014B0000220FFF743FD002800F0CC80FFF764FD19
:1014C0000390FFF765FD0F286C4B0399054628BF75
:1014D0000F25EDB204462A46184608F091F9674BED
:1014E0006749684800225A552246009407F040F8A0
:1014F000654B0593654B01221B68032105A898479E
:101500000220FFF70FFD62495E4807F031F8022321
:101510003360604B03221A70A0E0D6F800A0BAF145
:10152000010F40F097805C4D5C4F2B78002B3FD132
:101530003B78002B3CD15A4A1368032B38DC594CBA
:10154000DFF874914FF0150B0BFB03F3E118E35C2C
:10155000487889F80030FFF79FFD0146524808F0AF
:101560000DFF4F4A504910680BFB0040053008F052
:1015700005FF4D4B99F800204C49424806F0F8FF12
:10158000494808F05DFF312806D949493D4807B070
:10159000BDE8F04F06F0ECBF3C4B43481C6808F038
:1015A0004FFF99F80020C1B23F48A04785F800A03E
:1015B0000220FFF7C3FCF8B1FFF7E6FC0446FFF793
:1015C000E7FC0328024614D120463A4908F0A6FF5A
:1015D000044670B92B7863B1374B38491A782948DB
:1015E00006F0C6FF0123364926482C703B7006F0F2
:1015F000BFFF0220FFF796FC3B7833B3314806F07B
:101600008DF910B31F4806F0A1FFC4B22E491D4842
:101610002346224606F0ACFF312C22D12B49194833
:1016200006F0A6FF1E4A136801331360032B4FF028
:1016300000023A702A7008DD1549124806F098FF3A
:1016400002233360134B03221A7098F80030012BE9
:101650007FF42EAF3368022B3FF45BAF07B0BDE8D9
:10166000F08F0D2C01D00A2C04D11949054806F041
:101670007FFFEAE71749F9E7F01E00200C1F002062
:10168000E96A0108E023002041434B00A01A002032
:101690004D6A0108F51E002059280020602800200E
:1016A0005C280020FC230020F61E00202969010888
:1016B00045690108886901080A1F00208C69010832
:1016C000AE69010824230020E7690108116A0108B6
:1016D000726A0108AB6A01080B1F00202DE9F04176
:1016E000194A1A4C51681A4FDFF8708092B00546BB
:1016F000106802AB03C338220021184608F096F99F
:101700000026A37873B16378AB420BD022783B7884
:10171000934207D04146684608F036FC694602A865
:1017200008F098FC0136042E04F11504E9D128468E
:10173000FFF7B2FC0749024602AB074806F018FF64
:1017400012B0BDE8F08100BFF46B0108FC2300205B
:101750000B1F0020126B0108E02300200E6B010814
:101760001A4B1B7810B5002B2ED11949194808F0D7
:101770009BFC48BB0120FFF7B1FF1749174806F053
:10178000F7FE164806F0E2FEA0F13003DBB2092BAB
:101790001AD8C0B2A0F13004224611490F4806F011
:1017A000E7FE104B104911481C6008F0E7FD104B94
:1017B0000E48042119700F4BE2B21A700E4B1B68D1
:1017C00098470E4B06221A7010BD00BFF41E002071
:1017D000A66B01080C1F0020306B0108E0230020DD
:1017E0005C6B0108D4010020706B010851240020BB
:1017F000572800200A1F0020A01A0020F51E0020F4
:10180000134B1B7810B51BB1124B07221A7010BD79
:101810001149124808F048FC0028F5D10320FFF7D1
:101820005DFF0F490F4806F0A3FE0E4806F08EFE3E
:10183000A0F13003DBB2092BE9D8C0B2A0F130042B
:1018400009490848224606F093FE084B1C60DBE776
:10185000F41E0020F51E0020726601080C1F0020F7
:10186000756B0108E02300205C6B0108D0010020AB
:1018700038B51A4B1B782BB919491A4808F014FCD3
:10188000044618B1184B03221A7038BD0220FFF726
:1018900025FF1649164806F06BFE154806F056FE61
:1018A000A0F13003DBB2092BEFD8C3B2114A303BB1
:1018B000152000FB04F18D18895C99420AD16978E2
:1018C0000D4B0E4A0A48012918BF1A460C4906F06A
:1018D0004FFED7E70134042CEBD1D3E7F41E0020F0
:1018E0006B6601080C1F0020F51E0020AC6B010880
:1018F000E0230020FC230020A26B0108A66B010856
:10190000DC6B010838B5044644B1E068FFF7FAFF24
:10191000A568204602F0F4FC2C46F5E738BD10B56A
:1019200004468068FFF7EEFF204610BDF8B58B68CF
:10193000164604460D1D012263B11D7C3278D3E9A1
:101940000270954288BF01221D4696BF00223B4689
:101950000346F1E792B1CA68AA4203D1C4E900354F
:101960002046F8BD284606F09BFE3378027C9A425A
:101970004FF00003F2D3C4E90003F1E72846F4E78F
:101980002DE9F04300F10408856885B006468946D4
:10199000444655B1287C99F80010D5E902328842B6
:1019A0002ABF2C4615461D46F3E7A04504D099F8FA
:1019B0000020237C9A423FD2182002F08DFC99F837
:1019C000009080F810900023A0450746436100F185
:1019D00010020CD173691BB13469237C4B4555D37C
:1019E000314602A8FFF7A2FFDDE9025410E0237C94
:1019F00001924B4527D9F568AC4209D0204606F044
:101A00004FFE037C019A4B45EAD2C568CDB9044626
:101A1000002C35D095BBA04530D0387C237C984233
:101A20002CBF0020012043462246394606F052FED4
:101A30007369013373613C4604F1140005B0BDE8DD
:101A4000F0832546E4E71CD233699C420BD0204644
:101A500006F00EFE037C019A4B45054605D9E26867
:101A600052B9234615461C46D2E7314602A8FFF775
:101A70005DFFDDE90253F6E70346F4E70120D2E714
:101A80002C46384602F03CFC2746D4E7002CC2D155
:101A9000F7E700002DE9F04F994D2C78BFF35B8FED
:101AA00014F0010485B011D1284602F0BDFA68B1E6
:101AB0009448954A95490471031DC0E90333846035
:101AC000446102F09BFA284602F0C8FA904D2B7848
:101AD000012B1AD08F4E3378042B16D00220FFF73B
:101AE0002DFA90B1FFF750FA0446FFF751FA01289A
:101AF00008D12378532B05D18749884806F038FD53
:101B0000042333700220FFF70DFA854E337833BB80
:101B10008449824806F02CFD2B78012B1DD0824B86
:101B20001C78D4B981497D48814FDFF83082DFF8D5
:101B3000EC9106F01DFDBB7833B13A78012A03D051
:101B40004146484606F014FD0134042C07F1150700
:101B5000F1D17849714806F00BFD012333702B78E1
:101B6000012B57D10220FFF7E9F938B3FFF70CFA40
:101B70000446FFF70DFA02281DD12378562B1AD1FF
:101B8000637860488DF80C3003A9FFF7F9FE03680D
:101B9000694A0133036013685A480133136003A98B
:101BA0009DF80C200192FFF7EBFE019A0368634950
:101BB0005A4806F0DDFC0220FFF7B4F92B78012B20
:101BC00059D1DFF86C91002249461346887818B144
:101BD0000878012818BF01330132042A01F11501E8
:101BE000F4D1DFF85481D8F800209A4243DB002B6F
:101BF00041DD444C4FF0000BE068DA46271DB84247
:101C00003CD043695B45C4BF90F810A09B4606F0EA
:101C10002FFDF4E7444B1B786BBB494F97F80080CE
:101C2000B8F1000F27D1474805F078FEF8B13B48DE
:101C300006F08CFC0446303CC1B2E4B2374806F0F2
:101C400071FC092C0FD83A4A434611788C4203D1D3
:101C5000917809B1012C40D10133042B02F1150216
:101C6000F3D1394900E039492C4806F081FC2B7842
:101C7000012B3FF477AF05B0BDE8F08F344927481A
:101C80005B46524606F074FC27492D7808780023FD
:101C90001A469C4699F800E0D64506D1554508BF3E
:101CA000012389F802C008BF18460132042A09F14D
:101CB0001509EFD103B10870214BA06800251D70F4
:101CC0003570FFF71FFE134BC8F800500522C4E91A
:101CD0000257C4E904751A70CDE756238DF80C300D
:101CE0001C4B8DF80D401B680122022103A8984768
:101CF00019490A48224606F03BFC01233B70B6E72F
:101D00006428002068280020C80100201F1900084E
:101D10000B1F0020F51E0020BA650108E0230020FB
:101D200085280020346C0108F41E0020586C01083E
:101D3000FC2300207C6C010880280020E46C010852
:101D40008428002024230020466D0108B66C010879
:101D5000206D0108A01A0020946D01080E6B010887
:101D60002DE9F0471B4E3478FCB91B481B4DDFF8BA
:101D70007C80DFF87C901A4F07F0C0FE2A7898F834
:101D800000309A420AD0AB7843B13846D9F800A067
:101D900008F056FB2A78C1B23846D0470134042CEB
:101DA00005F11505EAD1012333700220FFF7C6F8CB
:101DB00050B1FFF7E9F8FEF72DFD10B1094807F023
:101DC0009DFE0220FFF7AEF8074B09221A70BDE80E
:101DD000F08700BF86280020BB6D0108FC2300208F
:101DE000E76D0108F16D0108F51E00200B1F0020B2
:101DF000A01A00202DE9FF411D481E4CDFF89480F9
:101E00001D4F1E4E07F07AFE00252278607803925F
:101E1000FFF742F90346A078039A002814BF414611
:101E20003946009130462946013507F067FE042DFA
:101E300004F11504E9D1124807F060FE114B1B783C
:101E4000012B12D1104807F059FE104805F066FD2D
:101E500058B10F4806F07AFB00F0DF00592804D192
:101E600004B0BDE8F041FFF73FB904B0BDE8F08130
:101E70001E6E0108FC230020196E0108366E010851
:101E8000626E01080B1F00207B6E010824230020D6
:101E9000E0230020136E01080FB407B5064B04AA17
:101EA0001B6852F8041BD86801920BF06FFF03B057
:101EB0005DF804EB04B070477C060020002000F0C1
:101EC0005BBF00002DE9F041BDF81C50B5F5806FF7
:101ED00006460C4690461F4606D322482946FFF781
:101EE000DBFF0620BDE8F081022000F0A1FC08B174
:101EF0000720F7E73146022000F0F6FC4FFA88F1A0
:101F0000022000F02DFD3946022000F047FD069921
:101F1000022000F061FD2146022000F0C7FC8EB9CE
:101F20000B3C012C12D80121022000F0A1FC7DB94C
:101F30000121022000F06EFD00F0D6FD0130D7D067
:101F40000020CFE7012E01D10C2CECD00021EBE7D3
:101F50000021022000F05EFD2946022000F078FDFD
:101F6000EAE700BFB46E01087047000084B038B5DE
:101F700004AC84E80F000220DDE9085400F058FCAE
:101F800020B10720BDE8384004B070470C2C15D9AB
:101F900021461148FFF780FF0C21022000F086FC4B
:101FA000A5B90B3C012C15D80121022000F060FCE2
:101FB00000F09AFD0130E4D00020E3E7052CEFD8D3
:101FC00021460548FFF768FF0621E6E7012D01D10C
:101FD0000C2CE9D00021E8E7446F01080FB407B5E5
:101FE000064B07491B6805AAD86801920BF0CEFE84
:101FF00003B05DF804EB04B0704700BF7C0600201E
:102000006D6F010884B010B502AC84E80F009DF834
:102010000D10012905D0BDE81040254804B0FFF798
:10202000DDBF9DF8293033205BB301F009F840F0A3
:102030004101C9B2332000F0F8FF19213B2000F024
:10204000F4FF9DF827309DF82A402BB31D21112065
:1020500000F0EBFF402000F0F3FF00F033014020E0
:1020600000F0E3FF00210F2000F0DFFF00210D2032
:1020700000F0DBFFD4B10520BDE8104004B001F052
:1020800017B800F0DDFF00F0BE0141F00101332080
:1020900000F0CBFF1D21D1E71F21112000F0C5FF6B
:1020A000402000F0CDFF00F03F01D8E70620E3E735
:1020B0006D6F010884B02DE9F04106AC84E80F0093
:1020C0000898BDF832609DF83450BDF842700B9C02
:1020D000DDF8288000F0CCFF1D2000F0B1FF9DF856
:1020E00031309DF8301041EAC3019DF8363041EAA5
:1020F000881141EA430141EA8501C9B21D2000F07F
:1021000094FF1E2000F09CFFC7F3012100F00C009B
:1021100041EA04110143C9B21E2000F086FFF9B262
:102120001F2000F082FF310A202000F07EFFF1B274
:10213000212000F07AFF25B19DF83510222000F013
:1021400074FF9DF837306BB14B2000F079FF60F0E1
:102150007F01C9B24B2000F068FF9DF838102420A1
:1021600000F063FF062C4FF031000FD100F068FF44
:1021700000F0F80141F00501312000F056FF0C217C
:10218000BDE8F041372004B000F04FBF00F058FF29
:1021900000F0F80141F00301312000F046FF0A2170
:1021A000EEE78021122000F040BF4021122000F015
:1021B0003CBF07B5122000F043FF8DF807009DF8E3
:1021C0000700C0F3401003B05DF804FB202112208B
:1021D00000F02BBF08B5192000F032FF030643BF03
:1021E0004042C0F38500404240F3870008BD84B000
:1021F00010B502AC84E80F009DF938401A2000F0B9
:102200001FFF002CB8BF8B3C4FEA2013B8BF00194A
:10221000BDE81040A8BF8B38184400B204B0704726
:1022200038B50546132000F00BFF0446014628464A
:1022300000F016FF204638BD0FB407B5064B04AAC0
:102240001B6852F8041BD86801920BF09FFD03B085
:102250005DF804EB04B070477C06002008B528B98F
:102260000848FFF7E9FF4FF0FF3008BD402905D9C6
:102270000548FFF7E1FF6FF00100F6E7BDE8084011
:1022800000F0CEBDAC6F0108D86F0108F8B5074665
:1022900001200D4614461E4600F0CAFA08B1072078
:1022A000F8BD3946012000F03DFB2946012000F031
:1022B0001BFB71B2012000F053FBBDF81810012088
:1022C00000F06CFB0799012000F086FB21460120FD
:1022D00000F0ECFA65B90B3C012C0DD8012101206E
:1022E00000F0C6FA00F0D2FB0130D8D00020D7E7CA
:1022F000012D01D10C2CF1D00021F0E784B038B5CC
:1023000004AC84E80F000120DDE9085400F090FAE5
:1023100020B10720BDE8384004B070479DF91C008B
:1023200000F010FC50BB012000F082FA0028F0D130
:102330000C2C15D921461248FFF77EFF0C210120F5
:1023400000F0B4FAA5B90B3C012C15D801210120ED
:1023500000F08EFA00F09AFB0130DAD00020D9E7C5
:10236000052CEFD821460648FFF766FF0621E6E771
:10237000012D01D10C2CE9D00021E8E70120C9E7AB
:10238000446F01080FB407B5064B07491B6805AA3F
:10239000D86801920BF0FAFC03B05DF804EB04B0CE
:1023A000704700BF7C0600201270010884B070B531
:1023B00004AC84E80F0009209DF9404000F040FE85
:1023C00006465A2000F03CFE9DF8103003F0FD0355
:1023D000012B14BF00238023054606F07F0018431D
:1023E000030600F0F00127D5112CCBBF45F00705FF
:1023F00005F0F805EDB245F0040505F00703072BDD
:1024000012D1142CA8BF1424052CB8BF0524631FB7
:102410001943C9B2092000F008FE2946BDE8704002
:102420005A2004B000F001BE112CA8BF1124022CC8
:10243000B8BF0224A31EEBE70E2CA8BF0E2444EA6B
:10244000E47401342143E4E784B008B50DF1080CCD
:102450008CE80F009DF80D10012905D0BDE808405B
:10246000124804B0FFF78EBF9DF827309BB1F521CD
:10247000112000F0DAFD402000F0E2FD00F0330111
:10248000402041F0400100F0D0FDBDE808400320AD
:1024900004B000F00DBEF721112000F0C6FD402071
:1024A00000F0CEFD00F03F01EAE700BF1270010826
:1024B00084B02DE9F0418AB010AC84E80F009DF99A
:1024C0004C30089314AD0FCD6C46159EBDF85A7074
:1024D000DDF850800FC495E80F0084E80F0010ABC2
:1024E0000FCBFFF763FF129800F0C2FD9DF85F303D
:1024F0006BB14B2000F0A4FD60F07F01C9B24B200E
:1025000000F093FD9DF86010242000F08EFD1D204A
:1025100000F096FD9DF859309DF8581041EAC3012E
:102520009DF85C3041EA881141EA83019DF85E30F4
:1025300041EA4301C9B21D2000F077FD1E2000F0E2
:102540007FFD00F00F0141EA0611C9B21E2000F024
:102550006CFD390A202000F068FD2120F9B200F05E
:1025600064FD062E4FF0310010D100F069FD00F03F
:10257000F80141F00501312000F057FD0C21372012
:102580000AB0BDE8F04104B000F04FBD00F058FDC6
:1025900000F0F80141F00301312000F046FD0A216E
:1025A000EDE70821122000F040BD08B568B13320E6
:1025B00000F046FD00F0BE01332000F036FD192189
:1025C0003B20BDE8084000F030BD332000F038FD6E
:1025D00000F0BE0141F00101332000F026FD1D2175
:1025E000EEE738B5044622200D4600F01EFD00211E
:1025F0000E2000F01AFD00210D2000F016FD012034
:1026000000F01EFD30F0F80304D100F07FFD012042
:1026100005F052FD29462046BDE8384000F01BBDBC
:102620000FB407B5064B04AA1B6852F8041BD86800
:1026300001920BF0ABFB03B05DF804EB04B0704704
:102640007C06002010B50A4C21788142024605D054
:102650000848FFF7E5FF4FF0FF3004E0022001F0EB
:1026600003F808B9207010BD0348FFF7D9FFF2E75F
:1026700000290020467801089C78010808B5044824
:1026800004F0EDFC00F045FD024B01221A7108BD7B
:1026900090280020D028002013B5174C2379022B56
:1026A00003D0032B19D002B010BDFFF75DFCFFF77C
:1026B000E5FF032000F0D8FF012808D000230F4ACF
:1026C0000093146819461A460120A047EBE70C480E
:1026D00002B0BDE81040FFF7A3BF204600F05CFD4C
:1026E00094F8280000F049FD0123237102B0BDE8F1
:1026F000104000F0E9BF00BFD028002004290020CE
:102700001C7801082DE9F041354C267988B046B196
:1027100034483146FFF784FF4FF0FF3008B0BDE882
:10272000F081314B1860314B31481960FFF778FF69
:102730004FF4807007F004F82E4B186028B92E482B
:10274000FFF76EFF6FF00100E8E74FF4FA62626294
:102750000E2222730B22294B626108224FF00108DE
:10276000A360628304230522204684F8203062851A
:10277000237084F805802677E67784F81E8084F835
:102780002160266184F81980667784F8228084F8B5
:10279000288000F001FD2546014605F8100B184879
:1027A000FFF73EFF0FCD6F460FC795E80F0087E894
:1027B0000F0094E80F00FFF7A1FDA5F1100CBCE895
:1027C0000F006F460FC795E80F0087E80F0094E8E9
:1027D0000F00FFF7CBFB84F8048030469EE700BF74
:1027E000D0280020137101080829002004290020A6
:1027F0006471010888280020917101082021F636B3
:10280000CB71010808B5042000F02EFF012805D186
:102810000648FFF705FF4FF0FF3008BDFFF72EFF1A
:10282000022000F021FF0020F7E700BFE17101085E
:1028300038B5054618B90A48FFF7F2FE05E0094C1D
:10284000217829B10848FFF7EBFE4FF0FF3004E094
:10285000084600F009FF08B9257038BD0348EBE7CA
:10286000F1750108002900202E7601087176010813
:1028700038B504460D4600F021FF0128084B06D16B
:102880001A78A24203D1074B00201D7638BD0648B6
:102890001A782146FFF7C4FE4FF0FF30F6E700BF7D
:1028A00000290020D02800209275010838B5044680
:1028B0000D4600F003FF0128084B06D11A78A2420A
:1028C00003D1074B00205D6138BD06481A782146C8
:1028D000FFF7A6FE4FF0FF30F6E700BF002900200B
:1028E000D02800203375010838B504460D4600F0A5
:1028F000E5FE0128084B06D11A78A24203D1074B06
:1029000000201D6138BD06481A782146FFF788FE71
:102910004FF0FF30F6E700BF00290020D02800204C
:10292000A576010838B504460D4600F0C7FE01281B
:10293000084B06D11A78A24203D1074B00201D7321
:1029400038BD06481A782146FFF76AFE4FF0FF307F
:10295000F6E700BF00290020D0280020B773010847
:1029600038B504460D4600F0A9FE0128084B06D1F3
:102970001A78A24203D1074B00205D7638BD064885
:102980001A782146FFF74CFE4FF0FF30F6E700BF04
:1029900000290020D0280020D474010838B504464E
:1029A0000D4600F08BFE0128084B06D11A78A24292
:1029B00003D1074B00205D8338BD06481A782146B5
:1029C000FFF72EFE4FF0FF30F6E700BF0029002092
:1029D000D0280020FE76010838B504460D4600F0E8
:1029E0006DFE0128084B06D11A78A24203D1074B8D
:1029F00000209D6038BD06481A782146FFF710FE7A
:102A00004FF0FF30F6E700BF00290020D02800205B
:102A1000BE77010838B504460D4600F04FFE012888
:102A2000084B07D11A78A24204D1074B002083F843
:102A3000225038BD05481A782146FFF7F1FD4FF0C6
:102A4000FF30F6E700290020D02800206077010839
:102A500038B504460D4600F031FE0128084B06D17A
:102A60001A78A24203D1074B00205D8538BD064885
:102A70001A782146FFF7D4FD4FF0FF30F6E700BF8C
:102A800000290020D028002077740108F0B589B013
:102A900000F014FE0128114B18D11F78012F15D119
:102AA0000F4E06F1100500F037FB0FCD6C460FC43A
:102AB00095E80F0084E80F0096E80F00FFF7F8FC98
:102AC0003846FFF7BFFD002009B0F0BD0548197872
:102AD000FFF7A6FD4FF0FF30F6E700BF002900200A
:102AE000D028002053730108F0B589B000F0E6FD4E
:102AF0000128114B18D11F78022F15D10F4E06F166
:102B0000100500F009FB0FCD6C460FC495E80F00CF
:102B100084E80F0096E80F00FFF7CCFA3846FFF77D
:102B200091FD002009B0F0BD05481978FFF778FD48
:102B30004FF0FF30F6E700BF00290020D02800202A
:102B4000EF720108F0B58BB0044600F0B7FD012824
:102B5000104B17D11F78012F14D10F4E089406F196
:102B600010050FCD6C460FC495E80F0084E80F00E8
:102B700096E80F00FFF71AFC3846FFF763FD0020C8
:102B80000BB0F0BD05481978FFF74AFD4FF0FF3054
:102B9000F6E700BF00290020D028002013740108A8
:102BA0000E4B1B79022B13B510D1FFF7FAFAFFF782
:102BB00065FD032000F058FD012809D00023084AD4
:102BC0000093146819461A460120A04702B010BDB0
:102BD000044802B0BDE81040FFF722BDD028002015
:102BE00004290020097201082DE9F041454E34798D
:102BF000022C8AB067D1FFF7D8FAFFF7DAFA01287A
:102C000029D1FFF7E3FA96F82250ADB9FFF736FD68
:102C1000032000F029FD012808D03B4B00951E68D9
:102C20002A462B4629462046B04711E037480AB0CD
:102C3000BDE8F041FFF7F4BC00F040FD0328F5D1FA
:102C40000023314A0093156819461A462046A847C2
:102C50000AB0BDE8F081FFF7BDFA06F11005089053
:102C600007460FCD6C460FC495E80F0084E80F00AF
:102C700096E80F00FFF7BBFA254C80462068FFF767
:102C8000CFFA96F8226005468EB9FFF7F7FC0320CD
:102C900000F0EAFC012808D01B4B00971F68216850
:102CA00043462A463046B847D2E71A48BFE700F005
:102CB00005FD0328F9D1144B00971E68216843468F
:102CC0002A460020B0E7032C14D1134804F0C7F9BA
:102CD000FFF767FCFFF7D2FC204600F0C5FC012897
:102CE00006D00E4B1B6800200AB0BDE8F041184723
:102CF0000B489CE70B4821460AB0BDE8F041FFF7BE
:102D00008FBC00BFD0280020042900204C7001088F
:102D100088280020887001089028002008290020B9
:102D2000C3700108F77001082DE970430446994605
:102D30000D46904604F010FF636B23B994F83830C9
:102D40000BB104F0A1FC04F12806AE420BD03046D2
:102D5000FDF774FE3EB1EB681BB15B682946304657
:102D60009847EB68636342464B46204604F05FF9A0
:102D7000BDE8704304F006BFF0B506468DB00120F3
:102D800000F072FC012806D11E48FFF749FC4FF005
:102D9000FF300DB0F0BD1C4B1C4F18684FF4807213
:102DA000002107F1100506F041FE0FCD6C460FC45F
:102DB00095E80F0084E80F0097E80F00FFF722F96D
:102DC00002233B71E6B11022002108A806F02EFE76
:102DD0000F4B089330460F4B0B9311F07DFE0022F2
:102DE0000D4B11F0F3FE12F089FA02460B460B4828
:102DF00008A9FFF799FF08A8FDF720FE0020C8E703
:102E00003046C6E73872010888280020D028002004
:102E1000992600089064010800408F409028002007
:102E2000F0B5304C2379032B8FB006460D4606D102
:102E30002D48FFF7F5FB4FF0FF300FB0F0BD042039
:102E400000F012FC0128F3D0FFF718FC0A2005F06F
:102E500033F9022000F008FC012000F005FC0128F5
:102E600001D12248E5E763791BB1012B03D000278C
:102E70000CE01F48DDE794F82100FFF796FB294698
:102E8000304684F82E50FFF7ACFB676A194E08975E
:102E90000FCE6D460FC596E80F0085E80F0094E849
:102EA0000F00FFF7D1FA0323102200210AA8237193
:102EB00006F0BCFD104B0A933846104B0D9311F0F1
:102EC0000BFE00220E4B11F081FE12F017FA0246A3
:102ED0000B460C480AA9FFF727FF0AA8FDF7AEFD2D
:102EE0000020AAE7D02800205F7201088F72010835
:102EF000B6720108E02800209926000890640108B5
:102F000000408F409028002010B50C4C204604F063
:102F100049F820460A4B40F8283B1022002106F0D1
:102F200085FD012384F83830064B23602046064A8D
:102F30000649BDE8104001F061B800BF90280020AC
:102F400060840108D4840108C8010020850A0008B3
:102F500010B50446044B40F8B83BD4F8C4300BB16C
:102F60009B689847204610BDF08501080FB407B54F
:102F7000064B07491B6805AAD86801920AF006FFAC
:102F800003B05DF804EB04B0704700BF7C0600207E
:102F9000FF780108F8B50D4C0D4F23681646E2681E
:102FA0001B040D46136040F08001094804F09AFAB2
:102FB000013D2E44B54205D015F8011F384604F0F6
:102FC00091FAF7E7A36822681A60F8BDC8290020C3
:102FD000002A0020F8B50E4C0E4F23681646E26812
:102FE0001B040D46136000F07F010A4804F07AFAD2
:102FF000013D2E44B54206D00021384604F072FA55
:1030000005F8010FF6E7A36822681A60F8BD00BF53
:10301000C8290020002A002010B50446FFF798FFB9
:10302000204601F06DF9204610BD07B502AB012224
:1030300003F8011D1946FFF7ADFF03B05DF804FB6F
:1030400007B501220DF10701FFF7C4FF9DF8070046
:1030500003B05DF804FB0A4601460020FFF79ABF63
:103060000A4601460020FFF7B5BF0000000000003F
:1030700010B511F031FD0CA3D3E9002311F0D0FEFF
:1030800012F07CF80446C0F307410620FFF7CDFF9D
:10309000C4F307210720FFF7C8FFE1B20820BDE80D
:1030A0001040FFF7C2BF00BF0000000080844E4008
:1030B000144910B50A78044690B932B901230B704F
:1030C000114BDA681B681B0413600120FFF7B8FF7F
:1030D00000F0F80121430120BDE81040FFF7A5BF33
:1030E000094B2AB11A6800200870D96812040A60D6
:1030F000032C1A6803D0DB6812041A60E5E79B68AA
:10310000FBE700BFDC2A0020AC2900200120FFF7EC
:10311000CFBF0020FFF7CCBF10B504460120FFF75A
:103120008FFFC0F3C010844226D0012C13D0FFF7CC
:10313000F0FF0120FFF784FF00F07F010120FFF77F
:1031400074FF00214020FFF770FF30214120BDE8CF
:103150001040FFF76ABFFFF7DCFF2046FFF770FF64
:1031600060F07F01C9B22046FFF75FFF00214020D9
:10317000FFF75BFF0021E9E710BD10B50446012011
:10318000FFF7CAFF2CB134213920BDE81040FFF70A
:103190004CBF1221F8E700002DE9FF47594C0546C6
:1031A00004F0DAFC0121204600F000FC04F0EAFC07
:1031B0002368E2681B041360012004F07DFF04F023
:1031C000CBFC2046002100F0F1FB04F0DBFC0620E4
:1031D00004F072FF2E784C4C042E1CD104F0BCFC81
:1031E0000021204600F0E2FB04F0CCFC012004F0BA
:1031F00063FF63681A6823681A4214BF0126002619
:1032000004F0AAFC2046012100F0D0FB04F0BAFC37
:10321000012004F051FF2368E2683C483C4C1B0449
:1032200013603C4B9A681B6813600821002204F06D
:1032300037F9394804F032FF0020FFF739FF102238
:10324000ACBB2146684606F0F1FB69463348344C76
:1032500004F035F86846FDF7F1FB10227CBB2146EF
:10326000684606F0E3FB69462E48DFF8C8802E4C1E
:1032700004F025F86846FDF7E1FB4FF00309002351
:103280005F1CDBB2D8F80020B2FBF9F29A421ED9DB
:1032900003EB430304EB030AE05CFFF73DFF9AF8FE
:1032A00002109AF80100FFF7C0FE3B46E8E7002154
:1032B000684606F0BBFB1D4B00940393C5E7002155
:1032C000684606F0B3FB194B00940393CBE768798B
:1032D000174CFFF721FF95F82800FFF74EFF42201B
:1032E000FFF7AEFE38B92046FFF740FE4FF07E50A4
:1032F00004F0D4FEF3E7A868FFF7BAFE304604B046
:10330000BDE8F087E4290020AC290020002A002035
:10331000E92B0008C8290020CDCCCC3D0C29002089
:10332000A12B00085C290020CC78010890640108DA
:10333000FF780108D801002073B5224D224C234E9E
:103340000A21284603F060FF2846214D22463146D7
:1033500000F054FE1321284603F056FF2246314662
:1033600028461C4D00F04AFE4FF0FF330093062222
:1033700005230721284604F0E7F822461649284687
:1033800000F03CFE154B1C2422461846002106F096
:103390004DFB162103F0EEFE114B2246184600218C
:1033A00006F044FB002103F0D2FE0E4B2246002122
:1033B000184606F03BFB212102B0BDE8704003F047
:1033C000C6BE00BF0C290020C801002061720008A1
:1033D0005C290020002A0020512F0008C829002065
:1033E000E4290020AC2900200FB407B5064B04AA3D
:1033F0001B6852F8041BD86801920AF0C7FC03B09E
:103400005DF804EB04B070477C06002013B5084B50
:103410000024CDE900340122082307212046FEF7CD
:1034200051FDFEF74BFD034B1C7002B010BD00BFF9
:103430002021F636DD2A002010B5044648B9FFF7F2
:10344000E1F9FFF7E3FF084B1B682046BDE8104099
:103450001847012807D1FFF7D5F9FFF7D7FF024B2F
:1034600002201B68F2E710BD202B00202DE9F0415F
:10347000884615461F469DF9186000283BD1202A32
:1034800003D92648FFF7B0FF2025254C2A464146A0
:10349000204606F0B5F9234B1F80234B1E7026787B
:1034A0002746FEB9214BA4781B78A34201D0FF2CFC
:1034B0001BD1A4F1FF035C425C4101261C4B1B782D
:1034C000ABB9FFF79FF9FFF7A1FF012E24D1194BEC
:1034D000787819492A1F1D68D2B22346AC46BDE848
:1034E000F041604700242646E8E73446E6E7134803
:1034F000FFF77AFFE9E7013801280DD80C4B1B785C
:103500002BB9FFF77FF9BDE8F041FFF77FBF0B480C
:10351000BDE8F041FFF768BFBDE8F0810C7A010813
:10352000DE2A00202A2B0020282B00202C2B002014
:10353000DD2A0020242B0020E22A0020517A0108F5
:103540000A4B10B518700A4B19600A4B0A491A60E9
:1035500004460A48FFF7D6F8094B00225C701A703F
:10356000FFF750F9BDE81040FFF750BF2C2B0020AB
:10357000202B0020242B00206D3400083934000853
:10358000FE2A0020F7B5184F3C7834B11748214681
:10359000FFF72AFF012003B0F0BD1C2905D914480C
:1035A0002022FFF721FF0320F5E7124D0E1DAA7020
:1035B000F6B20A460146281D2C70EE7006F020F97E
:1035C000FFF720F90C4A0823CDE9003221460123F8
:1035D00007220E20FEF75AFE31462846FEF73EFE31
:1035E00001233B702046D6E7DD2A0020217901081F
:1035F00062790108FE2A00202021F636014BB3F93A
:10360000000070472A2B0020014B93F900007047FF
:10361000282B002010B5074B1C78012C05D106483B
:103620002146FFF7E1FE204610BD044B1870002034
:10363000FAE700BFDD2A0020AC7901082C2B00201E
:103640000FB407B5064B07491B6805AAD868019255
:103650000AF09CFB03B05DF804EB04B0704700BFB8
:103660007C060020C67A010837B501460D480E4A8F
:10367000037803EB83052A44545C012C06D00B4BE2
:103680002B445B5C0370204603B030BD08486422C5
:1036900002FB03000090074802FB01020648FFF707
:1036A000CFFFF0E72D2B0020B27A01089E7A0108A7
:1036B000D0030020DC010020C67A0108014B1878F5
:1036C000704700BF2D2B0020014B00221A7070475D
:1036D0002D2B002043692DE9F0410D46D907044602
:1036E00028D58168334F8268334E83683348394028
:1036F000B94202EA060204BF0127A760B24203EA08
:10370000000304BF4FF48076A660834204BF4FF4E9
:103710008030A0602748814205D027498A4202D0E4
:10372000264A934206D1264B264A1B6852F82500AA
:1037300001219847E2686369920708D09F0706D580
:103740001F4B204A1B6852F8250000219847A169A9
:10375000626963698E070AD5900508D5190406D5F4
:10376000174B184A1B6852F8250005219847A7698E
:103770006669626917F0040706F4806609D046B1ED
:10378000120406D50E4B0F4A1B6852F8250007217C
:10379000984763695FB156B11B0408D5084B094AC5
:1037A0001B6852F825000221BDE8F0411847BDE82A
:1037B000F08100BF030000040003000800000310B4
:1037C000382B0020302B002000210148FFF782BF5A
:1037D00000640040FFF7F8BFFFF7F6BF0121014882
:1037E000FFF778BF00680040FFF7F8BFFFF7F6BFAC
:1037F00030B5036891FAA1F4B4FA84F491FAA1F116
:103800000325B1FA81F1640005FA04F4490023EAC2
:10381000040302FA01F11943016030BD00B5002331
:1038200089B007286FD8DFE800F00413202D3A474D
:1038300054610093364B37481A6B42F001021A6309
:103840001B6B03F001030093009B09B05DF804FBC0
:1038500001932F4B30481A6B42F002021A631B6B24
:1038600003F002030193019BEFE70293284B2B48DF
:103870001A6B42F004021A631B6B03F004030293F9
:10388000029BE2E70393224B25481A6B42F00802A1
:103890001A631B6B03F008030393039BD5E70493A0
:1038A0001B4B20481A6B42F010021A631B6B03F08B
:1038B00010030493049BC8E70593154B1A481A6B31
:1038C00042F020021A631B6B03F020030593059B53
:1038D000BBE706930E4B15481A6B42F040021A6381
:1038E0001B6B03F040030693069BAEE70793084B60
:1038F0000F481A6B42F080021A631B6B03F08003BF
:103900000793079BA1E70B4804F08EFC00209CE77F
:10391000003802400000024000040240000802405B
:10392000000C024000100240001402400018024047
:10393000001C02409C7D0108431C10B5044604D1C4
:1039400076220649064803F0DFFE2046002100F0FB
:1039500021FE04F00F040120A04010BDBD7D010830
:10396000177E010870B504464B1C0E46218216D006
:10397000C1F30310FFF752FF05463046FFF7DCFFA7
:10398000238A074A656103F00F03206052F8233051
:10399000A36105F1100318356360A560E56070BD93
:1039A000F0800108B0F9100000F08CBE0A4619B989
:1039B00081694069FFF71CBF0122F9E74C23F0B58C
:1039C0004343224E224F1A1D324400244FF0010E71
:1039D0001E448C4205D10146BDE8F0401D4804F06C
:1039E00023BC33680EFA04F51D422BD0136B7D699E
:1039F0000EFA03F32B4225D0D2F818C07B6115686C
:103A000005B3FA6833EA020203D1BA6833EA020264
:103A100014D10F4A916833EA010103D1D26833EA25
:103A200002020DD1DCF81020134214BF0121022143
:103A3000094B28461B68BDE8F04018470221F7E70C
:103A40000121F5E701340432C3E700BF3C2B00201D
:103A5000003C0140517E0108502D002006210846FF
:103A6000FFF7ACBF05210846FFF7A8BF01210420DE
:103A7000FFF7A4BF01210320FFF7A0BF012102200F
:103A8000FFF79CBF01210846FFF798BF01210020E6
:103A9000FFF794BF012910B518D11B4C838952B18F
:103AA000A26803F00F0399401143A160836843F0BB
:103AB0000103836010BDA26803F00F03994022EA5E
:103AC0000101A160836823F00103F2E70229F1D12B
:103AD0000D4983895AB1CC6803F00F03012202FA21
:103AE00003F32343CB60836843F00203E1E7CA6832
:103AF00003F00F03012404FA03F322EA0303CB606B
:103B0000836823F00203D4E7003C0140B0F90C3095
:103B100099B270B501F00F0606F00C0404F1804470
:103B200004F59C3401F00301A56889000F228A4046
:103B3000C3F3031325EA02058B402B43A3600F4B0D
:103B400001221968B240114319608468E50742BF39
:103B5000996811439960A10742BFD9680A43DA60A6
:103B600090F90030002B08DB5909012203F01F03F4
:103B700002FA03F3024A42F8213070BD003C0140D2
:103B800000E100E02DE9F04F92464A1C85B08046E6
:103B90000C4666D000220392334A344F516C41F4F4
:103BA00080415164526C02F480420392039A04F003
:103BB0000F090C2202FB0972C4F303105568062D8D
:103BC00047D8DFE805F0043A3C3E40424400284E26
:103BD0000193FFF723FE0C2101FB09F17A1857F836
:103BE00001E0244FA8F80C404C21694301247B5884
:103BF00092F90820C8F8045004FA0EF44FF0000BB4
:103C00001C4388F80020C8F808B07C50132101FB41
:103C100005E507EB8501019B4B60174BC861C3F8B5
:103C200000A0164BC1F834909B681032404643F810
:103C30002260FFF76BFF584610E0114EC8E7114EA7
:103C4000C6E7114EC4E7114EC2E7114EC0E7114E50
:103C5000BEE7114804F0E8FA4FF0FF3005B0BDE8C8
:103C6000F08F0846FAE700BF003802407C7E01086A
:103C70008D3A00083C2B0020502D002000ED00E084
:103C8000853A00087D3A0008753A00086D3A000848
:103C9000653A00085D3A00082A7E01088389184ABF
:103CA00003F00F03012110B501FA03F39468DB431D
:103CB0001C409460D4681C40D46014682340136096
:103CC00090F90030002B0CDB5A0903F01F0301FAB6
:103CD00003F320320B4941F82230BFF34F8FBFF37B
:103CE0006F8F90F90030002B09DB5A09012103F096
:103CF0001F0301FA03F36032024941F8223010BD7C
:103D0000003C014000E100E0838903F00F020C2336
:103D10005343104A70B54468D658FFF7BFFF4C2193
:103D20000D4A6143012000FA06F55058132303FBA6
:103D3000046320EA0500505002EB8300002141603B
:103D4000981D0C3302EB800002EB83034160596045
:103D500070BD00BF7C7E01083C2B002008B503F03D
:103D600091F8002008BD000008B50A4B1B684BB154
:103D700003F004FA04F015F94FF47A72002311F0FD
:103D80006DFA08BD03F0D2F84FF47A73B0FBF3F08C
:103D900008BD00BF542D002010B588B003F0DCFE34
:103DA000052101A803F0E6F90424039B019A1A6097
:103DB000962004F081F9019B049A1B04136096205D
:103DC00004F07AF9013CF0D10424039B019A1A60B3
:103DD0004FF4C87004F070F9019B049A1B0413603F
:103DE0004FF4C87004F068F9013CEED1DCE7000044
:103DF00070B50D46A0B0044603F0AEFE2B46224639
:103E0000802168460BF010FC051E03DC03F0BAFEAF
:103E100020B070BD094B1B6823B90322022108485A
:103E200000F0A4FE064E00241DF8041030460134B4
:103E300001F07EF8A542F7D1E8E700BF9C2D0020F5
:103E4000442F00200FB407B504A951F8040B0191C9
:103E5000FFF7CEFF03B05DF804EB04B0704700003D
:103E600008B502F0BDFF01F0C1F802F0A9FF02F0B1
:103E7000B7FF024B01221A6008BD00BF542D00207D
:103E800000207047036801221B690021184703685E
:103E900000221B691146184703681B69184703680D
:103EA0009B69184703689B6A184700290CBF6FF08D
:103EB000180000207047012070471120704770479C
:103EC0006FF01C0070476FF01500704701207047BD
:103ED0000020704770470000F8B5074E15460C46A5
:103EE0008F18BC4205D014F8011B304601F020F8B1
:103EF000F7E72846F8BD00BF442F002038B58DB243
:103F000015F0010405D0084800F0ACFD041C18BFF2
:103F10000124EB0605D5044800F0BAFD08B144F0D1
:103F20001004204638BD00BF442F002010B50446C1
:103F300005F00EFC204610BD10B50C462AB1044811
:103F400000F0E4FF2070012010BD104610BD00BF3E
:103F5000442F002038B51D46074B0360074B1B68F4
:103F6000044633B9064800F001FE2946044800F033
:103F7000C5FD204638BD00BFB87F01089C2D00203C
:103F8000442F0020002070470020704708B5012012
:103F900000F036F80C4A136810B51844EFF30881A6
:103FA000884205D3094B0C221A604FF0FF3010BD38
:103FB00007490C6824B10749096821448842F1D2B5
:103FC0001060184610BD00BF600600200C2F0020B6
:103FD000682D00206C2D0020074C08B5236805468D
:103FE000986804F075FD2368D86804F071FD0DB180
:103FF000FFF7D2FEFEE700BF7C06002001207047DD
:1040000008B5FFF7E9FF01207047002105F098BED1
:1040100004F098BD7047704708B5FFF7FBFF08BD77
:1040200008B5FFF7F8FF08BD10B5037803F00303E8
:10403000012B04460CD02BB140F2A9520549064889
:1040400003F062FB237843F002032370012010BDCC
:10405000002010BD1D8001087480010810B5037890
:1040600003F00303022B044605D040F2B152054988
:10407000054803F049FB237823F0030343F00103D1
:10408000237010BD1D8001089A8001083F2870B57B
:1040900004462FDC184D55F820305A1C13D1022845
:1040A00011DCFFF771FF034658B92046FFF76AFF9E
:1040B000034630B9114E3378BFF35B8FDB0704D56D
:1040C0000F4B45F82430184670BD3046FFF7ACFF63
:1040D0000028F5D04FF41653032202210848FFF7B9
:1040E00039FF3046FFF7BAFF064A07490448FFF791
:1040F00085FFE5E70023E6E760050020582D002056
:10410000642D0020C8010020D53E000838B50546C2
:10411000FFF7BCFF0B4B002443F8254030B904F0F7
:104120009DFB092303604FF0FF3038BD03685B69D6
:104130009847051E04DA04F091FB6D420560F2E732
:10414000204638BD60050020FFF7E0BF38B50C46BB
:104150001546FFF79BFF38B904F080FB0923036085
:104160004FF0FF34204638BD03682146DB682A46FD
:104170009847041EF6DA04F071FB64420460EFE72E
:1041800008B5131E06DA04F069FB162303604FF02E
:10419000FF3008BD04D0FFF7D9FF40EAE07008BD4A
:1041A000184608BD38B50C461546FFF76FFF38B9FD
:1041B00004F054FB092303604FF0FF34204638BD60
:1041C000036821469B682A469847041EF6DA04F0E5
:1041D00045FB64420460EFE7002A08B503DBBDE855
:1041E0000840FFF7DFBF04F039FB162303604FF0F0
:1041F000FF3008BD10B5FFF749FF044628B904F0A9
:104200002DFB09230360204610BD0368DB69984736
:10421000041EF8DA04F022FB644204600024F2E792
:104220001FB504220C4640230DEB020101900DF155
:1042300009008DF8083005F0E3FA214602A804F0E1
:104240000FFE044630B10198FFF7D4FF10B12046AD
:10425000FFF7DBFE204604B010BDFFF7CBBF38B53B
:104260000C461546FFF712FF38B904F0F7FA092398
:1042700003604FF0FF34204638BD036821461B69B8
:104280002A469847041EF6DA04F0E8FA644204600D
:10429000EFE7FFF7E4BF38B50D46FFF7F7FE04463A
:1042A00030B904F0DBFA092303604FF0FF3038BD6A
:1042B0000368DB699847002814BF4FF400534FF49C
:1042C00000436B60236820469B6A98472861002062
:1042D00038BDFFF7E0BF000037B5054605F030FAFE
:1042E000044630B9009003462A460349034803F0C8
:1042F000BDFF204603B030BD008001081F010180D2
:1043000005F026BA034610B553F8042B044602B94B
:10431000036022689A4204D05E220349034803F0F6
:10432000F3F9206810BD00BF3C7F01089B7F0108A6
:1043300010B504460948FFF7E5FF0023084A19466F
:1043400052F82300A04208BF42F823100133402B4B
:10435000F6D10248FFF7D6FF10BD00BF5C2D00204C
:104360006005002010B50F48FFF7CCFF0E4B03246B
:1043700053F824206AB10134402CF9D104F06EFACC
:10438000182303600748FFF7BDFF4FF0FF342046B6
:1043900010BD4FF0FF32034843F82420FFF7B2FF6F
:1043A000F5E700BF5C2D00206005002010B5044635
:1043B000FFF7D8FF0028A4BF014B43F8204010BDF1
:1043C0006005002070B506460C46FFF7EFFF054676
:1043D00090B12146FFF724FF044630B9074B53F84C
:1043E0002520964203D143F82500204670BD04F0F5
:1043F00035FA09230360F8E70446F6E76005002074
:104400000EB42DE9F04185B00546FFF7ABFF041E61
:1044100013DB0023294602A8019303F0D9FD02A86B
:1044200003F028FE1B4D064668B904F017FA132363
:10443000036045F824604FF0FF34204605B0BDE826
:10444000F04103B0704702A803F002FE074602A83D
:1044500037B103F006FE0190019B45F82430ECE7EC
:1044600003F0EDFD06460028DFD0036802A8D3F86C
:10447000088003F0D9FD0B9B024601A93046C047D6
:1044800006460028E8D004F0E9F97642066045F8CF
:104490002470D0E76005002073B50E461849054624
:1044A00005F002FE044620B9FFF7F0FD204602B0F9
:1044B00070BD1449284605F0F7FD20B90120FFF72B
:1044C000E5FD0124F2E71049284605F0EDFD20B98D
:1044D0000220FFF7DBFD0224E8E72B78402B07D111
:1044E0000422691C0DEB020005F08AF9019CDDE74E
:1044F00026F400412846FFF783FF0446D6E700BFB5
:10450000E1800108E8800108D98001087047704700
:10451000074B08499A68084810B5043A52F8044F06
:1045200041F8044F8142F9D14FF000529A6010BD1A
:1045300000ED00E0FCFFFF1FC001002008B5FFF701
:10454000E7FFFFF78DFCFFF7E2FF08BD08B5FFF7B7
:10455000DDFFBDE80840FBF793BE30B5C36891FAB4
:10456000A1F4B4FA84F491FAA1F10325B1FA81F12E
:10457000640005FA04F4490023EA040302FA01F195
:104580001943C16030BD012A02D0022A18BF00229F
:10459000FFF7E3BF2DE9F0410E46411C044604D16C
:1045A0003E224449444803F0AFF804F00F08434B5F
:1045B000C4F3031053F82850FFF730F906F007074B
:1045C0000446836895FAA5F1B1FA81F195FAA5F24E
:1045D0000320490000FA01F1B2FA82F223EA010352
:1045E0005200022101FA02F21343A36087425AD813
:1045F000DFE807F05E1D021DB8F1070FC6F30320C8
:104600003BD9626A2B0A93FAA3F1B1FA81F193FACA
:10461000A3F34FF00F0EB3FA83F389000EFA01F102
:104620009B0022EA010200FA03F3134363623B4654
:10463000226895FAA5F0B0FA80F095FAA5F14FF04E
:10464000030EB1FA81F140000EFA00F0490022EAAF
:1046500000028B40013F1343012F236005D863689C
:1046600032074CBF2B43AB436360C6F301122946AC
:104670002046BDE8F041FFF786BF226A95FAA5F310
:10468000B3FA83F395FAA5F14FF00F0EB1FA81F169
:104690009B000EFA03F3890022EA030200FA01F3F9
:1046A00013432362C3E767220249054803F02CF84D
:1046B0000023BDE730810108177E0108F080010862
:1046C00027880108431C70B506460D4604D1882290
:1046D0001B491C4803F018F806F00F021A4BC6F3EA
:1046E000031053F82240FFF799F804FB04F2016825
:1046F00002EB42030B40B3FBF2F3013B012B05D865
:10470000EB1E022B436809D823434360032D08D1D5
:1047100001222146BDE87040FFF735BF23EA0403BC
:104720004360012DF4D0052D01D0022D01D10222CC
:10473000EFE721460022BDE87040FFF70EBF00BF43
:1047400030810108177E0108F080010870B5A6B01D
:104750003422002102A805F069F95C2200210FA88B
:1047600005F064F92A4B1D68002D4FD1294C0195A5
:1047700001261E60236C43F080532364236C03F0F6
:1047800080530193019B00F05DFC042302A8029377
:104790000895049600F0C0FF10B11F4803F044FDD7
:1047A000A36823F4F813A360A36823F4F813A360A9
:1047B000236F43F48073236720230F930FA84FF4D4
:1047C00080731F9300F058FD10B1144803F02CFDC6
:1047D000134B144801221A60134B03600322002379
:1047E000826041F6FF7243774360C26003614361B8
:1047F000836101F05EF910B10C4803F015FD094822
:1048000001F089FA10B10A4803F00EFD26B070BD20
:10481000782D00200038024088810108A881010815
:104820003C0E47427C2D002000280040D181010829
:10483000EB810108F0B51F4B1F491C681F4A5D68DA
:104840008BB00C4015401E460F4618680840844245
:104850002BD158681040854227D105F03F0001F068
:1048600051FA0490C5F3042001F04CFA0138059088
:10487000280C01F047FA44300690C4F3054001F0DB
:1048800041FA0390C4F3062001F03CFA029004F0D0
:104890007F0001F037FA01220190694601A802F079
:1048A00051FF00B100980BB0F0BD346875683C4012
:1048B0001540CAE7002800407F7F7F003FFFFF00D0
:1048C000024BD868C0F30010704700BF00280040BA
:1048D000214B224A2DE9F0411D691C689E6AC5F3EF
:1048E0000E05144018461746196811408C422ED107
:1048F000996A8E422BD1C4F3054001F003FA0746B2
:10490000C4F3062001F0FEF9804604F07F0001F0B8
:10491000F9F9134A13493C2313FB08004FF4616370
:1049200003FB07001368146898420B683CBF03F54B
:10493000A83303F5C0731B1B03440B6010600868A9
:10494000013DC00305EB9000801BBDE8F0810468C9
:10495000866A3C40C8E700BF002800407F7F7F0098
:10496000742D0020702D002030B591B0002114224C
:10497000044602A8019105F059F803F0EDF82A4B1E
:104980002A4A1A6007A90122204602F02BFF0028BC
:1049900048D00D9B03B907238DF804300B9B0133DE
:1049A0008DF805300A9B8DF806300C9B443B8DF842
:1049B0000730099B8DF80830089B8DF809300024DA
:1049C000079B8DF80A308DF80B4005940694FFF78D
:1049D0007FFF9DF809109DF80A2013483C2313FB24
:1049E00001229DF808304FF4616101FB0323104A56
:1049F00013600E4B224601A99D6A01F0B3F810B175
:104A00000C4803F011FC002202A9074801F00AF942
:104A100010B1094803F008FC044A936A9D42FCD196
:104A200003F0B0F811B030BD7C2D0020002800400C
:104A3000742D0020048201081B8201080FB407B501
:104A4000064B07491B6805AAD868019209F09EF930
:104A500003B05DF804EB04B0704700BF7C06002093
:104A6000328201084368094A9B0182B0D3581A6810
:104A7000120706D5002201921A6801925A68019223
:104A8000019A1868C0F3401002B07047902F0020C0
:104A90004368034A9B01D3581868C0F3C01070479D
:104AA000902F002042681449920110B404685450B9
:104AB000531882685A60C2689A600269DA60426973
:104AC0001A61026A9A610022DA84DA619A84DA85CC
:104AD0009A85B0F91A20013206D108225A61184687
:104AE0005DF8044B01F0B1BEB0F9182001320CBFE3
:104AF00004220C22F2E700BF902F002010B5816045
:104B00000C46FFF7CFFF28B121460348BDE810400F
:104B1000FFF794BF10BD00BF32820108124B9842CC
:104B200017D0A3F54C43984215D003F58063984203
:104B300013D003F58063984211D003F58063984247
:104B40000FD003F5444398420CBF05204FF0FF30CF
:104B500070470020704701207047022070470320F3
:104B600070470420704700BF00100140F0B50E46AA
:104B700087B004465B493046154602F037FC5A4977
:104B80000746284602F032FC0146384602F008FC8F
:104B90002060013004D13D225449554802F0B4FD53
:104BA000022E0CD0032D0AD04E49022002F01EFC2A
:104BB000874202D14F4803F037FB002700E001276E
:104BC0004D4B206898424FF000031AD100934B4B95
:104BD0005A6C42F010025A645B6C03F010030093AD
:104BE000009B474B984229D100230593434B5A6CB5
:104BF00042F020025A645B6C03F020030593059B8E
:104C00001CE0404A90420BD101933C4B1A6C42F499
:104C100000321A641B6C03F400330193019BE0E73C
:104C2000394A904240D10293344B1A6C42F48022AC
:104C30001A641B6C03F480230293029BFFF76EFF40
:104C40000028606004DAA4222849304802F05CFDA4
:104C50002449304602F080FB2349284602F07CFBC1
:104C6000721C03D001213046FFF72CFD6B1C03D0D2
:104C700001212846FFF726FD4FF41653A3600023B9
:104C8000E360236163612362268365832046FFF727
:104C900009FF3FB11E4B1F4801221A6021464C22DA
:104CA00004F0AEFD07B0F0BD1B4A90420BD1039358
:104CB000124B1A6C42F400221A641B6C03F400239A
:104CC0000393039BBAE7154A90428AD104930B4B96
:104CD0001A6C42F480121A641B6C03F48013049360
:104CE000049BABE7247D0108AC7C01085C820108D1
:104CF000B8820108D4820108001001400038024047
:104D000000140140004400400048004009830108AD
:104D10009C2D0020442F0020004C004000500040FB
:104D2000002808DB4209012300F01F0003FA00F00D
:104D3000014B43F82200704700E100E000280DDB42
:104D40004309012200F01F0002FA00F02033044A58
:104D500042F82300BFF34F8FBFF36F8F704700BF40
:104D600000E100E0F7B5FFF7D9FE071E26DB144E81
:104D700056F8270010B3134CBD0163591A68120688
:104D800006D5DB68190603D50F4B01211B68984730
:104D900063591A68920608D5DB68980605D50A4B50
:104DA00056F827001B680021984763591A681107B5
:104DB00004D55A69D20744BF5B68019303B0F0BDC4
:104DC000A42D0020902F0020A02D00200148FFF7E7
:104DD000C9BF00BF001401400148FFF7C3BF00BFB7
:104DE000005000400148FFF7BDBF00BF004C00402D
:104DF0000148FFF7B7BF00BF004800400148FFF778
:104E0000B1BF00BF004400400148FFF7ABBF00BF87
:104E100000100140034B19604168034B43F8212007
:104E2000704700BFA02D0020A42D002030B490E8D2
:104E300018002C48834233D00AD8A0F50060834282
:104E400028D000F58060834227D0002318460FE069
:104E5000254883420AD000F58060834223D0A0F524
:104E600044408342F1D1214B352001E0204B2520E5
:104E7000204DA401FAB1C9B92959CA6842F02002EB
:104E8000CA601D4A00F11001926830BC42F821301E
:104E9000FFF746BF194B2620EAE7194B2720E7E723
:104EA000184B3420E4E7184B4720E1E72959CA683A
:104EB00042F08002E4E72B59DA6849B922F0200277
:104EC000DA60DB6813F0800F09D130BCFFF736BF22
:104ED00022F08002DA60DB6813F0200FF4E730BCC8
:104EE000704700BF004C004000100140D94D000841
:104EF000094E0008902F002000ED00E0FD4D000855
:104F0000F14D0008E54D0008CD4D000838B5446866
:104F100005462846FFF7A6FD0028FAD0A401034B5A
:104F20001B595868C0F3080038BD00BF902F0020FF
:104F300070B5456806460C463046FFF7A9FD0028C7
:104F4000FAD0AD01024B5B59C4F308045C6070BD3C
:104F5000902F002008B50E4AC36D934214D008D894
:104F6000A2F5806293420FD00A4803F05DF9002059
:104F700008BD094A934203D002F580629342F3D1FF
:104F8000BDE8084000F04AB9BDE8084000F036B975
:104F9000003C00401B83010800300140DFF830D0A6
:104FA000002103E00B4B5B58435004310A480B4B84
:104FB00042189A42F6D30A4A02E0002342F8043B20
:104FC000084B9A42F9D301F01FFEFBF71FF9704717
:104FD00000000220B8910108C80100204C100020F8
:104FE0005010002058310020FEE7704708B50B4BE9
:104FF0001A6842F400721A601A6842F480621A60F9
:105000001A6842F480721A60032000F009F80F2039
:10501000FEF7A4FEFFF7E9FF002008BD003C0240B8
:10502000074AD36823F4E0631B041B0C43F0BF63FF
:10503000000243F4003300F4E0600343D3607047A0
:1050400000ED00E0014B01221A60704720000E4283
:1050500037B500230193184B184C1A6C42F080525C
:105060001A641B6C03F080530193019B144B0122C3
:105070001A60FEF779FE05466368DA030BD5114B1B
:105080000E4C01221A60FEF76FFE054663689B0313
:105090000AD5002006E0FEF767FE401BB0F57A7FD8
:1050A000EAD9032003B030BDFEF75EFE401BB0F529
:1050B0007A7FEBD9F5E700BF00380240007000406E
:1050C00040000E4244000E422DE9F0410D460446D8
:1050D00010B90120BDE8F081444B1A6802F00F02BC
:1050E0008A4228D321688F072DD4C80740D43F4B6C
:1050F0001A6802F00F02954266D3226851076CD4F9
:10510000130707D53A4A2169936823F4604343EAB9
:10511000C103936000F0B8FA354B364A9B68C3F37D
:105120000313D35CD840344B18600F20FEF716FEF3
:105130000020BDE8F081CAB21A701B6803F00F03AB
:105140009942C6D1CEE72A4B11F0040F1EBF9A68D0
:1051500042F4E0529A600E0742BF9A6842F46042FD
:105160009A609A68A06822F0F00202439A60BCE755
:1051700062681F4B012A1DD11B6813F4003FA8D0A1
:105180001B4EB36823F003031343B360FEF7ECFD3B
:1051900041F288380746B368626803F00C03B3EB4A
:1051A000820FA4D0FEF7E0FDC01B4045F3D90320D9
:1051B000BDE8F081911E01291B6802D813F0007F21
:1051C000DDE713F0020FDAE7EAB21A701B6803F0AA
:1051D0000F039D427FF47DAF8FE70549E0688B6840
:1051E00023F4E05303438B608AE700BF003C024096
:1051F000003802402184010864060020044B054A5F
:105200009B68C3F38223D35C034A1068D84070477D
:10521000003802403184010864060020044B054A2E
:105220009B68C3F34233D35C034A1068D84070478D
:105230000038024031840108640600200F23036017
:105240000B4B9A6802F0030242609A6802F0F00287
:1052500082609A6802F4E052C2609B68DB0803F443
:10526000E0530361034B1B6803F00F030B607047AF
:1052700000380240003C024003682DE9F74313F078
:10528000010604460BD0AA49866BD1F88C2022F087
:10529000C0623243B6FA86F6C1F88C2076099D07C3
:1052A0000BD5A348E16BD0F88C2022F0C0520A4302
:1052B0000029C0F88C2008BF012613F0040512D085
:1052C0009B49256BD1F88C20B5F5801F22F4401244
:1052D00042EA050218BFB5FA85F5C1F88C2012BF65
:1052E0006D090025012618070FD59148616BD0F88C
:1052F0008C2022F440020A43B1F5800FC0F88C20C4
:1053000000F00981002908BF0125990633D5002343
:105310000193874B874F1A6C42F080521A641B6CC2
:1053200003F080530193019B3B6843F480733B601F
:10533000FEF71AFD80463B68DA0540F1EE807C4FAF
:105340003B6F13F4407340F0FB80236C03F4407216
:10535000B2F5407F764A40F01681916823F07040A4
:1053600021F4F81120F4407001439160116FC3F3F0
:105370000B030B4313672368D90642BF6E4B94F8A7
:1053800058201A6023681A0608D56949E06CD1F8DC
:10539000942022F440020243C1F894205F0608D50D
:1053A0006349A06CD1F8942022F080620243C1F8D6
:1053B0009420D8050CD55E48616DD0F8942022F079
:1053C00000620A43B1F1006FC0F8942008BF0125C4
:1053D000990508D55649606CD1F8942022F0805286
:1053E0000243C1F894205A0500F1D180012E40F00B
:1053F000DC80524E4E4F00233360FEF7B5FC8046F2
:105400003B681B0100F125812268D00701D5A36B01
:105410001BB1910715D5E36B9BB94549D1F8843091
:10542000D1F8840003F4403300F0706003436068F7
:105430000343A06843EA8013606943EA0073C1F83C
:105440008430530703D5236BB3F5801F05D01707AE
:1054500020D5636BB3F5800F1CD13549D1F884306A
:10546000D1F8840003F4403300F0E0400343606867
:105470000343A06843EA8013206943EA0063C1F84C
:105480008430D1F88C00A36A20F01F00013B034355
:10549000C1F88C3050051BD5236DB3F1005F17D1D7
:1054A00023486768D0F88410D0F8843003F0E043D4
:1054B0003B43A768C1F30141013143EA871343EA43
:1054C0004163E1684908013943EA0143C0F8843087
:1054D000110511D52369A2681B0643EA821362688D
:1054E0001343626943EA0273E2685208013A43EAED
:1054F00002430F4AC2F8843001233360FEF734FCC4
:105500000B4E074633681A0153D4FEF72DFCC01B1F
:105510000228F7D908E00126F7E6FEF725FCA0EB04
:10552000080002287FF607AF032003B0BDE8F08330
:105530000038024000700040E011474268004742D6
:10554000226C02F4407293423FF4FFAE3B6F4B4A31
:105550000121116023F44073002111603B673B6F10
:10556000DB077FF5F2AEFEF7FFFB41F2883980469C
:105570003B6F98073FF5E9AEFEF7F6FBA0EB08009E
:105580004845F5D9D0E7916821F4F811EDE63C489B
:10559000216DD0F8942022F000520A43B1F1005F4F
:1055A000C0F894207FF422AF23E7B3F5006F3FF4F7
:1055B00020AF012D4BD1334D314E00232B60FEF730
:1055C000D3FB074633689B004BD421684E0701D5B7
:1055D000236B1BB108071AD5636BC3B9284AA069AE
:1055E000D2F8883003F440330343E06943EA801380
:1055F000606A43EA0063C2F88830D2F88C30E06A0F
:1056000023F4F853013843EA0023C2F88C30CA056A
:1056100014D5636DB3F1006F10D11949A269D1F8A7
:10562000883003F070631343E26943EA8213226A0D
:105630005208013A43EA0243C1F8883001232B6043
:10564000FEF792FB0E4C054623689B000FD5002009
:105650006BE7FEF789FBA0EB080002287FF6D0AECF
:1056600062E7FEF781FBC01B0228ABD95CE7FEF7BF
:105670007BFB401B0228E7D956E700BF400E47429C
:105680000038024070004742204908B58B6803F09B
:105690000C03082B07D00C2B20D01D4A1D48042BCF
:1056A00018BF104608BD4A684B68496813F4800368
:1056B00014BF18481648C1F3881118BF002302F020
:1056C0003F02A1FB00010FF0C9FD104B5B68C3F363
:1056D000014301335B00B0FBF3F008BD4A684B683F
:1056E000496813F4800314BF0A480948C1F38811BC
:1056F00018BF002302F03F02A1FB00010FF0AEFD36
:10570000024B5B68C3F30273E5E700BF0038024059
:105710000024F40000127A0003682DE9F341DF074A
:10572000044610D423689E0767D423681A0700F143
:10573000B28023685B0700F1D080A269002A40F0A4
:10574000398100201EE0974B9A6802F00C02042A6F
:1057500010D09A6802F00C02082A02D15B685D0240
:1057600008D4904B9A6802F00C020C2A0DD15A68AA
:1057700050020AD58B4B1B689903D3D56368002B65
:10578000D0D1012002B0BDE8F0816268B2F5803F5F
:1057900011D11A6842F480321A60FEF7E5FA814DA1
:1057A00006462B689A03BDD4FEF7DEFA801B6428F8
:1057B000F7D90320E6E77B4DB2F5A02F2B6807D180
:1057C00043F480232B602B6843F480332B60E4E7A1
:1057D00023F480332B602B6823F480232B60002A72
:1057E000DBD1FEF7C1FA06462B689B039AD5FEF77C
:1057F000BBFA801B6428F7D9DBE76A4B9A6812F082
:105800000C0F10D09A6802F00C02082A02D15B68D3
:105810005F0208D5634A936803F00C030C2B11D187
:1058200053685E020ED45F4B1A68950702D5E26892
:10583000012AA6D11A68216922F0F80242EAC102BF
:105840001A6072E7E268584BB2B101221A60FEF7A3
:105850008BFA544D06462B68980707D52B682269AA
:1058600023F0F80343EAC2032B605EE7FEF77CFAFD
:10587000801B0228EFD99CE71A60FEF775FA494DA4
:1058800006462B6899077FF550AFFEF76DFA801B2F
:105890000228F6D98DE76269444B7AB101221A6079
:1058A000FEF762FA3F4D06466B6F9F073FF541AF2B
:1058B000FEF75AFA801B0228F6D97AE71A60FEF73B
:1058C00053FA384D06466B6F98077FF532AFFEF7F7
:1058D0004BFA801B0228F6D96BE7324B1A6C12F098
:1058E000805228D101921A6C42F080521A641B6CCB
:1058F00003F080530193019B01262D4D2B68D905A0
:105900001BD5A368274D012B27D12B6F43F0010333
:105910002B67FEF729FA234D074641F288382B6F93
:105920009B0739D5002E3FF408AF1E4A136C23F0B5
:105930008053136401E70026DFE72B6843F480738C
:105940002B60FEF711FA07462B68DA05D9D4FEF76B
:105950000BFAC01B0228F7D92BE7052B04D12B6FBC
:1059600043F004032B67D0E72A6F22F001022A6775
:105970002A6F22F004022A67002BCAD1FEF7F4F93D
:1059800041F2883807462B6F9807CBD5FEF7ECF924
:10599000C01B4045F7D90CE7FEF7E6F9C01B4045B0
:1059A000BDD906E70038024000004742800E47425A
:1059B00000700040234DAB6803F00C03082B3FF44C
:1059C000E0AE214E0023022A33602DD1FEF7CCF940
:1059D00007462B68990121D4226AE3691343626A5E
:1059E00043EA8213E26A43EA0263226B43EA0273E8
:1059F000A26A144C5208013A43EA02436B60012345
:105A00003360FEF7B1F9054623689A013FF599AE78
:105A1000FEF7AAF9401B0228F6D9CAE6FEF7A4F958
:105A2000C01B0228D5D9C4E6FEF79EF904462B68B0
:105A30009B017FF586AEFEF797F9001B0228F6D989
:105A4000B7E600BF00380240600047427047026876
:105A500038B5D36823F0A003D3600446FEF784F979
:105A600005462368DB689B0601D5002038BDFEF79C
:105A70007BF9401BB0F57A7FF3D9032038BD38B5E8
:105A80000368DA685206044601D5002038BD4FF09D
:105A9000FF32DA60FEF768F905462368DB685B06CB
:105AA000F3D4FEF761F9401BB0F57A7FF5D90320F6
:105AB00038BD38B50446B8B1437F03F0FF0213B9CF
:105AC0000277FFF7C3FF022363772368CA225A6273
:105AD00053225A622046FFF7D2FF2368054628B1B9
