:020000040800F2
:1000000000000220E550000831510008315100087D
:100010003151000831510008315100080000000042
:100020000000000000000000000000003151000846
:100030003151000800000000315100083151000822
:100040003151000831510008315100083151000888
:100050003151000831510008315100083151000878
:100060003151000831510008315100083151000868
:100070003151000831510008315100083151000858
:10008000315100083151000831510008453900084C
:100090004939000831510008393900083151000848
:1000A0003151000831510008315100083151000828
:1000B0003151000831510008315100083151000818
:1000C0003151000831510008315100083151000808
:1000D00031510008315100083151000831510008F8
:1000E00031510008315100083151000831510008E8
:1000F00031510008315100083151000831510008D8
:1001000031510008315100083151000831510008C7
:1001100031510008315100083151000831510008B7
:1001200031510008315100083151000831510008A7
:10013000315100080000000000000000593900089B
:100140005D390008315100084D390008315100086F
:100150003151000831510008315100083151000877
:100160003151000831510008315100083151000867
:1001700031510008315100083151000800000000E1
:1001800000000000315100080000000000000000E5
:10019000315100080000000000000000315100084B
:1001A00000000000000000000000000031510008C5
:1001B0003151000831510008315100083151000817
:1001C0003151000810B5054C237833B9044B13B1F5
:1001D0000448AFF300800123237010BD9810002065
:1001E000000000003498010808B5034B1BB1034917
:1001F0000348AFF3008008BD000000009C10002001
:1002000034980108A3F5803A704700BF174B002BC4
:1002100008BF134B9D46FFF7F5FF00218B460F46A5
:100220001348144A121A09F0F1FB0E4B002B00D0B0
:1002300098470D4B002B00D0984700200021040068
:100240000D000D48002802D00C4803F094FF09F07F
:100250009BF92000290004F01DFA03F089FF00BF7C
:100260000000080000000000854600080000022091
:10027000981000207832002077410008000000002C
:1002800010B5094B036003F1200280330446C0F827
:10029000BC20C0F8C030BC3008F05AFA204607F045
:1002A00035FD204610BD00BF988B0108A0F1BC00B1
:1002B000E6E7A0F1C000E3E708B5164C1649174879
:1002C000174D08F069FA1749144808F065FA2246F4
:1002D0001549124808F07DFA1449104808F05CFAF4
:1002E00011490E482A4608F074FA0C4808F042FA00
:1002F0000F492B782278094808F04EFA207800F050
:10030000E1F82978207800F0B3FC00F02DF900F036
:10031000B9FCFAE7CC0100209461010874110020B7
:10032000B4100020DA610108866B0108F161010850
:100330000E62010810B50446FFF7A2FF204604F044
:1003400082F8204610BDA0F1BC00F3E7A0F1C00088
:10035000F0E7000013B5094C4FF416530093032245
:1003600000230221204607F055F8054A054920469A
:1003700002B0BDE8104003F0F9BE00BFB810002085
:10038000C8010020810200080FB407B5064B04AA7B
:100390001B6852F8041BD86801920DF057FC03B09B
:1003A0005DF804EB04B07047C006002008B5074BA9
:1003B0001A78074B1B789A4205D106481146FFF779
:1003C000E3FF012008BD0020FCE700BFCD010020B5
:1003D0002E13002027620108024B1870062000F03F
:1003E0007FBA00BF9211002038B50546FFF7DEFF47
:1003F0000128044605D105482946FFF7C5FF2046D8
:1004000038BD034B00241D70F9E700BF6662010888
:100410002E13002070B50D4E0D4D3378834228BF4A
:1004200003461A460B4829461C4609F0D9F932788A
:10043000094B121BD2B21C7032702AB129192846FE
:1004400009F0CEF9012070BD1046FCE794110020A0
:100450002F170020951100202A13002038B50546DB
:1004600010460C46FFF7C0FF012808D1072000F016
:1004700053FA20B1BDE83840072000F04DBA192CDE
:100480002246294609D80B4809F0AAF90A4B1C70E4
:10049000BDE83840042000F023BA084809F0A0F96C
:1004A000074B1A201C70FFF7B5FF072000F018FA61
:1004B000EEE700BF951100202A1300202F1700201F
:1004C0009411002010B50A4B0A4C00221A702070BB
:1004D00000F01CFAFFF76AFF207800F089FA06485E
:1004E00001F034FDBDE81040044801F035BD00BF07
:1004F0002E130020CD0100205D040008D903000860
:100500002DE9FF41164D1F4695F80080154B144606
:1005100098440E4600F0E2F922460146404609F0B2
:100520005FF92A78023A1444E4B2012F2C7003D008
:100530009DF82830012B10D100F09AFA039000F0BA
:1005400091FA039B009022460648314601F0D8FC00
:100550000020287004B0BDE8F0810120FAE700BF58
:10056000931100202F1300202DE9FF47B44BB54C09
:100570001A782578AA4218BF1D70012D00F0A580B9
:10058000022D00F0C580002D40F05681062000F0BD
:10059000C3F978B1AC4B187800F046FAB0FA80F0A5
:1005A000400901F0C6FC2570062004B0BDE8F04704
:1005B00000F0A0B9032000F0AFF998B300F042FAC0
:1005C000064600F045FA054600F046FA029000F0B3
:1005D00055FA0746284600F05EF9C0B20090029A2C
:1005E0003B4631462846FFF78BFF1FB1002323709F
:1005F0000320DAE7284600F06FF9944A137898420E
:1006000008BF431C284608BF137000F065F9014677
:100610008F4800F04AF932468D48032100F0FAF97C
:100620000123E4E7042000F077F938B3874D894BC4
:100630002A781B7803920720029300F06DF9B0FA34
:1006400080F04009DDE90232834900908348844EFE
:1006500000F032F9834B3278187001467F4800F081
:10066000D9F93378FF2B1EBF2B7801332B707E4BCB
:1006700000221A7001232370042096E7072000F05F
:100680004BF950B1042000F02BF91A20FFF7C2FEFD
:10069000002840F0D180072087E700F03DF908B13D
:1006A000002082E7012000F037F908B101207CE743
:1006B00000F032F908B1022077E7052000F02CF9AC
:1006C000002800F0B98005206FE7284600F024F9E3
:1006D000064650B100F0F2F9012803D0052000F0E1
:1006E0001BF900B102202070E0E700F015F90028A6
:1006F00000F0A2805A4B1B78FF2B04D128462670AD
:1007000001F014FCCCE70223237000F017FAC7E7CE
:10071000284600F001F90546D0B100F099F90546E8
:100720004E4800F0D9F80646284600F0D5F8864233
:1007300007D100F0B7F900230120237001F0F6FB88
:10074000B9E7464800F0C8F8284600F0C5F8B2E717
:10075000052000F0E1F8E0B1434E3378092B0BD9C6
:100760003E4800F0B9F801464048FFF70DFE284624
:10077000257001F0DBFBA6E7394B38481A78394B76
:10078000197800F047F9337801333370012323706F
:1007900099E7032000F0C0F8002842D000F052F999
:1007A000074600F055F9054600F056F9814600F07D
:1007B00065F90646284600F06EF85FFA80F8EEB15B
:1007C000CDF8008033464A4639462846FFF798FE62
:1007D000002E7FF40BAF284600F07EF81B4A1378FA
:1007E000984208BF431C284608BF137000F074F8F5
:1007F0000146174800F059F83A460DE7DFF84CA0DB
:10080000284600F069F89AF800308342D8D028468C
:1008100000F062F89AF8002001461548FFF7B4FD91
:10082000D9E700F079F800287FF43AAF012000F012
:1008300073F800287FF43AAF04B0BDE8F08700BF3A
:100840009111002090110020921100202B13002004
:100850005D1200202A130020951100206212002052
:100860002E1300202C1300202D1300208B62010872
:10087000C9620108024B1A78024B1A70704700BF18
:1008800090110020911100200078013801288CBFC0
:100890000020012070470078431E5842584170479D
:1008A0000078B0FA80F040097047002303700123FC
:1008B000417083700320704710B51C469DF80830C6
:1008C0004270012B18BF022303702246023008F049
:1008D00087FFA01CC0B210BD40787047023070473F
:1008E000034A012303FA00F01368184310607047AD
:1008F000301B0020044901220B6802FA00F023EAB1
:1009000000030B60704700BF301B0020014B00222A
:100910001A607047301B0020012303FA00F0024BDD
:100920001B681840704700BF301B0020054B1B7828
:100930005A1E012A02D80020FFF7D2BF0BB90120AE
:10094000FAE77047351B0020F8B507460C461546F8
:100950001E4609F0CBF807EE900AFAEEE07AF5EEC3
:10096000C07AF1EE10FA21DD2A462146104808F03F
:1009700037FF104B1F70104B1D7002F0FDFE0F4B28
:10098000187002F0F3FE0E4B18800E4B20461E70BE
:10099000FFF77AFF20B10320BDE8F840FFF7A0BFC2
:1009A0002046FFF77DFF08B10220F5E7F8BD00BF44
:1009B000381B0020371B00206C1B0020361B00203A
:1009C0006A1B0020341B00200FB407B5064B0749F3
:1009D0001B6805AAD86801920DF038F903B05DF8DC
:1009E00004EB04B0704700BFC00600201563010887
:1009F00010B50446002007F093FD09F06FF820467B
:100A0000024A0349BDE8104002F052BE49090008FD
:100A10002D09000810B5044602F06CFE014B227847
:100A20001A7010BD351B002010B502F0ABFE044655
:100A300018B101460248FFF7C7FF204610BD00BFAE
:100A400015630108014B1878704700BF371B002061
:100A500000487047381B0020014B1878704700BFD2
:100A60006C1B0020014BB3F9000070476A1B00208B
:100A7000014B93F900007047361B0020014B18789A
:100A8000704700BF341B0020036818470B680360E1
:100A900070477047024B002205201A70FFF720BFF5
:100AA0006D1B002008B5034806F002FC024B002233
:100AB0001A7008BD701B00206D1B0020014B1878B8
:100AC000704700BF6D1B0020C36810B504460BB112
:100AD0009B689847204610BD38B50546064B45F83B
:100AE000283B044606F0E4FB2846FFF7EDFF2046CE
:100AF00006F024FB204638BDEC8A010810B50446F8
:100B0000FFF7EAFF204603F09EFC204610BD0000E0
:100B100010B5034B03600446FFF7DEFF204610BD0F
:100B2000608B010838B5CB6804460D460BB15B6895
:100B30009847EB68E360204638BD000030B589B0C7
:100B400008F0D4FF102204460021684608F05EFF3A
:100B5000204B00936946204B039304A8FFF7E2FF64
:100B6000032094FBF0F000EB4000241A0234E4B2BE
:100B700007EE904A9FED197AF8EE677A67EE877A6A
:100B800017EE900A14F0FAFA05460C4607F00CF935
:100B9000134B5A6B22B993F838300BB106F09CFE18
:100BA0001048FFF791FF04A90E48FFF7BBFF2A4644
:100BB00023460B4806F064FB07F00CF904A8FFF786
:100BC00083FF6846FFF780FF074B01221A7009B0C8
:100BD00030BD00BF950A000848630108002474492D
:100BE000701B0020981B00206D1B002010B50446D0
:100BF000FFF78EFF204603F026FC204610BD0000C4
:100C000010B50C4C204606F071FA20460A4B40F80D
:100C1000283B1022002108F0F9FE012384F8383027
:100C2000064B23602046064A0649BDE8104003F003
:100C30009DBA00BF701B0020EC8A0108608B010880
:100C4000C8010020110B00080FB407B5064B074977
:100C50001B6805AAD86801920CF0F8FF03B05DF894
:100C600004EB04B0704700BFC006002054630108C5
:100C7000024B1870024B1970704700BFAA24002065
:100C8000AD2400202DE9F04F9E4A9F4C1178237827
:100C90009942A1B018BF13700C2B00F2CD80DFE891
:100CA00013F00D00420045006B01CB00A1028E073E
:100CB0000006E004F902CB00CB00AF07934B1B68A2
:100CC000B3B901232370022001F010F90446A8B142
:100CD00001F032F9039001F033F9039902468C4890
:100CE000FFF7B2FF022021B0BDE8F04F01F0F2B8EB
:100CF000012BE8D1FFF738FC0223E3E7042001F0E1
:100D0000F5F8002800F0988082498348834D09F067
:100D100095FA834B834A80481B6812782978984754
:100D20002C700420DFE70223237085E07E4F774D8F
:100D30003B78012B40F0AB802E68002E7FD0012E37
:100D400077D1DFF81C82794E98F8003053BB3378A6
:100D500043BB774B1B68032B24DC764ADFF8E89112
:100D600003EB8303D118D35C4878C9F8003001F055
:100D700041F90146704809F061FAD9F800206F493D
:100D80006D4B6F4807F008FD654B6B48D3F800A02A
:100D900009F0B6FA99F80020C1B26748D04701239C
:100DA00088F80030022001F0A1F808B301F0C4F87F
:100DB000814601F0C5F80328024616D1484661492C
:100DC00009F00CFB814680B998F800306BB15E4B9E
:100DD0005E491A685A4807F0DFFC01235C4958480D
:100DE00088F80090337007F0D7FC022001F072F809
:100DF0003378DBB1574806F0B9FEB8B1504807F078
:100E0000B9FCC0B2312877D153494D4807F0C4FC32
:100E100047490B6801330022032B32700B6067DDFA
:100E20004E49474807F0B8FC02232B603B78012B62
:100E30002DD12B68022B59D021B0BDE8F08F01F0E5
:100E4000B5F8DFF8F080DFF82CA1DFF8F49098F81F
:100E5000003098F80100039301F0CCF8324600907E
:100E6000039B51464846013607F096FC042E08F1D4
:100E70000508ECD12E4A00231360394A13702B4A1F
:100E8000137001232B603B78012B3FF45AAF0220F3
:100E900001F02CF80028CCD001F04EF8039001F0BE
:100EA0004FF8304B03990F280746A8BF0F27064677
:100EB0003A46184608F094FC2A4B2B492048002259
:100EC000DA553246009607F067FC284B0793144B1F
:100ED00001221B68032107A89847022000F0FAFFAF
:100EE0001E49174807F058FC02232B6003231BE719
:100EF00001232B60227099E71D49114807F04CFC33
:100F000094E700BFC51B0020B41B00204025002033
:100F100054630108C61B0020A4200020AC2400203C
:100F200048250020AD240020AA240020D824002039
:100F3000C424002098290020E82400209E63010892
:100F400088200020BA6301081C250020BE63010828
:100F5000E0630108CC1F00201964010855640108F2
:100F6000B4240020B51B0020B264010841434B00AB
:100F70007A6401087D6301089D4D2B78BFF35B8F78
:100F8000DB070ED4284603F007F950B1994806F064
:100F900050F9994A9949974803F0E8F8284603F030
:100FA00015F9DFF8EC82DFF8E49298F80030E3B945
:100FB0009349944807F0F0FB99F80030012B03D1D6
:100FC0009149904807F0E8FB90498E4807F0E4FB10
:100FD0008F498C4807F0E0FB864806F0C9F80123EA
:100FE00088F800308B4B00221A608B4E8B4F337881
:100FF00043BB8048874D06F0FBF82B6807EE900A4C
:10100000102B1FD8DFE803F009454E576069727B4B
:10101000848D969FA9B3BDC7D100B0EE007AF4EEDF
:10102000C77AF1EE10FA0DDD7D49764807F0B4FB82
:101030007749744807F0B0FB2B686E4801332B608A
:1010400006F0E6F899F80030012B40F0C2803378C2
:10105000002B40F0BE80734806F088FD002800F0A9
:10106000B880684807F086FB00F0DF00562840F0A3
:10107000B0806D49634807F08FFB6C4A0023136012
:1010800004222270634A88F8003013603B7033708A
:10109000D2E6B0EE0C7AF4EEC77AF1EE10FAD1DDBA
:1010A0006349C2E79FED637AF4EEC77AF1EE10FA76
:1010B000C8DD6149B9E79FED617AF4EEC77AF1EED8
:1010C00010FABFDD5E49B0E7B0EE087AF4EEC77AF9
:1010D000F1EE10FAB6DD5B49A7E7B0EE047AF4EE64
:1010E000C77AF1EE10FAADDD57499EE79FED577ACA
:1010F000F4EEC77AF1EE10FAA4DD554995E79FEDBD
:10110000557AF4EEC77AF1EE10FA9BDD52498CE77E
:10111000B1EE007AF4EEC77AF1EE10FA92DD4F49A3
:1011200083E7B0EE0C7AF4EEC77AF1EE10FA89DDBF
:101130004B497AE79FED3F7AF4EEC77AF1EE10FA69
:1011400080DD484971E79FED487AF4EEC77AF1EE09
:1011500010FA7FF777AF454967E7B1EE007AF4EE12
:10116000C77AF1EE10FA7FF76DAF41495DE7B0EE57
:10117000047AF4EEC77AF1EE10FA7FF763AF3D49D7
:1011800053E79FED327AF4EEC77AF1EE10FA7FF76B
:1011900059AF394949E7B0EE007AF4EEC77AF1EE7B
:1011A00010FA7FF74FAF35493FE7B7EE087AF4EE14
:1011B000C77AF1EE10FA7FF745AF3149114807F0D1
:1011C000EBFA30490F4807F0E7FA012333703B7020
:1011D00038E73B78002B3FF42FAE3378002B3FF4F9
:1011E0002BAE4AE72849074807F0D6FA7EE600BF4B
:1011F000B01B002020250020C801002051710008EC
:10120000D7640108882000201A6501086965010873
:10121000A365010818250020B7240020B824002069
:10122000AB650108CC1F0020396B01084025002068
:10123000E7650108333333402A6601086666864055
:1012400069660108CB6601080A67010833337340F9
:1012500053670108CDCC0C40A4670108046801085D
:101260007B680108D1680108CDCC4C401E6901089B
:101270007E690108E5690108386A0108976A010872
:10128000DA6A01080B6B0108676B0108AA240020C9
:10129000B6240020944B954E954F1878357800234E
:1012A0003A461946B94692F800C0844506D192F8EC
:1012B00002C0BCF1000F01D101231D4601310429F8
:1012C00002F10502EFD103B13570012840F0BB8077
:1012D000884E3568002D5CD1DFF84882844A4FF093
:1012E000FF33C8F800302B465178022947D1917856
:1012F000002944D003EB830307AA19F80330C8F888
:1013000000307D4B914603F1280C1868596814464B
:1013100003C4083363452246F7D119889B7821809E
:10132000A370392200210DF1470008F06FFB734CC8
:10133000BB7863B13A78D8F800309A4207D021469A
:1013400005A808F07FFD05A9484608F0E1FD013534
:10135000042D07F10507EBD1694B48461C6808F0DE
:10136000CFFF98F80020C1B24846A047D8F8002027
:101370006449654807F010FA022333605CE50133E5
:10138000042B02F10502AFD160495F4807F004FA6F
:1013900036E0022D3CD1284600F0A8FD002837D0C9
:1013A00000F0CAFD07F078FA594902460746564848
:1013B00007F0F2F9002303EB830202EB090112F8B4
:1013C0000920BA421FD1487800F014FE05464C4B64
:1013D000DFF85081D3F80090284608F091FF98F884
:1013E0000020C1B22846C847D8F8003000934949C8
:1013F00045482B463A4607F0CFF9022000F06AFD37
:101400000123336008E00133042BD4D1424DDEE7E1
:101410003368012B7FF410AD404D2B6840F6B83295
:10142000013393422B607FF707AD3D49364807F003
:10143000B3F903232370002333602B60394B4FF043
:10144000FF321A60F8E43849384808F08DFD08B9D1
:101450003378D3B13649354808F086FD0546002873
:1014600000F0C4803349314808F07EFD054600286D
:1014700040F0CF80304E336841F2883201339342DE
:1014800033607FF7D9AC2D49BAE01A4D2B68002B99
:101490005CD02B68012B40F0A480022000F026FDD8
:1014A000002800F09E8000F047FD039000F048FD0A
:1014B000039B23490246144807F06EF9022000F00E
:1014C00009FD02232B601F4E33680133B3F5FA6F19
:1014D00033607FF7B1AC1C490B4807F05DF903237B
:1014E000237000232B6048E7AA240020AB240020AF
:1014F000982900204025002035740108856B0108DB
:1015000048250020896B010888200020EC73010821
:10151000C06B0108EF6B010875630108C02400204F
:10152000306C010814020020676C0108B51B002014
:101530006E6C0108A96D0108DC240020B06D010863
:101540000C6D0108E02400202D6D0108022000F040
:10155000CDFC00289DD000F0EFFC039000F0F0FCE3
:10156000039B7D497D4EDFF8488202467B4807F0A9
:1015700013F9A6F1BC074146304607F00DF938468D
:1015800006F0F4FA0028FAD0304607F0F3F80446E3
:101590005FFA80F9303C72494A463046E4B207F0BF
:1015A000FBF8092C18D86F49A9F1300207A808F0F8
:1015B00049FC6D4B07A81C6808F0A2FE0122C1B2CD
:1015C00007A8A0476949654807F0E6F8022000F03F
:1015D00081FC01232B602FE46549304607F0DCF8DD
:1015E000C9E72B68022B7FF427AC6CE7614E3368A8
:1015F00041F288320133934233607FF71DAC5E497C
:10160000564807F0C9F8032323705C4B1D60356012
:1016100012E45B495B4808F0A7FC054650B95A4EF6
:10162000336841F288320133934233607FF704AC70
:101630005649E5E73378002B3FF4FEAB544D2B6859
:1016400040F6B832013393422B607FF7F5AB514936
:10165000424807F0A1F80323484A2370002313608F
:10166000B8E7DFF85081454D98F80030012B40F085
:10167000B9802F6807B32B68012B18D1022000F026
:1016800035FC78B100F058FC07F006F9424B4349AD
:1016900018600246314807F07FF8022000F01AFC7B
:1016A00002232B6098F80030012B40F09B802B68C0
:1016B000022B7FF4C1ABEBE0374B394E4FF0FF32DA
:1016C0001A60314632463B465078032876D19078EE
:1016D000002873D003EB8303CA5C324B1A60324B91
:1016E00007AA03F1280E9146186859689446ACE899
:1016F0000300083373456246F6D13C22002111A84D
:1017000008F084F9DFF89CA0DFF8ACB0B37863B1DF
:101710003278DAF800309A4207D0594605A808F026
:1017200091FB05A9484608F0F3FB0137042F06F1A9
:101730000506EBD10C4B1B4E1F68484608F0E0FD38
:101740003278C1B24846B84732681849034807F0B2
:1017500023F8012340E000BF746C010888200020BA
:10176000B46C0108866B010848250020B76C01089D
:10177000EC6C0108CC240020666D01084025002097
:10178000F06D0108B51B0020E4240020F86D01086D
:10179000BC240020386E010818020020056F0108E3
:1017A000982900201002002099740108D26E0108C7
:1017B000956C0108AA240020856B01080133042BD5
:1017C00002F1050280D1B94B1B68013387D1B849BA
:1017D000B84806F0E1FF02232B6098F80030012B97
:1017E0003FF449AFB449B54808F0BEFB00287FF488
:1017F0005EAFB34B1B78002B7FF459AF022000F093
:1018000075FB00283FF453AF2B68002B7FF44FAFDC
:1018100000F092FB039000F093FB039BA949A54FB6
:10182000DFF8EC920246A34806F0B6FFA7F1BC0829
:101830004946384606F0B0FF404606F097F90028C2
:10184000FAD0384606F096FF06465FFA80FA303E38
:101850009D4952463846F6B206F09EFF092E1BD827
:10186000AAF1300A9949524607A808F0EBFA984BBA
:1018700007A81F6808F044FD0122C1B207A8B847B5
:1018800094498C48524606F087FF022000F022FB64
:101890000923237000239DE68F49384606F07CFF1C
:1018A000C6E78E4F8E4D3B78012B7DD12E68002EE2
:1018B00037D02B68012B7FF4BFAA022000F016FB63
:1018C00050B300F039FB06F0E7FFDFF848828549A6
:1018D00002460646774806F05FFFD8F80000824AC5
:1018E000002303EB830101EB020C895C814240F091
:1018F00028818CF80460022000F0ECFA7B496D48E6
:1019000006F04AFF4FF0FF320823C8F80020784A5B
:10191000237000232B6013603B78012B3FF48CAACB
:1019200042E0DFF8F081DFF8C8916F49C9F8006044
:101930004FF0FF3CC8F800C0324630463346B6464A
:10194000CDF80CC091F802C0BCF1000F0ED0694B6D
:1019500091F800B043F822B04B7802F1010A012B54
:101960005246634604BFE646CDF80CB00130042869
:1019700001F10501E6D1BEF1000F00F06882039984
:10198000C8F800100BB1C9F80020D8F800300133B6
:1019900058D15949474806F0FFFE08232370002319
:1019A0002B603B78012B84D02B68002B40F02982E0
:1019B000022000F09BFA002800F01F824F493F48A8
:1019C00008F0D2FA002840F018823D4B93F80080CE
:1019D000B8F1000F40F0118200F0AEFA064600F0B8
:1019E000AFFA3346814602464549324806F0D4FEF6
:1019F00038783346B1444B4540F0A880DFF8B490C6
:101A0000DFF814B1A9F1BC0A5946484606F0C4FEF5
:101A1000504606F0ABF80028FAD0484606F0AAFE79
:101A20000646303EC2B2284903924846F6B206F056
:101A3000B3FE092E039A40F29B803249484606F0D5
:101A4000ABFEE1E7304A0DF11C0C02F1180EE24644
:101A500010685168634603C3083272459C46F7D14B
:101A60001068186091889379ACF804108CF80630EF
:101A7000212200210DF13B0007F0C8FFDFF874B010
:101A8000224BD9F80020B24248DD5BF8042BD8F88D
:101A900000108A4208D0194605A808F0D3F905A914
:101AA000504608F035FA194B0136EAE710020020DB
:101AB000856E010888200020A96D0108B51B002053
:101AC000AB2400203F6F0108B46C0108866B01084D
:101AD000482500207C6F0108EC6C0108AA24002036
:101AE0004025002039700108982900206B700108FA
:101AF000B024002008250020BF6F01086E6C01088B
:101B0000A1700108F6700108FD7401080270010857
:101B1000606F01080C020020CF700108904B504606
:101B20001E6808F0EDFB98F80020C1B25046B0479F
:101B30005346D8F800208B498B4806F02DFE012330
:101B40002EE70133042B7FF4CCAED4E613F8012B3F
:101B5000303AD1B209293FF64EAF90423FF44BAF35
:101B600020A901EB880108F1010841F8642C42E743
:101B7000A2F13006002307AA984500F0668152F8CA
:101B8000041BB14200F020810133F5E72B68012BE3
:101B900040F03F81DFF82482D8F800300133B3F5FC
:101BA000FA6FC8F8003040F3348170496E4806F08F
:101BB000F3FD082323702E60C8F8006029E16C490A
:101BC00069486C4E6C4FDFF8F891DFF89C8106F0A5
:101BD000E3FD002533787078039300F00BFA17F8D3
:101BE000012B039BCDE9000249462A4640460135B8
:101BF00006F0D2FD042D06F10506EBD1FFF776B90C
:101C00005E4E96F80090B9F1010F28D0022000F046
:101C10006DF900283FF410A900F08EF9054600F098
:101C20008FF900950346327855494F4806F0B4FDC8
:101C3000544B07934A4B01221B68032107A898477E
:101C400032785149484806F0A7FD022000F042F9D9
:101C50004E4B4FF0FF321A600023FFF765B84C4D32
:101C60002B68032B3FF7E8A8DFF85881494F98F815
:101C70000020DAB93A78CAB93E4903EB83028818E2
:101C80008078002864D0364B8A5C4348D3F800A0A3
:101C9000039208F035FB039AC1B23F48D047039A3C
:101CA0003E49314806F078FD88F80090022000F0A7
:101CB0001DF920B300F040F9814600F041F90328F6
:101CC000024619D14846364908F088FB814698B942
:101CD00098F8003083B12B68264A3249224803EB3A
:101CE0008303D25C06F058FD01232F491E4888F873
:101CF00000903B7006F050FD022000F0EBF83B78BE
:101D00000BB32A4805F032FFE8B1174806F032FD60
:101D1000C0B231281FD12B682549134801334FF039
:101D200000082B6087F8008006F036FD2B68032B37
:101D300009DD20490C4806F02FFD144B84F8008083
:101D40004FF0FF321A603378012B3FF475A85DE73E
:101D500001332B60AAE71849034806F01DFDF2E79E
:101D60004825002006700108882000201371010812
:101D700097710108982900203D750108AA240020C8
:101D80002873010841434B0062730108402500207D
:101D9000C8240020D9240020CE010020E3710108CE
:101DA000BA6301082372010848720108CC1F0020A1
:101DB0008B720108B8720108FE720108D02400205D
:101DC000B7710108B52400202349324605A808F060
:101DD00039F8224B05A8D3F8008008F091FA0122C7
:101DE000C1B205A8C0471E491E48324606F0D4FCC1
:101DF000022000F06FF801232B603B78012B3FF4A9
:101E00001BA81949194808F0AFF8064600283FF406
:101E1000BDAE3B78012B3FF40FA81349134808F0DF
:101E2000A3F800283FF408A8114E336840F6B832F2
:101E30000133934233607EF7FFAF0C4A0D490948E6
:101E400006F0AAFC0823FFF74BBB0B49F6E5002B75
:101E50007FF499AD9DE500BF866B01084825002001
:101E600084730108882000206E6C0108B51B0020D7
:101E7000D424002055710108C673010813B50B4B1B
:101E80000B4C1A780B4B1A704FF416530093032225
:101E900000230221204605F0BDFA074A07492046E3
:101EA00002B0BDE8104002F061B900BFB41B0020D1
:101EB000CC1F0020C51B0020C801002081020008A3
:101EC000034A012303FA00F01368184310607047B7
:101ED00044250020044901220B6802FA00F023EA9D
:101EE00000030B60704700BF44250020012303FA64
:101EF00000F0024B1B681840704700BF44250020CB
:101F000038B50C4601460648154607F069FC054BF6
:101F10001D70054B1C70BDE838400220FFF7D0BF94
:101F20005025002050290020512900200520FFF7CE
:101F3000C7BF0620FFF7C4BF0048704750250020E8
:101F4000014B1878704700BF50290020014B1860E2
:101F5000704700BF48250020014B1860704700BF44
:101F60004C25002010B50C4C204605F0BFF820464B
:101F70000A4B40F8283B1022002107F047FD0123BF
:101F800084F83830064B23602046064A0649BDE8EF
:101F9000104002F0EBB800BF58290020EC8A01087D
:101FA000608B0108C8010020110B0008F8B5002063
:101FB00006F0B6FA07F092FD00220B480B490C4BD5
:101FC00001261546FF24013210F801CB11F8017BE0
:101FD00083F800C0042A5F709E70DD701C7103F1ED
:101FE0000503F0D1F8BD00BF58750108547501080C
:101FF0009829002003289ABF024B53F8200002487A
:10200000704700BF44750108756301080FB407B538
:10201000064B04AA1B6852F8041BD86801920BF007
:1020200015FE03B05DF804EB04B07047C006002055
:10203000002000F05BBF00002DE9F041BDF81C500E
:10204000B5F5806F06460C4690461F4606D32248DB
:102050002946FFF7DBFF0620BDE8F081022000F0F3
:10206000A1FC08B10720F7E73146022000F0F6FC9A
:102070004FFA88F1022000F02DFD3946022000F0D1
:1020800047FD0699022000F061FD2146022000F084
:10209000C7FC8EB90B3C012C12D80121022000F0A4
:1020A000A1FC7DB90121022000F06EFD00F0D6FDFB
:1020B0000130D7D00020CFE7012E01D10C2CECD07D
:1020C0000021EBE70021022000F05EFD29460220FE
:1020D00000F078FDEAE700BF5C750108704700007A
:1020E00084B038B504AC84E80F000220DDE9085460
:1020F00000F058FC20B10720BDE8384004B070471C
:102100000C2C15D921461148FFF780FF0C21022025
:1021100000F086FCA5B90B3C012C15D8012102204A
:1021200000F060FC00F09AFD0130E4D00020E3E70D
:10213000052CEFD821460548FFF768FF0621E6E7A2
:10214000012D01D10C2CE9D00021E8E7EC75010844
:102150000FB407B5064B07491B6805AAD86801925A
:102160000BF074FD03B05DF804EB04B0704700BFE2
:10217000C00600201576010884B010B502AC84E8D2
:102180000F009DF80D10012905D0BDE8104025482D
:1021900004B0FFF7DDBF9DF8293033205BB301F0B9
:1021A00009F840F04101C9B2332000F0F8FF1921CD
:1021B0003B2000F0F4FF9DF827309DF82A402BB318
:1021C0001D21112000F0EBFF402000F0F3FF00F094
:1021D0003301402000F0E3FF00210F2000F0DFFF7B
:1021E00000210D2000F0DBFFD4B10520BDE8104038
:1021F00004B001F015B800F0DDFF00F0BE0141F0C1
:102200000101332000F0CBFF1D21D1E71F21112058
:1022100000F0C5FF402000F0CDFF00F03F01D8E7FF
:102220000620E3E71576010884B02DE9F04106ACFD
:1022300084E80F000898BDF832609DF83450BDF86E
:1022400042700B9CDDF8288000F0CAFF1D2000F0D2
:10225000B1FF9DF831309DF8301041EAC3019DF87F
:10226000363041EA881141EA430141EA8501C9B2A9
:102270001D2000F094FF1E2000F09CFFC7F30121F9
:1022800000F00C0041EA04110143C9B21E2000F025
:1022900086FFF9B21F2000F082FF310A202000F0F3
:1022A0007EFFF1B2212000F07AFF25B19DF83510B4
:1022B000222000F074FF9DF837306BB14B2000F006
:1022C00079FF60F07F01C9B24B2000F068FF9DF8F4
:1022D0003810242000F063FF062C4FF031000FD19E
:1022E00000F068FF00F0F80141F00501312000F036
:1022F00056FF0C21BDE8F041372004B000F04FBF7D
:1023000000F058FF00F0F80141F00301312000F027
:1023100046FF0A21EEE78021122000F040BF402155
:10232000122000F03CBF07B5122000F043FF8DF8EB
:1023300007009DF80700C0F3401003B05DF804FBF0
:102340002021122000F02BBF08B5192000F032FF29
:10235000030643BF4042C0F38500404240F387007C
:1023600008BD84B010B502AC84E80F009DF9384078
:102370001A2000F01FFF002CB8BF8B3C4FEA20133F
:10238000B8BF0019BDE81040A8BF8B38184400B290
:1023900004B0704738B50546132000F00BFF044623
:1023A0000146284600F016FF204638BD0FB407B599
:1023B000064B04AA1B6852F8041BD86801920BF064
:1023C00045FC03B05DF804EB04B07047C006002084
:1023D00008B528B90848FFF7E9FF4FF0FF3008BDFE
:1023E000402905D90548FFF7E1FF6FF00100F6E746
:1023F000BDE8084000F0CEBD5476010880760108A3
:10240000F8B5074601200D4614461E4600F0CAFAEC
:1024100008B10720F8BD3946012000F03DFB2946F0
:10242000012000F01BFB71B2012000F053FBBDF84E
:102430001810012000F06CFB0799012000F086FBCA
:102440002146012000F0ECFA65B90B3C012C0DD8B7
:102450000121012000F0C6FA00F0D2FB0130D8D0F3
:102460000020D7E7012D01D10C2CF1D00021F0E79D
:1024700084B038B504AC84E80F000120DDE90854CD
:1024800000F090FA20B10720BDE8384004B0704752
:102490009DF91C0000F010FC50BB012000F082FAF6
:1024A0000028F0D10C2C15D921461248FFF77EFFE9
:1024B0000C21012000F0B4FAA5B90B3C012C15D871
:1024C0000121012000F08EFA00F09AFB0130DAD0F1
:1024D0000020D9E7052CEFD821460648FFF766FF14
:1024E0000621E6E7012D01D10C2CE9D00021E8E717
:1024F0000120C9E7EC7501080FB407B5064B074981
:102500001B6805AAD86801920BF0A0FB03B05DF828
:1025100004EB04B0704700BFC0060020BA76010883
:1025200084B070B504AC84E80F0009209DF94040E8
:1025300000F040FE06465A2000F03CFE9DF81030A8
:1025400003F0FD03012B14BF00238023054606F092
:102550007F001843030600F0F00127D5112CCBBFF4
:1025600045F0070505F0F805EDB245F0040505F066
:102570000703072B12D1142CA8BF1424052CB8BFB5
:102580000524631F1943C9B2092000F008FE29463B
:10259000BDE870405A2004B000F001BE112CA8BF65
:1025A0001124022CB8BF0224A31EEBE70E2CA8BFF7
:1025B0000E2444EAE47401342143E4E784B008B50E
:1025C0000DF1080C8CE80F009DF80D10012905D0C5
:1025D000BDE80840124804B0FFF78EBF9DF82730D1
:1025E0009BB1F521112000F0DAFD402000F0E2FD62
:1025F00000F03301402041F0400100F0D0FDBDE883
:102600000840032004B000F00BBEF721112000F0B9
:10261000C6FD402000F0CEFD00F03F01EAE700BF1C
:10262000BA76010884B02DE9F0418AB010AC84E894
:102630000F009DF94C30089314AD0FCD6C46159EDC
:10264000BDF85A70DDF850800FC495E80F0084E89B
:102650000F0010AB0FCBFFF763FF129800F0C0FD27
:102660009DF85F306BB14B2000F0A4FD60F07F015E
:10267000C9B24B2000F093FD9DF86010242000F0BB
:102680008EFD1D2000F096FD9DF859309DF85810E4
:1026900041EAC3019DF85C3041EA881141EA8301B7
:1026A0009DF85E3041EA4301C9B21D2000F077FD7C
:1026B0001E2000F07FFD00F00F0141EA0611C9B2B3
:1026C0001E2000F06CFD390A202000F068FD21205A
:1026D000F9B200F064FD062E4FF0310010D100F089
:1026E00069FD00F0F80141F00501312000F057FDCF
:1026F0000C2137200AB0BDE8F04104B000F04FBD16
:1027000000F058FD00F0F80141F00301312000F025
:1027100046FD0A21EDE70821122000F040BD08B572
:1027200068B1332000F046FD00F0BE01332000F018
:1027300036FD19213B20BDE8084000F030BD3320B4
:1027400000F038FD00F0BE0141F00101332000F03F
:1027500026FD1D21EEE738B5044622200D4600F087
:102760001EFD00210E2000F01AFD00210D2000F0BA
:1027700016FD012000F01EFD30F0F80304D100F03A
:102780007DFD012005F0C0FD29462046BDE838400A
:1027900000F01BBD0FB407B5064B04AA1B6852F826
:1027A000041BD86801920BF051FA03B05DF804EBFA
:1027B00004B07047C006002010B50A4C2178814251
:1027C000024605D00848FFF7E5FF4FF0FF3004E070
:1027D000022001F001F808B9207010BD0348FFF78E
:1027E000D9FFF2E7202A0020EE7E0108447F01088D
:1027F00008B5044804F05CFD00F043FD024B0122E3
:102800001A7108BDB0290020F029002013B5174C1B
:102810002379022B03D0032B19D002B010BDFFF790
:102820005DFCFFF7E5FF032000F0D6FF012808D08C
:1028300000230F4A0093146819461A460120A04746
:10284000EBE70C4802B0BDE81040FFF7A3BF2046FD
:1028500000F05AFD94F8280000F047FD0123237191
:1028600002B0BDE8104000F0E7BF00BFF029002033
:10287000242A0020C47E01082DE9F041354C267938
:1028800088B046B134483146FFF784FF4FF0FF303F
:1028900008B0BDE8F081314B1860314B3148196008
:1028A000FFF778FF4FF4807006F03AFF2E4B186068
:1028B00028B92E48FFF76EFF6FF00100E8E74FF4EC
:1028C000FA6262620E2222730B22294B6261082295
:1028D0004FF00108A360628304230522204684F898
:1028E00020306285237084F805802677E67784F8A7
:1028F0001E8084F82160266184F81980667784F848
:10290000228084F8288000F0FFFC2546014605F867
:10291000100B1848FFF73EFF0FCD6F460FC795E825
:102920000F0087E80F0094E80F00FFF7A1FDA5F165
:10293000100CBCE80F006F460FC795E80F0087E842
:102940000F0094E80F00FFF7CBFB84F804803046BB
:102950009EE700BFF0290020BB770108282A00204D
:10296000242A00200C780108AC29002039780108BD
:102970002021F6367378010808B5042000F02CFFFA
:10298000012805D10648FFF705FF4FF0FF3008BDCD
:10299000FFF72EFF022000F01FFF0020F7E700BF27
:1029A0008978010838B5054618B90A48FFF7F2FEDC
:1029B00005E0094C217829B10848FFF7EBFE4FF0FC
:1029C000FF3004E0084600F007FF08B9257038BD65
:1029D0000348EBE7997C0108202A0020D67C0108F7
:1029E000197D010838B504460D4600F01FFF012887
:1029F000084B06D11A78A24203D1074B00201D765E
:102A000038BD06481A782146FFF7C4FE4FF0FF3064
:102A1000F6E700BF202A0020F02900203A7C0108B8
:102A200038B504460D4600F001FF0128084B06D1D9
:102A30001A78A24203D1074B00205D6138BD0648D9
:102A40001A782146FFF7A6FE4FF0FF30F6E700BFE9
:102A5000202A0020F0290020DB7B010838B504463D
:102A60000D4600F0E3FE0128084B06D11A78A24279
:102A700003D1074B00201D6138BD06481A78214656
:102A8000FFF788FE4FF0FF30F6E700BF202A002056
:102A9000F02900204D7D010838B504460D4600F0B0
:102AA000C5FE0128084B06D11A78A24203D1074B74
:102AB00000201D7338BD06481A782146FFF76AFECC
:102AC0004FF0FF30F6E700BF202A0020F029002059
:102AD0005F7A010838B504460D4600F0A7FE0128CC
:102AE000084B06D11A78A24203D1074B00205D762D
:102AF00038BD06481A782146FFF74CFE4FF0FF30EC
:102B0000F6E700BF202A0020F02900207C7B010886
:102B100038B504460D4600F089FE0128084B06D161
:102B20001A78A24203D1074B00205D8338BD0648C6
:102B30001A782146FFF72EFE4FF0FF30F6E700BF70
:102B4000202A0020F0290020A67D010838B504467F
:102B50000D4600F06BFE0128084B06D11A78A24200
:102B600003D1074B00209D6038BD06481A782146E6
:102B7000FFF710FE4FF0FF30F6E700BF202A0020DD
:102B8000F0290020667E010838B504460D4600F0A5
:102B90004DFE0128084B07D11A78A24204D1074BF9
:102BA000002083F8225038BD05481A782146FFF7E7
:102BB000F1FD4FF0FF30F6E7202A0020F029002039
:102BC000087E010838B504460D4600F02FFE0128A6
:102BD000084B06D11A78A24203D1074B00205D852D
:102BE00038BD06481A782146FFF7D4FD4FF0FF3074
:102BF000F6E700BF202A0020F02900201F7B0108F3
:102C0000F0B589B000F012FE0128114B18D11F78E1
:102C1000012F15D10F4E06F1100500F035FB0FCD39
:102C20006C460FC495E80F0084E80F0096E80F008B
:102C3000FFF7F8FC3846FFF7BFFD002009B0F0BDF4
:102C400005481978FFF7A6FD4FF0FF30F6E700BF03
:102C5000202A0020F0290020FB790108F0B589B076
:102C600000F0E4FD0128114B18D11F78022F15D177
:102C70000F4E06F1100500F007FB0FCD6C460FC498
:102C800095E80F0084E80F0096E80F00FFF7CCFAF4
:102C90003846FFF791FD002009B0F0BD05481978CE
:102CA000FFF778FD4FF0FF30F6E700BF202A002045
:102CB000F029002097790108F0B58BB0044600F0A8
:102CC000B5FD0128104B17D11F78012F14D10F4EDD
:102CD000089406F110050FCD6C460FC495E80F005F
:102CE00084E80F0096E80F00FFF71AFC3846FFF75C
:102CF00063FD00200BB0F0BD05481978FFF74AFDD1
:102D00004FF0FF30F6E700BF202A0020F029002016
:102D1000BB7A01080E4B1B79022B13B510D1FFF7BC
:102D2000FAFAFFF765FD032000F056FD012809D0EF
:102D30000023084A0093146819461A460120A04748
:102D400002B010BD044802B0BDE81040FFF722BD3C
:102D5000F0290020242A0020B17801082DE9F04153
:102D6000454E3479022C8AB067D1FFF7D8FAFFF7C5
:102D7000DAFA012829D1FFF7E3FA96F82250ADB923
:102D8000FFF736FD032000F027FD012808D03B4B5C
:102D900000951E682A462B4629462046B04711E07A
:102DA00037480AB0BDE8F041FFF7F4BC00F03EFD43
:102DB0000328F5D10023314A0093156819461A46B5
:102DC0002046A8470AB0BDE8F081FFF7BDFA06F13A
:102DD0001005089007460FCD6C460FC495E80F000C
:102DE00084E80F0096E80F00FFF7BBFA254C8046F9
:102DF0002068FFF7CFFA96F8226005468EB9FFF7F4
:102E0000F7FC032000F0E8FC012808D01B4B0097DA
:102E10001F68216843462A463046B847D2E71A4819
:102E2000BFE700F003FD0328F9D1144B00971E689B
:102E3000216843462A460020B0E7032C14D11348EA
:102E400004F036FAFFF767FCFFF7D2FC204600F0EB
:102E5000C3FC012806D00E4B1B6800200AB0BDE859
:102E6000F04118470B489CE70B4821460AB0BDE8E3
:102E7000F041FFF78FBC00BFF0290020242A00207A
:102E8000F4760108AC29002030770108B029002031
:102E9000282A00206B7701089F7701082DE97043ED
:102EA000044699460D46904604F07EFF636B23B9B5
:102EB00094F838300BB104F00FFD04F12806AE424F
:102EC0000BD03046FDF700FE3EB1EB681BB15B68EE
:102ED000294630469847EB68636342464B46204696
:102EE00004F0CEF9BDE8704304F074BFF0B50646B7
:102EF0008DB0012000F070FC012806D11E48FFF7BC
:102F000049FC4FF0FF300DB0F0BD1C4B1C4F186852
:102F10004FF48072002107F1100506F077FD0FCD08
:102F20006C460FC495E80F0084E80F0097E80F0087
:102F3000FFF722F902233B71E6B11022002108A815
:102F400006F064FD0F4B089330460F4B0B9311F0C6
:102F500023FD00220D4B11F099FD12F02FF90246CE
:102F60000B460B4808A9FFF799FF08A8FDF7ACFD31
:102F70000020C8E73046C6E7E0780108AC29002009
:102F8000F02900200D2800084863010800408F4008
:102F9000B0290020F0B5304C2379032B8FB00646C2
:102FA0000D4606D12D48FFF7F5FB4FF0FF300FB06F
:102FB000F0BD042000F010FC0128F3D0FFF718FC4E
:102FC0000A2005F0A1F9022000F006FC012000F023
:102FD00003FC012801D12248E5E763791BB1012BED
:102FE00003D000270CE01F48DDE794F82100FFF72D
:102FF00096FB2946304684F82E50FFF7ACFB676AF3
:10300000194E08970FCE6D460FC596E80F0085E85C
:103010000F0094E80F00FFF7D1FA032310220021DC
:103020000AA8237106F0F2FC104B0A933846104BA5
:103030000D9311F0B1FC00220E4B11F027FD12F0A0
:10304000BDF802460B460C480AA9FFF727FF0AA85D
:10305000FDF73AFD0020AAE7F029002007790108D2
:10306000377901085E790108002A00200D28000840
:103070004863010800408F40B029002010B50C4C77
:10308000204604F033F820460A4B40F8283B102233
:10309000002106F0BBFC012384F83830064B236086
:1030A0002046064A0649BDE8104001F05FB800BF5F
:1030B000B0290020EC8A0108608B0108C8010020BB
:1030C000110B000810B50446044B40F8B83BD4F887
:1030D000C4300BB19B689847204610BD7C8C01081A
:1030E0000FB407B5064B07491B6805AAD8680192BB
:1030F0000AF0ACFD03B05DF804EB04B0704700BF0C
:10310000C0060020A77F0108F8B50D4C0D4F2368BD
:103110001646E2681B040D46136040F08001094822
:1031200004F008FB013D2E44B54205D015F8011FFF
:10313000384604F0FFFAF7E7A36822681A60F8BD82
:10314000E82A0020202B0020F8B50E4C0E4F2368F3
:103150001646E2681B040D46136000F07F010A4822
:1031600004F0E8FA013D2E44B54206D0002138466D
:1031700004F0E0FA05F8010FF6E7A36822681A6088
:10318000F8BD00BFE82A0020202B002010B504461F
:10319000FFF798FF204601F056F9204610BD07B50D
:1031A00002AB012203F8011D1946FFF7ADFF03B082
:1031B0005DF804FB07B501220DF10701FFF7C4FF1D
:1031C0009DF8070003B05DF804FB0A4601460020A5
:1031D000FFF79ABF0A4601460020FFF7B5BF00007F
:1031E00010B511F0D9FB0CA3D3E9002311F078FD41
:1031F00011F024FF0446C0F307410620FFF7CFFF7C
:10320000C4F307210720FFF7CAFFE1B20820BDE899
:103210001040FFF7C4BF00BF0000000080844E4094
:10322000144910B50A78044690B932B901230B70DD
:10323000114BDA681B681B0413600120FFF7BAFF0B
:1032400000F0F80121430120BDE81040FFF7A7BFBF
:10325000094B2AB11A6800200870D96812040A6064
:10326000032C1A6803D0DB6812041A60E5E79B6838
:10327000FBE700BFFC2B0020CC2A00200120FFF739
:10328000CFBF0020FFF7CCBF10B504460120FFF7E9
:1032900091FFC0F3C010844226D0012C13D0FFF759
:1032A000F0FF0120FFF786FF00F07F010120FFF70C
:1032B00076FF00214020FFF772FF30214120BDE85A
:1032C0001040FFF76CBFFFF7DCFF2046FFF772FFEF
:1032D00060F07F01C9B22046FFF761FF0021402066
:1032E000FFF75DFF0021E9E710BD10B5044601209E
:1032F000FFF7CAFF2CB134213920BDE81040FFF799
:103300004EBF1221F8E700002DE9FF47594C054652
:1033100004F04AFD0121204600F000FC04F05AFDB3
:103320002368E2681B041360012004F0EDFF04F041
:103330003BFD2046002100F0F1FB04F04BFD062090
:1033400004F0E2FF2E784C4C042E1CD104F02CFD2E
:103350000021204600F0E2FB04F03CFD012004F0D7
:10336000D3FF63681A6823681A4214BF0126002637
:1033700004F01AFD2046012100F0D0FB04F02AFDE4
:10338000012004F0C1FF2368E2683C483C4C1B0468
:1033900013603C4B9A681B6813600821002204F0FC
:1033A000A7F9394804F0A2FF0020FFF739FF1022E7
:1033B000ACBB2146684606F029FB69463348344CCD
:1033C00004F0A5F86846FDF77FFB10227CBB214680
:1033D000684606F01BFB69462E48DFF8C8802E4C75
:1033E00004F095F86846FDF76FFB4FF003090023E2
:1033F0005F1CDBB2D8F80020B2FBF9F29A421ED96A
:1034000003EB430304EB030AE05CFFF73DFF9AF88C
:1034100002109AF80100FFF7C2FE3B46E8E70021E0
:10342000684606F0F3FA1D4B00940393C5E70021AC
:10343000684606F0EBFA194B00940393CBE76879E2
:10344000174CFFF721FF95F82800FFF74EFF4220A9
:10345000FFF7B0FE38B92046FFF742FE4FF07E502E
:1034600004F044FFF3E7A868FFF7BAFE304604B063
:10347000BDE8F087042B0020CC2A0020202B002060
:103480005D2D0008E82A0020CDCCCC3D2C2A002060
:10349000152D00087C2A0020747F0108486301086C
:1034A000A77F01081C02002073B5224D224C234E39
:1034B0000A21284603F0D0FF2846214D22463146F6
:1034C00000F054FE1321284603F0C6FF2246314681
:1034D00028461C4D00F04AFE4FF0FF3300930622B1
:1034E00005230721284604F057F9224616492846A5
:1034F00000F03CFE154B1C2422461846002106F025
:1035000085FA162103F05EFF114B22461846002172
:1035100006F07CFA002103F042FF0E4B2246002108
:10352000184606F073FA212102B0BDE8704003F09E
:1035300036BF00BF2C2A0020C8010020B17400084B
:103540007C2A0020202B0020C5300008E82A00201B
:10355000042B0020CC2A00200FB407B5064B04AA88
:103560001B6852F8041BD86801920AF06FFB03B085
:103570005DF804EB04B07047C006002013B5084B9B
:103580000024CDE900340122082307212046FEF75C
:1035900053FDFEF74DFD034B1C7002B010BD00BF84
:1035A0002021F636FD2B002010B5044648B9FFF760
:1035B000E3F9FFF7E3FF084B1B682046BDE8104026
:1035C0001847012807D1FFF7D7F9FFF7D7FF024BBC
:1035D00002201B68F2E710BD402C00202DE9F041CD
:1035E000884615461F469DF9186000283BD1202AC1
:1035F00003D92648FFF7B0FF2025254C2A4641462F
:10360000204606F0EDF8234B1F80234B1E702678D2
:103610002746FEB9214BA4781B78A34201D0FF2C8A
:103620001BD1A4F1FF035C425C4101261C4B1B78BB
:10363000ABB9FFF7A1F9FFF7A1FF012E24D1194B78
:10364000787819492A1F1D68D2B22346AC46BDE8D6
:10365000F041604700242646E8E73446E6E7134891
:10366000FFF77AFFE9E7013801280DD80C4B1B78EA
:103670002BB9FFF781F9BDE8F041FFF77FBF0B4899
:10368000BDE8F041FFF768BFBDE8F081B4800108F4
:10369000FE2B00204A2C0020482C00204C2C00201F
:1036A000FD2B0020442C0020022C0020F980010872
:1036B0000A4B10B518700A4B19600A4B0A491A6078
:1036C00004460A48FFF7D8F8094B00225C701A70CC
:1036D000FFF752F9BDE81040FFF750BF4C2C002017
:1036E000402C0020442C0020DD350008A9350008BE
:1036F0001E2C0020F7B5184F3C7834B117482146EE
:10370000FFF72AFF012003B0F0BD1C2905D914489A
:103710002022FFF721FF0320F5E7124D0E1DAA70AE
:10372000F6B20A460146281D2C70EE7006F058F8D5
:10373000FFF722F90C4A0823CDE900322146012384
:1037400007220E20FEF75CFE31462846FEF740FEBB
:1037500001233B702046D6E7FD2B0020C97F0108DE
:103760000A8001081E2C00202021F636014BB3F9F7
:10377000000070474A2C0020014B93F9000070476D
:10378000482C002010B5074B1C78012C05D10648A9
:103790002146FFF7E1FE204610BD044B18700020C3
:1037A000FAE700BFFD2B0020548001084C2C0020BC
:1037B0000FB407B5064B07491B6805AAD8680192E4
:1037C0000AF044FA03B05DF804EB04B0704700BFA0
:1037D000C00600206E81010837B501460D480E4A2B
:1037E000037803EB83052A44545C012C06D00B4B71
:1037F0002B445B5C0370204603B030BD0848642254
:1038000002FB03000090074802FB01020648FFF795
:10381000CFFFF0E74D2C00205A81010846810108B6
:1038200014040020200200206E810108014B18784A
:10383000704700BF4D2C0020014B00221A707047CA
:103840004D2C002043692DE9F0410D46D90704466F
:1038500028D58168334F8268334E836833483940B6
:10386000B94202EA060204BF0127A760B24203EA96
:10387000000304BF4FF48076A660834204BF4FF478
:103880008030A0602748814205D027498A4202D073
:10389000264A934206D1264B264A1B6852F8250039
:1038A00001219847E2686369920708D09F0706D50F
:1038B0001F4B204A1B6852F8250000219847A16938
:1038C000626963698E070AD5900508D5190406D583
:1038D000174B184A1B6852F8250005219847A7691D
:1038E0006669626917F0040706F4806609D046B17C
:1038F000120406D50E4B0F4A1B6852F8250007210B
:10390000984763695FB156B11B0408D5084B094A53
:103910001B6852F825000221BDE8F0411847BDE8B8
:10392000F08100BF03000004000300080000031042
:10393000582C0020502C002000210148FFF782BFA6
:1039400000640040FFF7F8BFFFF7F6BF0121014810
:10395000FFF778BF00680040FFF7F8BFFFF7F6BF3A
:1039600030B5036891FAA1F4B4FA84F491FAA1F1A4
:103970000325B1FA81F1640005FA04F4490023EA51
:10398000040302FA01F11943016030BD00B50023C0
:1039900089B007286FD8DFE800F00413202D3A47DC
:1039A00054610093364B37481A6B42F001021A6398
:1039B0001B6B03F001030093009B09B05DF804FB4F
:1039C00001932F4B30481A6B42F002021A631B6BB3
:1039D00003F002030193019BEFE70293284B2B486E
:1039E0001A6B42F004021A631B6B03F00403029388
:1039F000029BE2E70393224B25481A6B42F0080230
:103A00001A631B6B03F008030393039BD5E704932E
:103A10001B4B20481A6B42F010021A631B6B03F019
:103A200010030493049BC8E70593154B1A481A6BBF
:103A300042F020021A631B6B03F020030593059BE1
:103A4000BBE706930E4B15481A6B42F040021A630F
:103A50001B6B03F040030693069BAEE70793084BEE
:103A60000F481A6B42F080021A631B6B03F080034D
:103A70000793079BA1E70B4804F0FEFC00209CE79E
:103A800000380240000002400004024000080240EA
:103A9000000C0240001002400014024000180240D6
:103AA000001C024044840108431C10B5044604D1A4
:103AB00076220649064803F04FFF2046002100F019
:103AC0000DFE04F00F040120A04010BD6584010824
:103AD000BF84010870B504464B1C0E46218216D0E7
:103AE000C1F30310FFF752FF05463046FFF7DCFF36
:103AF000238A074A656103F00F03206052F82330E0
:103B0000A36105F1100318356360A560E56070BD21
:103B10007C870108B0F9100000F078BE0A4619B998
:103B200081694069FFF71CBF0122F9E74C23F0B51A
:103B30004343224E224F1A1D324400244FF0010EFF
:103B40001E448C4205D10146BDE8F0401D4804F0FA
:103B500093BC33680EFA04F51D422BD0136B7D69BC
:103B60000EFA03F32B4225D0D2F818C07B611568FA
:103B700005B3FA6833EA020203D1BA6833EA0202F3
:103B800014D10F4A916833EA010103D1D26833EAB4
:103B900002020DD1DCF81020134214BF01210221D2
:103BA000094B28461B68BDE8F04018470221F7E79B
:103BB0000121F5E701340432C3E700BF5C2C00208B
:103BC000003C0140F9840108702E002006210846BF
:103BD000FFF7ACBF05210846FFF7A8BF012104206D
:103BE000FFF7A4BF01210320FFF7A0BF012102209E
:103BF000FFF79CBF01210846FFF798BF0121002075
:103C0000FFF794BF012910B518D11B4C838952B11D
:103C1000A26803F00F0399401143A160836843F049
:103C20000103836010BDA26803F00F03994022EAEC
:103C30000101A160836823F00103F2E70229F1D1B9
:103C40000D4983895AB1CC6803F00F03012202FAAF
:103C500003F32343CB60836843F00203E1E7CA68C0
:103C600003F00F03012404FA03F322EA0303CB60F9
:103C7000836823F00203D4E7003C0140B0F90C3024
:103C800099B270B501F00F0606F00C0404F18044FF
:103C900004F59C3401F00301A56889000F228A40D5
:103CA000C3F3031325EA02058B402B43A3600F4B9C
:103CB00001221968B240114319608468E50742BFC8
:103CC000996811439960A10742BFD9680A43DA6035
:103CD00090F90030002B08DB5909012203F01F0383
:103CE00002FA03F3024A42F8213070BD003C014061
:103CF00000E100E02DE9F04F92464A1C85B0804675
:103D00000C4666D000220392334A344F516C41F482
:103D100080415164526C02F480420392039A04F091
:103D20000F090C2202FB0972C4F303105568062D1B
:103D300047D8DFE805F0043A3C3E40424400284EB4
:103D40000193FFF723FE0C2101FB09F17A1857F8C4
:103D500001E0244FA8F80C404C21694301247B5812
:103D600092F90820C8F8045004FA0EF44FF0000B42
:103D70001C4388F80020C8F808B07C50132101FBD0
:103D800005E507EB8501019B4B60174BC861C3F844
:103D900000A0164BC1F834909B681032404643F89F
:103DA0002260FFF76BFF584610E0114EC8E7114E36
:103DB000C6E7114EC4E7114EC2E7114EC0E7114EDF
:103DC000BEE7114804F058FB4FF0FF3005B0BDE8E6
:103DD000F08F0846FAE700BF00380240248501084A
:103DE000FD3B00085C2C0020702E002000ED00E060
:103DF000F53B0008ED3B0008E53B0008DD3B000813
:103E0000D53B0008CD3B0008D28401088389184ABD
:103E100003F00F03012110B501FA03F39468DB43AB
:103E20001C409460D4681C40D46014682340136024
:103E300090F90030002B0CDB5A0903F01F0301FA44
:103E400003F320320B4941F82230BFF34F8FBFF309
:103E50006F8F90F90030002B09DB5A09012103F024
:103E60001F0301FA03F36032024941F8223010BD0A
:103E7000003C014000E100E0838903F00F020C23C5
:103E80005343104A70B54468D658FFF7BFFF4C2122
:103E90000D4A6143012000FA06F55058132303FB35
:103EA000046320EA0500505002EB830000214160CA
:103EB000981D0C3302EB800002EB830341605960D4
:103EC00070BD00BF248501085C2C002008B503F0FC
:103ED0007DF8002008BD000008B50A4B1B684BB1F7
:103EE00003F074FA04F085F94FF47A72002311F0AC
:103EF00015F908BD03F0BEF84FF47A73B0FBF3F088
:103F000008BD00BF742E002010B588B003F04CFF30
:103F1000052101A803F056FA0424039B019A1A60B4
:103F2000962004F0F1F9019B049A1B04136096207B
:103F300004F0EAF9013CF0D10424039B019A1A60D1
:103F40004FF4C87004F0E0F9019B049A1B0413605D
:103F50004FF4C87004F0D8F9013CEED1DCE7000062
:103F600070B50D46A0B0044603F01EFF2B46224656
:103F7000802168460BF0B8FA051E03DC03F02AFF27
:103F800020B070BD094B1B6823B9032202210848E9
:103F900000F090FE064E00241DF804103046013457
:103FA00001F06AF8A542F7D1E8E700BFBC2E002077
:103FB000643000200FB407B504A951F8040B019137
:103FC000FFF7CEFF03B05DF804EB04B070470000CC
:103FD00008B502F0A9FF01F0ADF802F095FF02F07C
:103FE000A3FF024B01221A6008BD00BF742E0020FF
:103FF00000207047036801221B69002118470368ED
:1040000000221B691146184703681B69184703689B
:104010009B69184703689B6A184700290CBF6FF01B
:10402000180000207047012070471120704770472A
:104030006FF01C0070476FF015007047012070474B
:104040000020704770470000F8B5074E15460C4633
:104050008F18BC4205D014F8011B304601F00CF853
:10406000F7E72846F8BD00BF6430002038B58DB2B0
:1040700015F0010405D0084800F098FD041C18BF95
:104080000124EB0605D5044800F0A6FD08B144F074
:104090001004204638BD00BF6430002010B504462F
:1040A00005F046FB204610BD10B50C462AB1044869
:1040B00000F0D0FF2070012010BD104610BD00BFE1
:1040C0006430002038B51D46074B0360074B1B6862
:1040D000044633B9064800F0EDFD2946044800F0D7
:1040E000B1FD204638BD00BF60860108BC2E00200F
:1040F00064300020002070470020704708B5012080
:1041000000F036F80C4A136810B51844EFF3088134
:10411000884205D3094B0C221A604FF0FF3010BDC6
:1041200007490C6824B10749096821448842F1D243
:104130001060184610BD00BFA40600202C300020DF
:10414000882E00208C2E0020074C08B523680546D9
:10415000986804F0DFFC2368D86804F0DBFC0DB13C
:10416000FFF7D2FEFEE700BFC00600200120704727
:1041700008B5FFF7E9FF01207047002105F082BD77
:1041800004F002BD7047704708B5FFF7FBFF08BD9C
:1041900008B5FFF7F8FF08BD10B5037803F0030377
:1041A000012B04460CD02BB140F2A9520549064818
:1041B00003F0D2FB237843F002032370012010BDEB
:1041C000002010BDA8860108FF86010810B50378FD
:1041D00003F00303022B044605D040F2B152054917
:1041E000054803F0B9FB237823F0030343F00103F0
:1041F000237010BDA8860108258701083F2870B5E7
:1042000004462FDC184D55F820305A1C13D10228D3
:1042100011DCFFF771FF034658B92046FFF76AFF2C
:10422000034630B9114E3378BFF35B8FDB0704D5FB
:104230000F4B45F82430184670BD3046FFF7ACFFF1
:104240000028F5D04FF41653032202210848FFF747
:1042500039FF3046FFF7BAFF064A07490448FFF71F
:1042600085FFE5E70023E6E7A4050020782E00207F
:10427000842E0020C80100204540000838B50546BE
:10428000FFF7BCFF0B4B002443F8254030B904F086
:1042900007FB092303604FF0FF3038BD03685B69FB
:1042A0009847051E04DA04F0FBFA6D420560F2E758
:1042B000204638BDA4050020FFF7E0BF38B50C4606
:1042C0001546FFF79BFF38B904F0EAFA09230360AB
:1042D0004FF0FF34204638BD03682146DB682A468C
:1042E0009847041EF6DA04F0DBFA64420460EFE754
:1042F00008B5131E06DA04F0D3FA162303604FF054
:10430000FF3008BD04D0FFF7D9FF40EAE07008BDD8
:10431000184608BD38B50C461546FFF76FFF38B98B
:1043200004F0BEFA092303604FF0FF34204638BD85
:10433000036821469B682A469847041EF6DA04F073
:10434000AFFA64420460EFE7002A08B503DBBDE87A
:104350000840FFF7DFBF04F0A3FA162303604FF015
:10436000FF3008BD10B5FFF749FF044628B904F037
:1043700097FA09230360204610BD0368DB6998475C
:10438000041EF8DA04F08CFA644204600024F2E7B8
:104390001FB504220C4640230DEB020101900DF1E4
:1043A00009008DF8083005F01BFA214602A804F038
:1043B00079FD044630B10198FFF7D4FF10B12046D3
:1043C000FFF7DBFE204604B010BDFFF7CBBF38B5CA
:1043D0000C461546FFF712FF38B904F061FA0923BD
:1043E00003604FF0FF34204638BD036821461B6947
:1043F0002A469847041EF6DA04F052FA6442046032
:10440000EFE7FFF7E4BF38B50D46FFF7F7FE0446C8
:1044100030B904F045FA092303604FF0FF3038BD8E
:104420000368DB699847002814BF4FF400534FF42A
:1044300000436B60236820469B6A984728610020F0
:1044400038BDFFF7E0BF05F073B90000034610B5B3
:1044500053F8042B044602B9036022689A4204D040
:104460005E220349034803F077FA206810BD00BFBD
:10447000E48501084386010810B504460948FFF7A2
:10448000E5FF0023084A194652F82300A04208BF5E
:1044900042F823100133402BF6D10248FFF7D6FF34
:1044A00010BD00BF7C2E0020A405002010B50F48D1
:1044B000FFF7CCFF0E4B032453F824206AB10134DC
:1044C000402CF9D104F0ECF9182303600748FFF7FA
:1044D000BDFF4FF0FF34204610BD4FF0FF320348C0
:1044E00043F82420FFF7B2FFF5E700BF7C2E002041
:1044F000A405002010B50446FFF7D8FF0028A4BF8C
:10450000014B43F8204010BDA405002070B50646BD
:104510000C46FFF7EFFF054690B12146FFF738FF45
:10452000044630B9074B53F82520964203D143F88F
:104530002500204670BD04F0B3F909230360F8E7B5
:104540000446F6E7A40500200EB42DE9F04185B03D
:104550000546FFF7ABFF041E13DB0023294602A824
:10456000019303F05DFE02A803F0ACFE1B4D06466E
:1045700068B904F095F91323036045F824604FF0FF
:10458000FF34204605B0BDE8F04103B0704702A8F3
:1045900003F086FE074602A837B103F08AFE0190B9
:1045A000019B45F82430ECE703F071FE0646002835
:1045B000DFD0036802A8D3F8088003F05DFE0B9BF0
:1045C000024601A93046C04706460028E8D004F05C
:1045D00067F97642066045F82470D0E7A40500200C
:1045E00073B50E461849054605F0BEFC044620B9D1
:1045F000FFF704FE204602B070BD1449284605F0BE
:10460000B3FC20B90120FFF7F9FD0124F2E71049BE
:10461000284605F0A9FC20B90220FFF7EFFD02248F
:10462000E8E72B78402B07D10422691C0DEB020030
:1046300005F0D6F8019CDDE726F400412846FFF797
:1046400083FF0446D6E700BF6C8701087387010823
:104650006487010870477047074B08499A68084803
:1046600010B5043A52F8044F41F8044F8142F9D191
:104670004FF000529A6010BD00ED00E0FCFFFF1FFC
:10468000C001002008B5FFF7E7FFFFF7A1FCFFF727
:10469000E2FF08BD08B5FFF7DDFFBDE80840FBF706
:1046A0000BBE30B5C36891FAA1F4B4FA84F491FA60
:1046B000A1F10325B1FA81F1640005FA04F449007F
:1046C00023EA040302FA01F11943C16030BD012A53
:1046D00002D0022A18BF0022FFF7E3BF2DE9F04104
:1046E0000E46411C044604D13E224449444803F08E
:1046F00033F904F00F08434BC4F3031053F8285068
:10470000FFF744F906F007070446836895FAA5F118
:10471000B1FA81F195FAA5F20320490000FA01F1FE
:10472000B2FA82F223EA01035200022101FA02F2F4
:104730001343A36087425AD8DFE807F05E1D021DCD
:10474000B8F1070FC6F303203BD9626A2B0A93FA2C
:10475000A3F1B1FA81F193FAA3F34FF00F0EB3FA7C
:1047600083F389000EFA01F19B0022EA010200FAAC
:1047700003F3134363623B46226895FAA5F0B0FA4F
:1047800080F095FAA5F14FF0030EB1FA81F14000E7
:104790000EFA00F0490022EA00028B40013F134369
:1047A000012F236005D8636832074CBF2B43AB430E
:1047B0006360C6F3011229462046BDE8F041FFF7C9
:1047C00086BF226A95FAA5F3B3FA83F395FAA5F1A9
:1047D0004FF00F0EB1FA81F19B000EFA03F389003E
:1047E00022EA030200FA01F313432362C3E76722BC
:1047F0000249054803F0B0F80023BDE7BC87010873
:10480000BF8401087C870108B38E0108431C70B582
:1048100006460D4604D188221B491C4803F09CF82B
:1048200006F00F021A4BC6F3031053F82240FFF7AD
:10483000ADF804FB04F2016802EB42030B40B3FB4A
:10484000F2F3013B012B05D8EB1E022B436809D87C
:1048500023434360032D08D101222146BDE8704067
:10486000FFF735BF23EA04034360012DF4D0052D83
:1048700001D0022D01D10222EFE721460022BDE83E
:104880007040FFF70EBF00BFBC870108BF8401085E
:104890007C87010870B5A6B03422002102A805F07B
:1048A000B5F85C2200210FA805F0B0F82A4B1D686E
:1048B000002D4FD1294C019501261E60236C43F039
:1048C00080532364236C03F080530193019B00F019
:1048D0005DFC042302A802930895049600F0C0FF33
:1048E00010B11F4803F0C8FDA36823F4F813A360B8
:1048F000A36823F4F813A360236F43F48073236742
:1049000020230F930FA84FF480731F9300F058FDDE
:1049100010B1144803F0B0FD134B144801221A6083
:10492000134B036003220023826041F6FF7243773A
:104930004360C26003614361836101F05EF910B1BD
:104940000C4803F099FD094801F089FA10B10A48B2
:1049500003F092FD26B070BD982E00200038024072
:1049600014880108348801083C0E47429C2E002020
:10497000002800405D88010877880108F0B51F4BCA
:104980001F491C681F4A5D688BB00C4015401E46CD
:104990000F461868084084422BD158681040854261
:1049A00027D105F03F0001F051FA0490C5F304202F
:1049B00001F04CFA01380590280C01F047FA443018
:1049C0000690C4F3054001F041FA0390C4F30620B9
:1049D00001F03CFA029004F07F0001F037FA012266
:1049E0000190694601A802F0D5FF00B100980BB014
:1049F000F0BD346875683C401540CAE700280040A7
:104A00007F7F7F003FFFFF00024BD868C0F300109C
:104A1000704700BF00280040214B224A2DE9F04199
:104A20001D691C689E6AC5F30E051440184617469A
:104A3000196811408C422ED1996A8E422BD1C4F351
:104A4000054001F003FA0746C4F3062001F0FEF921
:104A5000804604F07F0001F0F9F9134A13493C2322
:104A600013FB08004FF4616303FB0700136814682D
:104A700098420B683CBF03F5A83303F5C0731B1BBA
:104A800003440B6010600868013DC00305EB900013
:104A9000801BBDE8F0810468866A3C40C8E700BF1F
:104AA000002800407F7F7F00942E0020902E002061
:104AB00030B591B000211422044602A8019104F0FF
:104AC000A5FF03F071F92A4B2A4A1A6007A90122AF
:104AD000204602F0AFFF002848D00D9B03B9072302
:104AE0008DF804300B9B01338DF805300A9B8DF84F
:104AF00006300C9B443B8DF80730099B8DF808303D
:104B0000089B8DF809300024079B8DF80A308DF83A
:104B10000B4005940694FFF77FFF9DF809109DF860
:104B20000A2013483C2313FB01229DF808304FF460
:104B3000616101FB0323104A13600E4B224601A959
:104B40009D6A01F0B3F810B10C4803F095FC002207
:104B500002A9074801F00AF910B1094803F08CFCDA
:104B6000044A936A9D42FCD103F034F911B030BD80
:104B70009C2E002000280040942E002090880108E0
:104B8000A78801080FB407B5064B07491B6805AA9B
:104B9000D868019209F05AF803B05DF804EB04B04C
:104BA000704700BFC0060020BE8801084368094A5C
:104BB0009B0182B0D3581A68120706D500220192D1
:104BC0001A6801925A680192019A1868C0F340105D
:104BD00002B07047B03000204368034A9B01D358AD
:104BE0001868C0F3C0107047B03000204268144904
:104BF000920110B404685450531882685A60C26815
:104C00009A600269DA6042691A61026A9A61002256
:104C1000DA84DA619A84DA859A85B0F91A20013249
:104C200006D108225A6118465DF8044B01F0B1BE66
:104C3000B0F9182001320CBF04220C22F2E700BFA9
:104C4000B030002010B581600C46FFF7CFFF28B1CF
:104C500021460348BDE81040FFF794BF10BD00BFD8
:104C6000BE880108124B984217D0A3F54C439842D6
:104C700015D003F58063984213D003F58063984202
:104C800011D003F5806398420FD003F54443984256
:104C90000CBF05204FF0FF30704700207047012007
:104CA000704702207047032070470420704700BF00
:104CB00000100140F0B50E4687B004465B4930460F
:104CC000154602F0BBFC5A490746284602F0B6FCDE
:104CD0000146384602F08CFC2060013004D13D22B0
:104CE0005449554802F038FE022E0CD0032D0AD04C
:104CF0004E49022002F0A2FC874202D14F4803F045
:104D0000BBFB002700E001274D4B206898424FF085
:104D100000031AD100934B4B5A6C42F010025A64B4
:104D20005B6C03F010030093009B474B984229D122
:104D300000230593434B5A6C42F020025A645B6C8B
:104D400003F020030593059B1CE0404A90420BD1E1
:104D500001933C4B1A6C42F400321A641B6C03F44E
:104D600000330193019BE0E7394A904240D102931E
:104D7000344B1A6C42F480221A641B6C03F48023B7
:104D80000293029BFFF76EFF0028606004DAA42202
:104D90002849304802F0E0FD2449304602F004FC86
:104DA0002349284602F000FC721C03D00121304642
:104DB000FFF72CFD6B1C03D001212846FFF726FDD1
:104DC0004FF41653A3600023E36023616361236201
:104DD000268365832046FFF709FF3FB11E4B1F481E
:104DE00001221A6021464C2204F0FAFC07B0F0BD03
:104DF0001B4A90420BD10393124B1A6C42F40022CF
:104E00001A641B6C03F400230393039BBAE7154A4F
:104E100090428AD104930B4B1A6C42F480121A64AC
:104E20001B6C03F480130493049BABE7CC83010851
:104E300054830108E8880108448901086089010851
:104E400000100140003802400014014000440040BE
:104E50000048004095890108BC2E002064300020E5
:104E6000004C004000500040002808DB42090123AC
:104E700000F01F0003FA00F0014B43F822007047D6
:104E800000E100E000280DDB4309012200F01F00D3
:104E900002FA00F02033044A42F82300BFF34F8F98
:104EA000BFF36F8F704700BF00E100E0F7B5FFF779
:104EB000D9FE071E26DB144E56F8270010B3134CFC
:104EC000BD0163591A68120606D5DB68190603D5B9
:104ED0000F4B01211B68984763591A68920608D541
:104EE000DB68980605D50A4B56F827001B68002199
:104EF000984763591A68110704D55A69D20744BF05
:104F00005B68019303B0F0BDC42E0020B0300020D8
:104F1000C02E00200148FFF7C9BF00BF00140140A8
:104F20000148FFF7C3BF00BF005000400148FFF732
:104F3000BDBF00BF004C00400148FFF7B7BF00BF36
:104F4000004800400148FFF7B1BF00BF00440040E7
:104F50000148FFF7ABBF00BF00100140034B1960D1
:104F60004168034B43F82120704700BFC02E00204A
:104F7000C42E002030B490E818002C48834233D06F
:104F80000AD8A0F50060834228D000F580608342F3
:104F900027D0002318460FE0254883420AD000F5A9
:104FA0008060834223D0A0F544408342F1D1214B5D
:104FB000352001E0204B2520204DA401FAB1C9B9CC
:104FC0002959CA6842F02002CA601D4A00F1100146
:104FD000926830BC42F82130FFF746BF194B2620BB
:104FE000EAE7194B2720E7E7184B3420E4E7184B92
:104FF0004720E1E72959CA6842F08002E4E72B59CB
:10500000DA6849B922F02002DA60DB6813F0800F19
:1050100009D130BCFFF736BF22F08002DA60DB68CE
:1050200013F0200FF4E730BC704700BF004C004085
:1050300000100140214F0008514F0008B0300020FF
:1050400000ED00E0454F0008394F00082D4F0008E3
:10505000154F000838B5446805462846FFF7A6FDF9
:105060000028FAD0A401034B1B595868C0F308006C
:1050700038BD00BFB030002070B5456806460C460C
:105080003046FFF7A9FD0028FAD0AD01024B5B596D
:10509000C4F308045C6070BDB030002008B50E4A4F
:1050A000C36D934214D008D8A2F5806293420FD00A
:1050B0000A4803F0E1F9002008BD094A934203D0F1
:1050C00002F580629342F3D1BDE8084000F04AB98E
:1050D000BDE8084000F036B9003C0040A78901084F
:1050E00000300140DFF830D0002103E00B4B5B586B
:1050F000435004310A480B4B42189A42F6D30A4AED
:1051000002E0002342F8043B084B9A42F9D301F035
:105110001FFEFBF77BF87047000002204098010853
:10512000C80100209810002098100020783200203C
:10513000FEE7704708B50B4B1A6842F400721A601C
:105140001A6842F480621A601A6842F480721A6027
:10515000032000F009F80F20FEF7B8FEFFF7E9FF83
:10516000002008BD003C0240074AD36823F4E063F6
:105170001B041B0C43F0BF63000243F4003300F434
:10518000E0600343D360704700ED00E0014B012273
:105190001A60704720000E4237B500230193184B68
:1051A000184C1A6C42F080521A641B6C03F0805346
:1051B0000193019B144B01221A60FEF78DFE0546F8
:1051C0006368DA030BD5114B0E4C01221A60FEF70F
:1051D00083FE054663689B030AD5002006E0FEF7C0
:1051E0007BFE401BB0F57A7FEAD9032003B030BDC7
:1051F000FEF772FE401BB0F57A7FEBD9F5E700BFF2
:10520000003802400070004040000E4244000E4250
:105210002DE9F0410D46044610B90120BDE8F081AA
:10522000444B1A6802F00F028A4228D321688F0784
:105230002DD4C80740D43F4B1A6802F00F029542A4
:1052400066D3226851076CD4130707D53A4A2169FF
:10525000936823F4604343EAC103936000F0B8FA13
:10526000354B364A9B68C3F30313D35CD840344BA9
:1052700018600F20FEF72AFE0020BDE8F081CAB2B8
:105280001A701B6803F00F039942C6D1CEE72A4B70
:1052900011F0040F1EBF9A6842F4E0529A600E07A4
:1052A00042BF9A6842F460429A609A68A06822F00D
:1052B000F00202439A60BCE762681F4B012A1DD1CD
:1052C0001B6813F4003FA8D01B4EB36823F0030300
:1052D0001343B360FEF700FE41F288380746B36817
:1052E000626803F00C03B3EB820FA4D0FEF7F4FD69
:1052F000C01B4045F3D90320BDE8F081911E012970
:105300001B6802D813F0007FDDE713F0020FDAE725
:10531000EAB21A701B6803F00F039D427FF47DAF61
:105320008FE70549E0688B6823F4E05303438B6003
:105330008AE700BF003C024000380240AD8A010805
:10534000A8060020044B054A9B68C3F38223D35C64
:10535000034A1068D840704700380240BD8A0108EF
:10536000A8060020044B054A9B68C3F34233D35C74
:10537000034A1068D840704700380240BD8A0108CF
:10538000A80600200F2303600B4B9A6802F003026B
:1053900042609A6802F0F00282609A6802F4E05279
:1053A000C2609B68DB0803F4E0530361034B1B6896
:1053B00003F00F030B60704700380240003C0240CE
:1053C00003682DE9F74313F0010604460BD0AA4900
:1053D000866BD1F88C2022F0C0623243B6FA86F692
:1053E000C1F88C2076099D070BD5A348E16BD0F856
:1053F0008C2022F0C0520A430029C0F88C2008BF3C
:10540000012613F0040512D09B49256BD1F88C209E
:10541000B5F5801F22F4401242EA050218BFB5FA22
:1054200085F5C1F88C2012BF6D09002501261807EB
:105430000FD59148616BD0F88C2022F440020A43CA
:10544000B1F5800FC0F88C2000F00981002908BF59
:105450000125990633D500230193874B874F1A6C9A
:1054600042F080521A641B6C03F080530193019B3D
:105470003B6843F480733B60FEF72EFD80463B683B
:10548000DA0540F1EE807C4F3B6F13F4407340F03F
:10549000FB80236C03F44072B2F5407F764A40F003
:1054A0001681916823F0704021F4F81120F44070C7
:1054B00001439160116FC3F30B030B431367236820
:1054C000D90642BF6E4B94F858201A6023681A061A
:1054D00008D56949E06CD1F8942022F440020243D7
:1054E000C1F894205F0608D56349A06CD1F89420D8
:1054F00022F080620243C1F89420D8050CD55E48A2
:10550000616DD0F8942022F000620A43B1F1006F7F
:10551000C0F8942008BF0125990508D55649606C4C
:10552000D1F8942022F080520243C1F894205A0509
:1055300000F1D180012E40F0DC80524E4E4F00230E
:105540003360FEF7C9FC80463B681B0100F12581F2
:105550002268D00701D5A36B1BB1910715D5E36B6A
:105560009BB94549D1F88430D1F8840003F4403325
:1055700000F07060034360680343A06843EA80134F
:10558000606943EA0073C1F88430530703D5236B85
:10559000B3F5801F05D0170720D5636BB3F5800FD7
:1055A0001CD13549D1F88430D1F8840003F440335C
:1055B00000F0E040034360680343A06843EA8013BF
:1055C000206943EA0063C1F88430D1F88C00A36AF3
:1055D00020F01F00013B0343C1F88C3050051BD560
:1055E000236DB3F1005F17D123486768D0F88410AA
:1055F000D0F8843003F0E0433B43A768C1F3014196
:10560000013143EA871343EA4163E16849080139FC
:1056100043EA0143C0F88430110511D52369A2681B
:105620001B0643EA821362681343626943EA02730A
:10563000E2685208013A43EA02430F4AC2F8843052
:1056400001233360FEF748FC0B4E074633681A010E
:1056500053D4FEF741FCC01B0228F7D908E001260D
:10566000F7E6FEF739FCA0EB080002287FF607AF4B
:10567000032003B0BDE8F083003802400070004012
:10568000E011474268004742226C02F440729342A4
:105690003FF4FFAE3B6F4B4A0121116023F440738E
:1056A000002111603B673B6FDB077FF5F2AEFEF731
:1056B00013FC41F2883980463B6F98073FF5E9AE0D
:1056C000FEF70AFCA0EB08004845F5D9D0E7916841
:1056D00021F4F811EDE63C48216DD0F8942022F039
:1056E00000520A43B1F1005FC0F894207FF422AF6A
:1056F00023E7B3F5006F3FF420AF012D4BD1334DBD
:10570000314E00232B60FEF7E7FB074633689B0012
:105710004BD421684E0701D5236B1BB108071AD55E
:10572000636BC3B9284AA069D2F8883003F44033C8
:105730000343E06943EA8013606A43EA0063C2F806
:105740008830D2F88C30E06A23F4F853013843EA09
:105750000023C2F88C30CA0514D5636DB3F1006F15
:1057600010D11949A269D1F8883003F0706313434E
:10577000E26943EA8213226A5208013A43EA024389
:10578000C1F8883001232B60FEF7A6FB0E4C0546BE
:1057900023689B000FD500206BE7FEF79DFBA0EB75
:1057A000080002287FF6D0AE62E7FEF795FBC01B2B
:1057B0000228ABD95CE7FEF78FFB401B0228E7D934
:1057C00056E700BF400E4742003802407000474293
:1057D000204908B58B6803F00C03082B07D00C2B6D
:1057E00020D01D4A1D48042B18BF104608BD4A682A
:1057F0004B68496813F4800314BF18481648C1F376
:10580000881118BF002302F03F02A1FB00010FF036
:1058100085FC104B5B68C3F3014301335B00B0FBB5
:10582000F3F008BD4A684B68496813F4800314BF5D
:105830000A480948C1F3881118BF002302F03F024B
:10584000A1FB00010FF06AFC024B5B68C3F302731B
:10585000E5E700BF003802400024F40000127A009F
:1058600003682DE9F341DF07044610D423689E073F
:1058700067D423681A0700F1B28023685B0700F140
:10588000D080A269002A40F0398100201EE0974BA9
:105890009A6802F00C02042A10D09A6802F00C02F6
:1058A000082A02D15B685D0208D4904B9A6802F026
:1058B0000C020C2A0DD15A6850020AD58B4B1B687A
:1058C0009903D3D56368002BD0D1012002B0BDE885
:1058D000F0816268B2F5803F11D11A6842F48032DB
:1058E0001A60FEF7F9FA814D06462B689A03BDD47B
:1058F000FEF7F2FA801B6428F7D90320E6E77B4D18
:10590000B2F5A02F2B6807D143F480232B602B68BE
:1059100043F480332B60E4E723F480332B602B685F
:1059200023F480232B60002ADBD1FEF7D5FA06464C
:105930002B689B039AD5FEF7CFFA801B6428F7D912
:10594000DBE76A4B9A6812F00C0F10D09A6802F0ED
:105950000C02082A02D15B685F0208D5634A93688B
:1059600003F00C030C2B11D153685E020ED45F4B75
:105970001A68950702D5E268012AA6D11A6821693A
:1059800022F0F80242EAC1021A6072E7E268584B5C
:10599000B2B101221A60FEF79FFA544D06462B68F9
:1059A000980707D52B68226923F0F80343EAC2035E
:1059B0002B605EE7FEF790FA801B0228EFD99CE788
:1059C0001A60FEF789FA494D06462B6899077FF55C
:1059D00050AFFEF781FA801B0228F6D98DE7626985
:1059E000444B7AB101221A60FEF776FA3F4D064623
:1059F0006B6F9F073FF541AFFEF76EFA801B0228E1
:105A0000F6D97AE71A60FEF767FA384D06466B6FEB
:105A100098077FF532AFFEF75FFA801B0228F6D9B0
:105A20006BE7324B1A6C12F0805228D101921A6C3B
:105A300042F080521A641B6C03F080530193019B67
:105A400001262D4D2B68D9051BD5A368274D012BA9
:105A500027D12B6F43F001032B67FEF73DFA234D4F
:105A6000074641F288382B6F9B0739D5002E3FF44B
:105A700008AF1E4A136C23F08053136401E700261D
:105A8000DFE72B6843F480732B60FEF725FA0746A7
:105A90002B68DA05D9D4FEF71FFAC01B0228F7D904
:105AA0002BE7052B04D12B6F43F004032B67D0E7C2
:105AB0002A6F22F001022A672A6F22F004022A6765
:105AC000002BCAD1FEF708FA41F2883807462B6F3F
:105AD0009807CBD5FEF700FAC01B4045F7D90CE775
