:020000040800F2
:10000000000002205D4F0008A94F0008A94F00081A
:10001000A94F0008A94F0008A94F000800000000E0
:10002000000000000000000000000000A94F0008D0
:10003000A94F000800000000A94F0008A94F0008C0
:10004000A94F0008A94F0008A94F0008A94F0008B0
:10005000A94F0008A94F0008A94F0008A94F0008A0
:10006000A94F0008A94F0008A94F0008A94F000890
:10007000A94F0008A94F0008A94F0008A94F000880
:10008000A94F0008A94F0008A94F0008953700089C
:1000900099370008A94F000889370008A94F0008C0
:1000A000A94F0008A94F0008A94F0008A94F000850
:1000B000A94F0008A94F0008A94F0008A94F000840
:1000C000A94F0008A94F0008A94F0008A94F000830
:1000D000A94F0008A94F0008A94F0008A94F000820
:1000E000A94F0008A94F0008A94F0008A94F000810
:1000F000A94F0008A94F0008A94F0008A94F000800
:10010000A94F0008A94F0008A94F0008A94F0008EF
:10011000A94F0008A94F0008A94F0008A94F0008DF
:10012000A94F0008A94F0008A94F0008A94F0008CF
:10013000A94F00080000000000000000A9370008D7
:10014000AD370008A94F00089D370008A94F0008E7
:10015000A94F0008A94F0008A94F0008A94F00089F
:10016000A94F0008A94F0008A94F0008A94F00088F
:10017000A94F0008A94F0008A94F0008000000007F
:1001800000000000A94F000800000000000000006F
:10019000A94F00080000000000000000A94F00085F
:1001A000000000000000000000000000A94F00084F
:1001B000A94F0008A94F0008A94F0008A94F00083F
:1001C000A94F000810B5054C237833B9044B13B17F
:1001D0000448AFF300800123237010BD50100020AD
:1001E000000000002C90010808B5034B1BB1034927
:1001F0000348AFF3008008BD000000005410002049
:100200002C900108A3F5803A704700BF174B002BD4
:1002100008BF134B9D46FFF7F5FF00218B460F46A5
:100220001348144A121A09F0E1FB0E4B002B00D0C0
:1002300098470D4B002B00D0984700200021040068
:100240000D000D48002802D00C4803F0BCFE09F058
:100250008BF92000290004F059F903F0B1FE00BF2A
:100260000000080000000000FD440008000002201B
:100270005010002058320020C73F00080000000046
:1002800008B5164C16491748174D08F051F917498B
:10029000144808F04DF922461549124808F065F94E
:1002A0001449104808F044F911490E482A4608F04C
:1002B0005CF90C4808F02AF90F492B782278094894
:1002C00008F036F9207800F0B7F82978207800F0A7
:1002D00005FD00F003F900F02DFDFAE7CC01002048
:1002E00094620108E02300206C100020DB6201080A
:1002F000F2620108F7620108146301080FB407B540
:10030000064B04AA1B6852F8041BD86801920DF032
:100310001DFD03B05DF804EB04B070477C060020BF
:1003200008B5074B1A78074B1B789A4205D1064847
:100330001146FFF7E3FF012008BD0020FCE700BFE6
:10034000CD0100200B1200202E630108024B187013
:10035000062000F07FBA00BF6F10002038B50546B8
:10036000FFF7DEFF0128044605D105482946FFF7BF
:10037000C5FF204638BD034B00241D70F9E700BFC0
:100380006D6301080B12002070B50D4E0D4D3378D2
:10039000834228BF03461A460B4829461C4609F0EB
:1003A0000FFA3278094B121BD2B21C7032702AB18C
:1003B0002919284609F004FA012070BD1046FCE70F
:1003C000711000200C16002072100020071200206F
:1003D00038B5054610460C46FFF7C0FF012808D186
:1003E000072000F053FA20B1BDE83840072000F0A4
:1003F0004DBA192C2246294609D80B4809F0E0F9D4
:100400000A4B1C70BDE83840042000F023BA0848AD
:1004100009F0D6F9074B1A201C70FFF7B5FF07202B
:1004200000F018FAEEE700BF72100020071200205B
:100430000C1600207110002010B50A4B0A4C002247
:100440001A70207000F01CFAFFF76AFF207800F0A5
:1004500089FA064800F0A8FDBDE81040044800F005
:10046000A9BD00BF0B120020CD010020D103000860
:100470004D0300082DE9FF41164D1F4695F80080F9
:10048000154B144698440E4600F0E2F92246014608
:10049000404609F095F92A78023A1444E4B2012F53
:1004A0002C7003D09DF82830012B10D100F09AFA5F
:1004B000039000F091FA039B0090224606483146D3
:1004C00000F046FD0020287004B0BDE8F081012056
:1004D000FAE700BF701000200C1200202DE9FF4742
:1004E000B44BB54C1A782578AA4218BF1D70012D5F
:1004F00000F0A580022D00F0C580002D40F056814F
:10050000062000F0C3F978B1AC4B187800F046FA39
:10051000B0FA80F0400900F034FD2570062004B0E8
:10052000BDE8F04700F0A0B9032000F0AFF998B3A0
:1005300000F042FA064600F045FA054600F046FA99
:10054000029000F055FA0746284600F05EF9C0B266
:100550000090029A3B4631462846FFF78BFF1FB1B9
:10056000002323700320DAE7284600F06FF9944A4D
:100570001378984208BF431C284608BF137000F048
:1005800065F901468F4800F04AF932468D4803214B
:1005900000F0FAF90123E4E7042000F077F938B31A
:1005A000874D894B2A781B7803920720029300F02D
:1005B0006DF9B0FA80F04009DDE90232834900901C
:1005C0008348844E00F032F9834B3278187001462C
:1005D0007F4800F0D9F93378FF2B1EBF2B78013309
:1005E0002B707E4B00221A7001232370042096E7A3
:1005F000072000F04BF950B1042000F02BF91A202D
:10060000FFF7C2FE002840F0D180072087E700F006
:100610003DF908B1002082E7012000F037F908B168
:1006200001207CE700F032F908B1022077E70520CD
:1006300000F02CF9002800F0B98005206FE728466B
:1006400000F024F9064650B100F0F2F9012803D079
:10065000052000F01BF900B102202070E0E700F057
:1006600015F9002800F0A2805A4B1B78FF2B04D10B
:100670002846267000F082FCCCE70223237000F0AD
:1006800017FAC7E7284600F001F90546D0B100F097
:1006900099F905464E4800F0D9F80646284600F07C
:1006A000D5F8864207D100F0B7F900230120237066
:1006B00000F064FCB9E7464800F0C8F8284600F0AE
:1006C000C5F8B2E7052000F0E1F8E0B1434E337819
:1006D000092B0BD93E4800F0B9F801464048FFF716
:1006E0000DFE2846257000F049FCA6E7394B384836
:1006F0001A78394B197800F047F9337801333370A1
:100700000123237099E7032000F0C0F8002842D0AD
:1007100000F052F9074600F055F9054600F056F989
:10072000814600F065F90646284600F06EF85FFA4B
:1007300080F8EEB1CDF8008033464A463946284667
:10074000FFF798FE002E7FF40BAF284600F07EF8EE
:100750001B4A1378984208BF431C284608BF1370F1
:1007600000F074F80146174800F059F83A460DE7D2
:10077000DFF84CA0284600F069F89AF80030834270
:10078000D8D0284600F062F89AF8002001461548B3
:10079000FFF7B4FDD9E700F079F800287FF43AAF0D
:1007A000012000F073F800287FF43AAF04B0BDE8F0
:1007B000F08700BF6E1000206D1000206F10002029
:1007C000081200203A1100200712002072100020A9
:1007D0003F1100200B120020091200200A120020F5
:1007E00092630108D0630108024B1A78024B1A7019
:1007F000704700BF6D1000206E1000200078013897
:1008000001288CBF0020012070470078431E584209
:10081000584170470078B0FA80F0400970470023D3
:1008200003700123417083700320704710B51C468C
:100830009DF808304270012B18BF02230370224636
:10084000023008F0BDFFA01CC0B210BD4078704758
:1008500002307047034A012303FA00F0136818437B
:10086000106070470C1A0020044901220B6802FA3C
:1008700000F023EA00030B60704700BF0C1A002051
:10088000014B00221A6070470C1A0020012303FA62
:1008900000F0024B1B681840704700BF0C1A002084
:1008A000054B1B785A1E012A02D80020FFF7D2BF41
:1008B0000BB90120FAE77047111A0020F8B5074676
:1008C0000C4615461E4609F04FF907EE900AFAEE5F
:1008D000E07AF5EEC07AF1EE10FA21DD2A462146E3
:1008E000104808F06DFF104B1F70104B1D7002F088
:1008F0006BFE0F4B187002F061FE0E4B18800E4B12
:1009000020461E70FFF77AFF20B10320BDE8F840B3
:10091000FFF7A0BF2046FFF77DFF08B10220F5E7F3
:10092000F8BD00BF141A0020131A0020481A002036
:10093000121A0020461A0020101A00200FB407B522
:10094000064B07491B6805AAD86801920DF0FEF90D
:1009500003B05DF804EB04B0704700BF7C060020D4
:100960001C64010810B50446002007F091FC09F052
:10097000F3F82046024A0349BDE8104002F0C0BD2A
:10098000BD080008A108000810B5044602F0DAFD11
:10099000014B22781A7010BD111A002010B502F018
:1009A00019FE044618B101460248FFF7C7FF20466A
:1009B00010BD00BF1C640108014B1878704700BFD0
:1009C000131A002000487047141A0020014B1878B1
:1009D000704700BF481A0020014BB3F90000704770
:1009E000461A0020014B93F900007047121A0020AC
:1009F000014B1878704700BF101A00200368184791
:100A00000B68036070477047024B002205201A7084
:100A1000FFF720BF491A002008B5034806F0FFFA87
:100A2000024B00221A7008BD501A0020491A0020FB
:100A3000014B1878704700BF491A0020C36810B5F1
:100A400004460BB19B689847204610BD38B5054653
:100A5000064B45F8283B044606F0E1FA2846FFF726
:100A6000EDFF204606F0A6FA204638BDE4820108D4
:100A700010B50446FFF7EAFF204603F021FC2046AC
:100A800010BD000010B5034B03600446FFF7DEFF06
:100A9000204610BD5883010838B5CB6804460D4682
:100AA0000BB15B689847EB68E360204638BD0000F7
:100AB00030B589B009F058F8102204460021684684
:100AC00008F094FF204B00936946204B039304A841
:100AD000FFF7E2FF032094FBF0F000EB4000241A44
:100AE0000234E4B207EE904A9FED197AF8EE677A85
:100AF00067EE877A17EE900A14F0C0FB05460C46A5
:100B000007F00AF8134B5A6B22B993F838300BB13F
:100B100006F09AFD1048FFF791FF04A90E48FFF771
:100B2000BBFF2A4623460B4806F061FA07F00AF895
:100B300004A8FFF783FF6846FFF780FF074B0122F9
:100B40001A7009B030BD00BF090A000850640108DE
:100B500000247449501A0020781A0020491A0020F5
:100B600010B50446FFF78EFF204603F0A9FB204690
:100B700010BD000010B50C4C204606F0F3F92046DD
:100B80000A4B40F8283B1022002108F02FFF0123D8
:100B900084F83830064B23602046064A0649BDE8F3
:100BA000104003F00BBA00BF501A0020E482010885
:100BB00058830108C8010020850A000838B51C4880
:100BC0001C4D07F0A3FC2B78044633B9C2B21A4976
:100BD000174807F0ADFC01232B70042000F0AEF99C
:100BE000E0B9E0B2154C0A28226801D00D2816D1D0
:100BF00092B1134B134D14482A7000219954194691
:100C0000D2B208F0DDFD042000F082F90C4B2A7806
:100C10000E49074807F08CFC0023236038BD40F2E2
:100C200004439A429FBF531C2360054B9854F5E739
:100C3000E0230020901A00205C640108941A002030
:100C40001C1F00205728002051240020A064010808
:100C50002DE9F041194C1A4D2268531C06D02B681F
:100C60009A4209D11749184807F062FC4FF0FF3348
:100C700023602B60BDE8F0811449134807F058FC4D
:100C8000134B144893F800C027680678124A0023D3
:100C900019469E4692F80080B84506D1674508BFC0
:100CA000012382F802E008BF1E460131042902F147
:100CB0001502EFD1002BD9D00670D7E7D401002060
:100CC000D0010020CE640108E0230020FE6401086A
:100CD0000B1F0020F41E0020FC23002030B50F4C19
:100CE0000F4D207085B0297010220021684608F051
:100CF0007DFE0C4B009369460B4B0C48039300227E
:100D000006F082FE6846FFF799FE2A7821780848A7
:100D100005B0BDE8304008F0D1BE00BF0B1F002079
:100D20000A1F0020BD0B0008506401082423002086
:100D30002E6501082DE9FF41664C674D23782A781E
:100D4000664F934226D06649664807F0F1FB237848
:100D5000032B46D13B78012B4FF010024FF00001DE
:100D6000684641D008F042FE5F4B00935F4B03930F
:100D70005F480022694606F047FE6846FFF75EFEC0
:100D80002378032B04D12B78072B01D1FFF760FFC9
:100D900023782B703B78012B19D02378032B16D1A5
:100DA000022000F0CBF890B100F0EEF8064600F01B
:100DB000EFF8012808D13378532B05D14D49494824
:100DC00007F0B6FB04232370022000F0ABF8237871
:100DD000092B58D8DFE803F00B10151A5F64696E11
:100DE000737810220021684608F000FEC0E704B0C6
:100DF000BDE8F04100F0BABA04B0BDE8F04100F03F
:100E0000FDBA04B0BDE8F04100F02ABB3A4A1368CD
:100E1000591C002B116003DC3849324807F088FB6D
:100E20002B78072B01D1FFF713FF3B78012B2DD136
:100E30002F4806F053FD48B32A4807F067FBC5B2B8
:100E40002F4928482A4607F073FB762D1ED12D49DD
:100E500024482D4EDFF8B48007F06AFB53238DF849
:100E600000300025B37843B132783B78934204D008
:100E7000D8F800300121684698470135042D06F165
:100E80001506EFD1257004B0BDE8F08104B0BDE8CF
:100E9000F04100F09DB904B0BDE8F04100F0DCBDC8
:100EA00004B0BDE8F04100F03DBC04B0BDE8F04145
:100EB00000F088BC04B0BDE8F04100F0BBBC04B059
:100EC000BDE8F04100F02EBF04B0BDE8F04100F0F5
:100ED00073BF00BFF51E0020502400200B1F002010
:100EE0005A650108E0230020BD0B0008506401088A
:100EF000242300207A650108981A0020B9650108AA
:100F0000D2650108F8650108FC230020A01A002022
:100F1000034A012303FA00F0136818431060704776
:100F20009C1A0020044901220B6802FA00F023EA0F
:100F300000030B60704700BF9C1A0020012303FAD6
:100F400000F0024B1B681840704700BF9C1A00203D
:100F500038B50C4601460648154608F031FC054BED
:100F60001D70054B1C70BDE838400220FFF7D0BF54
:100F7000A81A0020A81E0020A91E00200520FFF7A7
:100F8000C7BF0620FFF7C4BF00487047A81A00205B
:100F9000014B1878704700BFA81E0020014B18783D
:100FA000704700BFA91E0020014B1860704700BFAA
:100FB000A01A0020014B1860704700BFA41A00203F
:100FC00010B50C4C204605F0CDFF20460A4B40F8EA
:100FD000283B1022002108F009FD012384F8383055
:100FE000064B23602046064A0649BDE8104002F041
:100FF000E5BF00BFB01E0020E4820108588301084D
:10100000C8010020850A00080123017083700021B7
:10101000FF234270C17003711022053008F0E6BC56
:1010200070B505464E1E4418002E0DDD08F09CFDDF
:10103000731C90FBF3F101FB130314F8012DE95C21
:101040002170013EEA54EFE770BD0000F7B50020C3
:1010500007F01EF908F080FD01238DF8053004210A
:1010600002238DF80630002403230DEB01008DF8D8
:1010700004408DF80730FFF7D3FF084F084E01AD4D
:10108000304615F8012B17F8011B0134FFF7BCFFA0
:10109000042C06F11506F3D103B0F0BD4C6601082F
:1010A000FC23002003289ABF024B53F8200002487B
:1010B000704700BF3C6601081B66010810B5094B6C
:1010C000036003F1200280330446C0F8BC20C0F85E
:1010D000C030BC3007F0F4F9204606F0CFFC2046C3
:1010E00010BD00BF90830108A0F1BC00E6E7A0F1AD
:1010F000C000E3E710B5FFF7A9FF144B1448002424
:101100001C70144B1C70144B1C60144B214640F295
:1011100006421C7008F06AFC214640F20642104864
:1011200008F064FC214614220E4808F05FFC0E4AC9
:101130000E490F484FF0FF3313600E4A13600E4BF9
:101140001C70BDE8104007F0F3B900BFF51E002089
:101150001C1F002050240020F01E002057280020D3
:1011600051240020F61E0020D00100205066010806
:10117000E0230020D4010020F41E002010B5044616
:10118000FFF79CFF204603F09BF8204610BDA0F11E
:10119000BC00F3E7A0F1C000F0E7000013B5094C74
:1011A0004FF416530093032200230221204605F03A
:1011B000E9FF054A0549204602B0BDE8104002F0AB
:1011C000FDBE00BF24230020C8010020BD10000880
:1011D0002DE9F041544B1B78ADF59C6D53B153494B
:1011E000534807F0A5F9534B04221A700DF59C6D76
:1011F000BDE8F081504806F071FBB0B14C484F4C4F
:1012000007F084F9C1B20D2901D00A2979D12368E8
:101210004B494C480025CD5409F090F84A4B2268C0
:101220001A7004202560FFF773FE0420FFF786FE86
:10123000002833D0454C464E424FDFF82C81002524
:10124000A378DBB1337822789A4217D0424640F235
:101250000641009736A808F033FE36A809F0D0F80A
:1012600001220346009236A9002204A8FFF7DEFA05
:10127000384B22781B68014604A898470135042D95
:1012800004F11504DCD12F4A3349294807F050F9FD
:101290002D4B002228461A70FFF744FE0220FFF76C
:1012A0004DFEF8B1FFF770FE0546FFF777FE0646E4
:1012B000FFF76EFE7C2102460390284608F030FAC4
:1012C000039B044640B3002304F8013B284607F083
:1012D000A1FA224902462346154807F029F90220BF
:1012E000FFF720FE144806F0F9FA00283FF47EAF1D
:1012F0000F4807F00BF9C0B276287FF477AF184992
:101300006EE72368FE2B90D85A1C22600C4A0848CE
:10131000D15407F0E7F888E71249009532460448AF
:1013200007F006F9DBE700BFF41E0020AA660108FB
:10133000E0230020F51E002024230020582900204F
:10134000582800201C1F002057280020FC230020C4
:101350000B1F0020A01A0020F1660108FC6601089E
:101360003A6701081A670108EB6601081B4B1B6806
:1013700037B5BBB91A4B01221A700220FFF7DEFD08
:101380000446B0B1FFF700FE0190FFF701FE01999E
:101390000246144808F092FB022003B0BDE830403A
:1013A000FFF7C0BD012BE8D1FFF798F80C4B0222E4
:1013B000E2E70420FFF7C2FD70B10B490B480C4D6A
:1013C00008F0BCFF0B4B0C4A08481B6812782978C0
:1013D00098472C700420E0E703B030BDF01E0020D9
:1013E000F51E00206B6701081C1F002051240020FF
:1013F00057280020A01A00200A1F0020F0B5124B29
:101400001B78012B85B019D1FFF720FE0F4D104F2F
:10141000104E00242B7868780393FFF743FE224692
:101420000090039B39463046013407F081F8042CC4
:1014300005F11505EED1084B01221A60074B022277
:101440001A7005B0F0BD00BF0B1F0020FC23002068
:101450008D670108E0230020F01E0020F51E00200B
:101460002DE9F04FDFF83482744E98F80030012BEC
:1014700087B034D00220FFF761FD002800F0CC8057
:10148000FFF782FD0390FFF783FD0F286C4B039954
:10149000054628BF0F25EDB204462A46184608F037
:1014A0008FF9674B6749684800225A5522460094D5
:1014B00007F03EF8654B0593654B01221B6803213D
:1014C00005A898470220FFF72DFD62495E4807F006
:1014D0002FF802233360604B03221A70A0E0D6F885
:1014E00000A0BAF1010F40F097805C4D5C4F2B7863
:1014F000002B3FD13B78002B3CD15A4A1368032B79
:1015000038DC594CDFF874914FF0150B0BFB03F3EB
:10151000E118E35C487889F80030FFF7C3FD014625
:10152000524808F00BFF4F4A504910680BFB00402F
:10153000053008F003FF4D4B99F800204C49424814
:1015400006F0F6FF494808F05BFF312806D9494903
:101550003D4807B0BDE8F04F06F0EABF3C4B4348BA
:101560001C6808F04DFF99F80020C1B23F48A04721
:1015700085F800A00220FFF7E1FCF8B1FFF704FDB9
:101580000446FFF705FD0328024614D120463A49D8
:1015900008F0A4FF044670B92B7863B1374B384983
:1015A0001A78294806F0C4FF0123364926482C70D2
:1015B0003B7006F0BDFF0220FFF7B4FC3B7833B36D
:1015C000314806F08BF910B31F4806F09FFFC4B2F4
:1015D0002E491D482346224606F0AAFF312C22D16F
:1015E0002B49194806F0A4FF1E4A13680133136003
:1015F000032B4FF000023A702A7008DD154912489B
:1016000006F096FF02233360134B03221A7098F8FA
:101610000030012B7FF42EAF3368022B3FF45BAF19
:1016200007B0BDE8F08F0D2C01D00A2C04D1194968
:10163000054806F07DFFEAE71749F9E7F01E0020AC
:101640000C1F00206E690108E023002041434B007D
:10165000A01A0020D2680108F51E00205C29002095
:101660006429002060290020FC230020F61E0020B1
:10167000AE670108CA6701080D6801080A1F00204B
:101680001168010833680108242300206C680108F0
:1016900096680108F7680108306901080B1F0020EF
:1016A0002DE9F041194A1A4C51681A4FDFF8708041
:1016B00092B00546106802AB03C3382200211846D9
:1016C00008F094F90026A37873B16378AB420BD08D
:1016D00022783B78934207D04146684608F034FCB4
:1016E000694602A808F096FC0136042E04F11504A0
:1016F000E9D12846FFF7D6FC0749024602AB074866
:1017000006F016FF12B0BDE8F08100BF796A01084B
:10171000FC2300200B1F002097690108E023002014
:10172000936901081A4B1B7810B5002B2ED119496B
:10173000194808F099FC48BB0120FFF7B1FF174991
:10174000174806F0F5FE164806F0E0FEA0F130035B
:10175000DBB2092B1AD8C0B2A0F1300422461149DD
:101760000F4806F0E5FE104B104911481C6008F0C8
:10177000E5FD104B0E48042119700F4BE2B21A70B0
:101780000E4B1B6898470E4B06221A7010BD00BF07
:10179000F41E00202B6A01080C1F0020B569010807
:1017A000E0230020E1690108D4010020F569010867
:1017B00051240020572800200A1F0020A01A0020D2
:1017C000F51E0020134B1B7810B51BB1124B0722DE
:1017D0001A7010BD1149124808F046FC0028F5D1D6
:1017E0000320FFF75DFF0F490F4806F0A1FE0E48EA
:1017F00006F08CFEA0F13003DBB2092BE9D8C0B2B1
:10180000A0F1300409490848224606F091FE084B31
:101810001C60DBE7F41E0020F51E00203266010884
:101820000C1F0020FA690108E0230020E16901088B
:10183000D001002038B51A4B1B782BB919491A482A
:1018400008F012FC044618B1184B03221A7038BD78
:101850000220FFF725FF1649164806F069FE1548D5
:1018600006F054FEA0F13003DBB2092BEFD8C3B26F
:10187000114A303B152000FB04F18D18895C994218
:101880000AD169780D4B0E4A0A48012918BF1A4639
:101890000C4906F04DFED7E70134042CEBD1D3E719
:1018A000F41E00202B6601080C1F0020F51E0020EE
:1018B000316A0108E0230020FC230020276A010888
:1018C0002B6A0108616A010838B5044644B1E06832
:1018D000FFF7FAFFA568204602F0F2FC2C46F5E778
:1018E00038BD10B504468068FFF7EEFF204610BDF6
:1018F000F8B58B68164604460D1D012263B11D7CA8
:101900003278D3E90270954288BF01221D4696BF06
:1019100000223B460346F1E792B1CA68AA4203D1CE
:10192000C4E900352046F8BD284606F099FE337814
:10193000027C9A424FF00003F2D3C4E90003F1E7BE
:101940002846F4E72DE9F04300F10408856885B0E6
:1019500006468946444655B1287C99F80010D5E9D9
:10196000023288422ABF2C4615461D46F3E7A045A1
:1019700004D099F80020237C9A423FD2182002F02C
:101980008BFC99F8009080F810900023A045074642
:10199000436100F110020CD173691BB13469237CDF
:1019A0004B4555D3314602A8FFF7A2FFDDE90254AB
:1019B00010E0237C01924B4527D9F568AC4209D051
:1019C000204606F04DFE037C019A4B45EAD2C568DD
:1019D000CDB90446002C35D095BBA04530D0387C1D
:1019E000237C98422CBF00200120434622463946E2
:1019F00006F050FE7369013373613C4604F1140034
:101A000005B0BDE8F0832546E4E71CD233699C426B
:101A10000BD0204606F00CFE037C019A4B45054690
:101A200005D9E26852B9234615461C46D2E731462D
:101A300002A8FFF75DFFDDE90253F6E70346F4E78E
:101A40000120D2E72C46384602F03AFC2746D4E77C
:101A5000002CC2D1F7E700002DE9F04F994D2C780A
:101A6000BFF35B8F14F0010485B011D1284602F05A
:101A7000BBFA68B19448954A95490471031DC0E9C1
:101A800003338460446102F099FA284602F0C6FAF2
:101A9000904D2B78012B1AD08F4E3378042B16D013
:101AA0000220FFF74BFA90B1FFF76EFA0446FFF7FA
:101AB0006FFA012808D12378532B05D1874988482C
:101AC00006F036FD042333700220FFF72BFA854E13
:101AD000337833BB8449824806F02AFD2B78012BEA
:101AE0001DD0824B1C78D4B981497D48814FDFF8E5
:101AF0003082DFF8EC9106F01BFDBB7833B13A7809
:101B0000012A03D04146484606F012FD0134042C58
:101B100007F11507F1D17849714806F009FD012355
:101B200033702B78012B57D10220FFF707FA38B317
:101B3000FFF72AFA0446FFF72BFA02281DD1237873
:101B4000562B1AD1637860488DF80C3003A9FFF743
:101B5000F9FE0368694A0133036013685A48013388
:101B6000136003A99DF80C200192FFF7EBFE019A88
:101B7000036863495A4806F0DBFC0220FFF7D2F9FC
:101B80002B78012B59D1DFF86C910022494613467E
:101B9000887818B10878012818BF01330132042A67
:101BA00001F11501F4D1DFF85481D8F800209A42F0
:101BB00043DB002B41DD444C4FF0000BE068DA467C
:101BC000271DB8423CD043695B45C4BF90F810A0C4
:101BD0009B4606F02DFDF4E7444B1B786BBB494F49
:101BE00097F80080B8F1000F27D1474805F076FE3E
:101BF000F8B13B4806F08AFC0446303CC1B2E4B27E
:101C0000374806F06FFC092C0FD83A4A4346117842
:101C10008C4203D1917809B1012C40D10133042BBE
:101C200002F11502F3D1394900E039492C4806F098
:101C30007FFC2B78012B3FF477AF05B0BDE8F08F28
:101C4000344927485B46524606F072FC27492D78F6
:101C5000087800231A469C4699F800E0D64506D13C
:101C6000554508BF012389F802C008BF1846013254
:101C7000042A09F11509EFD103B10870214BA068BE
:101C800000251D703570FFF71FFE134BC8F800507C
:101C90000522C4E90257C4E904751A70CDE756233A
:101CA0008DF80C301C4B8DF80D401B680122022171
:101CB00003A8984719490A48224606F039FC01232F
:101CC0003B70B6E7682900206C290020C80100207D
:101CD000E31800080B1F0020F51E00207A6501089C
:101CE000E023002089290020B96A0108F41E0020A1
:101CF000DD6A0108FC230020016B01088429002013
:101D0000696B01088829002024230020CB6B01087F
:101D10003B6B0108A56B0108A01A0020196C010893
:101D2000936901082DE9F0471B4E3478FCB91B4834
:101D30001B4DDFF87C80DFF87C901A4F07F0BEFE69
:101D40002A7898F800309A420AD0AB7843B13846E6
:101D5000D9F800A008F054FB2A78C1B23846D04721
:101D60000134042C05F11505EAD10123337002205A
:101D7000FFF7E4F850B1FFF707F9FEF74BFD10B19C
:101D8000094807F09BFE0220FFF7CCF8074B092219
:101D90001A70BDE8F08700BF8A290020406C010856
:101DA000FC2300206C6C0108766C0108F51E0020F5
:101DB0000B1F0020A01A00202DE9FF411D481E4CDA
:101DC000DFF894801D4F1E4E07F078FE0025227824
:101DD00060780392FFF766F90346A078039A00281B
:101DE00014BF41463946009130462946013507F077
:101DF00065FE042D04F11504E9D1124807F05EFEDA
:101E0000114B1B78012B12D1104807F057FE1048D8
:101E100005F064FD58B10F4806F078FB00F0DF00D4
:101E2000592804D104B0BDE8F041FFF763B904B00C
:101E3000BDE8F081A36C0108FC2300209E6C010822
:101E4000BB6C0108E76C01080B1F0020006D010846
:101E500024230020E0230020986C01080FB407B56C
:101E6000064B04AA1B6852F8041BD86801920BF0B9
:101E70006DFF03B05DF804EB04B070477C060020F2
:101E8000002000F05BBF00002DE9F041BDF81C50C0
:101E9000B5F5806F06460C4690461F4606D322488D
:101EA0002946FFF7DBFF0620BDE8F081022000F0A5
:101EB000A1FC08B10720F7E73146022000F0F6FC4C
:101EC0004FFA88F1022000F02DFD3946022000F083
:101ED00047FD0699022000F061FD2146022000F036
:101EE000C7FC8EB90B3C012C12D80121022000F056
:101EF000A1FC7DB90121022000F06EFD00F0D6FDAD
:101F00000130D7D00020CFE7012E01D10C2CECD02E
:101F10000021EBE70021022000F05EFD29460220AF
:101F200000F078FDEAE700BF396D01087047000056
:101F300084B038B504AC84E80F000220DDE9085411
:101F400000F058FC20B10720BDE8384004B07047CD
:101F50000C2C15D921461148FFF780FF0C210220D7
:101F600000F086FCA5B90B3C012C15D801210220FC
:101F700000F060FC00F09AFD0130E4D00020E3E7BF
:101F8000052CEFD821460548FFF768FF0621E6E754
:101F9000012D01D10C2CE9D00021E8E7C96D010821
:101FA0000FB407B5064B07491B6805AAD86801920C
:101FB0000BF0CCFE03B05DF804EB04B0704700BF3B
:101FC0007C060020F26D010884B010B502AC84E8F4
:101FD0000F009DF80D10012905D0BDE810402548DF
:101FE00004B0FFF7DDBF9DF8293033205BB301F06B
:101FF00009F840F04101C9B2332000F0F8FF19217F
:102000003B2000F0F4FF9DF827309DF82A402BB3C9
:102010001D21112000F0EBFF402000F0F3FF00F045
:102020003301402000F0E3FF00210F2000F0DFFF2C
:1020300000210D2000F0DBFFD4B10520BDE81040E9
:1020400004B001F015B800F0DDFF00F0BE0141F072
:102050000101332000F0CBFF1D21D1E71F2111200A
:1020600000F0C5FF402000F0CDFF00F03F01D8E7B1
:102070000620E3E7F26D010884B02DE9F04106ACDB
:1020800084E80F000898BDF832609DF83450BDF820
:1020900042700B9CDDF8288000F0CAFF1D2000F084
:1020A000B1FF9DF831309DF8301041EAC3019DF831
:1020B000363041EA881141EA430141EA8501C9B25B
:1020C0001D2000F094FF1E2000F09CFFC7F30121AB
:1020D00000F00C0041EA04110143C9B21E2000F0D7
:1020E00086FFF9B21F2000F082FF310A202000F0A5
:1020F0007EFFF1B2212000F07AFF25B19DF8351066
:10210000222000F074FF9DF837306BB14B2000F0B7
:1021100079FF60F07F01C9B24B2000F068FF9DF8A5
:102120003810242000F063FF062C4FF031000FD14F
:1021300000F068FF00F0F80141F00501312000F0E7
:1021400056FF0C21BDE8F041372004B000F04FBF2E
:1021500000F058FF00F0F80141F00301312000F0D9
:1021600046FF0A21EEE78021122000F040BF402107
:10217000122000F03CBF07B5122000F043FF8DF89D
:1021800007009DF80700C0F3401003B05DF804FBA2
:102190002021122000F02BBF08B5192000F032FFDB
:1021A000030643BF4042C0F38500404240F387002E
:1021B00008BD84B010B502AC84E80F009DF938402A
:1021C0001A2000F01FFF002CB8BF8B3C4FEA2013F1
:1021D000B8BF0019BDE81040A8BF8B38184400B242
:1021E00004B0704738B50546132000F00BFF0446D5
:1021F0000146284600F016FF204638BD0FB407B54B
:10220000064B04AA1B6852F8041BD86801920BF015
:102210009DFD03B05DF804EB04B070477C06002020
:1022200008B528B90848FFF7E9FF4FF0FF3008BDAF
:10223000402905D90548FFF7E1FF6FF00100F6E7F7
:10224000BDE8084000F0CEBD316E01085D6E0108AA
:10225000F8B5074601200D4614461E4600F0CAFA9E
:1022600008B10720F8BD3946012000F03DFB2946A2
:10227000012000F01BFB71B2012000F053FBBDF800
:102280001810012000F06CFB0799012000F086FB7C
:102290002146012000F0ECFA65B90B3C012C0DD869
:1022A0000121012000F0C6FA00F0D2FB0130D8D0A5
:1022B0000020D7E7012D01D10C2CF1D00021F0E74F
:1022C00084B038B504AC84E80F000120DDE908547F
:1022D00000F090FA20B10720BDE8384004B0704704
:1022E0009DF91C0000F010FC50BB012000F082FAA8
:1022F0000028F0D10C2C15D921461248FFF77EFF9B
:102300000C21012000F0B4FAA5B90B3C012C15D822
:102310000121012000F08EFA00F09AFB0130DAD0A2
:102320000020D9E7052CEFD821460648FFF766FFC5
:102330000621E6E7012D01D10C2CE9D00021E8E7C8
:102340000120C9E7C96D01080FB407B5064B07495D
:102350001B6805AAD86801920BF0F8FC03B05DF881
:1023600004EB04B0704700BF7C060020976E0108A4
:1023700084B070B504AC84E80F0009209DF940409A
:1023800000F040FE06465A2000F03CFE9DF810305A
:1023900003F0FD03012B14BF00238023054606F044
:1023A0007F001843030600F0F00127D5112CCBBFA6
:1023B00045F0070505F0F805EDB245F0040505F018
:1023C0000703072B12D1142CA8BF1424052CB8BF67
:1023D0000524631F1943C9B2092000F008FE2946ED
:1023E000BDE870405A2004B000F001BE112CA8BF17
:1023F0001124022CB8BF0224A31EEBE70E2CA8BFA9
:102400000E2444EAE47401342143E4E784B008B5BF
:102410000DF1080C8CE80F009DF80D10012905D076
:10242000BDE80840124804B0FFF78EBF9DF8273082
:102430009BB1F521112000F0DAFD402000F0E2FD13
:1024400000F03301402041F0400100F0D0FDBDE834
:102450000840032004B000F00BBEF721112000F06B
:10246000C6FD402000F0CEFD00F03F01EAE700BFCE
:10247000976E010884B02DE9F0418AB010AC84E871
:102480000F009DF94C30089314AD0FCD6C46159E8E
:10249000BDF85A70DDF850800FC495E80F0084E84D
:1024A0000F0010AB0FCBFFF763FF129800F0C0FDD9
:1024B0009DF85F306BB14B2000F0A4FD60F07F0110
:1024C000C9B24B2000F093FD9DF86010242000F06D
:1024D0008EFD1D2000F096FD9DF859309DF8581096
:1024E00041EAC3019DF85C3041EA881141EA830169
:1024F0009DF85E3041EA4301C9B21D2000F077FD2E
:102500001E2000F07FFD00F00F0141EA0611C9B264
:102510001E2000F06CFD390A202000F068FD21200B
:10252000F9B200F064FD062E4FF0310010D100F03A
:1025300069FD00F0F80141F00501312000F057FD80
:102540000C2137200AB0BDE8F04104B000F04FBDC7
:1025500000F058FD00F0F80141F00301312000F0D7
:1025600046FD0A21EDE70821122000F040BD08B524
:1025700068B1332000F046FD00F0BE01332000F0CA
:1025800036FD19213B20BDE8084000F030BD332066
:1025900000F038FD00F0BE0141F00101332000F0F1
:1025A00026FD1D21EEE738B5044622200D4600F039
:1025B0001EFD00210E2000F01AFD00210D2000F06C
:1025C00016FD012000F01EFD30F0F80304D100F0EC
:1025D0007DFD012005F050FD29462046BDE838402C
:1025E00000F01BBD0FB407B5064B04AA1B6852F8D8
:1025F000041BD86801920BF0A9FB03B05DF804EB53
:1026000004B070477C06002010B50A4C2178814246
:10261000024605D00848FFF7E5FF4FF0FF3004E021
:10262000022001F001F808B9207010BD0348FFF73F
:10263000D9FFF2E7002A0020CB76010821770108B4
:1026400008B5044804F0EBFC00F043FD024B012206
:102650001A7108BD90290020D029002013B5174C0D
:102660002379022B03D0032B19D002B010BDFFF742
:102670005DFCFFF7E5FF032000F0D6FF012808D03E
:1026800000230F4A0093146819461A460120A047F8
:10269000EBE70C4802B0BDE81040FFF7A3BF2046AF
:1026A00000F05AFD94F8280000F047FD0123237143
:1026B00002B0BDE8104000F0E7BF00BFD029002005
:1026C000042A0020A17601082DE9F041354C267935
:1026D00088B046B134483146FFF784FF4FF0FF30F1
:1026E00008B0BDE8F081314B1860314B31481960BA
:1026F000FFF778FF4FF4807007F002F82E4B186058
:1027000028B92E48FFF76EFF6FF00100E8E74FF49D
:10271000FA6262620E2222730B22294B6261082246
:102720004FF00108A360628304230522204684F849
:1027300020306285237084F805802677E67784F858
:102740001E8084F82160266184F81980667784F8F9
:10275000228084F8288000F0FFFC2546014605F819
:10276000100B1848FFF73EFF0FCD6F460FC795E8D7
:102770000F0087E80F0094E80F00FFF7A1FDA5F117
:10278000100CBCE80F006F460FC795E80F0087E8F4
:102790000F0094E80F00FFF7CBFB84F8048030466D
:1027A0009EE700BFD0290020986F0108082A00206A
:1027B000042A0020E96F01088C2900201670010806
:1027C0002021F6365070010808B5042000F02CFFD7
:1027D000012805D10648FFF705FF4FF0FF3008BD7F
:1027E000FFF72EFF022000F01FFF0020F7E700BFD9
:1027F0006670010838B5054618B90A48FFF7F2FEB9
:1028000005E0094C217829B10848FFF7EBFE4FF0AD
:10281000FF3004E0084600F007FF08B9257038BD16
:102820000348EBE776740108002A0020B37401081E
:10283000F674010838B504460D4600F01FFF012864
:10284000084B06D11A78A24203D1074B00201D760F
:1028500038BD06481A782146FFF7C4FE4FF0FF3016
:10286000F6E700BF002A0020D029002017740108D5
:1028700038B504460D4600F001FF0128084B06D18B
:102880001A78A24203D1074B00205D6138BD06488B
:102890001A782146FFF7A6FE4FF0FF30F6E700BF9B
:1028A000002A0020D0290020B873010838B504465A
:1028B0000D4600F0E3FE0128084B06D11A78A2422B
:1028C00003D1074B00201D6138BD06481A78214608
:1028D000FFF788FE4FF0FF30F6E700BF002A002028
:1028E000D02900202A75010838B504460D4600F0AD
:1028F000C5FE0128084B06D11A78A24203D1074B26
:1029000000201D7338BD06481A782146FFF76AFE7D
:102910004FF0FF30F6E700BF002A0020D02900204A
:102920003C72010838B504460D4600F0A7FE0128A8
:10293000084B06D11A78A24203D1074B00205D76DE
:1029400038BD06481A782146FFF74CFE4FF0FF309D
:10295000F6E700BF002A0020D029002059730108A3
:1029600038B504460D4600F089FE0128084B06D113
:102970001A78A24203D1074B00205D8338BD064878
:102980001A782146FFF72EFE4FF0FF30F6E700BF22
:10299000002A0020D02900208375010838B504469C
:1029A0000D4600F06BFE0128084B06D11A78A242B2
:1029B00003D1074B00209D6038BD06481A78214698
:1029C000FFF710FE4FF0FF30F6E700BF002A0020AF
:1029D000D02900204376010838B504460D4600F0A2
:1029E0004DFE0128084B07D11A78A24204D1074BAB
:1029F000002083F8225038BD05481A782146FFF799
:102A0000F1FD4FF0FF30F6E7002A0020D02900202A
:102A1000E575010838B504460D4600F02FFE012883
:102A2000084B06D11A78A24203D1074B00205D85DE
:102A300038BD06481A782146FFF7D4FD4FF0FF3025
:102A4000F6E700BF002A0020D0290020FC72010810
:102A5000F0B589B000F012FE0128114B18D11F7893
:102A6000012F15D10F4E06F1100500F035FB0FCDEB
:102A70006C460FC495E80F0084E80F0096E80F003D
:102A8000FFF7F8FC3846FFF7BFFD002009B0F0BDA6
:102A900005481978FFF7A6FD4FF0FF30F6E700BFB5
:102AA000002A0020D0290020D8710108F0B589B093
:102AB00000F0E4FD0128114B18D11F78022F15D129
:102AC0000F4E06F1100500F007FB0FCD6C460FC44A
:102AD00095E80F0084E80F0096E80F00FFF7CCFAA6
:102AE0003846FFF791FD002009B0F0BD0548197880
:102AF000FFF778FD4FF0FF30F6E700BF002A002017
:102B0000D029002074710108F0B58BB0044600F0A4
:102B1000B5FD0128104B17D11F78012F14D10F4E8E
:102B2000089406F110050FCD6C460FC495E80F0010
:102B300084E80F0096E80F00FFF71AFC3846FFF70D
:102B400063FD00200BB0F0BD05481978FFF74AFD82
:102B50004FF0FF30F6E700BF002A0020D029002008
:102B6000987201080E4B1B79022B13B510D1FFF799
:102B7000FAFAFFF765FD032000F056FD012809D0A1
:102B80000023084A0093146819461A460120A047FA
:102B900002B010BD044802B0BDE81040FFF722BDEE
:102BA000D0290020042A00208E7001082DE9F04170
:102BB000454E3479022C8AB067D1FFF7D8FAFFF777
:102BC000DAFA012829D1FFF7E3FA96F82250ADB9D5
:102BD000FFF736FD032000F027FD012808D03B4B0E
:102BE00000951E682A462B4629462046B04711E02C
:102BF00037480AB0BDE8F041FFF7F4BC00F03EFDF5
:102C00000328F5D10023314A0093156819461A4666
:102C10002046A8470AB0BDE8F081FFF7BDFA06F1EB
:102C20001005089007460FCD6C460FC495E80F00BD
:102C300084E80F0096E80F00FFF7BBFA254C8046AA
:102C40002068FFF7CFFA96F8226005468EB9FFF7A5
:102C5000F7FC032000F0E8FC012808D01B4B00978C
:102C60001F68216843462A463046B847D2E71A48CB
:102C7000BFE700F003FD0328F9D1144B00971E684D
:102C8000216843462A460020B0E7032C14D113489C
:102C900004F0C5F9FFF767FCFFF7D2FC204600F00F
:102CA000C3FC012806D00E4B1B6800200AB0BDE80B
:102CB000F04118470B489CE70B4821460AB0BDE895
:102CC000F041FFF78FBC00BFD0290020042A00206C
:102CD000D16E01088C2900200D6F01089029002079
:102CE000082A0020486F01087C6F01082DE9704315
:102CF000044699460D46904604F00EFF636B23B9D7
:102D000094F838300BB104F09FFC04F12806AE4271
:102D10000BD03046FDF792FE3EB1EB681BB15B680D
:102D2000294630469847EB68636342464B46204647
:102D300004F05DF9BDE8704304F004BFF0B5064649
:102D40008DB0012000F070FC012806D11E48FFF76D
:102D500049FC4FF0FF300DB0F0BD1C4B1C4F186804
:102D60004FF48072002107F1100506F03FFE0FCDF1
:102D70006C460FC495E80F0084E80F0097E80F0039
:102D8000FFF722F902233B71E6B11022002108A8C7
:102D900006F02CFE0F4B089330460F4B0B9311F0AF
:102DA0007BFE00220D4B11F0F1FE12F087FA024675
:102DB0000B460B4808A9FFF799FF08A8FDF73EFE50
:102DC0000020C8E73046C6E7BD7001088C29002006
:102DD000D02900205D2600085064010800408F4083
:102DE00090290020F0B5304C2379032B8FB0064694
:102DF0000D4606D12D48FFF7F5FB4FF0FF300FB021
:102E0000F0BD042000F010FC0128F3D0FFF718FCFF
:102E10000A2005F031F9022000F006FC012000F044
:102E200003FC012801D12248E5E763791BB1012B9E
:102E300003D000270CE01F48DDE794F82100FFF7DE
:102E400096FB2946304684F82E50FFF7ACFB676AA4
:102E5000194E08970FCE6D460FC596E80F0085E80E
:102E60000F0094E80F00FFF7D1FA0323102200218E
:102E70000AA8237106F0BAFD104B0A933846104B8E
:102E80000D9311F009FE00220E4B11F07FFE12F09F
:102E900015FA02460B460C480AA9FFF727FF0AA8B5
:102EA000FDF7CCFD0020AAE7D0290020E47001083E
:102EB000147101083B710108E02900205D2600081B
:102EC0005064010800408F409029002010B50C4C40
:102ED000204604F047F820460A4B40F8283B1022D1
:102EE000002106F083FD012384F83830064B23606F
:102EF0002046064A0649BDE8104001F05FB800BF11
:102F000090290020E482010858830108C8010020AC
:102F1000850A000810B50446044B40F8B83BD4F8C5
:102F2000C4300BB19B689847204610BD74840108DB
:102F30000FB407B5064B07491B6805AAD86801926C
:102F40000AF004FF03B05DF804EB04B0704700BF63
:102F50007C06002084770108F8B50D4C0D4F2368DE
:102F60001646E2681B040D46136040F080010948D4
:102F700004F098FA013D2E44B54205D015F8011F22
:102F8000384604F08FFAF7E7A36822681A60F8BDA4
:102F9000C82A0020002B0020F8B50E4C0E4F2368E5
:102FA0001646E2681B040D46136000F07F010A48D4
:102FB00004F078FA013D2E44B54206D0002138468F
:102FC00004F070FA05F8010FF6E7A36822681A60AA
:102FD000F8BD00BFC82A0020002B002010B5044611
:102FE000FFF798FF204601F06BF9204610BD07B5AA
:102FF00002AB012203F8011D1946FFF7ADFF03B034
:103000005DF804FB07B501220DF10701FFF7C4FFCE
:103010009DF8070003B05DF804FB0A460146002056
:10302000FFF79ABF0A4601460020FFF7B5BF000030
:1030300010B511F031FD0CA3D3E9002311F0D0FE3F
:1030400012F07CF80446C0F307410620FFF7CFFFDB
:10305000C4F307210720FFF7CAFFE1B20820BDE84B
:103060001040FFF7C4BF00BF0000000080844E4046
:10307000144910B50A78044690B932B901230B708F
:10308000114BDA681B681B0413600120FFF7BAFFBD
:1030900000F0F80121430120BDE81040FFF7A7BF71
:1030A000094B2AB11A6800200870D96812040A6016
:1030B000032C1A6803D0DB6812041A60E5E79B68EA
:1030C000FBE700BFDC2B0020AC2A00200120FFF72B
:1030D000CFBF0020FFF7CCBF10B504460120FFF79B
:1030E00091FFC0F3C010844226D0012C13D0FFF70B
:1030F000F0FF0120FFF786FF00F07F010120FFF7BE
:1031000076FF00214020FFF772FF30214120BDE80B
:103110001040FFF76CBFFFF7DCFF2046FFF772FFA0
:1031200060F07F01C9B22046FFF761FF0021402017
:10313000FFF75DFF0021E9E710BD10B5044601204F
:10314000FFF7CAFF2CB134213920BDE81040FFF74A
:103150004EBF1221F8E700002DE9FF47594C054604
:1031600004F0DAFC0121204600F000FC04F0EAFC47
:103170002368E2681B041360012004F07DFF04F063
:10318000CBFC2046002100F0F1FB04F0DBFC062024
:1031900004F072FF2E784C4C042E1CD104F0BCFCC1
:1031A0000021204600F0E2FB04F0CCFC012004F0FA
:1031B00063FF63681A6823681A4214BF0126002659
:1031C00004F0AAFC2046012100F0D0FB04F0BAFC78
:1031D000012004F051FF2368E2683C483C4C1B048A
:1031E00013603C4B9A681B6813600821002204F0AE
:1031F00037F9394804F032FF0020FFF739FF102279
:10320000ACBB2146684606F0F1FB69463348344CB6
:1032100004F035F86846FDF711FC10227CBB21460E
:10322000684606F0E3FB69462E48DFF8C8802E4C5E
:1032300004F025F86846FDF701FC4FF00309002370
:103240005F1CDBB2D8F80020B2FBF9F29A421ED91B
:1032500003EB430304EB030AE05CFFF73DFF9AF83E
:1032600002109AF80100FFF7C2FE3B46E8E7002192
:10327000684606F0BBFB1D4B00940393C5E7002195
:10328000684606F0B3FB194B00940393CBE76879CB
:10329000174CFFF721FF95F82800FFF74EFF42205B
:1032A000FFF7B0FE38B92046FFF742FE4FF07E50E0
:1032B00004F0D4FEF3E7A868FFF7BAFE304604B086
:1032C000BDE8F087E42A0020AC2A0020002B002073
:1032D000AD2B0008C82A0020CDCCCC3D0C2A002004
:1032E000652B00085C2A0020517701085064010812
:1032F00084770108D801002073B5224D224C234E5B
:103300000A21284603F060FF2846214D2246314617
:1033100000F054FE1321284603F056FF22463146A2
:1033200028461C4D00F04AFE4FF0FF330093062262
:1033300005230721284604F0E7F8224616492846C7
:1033400000F03CFE154B1C2422461846002106F0D6
:103350004DFB162103F0EEFE114B224618460021CC
:1033600006F044FB002103F0D2FE0E4B2246002162
:10337000184606F03BFB212102B0BDE8704003F087
:10338000C6BE00BF0C2A0020C80100202172000820
:103390005C2A0020002B0020152F0008C82A0020DE
:1033A000E42A0020AC2A00200FB407B5064B04AA7B
:1033B0001B6852F8041BD86801920AF0C7FC03B0DE
:1033C0005DF804EB04B070477C06002013B5084B91
:1033D0000024CDE900340122082307212046FEF70E
:1033E00053FDFEF74DFD034B1C7002B010BD00BF36
:1033F0002021F636DD2B002010B5044648B9FFF732
:10340000E3F9FFF7E3FF084B1B682046BDE81040D7
:103410001847012807D1FFF7D7F9FFF7D7FF024B6D
:1034200002201B68F2E710BD202C00202DE9F0419E
:10343000884615461F469DF9186000283BD1202A72
:1034400003D92648FFF7B0FF2025254C2A464146E0
:10345000204606F0B5F9234B1F80234B1E702678BB
:103460002746FEB9214BA4781B78A34201D0FF2C3C
:103470001BD1A4F1FF035C425C4101261C4B1B786D
:10348000ABB9FFF7A1F9FFF7A1FF012E24D1194B2A
:10349000787819492A1F1D68D2B22346AC46BDE888
:1034A000F041604700242646E8E73446E6E7134843
:1034B000FFF77AFFE9E7013801280DD80C4B1B789C
:1034C0002BB9FFF781F9BDE8F041FFF77FBF0B484B
:1034D000BDE8F041FFF768BFBDE8F08191780108D1
:1034E000DE2B00202A2C0020282C00202C2C002051
:1034F000DD2B0020242C0020E22B0020D6780108B0
:103500000A4B10B518700A4B19600A4B0A491A6029
:1035100004460A48FFF7D8F8094B00225C701A707D
:10352000FFF752F9BDE81040FFF750BF2C2C0020E8
:10353000202C0020242C00202D340008F933000812
:10354000FE2B0020F7B5184F3C7834B117482146C0
:10355000FFF72AFF012003B0F0BD1C2905D914484C
:103560002022FFF721FF0320F5E7124D0E1DAA7060
:10357000F6B20A460146281D2C70EE7006F020F9BE
:10358000FFF722F90C4A0823CDE900322146012336
:1035900007220E20FEF75CFE31462846FEF740FE6D
:1035A00001233B702046D6E7DD2B0020A6770108DB
:1035B000E7770108FE2B00202021F636014BB3F9F6
:1035C000000070472A2C0020014B93F9000070473F
:1035D000282C002010B5074B1C78012C05D106487B
:1035E0002146FFF7E1FE204610BD044B1870002075
:1035F000FAE700BFDD2B0020317801082C2C0020D9
:103600000FB407B5064B07491B6805AAD868019295
:103610000AF09CFB03B05DF804EB04B0704700BFF8
:103620007C0600204B79010837B501460D480E4A4B
:10363000037803EB83052A44545C012C06D00B4B22
:103640002B445B5C0370204603B030BD0848642205
:1036500002FB03000090074802FB01020648FFF747
:10366000CFFFF0E72D2C00203779010823790108DE
:10367000D0030020DC0100204B790108014B1878B1
:10368000704700BF2D2C0020014B00221A7070479C
:103690002D2C002043692DE9F0410D46D907044641
:1036A00028D58168334F8268334E83683348394068
:1036B000B94202EA060204BF0127A760B24203EA48
:1036C000000304BF4FF48076A660834204BF4FF42A
:1036D0008030A0602748814205D027498A4202D025
:1036E000264A934206D1264B264A1B6852F82500EB
:1036F00001219847E2686369920708D09F0706D5C1
:103700001F4B204A1B6852F8250000219847A169E9
:10371000626963698E070AD5900508D5190406D534
:10372000174B184A1B6852F8250005219847A769CE
:103730006669626917F0040706F4806609D046B12D
:10374000120406D50E4B0F4A1B6852F825000721BC
:10375000984763695FB156B11B0408D5084B094A05
:103760001B6852F825000221BDE8F0411847BDE86A
:10377000F08100BF030000040003000800000310F4
:10378000382C0020302C002000210148FFF782BF98
:1037900000640040FFF7F8BFFFF7F6BF01210148C2
:1037A000FFF778BF00680040FFF7F8BFFFF7F6BFEC
:1037B00030B5036891FAA1F4B4FA84F491FAA1F156
:1037C0000325B1FA81F1640005FA04F4490023EA03
:1037D000040302FA01F11943016030BD00B5002372
:1037E00089B007286FD8DFE800F00413202D3A478E
:1037F00054610093364B37481A6B42F001021A634A
:103800001B6B03F001030093009B09B05DF804FB00
:1038100001932F4B30481A6B42F002021A631B6B64
:1038200003F002030193019BEFE70293284B2B481F
:103830001A6B42F004021A631B6B03F00403029339
:10384000029BE2E70393224B25481A6B42F00802E1
:103850001A631B6B03F008030393039BD5E70493E0
:103860001B4B20481A6B42F010021A631B6B03F0CB
:1038700010030493049BC8E70593154B1A481A6B71
:1038800042F020021A631B6B03F020030593059B93
:10389000BBE706930E4B15481A6B42F040021A63C1
:1038A0001B6B03F040030693069BAEE70793084BA0
:1038B0000F481A6B42F080021A631B6B03F08003FF
:1038C0000793079BA1E70B4804F08EFC00209CE7C0
:1038D000003802400000024000040240000802409C
:1038E000000C024000100240001402400018024088
:1038F000001C0240207C0108431C10B5044604D182
:1039000076220649064803F0DFFE2046002100F03B
:1039100021FE04F00F040120A04010BD417C0108ED
:103920009B7C010870B504464B1C0E46218216D0C4
:10393000C1F30310FFF752FF05463046FFF7DCFFE7
:10394000238A074A656103F00F03206052F8233091
:10395000A36105F1100318356360A560E56070BDD3
:10396000747F0108B0F9100000F08CBE0A4619B946
:1039700081694069FFF71CBF0122F9E74C23F0B5CC
:103980004343224E224F1A1D324400244FF0010EB1
:103990001E448C4205D10146BDE8F0401D4804F0AC
:1039A00023BC33680EFA04F51D422BD0136B7D69DE
:1039B0000EFA03F32B4225D0D2F818C07B611568AC
:1039C00005B3FA6833EA020203D1BA6833EA0202A5
:1039D00014D10F4A916833EA010103D1D26833EA66
:1039E00002020DD1DCF81020134214BF0121022184
:1039F000094B28461B68BDE8F04018470221F7E74D
:103A00000121F5E701340432C3E700BF3C2C00205C
:103A1000003C0140D57C0108502E002006210846BC
:103A2000FFF7ACBF05210846FFF7A8BF012104201E
:103A3000FFF7A4BF01210320FFF7A0BF012102204F
:103A4000FFF79CBF01210846FFF798BF0121002026
:103A5000FFF794BF012910B518D11B4C838952B1CF
:103A6000A26803F00F0399401143A160836843F0FB
:103A70000103836010BDA26803F00F03994022EA9E
:103A80000101A160836823F00103F2E70229F1D16B
:103A90000D4983895AB1CC6803F00F03012202FA61
:103AA00003F32343CB60836843F00203E1E7CA6872
:103AB00003F00F03012404FA03F322EA0303CB60AB
:103AC000836823F00203D4E7003C0140B0F90C30D6
:103AD00099B270B501F00F0606F00C0404F18044B1
:103AE00004F59C3401F00301A56889000F228A4087
:103AF000C3F3031325EA02058B402B43A3600F4B4E
:103B000001221968B240114319608468E50742BF79
:103B1000996811439960A10742BFD9680A43DA60E6
:103B200090F90030002B08DB5909012203F01F0334
:103B300002FA03F3024A42F8213070BD003C014012
:103B400000E100E02DE9F04F92464A1C85B0804626
:103B50000C4666D000220392334A344F516C41F434
:103B600080415164526C02F480420392039A04F043
:103B70000F090C2202FB0972C4F303105568062DCD
:103B800047D8DFE805F0043A3C3E40424400284E66
:103B90000193FFF723FE0C2101FB09F17A1857F876
:103BA00001E0244FA8F80C404C21694301247B58C4
:103BB00092F90820C8F8045004FA0EF44FF0000BF4
:103BC0001C4388F80020C8F808B07C50132101FB82
:103BD00005E507EB8501019B4B60174BC861C3F8F6
:103BE00000A0164BC1F834909B681032404643F851
:103BF0002260FFF76BFF584610E0114EC8E7114EE8
:103C0000C6E7114EC4E7114EC2E7114EC0E7114E90
:103C1000BEE7114804F0E8FA4FF0FF3005B0BDE808
:103C2000F08F0846FAE700BF00380240007D010827
:103C30004D3A00083C2C0020502E002000ED00E002
:103C4000453A00083D3A0008353A00082D3A000888
:103C5000253A00081D3A0008AE7C01088389184AFD
:103C600003F00F03012110B501FA03F39468DB435D
:103C70001C409460D4681C40D460146823401360D6
:103C800090F90030002B0CDB5A0903F01F0301FAF6
:103C900003F320320B4941F82230BFF34F8FBFF3BB
:103CA0006F8F90F90030002B09DB5A09012103F0D6
:103CB0001F0301FA03F36032024941F8223010BDBC
:103CC000003C014000E100E0838903F00F020C2377
:103CD0005343104A70B54468D658FFF7BFFF4C21D4
:103CE0000D4A6143012000FA06F55058132303FBE7
:103CF000046320EA0500505002EB8300002141607C
:103D0000981D0C3302EB800002EB83034160596085
:103D100070BD00BF007D01083C2C002008B503F0F9
:103D200091F8002008BD000008B50A4B1B684BB194
:103D300003F004FA04F015F94FF47A72002311F03D
:103D40006DFA08BD03F0D2F84FF47A73B0FBF3F0CC
:103D500008BD00BF542E002010B588B003F0DCFE73
:103D6000052101A803F0E6F90424039B019A1A60D7
:103D7000962004F081F9019B049A1B04136096209D
:103D800004F07AF9013CF0D10424039B019A1A60F3
:103D90004FF4C87004F070F9019B049A1B0413607F
:103DA0004FF4C87004F068F9013CEED1DCE7000084
:103DB00070B50D46A0B0044603F0AEFE2B46224679
:103DC000802168460BF010FC051E03DC03F0BAFEF0
:103DD00020B070BD094B1B6823B90322022108489B
:103DE00000F0A4FE064E00241DF8041030460134F5
:103DF00001F07EF8A542F7D1E8E700BF9C2E002035
:103E0000443000200FB407B504A951F8040B019108
:103E1000FFF7CEFF03B05DF804EB04B0704700007D
:103E200008B502F0BDFF01F0C1F802F0A9FF02F0F1
:103E3000B7FF024B01221A6008BD00BF542E0020BC
:103E400000207047036801221B690021184703689E
:103E500000221B691146184703681B69184703684D
:103E60009B69184703689B6A184700290CBF6FF0CD
:103E700018000020704701207047112070477047DC
:103E80006FF01C0070476FF01500704701207047FD
:103E90000020704770470000F8B5074E15460C46E5
:103EA0008F18BC4205D014F8011B304601F020F8F1
:103EB000F7E72846F8BD00BF4430002038B58DB282
:103EC00015F0010405D0084800F0ACFD041C18BF33
:103ED0000124EB0605D5044800F0BAFD08B144F012
:103EE0001004204638BD00BF4430002010B5044601
:103EF00005F00EFC204610BD10B50C462AB1044852
:103F000000F0E4FF2070012010BD104610BD00BF7E
:103F10004430002038B51D46074B0360074B1B6833
:103F2000044633B9064800F001FE2946044800F073
:103F3000C5FD204638BD00BF3C7E01089C2E0020F8
:103F400044300020002070470020704708B5012051
:103F500000F036F80C4A136810B51844EFF30881E6
:103F6000884205D3094B0C221A604FF0FF3010BD78
:103F700007490C6824B10749096821448842F1D2F5
:103F80001060184610BD00BF600600200C300020F5
:103F9000682E00206C2E0020074C08B523680546CB
:103FA000986804F075FD2368D86804F071FD0DB1C0
:103FB000FFF7D2FEFEE700BF7C060020012070471D
:103FC00008B5FFF7E9FF01207047002105F098BE12
:103FD00004F098BD7047704708B5FFF7FBFF08BDB8
:103FE00008B5FFF7F8FF08BD10B5037803F0030329
:103FF000012B04460CD02BB140F2A95205490648CA
:1040000003F062FB237843F002032370012010BD0C
:10401000002010BDA17E0108F87E010810B50378CC
:1040200003F00303022B044605D040F2B1520549C8
:10403000054803F049FB237823F0030343F0010311
:10404000237010BDA17E01081E7F01083F2870B5B6
:1040500004462FDC184D55F820305A1C13D1022885
:1040600011DCFFF771FF034658B92046FFF76AFFDE
:10407000034630B9114E3378BFF35B8FDB0704D5AD
:104080000F4B45F82430184670BD3046FFF7ACFFA3
:104090000028F5D04FF41653032202210848FFF7F9
:1040A00039FF3046FFF7BAFF064A07490448FFF7D1
:1040B00085FFE5E70023E6E760050020582E002095
:1040C000642E0020C8010020953E000838B5054642
:1040D000FFF7BCFF0B4B002443F8254030B904F038
:1040E0009DFB092303604FF0FF3038BD03685B6917
:1040F0009847051E04DA04F091FB6D420560F2E773
:10410000204638BD60050020FFF7E0BF38B50C46FB
:104110001546FFF79BFF38B904F080FB09230360C5
:104120004FF0FF34204638BD03682146DB682A463D
:104130009847041EF6DA04F071FB64420460EFE76E
:1041400008B5131E06DA04F069FB162303604FF06E
:10415000FF3008BD04D0FFF7D9FF40EAE07008BD8A
:10416000184608BD38B50C461546FFF76FFF38B93D
:1041700004F054FB092303604FF0FF34204638BDA0
:10418000036821469B682A469847041EF6DA04F025
:1041900045FB64420460EFE7002A08B503DBBDE895
:1041A0000840FFF7DFBF04F039FB162303604FF030
:1041B000FF3008BD10B5FFF749FF044628B904F0E9
:1041C0002DFB09230360204610BD0368DB69984777
:1041D000041EF8DA04F022FB644204600024F2E7D3
:1041E0001FB504220C4640230DEB020101900DF196
:1041F00009008DF8083005F0E3FA214602A804F022
:104200000FFE044630B10198FFF7D4FF10B12046ED
:10421000FFF7DBFE204604B010BDFFF7CBBF38B57B
:104220000C461546FFF712FF38B904F0F7FA0923D8
:1042300003604FF0FF34204638BD036821461B69F8
:104240002A469847041EF6DA04F0E8FA644204604D
:10425000EFE7FFF7E4BF38B50D46FFF7F7FE04467A
:1042600030B904F0DBFA092303604FF0FF3038BDAA
:104270000368DB699847002814BF4FF400534FF4DC
:1042800000436B60236820469B6A984728610020A2
:1042900038BDFFF7E0BF000037B5054605F030FA3E
:1042A000044630B9009003462A460349034803F008
:1042B000BDFF204603B030BD847E01081F01018090
:1042C00005F026BA034610B553F8042B044602B98C
:1042D000036022689A4204D05E220349034803F037
:1042E000F3F9206810BD00BFC07D01081F7E0108E2
:1042F00010B504460948FFF7E5FF0023084A1946B0
:1043000052F82300A04208BF42F823100133402B8B
:10431000F6D10248FFF7D6FF10BD00BF5C2E00208B
:104320006005002010B50F48FFF7CCFF0E4B0324AB
:1043300053F824206AB10134402CF9D104F06EFA0C
:10434000182303600748FFF7BDFF4FF0FF342046F6
:1043500010BD4FF0FF32034843F82420FFF7B2FFAF
:10436000F5E700BF5C2E00206005002010B5044674
:10437000FFF7D8FF0028A4BF014B43F8204010BD31
:104380006005002070B506460C46FFF7EFFF0546B6
:1043900090B12146FFF724FF044630B9074B53F88C
:1043A0002520964203D143F82500204670BD04F035
:1043B00035FA09230360F8E70446F6E760050020B4
:1043C0000EB42DE9F04185B00546FFF7ABFF041EA2
:1043D00013DB0023294602A8019303F0D9FD02A8AC
:1043E00003F028FE1B4D064668B904F017FA1323A4
:1043F000036045F824604FF0FF34204605B0BDE867
:10440000F04103B0704702A803F002FE074602A87D
:1044100037B103F006FE0190019B45F82430ECE72C
:1044200003F0EDFD06460028DFD0036802A8D3F8AC
:10443000088003F0D9FD0B9B024601A93046C04716
:1044400006460028E8D004F0E9F97642066045F80F
:104450002470D0E76005002073B50E461849054664
:1044600005F002FE044620B9FFF7F0FD204602B039
:1044700070BD1449284605F0F7FD20B90120FFF76B
:10448000E5FD0124F2E71049284605F0EDFD20B9CD
:104490000220FFF7DBFD0224E8E72B78402B07D151
:1044A0000422691C0DEB020005F08AF9019CDDE78E
:1044B00026F400412846FFF783FF0446D6E700BFF5
:1044C000657F01086C7F01085D7F010870477047B8
:1044D000074B08499A68084810B5043A52F8044F47
:1044E00041F8044F8142F9D14FF000529A6010BD5B
:1044F00000ED00E0FCFFFF1FC001002008B5FFF742
:10450000E7FFFFF78DFCFFF7E2FF08BD08B5FFF7F7
:10451000DDFFBDE80840FBF7B3BE30B5C36891FAD4
:10452000A1F4B4FA84F491FAA1F10325B1FA81F16E
:10453000640005FA04F4490023EA040302FA01F1D5
:104540001943C16030BD012A02D0022A18BF0022DF
:10455000FFF7E3BF2DE9F0410E46411C044604D1AC
:104560003E224449444803F0AFF804F00F08434B9F
:10457000C4F3031053F82850FFF730F906F007078B
:104580000446836895FAA5F1B1FA81F195FAA5F28E
:104590000320490000FA01F1B2FA82F223EA010392
:1045A0005200022101FA02F21343A36087425AD853
:1045B000DFE807F05E1D021DB8F1070FC6F3032008
:1045C0003BD9626A2B0A93FAA3F1B1FA81F193FA0B
:1045D000A3F34FF00F0EB3FA83F389000EFA01F143
:1045E0009B0022EA010200FA03F3134363623B4695
:1045F000226895FAA5F0B0FA80F095FAA5F14FF08F
:10460000030EB1FA81F140000EFA00F0490022EAEF
:1046100000028B40013F1343012F236005D86368DC
:1046200032074CBF2B43AB436360C6F301122946EC
:104630002046BDE8F041FFF786BF226A95FAA5F350
:10464000B3FA83F395FAA5F14FF00F0EB1FA81F1A9
:104650009B000EFA03F3890022EA030200FA01F339
:1046600013432362C3E767220249054803F02CF88D
:104670000023BDE7B47F01089B7C0108747F01081B
:10468000AB860108431C70B506460D4604D188224E
:104690001B491C4803F018F806F00F021A4BC6F32A
:1046A000031053F82240FFF799F804FB04F2016865
:1046B00002EB42030B40B3FBF2F3013B012B05D8A5
:1046C000EB1E022B436809D823434360032D08D116
:1046D00001222146BDE87040FFF735BF23EA0403FD
:1046E0004360012DF4D0052D01D0022D01D102220D
:1046F000EFE721460022BDE87040FFF70EBF00BF84
:10470000B47F01089B7C0108747F010870B5A6B0D6
:104710003422002102A805F069F95C2200210FA8CB
:1047200005F064F92A4B1D68002D4FD1294C0195E5
:1047300001261E60236C43F080532364236C03F036
:1047400080530193019B00F05DFC042302A80293B7
:104750000895049600F0C0FF10B11F4803F044FD17
:10476000A36823F4F813A360A36823F4F813A360E9
:10477000236F43F48073236720230F930FA84FF414
:1047800080731F9300F058FD10B1144803F02CFD06
:10479000134B144801221A60134B036003220023B9
:1047A000826041F6FF7243774360C26003614361F8
:1047B000836101F05EF910B10C4803F015FD094862
:1047C00001F089FA10B10A4803F00EFD26B070BD61
:1047D000782E0020003802400C8001082C8001084F
:1047E0003C0E47427C2E00200028004055800108E6
:1047F0006F800108F0B51F4B1F491C681F4A5D6898
:104800008BB00C4015401E460F4618680840844285
:104810002BD158681040854227D105F03F0001F0A8
:1048200051FA0490C5F3042001F04CFA01380590C8
:10483000280C01F047FA44300690C4F3054001F01B
:1048400041FA0390C4F3062001F03CFA029004F010
:104850007F0001F037FA01220190694601A802F0B9
:1048600051FF00B100980BB0F0BD346875683C4052
:104870001540CAE7002800407F7F7F003FFFFF0010
:10488000024BD868C0F30010704700BF00280040FA
:10489000214B224A2DE9F0411D691C689E6AC5F32F
:1048A0000E05144018461746196811408C422ED147
:1048B000996A8E422BD1C4F3054001F003FA0746F2
:1048C000C4F3062001F0FEF9804604F07F0001F0F9
:1048D000F9F9134A13493C2313FB08004FF46163B1
:1048E00003FB07001368146898420B683CBF03F58C
:1048F000A83303F5C0731B1B03440B6010600868EA
:10490000013DC00305EB9000801BBDE8F081046809
:10491000866A3C40C8E700BF002800407F7F7F00D8
:10492000742E0020702E002030B591B0002114228A
:10493000044602A8019105F059F803F0EDF82A4B5E
:104940002A4A1A6007A90122204602F02BFF0028FC
:1049500048D00D9B03B907238DF804300B9B01331E
:104960008DF805300A9B8DF806300C9B443B8DF882
:104970000730099B8DF80830089B8DF8093000241A
:10498000079B8DF80A308DF80B4005940694FFF7CD
:104990007FFF9DF809109DF80A2013483C2313FB64
:1049A00001229DF808304FF4616101FB0323104A96
:1049B00013600E4B224601A99D6A01F0B3F810B1B5
:1049C0000C4803F011FC002202A9074801F00AF983
:1049D00010B1094803F008FC044A936A9D42FCD1D7
:1049E00003F0B0F811B030BD7C2E0020002800404C
:1049F000742E0020888001089F8001080FB407B53D
:104A0000064B07491B6805AAD868019209F09EF970
:104A100003B05DF804EB04B0704700BF7C060020D3
:104A2000B68001084368094A9B0182B0D3581A68CE
:104A3000120706D5002201921A6801925A68019263
:104A4000019A1868C0F3401002B0704790300020FF
:104A50004368034A9B01D3581868C0F3C0107047DD
:104A60009030002042681449920110B404685450F8
:104A7000531882685A60C2689A600269DA604269B3
:104A80001A61026A9A610022DA84DA619A84DA850C
:104A90009A85B0F91A20013206D108225A611846C7
:104AA0005DF8044B01F0B1BEB0F9182001320CBF23
:104AB00004220C22F2E700BF9030002010B5816084
:104AC0000C46FFF7CFFF28B121460348BDE8104050
:104AD000FFF794BF10BD00BFB6800108124B98428B
:104AE00017D0A3F54C43984215D003F58063984244
:104AF00013D003F58063984211D003F58063984288
:104B00000FD003F5444398420CBF05204FF0FF300F
:104B10007047002070470120704702207047032033
:104B200070470420704700BF00100140F0B50E46EA
:104B300087B004465B493046154602F037FC5A49B7
:104B40000746284602F032FC0146384602F008FCCF
:104B50002060013004D13D225449554802F0B4FD93
:104B6000022E0CD0032D0AD04E49022002F01EFC6A
:104B7000874202D14F4803F037FB002700E00127AE
:104B80004D4B206898424FF000031AD100934B4BD5
:104B90005A6C42F010025A645B6C03F010030093ED
:104BA000009B474B984229D100230593434B5A6CF5
:104BB00042F020025A645B6C03F020030593059BCE
:104BC0001CE0404A90420BD101933C4B1A6C42F4DA
:104BD00000321A641B6C03F400330193019BE0E77D
:104BE000394A904240D10293344B1A6C42F48022ED
:104BF0001A641B6C03F480230293029BFFF76EFF81
:104C00000028606004DAA4222849304802F05CFDE4
:104C10002449304602F080FB2349284602F07CFB01
:104C2000721C03D001213046FFF72CFD6B1C03D012
:104C300001212846FFF726FD4FF41653A3600023F9
:104C4000E360236163612362268365832046FFF767
:104C500009FF3FB11E4B1F4801221A6021464C221A
:104C600004F0AEFD07B0F0BD1B4A90420BD1039398
:104C7000124B1A6C42F400221A641B6C03F40023DA
:104C80000393039BBAE7154A90428AD104930B4BD6
:104C90001A6C42F480121A641B6C03F480130493A0
:104CA000049BABE7A87B0108307B0108E08001088A
:104CB0003C81010858810108001001400038024081
:104CC0000014014000440040004800408D8101086C
:104CD0009C2E002044300020004C0040005000403A
:104CE000002808DB4209012300F01F0003FA00F04E
:104CF000014B43F82200704700E100E000280DDB83
:104D00004309012200F01F0002FA00F02033044A98
:104D100042F82300BFF34F8FBFF36F8F704700BF80
:104D200000E100E0F7B5FFF7D9FE071E26DB144EC1
:104D300056F8270010B3134CBD0163591A681206C8
:104D400006D5DB68190603D50F4B01211B68984770
:104D500063591A68920608D5DB68980605D50A4B90
:104D600056F827001B680021984763591A681107F5
:104D700004D55A69D20744BF5B68019303B0F0BD04
:104D8000A42E002090300020A02E00200148FFF724
:104D9000C9BF00BF001401400148FFF7C3BF00BFF7
:104DA000005000400148FFF7BDBF00BF004C00406D
:104DB0000148FFF7B7BF00BF004800400148FFF7B8
:104DC000B1BF00BF004400400148FFF7ABBF00BFC8
:104DD00000100140034B19604168034B43F8212048
:104DE000704700BFA02E0020A42E002030B490E811
:104DF00018002C48834233D00AD8A0F500608342C3
:104E000028D000F58060834227D0002318460FE0A9
:104E1000254883420AD000F58060834223D0A0F564
:104E200044408342F1D1214B352001E0204B252025
:104E3000204DA401FAB1C9B92959CA6842F020022B
:104E4000CA601D4A00F11001926830BC42F821305E
:104E5000FFF746BF194B2620EAE7194B2720E7E763
:104E6000184B3420E4E7184B4720E1E72959CA687A
:104E700042F08002E4E72B59DA6849B922F02002B7
:104E8000DA60DB6813F0800F09D130BCFFF736BF62
:104E900022F08002DA60DB6813F0200FF4E730BC08
:104EA000704700BF004C004000100140994D0008C1
:104EB000C94D00089030002000ED00E0BD4D000815
:104EC000B14D0008A54D00088D4D000838B5446867
:104ED00005462846FFF7A6FD0028FAD0A401034B9B
:104EE0001B595868C0F3080038BD00BF903000203F
:104EF00070B5456806460C463046FFF7A9FD002808
:104F0000FAD0AD01024B5B59C4F308045C6070BD7C
:104F10009030002008B50E4AC36D934214D008D8D3
:104F2000A2F5806293420FD00A4803F05DF9002099
:104F300008BD094A934203D002F580629342F3D13F
:104F4000BDE8084000F04AB9BDE8084000F036B9B5
:104F5000003C00409F81010800300140DFF830D064
:104F6000002103E00B4B5B58435004310A480B4BC4
:104F700042189A42F6D30A4A02E0002342F8043B60
:104F8000084B9A42F9D301F01FFEFBF73FF9704737
:104F90000000022038900108C80100204C100020B9
:104FA0005010002058320020FEE7704708B50B4B28
:104FB0001A6842F400721A601A6842F480621A6039
:104FC0001A6842F480721A60032000F009F80F207A
:104FD000FEF7A4FEFFF7E9FF002008BD003C0240F9
:104FE000074AD36823F4E0631B041B0C43F0BF6340
:104FF000000243F4003300F4E0600343D3607047E1
:1050000000ED00E0014B01221A60704720000E42C3
:1050100037B500230193184B184C1A6C42F080529C
:105020001A641B6C03F080530193019B144B012203
:105030001A60FEF779FE05466368DA030BD5114B5B
:105040000E4C01221A60FEF76FFE054663689B0353
:105050000AD5002006E0FEF767FE401BB0F57A7F18
:10506000EAD9032003B030BDFEF75EFE401BB0F569
:105070007A7FEBD9F5E700BF0038024000700040AE
:1050800040000E4244000E422DE9F0410D46044618
:1050900010B90120BDE8F081444B1A6802F00F02FC
:1050A0008A4228D321688F072DD4C80740D43F4BAC
:1050B0001A6802F00F02954266D3226851076CD439
:1050C000130707D53A4A2169936823F4604343EAFA
:1050D000C103936000F0B8FA354B364A9B68C3F3BE
:1050E0000313D35CD840344B18600F20FEF716FE34
:1050F0000020BDE8F081CAB21A701B6803F00F03EC
:105100009942C6D1CEE72A4B11F0040F1EBF9A6810
:1051100042F4E0529A600E0742BF9A6842F460423D
:105120009A609A68A06822F0F00202439A60BCE795
:1051300062681F4B012A1DD11B6813F4003FA8D0E1
:105140001B4EB36823F003031343B360FEF7ECFD7B
:1051500041F288380746B368626803F00C03B3EB8A
:10516000820FA4D0FEF7E0FDC01B4045F3D9032019
:10517000BDE8F081911E01291B6802D813F0007F61
:10518000DDE713F0020FDAE7EAB21A701B6803F0EA
:105190000F039D427FF47DAF8FE70549E0688B6880
:1051A00023F4E05303438B608AE700BF003C0240D6
:1051B00000380240A582010864060020044B054A1D
:1051C0009B68C3F38223D35C034A1068D8407047BE
:1051D00000380240B582010864060020044B054AED
:1051E0009B68C3F34233D35C034A1068D8407047CE
:1051F00000380240B5820108640600200F230360D6
:105200000B4B9A6802F0030242609A6802F0F002C7
:1052100082609A6802F4E052C2609B68DB0803F483
:10522000E0530361034B1B6803F00F030B607047EF
:1052300000380240003C024003682DE9F74313F0B8
:10524000010604460BD0AA49866BD1F88C2022F0C7
:10525000C0623243B6FA86F6C1F88C2076099D0703
:105260000BD5A348E16BD0F88C2022F0C0520A4342
:105270000029C0F88C2008BF012613F0040512D0C5
:105280009B49256BD1F88C20B5F5801F22F4401284
:1052900042EA050218BFB5FA85F5C1F88C2012BFA5
:1052A0006D090025012618070FD59148616BD0F8CC
:1052B0008C2022F440020A43B1F5800FC0F88C2004
:1052C00000F00981002908BF0125990633D5002384
:1052D0000193874B874F1A6C42F080521A641B6C03
:1052E00003F080530193019B3B6843F480733B6060
:1052F000FEF71AFD80463B68DA0540F1EE807C4FF0
:105300003B6F13F4407340F0FB80236C03F4407256
:10531000B2F5407F764A40F01681916823F07040E4
:1053200021F4F81120F4407001439160116FC3F330
:105330000B030B4313672368D90642BF6E4B94F8E7
:1053400058201A6023681A0608D56949E06CD1F81C
:10535000942022F440020243C1F894205F0608D54D
:105360006349A06CD1F8942022F080620243C1F816
:105370009420D8050CD55E48616DD0F8942022F0B9
:1053800000620A43B1F1006FC0F8942008BF012504
:10539000990508D55649606CD1F8942022F08052C6
:1053A0000243C1F894205A0500F1D180012E40F04B
:1053B000DC80524E4E4F00233360FEF7B5FC804632
:1053C0003B681B0100F125812268D00701D5A36B42
:1053D0001BB1910715D5E36B9BB94549D1F88430D2
:1053E000D1F8840003F4403300F070600343606838
:1053F0000343A06843EA8013606943EA0073C1F87D
:105400008430530703D5236BB3F5801F05D01707EE
:1054100020D5636BB3F5800F1CD13549D1F88430AA
:10542000D1F8840003F4403300F0E04003436068A7
:105430000343A06843EA8013206943EA0063C1F88C
:105440008430D1F88C00A36A20F01F00013B034395
:10545000C1F88C3050051BD5236DB3F1005F17D117
:1054600023486768D0F88410D0F8843003F0E04314
:105470003B43A768C1F30141013143EA871343EA83
:105480004163E1684908013943EA0143C0F88430C7
:10549000110511D52369A2681B0643EA82136268CD
:1054A0001343626943EA0273E2685208013A43EA2D
:1054B00002430F4AC2F8843001233360FEF734FC04
:1054C0000B4E074633681A0153D4FEF72DFCC01B60
:1054D0000228F7D908E00126F7E6FEF725FCA0EB45
:1054E000080002287FF607AF032003B0BDE8F08371
:1054F0000038024000700040E01147426800474217
:10550000226C02F4407293423FF4FFAE3B6F4B4A71
:105510000121116023F44073002111603B673B6F50
:10552000DB077FF5F2AEFEF7FFFB41F288398046DC
:105530003B6F98073FF5E9AEFEF7F6FBA0EB0800DE
:105540004845F5D9D0E7916821F4F811EDE63C48DB
:10555000216DD0F8942022F000520A43B1F1005F8F
:10556000C0F894207FF422AF23E7B3F5006F3FF437
:1055700020AF012D4BD1334D314E00232B60FEF770
:10558000D3FB074633689B004BD421684E0701D5F7
:10559000236B1BB108071AD5636BC3B9284AA069EE
:1055A000D2F8883003F440330343E06943EA8013C0
:1055B000606A43EA0063C2F88830D2F88C30E06A4F
:1055C00023F4F853013843EA0023C2F88C30CA05AB
:1055D00014D5636DB3F1006F10D11949A269D1F8E8
:1055E000883003F070631343E26943EA8213226A4E
:1055F0005208013A43EA0243C1F8883001232B6084
:10560000FEF792FB0E4C054623689B000FD5002049
:105610006BE7FEF789FBA0EB080002287FF6D0AE0F
:1056200062E7FEF781FBC01B0228ABD95CE7FEF7FF
:105630007BFB401B0228E7D956E700BF400E4742DC
:105640000038024070004742204908B58B6803F0DB
:105650000C03082B07D00C2B20D01D4A1D48042B0F
:1056600018BF104608BD4A684B68496813F48003A8
:1056700014BF18481648C1F3881118BF002302F060
:105680003F02A1FB00010FF0C9FD104B5B68C3F3A3
:10569000014301335B00B0FBF3F008BD4A684B687F
:1056A000496813F4800314BF0A480948C1F38811FC
:1056B00018BF002302F03F02A1FB00010FF0AEFD76
:1056C000024B5B68C3F30273E5E700BF003802409A
:1056D0000024F40000127A0003682DE9F341DF078B
:1056E000044610D423689E0767D423681A0700F184
:1056F000B28023685B0700F1D080A269002A40F0E5
:10570000398100201EE0974B9A6802F00C02042AAF
:1057100010D09A6802F00C02082A02D15B685D0280
:1057200008D4904B9A6802F00C020C2A0DD15A68EA
:1057300050020AD58B4B1B689903D3D56368002BA5
:10574000D0D1012002B0BDE8F0816268B2F5803F9F
:1057500011D11A6842F480321A60FEF7E5FA814DE1
:1057600006462B689A03BDD4FEF7DEFA801B642838
:10577000F7D90320E6E77B4DB2F5A02F2B6807D1C0
:1057800043F480232B602B6843F480332B60E4E7E1
:1057900023F480332B602B6823F480232B60002AB2
:1057A000DBD1FEF7C1FA06462B689B039AD5FEF7BC
:1057B000BBFA801B6428F7D9DBE76A4B9A6812F0C2
:1057C0000C0F10D09A6802F00C02082A02D15B6814
:1057D0005F0208D5634A936803F00C030C2B11D1C8
:1057E00053685E020ED45F4B1A68950702D5E268D3
:1057F000012AA6D11A68216922F0F80242EAC10200
:105800001A6072E7E268584BB2B101221A60FEF7E3
:105810008BFA544D06462B68980707D52B682269EA
:1058200023F0F80343EAC2032B605EE7FEF77CFA3D
:10583000801B0228EFD99CE71A60FEF775FA494DE4
:1058400006462B6899077FF550AFFEF76DFA801B6F
:105850000228F6D98DE76269444B7AB101221A60B9
:10586000FEF762FA3F4D06466B6F9F073FF541AF6B
:10587000FEF75AFA801B0228F6D97AE71A60FEF77B
:1058800053FA384D06466B6F98077FF532AFFEF737
:105890004BFA801B0228F6D96BE7324B1A6C12F0D8
:1058A000805228D101921A6C42F080521A641B6C0B
:1058B00003F080530193019B01262D4D2B68D905E0
:1058C0001BD5A368274D012B27D12B6F43F0010374
:1058D0002B67FEF729FA234D074641F288382B6FD4
:1058E0009B0739D5002E3FF408AF1E4A136C23F0F6
:1058F0008053136401E70026DFE72B6843F48073CD
:105900002B60FEF711FA07462B68DA05D9D4FEF7AB
:105910000BFAC01B0228F7D92BE7052B04D12B6FFC
:1059200043F004032B67D0E72A6F22F001022A67B5
:105930002A6F22F004022A67002BCAD1FEF7F4F97D
:1059400041F2883807462B6F9807CBD5FEF7ECF964
:10595000C01B4045F7D90CE7FEF7E6F9C01B4045F0
:10596000BDD906E70038024000004742800E47429A
:1059700000700040234DAB6803F00C03082B3FF48C
:10598000E0AE214E0023022A33602DD1FEF7CCF980
:1059900007462B68990121D4226AE3691343626A9E
:1059A00043EA8213E26A43EA0263226B43EA027328
:1059B000A26A144C5208013A43EA02436B60012385
:1059C0003360FEF7B1F9054623689A013FF599AEB9
:1059D000FEF7AAF9401B0228F6D9CAE6FEF7A4F999
:1059E000C01B0228D5D9C4E6FEF79EF904462B68F1
:1059F0009B017FF586AEFEF797F9001B0228F6D9CA
:105A0000B7E600BF003802406000474270470268B6
:105A100038B5D36823F0A003D3600446FEF784F9B9
:105A200005462368DB689B0601D5002038BDFEF7DC
:105A30007BF9401BB0F57A7FF3D9032038BD38B528
:105A40000368DA685206044601D5002038BD4FF0DD
:105A5000FF32DA60FEF768F905462368DB685B060B
:105A6000F3D4FEF761F9401BB0F57A7FF5D9032036
:105A700038BD38B50446B8B1437F03F0FF0213B90F
:105A80000277FFF7C3FF022363772368CA225A62B3
:105A900053225A622046FFF7D2FF2368054628B1F9
:105AA000FF225A620423637701252EE09A68206959
:105AB00022F4E00222F040029A6062689968024390
:105AC000606902430A439A60E2681A611A69A16830
:105AD00042EA01421A61DA6822F08002DA609B68C9
